{
	"forsage.sol": {
		"Forsage": {
			"abi": [
				{
					"inputs": [
						{
							"internalType": "address",
							"name": "ownerAddress",
							"type": "address"
						}
					],
					"stateMutability": "nonpayable",
					"type": "constructor"
				},
				{
					"anonymous": false,
					"inputs": [
						{
							"indexed": true,
							"internalType": "address",
							"name": "receiver",
							"type": "address"
						},
						{
							"indexed": true,
							"internalType": "address",
							"name": "from",
							"type": "address"
						},
						{
							"indexed": false,
							"internalType": "uint8",
							"name": "matrix",
							"type": "uint8"
						},
						{
							"indexed": false,
							"internalType": "uint8",
							"name": "level",
							"type": "uint8"
						}
					],
					"name": "MissedEthReceive",
					"type": "event"
				},
				{
					"anonymous": false,
					"inputs": [
						{
							"indexed": true,
							"internalType": "address",
							"name": "user",
							"type": "address"
						},
						{
							"indexed": true,
							"internalType": "address",
							"name": "referrer",
							"type": "address"
						},
						{
							"indexed": false,
							"internalType": "uint8",
							"name": "matrix",
							"type": "uint8"
						},
						{
							"indexed": false,
							"internalType": "uint8",
							"name": "level",
							"type": "uint8"
						},
						{
							"indexed": false,
							"internalType": "uint8",
							"name": "place",
							"type": "uint8"
						}
					],
					"name": "NewUserPlace",
					"type": "event"
				},
				{
					"anonymous": false,
					"inputs": [
						{
							"indexed": true,
							"internalType": "address",
							"name": "user",
							"type": "address"
						},
						{
							"indexed": true,
							"internalType": "address",
							"name": "referrer",
							"type": "address"
						},
						{
							"indexed": true,
							"internalType": "uint256",
							"name": "userId",
							"type": "uint256"
						},
						{
							"indexed": false,
							"internalType": "uint256",
							"name": "referrerId",
							"type": "uint256"
						}
					],
					"name": "Registration",
					"type": "event"
				},
				{
					"anonymous": false,
					"inputs": [
						{
							"indexed": true,
							"internalType": "address",
							"name": "user",
							"type": "address"
						},
						{
							"indexed": true,
							"internalType": "address",
							"name": "currentReferrer",
							"type": "address"
						},
						{
							"indexed": true,
							"internalType": "address",
							"name": "caller",
							"type": "address"
						},
						{
							"indexed": false,
							"internalType": "uint8",
							"name": "matrix",
							"type": "uint8"
						},
						{
							"indexed": false,
							"internalType": "uint8",
							"name": "level",
							"type": "uint8"
						}
					],
					"name": "Reinvest",
					"type": "event"
				},
				{
					"anonymous": false,
					"inputs": [
						{
							"indexed": true,
							"internalType": "address",
							"name": "from",
							"type": "address"
						},
						{
							"indexed": true,
							"internalType": "address",
							"name": "receiver",
							"type": "address"
						},
						{
							"indexed": false,
							"internalType": "uint8",
							"name": "matrix",
							"type": "uint8"
						},
						{
							"indexed": false,
							"internalType": "uint8",
							"name": "level",
							"type": "uint8"
						}
					],
					"name": "SentDividends",
					"type": "event"
				},
				{
					"anonymous": false,
					"inputs": [
						{
							"indexed": true,
							"internalType": "address",
							"name": "user",
							"type": "address"
						},
						{
							"indexed": true,
							"internalType": "address",
							"name": "referrer",
							"type": "address"
						},
						{
							"indexed": false,
							"internalType": "uint8",
							"name": "matrix",
							"type": "uint8"
						},
						{
							"indexed": false,
							"internalType": "uint8",
							"name": "level",
							"type": "uint8"
						}
					],
					"name": "Upgrade",
					"type": "event"
				},
				{
					"stateMutability": "payable",
					"type": "fallback"
				},
				{
					"inputs": [],
					"name": "LAST_LEVEL",
					"outputs": [
						{
							"internalType": "uint8",
							"name": "",
							"type": "uint8"
						}
					],
					"stateMutability": "view",
					"type": "function"
				},
				{
					"inputs": [
						{
							"internalType": "uint8",
							"name": "matrix",
							"type": "uint8"
						},
						{
							"internalType": "uint8",
							"name": "level",
							"type": "uint8"
						}
					],
					"name": "buyNewLevel",
					"outputs": [],
					"stateMutability": "payable",
					"type": "function"
				},
				{
					"inputs": [
						{
							"internalType": "bytes",
							"name": "bys",
							"type": "bytes"
						}
					],
					"name": "bytesToAddress",
					"outputs": [
						{
							"internalType": "address",
							"name": "addr",
							"type": "address"
						}
					],
					"stateMutability": "pure",
					"type": "function"
				},
				{
					"inputs": [
						{
							"internalType": "address",
							"name": "userAddress",
							"type": "address"
						},
						{
							"internalType": "uint8",
							"name": "level",
							"type": "uint8"
						}
					],
					"name": "findFreeX3Referrer",
					"outputs": [
						{
							"internalType": "address",
							"name": "",
							"type": "address"
						}
					],
					"stateMutability": "view",
					"type": "function"
				},
				{
					"inputs": [
						{
							"internalType": "address",
							"name": "userAddress",
							"type": "address"
						},
						{
							"internalType": "uint8",
							"name": "level",
							"type": "uint8"
						}
					],
					"name": "findFreeX6Referrer",
					"outputs": [
						{
							"internalType": "address",
							"name": "",
							"type": "address"
						}
					],
					"stateMutability": "view",
					"type": "function"
				},
				{
					"inputs": [
						{
							"internalType": "uint256",
							"name": "",
							"type": "uint256"
						}
					],
					"name": "idToAddress",
					"outputs": [
						{
							"internalType": "address",
							"name": "",
							"type": "address"
						}
					],
					"stateMutability": "view",
					"type": "function"
				},
				{
					"inputs": [
						{
							"internalType": "address",
							"name": "userAddress",
							"type": "address"
						}
					],
					"name": "isUserExists",
					"outputs": [
						{
							"internalType": "bool",
							"name": "",
							"type": "bool"
						}
					],
					"stateMutability": "view",
					"type": "function"
				},
				{
					"inputs": [],
					"name": "lastUserId",
					"outputs": [
						{
							"internalType": "uint256",
							"name": "",
							"type": "uint256"
						}
					],
					"stateMutability": "view",
					"type": "function"
				},
				{
					"inputs": [
						{
							"internalType": "uint8",
							"name": "",
							"type": "uint8"
						}
					],
					"name": "levelPrice",
					"outputs": [
						{
							"internalType": "uint256",
							"name": "",
							"type": "uint256"
						}
					],
					"stateMutability": "view",
					"type": "function"
				},
				{
					"inputs": [],
					"name": "owner",
					"outputs": [
						{
							"internalType": "address",
							"name": "",
							"type": "address"
						}
					],
					"stateMutability": "view",
					"type": "function"
				},
				{
					"inputs": [
						{
							"internalType": "address",
							"name": "referrerAddress",
							"type": "address"
						}
					],
					"name": "registrationExt",
					"outputs": [],
					"stateMutability": "payable",
					"type": "function"
				},
				{
					"inputs": [
						{
							"internalType": "address",
							"name": "",
							"type": "address"
						}
					],
					"name": "users",
					"outputs": [
						{
							"internalType": "uint256",
							"name": "id",
							"type": "uint256"
						},
						{
							"internalType": "address",
							"name": "referrer",
							"type": "address"
						},
						{
							"internalType": "uint256",
							"name": "partnersCount",
							"type": "uint256"
						}
					],
					"stateMutability": "view",
					"type": "function"
				},
				{
					"inputs": [
						{
							"internalType": "address",
							"name": "",
							"type": "address"
						},
						{
							"internalType": "uint8",
							"name": "",
							"type": "uint8"
						}
					],
					"name": "x3Matrices",
					"outputs": [
						{
							"internalType": "address",
							"name": "currentReferrer",
							"type": "address"
						},
						{
							"internalType": "bool",
							"name": "blocked",
							"type": "bool"
						},
						{
							"internalType": "uint256",
							"name": "reinvestCount",
							"type": "uint256"
						}
					],
					"stateMutability": "view",
					"type": "function"
				},
				{
					"inputs": [
						{
							"internalType": "address",
							"name": "",
							"type": "address"
						},
						{
							"internalType": "uint8",
							"name": "",
							"type": "uint8"
						}
					],
					"name": "x6Matrices",
					"outputs": [
						{
							"internalType": "address",
							"name": "currentReferrer",
							"type": "address"
						},
						{
							"internalType": "bool",
							"name": "blocked",
							"type": "bool"
						},
						{
							"internalType": "uint256",
							"name": "reinvestCount",
							"type": "uint256"
						},
						{
							"internalType": "address",
							"name": "closedPart",
							"type": "address"
						}
					],
					"stateMutability": "view",
					"type": "function"
				},
				{
					"stateMutability": "payable",
					"type": "receive"
				}
			],
			"devdoc": {
				"kind": "dev",
				"methods": {},
				"version": 1
			},
			"evm": {
				"assembly": "    /* \"forsage.sol\":60:11165  contract Forsage {... */\n  mstore(0x40, 0x80)\n    /* \"forsage.sol\":939:940  2 */\n  0x02\n    /* \"forsage.sol\":914:940  uint public lastUserId = 2 */\n  0x04\n  sstore\n    /* \"forsage.sol\":1954:2525  constructor(address ownerAddress) {... */\n  callvalue\n  dup1\n  iszero\n  tag_1\n  jumpi\n  0x00\n  dup1\n  revert\ntag_1:\n  pop\n  mload(0x40)\n  sub(codesize, bytecodeSize)\n  dup1\n  bytecodeSize\n  dup4\n  codecopy\n  dup2\n  dup2\n  add\n  0x40\n  mstore\n  dup2\n  add\n  swap1\n  tag_2\n  swap2\n  swap1\n  tag_3\n  jump\t// in\ntag_2:\n    /* \"forsage.sol\":2015:2026  0.025 ether */\n  0x58d15e17628000\n    /* \"forsage.sol\":1999:2009  levelPrice */\n  0x06\n    /* \"forsage.sol\":1999:2012  levelPrice[1] */\n  0x00\n    /* \"forsage.sol\":2010:2011  1 */\n  0x01\n    /* \"forsage.sol\":1999:2012  levelPrice[1] */\n  0xff\n  and\n  dup2\n  mstore\n  0x20\n  add\n  swap1\n  dup2\n  mstore\n  0x20\n  add\n  0x00\n  keccak256\n    /* \"forsage.sol\":1999:2026  levelPrice[1] = 0.025 ether */\n  dup2\n  swap1\n  sstore\n  pop\n    /* \"forsage.sol\":2042:2049  uint8 i */\n  0x00\n    /* \"forsage.sol\":2052:2053  2 */\n  0x02\n    /* \"forsage.sol\":2042:2053  uint8 i = 2 */\n  swap1\n  pop\n    /* \"forsage.sol\":2037:2141  for (uint8 i = 2; i <= LAST_LEVEL; i++) {... */\ntag_6:\n    /* \"forsage.sol\":681:683  12 */\n  0x0c\n    /* \"forsage.sol\":2055:2070  i <= LAST_LEVEL */\n  0xff\n  and\n    /* \"forsage.sol\":2055:2056  i */\n  dup2\n    /* \"forsage.sol\":2055:2070  i <= LAST_LEVEL */\n  0xff\n  and\n  gt\n    /* \"forsage.sol\":2037:2141  for (uint8 i = 2; i <= LAST_LEVEL; i++) {... */\n  tag_7\n  jumpi\n    /* \"forsage.sol\":2128:2129  2 */\n  0x02\n    /* \"forsage.sol\":2108:2118  levelPrice */\n  0x06\n    /* \"forsage.sol\":2108:2125  levelPrice[i - 1] */\n  0x00\n    /* \"forsage.sol\":2123:2124  1 */\n  0x01\n    /* \"forsage.sol\":2119:2120  i */\n  dup5\n    /* \"forsage.sol\":2119:2124  i - 1 */\n  tag_9\n  swap2\n  swap1\n  tag_10\n  jump\t// in\ntag_9:\n    /* \"forsage.sol\":2108:2125  levelPrice[i - 1] */\n  0xff\n  and\n  0xff\n  and\n  dup2\n  mstore\n  0x20\n  add\n  swap1\n  dup2\n  mstore\n  0x20\n  add\n  0x00\n  keccak256\n  sload\n    /* \"forsage.sol\":2108:2129  levelPrice[i - 1] * 2 */\n  tag_11\n  swap2\n  swap1\n  tag_12\n  jump\t// in\ntag_11:\n    /* \"forsage.sol\":2092:2102  levelPrice */\n  0x06\n    /* \"forsage.sol\":2092:2105  levelPrice[i] */\n  0x00\n    /* \"forsage.sol\":2103:2104  i */\n  dup4\n    /* \"forsage.sol\":2092:2105  levelPrice[i] */\n  0xff\n  and\n  0xff\n  and\n  dup2\n  mstore\n  0x20\n  add\n  swap1\n  dup2\n  mstore\n  0x20\n  add\n  0x00\n  keccak256\n    /* \"forsage.sol\":2092:2129  levelPrice[i] = levelPrice[i - 1] * 2 */\n  dup2\n  swap1\n  sstore\n  pop\n    /* \"forsage.sol\":2072:2075  i++ */\n  dup1\n  dup1\n  tag_13\n  swap1\n  tag_14\n  jump\t// in\ntag_13:\n  swap2\n  pop\n  pop\n    /* \"forsage.sol\":2037:2141  for (uint8 i = 2; i <= LAST_LEVEL; i++) {... */\n  jump(tag_6)\ntag_7:\n  pop\n    /* \"forsage.sol\":2161:2173  ownerAddress */\n  dup1\n    /* \"forsage.sol\":2153:2158  owner */\n  0x05\n  0x00\n    /* \"forsage.sol\":2153:2173  owner = ownerAddress */\n  0x0100\n  exp\n  dup2\n  sload\n  dup2\n  0xffffffffffffffffffffffffffffffffffffffff\n  mul\n  not\n  and\n  swap1\n  dup4\n  0xffffffffffffffffffffffffffffffffffffffff\n  and\n  mul\n  or\n  swap1\n  sstore\n  pop\n    /* \"forsage.sol\":2186:2203  User storage user */\n  0x00\n    /* \"forsage.sol\":2206:2211  users */\n  dup1\n    /* \"forsage.sol\":2206:2225  users[ownerAddress] */\n  0x00\n    /* \"forsage.sol\":2212:2224  ownerAddress */\n  dup4\n    /* \"forsage.sol\":2206:2225  users[ownerAddress] */\n  0xffffffffffffffffffffffffffffffffffffffff\n  and\n  0xffffffffffffffffffffffffffffffffffffffff\n  and\n  dup2\n  mstore\n  0x20\n  add\n  swap1\n  dup2\n  mstore\n  0x20\n  add\n  0x00\n  keccak256\n    /* \"forsage.sol\":2186:2225  User storage user = users[ownerAddress] */\n  swap1\n  pop\n    /* \"forsage.sol\":2246:2247  1 */\n  0x01\n    /* \"forsage.sol\":2236:2240  user */\n  dup2\n    /* \"forsage.sol\":2236:2243  user.id */\n  0x00\n  add\n    /* \"forsage.sol\":2236:2247  user.id = 1 */\n  dup2\n  swap1\n  sstore\n  pop\n    /* \"forsage.sol\":2282:2283  0 */\n  0x00\n    /* \"forsage.sol\":2258:2262  user */\n  dup2\n    /* \"forsage.sol\":2258:2271  user.referrer */\n  0x01\n  add\n  0x00\n    /* \"forsage.sol\":2258:2284  user.referrer = address(0) */\n  0x0100\n  exp\n  dup2\n  sload\n  dup2\n  0xffffffffffffffffffffffffffffffffffffffff\n  mul\n  not\n  and\n  swap1\n  dup4\n  0xffffffffffffffffffffffffffffffffffffffff\n  and\n  mul\n  or\n  swap1\n  sstore\n  pop\n    /* \"forsage.sol\":2321:2322  0 */\n  0x00\n    /* \"forsage.sol\":2295:2299  user */\n  dup2\n    /* \"forsage.sol\":2295:2313  user.partnersCount */\n  0x02\n  add\n    /* \"forsage.sol\":2295:2323  user.partnersCount = uint(0) */\n  dup2\n  swap1\n  sstore\n  pop\n    /* \"forsage.sol\":2353:2365  ownerAddress */\n  dup2\n    /* \"forsage.sol\":2336:2347  idToAddress */\n  0x03\n    /* \"forsage.sol\":2336:2350  idToAddress[1] */\n  0x00\n    /* \"forsage.sol\":2348:2349  1 */\n  0x01\n    /* \"forsage.sol\":2336:2350  idToAddress[1] */\n  dup2\n  mstore\n  0x20\n  add\n  swap1\n  dup2\n  mstore\n  0x20\n  add\n  0x00\n  keccak256\n  0x00\n    /* \"forsage.sol\":2336:2365  idToAddress[1] = ownerAddress */\n  0x0100\n  exp\n  dup2\n  sload\n  dup2\n  0xffffffffffffffffffffffffffffffffffffffff\n  mul\n  not\n  and\n  swap1\n  dup4\n  0xffffffffffffffffffffffffffffffffffffffff\n  and\n  mul\n  or\n  swap1\n  sstore\n  pop\n    /* \"forsage.sol\":2383:2390  uint8 i */\n  0x00\n    /* \"forsage.sol\":2393:2394  1 */\n  0x01\n    /* \"forsage.sol\":2383:2394  uint8 i = 1 */\n  swap1\n  pop\n    /* \"forsage.sol\":2378:2518  for (uint8 i = 1; i <= LAST_LEVEL; i++) {... */\ntag_15:\n    /* \"forsage.sol\":681:683  12 */\n  0x0c\n    /* \"forsage.sol\":2396:2411  i <= LAST_LEVEL */\n  0xff\n  and\n    /* \"forsage.sol\":2396:2397  i */\n  dup2\n    /* \"forsage.sol\":2396:2411  i <= LAST_LEVEL */\n  0xff\n  and\n  gt\n    /* \"forsage.sol\":2378:2518  for (uint8 i = 1; i <= LAST_LEVEL; i++) {... */\n  tag_16\n  jumpi\n    /* \"forsage.sol\":2458:2462  true */\n  0x01\n    /* \"forsage.sol\":2433:2437  user */\n  dup3\n    /* \"forsage.sol\":2433:2452  user.activeX3Levels */\n  0x03\n  add\n    /* \"forsage.sol\":2433:2455  user.activeX3Levels[i] */\n  0x00\n    /* \"forsage.sol\":2453:2454  i */\n  dup4\n    /* \"forsage.sol\":2433:2455  user.activeX3Levels[i] */\n  0xff\n  and\n  0xff\n  and\n  dup2\n  mstore\n  0x20\n  add\n  swap1\n  dup2\n  mstore\n  0x20\n  add\n  0x00\n  keccak256\n  0x00\n    /* \"forsage.sol\":2433:2462  user.activeX3Levels[i] = true */\n  0x0100\n  exp\n  dup2\n  sload\n  dup2\n  0xff\n  mul\n  not\n  and\n  swap1\n  dup4\n  iszero\n  iszero\n  mul\n  or\n  swap1\n  sstore\n  pop\n    /* \"forsage.sol\":2502:2506  true */\n  0x01\n    /* \"forsage.sol\":2477:2481  user */\n  dup3\n    /* \"forsage.sol\":2477:2496  user.activeX6Levels */\n  0x04\n  add\n    /* \"forsage.sol\":2477:2499  user.activeX6Levels[i] */\n  0x00\n    /* \"forsage.sol\":2497:2498  i */\n  dup4\n    /* \"forsage.sol\":2477:2499  user.activeX6Levels[i] */\n  0xff\n  and\n  0xff\n  and\n  dup2\n  mstore\n  0x20\n  add\n  swap1\n  dup2\n  mstore\n  0x20\n  add\n  0x00\n  keccak256\n  0x00\n    /* \"forsage.sol\":2477:2506  user.activeX6Levels[i] = true */\n  0x0100\n  exp\n  dup2\n  sload\n  dup2\n  0xff\n  mul\n  not\n  and\n  swap1\n  dup4\n  iszero\n  iszero\n  mul\n  or\n  swap1\n  sstore\n  pop\n    /* \"forsage.sol\":2413:2416  i++ */\n  dup1\n  dup1\n  tag_18\n  swap1\n  tag_14\n  jump\t// in\ntag_18:\n  swap2\n  pop\n  pop\n    /* \"forsage.sol\":2378:2518  for (uint8 i = 1; i <= LAST_LEVEL; i++) {... */\n  jump(tag_15)\ntag_16:\n  pop\n    /* \"forsage.sol\":1988:2525  {... */\n  pop\n    /* \"forsage.sol\":1954:2525  constructor(address ownerAddress) {... */\n  pop\n    /* \"forsage.sol\":60:11165  contract Forsage {... */\n  jump(tag_19)\n    /* \"#utility.yul\":88:205   */\ntag_21:\n    /* \"#utility.yul\":197:198   */\n  0x00\n    /* \"#utility.yul\":194:195   */\n  dup1\n    /* \"#utility.yul\":187:199   */\n  revert\n    /* \"#utility.yul\":334:460   */\ntag_23:\n    /* \"#utility.yul\":371:378   */\n  0x00\n    /* \"#utility.yul\":411:453   */\n  0xffffffffffffffffffffffffffffffffffffffff\n    /* \"#utility.yul\":404:409   */\n  dup3\n    /* \"#utility.yul\":400:454   */\n  and\n    /* \"#utility.yul\":389:454   */\n  swap1\n  pop\n    /* \"#utility.yul\":334:460   */\n  swap2\n  swap1\n  pop\n  jump\t// out\n    /* \"#utility.yul\":466:562   */\ntag_24:\n    /* \"#utility.yul\":503:510   */\n  0x00\n    /* \"#utility.yul\":532:556   */\n  tag_36\n    /* \"#utility.yul\":550:555   */\n  dup3\n    /* \"#utility.yul\":532:556   */\n  tag_23\n  jump\t// in\ntag_36:\n    /* \"#utility.yul\":521:556   */\n  swap1\n  pop\n    /* \"#utility.yul\":466:562   */\n  swap2\n  swap1\n  pop\n  jump\t// out\n    /* \"#utility.yul\":568:690   */\ntag_25:\n    /* \"#utility.yul\":641:665   */\n  tag_38\n    /* \"#utility.yul\":659:664   */\n  dup2\n    /* \"#utility.yul\":641:665   */\n  tag_24\n  jump\t// in\ntag_38:\n    /* \"#utility.yul\":634:639   */\n  dup2\n    /* \"#utility.yul\":631:666   */\n  eq\n    /* \"#utility.yul\":621:684   */\n  tag_39\n  jumpi\n    /* \"#utility.yul\":680:681   */\n  0x00\n    /* \"#utility.yul\":677:678   */\n  dup1\n    /* \"#utility.yul\":670:682   */\n  revert\n    /* \"#utility.yul\":621:684   */\ntag_39:\n    /* \"#utility.yul\":568:690   */\n  pop\n  jump\t// out\n    /* \"#utility.yul\":696:839   */\ntag_26:\n    /* \"#utility.yul\":753:758   */\n  0x00\n    /* \"#utility.yul\":784:790   */\n  dup2\n    /* \"#utility.yul\":778:791   */\n  mload\n    /* \"#utility.yul\":769:791   */\n  swap1\n  pop\n    /* \"#utility.yul\":800:833   */\n  tag_41\n    /* \"#utility.yul\":827:832   */\n  dup2\n    /* \"#utility.yul\":800:833   */\n  tag_25\n  jump\t// in\ntag_41:\n    /* \"#utility.yul\":696:839   */\n  swap3\n  swap2\n  pop\n  pop\n  jump\t// out\n    /* \"#utility.yul\":845:1196   */\ntag_3:\n    /* \"#utility.yul\":915:921   */\n  0x00\n    /* \"#utility.yul\":964:966   */\n  0x20\n    /* \"#utility.yul\":952:961   */\n  dup3\n    /* \"#utility.yul\":943:950   */\n  dup5\n    /* \"#utility.yul\":939:962   */\n  sub\n    /* \"#utility.yul\":935:967   */\n  slt\n    /* \"#utility.yul\":932:1051   */\n  iszero\n  tag_43\n  jumpi\n    /* \"#utility.yul\":970:1049   */\n  tag_44\n  tag_21\n  jump\t// in\ntag_44:\n    /* \"#utility.yul\":932:1051   */\ntag_43:\n    /* \"#utility.yul\":1090:1091   */\n  0x00\n    /* \"#utility.yul\":1115:1179   */\n  tag_45\n    /* \"#utility.yul\":1171:1178   */\n  dup5\n    /* \"#utility.yul\":1162:1168   */\n  dup3\n    /* \"#utility.yul\":1151:1160   */\n  dup6\n    /* \"#utility.yul\":1147:1169   */\n  add\n    /* \"#utility.yul\":1115:1179   */\n  tag_26\n  jump\t// in\ntag_45:\n    /* \"#utility.yul\":1105:1179   */\n  swap2\n  pop\n    /* \"#utility.yul\":1061:1189   */\n  pop\n    /* \"#utility.yul\":845:1196   */\n  swap3\n  swap2\n  pop\n  pop\n  jump\t// out\n    /* \"#utility.yul\":1202:1288   */\ntag_27:\n    /* \"#utility.yul\":1237:1244   */\n  0x00\n    /* \"#utility.yul\":1277:1281   */\n  0xff\n    /* \"#utility.yul\":1270:1275   */\n  dup3\n    /* \"#utility.yul\":1266:1282   */\n  and\n    /* \"#utility.yul\":1255:1282   */\n  swap1\n  pop\n    /* \"#utility.yul\":1202:1288   */\n  swap2\n  swap1\n  pop\n  jump\t// out\n    /* \"#utility.yul\":1294:1474   */\ntag_28:\n    /* \"#utility.yul\":1342:1419   */\n  0x4e487b7100000000000000000000000000000000000000000000000000000000\n    /* \"#utility.yul\":1339:1340   */\n  0x00\n    /* \"#utility.yul\":1332:1420   */\n  mstore\n    /* \"#utility.yul\":1439:1443   */\n  0x11\n    /* \"#utility.yul\":1436:1437   */\n  0x04\n    /* \"#utility.yul\":1429:1444   */\n  mstore\n    /* \"#utility.yul\":1463:1467   */\n  0x24\n    /* \"#utility.yul\":1460:1461   */\n  0x00\n    /* \"#utility.yul\":1453:1468   */\n  revert\n    /* \"#utility.yul\":1480:1671   */\ntag_10:\n    /* \"#utility.yul\":1518:1522   */\n  0x00\n    /* \"#utility.yul\":1538:1556   */\n  tag_49\n    /* \"#utility.yul\":1554:1555   */\n  dup3\n    /* \"#utility.yul\":1538:1556   */\n  tag_27\n  jump\t// in\ntag_49:\n    /* \"#utility.yul\":1533:1556   */\n  swap2\n  pop\n    /* \"#utility.yul\":1570:1588   */\n  tag_50\n    /* \"#utility.yul\":1586:1587   */\n  dup4\n    /* \"#utility.yul\":1570:1588   */\n  tag_27\n  jump\t// in\ntag_50:\n    /* \"#utility.yul\":1565:1588   */\n  swap3\n  pop\n    /* \"#utility.yul\":1612:1613   */\n  dup3\n    /* \"#utility.yul\":1609:1610   */\n  dup3\n    /* \"#utility.yul\":1605:1614   */\n  sub\n    /* \"#utility.yul\":1597:1614   */\n  swap1\n  pop\n    /* \"#utility.yul\":1636:1640   */\n  0xff\n    /* \"#utility.yul\":1630:1634   */\n  dup2\n    /* \"#utility.yul\":1627:1641   */\n  gt\n    /* \"#utility.yul\":1624:1664   */\n  iszero\n  tag_51\n  jumpi\n    /* \"#utility.yul\":1644:1662   */\n  tag_52\n  tag_28\n  jump\t// in\ntag_52:\n    /* \"#utility.yul\":1624:1664   */\ntag_51:\n    /* \"#utility.yul\":1480:1671   */\n  swap3\n  swap2\n  pop\n  pop\n  jump\t// out\n    /* \"#utility.yul\":1677:1754   */\ntag_29:\n    /* \"#utility.yul\":1714:1721   */\n  0x00\n    /* \"#utility.yul\":1743:1748   */\n  dup2\n    /* \"#utility.yul\":1732:1748   */\n  swap1\n  pop\n    /* \"#utility.yul\":1677:1754   */\n  swap2\n  swap1\n  pop\n  jump\t// out\n    /* \"#utility.yul\":1760:2170   */\ntag_12:\n    /* \"#utility.yul\":1800:1807   */\n  0x00\n    /* \"#utility.yul\":1823:1843   */\n  tag_55\n    /* \"#utility.yul\":1841:1842   */\n  dup3\n    /* \"#utility.yul\":1823:1843   */\n  tag_29\n  jump\t// in\ntag_55:\n    /* \"#utility.yul\":1818:1843   */\n  swap2\n  pop\n    /* \"#utility.yul\":1857:1877   */\n  tag_56\n    /* \"#utility.yul\":1875:1876   */\n  dup4\n    /* \"#utility.yul\":1857:1877   */\n  tag_29\n  jump\t// in\ntag_56:\n    /* \"#utility.yul\":1852:1877   */\n  swap3\n  pop\n    /* \"#utility.yul\":1912:1913   */\n  dup3\n    /* \"#utility.yul\":1909:1910   */\n  dup3\n    /* \"#utility.yul\":1905:1914   */\n  mul\n    /* \"#utility.yul\":1934:1964   */\n  tag_57\n    /* \"#utility.yul\":1952:1963   */\n  dup2\n    /* \"#utility.yul\":1934:1964   */\n  tag_29\n  jump\t// in\ntag_57:\n    /* \"#utility.yul\":1923:1964   */\n  swap2\n  pop\n    /* \"#utility.yul\":2113:2114   */\n  dup3\n    /* \"#utility.yul\":2104:2111   */\n  dup3\n    /* \"#utility.yul\":2100:2115   */\n  div\n    /* \"#utility.yul\":2097:2098   */\n  dup5\n    /* \"#utility.yul\":2094:2116   */\n  eq\n    /* \"#utility.yul\":2074:2075   */\n  dup4\n    /* \"#utility.yul\":2067:2076   */\n  iszero\n    /* \"#utility.yul\":2047:2130   */\n  or\n    /* \"#utility.yul\":2024:2163   */\n  tag_58\n  jumpi\n    /* \"#utility.yul\":2143:2161   */\n  tag_59\n  tag_28\n  jump\t// in\ntag_59:\n    /* \"#utility.yul\":2024:2163   */\ntag_58:\n    /* \"#utility.yul\":1808:2170   */\n  pop\n    /* \"#utility.yul\":1760:2170   */\n  swap3\n  swap2\n  pop\n  pop\n  jump\t// out\n    /* \"#utility.yul\":2176:2343   */\ntag_14:\n    /* \"#utility.yul\":2213:2216   */\n  0x00\n    /* \"#utility.yul\":2236:2258   */\n  tag_61\n    /* \"#utility.yul\":2252:2257   */\n  dup3\n    /* \"#utility.yul\":2236:2258   */\n  tag_27\n  jump\t// in\ntag_61:\n    /* \"#utility.yul\":2227:2258   */\n  swap2\n  pop\n    /* \"#utility.yul\":2280:2284   */\n  0xff\n    /* \"#utility.yul\":2273:2278   */\n  dup3\n    /* \"#utility.yul\":2270:2285   */\n  sub\n    /* \"#utility.yul\":2267:2308   */\n  tag_62\n  jumpi\n    /* \"#utility.yul\":2288:2306   */\n  tag_63\n  tag_28\n  jump\t// in\ntag_63:\n    /* \"#utility.yul\":2267:2308   */\ntag_62:\n    /* \"#utility.yul\":2335:2336   */\n  0x01\n    /* \"#utility.yul\":2328:2333   */\n  dup3\n    /* \"#utility.yul\":2324:2337   */\n  add\n    /* \"#utility.yul\":2317:2337   */\n  swap1\n  pop\n    /* \"#utility.yul\":2176:2343   */\n  swap2\n  swap1\n  pop\n  jump\t// out\n    /* \"forsage.sol\":60:11165  contract Forsage {... */\ntag_19:\n  dataSize(sub_0)\n  dup1\n  dataOffset(sub_0)\n  0x00\n  codecopy\n  0x00\n  return\nstop\n\nsub_0: assembly {\n        /* \"forsage.sol\":60:11165  contract Forsage {... */\n      mstore(0x40, 0x80)\n      jumpi(tag_1, lt(calldatasize, 0x04))\n      shr(0xe0, calldataload(0x00))\n      dup1\n      0x8da5cb5b\n      gt\n      tag_17\n      jumpi\n      dup1\n      0xd4414b50\n      gt\n      tag_18\n      jumpi\n      dup1\n      0xd4414b50\n      eq\n      tag_13\n      jumpi\n      dup1\n      0xe06e8dbd\n      eq\n      tag_14\n      jumpi\n      dup1\n      0xecabdf79\n      eq\n      tag_15\n      jumpi\n      dup1\n      0xfa45323d\n      eq\n      tag_16\n      jumpi\n      jump(tag_2)\n    tag_18:\n      dup1\n      0x8da5cb5b\n      eq\n      tag_10\n      jumpi\n      dup1\n      0xa87430ba\n      eq\n      tag_11\n      jumpi\n      dup1\n      0xbe389d57\n      eq\n      tag_12\n      jumpi\n      jump(tag_2)\n    tag_17:\n      dup1\n      0x42526e4e\n      gt\n      tag_19\n      jumpi\n      dup1\n      0x42526e4e\n      eq\n      tag_6\n      jumpi\n      dup1\n      0x509222cd\n      eq\n      tag_7\n      jumpi\n      dup1\n      0x797eee24\n      eq\n      tag_8\n      jumpi\n      dup1\n      0x87b2b7e7\n      eq\n      tag_9\n      jumpi\n      jump(tag_2)\n    tag_19:\n      dup1\n      0x29c70400\n      eq\n      tag_3\n      jumpi\n      dup1\n      0x2a2d0c47\n      eq\n      tag_4\n      jumpi\n      dup1\n      0x348d4487\n      eq\n      tag_5\n      jumpi\n      jump(tag_2)\n    tag_1:\n      jumpi(tag_2, calldatasize)\n        /* \"forsage.sol\":2571:2602  registration(msg.sender, owner) */\n      tag_22\n        /* \"forsage.sol\":2584:2594  msg.sender */\n      caller\n        /* \"forsage.sol\":2596:2601  owner */\n      0x05\n      0x00\n      swap1\n      sload\n      swap1\n      0x0100\n      exp\n      swap1\n      div\n      0xffffffffffffffffffffffffffffffffffffffff\n      and\n        /* \"forsage.sol\":2571:2583  registration */\n      tag_23\n        /* \"forsage.sol\":2571:2602  registration(msg.sender, owner) */\n      jump\t// in\n    tag_22:\n        /* \"forsage.sol\":60:11165  contract Forsage {... */\n      stop\n    tag_2:\n        /* \"forsage.sol\":2657:2707  registration(msg.sender, bytesToAddress(msg.data)) */\n      tag_26\n        /* \"forsage.sol\":2670:2680  msg.sender */\n      caller\n        /* \"forsage.sol\":2682:2706  bytesToAddress(msg.data) */\n      tag_27\n        /* \"forsage.sol\":2697:2705  msg.data */\n      0x00\n      calldatasize\n        /* \"forsage.sol\":2682:2706  bytesToAddress(msg.data) */\n      dup1\n      dup1\n      0x1f\n      add\n      0x20\n      dup1\n      swap2\n      div\n      mul\n      0x20\n      add\n      mload(0x40)\n      swap1\n      dup2\n      add\n      0x40\n      mstore\n      dup1\n      swap4\n      swap3\n      swap2\n      swap1\n      dup2\n      dup2\n      mstore\n      0x20\n      add\n      dup4\n      dup4\n      dup1\n      dup3\n      dup5\n      calldatacopy\n      0x00\n      dup2\n      dup5\n      add\n      mstore\n      not(0x1f)\n      0x1f\n      dup3\n      add\n      and\n      swap1\n      pop\n      dup1\n      dup4\n      add\n      swap3\n      pop\n      pop\n      pop\n      pop\n      pop\n      pop\n      pop\n        /* \"forsage.sol\":2682:2696  bytesToAddress */\n      tag_28\n        /* \"forsage.sol\":2682:2706  bytesToAddress(msg.data) */\n      jump\t// in\n    tag_27:\n        /* \"forsage.sol\":2657:2669  registration */\n      tag_23\n        /* \"forsage.sol\":2657:2707  registration(msg.sender, bytesToAddress(msg.data)) */\n      jump\t// in\n    tag_26:\n        /* \"forsage.sol\":60:11165  contract Forsage {... */\n      stop\n        /* \"forsage.sol\":646:683  uint8 public constant LAST_LEVEL = 12 */\n    tag_3:\n      callvalue\n      dup1\n      iszero\n      tag_29\n      jumpi\n      0x00\n      dup1\n      revert\n    tag_29:\n      pop\n      tag_30\n      tag_31\n      jump\t// in\n    tag_30:\n      mload(0x40)\n      tag_32\n      swap2\n      swap1\n      tag_33\n      jump\t// in\n    tag_32:\n      mload(0x40)\n      dup1\n      swap2\n      sub\n      swap1\n      return\n        /* \"forsage.sol\":864:907  mapping(uint => address) public idToAddress */\n    tag_4:\n      callvalue\n      dup1\n      iszero\n      tag_34\n      jumpi\n      0x00\n      dup1\n      revert\n    tag_34:\n      pop\n      tag_35\n      0x04\n      dup1\n      calldatasize\n      sub\n      dup2\n      add\n      swap1\n      tag_36\n      swap2\n      swap1\n      tag_37\n      jump\t// in\n    tag_36:\n      tag_38\n      jump\t// in\n    tag_35:\n      mload(0x40)\n      tag_39\n      swap2\n      swap1\n      tag_40\n      jump\t// in\n    tag_39:\n      mload(0x40)\n      dup1\n      swap2\n      sub\n      swap1\n      return\n        /* \"forsage.sol\":914:940  uint public lastUserId = 2 */\n    tag_5:\n      callvalue\n      dup1\n      iszero\n      tag_41\n      jumpi\n      0x00\n      dup1\n      revert\n    tag_41:\n      pop\n      tag_42\n      tag_43\n      jump\t// in\n    tag_42:\n      mload(0x40)\n      tag_44\n      swap2\n      swap1\n      tag_45\n      jump\t// in\n    tag_44:\n      mload(0x40)\n      dup1\n      swap2\n      sub\n      swap1\n      return\n        /* \"forsage.sol\":11005:11162  function bytesToAddress(bytes memory bys) public pure returns (address addr) {... */\n    tag_6:\n      callvalue\n      dup1\n      iszero\n      tag_46\n      jumpi\n      0x00\n      dup1\n      revert\n    tag_46:\n      pop\n      tag_47\n      0x04\n      dup1\n      calldatasize\n      sub\n      dup2\n      add\n      swap1\n      tag_48\n      swap2\n      swap1\n      tag_49\n      jump\t// in\n    tag_48:\n      tag_28\n      jump\t// in\n    tag_47:\n      mload(0x40)\n      tag_50\n      swap2\n      swap1\n      tag_40\n      jump\t// in\n    tag_50:\n      mload(0x40)\n      dup1\n      swap2\n      sub\n      swap1\n      return\n        /* \"forsage.sol\":10875:10997  function isUserExists(address userAddress) public view returns (bool) {... */\n    tag_7:\n      callvalue\n      dup1\n      iszero\n      tag_51\n      jumpi\n      0x00\n      dup1\n      revert\n    tag_51:\n      pop\n      tag_52\n      0x04\n      dup1\n      calldatasize\n      sub\n      dup2\n      add\n      swap1\n      tag_53\n      swap2\n      swap1\n      tag_54\n      jump\t// in\n    tag_53:\n      tag_55\n      jump\t// in\n    tag_52:\n      mload(0x40)\n      tag_56\n      swap2\n      swap1\n      tag_57\n      jump\t// in\n    tag_56:\n      mload(0x40)\n      dup1\n      swap2\n      sub\n      swap1\n      return\n        /* \"forsage.sol\":2723:2850  function registrationExt(address referrerAddress) external payable {... */\n    tag_8:\n      tag_58\n      0x04\n      dup1\n      calldatasize\n      sub\n      dup2\n      add\n      swap1\n      tag_59\n      swap2\n      swap1\n      tag_54\n      jump\t// in\n    tag_59:\n      tag_60\n      jump\t// in\n    tag_58:\n      stop\n        /* \"forsage.sol\":734:792  mapping(address => mapping(uint8 => X3)) public x3Matrices */\n    tag_9:\n      callvalue\n      dup1\n      iszero\n      tag_61\n      jumpi\n      0x00\n      dup1\n      revert\n    tag_61:\n      pop\n      tag_62\n      0x04\n      dup1\n      calldatasize\n      sub\n      dup2\n      add\n      swap1\n      tag_63\n      swap2\n      swap1\n      tag_64\n      jump\t// in\n    tag_63:\n      tag_65\n      jump\t// in\n    tag_62:\n      mload(0x40)\n      tag_66\n      swap4\n      swap3\n      swap2\n      swap1\n      tag_67\n      jump\t// in\n    tag_66:\n      mload(0x40)\n      dup1\n      swap2\n      sub\n      swap1\n      return\n        /* \"forsage.sol\":947:967  address public owner */\n    tag_10:\n      callvalue\n      dup1\n      iszero\n      tag_68\n      jumpi\n      0x00\n      dup1\n      revert\n    tag_68:\n      pop\n      tag_69\n      tag_70\n      jump\t// in\n    tag_69:\n      mload(0x40)\n      tag_71\n      swap2\n      swap1\n      tag_40\n      jump\t// in\n    tag_71:\n      mload(0x40)\n      dup1\n      swap2\n      sub\n      swap1\n      return\n        /* \"forsage.sol\":690:727  mapping(address => User) public users */\n    tag_11:\n      callvalue\n      dup1\n      iszero\n      tag_72\n      jumpi\n      0x00\n      dup1\n      revert\n    tag_72:\n      pop\n      tag_73\n      0x04\n      dup1\n      calldatasize\n      sub\n      dup2\n      add\n      swap1\n      tag_74\n      swap2\n      swap1\n      tag_54\n      jump\t// in\n    tag_74:\n      tag_75\n      jump\t// in\n    tag_73:\n      mload(0x40)\n      tag_76\n      swap4\n      swap3\n      swap2\n      swap1\n      tag_77\n      jump\t// in\n    tag_76:\n      mload(0x40)\n      dup1\n      swap2\n      sub\n      swap1\n      return\n        /* \"forsage.sol\":2858:4300  function buyNewLevel(uint8 matrix, uint8 level) external payable {... */\n    tag_12:\n      tag_78\n      0x04\n      dup1\n      calldatasize\n      sub\n      dup2\n      add\n      swap1\n      tag_79\n      swap2\n      swap1\n      tag_80\n      jump\t// in\n    tag_79:\n      tag_81\n      jump\t// in\n    tag_78:\n      stop\n        /* \"forsage.sol\":799:857  mapping(address => mapping(uint8 => X6)) public x6Matrices */\n    tag_13:\n      callvalue\n      dup1\n      iszero\n      tag_82\n      jumpi\n      0x00\n      dup1\n      revert\n    tag_82:\n      pop\n      tag_83\n      0x04\n      dup1\n      calldatasize\n      sub\n      dup2\n      add\n      swap1\n      tag_84\n      swap2\n      swap1\n      tag_64\n      jump\t// in\n    tag_84:\n      tag_85\n      jump\t// in\n    tag_83:\n      mload(0x40)\n      tag_86\n      swap5\n      swap4\n      swap3\n      swap2\n      swap1\n      tag_87\n      jump\t// in\n    tag_86:\n      mload(0x40)\n      dup1\n      swap2\n      sub\n      swap1\n      return\n        /* \"forsage.sol\":10115:10548  function findFreeX6Referrer(address userAddress, uint8 level) public view returns (address) {... */\n    tag_14:\n      callvalue\n      dup1\n      iszero\n      tag_88\n      jumpi\n      0x00\n      dup1\n      revert\n    tag_88:\n      pop\n      tag_89\n      0x04\n      dup1\n      calldatasize\n      sub\n      dup2\n      add\n      swap1\n      tag_90\n      swap2\n      swap1\n      tag_64\n      jump\t// in\n    tag_90:\n      tag_91\n      jump\t// in\n    tag_89:\n      mload(0x40)\n      tag_92\n      swap2\n      swap1\n      tag_40\n      jump\t// in\n    tag_92:\n      mload(0x40)\n      dup1\n      swap2\n      sub\n      swap1\n      return\n        /* \"forsage.sol\":976:1016  mapping(uint8 => uint) public levelPrice */\n    tag_15:\n      callvalue\n      dup1\n      iszero\n      tag_93\n      jumpi\n      0x00\n      dup1\n      revert\n    tag_93:\n      pop\n      tag_94\n      0x04\n      dup1\n      calldatasize\n      sub\n      dup2\n      add\n      swap1\n      tag_95\n      swap2\n      swap1\n      tag_96\n      jump\t// in\n    tag_95:\n      tag_97\n      jump\t// in\n    tag_94:\n      mload(0x40)\n      tag_98\n      swap2\n      swap1\n      tag_45\n      jump\t// in\n    tag_98:\n      mload(0x40)\n      dup1\n      swap2\n      sub\n      swap1\n      return\n        /* \"forsage.sol\":9674:10107  function findFreeX3Referrer(address userAddress, uint8 level) public view returns (address) {... */\n    tag_16:\n      callvalue\n      dup1\n      iszero\n      tag_99\n      jumpi\n      0x00\n      dup1\n      revert\n    tag_99:\n      pop\n      tag_100\n      0x04\n      dup1\n      calldatasize\n      sub\n      dup2\n      add\n      swap1\n      tag_101\n      swap2\n      swap1\n      tag_64\n      jump\t// in\n    tag_101:\n      tag_102\n      jump\t// in\n    tag_100:\n      mload(0x40)\n      tag_103\n      swap2\n      swap1\n      tag_40\n      jump\t// in\n    tag_103:\n      mload(0x40)\n      dup1\n      swap2\n      sub\n      swap1\n      return\n        /* \"forsage.sol\":4308:5514  function registration(address userAddress, address referrerAddress) private {... */\n    tag_23:\n        /* \"forsage.sol\":4416:4426  0.05 ether */\n      0xb1a2bc2ec50000\n        /* \"forsage.sol\":4403:4412  msg.value */\n      callvalue\n        /* \"forsage.sol\":4403:4426  msg.value == 0.05 ether */\n      eq\n        /* \"forsage.sol\":4395:4463  require(msg.value == 0.05 ether, \"Registration cost is 0.05 ether.\") */\n      tag_105\n      jumpi\n      mload(0x40)\n      0x08c379a000000000000000000000000000000000000000000000000000000000\n      dup2\n      mstore\n      0x04\n      add\n      tag_106\n      swap1\n      tag_107\n      jump\t// in\n    tag_106:\n      mload(0x40)\n      dup1\n      swap2\n      sub\n      swap1\n      revert\n    tag_105:\n        /* \"forsage.sol\":4483:4508  isUserExists(userAddress) */\n      tag_108\n        /* \"forsage.sol\":4496:4507  userAddress */\n      dup3\n        /* \"forsage.sol\":4483:4495  isUserExists */\n      tag_55\n        /* \"forsage.sol\":4483:4508  isUserExists(userAddress) */\n      jump\t// in\n    tag_108:\n        /* \"forsage.sol\":4482:4508  !isUserExists(userAddress) */\n      iszero\n        /* \"forsage.sol\":4474:4533  require(!isUserExists(userAddress), \"User already exists.\") */\n      tag_109\n      jumpi\n      mload(0x40)\n      0x08c379a000000000000000000000000000000000000000000000000000000000\n      dup2\n      mstore\n      0x04\n      add\n      tag_110\n      swap1\n      tag_111\n      jump\t// in\n    tag_110:\n      mload(0x40)\n      dup1\n      swap2\n      sub\n      swap1\n      revert\n    tag_109:\n        /* \"forsage.sol\":4552:4581  isUserExists(referrerAddress) */\n      tag_112\n        /* \"forsage.sol\":4565:4580  referrerAddress */\n      dup2\n        /* \"forsage.sol\":4552:4564  isUserExists */\n      tag_55\n        /* \"forsage.sol\":4552:4581  isUserExists(referrerAddress) */\n      jump\t// in\n    tag_112:\n        /* \"forsage.sol\":4544:4610  require(isUserExists(referrerAddress), \"Referrer does not exist.\") */\n      tag_113\n      jumpi\n      mload(0x40)\n      0x08c379a000000000000000000000000000000000000000000000000000000000\n      dup2\n      mstore\n      0x04\n      add\n      tag_114\n      swap1\n      tag_115\n      jump\t// in\n    tag_114:\n      mload(0x40)\n      dup1\n      swap2\n      sub\n      swap1\n      revert\n    tag_113:\n        /* \"forsage.sol\":4623:4634  uint32 size */\n      0x00\n        /* \"forsage.sol\":4689:4700  userAddress */\n      dup3\n        /* \"forsage.sol\":4677:4701  extcodesize(userAddress) */\n      extcodesize\n        /* \"forsage.sol\":4669:4701  size := extcodesize(userAddress) */\n      swap1\n      pop\n        /* \"forsage.sol\":4738:4739  0 */\n      0x00\n        /* \"forsage.sol\":4730:4734  size */\n      dup2\n        /* \"forsage.sol\":4730:4739  size == 0 */\n      0xffffffff\n      and\n      eq\n        /* \"forsage.sol\":4722:4765  require(size == 0, \"Cannot be a contract.\") */\n      tag_116\n      jumpi\n      mload(0x40)\n      0x08c379a000000000000000000000000000000000000000000000000000000000\n      dup2\n      mstore\n      0x04\n      add\n      tag_117\n      swap1\n      tag_118\n      jump\t// in\n    tag_117:\n      mload(0x40)\n      dup1\n      swap2\n      sub\n      swap1\n      revert\n    tag_116:\n        /* \"forsage.sol\":4778:4795  User storage user */\n      0x00\n        /* \"forsage.sol\":4798:4803  users */\n      dup1\n        /* \"forsage.sol\":4798:4816  users[userAddress] */\n      0x00\n        /* \"forsage.sol\":4804:4815  userAddress */\n      dup6\n        /* \"forsage.sol\":4798:4816  users[userAddress] */\n      0xffffffffffffffffffffffffffffffffffffffff\n      and\n      0xffffffffffffffffffffffffffffffffffffffff\n      and\n      dup2\n      mstore\n      0x20\n      add\n      swap1\n      dup2\n      mstore\n      0x20\n      add\n      0x00\n      keccak256\n        /* \"forsage.sol\":4778:4816  User storage user = users[userAddress] */\n      swap1\n      pop\n        /* \"forsage.sol\":4837:4847  lastUserId */\n      sload(0x04)\n        /* \"forsage.sol\":4827:4831  user */\n      dup2\n        /* \"forsage.sol\":4827:4834  user.id */\n      0x00\n      add\n        /* \"forsage.sol\":4827:4847  user.id = lastUserId */\n      dup2\n      swap1\n      sstore\n      pop\n        /* \"forsage.sol\":4874:4889  referrerAddress */\n      dup3\n        /* \"forsage.sol\":4858:4862  user */\n      dup2\n        /* \"forsage.sol\":4858:4871  user.referrer */\n      0x01\n      add\n      0x00\n        /* \"forsage.sol\":4858:4889  user.referrer = referrerAddress */\n      0x0100\n      exp\n      dup2\n      sload\n      dup2\n      0xffffffffffffffffffffffffffffffffffffffff\n      mul\n      not\n      and\n      swap1\n      dup4\n      0xffffffffffffffffffffffffffffffffffffffff\n      and\n      mul\n      or\n      swap1\n      sstore\n      pop\n        /* \"forsage.sol\":4921:4922  0 */\n      0x00\n        /* \"forsage.sol\":4900:4904  user */\n      dup2\n        /* \"forsage.sol\":4900:4918  user.partnersCount */\n      0x02\n      add\n        /* \"forsage.sol\":4900:4922  user.partnersCount = 0 */\n      dup2\n      swap1\n      sstore\n      pop\n        /* \"forsage.sol\":4961:4972  userAddress */\n      dup4\n        /* \"forsage.sol\":4935:4946  idToAddress */\n      0x03\n        /* \"forsage.sol\":4935:4958  idToAddress[lastUserId] */\n      0x00\n        /* \"forsage.sol\":4947:4957  lastUserId */\n      sload(0x04)\n        /* \"forsage.sol\":4935:4958  idToAddress[lastUserId] */\n      dup2\n      mstore\n      0x20\n      add\n      swap1\n      dup2\n      mstore\n      0x20\n      add\n      0x00\n      keccak256\n      0x00\n        /* \"forsage.sol\":4935:4972  idToAddress[lastUserId] = userAddress */\n      0x0100\n      exp\n      dup2\n      sload\n      dup2\n      0xffffffffffffffffffffffffffffffffffffffff\n      mul\n      not\n      and\n      swap1\n      dup4\n      0xffffffffffffffffffffffffffffffffffffffff\n      and\n      mul\n      or\n      swap1\n      sstore\n      pop\n        /* \"forsage.sol\":4983:4993  lastUserId */\n      0x04\n      0x00\n        /* \"forsage.sol\":4983:4995  lastUserId++ */\n      dup2\n      sload\n      dup1\n      swap3\n      swap2\n      swap1\n      tag_119\n      swap1\n      tag_120\n      jump\t// in\n    tag_119:\n      swap2\n      swap1\n      pop\n      sstore\n      pop\n        /* \"forsage.sol\":5008:5013  users */\n      0x00\n        /* \"forsage.sol\":5008:5030  users[referrerAddress] */\n      dup1\n        /* \"forsage.sol\":5014:5029  referrerAddress */\n      dup5\n        /* \"forsage.sol\":5008:5030  users[referrerAddress] */\n      0xffffffffffffffffffffffffffffffffffffffff\n      and\n      0xffffffffffffffffffffffffffffffffffffffff\n      and\n      dup2\n      mstore\n      0x20\n      add\n      swap1\n      dup2\n      mstore\n      0x20\n      add\n      0x00\n      keccak256\n        /* \"forsage.sol\":5008:5044  users[referrerAddress].partnersCount */\n      0x02\n      add\n      0x00\n        /* \"forsage.sol\":5008:5046  users[referrerAddress].partnersCount++ */\n      dup2\n      sload\n      dup1\n      swap3\n      swap2\n      swap1\n      tag_121\n      swap1\n      tag_120\n      jump\t// in\n    tag_121:\n      swap2\n      swap1\n      pop\n      sstore\n      pop\n        /* \"forsage.sol\":5084:5088  true */\n      0x01\n        /* \"forsage.sol\":5059:5063  user */\n      dup2\n        /* \"forsage.sol\":5059:5078  user.activeX3Levels */\n      0x03\n      add\n        /* \"forsage.sol\":5059:5081  user.activeX3Levels[1] */\n      0x00\n        /* \"forsage.sol\":5079:5080  1 */\n      0x01\n        /* \"forsage.sol\":5059:5081  user.activeX3Levels[1] */\n      0xff\n      and\n      dup2\n      mstore\n      0x20\n      add\n      swap1\n      dup2\n      mstore\n      0x20\n      add\n      0x00\n      keccak256\n      0x00\n        /* \"forsage.sol\":5059:5088  user.activeX3Levels[1] = true */\n      0x0100\n      exp\n      dup2\n      sload\n      dup2\n      0xff\n      mul\n      not\n      and\n      swap1\n      dup4\n      iszero\n      iszero\n      mul\n      or\n      swap1\n      sstore\n      pop\n        /* \"forsage.sol\":5124:5128  true */\n      0x01\n        /* \"forsage.sol\":5099:5103  user */\n      dup2\n        /* \"forsage.sol\":5099:5118  user.activeX6Levels */\n      0x04\n      add\n        /* \"forsage.sol\":5099:5121  user.activeX6Levels[1] */\n      0x00\n        /* \"forsage.sol\":5119:5120  1 */\n      0x01\n        /* \"forsage.sol\":5099:5121  user.activeX6Levels[1] */\n      0xff\n      and\n      dup2\n      mstore\n      0x20\n      add\n      swap1\n      dup2\n      mstore\n      0x20\n      add\n      0x00\n      keccak256\n      0x00\n        /* \"forsage.sol\":5099:5128  user.activeX6Levels[1] = true */\n      0x0100\n      exp\n      dup2\n      sload\n      dup2\n      0xff\n      mul\n      not\n      and\n      swap1\n      dup4\n      iszero\n      iszero\n      mul\n      or\n      swap1\n      sstore\n      pop\n        /* \"forsage.sol\":5141:5163  address freeX3Referrer */\n      0x00\n        /* \"forsage.sol\":5166:5200  findFreeX3Referrer(userAddress, 1) */\n      tag_122\n        /* \"forsage.sol\":5185:5196  userAddress */\n      dup6\n        /* \"forsage.sol\":5198:5199  1 */\n      0x01\n        /* \"forsage.sol\":5166:5184  findFreeX3Referrer */\n      tag_102\n        /* \"forsage.sol\":5166:5200  findFreeX3Referrer(userAddress, 1) */\n      jump\t// in\n    tag_122:\n        /* \"forsage.sol\":5141:5200  address freeX3Referrer = findFreeX3Referrer(userAddress, 1) */\n      swap1\n      pop\n        /* \"forsage.sol\":5256:5270  freeX3Referrer */\n      dup1\n        /* \"forsage.sol\":5211:5221  x3Matrices */\n      0x01\n        /* \"forsage.sol\":5211:5234  x3Matrices[userAddress] */\n      0x00\n        /* \"forsage.sol\":5222:5233  userAddress */\n      dup8\n        /* \"forsage.sol\":5211:5234  x3Matrices[userAddress] */\n      0xffffffffffffffffffffffffffffffffffffffff\n      and\n      0xffffffffffffffffffffffffffffffffffffffff\n      and\n      dup2\n      mstore\n      0x20\n      add\n      swap1\n      dup2\n      mstore\n      0x20\n      add\n      0x00\n      keccak256\n        /* \"forsage.sol\":5211:5237  x3Matrices[userAddress][1] */\n      0x00\n        /* \"forsage.sol\":5235:5236  1 */\n      0x01\n        /* \"forsage.sol\":5211:5237  x3Matrices[userAddress][1] */\n      0xff\n      and\n      dup2\n      mstore\n      0x20\n      add\n      swap1\n      dup2\n      mstore\n      0x20\n      add\n      0x00\n      keccak256\n        /* \"forsage.sol\":5211:5253  x3Matrices[userAddress][1].currentReferrer */\n      0x00\n      add\n      0x00\n        /* \"forsage.sol\":5211:5270  x3Matrices[userAddress][1].currentReferrer = freeX3Referrer */\n      0x0100\n      exp\n      dup2\n      sload\n      dup2\n      0xffffffffffffffffffffffffffffffffffffffff\n      mul\n      not\n      and\n      swap1\n      dup4\n      0xffffffffffffffffffffffffffffffffffffffff\n      and\n      mul\n      or\n      swap1\n      sstore\n      pop\n        /* \"forsage.sol\":5281:5329  updateX3Referrer(userAddress, freeX3Referrer, 1) */\n      tag_123\n        /* \"forsage.sol\":5298:5309  userAddress */\n      dup6\n        /* \"forsage.sol\":5311:5325  freeX3Referrer */\n      dup3\n        /* \"forsage.sol\":5327:5328  1 */\n      0x01\n        /* \"forsage.sol\":5281:5297  updateX3Referrer */\n      tag_124\n        /* \"forsage.sol\":5281:5329  updateX3Referrer(userAddress, freeX3Referrer, 1) */\n      jump\t// in\n    tag_123:\n        /* \"forsage.sol\":5342:5410  updateX6Referrer(userAddress, findFreeX6Referrer(userAddress, 1), 1) */\n      tag_125\n        /* \"forsage.sol\":5359:5370  userAddress */\n      dup6\n        /* \"forsage.sol\":5372:5406  findFreeX6Referrer(userAddress, 1) */\n      tag_126\n        /* \"forsage.sol\":5391:5402  userAddress */\n      dup8\n        /* \"forsage.sol\":5404:5405  1 */\n      0x01\n        /* \"forsage.sol\":5372:5390  findFreeX6Referrer */\n      tag_91\n        /* \"forsage.sol\":5372:5406  findFreeX6Referrer(userAddress, 1) */\n      jump\t// in\n    tag_126:\n        /* \"forsage.sol\":5408:5409  1 */\n      0x01\n        /* \"forsage.sol\":5342:5358  updateX6Referrer */\n      tag_127\n        /* \"forsage.sol\":5342:5410  updateX6Referrer(userAddress, findFreeX6Referrer(userAddress, 1), 1) */\n      jump\t// in\n    tag_125:\n        /* \"forsage.sol\":5471:5475  user */\n      dup2\n        /* \"forsage.sol\":5471:5478  user.id */\n      0x00\n      add\n      sload\n        /* \"forsage.sol\":5454:5469  referrerAddress */\n      dup5\n        /* \"forsage.sol\":5428:5506  Registration(userAddress, referrerAddress, user.id, users[referrerAddress].id) */\n      0xffffffffffffffffffffffffffffffffffffffff\n      and\n        /* \"forsage.sol\":5441:5452  userAddress */\n      dup7\n        /* \"forsage.sol\":5428:5506  Registration(userAddress, referrerAddress, user.id, users[referrerAddress].id) */\n      0xffffffffffffffffffffffffffffffffffffffff\n      and\n      0x309bb360e8b69c23937ccc5fb01f9aeeead1c95a99604e175113ff82f2b1723a\n        /* \"forsage.sol\":5480:5485  users */\n      0x00\n        /* \"forsage.sol\":5480:5502  users[referrerAddress] */\n      dup1\n        /* \"forsage.sol\":5486:5501  referrerAddress */\n      dup10\n        /* \"forsage.sol\":5480:5502  users[referrerAddress] */\n      0xffffffffffffffffffffffffffffffffffffffff\n      and\n      0xffffffffffffffffffffffffffffffffffffffff\n      and\n      dup2\n      mstore\n      0x20\n      add\n      swap1\n      dup2\n      mstore\n      0x20\n      add\n      0x00\n      keccak256\n        /* \"forsage.sol\":5480:5505  users[referrerAddress].id */\n      0x00\n      add\n      sload\n        /* \"forsage.sol\":5428:5506  Registration(userAddress, referrerAddress, user.id, users[referrerAddress].id) */\n      mload(0x40)\n      tag_128\n      swap2\n      swap1\n      tag_45\n      jump\t// in\n    tag_128:\n      mload(0x40)\n      dup1\n      swap2\n      sub\n      swap1\n      log4\n        /* \"forsage.sol\":4384:5514  {... */\n      pop\n      pop\n      pop\n        /* \"forsage.sol\":4308:5514  function registration(address userAddress, address referrerAddress) private {... */\n      pop\n      pop\n      jump\t// out\n        /* \"forsage.sol\":11005:11162  function bytesToAddress(bytes memory bys) public pure returns (address addr) {... */\n    tag_28:\n        /* \"forsage.sol\":11068:11080  address addr */\n      0x00\n        /* \"forsage.sol\":11140:11142  20 */\n      0x14\n        /* \"forsage.sol\":11135:11138  bys */\n      dup3\n        /* \"forsage.sol\":11131:11143  add(bys, 20) */\n      add\n        /* \"forsage.sol\":11125:11144  mload(add(bys, 20)) */\n      mload\n        /* \"forsage.sol\":11117:11144  addr := mload(add(bys, 20)) */\n      swap1\n      pop\n        /* \"forsage.sol\":11005:11162  function bytesToAddress(bytes memory bys) public pure returns (address addr) {... */\n      swap2\n      swap1\n      pop\n      jump\t// out\n        /* \"forsage.sol\":646:683  uint8 public constant LAST_LEVEL = 12 */\n    tag_31:\n        /* \"forsage.sol\":681:683  12 */\n      0x0c\n        /* \"forsage.sol\":646:683  uint8 public constant LAST_LEVEL = 12 */\n      dup2\n      jump\t// out\n        /* \"forsage.sol\":864:907  mapping(uint => address) public idToAddress */\n    tag_38:\n      mstore(0x20, 0x03)\n      dup1\n      0x00\n      mstore\n      keccak256(0x00, 0x40)\n      0x00\n      swap2\n      pop\n      sload\n      swap1\n      0x0100\n      exp\n      swap1\n      div\n      0xffffffffffffffffffffffffffffffffffffffff\n      and\n      dup2\n      jump\t// out\n        /* \"forsage.sol\":914:940  uint public lastUserId = 2 */\n    tag_43:\n      sload(0x04)\n      dup2\n      jump\t// out\n        /* \"forsage.sol\":10875:10997  function isUserExists(address userAddress) public view returns (bool) {... */\n    tag_55:\n        /* \"forsage.sol\":10939:10943  bool */\n      0x00\n        /* \"forsage.sol\":10988:10989  0 */\n      dup1\n        /* \"forsage.sol\":10963:10968  users */\n      0x00\n        /* \"forsage.sol\":10963:10981  users[userAddress] */\n      dup1\n        /* \"forsage.sol\":10969:10980  userAddress */\n      dup5\n        /* \"forsage.sol\":10963:10981  users[userAddress] */\n      0xffffffffffffffffffffffffffffffffffffffff\n      and\n      0xffffffffffffffffffffffffffffffffffffffff\n      and\n      dup2\n      mstore\n      0x20\n      add\n      swap1\n      dup2\n      mstore\n      0x20\n      add\n      0x00\n      keccak256\n        /* \"forsage.sol\":10963:10984  users[userAddress].id */\n      0x00\n      add\n      sload\n        /* \"forsage.sol\":10963:10989  users[userAddress].id != 0 */\n      eq\n      iszero\n        /* \"forsage.sol\":10956:10989  return users[userAddress].id != 0 */\n      swap1\n      pop\n        /* \"forsage.sol\":10875:10997  function isUserExists(address userAddress) public view returns (bool) {... */\n      swap2\n      swap1\n      pop\n      jump\t// out\n        /* \"forsage.sol\":2723:2850  function registrationExt(address referrerAddress) external payable {... */\n    tag_60:\n        /* \"forsage.sol\":2801:2842  registration(msg.sender, referrerAddress) */\n      tag_132\n        /* \"forsage.sol\":2814:2824  msg.sender */\n      caller\n        /* \"forsage.sol\":2826:2841  referrerAddress */\n      dup3\n        /* \"forsage.sol\":2801:2813  registration */\n      tag_23\n        /* \"forsage.sol\":2801:2842  registration(msg.sender, referrerAddress) */\n      jump\t// in\n    tag_132:\n        /* \"forsage.sol\":2723:2850  function registrationExt(address referrerAddress) external payable {... */\n      pop\n      jump\t// out\n        /* \"forsage.sol\":734:792  mapping(address => mapping(uint8 => X3)) public x3Matrices */\n    tag_65:\n      mstore(0x20, 0x01)\n      dup2\n      0x00\n      mstore\n      mstore(0x20, keccak256(0x00, 0x40))\n      dup1\n      0x00\n      mstore\n      keccak256(0x00, 0x40)\n      0x00\n      swap2\n      pop\n      swap2\n      pop\n      pop\n      dup1\n      0x00\n      add\n      0x00\n      swap1\n      sload\n      swap1\n      0x0100\n      exp\n      swap1\n      div\n      0xffffffffffffffffffffffffffffffffffffffff\n      and\n      swap1\n      dup1\n      0x02\n      add\n      0x00\n      swap1\n      sload\n      swap1\n      0x0100\n      exp\n      swap1\n      div\n      0xff\n      and\n      swap1\n      dup1\n      0x03\n      add\n      sload\n      swap1\n      pop\n      dup4\n      jump\t// out\n        /* \"forsage.sol\":947:967  address public owner */\n    tag_70:\n      0x05\n      0x00\n      swap1\n      sload\n      swap1\n      0x0100\n      exp\n      swap1\n      div\n      0xffffffffffffffffffffffffffffffffffffffff\n      and\n      dup2\n      jump\t// out\n        /* \"forsage.sol\":690:727  mapping(address => User) public users */\n    tag_75:\n      mstore(0x20, 0x00)\n      dup1\n      0x00\n      mstore\n      keccak256(0x00, 0x40)\n      0x00\n      swap2\n      pop\n      swap1\n      pop\n      dup1\n      0x00\n      add\n      sload\n      swap1\n      dup1\n      0x01\n      add\n      0x00\n      swap1\n      sload\n      swap1\n      0x0100\n      exp\n      swap1\n      div\n      0xffffffffffffffffffffffffffffffffffffffff\n      and\n      swap1\n      dup1\n      0x02\n      add\n      sload\n      swap1\n      pop\n      dup4\n      jump\t// out\n        /* \"forsage.sol\":2858:4300  function buyNewLevel(uint8 matrix, uint8 level) external payable {... */\n    tag_81:\n        /* \"forsage.sol\":2942:2966  isUserExists(msg.sender) */\n      tag_134\n        /* \"forsage.sol\":2955:2965  msg.sender */\n      caller\n        /* \"forsage.sol\":2942:2954  isUserExists */\n      tag_55\n        /* \"forsage.sol\":2942:2966  isUserExists(msg.sender) */\n      jump\t// in\n    tag_134:\n        /* \"forsage.sol\":2934:3010  require(isUserExists(msg.sender), \"User is not registered. Register first.\") */\n      tag_135\n      jumpi\n      mload(0x40)\n      0x08c379a000000000000000000000000000000000000000000000000000000000\n      dup2\n      mstore\n      0x04\n      add\n      tag_136\n      swap1\n      tag_137\n      jump\t// in\n    tag_136:\n      mload(0x40)\n      dup1\n      swap2\n      sub\n      swap1\n      revert\n    tag_135:\n        /* \"forsage.sol\":3039:3040  1 */\n      0x01\n        /* \"forsage.sol\":3029:3035  matrix */\n      dup3\n        /* \"forsage.sol\":3029:3040  matrix == 1 */\n      0xff\n      and\n      eq\n        /* \"forsage.sol\":3029:3055  matrix == 1 || matrix == 2 */\n      dup1\n      tag_138\n      jumpi\n      pop\n        /* \"forsage.sol\":3054:3055  2 */\n      0x02\n        /* \"forsage.sol\":3044:3050  matrix */\n      dup3\n        /* \"forsage.sol\":3044:3055  matrix == 2 */\n      0xff\n      and\n      eq\n        /* \"forsage.sol\":3029:3055  matrix == 1 || matrix == 2 */\n    tag_138:\n        /* \"forsage.sol\":3021:3075  require(matrix == 1 || matrix == 2, \"Invalid matrix.\") */\n      tag_139\n      jumpi\n      mload(0x40)\n      0x08c379a000000000000000000000000000000000000000000000000000000000\n      dup2\n      mstore\n      0x04\n      add\n      tag_140\n      swap1\n      tag_141\n      jump\t// in\n    tag_140:\n      mload(0x40)\n      dup1\n      swap2\n      sub\n      swap1\n      revert\n    tag_139:\n        /* \"forsage.sol\":3107:3117  levelPrice */\n      0x06\n        /* \"forsage.sol\":3107:3124  levelPrice[level] */\n      0x00\n        /* \"forsage.sol\":3118:3123  level */\n      dup3\n        /* \"forsage.sol\":3107:3124  levelPrice[level] */\n      0xff\n      and\n      0xff\n      and\n      dup2\n      mstore\n      0x20\n      add\n      swap1\n      dup2\n      mstore\n      0x20\n      add\n      0x00\n      keccak256\n      sload\n        /* \"forsage.sol\":3094:3103  msg.value */\n      callvalue\n        /* \"forsage.sol\":3094:3124  msg.value == levelPrice[level] */\n      eq\n        /* \"forsage.sol\":3086:3143  require(msg.value == levelPrice[level], \"Invalid price.\") */\n      tag_142\n      jumpi\n      mload(0x40)\n      0x08c379a000000000000000000000000000000000000000000000000000000000\n      dup2\n      mstore\n      0x04\n      add\n      tag_143\n      swap1\n      tag_144\n      jump\t// in\n    tag_143:\n      mload(0x40)\n      dup1\n      swap2\n      sub\n      swap1\n      revert\n    tag_142:\n        /* \"forsage.sol\":3170:3171  1 */\n      0x01\n        /* \"forsage.sol\":3162:3167  level */\n      dup2\n        /* \"forsage.sol\":3162:3171  level > 1 */\n      0xff\n      and\n      gt\n        /* \"forsage.sol\":3162:3194  level > 1 && level <= LAST_LEVEL */\n      dup1\n      iszero\n      tag_145\n      jumpi\n      pop\n        /* \"forsage.sol\":681:683  12 */\n      0x0c\n        /* \"forsage.sol\":3175:3194  level <= LAST_LEVEL */\n      0xff\n      and\n        /* \"forsage.sol\":3175:3180  level */\n      dup2\n        /* \"forsage.sol\":3175:3194  level <= LAST_LEVEL */\n      0xff\n      and\n      gt\n      iszero\n        /* \"forsage.sol\":3162:3194  level > 1 && level <= LAST_LEVEL */\n    tag_145:\n        /* \"forsage.sol\":3154:3213  require(level > 1 && level <= LAST_LEVEL, \"Invalid level.\") */\n      tag_146\n      jumpi\n      mload(0x40)\n      0x08c379a000000000000000000000000000000000000000000000000000000000\n      dup2\n      mstore\n      0x04\n      add\n      tag_147\n      swap1\n      tag_148\n      jump\t// in\n    tag_147:\n      mload(0x40)\n      dup1\n      swap2\n      sub\n      swap1\n      revert\n    tag_146:\n        /* \"forsage.sol\":3240:3241  1 */\n      0x01\n        /* \"forsage.sol\":3230:3236  matrix */\n      dup3\n        /* \"forsage.sol\":3230:3241  matrix == 1 */\n      0xff\n      and\n      sub\n        /* \"forsage.sol\":3226:4293  if (matrix == 1) {... */\n      tag_149\n      jumpi\n        /* \"forsage.sol\":3267:3272  users */\n      0x00\n        /* \"forsage.sol\":3267:3284  users[msg.sender] */\n      dup1\n        /* \"forsage.sol\":3273:3283  msg.sender */\n      caller\n        /* \"forsage.sol\":3267:3284  users[msg.sender] */\n      0xffffffffffffffffffffffffffffffffffffffff\n      and\n      0xffffffffffffffffffffffffffffffffffffffff\n      and\n      dup2\n      mstore\n      0x20\n      add\n      swap1\n      dup2\n      mstore\n      0x20\n      add\n      0x00\n      keccak256\n        /* \"forsage.sol\":3267:3299  users[msg.sender].activeX3Levels */\n      0x03\n      add\n        /* \"forsage.sol\":3267:3306  users[msg.sender].activeX3Levels[level] */\n      0x00\n        /* \"forsage.sol\":3300:3305  level */\n      dup3\n        /* \"forsage.sol\":3267:3306  users[msg.sender].activeX3Levels[level] */\n      0xff\n      and\n      0xff\n      and\n      dup2\n      mstore\n      0x20\n      add\n      swap1\n      dup2\n      mstore\n      0x20\n      add\n      0x00\n      keccak256\n      0x00\n      swap1\n      sload\n      swap1\n      0x0100\n      exp\n      swap1\n      div\n      0xff\n      and\n        /* \"forsage.sol\":3266:3306  !users[msg.sender].activeX3Levels[level] */\n      iszero\n        /* \"forsage.sol\":3258:3335  require(!users[msg.sender].activeX3Levels[level], \"Level already activated.\") */\n      tag_150\n      jumpi\n      mload(0x40)\n      0x08c379a000000000000000000000000000000000000000000000000000000000\n      dup2\n      mstore\n      0x04\n      add\n      tag_151\n      swap1\n      tag_152\n      jump\t// in\n    tag_151:\n      mload(0x40)\n      dup1\n      swap2\n      sub\n      swap1\n      revert\n    tag_150:\n        /* \"forsage.sol\":3354:3364  x3Matrices */\n      0x01\n        /* \"forsage.sol\":3354:3376  x3Matrices[msg.sender] */\n      0x00\n        /* \"forsage.sol\":3365:3375  msg.sender */\n      caller\n        /* \"forsage.sol\":3354:3376  x3Matrices[msg.sender] */\n      0xffffffffffffffffffffffffffffffffffffffff\n      and\n      0xffffffffffffffffffffffffffffffffffffffff\n      and\n      dup2\n      mstore\n      0x20\n      add\n      swap1\n      dup2\n      mstore\n      0x20\n      add\n      0x00\n      keccak256\n        /* \"forsage.sol\":3354:3387  x3Matrices[msg.sender][level - 1] */\n      0x00\n        /* \"forsage.sol\":3385:3386  1 */\n      0x01\n        /* \"forsage.sol\":3377:3382  level */\n      dup4\n        /* \"forsage.sol\":3377:3386  level - 1 */\n      tag_153\n      swap2\n      swap1\n      tag_154\n      jump\t// in\n    tag_153:\n        /* \"forsage.sol\":3354:3387  x3Matrices[msg.sender][level - 1] */\n      0xff\n      and\n      0xff\n      and\n      dup2\n      mstore\n      0x20\n      add\n      swap1\n      dup2\n      mstore\n      0x20\n      add\n      0x00\n      keccak256\n        /* \"forsage.sol\":3354:3395  x3Matrices[msg.sender][level - 1].blocked */\n      0x02\n      add\n      0x00\n      swap1\n      sload\n      swap1\n      0x0100\n      exp\n      swap1\n      div\n      0xff\n      and\n        /* \"forsage.sol\":3350:3481  if (x3Matrices[msg.sender][level - 1].blocked) {... */\n      iszero\n      tag_155\n      jumpi\n        /* \"forsage.sol\":3460:3465  false */\n      0x00\n        /* \"forsage.sol\":3416:3426  x3Matrices */\n      0x01\n        /* \"forsage.sol\":3416:3438  x3Matrices[msg.sender] */\n      0x00\n        /* \"forsage.sol\":3427:3437  msg.sender */\n      caller\n        /* \"forsage.sol\":3416:3438  x3Matrices[msg.sender] */\n      0xffffffffffffffffffffffffffffffffffffffff\n      and\n      0xffffffffffffffffffffffffffffffffffffffff\n      and\n      dup2\n      mstore\n      0x20\n      add\n      swap1\n      dup2\n      mstore\n      0x20\n      add\n      0x00\n      keccak256\n        /* \"forsage.sol\":3416:3449  x3Matrices[msg.sender][level - 1] */\n      0x00\n        /* \"forsage.sol\":3447:3448  1 */\n      0x01\n        /* \"forsage.sol\":3439:3444  level */\n      dup5\n        /* \"forsage.sol\":3439:3448  level - 1 */\n      tag_156\n      swap2\n      swap1\n      tag_154\n      jump\t// in\n    tag_156:\n        /* \"forsage.sol\":3416:3449  x3Matrices[msg.sender][level - 1] */\n      0xff\n      and\n      0xff\n      and\n      dup2\n      mstore\n      0x20\n      add\n      swap1\n      dup2\n      mstore\n      0x20\n      add\n      0x00\n      keccak256\n        /* \"forsage.sol\":3416:3457  x3Matrices[msg.sender][level - 1].blocked */\n      0x02\n      add\n      0x00\n        /* \"forsage.sol\":3416:3465  x3Matrices[msg.sender][level - 1].blocked = false */\n      0x0100\n      exp\n      dup2\n      sload\n      dup2\n      0xff\n      mul\n      not\n      and\n      swap1\n      dup4\n      iszero\n      iszero\n      mul\n      or\n      swap1\n      sstore\n      pop\n        /* \"forsage.sol\":3350:3481  if (x3Matrices[msg.sender][level - 1].blocked) {... */\n    tag_155:\n        /* \"forsage.sol\":3497:3519  address freeX3Referrer */\n      0x00\n        /* \"forsage.sol\":3522:3559  findFreeX3Referrer(msg.sender, level) */\n      tag_157\n        /* \"forsage.sol\":3541:3551  msg.sender */\n      caller\n        /* \"forsage.sol\":3553:3558  level */\n      dup4\n        /* \"forsage.sol\":3522:3540  findFreeX3Referrer */\n      tag_102\n        /* \"forsage.sol\":3522:3559  findFreeX3Referrer(msg.sender, level) */\n      jump\t// in\n    tag_157:\n        /* \"forsage.sol\":3497:3559  address freeX3Referrer = findFreeX3Referrer(msg.sender, level) */\n      swap1\n      pop\n        /* \"forsage.sol\":3616:3620  true */\n      0x01\n        /* \"forsage.sol\":3574:3579  users */\n      0x00\n        /* \"forsage.sol\":3574:3591  users[msg.sender] */\n      dup1\n        /* \"forsage.sol\":3580:3590  msg.sender */\n      caller\n        /* \"forsage.sol\":3574:3591  users[msg.sender] */\n      0xffffffffffffffffffffffffffffffffffffffff\n      and\n      0xffffffffffffffffffffffffffffffffffffffff\n      and\n      dup2\n      mstore\n      0x20\n      add\n      swap1\n      dup2\n      mstore\n      0x20\n      add\n      0x00\n      keccak256\n        /* \"forsage.sol\":3574:3606  users[msg.sender].activeX3Levels */\n      0x03\n      add\n        /* \"forsage.sol\":3574:3613  users[msg.sender].activeX3Levels[level] */\n      0x00\n        /* \"forsage.sol\":3607:3612  level */\n      dup5\n        /* \"forsage.sol\":3574:3613  users[msg.sender].activeX3Levels[level] */\n      0xff\n      and\n      0xff\n      and\n      dup2\n      mstore\n      0x20\n      add\n      swap1\n      dup2\n      mstore\n      0x20\n      add\n      0x00\n      keccak256\n      0x00\n        /* \"forsage.sol\":3574:3620  users[msg.sender].activeX3Levels[level] = true */\n      0x0100\n      exp\n      dup2\n      sload\n      dup2\n      0xff\n      mul\n      not\n      and\n      swap1\n      dup4\n      iszero\n      iszero\n      mul\n      or\n      swap1\n      sstore\n      pop\n        /* \"forsage.sol\":3635:3686  updateX3Referrer(msg.sender, freeX3Referrer, level) */\n      tag_158\n        /* \"forsage.sol\":3652:3662  msg.sender */\n      caller\n        /* \"forsage.sol\":3664:3678  freeX3Referrer */\n      dup3\n        /* \"forsage.sol\":3680:3685  level */\n      dup5\n        /* \"forsage.sol\":3635:3651  updateX3Referrer */\n      tag_124\n        /* \"forsage.sol\":3635:3686  updateX3Referrer(msg.sender, freeX3Referrer, level) */\n      jump\t// in\n    tag_158:\n        /* \"forsage.sol\":3728:3742  freeX3Referrer */\n      dup1\n        /* \"forsage.sol\":3708:3753  Upgrade(msg.sender, freeX3Referrer, 1, level) */\n      0xffffffffffffffffffffffffffffffffffffffff\n      and\n        /* \"forsage.sol\":3716:3726  msg.sender */\n      caller\n        /* \"forsage.sol\":3708:3753  Upgrade(msg.sender, freeX3Referrer, 1, level) */\n      0xffffffffffffffffffffffffffffffffffffffff\n      and\n      0x18a92df19fd94d6cfff209966673a5ca05a1c8e2bb68e097fce2bdc2ed811119\n        /* \"forsage.sol\":3744:3745  1 */\n      0x01\n        /* \"forsage.sol\":3747:3752  level */\n      dup6\n        /* \"forsage.sol\":3708:3753  Upgrade(msg.sender, freeX3Referrer, 1, level) */\n      mload(0x40)\n      tag_159\n      swap3\n      swap2\n      swap1\n      tag_160\n      jump\t// in\n    tag_159:\n      mload(0x40)\n      dup1\n      swap2\n      sub\n      swap1\n      log3\n        /* \"forsage.sol\":3243:3765  {... */\n      pop\n        /* \"forsage.sol\":3226:4293  if (matrix == 1) {... */\n      jump(tag_161)\n    tag_149:\n        /* \"forsage.sol\":3795:3800  users */\n      0x00\n        /* \"forsage.sol\":3795:3812  users[msg.sender] */\n      dup1\n        /* \"forsage.sol\":3801:3811  msg.sender */\n      caller\n        /* \"forsage.sol\":3795:3812  users[msg.sender] */\n      0xffffffffffffffffffffffffffffffffffffffff\n      and\n      0xffffffffffffffffffffffffffffffffffffffff\n      and\n      dup2\n      mstore\n      0x20\n      add\n      swap1\n      dup2\n      mstore\n      0x20\n      add\n      0x00\n      keccak256\n        /* \"forsage.sol\":3795:3827  users[msg.sender].activeX6Levels */\n      0x04\n      add\n        /* \"forsage.sol\":3795:3834  users[msg.sender].activeX6Levels[level] */\n      0x00\n        /* \"forsage.sol\":3828:3833  level */\n      dup3\n        /* \"forsage.sol\":3795:3834  users[msg.sender].activeX6Levels[level] */\n      0xff\n      and\n      0xff\n      and\n      dup2\n      mstore\n      0x20\n      add\n      swap1\n      dup2\n      mstore\n      0x20\n      add\n      0x00\n      keccak256\n      0x00\n      swap1\n      sload\n      swap1\n      0x0100\n      exp\n      swap1\n      div\n      0xff\n      and\n        /* \"forsage.sol\":3794:3834  !users[msg.sender].activeX6Levels[level] */\n      iszero\n        /* \"forsage.sol\":3786:3863  require(!users[msg.sender].activeX6Levels[level], \"Level already activated.\") */\n      tag_162\n      jumpi\n      mload(0x40)\n      0x08c379a000000000000000000000000000000000000000000000000000000000\n      dup2\n      mstore\n      0x04\n      add\n      tag_163\n      swap1\n      tag_152\n      jump\t// in\n    tag_163:\n      mload(0x40)\n      dup1\n      swap2\n      sub\n      swap1\n      revert\n    tag_162:\n        /* \"forsage.sol\":3882:3892  x6Matrices */\n      0x02\n        /* \"forsage.sol\":3882:3904  x6Matrices[msg.sender] */\n      0x00\n        /* \"forsage.sol\":3893:3903  msg.sender */\n      caller\n        /* \"forsage.sol\":3882:3904  x6Matrices[msg.sender] */\n      0xffffffffffffffffffffffffffffffffffffffff\n      and\n      0xffffffffffffffffffffffffffffffffffffffff\n      and\n      dup2\n      mstore\n      0x20\n      add\n      swap1\n      dup2\n      mstore\n      0x20\n      add\n      0x00\n      keccak256\n        /* \"forsage.sol\":3882:3915  x6Matrices[msg.sender][level - 1] */\n      0x00\n        /* \"forsage.sol\":3913:3914  1 */\n      0x01\n        /* \"forsage.sol\":3905:3910  level */\n      dup4\n        /* \"forsage.sol\":3905:3914  level - 1 */\n      tag_164\n      swap2\n      swap1\n      tag_154\n      jump\t// in\n    tag_164:\n        /* \"forsage.sol\":3882:3915  x6Matrices[msg.sender][level - 1] */\n      0xff\n      and\n      0xff\n      and\n      dup2\n      mstore\n      0x20\n      add\n      swap1\n      dup2\n      mstore\n      0x20\n      add\n      0x00\n      keccak256\n        /* \"forsage.sol\":3882:3923  x6Matrices[msg.sender][level - 1].blocked */\n      0x03\n      add\n      0x00\n      swap1\n      sload\n      swap1\n      0x0100\n      exp\n      swap1\n      div\n      0xff\n      and\n        /* \"forsage.sol\":3878:4009  if (x6Matrices[msg.sender][level - 1].blocked) {... */\n      iszero\n      tag_165\n      jumpi\n        /* \"forsage.sol\":3988:3993  false */\n      0x00\n        /* \"forsage.sol\":3944:3954  x6Matrices */\n      0x02\n        /* \"forsage.sol\":3944:3966  x6Matrices[msg.sender] */\n      0x00\n        /* \"forsage.sol\":3955:3965  msg.sender */\n      caller\n        /* \"forsage.sol\":3944:3966  x6Matrices[msg.sender] */\n      0xffffffffffffffffffffffffffffffffffffffff\n      and\n      0xffffffffffffffffffffffffffffffffffffffff\n      and\n      dup2\n      mstore\n      0x20\n      add\n      swap1\n      dup2\n      mstore\n      0x20\n      add\n      0x00\n      keccak256\n        /* \"forsage.sol\":3944:3977  x6Matrices[msg.sender][level - 1] */\n      0x00\n        /* \"forsage.sol\":3975:3976  1 */\n      0x01\n        /* \"forsage.sol\":3967:3972  level */\n      dup5\n        /* \"forsage.sol\":3967:3976  level - 1 */\n      tag_166\n      swap2\n      swap1\n      tag_154\n      jump\t// in\n    tag_166:\n        /* \"forsage.sol\":3944:3977  x6Matrices[msg.sender][level - 1] */\n      0xff\n      and\n      0xff\n      and\n      dup2\n      mstore\n      0x20\n      add\n      swap1\n      dup2\n      mstore\n      0x20\n      add\n      0x00\n      keccak256\n        /* \"forsage.sol\":3944:3985  x6Matrices[msg.sender][level - 1].blocked */\n      0x03\n      add\n      0x00\n        /* \"forsage.sol\":3944:3993  x6Matrices[msg.sender][level - 1].blocked = false */\n      0x0100\n      exp\n      dup2\n      sload\n      dup2\n      0xff\n      mul\n      not\n      and\n      swap1\n      dup4\n      iszero\n      iszero\n      mul\n      or\n      swap1\n      sstore\n      pop\n        /* \"forsage.sol\":3878:4009  if (x6Matrices[msg.sender][level - 1].blocked) {... */\n    tag_165:\n        /* \"forsage.sol\":4025:4047  address freeX6Referrer */\n      0x00\n        /* \"forsage.sol\":4050:4087  findFreeX6Referrer(msg.sender, level) */\n      tag_167\n        /* \"forsage.sol\":4069:4079  msg.sender */\n      caller\n        /* \"forsage.sol\":4081:4086  level */\n      dup4\n        /* \"forsage.sol\":4050:4068  findFreeX6Referrer */\n      tag_91\n        /* \"forsage.sol\":4050:4087  findFreeX6Referrer(msg.sender, level) */\n      jump\t// in\n    tag_167:\n        /* \"forsage.sol\":4025:4087  address freeX6Referrer = findFreeX6Referrer(msg.sender, level) */\n      swap1\n      pop\n        /* \"forsage.sol\":4144:4148  true */\n      0x01\n        /* \"forsage.sol\":4102:4107  users */\n      0x00\n        /* \"forsage.sol\":4102:4119  users[msg.sender] */\n      dup1\n        /* \"forsage.sol\":4108:4118  msg.sender */\n      caller\n        /* \"forsage.sol\":4102:4119  users[msg.sender] */\n      0xffffffffffffffffffffffffffffffffffffffff\n      and\n      0xffffffffffffffffffffffffffffffffffffffff\n      and\n      dup2\n      mstore\n      0x20\n      add\n      swap1\n      dup2\n      mstore\n      0x20\n      add\n      0x00\n      keccak256\n        /* \"forsage.sol\":4102:4134  users[msg.sender].activeX6Levels */\n      0x04\n      add\n        /* \"forsage.sol\":4102:4141  users[msg.sender].activeX6Levels[level] */\n      0x00\n        /* \"forsage.sol\":4135:4140  level */\n      dup5\n        /* \"forsage.sol\":4102:4141  users[msg.sender].activeX6Levels[level] */\n      0xff\n      and\n      0xff\n      and\n      dup2\n      mstore\n      0x20\n      add\n      swap1\n      dup2\n      mstore\n      0x20\n      add\n      0x00\n      keccak256\n      0x00\n        /* \"forsage.sol\":4102:4148  users[msg.sender].activeX6Levels[level] = true */\n      0x0100\n      exp\n      dup2\n      sload\n      dup2\n      0xff\n      mul\n      not\n      and\n      swap1\n      dup4\n      iszero\n      iszero\n      mul\n      or\n      swap1\n      sstore\n      pop\n        /* \"forsage.sol\":4163:4214  updateX6Referrer(msg.sender, freeX6Referrer, level) */\n      tag_168\n        /* \"forsage.sol\":4180:4190  msg.sender */\n      caller\n        /* \"forsage.sol\":4192:4206  freeX6Referrer */\n      dup3\n        /* \"forsage.sol\":4208:4213  level */\n      dup5\n        /* \"forsage.sol\":4163:4179  updateX6Referrer */\n      tag_127\n        /* \"forsage.sol\":4163:4214  updateX6Referrer(msg.sender, freeX6Referrer, level) */\n      jump\t// in\n    tag_168:\n        /* \"forsage.sol\":4256:4270  freeX6Referrer */\n      dup1\n        /* \"forsage.sol\":4236:4281  Upgrade(msg.sender, freeX6Referrer, 2, level) */\n      0xffffffffffffffffffffffffffffffffffffffff\n      and\n        /* \"forsage.sol\":4244:4254  msg.sender */\n      caller\n        /* \"forsage.sol\":4236:4281  Upgrade(msg.sender, freeX6Referrer, 2, level) */\n      0xffffffffffffffffffffffffffffffffffffffff\n      and\n      0x18a92df19fd94d6cfff209966673a5ca05a1c8e2bb68e097fce2bdc2ed811119\n        /* \"forsage.sol\":4272:4273  2 */\n      0x02\n        /* \"forsage.sol\":4275:4280  level */\n      dup6\n        /* \"forsage.sol\":4236:4281  Upgrade(msg.sender, freeX6Referrer, 2, level) */\n      mload(0x40)\n      tag_169\n      swap3\n      swap2\n      swap1\n      tag_170\n      jump\t// in\n    tag_169:\n      mload(0x40)\n      dup1\n      swap2\n      sub\n      swap1\n      log3\n        /* \"forsage.sol\":3771:4293  {... */\n      pop\n        /* \"forsage.sol\":3226:4293  if (matrix == 1) {... */\n    tag_161:\n        /* \"forsage.sol\":2858:4300  function buyNewLevel(uint8 matrix, uint8 level) external payable {... */\n      pop\n      pop\n      jump\t// out\n        /* \"forsage.sol\":799:857  mapping(address => mapping(uint8 => X6)) public x6Matrices */\n    tag_85:\n      mstore(0x20, 0x02)\n      dup2\n      0x00\n      mstore\n      mstore(0x20, keccak256(0x00, 0x40))\n      dup1\n      0x00\n      mstore\n      keccak256(0x00, 0x40)\n      0x00\n      swap2\n      pop\n      swap2\n      pop\n      pop\n      dup1\n      0x00\n      add\n      0x00\n      swap1\n      sload\n      swap1\n      0x0100\n      exp\n      swap1\n      div\n      0xffffffffffffffffffffffffffffffffffffffff\n      and\n      swap1\n      dup1\n      0x03\n      add\n      0x00\n      swap1\n      sload\n      swap1\n      0x0100\n      exp\n      swap1\n      div\n      0xff\n      and\n      swap1\n      dup1\n      0x04\n      add\n      sload\n      swap1\n      dup1\n      0x05\n      add\n      0x00\n      swap1\n      sload\n      swap1\n      0x0100\n      exp\n      swap1\n      div\n      0xffffffffffffffffffffffffffffffffffffffff\n      and\n      swap1\n      pop\n      dup5\n      jump\t// out\n        /* \"forsage.sol\":10115:10548  function findFreeX6Referrer(address userAddress, uint8 level) public view returns (address) {... */\n    tag_91:\n        /* \"forsage.sol\":10198:10205  address */\n      0x00\n        /* \"forsage.sol\":10218:10541  while (true) {... */\n    tag_172:\n        /* \"forsage.sol\":10225:10229  true */\n      0x01\n        /* \"forsage.sol\":10218:10541  while (true) {... */\n      iszero\n      tag_173\n      jumpi\n        /* \"forsage.sol\":10250:10255  users */\n      0x00\n        /* \"forsage.sol\":10250:10284  users[users[userAddress].referrer] */\n      dup1\n        /* \"forsage.sol\":10256:10261  users */\n      dup1\n        /* \"forsage.sol\":10256:10274  users[userAddress] */\n      0x00\n        /* \"forsage.sol\":10262:10273  userAddress */\n      dup7\n        /* \"forsage.sol\":10256:10274  users[userAddress] */\n      0xffffffffffffffffffffffffffffffffffffffff\n      and\n      0xffffffffffffffffffffffffffffffffffffffff\n      and\n      dup2\n      mstore\n      0x20\n      add\n      swap1\n      dup2\n      mstore\n      0x20\n      add\n      0x00\n      keccak256\n        /* \"forsage.sol\":10256:10283  users[userAddress].referrer */\n      0x01\n      add\n      0x00\n      swap1\n      sload\n      swap1\n      0x0100\n      exp\n      swap1\n      div\n      0xffffffffffffffffffffffffffffffffffffffff\n      and\n        /* \"forsage.sol\":10250:10284  users[users[userAddress].referrer] */\n      0xffffffffffffffffffffffffffffffffffffffff\n      and\n      0xffffffffffffffffffffffffffffffffffffffff\n      and\n      dup2\n      mstore\n      0x20\n      add\n      swap1\n      dup2\n      mstore\n      0x20\n      add\n      0x00\n      keccak256\n        /* \"forsage.sol\":10250:10299  users[users[userAddress].referrer].activeX6Levels */\n      0x04\n      add\n        /* \"forsage.sol\":10250:10306  users[users[userAddress].referrer].activeX6Levels[level] */\n      0x00\n        /* \"forsage.sol\":10300:10305  level */\n      dup4\n        /* \"forsage.sol\":10250:10306  users[users[userAddress].referrer].activeX6Levels[level] */\n      0xff\n      and\n      0xff\n      and\n      dup2\n      mstore\n      0x20\n      add\n      swap1\n      dup2\n      mstore\n      0x20\n      add\n      0x00\n      keccak256\n      0x00\n      swap1\n      sload\n      swap1\n      0x0100\n      exp\n      swap1\n      div\n      0xff\n      and\n        /* \"forsage.sol\":10246:10377  if (users[users[userAddress].referrer].activeX6Levels[level]) {... */\n      iszero\n      tag_174\n      jumpi\n        /* \"forsage.sol\":10334:10339  users */\n      0x00\n        /* \"forsage.sol\":10334:10352  users[userAddress] */\n      dup1\n        /* \"forsage.sol\":10340:10351  userAddress */\n      dup5\n        /* \"forsage.sol\":10334:10352  users[userAddress] */\n      0xffffffffffffffffffffffffffffffffffffffff\n      and\n      0xffffffffffffffffffffffffffffffffffffffff\n      and\n      dup2\n      mstore\n      0x20\n      add\n      swap1\n      dup2\n      mstore\n      0x20\n      add\n      0x00\n      keccak256\n        /* \"forsage.sol\":10334:10361  users[userAddress].referrer */\n      0x01\n      add\n      0x00\n      swap1\n      sload\n      swap1\n      0x0100\n      exp\n      swap1\n      div\n      0xffffffffffffffffffffffffffffffffffffffff\n      and\n        /* \"forsage.sol\":10327:10361  return users[userAddress].referrer */\n      swap1\n      pop\n      jump(tag_171)\n        /* \"forsage.sol\":10246:10377  if (users[users[userAddress].referrer].activeX6Levels[level]) {... */\n    tag_174:\n        /* \"forsage.sol\":10405:10410  users */\n      0x00\n        /* \"forsage.sol\":10405:10423  users[userAddress] */\n      dup1\n        /* \"forsage.sol\":10411:10422  userAddress */\n      dup5\n        /* \"forsage.sol\":10405:10423  users[userAddress] */\n      0xffffffffffffffffffffffffffffffffffffffff\n      and\n      0xffffffffffffffffffffffffffffffffffffffff\n      and\n      dup2\n      mstore\n      0x20\n      add\n      swap1\n      dup2\n      mstore\n      0x20\n      add\n      0x00\n      keccak256\n        /* \"forsage.sol\":10405:10432  users[userAddress].referrer */\n      0x01\n      add\n      0x00\n      swap1\n      sload\n      swap1\n      0x0100\n      exp\n      swap1\n      div\n      0xffffffffffffffffffffffffffffffffffffffff\n      and\n        /* \"forsage.sol\":10391:10432  userAddress = users[userAddress].referrer */\n      swap3\n      pop\n        /* \"forsage.sol\":10474:10475  0 */\n      0x00\n        /* \"forsage.sol\":10451:10476  userAddress == address(0) */\n      0xffffffffffffffffffffffffffffffffffffffff\n      and\n        /* \"forsage.sol\":10451:10462  userAddress */\n      dup4\n        /* \"forsage.sol\":10451:10476  userAddress == address(0) */\n      0xffffffffffffffffffffffffffffffffffffffff\n      and\n      sub\n        /* \"forsage.sol\":10447:10530  if (userAddress == address(0)) {... */\n      tag_175\n      jumpi\n        /* \"forsage.sol\":10512:10513  0 */\n      0x00\n        /* \"forsage.sol\":10497:10514  return address(0) */\n      swap1\n      pop\n      jump(tag_171)\n        /* \"forsage.sol\":10447:10530  if (userAddress == address(0)) {... */\n    tag_175:\n        /* \"forsage.sol\":10218:10541  while (true) {... */\n      jump(tag_172)\n    tag_173:\n        /* \"forsage.sol\":10115:10548  function findFreeX6Referrer(address userAddress, uint8 level) public view returns (address) {... */\n    tag_171:\n      swap3\n      swap2\n      pop\n      pop\n      jump\t// out\n        /* \"forsage.sol\":976:1016  mapping(uint8 => uint) public levelPrice */\n    tag_97:\n      mstore(0x20, 0x06)\n      dup1\n      0x00\n      mstore\n      keccak256(0x00, 0x40)\n      0x00\n      swap2\n      pop\n      swap1\n      pop\n      sload\n      dup2\n      jump\t// out\n        /* \"forsage.sol\":9674:10107  function findFreeX3Referrer(address userAddress, uint8 level) public view returns (address) {... */\n    tag_102:\n        /* \"forsage.sol\":9757:9764  address */\n      0x00\n        /* \"forsage.sol\":9777:10100  while (true) {... */\n    tag_177:\n        /* \"forsage.sol\":9784:9788  true */\n      0x01\n        /* \"forsage.sol\":9777:10100  while (true) {... */\n      iszero\n      tag_178\n      jumpi\n        /* \"forsage.sol\":9809:9814  users */\n      0x00\n        /* \"forsage.sol\":9809:9843  users[users[userAddress].referrer] */\n      dup1\n        /* \"forsage.sol\":9815:9820  users */\n      dup1\n        /* \"forsage.sol\":9815:9833  users[userAddress] */\n      0x00\n        /* \"forsage.sol\":9821:9832  userAddress */\n      dup7\n        /* \"forsage.sol\":9815:9833  users[userAddress] */\n      0xffffffffffffffffffffffffffffffffffffffff\n      and\n      0xffffffffffffffffffffffffffffffffffffffff\n      and\n      dup2\n      mstore\n      0x20\n      add\n      swap1\n      dup2\n      mstore\n      0x20\n      add\n      0x00\n      keccak256\n        /* \"forsage.sol\":9815:9842  users[userAddress].referrer */\n      0x01\n      add\n      0x00\n      swap1\n      sload\n      swap1\n      0x0100\n      exp\n      swap1\n      div\n      0xffffffffffffffffffffffffffffffffffffffff\n      and\n        /* \"forsage.sol\":9809:9843  users[users[userAddress].referrer] */\n      0xffffffffffffffffffffffffffffffffffffffff\n      and\n      0xffffffffffffffffffffffffffffffffffffffff\n      and\n      dup2\n      mstore\n      0x20\n      add\n      swap1\n      dup2\n      mstore\n      0x20\n      add\n      0x00\n      keccak256\n        /* \"forsage.sol\":9809:9858  users[users[userAddress].referrer].activeX3Levels */\n      0x03\n      add\n        /* \"forsage.sol\":9809:9865  users[users[userAddress].referrer].activeX3Levels[level] */\n      0x00\n        /* \"forsage.sol\":9859:9864  level */\n      dup4\n        /* \"forsage.sol\":9809:9865  users[users[userAddress].referrer].activeX3Levels[level] */\n      0xff\n      and\n      0xff\n      and\n      dup2\n      mstore\n      0x20\n      add\n      swap1\n      dup2\n      mstore\n      0x20\n      add\n      0x00\n      keccak256\n      0x00\n      swap1\n      sload\n      swap1\n      0x0100\n      exp\n      swap1\n      div\n      0xff\n      and\n        /* \"forsage.sol\":9805:9936  if (users[users[userAddress].referrer].activeX3Levels[level]) {... */\n      iszero\n      tag_179\n      jumpi\n        /* \"forsage.sol\":9893:9898  users */\n      0x00\n        /* \"forsage.sol\":9893:9911  users[userAddress] */\n      dup1\n        /* \"forsage.sol\":9899:9910  userAddress */\n      dup5\n        /* \"forsage.sol\":9893:9911  users[userAddress] */\n      0xffffffffffffffffffffffffffffffffffffffff\n      and\n      0xffffffffffffffffffffffffffffffffffffffff\n      and\n      dup2\n      mstore\n      0x20\n      add\n      swap1\n      dup2\n      mstore\n      0x20\n      add\n      0x00\n      keccak256\n        /* \"forsage.sol\":9893:9920  users[userAddress].referrer */\n      0x01\n      add\n      0x00\n      swap1\n      sload\n      swap1\n      0x0100\n      exp\n      swap1\n      div\n      0xffffffffffffffffffffffffffffffffffffffff\n      and\n        /* \"forsage.sol\":9886:9920  return users[userAddress].referrer */\n      swap1\n      pop\n      jump(tag_176)\n        /* \"forsage.sol\":9805:9936  if (users[users[userAddress].referrer].activeX3Levels[level]) {... */\n    tag_179:\n        /* \"forsage.sol\":9964:9969  users */\n      0x00\n        /* \"forsage.sol\":9964:9982  users[userAddress] */\n      dup1\n        /* \"forsage.sol\":9970:9981  userAddress */\n      dup5\n        /* \"forsage.sol\":9964:9982  users[userAddress] */\n      0xffffffffffffffffffffffffffffffffffffffff\n      and\n      0xffffffffffffffffffffffffffffffffffffffff\n      and\n      dup2\n      mstore\n      0x20\n      add\n      swap1\n      dup2\n      mstore\n      0x20\n      add\n      0x00\n      keccak256\n        /* \"forsage.sol\":9964:9991  users[userAddress].referrer */\n      0x01\n      add\n      0x00\n      swap1\n      sload\n      swap1\n      0x0100\n      exp\n      swap1\n      div\n      0xffffffffffffffffffffffffffffffffffffffff\n      and\n        /* \"forsage.sol\":9950:9991  userAddress = users[userAddress].referrer */\n      swap3\n      pop\n        /* \"forsage.sol\":10033:10034  0 */\n      0x00\n        /* \"forsage.sol\":10010:10035  userAddress == address(0) */\n      0xffffffffffffffffffffffffffffffffffffffff\n      and\n        /* \"forsage.sol\":10010:10021  userAddress */\n      dup4\n        /* \"forsage.sol\":10010:10035  userAddress == address(0) */\n      0xffffffffffffffffffffffffffffffffffffffff\n      and\n      sub\n        /* \"forsage.sol\":10006:10089  if (userAddress == address(0)) {... */\n      tag_180\n      jumpi\n        /* \"forsage.sol\":10071:10072  0 */\n      0x00\n        /* \"forsage.sol\":10056:10073  return address(0) */\n      swap1\n      pop\n      jump(tag_176)\n        /* \"forsage.sol\":10006:10089  if (userAddress == address(0)) {... */\n    tag_180:\n        /* \"forsage.sol\":9777:10100  while (true) {... */\n      jump(tag_177)\n    tag_178:\n        /* \"forsage.sol\":9674:10107  function findFreeX3Referrer(address userAddress, uint8 level) public view returns (address) {... */\n    tag_176:\n      swap3\n      swap2\n      pop\n      pop\n      jump\t// out\n        /* \"forsage.sol\":5522:6882  function updateX3Referrer(address userAddress, address referrerAddress, uint8 level) private {... */\n    tag_124:\n        /* \"forsage.sol\":5626:5645  X3 storage x3Matrix */\n      0x00\n        /* \"forsage.sol\":5648:5658  x3Matrices */\n      0x01\n        /* \"forsage.sol\":5648:5675  x3Matrices[referrerAddress] */\n      0x00\n        /* \"forsage.sol\":5659:5674  referrerAddress */\n      dup5\n        /* \"forsage.sol\":5648:5675  x3Matrices[referrerAddress] */\n      0xffffffffffffffffffffffffffffffffffffffff\n      and\n      0xffffffffffffffffffffffffffffffffffffffff\n      and\n      dup2\n      mstore\n      0x20\n      add\n      swap1\n      dup2\n      mstore\n      0x20\n      add\n      0x00\n      keccak256\n        /* \"forsage.sol\":5648:5682  x3Matrices[referrerAddress][level] */\n      0x00\n        /* \"forsage.sol\":5676:5681  level */\n      dup4\n        /* \"forsage.sol\":5648:5682  x3Matrices[referrerAddress][level] */\n      0xff\n      and\n      0xff\n      and\n      dup2\n      mstore\n      0x20\n      add\n      swap1\n      dup2\n      mstore\n      0x20\n      add\n      0x00\n      keccak256\n        /* \"forsage.sol\":5626:5682  X3 storage x3Matrix = x3Matrices[referrerAddress][level] */\n      swap1\n      pop\n        /* \"forsage.sol\":5693:5701  x3Matrix */\n      dup1\n        /* \"forsage.sol\":5693:5711  x3Matrix.referrals */\n      0x01\n      add\n        /* \"forsage.sol\":5717:5728  userAddress */\n      dup5\n        /* \"forsage.sol\":5693:5729  x3Matrix.referrals.push(userAddress) */\n      swap1\n      dup1\n      0x01\n      dup2\n      sload\n      add\n      dup1\n      dup3\n      sstore\n      dup1\n      swap2\n      pop\n      pop\n      0x01\n      swap1\n      sub\n      swap1\n      0x00\n      mstore\n      keccak256(0x00, 0x20)\n      add\n      0x00\n      swap1\n      swap2\n      swap1\n      swap2\n      swap1\n      swap2\n      0x0100\n      exp\n      dup2\n      sload\n      dup2\n      0xffffffffffffffffffffffffffffffffffffffff\n      mul\n      not\n      and\n      swap1\n      dup4\n      0xffffffffffffffffffffffffffffffffffffffff\n      and\n      mul\n      or\n      swap1\n      sstore\n      pop\n        /* \"forsage.sol\":5774:5775  3 */\n      0x03\n        /* \"forsage.sol\":5746:5754  x3Matrix */\n      dup2\n        /* \"forsage.sol\":5746:5764  x3Matrix.referrals */\n      0x01\n      add\n        /* \"forsage.sol\":5746:5771  x3Matrix.referrals.length */\n      dup1\n      sload\n      swap1\n      pop\n        /* \"forsage.sol\":5746:5775  x3Matrix.referrals.length < 3 */\n      lt\n        /* \"forsage.sol\":5742:5964  if (x3Matrix.referrals.length < 3) {... */\n      iszero\n      tag_183\n      jumpi\n        /* \"forsage.sol\":5823:5838  referrerAddress */\n      dup3\n        /* \"forsage.sol\":5797:5883  NewUserPlace(userAddress, referrerAddress, 1, level, uint8(x3Matrix.referrals.length)) */\n      0xffffffffffffffffffffffffffffffffffffffff\n      and\n        /* \"forsage.sol\":5810:5821  userAddress */\n      dup5\n        /* \"forsage.sol\":5797:5883  NewUserPlace(userAddress, referrerAddress, 1, level, uint8(x3Matrix.referrals.length)) */\n      0xffffffffffffffffffffffffffffffffffffffff\n      and\n      0x68062c5925c4317adf3a7095478d28b33fd8b41458bc7620b61bc46bf1b24d82\n        /* \"forsage.sol\":5840:5841  1 */\n      0x01\n        /* \"forsage.sol\":5843:5848  level */\n      dup6\n        /* \"forsage.sol\":5856:5864  x3Matrix */\n      dup6\n        /* \"forsage.sol\":5856:5874  x3Matrix.referrals */\n      0x01\n      add\n        /* \"forsage.sol\":5856:5881  x3Matrix.referrals.length */\n      dup1\n      sload\n      swap1\n      pop\n        /* \"forsage.sol\":5797:5883  NewUserPlace(userAddress, referrerAddress, 1, level, uint8(x3Matrix.referrals.length)) */\n      mload(0x40)\n      tag_184\n      swap4\n      swap3\n      swap2\n      swap1\n      tag_185\n      jump\t// in\n    tag_184:\n      mload(0x40)\n      dup1\n      swap2\n      sub\n      swap1\n      log3\n        /* \"forsage.sol\":5898:5931  sendETHDividends(referrerAddress) */\n      tag_186\n        /* \"forsage.sol\":5915:5930  referrerAddress */\n      dup4\n        /* \"forsage.sol\":5898:5914  sendETHDividends */\n      tag_187\n        /* \"forsage.sol\":5898:5931  sendETHDividends(referrerAddress) */\n      jump\t// in\n    tag_186:\n        /* \"forsage.sol\":5946:5953  return; */\n      pop\n      jump(tag_181)\n        /* \"forsage.sol\":5742:5964  if (x3Matrix.referrals.length < 3) {... */\n    tag_183:\n        /* \"forsage.sol\":6007:6022  referrerAddress */\n      dup3\n        /* \"forsage.sol\":5981:6036  NewUserPlace(userAddress, referrerAddress, 1, level, 3) */\n      0xffffffffffffffffffffffffffffffffffffffff\n      and\n        /* \"forsage.sol\":5994:6005  userAddress */\n      dup5\n        /* \"forsage.sol\":5981:6036  NewUserPlace(userAddress, referrerAddress, 1, level, 3) */\n      0xffffffffffffffffffffffffffffffffffffffff\n      and\n      0x68062c5925c4317adf3a7095478d28b33fd8b41458bc7620b61bc46bf1b24d82\n        /* \"forsage.sol\":6024:6025  1 */\n      0x01\n        /* \"forsage.sol\":6027:6032  level */\n      dup6\n        /* \"forsage.sol\":6034:6035  3 */\n      0x03\n        /* \"forsage.sol\":5981:6036  NewUserPlace(userAddress, referrerAddress, 1, level, 3) */\n      mload(0x40)\n      tag_188\n      swap4\n      swap3\n      swap2\n      swap1\n      tag_189\n      jump\t// in\n    tag_188:\n      mload(0x40)\n      dup1\n      swap2\n      sub\n      swap1\n      log3\n        /* \"forsage.sol\":6054:6062  x3Matrix */\n      dup1\n        /* \"forsage.sol\":6054:6072  x3Matrix.referrals */\n      0x01\n      add\n      0x00\n        /* \"forsage.sol\":6047:6072  delete x3Matrix.referrals */\n      tag_190\n      swap2\n      swap1\n      tag_191\n      jump\t// in\n    tag_190:\n        /* \"forsage.sol\":6092:6097  users */\n      0x00\n        /* \"forsage.sol\":6092:6114  users[referrerAddress] */\n      dup1\n        /* \"forsage.sol\":6098:6113  referrerAddress */\n      dup5\n        /* \"forsage.sol\":6092:6114  users[referrerAddress] */\n      0xffffffffffffffffffffffffffffffffffffffff\n      and\n      0xffffffffffffffffffffffffffffffffffffffff\n      and\n      dup2\n      mstore\n      0x20\n      add\n      swap1\n      dup2\n      mstore\n      0x20\n      add\n      0x00\n      keccak256\n        /* \"forsage.sol\":6092:6129  users[referrerAddress].activeX3Levels */\n      0x03\n      add\n        /* \"forsage.sol\":6092:6140  users[referrerAddress].activeX3Levels[level + 1] */\n      0x00\n        /* \"forsage.sol\":6138:6139  1 */\n      0x01\n        /* \"forsage.sol\":6130:6135  level */\n      dup5\n        /* \"forsage.sol\":6130:6139  level + 1 */\n      tag_192\n      swap2\n      swap1\n      tag_193\n      jump\t// in\n    tag_192:\n        /* \"forsage.sol\":6092:6140  users[referrerAddress].activeX3Levels[level + 1] */\n      0xff\n      and\n      0xff\n      and\n      dup2\n      mstore\n      0x20\n      add\n      swap1\n      dup2\n      mstore\n      0x20\n      add\n      0x00\n      keccak256\n      0x00\n      swap1\n      sload\n      swap1\n      0x0100\n      exp\n      swap1\n      div\n      0xff\n      and\n        /* \"forsage.sol\":6091:6140  !users[referrerAddress].activeX3Levels[level + 1] */\n      iszero\n        /* \"forsage.sol\":6091:6163  !users[referrerAddress].activeX3Levels[level + 1] && level != LAST_LEVEL */\n      dup1\n      iszero\n      tag_194\n      jumpi\n      pop\n        /* \"forsage.sol\":681:683  12 */\n      0x0c\n        /* \"forsage.sol\":6144:6163  level != LAST_LEVEL */\n      0xff\n      and\n        /* \"forsage.sol\":6144:6149  level */\n      dup3\n        /* \"forsage.sol\":6144:6163  level != LAST_LEVEL */\n      0xff\n      and\n      eq\n      iszero\n        /* \"forsage.sol\":6091:6163  !users[referrerAddress].activeX3Levels[level + 1] && level != LAST_LEVEL */\n    tag_194:\n        /* \"forsage.sol\":6087:6215  if (!users[referrerAddress].activeX3Levels[level + 1] && level != LAST_LEVEL) {... */\n      iszero\n      tag_195\n      jumpi\n        /* \"forsage.sol\":6199:6203  true */\n      0x01\n        /* \"forsage.sol\":6180:6188  x3Matrix */\n      dup2\n        /* \"forsage.sol\":6180:6196  x3Matrix.blocked */\n      0x02\n      add\n      0x00\n        /* \"forsage.sol\":6180:6203  x3Matrix.blocked = true */\n      0x0100\n      exp\n      dup2\n      sload\n      dup2\n      0xff\n      mul\n      not\n      and\n      swap1\n      dup4\n      iszero\n      iszero\n      mul\n      or\n      swap1\n      sstore\n      pop\n        /* \"forsage.sol\":6087:6215  if (!users[referrerAddress].activeX3Levels[level + 1] && level != LAST_LEVEL) {... */\n    tag_195:\n        /* \"forsage.sol\":6250:6255  owner */\n      0x05\n      0x00\n      swap1\n      sload\n      swap1\n      0x0100\n      exp\n      swap1\n      div\n      0xffffffffffffffffffffffffffffffffffffffff\n      and\n        /* \"forsage.sol\":6231:6255  referrerAddress != owner */\n      0xffffffffffffffffffffffffffffffffffffffff\n      and\n        /* \"forsage.sol\":6231:6246  referrerAddress */\n      dup4\n        /* \"forsage.sol\":6231:6255  referrerAddress != owner */\n      0xffffffffffffffffffffffffffffffffffffffff\n      and\n      eq\n        /* \"forsage.sol\":6227:6875  if (referrerAddress != owner) {... */\n      tag_196\n      jumpi\n        /* \"forsage.sol\":6272:6299  address freeReferrerAddress */\n      0x00\n        /* \"forsage.sol\":6302:6344  findFreeX3Referrer(referrerAddress, level) */\n      tag_197\n        /* \"forsage.sol\":6321:6336  referrerAddress */\n      dup5\n        /* \"forsage.sol\":6338:6343  level */\n      dup5\n        /* \"forsage.sol\":6302:6320  findFreeX3Referrer */\n      tag_102\n        /* \"forsage.sol\":6302:6344  findFreeX3Referrer(referrerAddress, level) */\n      jump\t// in\n    tag_197:\n        /* \"forsage.sol\":6272:6344  address freeReferrerAddress = findFreeX3Referrer(referrerAddress, level) */\n      swap1\n      pop\n        /* \"forsage.sol\":6391:6410  freeReferrerAddress */\n      dup1\n        /* \"forsage.sol\":6363:6410  x3Matrix.currentReferrer != freeReferrerAddress */\n      0xffffffffffffffffffffffffffffffffffffffff\n      and\n        /* \"forsage.sol\":6363:6371  x3Matrix */\n      dup3\n        /* \"forsage.sol\":6363:6387  x3Matrix.currentReferrer */\n      0x00\n      add\n      0x00\n      swap1\n      sload\n      swap1\n      0x0100\n      exp\n      swap1\n      div\n      0xffffffffffffffffffffffffffffffffffffffff\n      and\n        /* \"forsage.sol\":6363:6410  x3Matrix.currentReferrer != freeReferrerAddress */\n      0xffffffffffffffffffffffffffffffffffffffff\n      and\n      eq\n        /* \"forsage.sol\":6359:6493  if (x3Matrix.currentReferrer != freeReferrerAddress) {... */\n      tag_198\n      jumpi\n        /* \"forsage.sol\":6458:6477  freeReferrerAddress */\n      dup1\n        /* \"forsage.sol\":6431:6439  x3Matrix */\n      dup3\n        /* \"forsage.sol\":6431:6455  x3Matrix.currentReferrer */\n      0x00\n      add\n      0x00\n        /* \"forsage.sol\":6431:6477  x3Matrix.currentReferrer = freeReferrerAddress */\n      0x0100\n      exp\n      dup2\n      sload\n      dup2\n      0xffffffffffffffffffffffffffffffffffffffff\n      mul\n      not\n      and\n      swap1\n      dup4\n      0xffffffffffffffffffffffffffffffffffffffff\n      and\n      mul\n      or\n      swap1\n      sstore\n      pop\n        /* \"forsage.sol\":6359:6493  if (x3Matrix.currentReferrer != freeReferrerAddress) {... */\n    tag_198:\n        /* \"forsage.sol\":6509:6517  x3Matrix */\n      dup2\n        /* \"forsage.sol\":6509:6531  x3Matrix.reinvestCount */\n      0x03\n      add\n      0x00\n        /* \"forsage.sol\":6509:6533  x3Matrix.reinvestCount++ */\n      dup2\n      sload\n      dup1\n      swap3\n      swap2\n      swap1\n      tag_199\n      swap1\n      tag_120\n      jump\t// in\n    tag_199:\n      swap2\n      swap1\n      pop\n      sstore\n      pop\n        /* \"forsage.sol\":6600:6611  userAddress */\n      dup5\n        /* \"forsage.sol\":6553:6622  Reinvest(referrerAddress, freeReferrerAddress, userAddress, 1, level) */\n      0xffffffffffffffffffffffffffffffffffffffff\n      and\n        /* \"forsage.sol\":6579:6598  freeReferrerAddress */\n      dup2\n        /* \"forsage.sol\":6553:6622  Reinvest(referrerAddress, freeReferrerAddress, userAddress, 1, level) */\n      0xffffffffffffffffffffffffffffffffffffffff\n      and\n        /* \"forsage.sol\":6562:6577  referrerAddress */\n      dup6\n        /* \"forsage.sol\":6553:6622  Reinvest(referrerAddress, freeReferrerAddress, userAddress, 1, level) */\n      0xffffffffffffffffffffffffffffffffffffffff\n      and\n      0xa00c953eff38ec1b71e7fe060b2ab8df0bbe5354319fbdde4fbdafd6324386a6\n        /* \"forsage.sol\":6613:6614  1 */\n      0x01\n        /* \"forsage.sol\":6616:6621  level */\n      dup8\n        /* \"forsage.sol\":6553:6622  Reinvest(referrerAddress, freeReferrerAddress, userAddress, 1, level) */\n      mload(0x40)\n      tag_200\n      swap3\n      swap2\n      swap1\n      tag_160\n      jump\t// in\n    tag_200:\n      mload(0x40)\n      dup1\n      swap2\n      sub\n      swap1\n      log4\n        /* \"forsage.sol\":6637:6698  updateX3Referrer(referrerAddress, freeReferrerAddress, level) */\n      tag_201\n        /* \"forsage.sol\":6654:6669  referrerAddress */\n      dup5\n        /* \"forsage.sol\":6671:6690  freeReferrerAddress */\n      dup3\n        /* \"forsage.sol\":6692:6697  level */\n      dup6\n        /* \"forsage.sol\":6637:6653  updateX3Referrer */\n      tag_124\n        /* \"forsage.sol\":6637:6698  updateX3Referrer(referrerAddress, freeReferrerAddress, level) */\n      jump\t// in\n    tag_201:\n        /* \"forsage.sol\":6257:6710  {... */\n      pop\n        /* \"forsage.sol\":6227:6875  if (referrerAddress != owner) {... */\n      jump(tag_202)\n    tag_196:\n        /* \"forsage.sol\":6731:6754  sendETHDividends(owner) */\n      tag_203\n        /* \"forsage.sol\":6748:6753  owner */\n      0x05\n      0x00\n      swap1\n      sload\n      swap1\n      0x0100\n      exp\n      swap1\n      div\n      0xffffffffffffffffffffffffffffffffffffffff\n      and\n        /* \"forsage.sol\":6731:6747  sendETHDividends */\n      tag_187\n        /* \"forsage.sol\":6731:6754  sendETHDividends(owner) */\n      jump\t// in\n    tag_203:\n        /* \"forsage.sol\":6769:6777  x3Matrix */\n      dup1\n        /* \"forsage.sol\":6769:6791  x3Matrix.reinvestCount */\n      0x03\n      add\n      0x00\n        /* \"forsage.sol\":6769:6793  x3Matrix.reinvestCount++ */\n      dup2\n      sload\n      dup1\n      swap3\n      swap2\n      swap1\n      tag_204\n      swap1\n      tag_120\n      jump\t// in\n    tag_204:\n      swap2\n      swap1\n      pop\n      sstore\n      pop\n        /* \"forsage.sol\":6841:6852  userAddress */\n      dup4\n        /* \"forsage.sol\":6813:6863  Reinvest(owner, address(0), userAddress, 1, level) */\n      0xffffffffffffffffffffffffffffffffffffffff\n      and\n        /* \"forsage.sol\":6837:6838  0 */\n      0x00\n        /* \"forsage.sol\":6813:6863  Reinvest(owner, address(0), userAddress, 1, level) */\n      0xffffffffffffffffffffffffffffffffffffffff\n      and\n        /* \"forsage.sol\":6822:6827  owner */\n      0x05\n      0x00\n      swap1\n      sload\n      swap1\n      0x0100\n      exp\n      swap1\n      div\n      0xffffffffffffffffffffffffffffffffffffffff\n      and\n        /* \"forsage.sol\":6813:6863  Reinvest(owner, address(0), userAddress, 1, level) */\n      0xffffffffffffffffffffffffffffffffffffffff\n      and\n      0xa00c953eff38ec1b71e7fe060b2ab8df0bbe5354319fbdde4fbdafd6324386a6\n        /* \"forsage.sol\":6854:6855  1 */\n      0x01\n        /* \"forsage.sol\":6857:6862  level */\n      dup7\n        /* \"forsage.sol\":6813:6863  Reinvest(owner, address(0), userAddress, 1, level) */\n      mload(0x40)\n      tag_205\n      swap3\n      swap2\n      swap1\n      tag_160\n      jump\t// in\n    tag_205:\n      mload(0x40)\n      dup1\n      swap2\n      sub\n      swap1\n      log4\n        /* \"forsage.sol\":6227:6875  if (referrerAddress != owner) {... */\n    tag_202:\n        /* \"forsage.sol\":5615:6882  {... */\n      pop\n        /* \"forsage.sol\":5522:6882  function updateX3Referrer(address userAddress, address referrerAddress, uint8 level) private {... */\n    tag_181:\n      pop\n      pop\n      pop\n      jump\t// out\n        /* \"forsage.sol\":6890:8606  function updateX6Referrer(address userAddress, address referrerAddress, uint8 level) private {... */\n    tag_127:\n        /* \"forsage.sol\":7002:7007  users */\n      0x00\n        /* \"forsage.sol\":7002:7024  users[referrerAddress] */\n      dup1\n        /* \"forsage.sol\":7008:7023  referrerAddress */\n      dup4\n        /* \"forsage.sol\":7002:7024  users[referrerAddress] */\n      0xffffffffffffffffffffffffffffffffffffffff\n      and\n      0xffffffffffffffffffffffffffffffffffffffff\n      and\n      dup2\n      mstore\n      0x20\n      add\n      swap1\n      dup2\n      mstore\n      0x20\n      add\n      0x00\n      keccak256\n        /* \"forsage.sol\":7002:7039  users[referrerAddress].activeX6Levels */\n      0x04\n      add\n        /* \"forsage.sol\":7002:7046  users[referrerAddress].activeX6Levels[level] */\n      0x00\n        /* \"forsage.sol\":7040:7045  level */\n      dup3\n        /* \"forsage.sol\":7002:7046  users[referrerAddress].activeX6Levels[level] */\n      0xff\n      and\n      0xff\n      and\n      dup2\n      mstore\n      0x20\n      add\n      swap1\n      dup2\n      mstore\n      0x20\n      add\n      0x00\n      keccak256\n      0x00\n      swap1\n      sload\n      swap1\n      0x0100\n      exp\n      swap1\n      div\n      0xff\n      and\n        /* \"forsage.sol\":6994:7078  require(users[referrerAddress].activeX6Levels[level], \"Referrer level is inactive.\") */\n      tag_207\n      jumpi\n      mload(0x40)\n      0x08c379a000000000000000000000000000000000000000000000000000000000\n      dup2\n      mstore\n      0x04\n      add\n      tag_208\n      swap1\n      tag_209\n      jump\t// in\n    tag_208:\n      mload(0x40)\n      dup1\n      swap2\n      sub\n      swap1\n      revert\n    tag_207:\n        /* \"forsage.sol\":7091:7110  X6 storage x6Matrix */\n      0x00\n        /* \"forsage.sol\":7113:7123  x6Matrices */\n      0x02\n        /* \"forsage.sol\":7113:7140  x6Matrices[referrerAddress] */\n      0x00\n        /* \"forsage.sol\":7124:7139  referrerAddress */\n      dup5\n        /* \"forsage.sol\":7113:7140  x6Matrices[referrerAddress] */\n      0xffffffffffffffffffffffffffffffffffffffff\n      and\n      0xffffffffffffffffffffffffffffffffffffffff\n      and\n      dup2\n      mstore\n      0x20\n      add\n      swap1\n      dup2\n      mstore\n      0x20\n      add\n      0x00\n      keccak256\n        /* \"forsage.sol\":7113:7147  x6Matrices[referrerAddress][level] */\n      0x00\n        /* \"forsage.sol\":7141:7146  level */\n      dup4\n        /* \"forsage.sol\":7113:7147  x6Matrices[referrerAddress][level] */\n      0xff\n      and\n      0xff\n      and\n      dup2\n      mstore\n      0x20\n      add\n      swap1\n      dup2\n      mstore\n      0x20\n      add\n      0x00\n      keccak256\n        /* \"forsage.sol\":7091:7147  X6 storage x6Matrix = x6Matrices[referrerAddress][level] */\n      swap1\n      pop\n        /* \"forsage.sol\":7202:7203  2 */\n      0x02\n        /* \"forsage.sol\":7164:7172  x6Matrix */\n      dup2\n        /* \"forsage.sol\":7164:7192  x6Matrix.firstLevelReferrals */\n      0x01\n      add\n        /* \"forsage.sol\":7164:7199  x6Matrix.firstLevelReferrals.length */\n      dup1\n      sload\n      swap1\n      pop\n        /* \"forsage.sol\":7164:7203  x6Matrix.firstLevelReferrals.length < 2 */\n      lt\n        /* \"forsage.sol\":7160:8599  if (x6Matrix.firstLevelReferrals.length < 2) {... */\n      iszero\n      tag_210\n      jumpi\n        /* \"forsage.sol\":7220:7228  x6Matrix */\n      dup1\n        /* \"forsage.sol\":7220:7248  x6Matrix.firstLevelReferrals */\n      0x01\n      add\n        /* \"forsage.sol\":7254:7265  userAddress */\n      dup5\n        /* \"forsage.sol\":7220:7266  x6Matrix.firstLevelReferrals.push(userAddress) */\n      swap1\n      dup1\n      0x01\n      dup2\n      sload\n      add\n      dup1\n      dup3\n      sstore\n      dup1\n      swap2\n      pop\n      pop\n      0x01\n      swap1\n      sub\n      swap1\n      0x00\n      mstore\n      keccak256(0x00, 0x20)\n      add\n      0x00\n      swap1\n      swap2\n      swap1\n      swap2\n      swap1\n      swap2\n      0x0100\n      exp\n      dup2\n      sload\n      dup2\n      0xffffffffffffffffffffffffffffffffffffffff\n      mul\n      not\n      and\n      swap1\n      dup4\n      0xffffffffffffffffffffffffffffffffffffffff\n      and\n      mul\n      or\n      swap1\n      sstore\n      pop\n        /* \"forsage.sol\":7312:7327  referrerAddress */\n      dup3\n        /* \"forsage.sol\":7286:7382  NewUserPlace(userAddress, referrerAddress, 2, level, uint8(x6Matrix.firstLevelReferrals.length)) */\n      0xffffffffffffffffffffffffffffffffffffffff\n      and\n        /* \"forsage.sol\":7299:7310  userAddress */\n      dup5\n        /* \"forsage.sol\":7286:7382  NewUserPlace(userAddress, referrerAddress, 2, level, uint8(x6Matrix.firstLevelReferrals.length)) */\n      0xffffffffffffffffffffffffffffffffffffffff\n      and\n      0x68062c5925c4317adf3a7095478d28b33fd8b41458bc7620b61bc46bf1b24d82\n        /* \"forsage.sol\":7329:7330  2 */\n      0x02\n        /* \"forsage.sol\":7332:7337  level */\n      dup6\n        /* \"forsage.sol\":7345:7353  x6Matrix */\n      dup6\n        /* \"forsage.sol\":7345:7373  x6Matrix.firstLevelReferrals */\n      0x01\n      add\n        /* \"forsage.sol\":7345:7380  x6Matrix.firstLevelReferrals.length */\n      dup1\n      sload\n      swap1\n      pop\n        /* \"forsage.sol\":7286:7382  NewUserPlace(userAddress, referrerAddress, 2, level, uint8(x6Matrix.firstLevelReferrals.length)) */\n      mload(0x40)\n      tag_212\n      swap4\n      swap3\n      swap2\n      swap1\n      tag_213\n      jump\t// in\n    tag_212:\n      mload(0x40)\n      dup1\n      swap2\n      sub\n      swap1\n      log3\n        /* \"forsage.sol\":7426:7441  referrerAddress */\n      dup3\n        /* \"forsage.sol\":7399:7407  x6Matrix */\n      dup2\n        /* \"forsage.sol\":7399:7423  x6Matrix.currentReferrer */\n      0x00\n      add\n      0x00\n        /* \"forsage.sol\":7399:7441  x6Matrix.currentReferrer = referrerAddress */\n      0x0100\n      exp\n      dup2\n      sload\n      dup2\n      0xffffffffffffffffffffffffffffffffffffffff\n      mul\n      not\n      and\n      swap1\n      dup4\n      0xffffffffffffffffffffffffffffffffffffffff\n      and\n      mul\n      or\n      swap1\n      sstore\n      pop\n        /* \"forsage.sol\":7481:7486  owner */\n      0x05\n      0x00\n      swap1\n      sload\n      swap1\n      0x0100\n      exp\n      swap1\n      div\n      0xffffffffffffffffffffffffffffffffffffffff\n      and\n        /* \"forsage.sol\":7462:7486  referrerAddress == owner */\n      0xffffffffffffffffffffffffffffffffffffffff\n      and\n        /* \"forsage.sol\":7462:7477  referrerAddress */\n      dup4\n        /* \"forsage.sol\":7462:7486  referrerAddress == owner */\n      0xffffffffffffffffffffffffffffffffffffffff\n      and\n      sub\n        /* \"forsage.sol\":7458:7581  if (referrerAddress == owner) {... */\n      tag_214\n      jumpi\n        /* \"forsage.sol\":7507:7540  sendETHDividends(referrerAddress) */\n      tag_215\n        /* \"forsage.sol\":7524:7539  referrerAddress */\n      dup4\n        /* \"forsage.sol\":7507:7523  sendETHDividends */\n      tag_187\n        /* \"forsage.sol\":7507:7540  sendETHDividends(referrerAddress) */\n      jump\t// in\n    tag_215:\n        /* \"forsage.sol\":7559:7566  return; */\n      pop\n      jump(tag_206)\n        /* \"forsage.sol\":7458:7581  if (referrerAddress == owner) {... */\n    tag_214:\n        /* \"forsage.sol\":7597:7608  address ref */\n      0x00\n        /* \"forsage.sol\":7611:7619  x6Matrix */\n      dup2\n        /* \"forsage.sol\":7611:7635  x6Matrix.currentReferrer */\n      0x00\n      add\n      0x00\n      swap1\n      sload\n      swap1\n      0x0100\n      exp\n      swap1\n      div\n      0xffffffffffffffffffffffffffffffffffffffff\n      and\n        /* \"forsage.sol\":7597:7635  address ref = x6Matrix.currentReferrer */\n      swap1\n      pop\n        /* \"forsage.sol\":7650:7660  x6Matrices */\n      0x02\n        /* \"forsage.sol\":7650:7665  x6Matrices[ref] */\n      0x00\n        /* \"forsage.sol\":7661:7664  ref */\n      dup3\n        /* \"forsage.sol\":7650:7665  x6Matrices[ref] */\n      0xffffffffffffffffffffffffffffffffffffffff\n      and\n      0xffffffffffffffffffffffffffffffffffffffff\n      and\n      dup2\n      mstore\n      0x20\n      add\n      swap1\n      dup2\n      mstore\n      0x20\n      add\n      0x00\n      keccak256\n        /* \"forsage.sol\":7650:7672  x6Matrices[ref][level] */\n      0x00\n        /* \"forsage.sol\":7666:7671  level */\n      dup5\n        /* \"forsage.sol\":7650:7672  x6Matrices[ref][level] */\n      0xff\n      and\n      0xff\n      and\n      dup2\n      mstore\n      0x20\n      add\n      swap1\n      dup2\n      mstore\n      0x20\n      add\n      0x00\n      keccak256\n        /* \"forsage.sol\":7650:7693  x6Matrices[ref][level].secondLevelReferrals */\n      0x02\n      add\n        /* \"forsage.sol\":7699:7710  userAddress */\n      dup6\n        /* \"forsage.sol\":7650:7711  x6Matrices[ref][level].secondLevelReferrals.push(userAddress) */\n      swap1\n      dup1\n      0x01\n      dup2\n      sload\n      add\n      dup1\n      dup3\n      sstore\n      dup1\n      swap2\n      pop\n      pop\n      0x01\n      swap1\n      sub\n      swap1\n      0x00\n      mstore\n      keccak256(0x00, 0x20)\n      add\n      0x00\n      swap1\n      swap2\n      swap1\n      swap2\n      swap1\n      swap2\n      0x0100\n      exp\n      dup2\n      sload\n      dup2\n      0xffffffffffffffffffffffffffffffffffffffff\n      mul\n      not\n      and\n      swap1\n      dup4\n      0xffffffffffffffffffffffffffffffffffffffff\n      and\n      mul\n      or\n      swap1\n      sstore\n      pop\n        /* \"forsage.sol\":7728:7736  uint len */\n      0x00\n        /* \"forsage.sol\":7739:7749  x6Matrices */\n      0x02\n        /* \"forsage.sol\":7739:7754  x6Matrices[ref] */\n      0x00\n        /* \"forsage.sol\":7750:7753  ref */\n      dup4\n        /* \"forsage.sol\":7739:7754  x6Matrices[ref] */\n      0xffffffffffffffffffffffffffffffffffffffff\n      and\n      0xffffffffffffffffffffffffffffffffffffffff\n      and\n      dup2\n      mstore\n      0x20\n      add\n      swap1\n      dup2\n      mstore\n      0x20\n      add\n      0x00\n      keccak256\n        /* \"forsage.sol\":7739:7761  x6Matrices[ref][level] */\n      0x00\n        /* \"forsage.sol\":7755:7760  level */\n      dup6\n        /* \"forsage.sol\":7739:7761  x6Matrices[ref][level] */\n      0xff\n      and\n      0xff\n      and\n      dup2\n      mstore\n      0x20\n      add\n      swap1\n      dup2\n      mstore\n      0x20\n      add\n      0x00\n      keccak256\n        /* \"forsage.sol\":7739:7781  x6Matrices[ref][level].firstLevelReferrals */\n      0x01\n      add\n        /* \"forsage.sol\":7739:7788  x6Matrices[ref][level].firstLevelReferrals.length */\n      dup1\n      sload\n      swap1\n      pop\n        /* \"forsage.sol\":7728:7788  uint len = x6Matrices[ref][level].firstLevelReferrals.length */\n      swap1\n      pop\n        /* \"forsage.sol\":7817:7818  2 */\n      0x02\n        /* \"forsage.sol\":7810:7813  len */\n      dup2\n        /* \"forsage.sol\":7810:7818  len == 2 */\n      eq\n        /* \"forsage.sol\":7809:7906  (len == 2) &&... */\n      dup1\n      iszero\n      tag_217\n      jumpi\n      pop\n        /* \"forsage.sol\":7890:7905  referrerAddress */\n      dup5\n        /* \"forsage.sol\":7841:7905  x6Matrices[ref][level].firstLevelReferrals[0] == referrerAddress */\n      0xffffffffffffffffffffffffffffffffffffffff\n      and\n        /* \"forsage.sol\":7841:7851  x6Matrices */\n      0x02\n        /* \"forsage.sol\":7841:7856  x6Matrices[ref] */\n      0x00\n        /* \"forsage.sol\":7852:7855  ref */\n      dup5\n        /* \"forsage.sol\":7841:7856  x6Matrices[ref] */\n      0xffffffffffffffffffffffffffffffffffffffff\n      and\n      0xffffffffffffffffffffffffffffffffffffffff\n      and\n      dup2\n      mstore\n      0x20\n      add\n      swap1\n      dup2\n      mstore\n      0x20\n      add\n      0x00\n      keccak256\n        /* \"forsage.sol\":7841:7863  x6Matrices[ref][level] */\n      0x00\n        /* \"forsage.sol\":7857:7862  level */\n      dup7\n        /* \"forsage.sol\":7841:7863  x6Matrices[ref][level] */\n      0xff\n      and\n      0xff\n      and\n      dup2\n      mstore\n      0x20\n      add\n      swap1\n      dup2\n      mstore\n      0x20\n      add\n      0x00\n      keccak256\n        /* \"forsage.sol\":7841:7883  x6Matrices[ref][level].firstLevelReferrals */\n      0x01\n      add\n        /* \"forsage.sol\":7884:7885  0 */\n      0x00\n        /* \"forsage.sol\":7841:7886  x6Matrices[ref][level].firstLevelReferrals[0] */\n      dup2\n      sload\n      dup2\n      lt\n      tag_218\n      jumpi\n      tag_219\n      tag_220\n      jump\t// in\n    tag_219:\n    tag_218:\n      swap1\n      0x00\n      mstore\n      keccak256(0x00, 0x20)\n      add\n      0x00\n      swap1\n      sload\n      swap1\n      0x0100\n      exp\n      swap1\n      div\n      0xffffffffffffffffffffffffffffffffffffffff\n      and\n        /* \"forsage.sol\":7841:7905  x6Matrices[ref][level].firstLevelReferrals[0] == referrerAddress */\n      0xffffffffffffffffffffffffffffffffffffffff\n      and\n      eq\n        /* \"forsage.sol\":7809:7906  (len == 2) &&... */\n    tag_217:\n        /* \"forsage.sol\":7809:7993  (len == 2) &&... */\n      dup1\n      iszero\n      tag_222\n      jumpi\n      pop\n        /* \"forsage.sol\":7977:7992  referrerAddress */\n      dup5\n        /* \"forsage.sol\":7928:7992  x6Matrices[ref][level].firstLevelReferrals[1] == referrerAddress */\n      0xffffffffffffffffffffffffffffffffffffffff\n      and\n        /* \"forsage.sol\":7928:7938  x6Matrices */\n      0x02\n        /* \"forsage.sol\":7928:7943  x6Matrices[ref] */\n      0x00\n        /* \"forsage.sol\":7939:7942  ref */\n      dup5\n        /* \"forsage.sol\":7928:7943  x6Matrices[ref] */\n      0xffffffffffffffffffffffffffffffffffffffff\n      and\n      0xffffffffffffffffffffffffffffffffffffffff\n      and\n      dup2\n      mstore\n      0x20\n      add\n      swap1\n      dup2\n      mstore\n      0x20\n      add\n      0x00\n      keccak256\n        /* \"forsage.sol\":7928:7950  x6Matrices[ref][level] */\n      0x00\n        /* \"forsage.sol\":7944:7949  level */\n      dup7\n        /* \"forsage.sol\":7928:7950  x6Matrices[ref][level] */\n      0xff\n      and\n      0xff\n      and\n      dup2\n      mstore\n      0x20\n      add\n      swap1\n      dup2\n      mstore\n      0x20\n      add\n      0x00\n      keccak256\n        /* \"forsage.sol\":7928:7970  x6Matrices[ref][level].firstLevelReferrals */\n      0x01\n      add\n        /* \"forsage.sol\":7971:7972  1 */\n      0x01\n        /* \"forsage.sol\":7928:7973  x6Matrices[ref][level].firstLevelReferrals[1] */\n      dup2\n      sload\n      dup2\n      lt\n      tag_223\n      jumpi\n      tag_224\n      tag_220\n      jump\t// in\n    tag_224:\n    tag_223:\n      swap1\n      0x00\n      mstore\n      keccak256(0x00, 0x20)\n      add\n      0x00\n      swap1\n      sload\n      swap1\n      0x0100\n      exp\n      swap1\n      div\n      0xffffffffffffffffffffffffffffffffffffffff\n      and\n        /* \"forsage.sol\":7928:7992  x6Matrices[ref][level].firstLevelReferrals[1] == referrerAddress */\n      0xffffffffffffffffffffffffffffffffffffffff\n      and\n      eq\n        /* \"forsage.sol\":7809:7993  (len == 2) &&... */\n    tag_222:\n        /* \"forsage.sol\":7805:8410  if ((len == 2) &&... */\n      iszero\n      tag_226\n      jumpi\n        /* \"forsage.sol\":8072:8073  4 */\n      0x04\n        /* \"forsage.sol\":8018:8028  x6Matrices */\n      0x02\n        /* \"forsage.sol\":8018:8033  x6Matrices[ref] */\n      0x00\n        /* \"forsage.sol\":8029:8032  ref */\n      dup5\n        /* \"forsage.sol\":8018:8033  x6Matrices[ref] */\n      0xffffffffffffffffffffffffffffffffffffffff\n      and\n      0xffffffffffffffffffffffffffffffffffffffff\n      and\n      dup2\n      mstore\n      0x20\n      add\n      swap1\n      dup2\n      mstore\n      0x20\n      add\n      0x00\n      keccak256\n        /* \"forsage.sol\":8018:8040  x6Matrices[ref][level] */\n      0x00\n        /* \"forsage.sol\":8034:8039  level */\n      dup7\n        /* \"forsage.sol\":8018:8040  x6Matrices[ref][level] */\n      0xff\n      and\n      0xff\n      and\n      dup2\n      mstore\n      0x20\n      add\n      swap1\n      dup2\n      mstore\n      0x20\n      add\n      0x00\n      keccak256\n        /* \"forsage.sol\":8018:8061  x6Matrices[ref][level].secondLevelReferrals */\n      0x02\n      add\n        /* \"forsage.sol\":8018:8068  x6Matrices[ref][level].secondLevelReferrals.length */\n      dup1\n      sload\n      swap1\n      pop\n        /* \"forsage.sol\":8018:8073  x6Matrices[ref][level].secondLevelReferrals.length == 4 */\n      sub\n        /* \"forsage.sol\":8014:8199  if (x6Matrices[ref][level].secondLevelReferrals.length == 4) {... */\n      tag_227\n      jumpi\n        /* \"forsage.sol\":8131:8135  true */\n      0x01\n        /* \"forsage.sol\":8098:8108  x6Matrices */\n      0x02\n        /* \"forsage.sol\":8098:8113  x6Matrices[ref] */\n      0x00\n        /* \"forsage.sol\":8109:8112  ref */\n      dup5\n        /* \"forsage.sol\":8098:8113  x6Matrices[ref] */\n      0xffffffffffffffffffffffffffffffffffffffff\n      and\n      0xffffffffffffffffffffffffffffffffffffffff\n      and\n      dup2\n      mstore\n      0x20\n      add\n      swap1\n      dup2\n      mstore\n      0x20\n      add\n      0x00\n      keccak256\n        /* \"forsage.sol\":8098:8120  x6Matrices[ref][level] */\n      0x00\n        /* \"forsage.sol\":8114:8119  level */\n      dup7\n        /* \"forsage.sol\":8098:8120  x6Matrices[ref][level] */\n      0xff\n      and\n      0xff\n      and\n      dup2\n      mstore\n      0x20\n      add\n      swap1\n      dup2\n      mstore\n      0x20\n      add\n      0x00\n      keccak256\n        /* \"forsage.sol\":8098:8128  x6Matrices[ref][level].blocked */\n      0x03\n      add\n      0x00\n        /* \"forsage.sol\":8098:8135  x6Matrices[ref][level].blocked = true */\n      0x0100\n      exp\n      dup2\n      sload\n      dup2\n      0xff\n      mul\n      not\n      and\n      swap1\n      dup4\n      iszero\n      iszero\n      mul\n      or\n      swap1\n      sstore\n      pop\n        /* \"forsage.sol\":8158:8179  sendETHDividends(ref) */\n      tag_228\n        /* \"forsage.sol\":8175:8178  ref */\n      dup3\n        /* \"forsage.sol\":8158:8174  sendETHDividends */\n      tag_187\n        /* \"forsage.sol\":8158:8179  sendETHDividends(ref) */\n      jump\t// in\n    tag_228:\n        /* \"forsage.sol\":8014:8199  if (x6Matrices[ref][level].secondLevelReferrals.length == 4) {... */\n    tag_227:\n        /* \"forsage.sol\":8217:8285  updateX6Referrer(userAddress, findFreeX6Referrer(ref, level), level) */\n      tag_229\n        /* \"forsage.sol\":8234:8245  userAddress */\n      dup7\n        /* \"forsage.sol\":8247:8277  findFreeX6Referrer(ref, level) */\n      tag_230\n        /* \"forsage.sol\":8266:8269  ref */\n      dup5\n        /* \"forsage.sol\":8271:8276  level */\n      dup8\n        /* \"forsage.sol\":8247:8265  findFreeX6Referrer */\n      tag_91\n        /* \"forsage.sol\":8247:8277  findFreeX6Referrer(ref, level) */\n      jump\t// in\n    tag_230:\n        /* \"forsage.sol\":8279:8284  level */\n      dup7\n        /* \"forsage.sol\":8217:8233  updateX6Referrer */\n      tag_127\n        /* \"forsage.sol\":8217:8285  updateX6Referrer(userAddress, findFreeX6Referrer(ref, level), level) */\n      jump\t// in\n    tag_229:\n        /* \"forsage.sol\":7805:8410  if ((len == 2) &&... */\n      jump(tag_231)\n    tag_226:\n        /* \"forsage.sol\":8326:8394  updateX6Referrer(userAddress, findFreeX6Referrer(ref, level), level) */\n      tag_232\n        /* \"forsage.sol\":8343:8354  userAddress */\n      dup7\n        /* \"forsage.sol\":8356:8386  findFreeX6Referrer(ref, level) */\n      tag_233\n        /* \"forsage.sol\":8375:8378  ref */\n      dup5\n        /* \"forsage.sol\":8380:8385  level */\n      dup8\n        /* \"forsage.sol\":8356:8374  findFreeX6Referrer */\n      tag_91\n        /* \"forsage.sol\":8356:8386  findFreeX6Referrer(ref, level) */\n      jump\t// in\n    tag_233:\n        /* \"forsage.sol\":8388:8393  level */\n      dup7\n        /* \"forsage.sol\":8326:8342  updateX6Referrer */\n      tag_127\n        /* \"forsage.sol\":8326:8394  updateX6Referrer(userAddress, findFreeX6Referrer(ref, level), level) */\n      jump\t// in\n    tag_232:\n        /* \"forsage.sol\":7805:8410  if ((len == 2) &&... */\n    tag_231:\n        /* \"forsage.sol\":7205:8421  {... */\n      pop\n      pop\n        /* \"forsage.sol\":7160:8599  if (x6Matrix.firstLevelReferrals.length < 2) {... */\n      jump(tag_234)\n    tag_210:\n        /* \"forsage.sol\":8442:8464  address freeX6Referrer */\n      0x00\n        /* \"forsage.sol\":8467:8509  findFreeX6Referrer(referrerAddress, level) */\n      tag_235\n        /* \"forsage.sol\":8486:8501  referrerAddress */\n      dup5\n        /* \"forsage.sol\":8503:8508  level */\n      dup5\n        /* \"forsage.sol\":8467:8485  findFreeX6Referrer */\n      tag_91\n        /* \"forsage.sol\":8467:8509  findFreeX6Referrer(referrerAddress, level) */\n      jump\t// in\n    tag_235:\n        /* \"forsage.sol\":8442:8509  address freeX6Referrer = findFreeX6Referrer(referrerAddress, level) */\n      swap1\n      pop\n        /* \"forsage.sol\":8524:8587  updateX6ReferrerSecondLevel(userAddress, freeX6Referrer, level) */\n      tag_236\n        /* \"forsage.sol\":8552:8563  userAddress */\n      dup6\n        /* \"forsage.sol\":8565:8579  freeX6Referrer */\n      dup3\n        /* \"forsage.sol\":8581:8586  level */\n      dup6\n        /* \"forsage.sol\":8524:8551  updateX6ReferrerSecondLevel */\n      tag_237\n        /* \"forsage.sol\":8524:8587  updateX6ReferrerSecondLevel(userAddress, freeX6Referrer, level) */\n      jump\t// in\n    tag_236:\n        /* \"forsage.sol\":8427:8599  {... */\n      pop\n        /* \"forsage.sol\":7160:8599  if (x6Matrix.firstLevelReferrals.length < 2) {... */\n    tag_234:\n        /* \"forsage.sol\":6983:8606  {... */\n      pop\n        /* \"forsage.sol\":6890:8606  function updateX6Referrer(address userAddress, address referrerAddress, uint8 level) private {... */\n    tag_206:\n      pop\n      pop\n      pop\n      jump\t// out\n        /* \"forsage.sol\":10556:10867  function sendETHDividends(address userAddress) private {... */\n    tag_187:\n        /* \"forsage.sol\":10622:10656  address payable payableUserAddress */\n      0x00\n        /* \"forsage.sol\":10667:10678  userAddress */\n      dup2\n        /* \"forsage.sol\":10622:10679  address payable payableUserAddress = payable(userAddress) */\n      swap1\n      pop\n        /* \"forsage.sol\":10690:10704  uint256 amount */\n      0x00\n        /* \"forsage.sol\":10707:10714  1 ether */\n      0x0de0b6b3a7640000\n        /* \"forsage.sol\":10690:10714  uint256 amount = 1 ether */\n      swap1\n      pop\n        /* \"forsage.sol\":10750:10768  payableUserAddress */\n      dup2\n        /* \"forsage.sol\":10750:10773  payableUserAddress.send */\n      0xffffffffffffffffffffffffffffffffffffffff\n      and\n        /* \"forsage.sol\":10750:10781  payableUserAddress.send(amount) */\n      0x08fc\n        /* \"forsage.sol\":10774:10780  amount */\n      dup3\n        /* \"forsage.sol\":10750:10781  payableUserAddress.send(amount) */\n      swap1\n      dup2\n      iszero\n      mul\n      swap1\n      mload(0x40)\n      0x00\n      mload(0x40)\n      dup1\n      dup4\n      sub\n      dup2\n      dup6\n      dup9\n      dup9\n      call\n      swap4\n      pop\n      pop\n      pop\n      pop\n        /* \"forsage.sol\":10745:10860  if (!payableUserAddress.send(amount)) {... */\n      tag_240\n      jumpi\n        /* \"forsage.sol\":10798:10816  payableUserAddress */\n      dup2\n        /* \"forsage.sol\":10798:10825  payableUserAddress.transfer */\n      0xffffffffffffffffffffffffffffffffffffffff\n      and\n        /* \"forsage.sol\":10798:10848  payableUserAddress.transfer(address(this).balance) */\n      0x08fc\n        /* \"forsage.sol\":10826:10847  address(this).balance */\n      selfbalance\n        /* \"forsage.sol\":10798:10848  payableUserAddress.transfer(address(this).balance) */\n      swap1\n      dup2\n      iszero\n      mul\n      swap1\n      mload(0x40)\n      0x00\n      mload(0x40)\n      dup1\n      dup4\n      sub\n      dup2\n      dup6\n      dup9\n      dup9\n      call\n      swap4\n      pop\n      pop\n      pop\n      pop\n      iszero\n      dup1\n      iszero\n      tag_242\n      jumpi\n      returndatasize\n      0x00\n      dup1\n      returndatacopy\n      revert(0x00, returndatasize)\n    tag_242:\n      pop\n        /* \"forsage.sol\":10745:10860  if (!payableUserAddress.send(amount)) {... */\n    tag_240:\n        /* \"forsage.sol\":10611:10867  {... */\n      pop\n      pop\n        /* \"forsage.sol\":10556:10867  function sendETHDividends(address userAddress) private {... */\n      pop\n      jump\t// out\n        /* \"forsage.sol\":8614:9666  function updateX6ReferrerSecondLevel(address userAddress, address referrerAddress, uint8 level) private {... */\n    tag_237:\n        /* \"forsage.sol\":8729:8748  X6 storage x6Matrix */\n      0x00\n        /* \"forsage.sol\":8751:8761  x6Matrices */\n      0x02\n        /* \"forsage.sol\":8751:8778  x6Matrices[referrerAddress] */\n      0x00\n        /* \"forsage.sol\":8762:8777  referrerAddress */\n      dup5\n        /* \"forsage.sol\":8751:8778  x6Matrices[referrerAddress] */\n      0xffffffffffffffffffffffffffffffffffffffff\n      and\n      0xffffffffffffffffffffffffffffffffffffffff\n      and\n      dup2\n      mstore\n      0x20\n      add\n      swap1\n      dup2\n      mstore\n      0x20\n      add\n      0x00\n      keccak256\n        /* \"forsage.sol\":8751:8785  x6Matrices[referrerAddress][level] */\n      0x00\n        /* \"forsage.sol\":8779:8784  level */\n      dup4\n        /* \"forsage.sol\":8751:8785  x6Matrices[referrerAddress][level] */\n      0xff\n      and\n      0xff\n      and\n      dup2\n      mstore\n      0x20\n      add\n      swap1\n      dup2\n      mstore\n      0x20\n      add\n      0x00\n      keccak256\n        /* \"forsage.sol\":8729:8785  X6 storage x6Matrix = x6Matrices[referrerAddress][level] */\n      swap1\n      pop\n        /* \"forsage.sol\":8842:8843  4 */\n      0x04\n        /* \"forsage.sol\":8802:8810  x6Matrix */\n      dup2\n        /* \"forsage.sol\":8802:8831  x6Matrix.secondLevelReferrals */\n      0x02\n      add\n        /* \"forsage.sol\":8802:8838  x6Matrix.secondLevelReferrals.length */\n      dup1\n      sload\n      swap1\n      pop\n        /* \"forsage.sol\":8802:8843  x6Matrix.secondLevelReferrals.length == 4 */\n      sub\n        /* \"forsage.sol\":8798:9036  if (x6Matrix.secondLevelReferrals.length == 4) {... */\n      tag_244\n      jumpi\n        /* \"forsage.sol\":8879:8883  true */\n      0x01\n        /* \"forsage.sol\":8860:8868  x6Matrix */\n      dup2\n        /* \"forsage.sol\":8860:8876  x6Matrix.blocked */\n      0x03\n      add\n      0x00\n        /* \"forsage.sol\":8860:8883  x6Matrix.blocked = true */\n      0x0100\n      exp\n      dup2\n      sload\n      dup2\n      0xff\n      mul\n      not\n      and\n      swap1\n      dup4\n      iszero\n      iszero\n      mul\n      or\n      swap1\n      sstore\n      pop\n        /* \"forsage.sol\":8905:8913  x6Matrix */\n      dup1\n        /* \"forsage.sol\":8905:8934  x6Matrix.secondLevelReferrals */\n      0x02\n      add\n      0x00\n        /* \"forsage.sol\":8898:8934  delete x6Matrix.secondLevelReferrals */\n      tag_245\n      swap2\n      swap1\n      tag_191\n      jump\t// in\n    tag_245:\n        /* \"forsage.sol\":8976:8984  x6Matrix */\n      dup1\n        /* \"forsage.sol\":8976:9004  x6Matrix.firstLevelReferrals */\n      0x01\n      add\n      0x00\n        /* \"forsage.sol\":8969:9004  delete x6Matrix.firstLevelReferrals */\n      tag_246\n      swap2\n      swap1\n      tag_191\n      jump\t// in\n    tag_246:\n        /* \"forsage.sol\":8798:9036  if (x6Matrix.secondLevelReferrals.length == 4) {... */\n    tag_244:\n        /* \"forsage.sol\":9048:9056  x6Matrix */\n      dup1\n        /* \"forsage.sol\":9048:9077  x6Matrix.secondLevelReferrals */\n      0x02\n      add\n        /* \"forsage.sol\":9083:9094  userAddress */\n      dup5\n        /* \"forsage.sol\":9048:9095  x6Matrix.secondLevelReferrals.push(userAddress) */\n      swap1\n      dup1\n      0x01\n      dup2\n      sload\n      add\n      dup1\n      dup3\n      sstore\n      dup1\n      swap2\n      pop\n      pop\n      0x01\n      swap1\n      sub\n      swap1\n      0x00\n      mstore\n      keccak256(0x00, 0x20)\n      add\n      0x00\n      swap1\n      swap2\n      swap1\n      swap2\n      swap1\n      swap2\n      0x0100\n      exp\n      dup2\n      sload\n      dup2\n      0xffffffffffffffffffffffffffffffffffffffff\n      mul\n      not\n      and\n      swap1\n      dup4\n      0xffffffffffffffffffffffffffffffffffffffff\n      and\n      mul\n      or\n      swap1\n      sstore\n      pop\n        /* \"forsage.sol\":9137:9152  referrerAddress */\n      dup3\n        /* \"forsage.sol\":9111:9208  NewUserPlace(userAddress, referrerAddress, 2, level, uint8(x6Matrix.secondLevelReferrals.length)) */\n      0xffffffffffffffffffffffffffffffffffffffff\n      and\n        /* \"forsage.sol\":9124:9135  userAddress */\n      dup5\n        /* \"forsage.sol\":9111:9208  NewUserPlace(userAddress, referrerAddress, 2, level, uint8(x6Matrix.secondLevelReferrals.length)) */\n      0xffffffffffffffffffffffffffffffffffffffff\n      and\n      0x68062c5925c4317adf3a7095478d28b33fd8b41458bc7620b61bc46bf1b24d82\n        /* \"forsage.sol\":9154:9155  2 */\n      0x02\n        /* \"forsage.sol\":9157:9162  level */\n      dup6\n        /* \"forsage.sol\":9170:9178  x6Matrix */\n      dup6\n        /* \"forsage.sol\":9170:9199  x6Matrix.secondLevelReferrals */\n      0x02\n      add\n        /* \"forsage.sol\":9170:9206  x6Matrix.secondLevelReferrals.length */\n      dup1\n      sload\n      swap1\n      pop\n        /* \"forsage.sol\":9111:9208  NewUserPlace(userAddress, referrerAddress, 2, level, uint8(x6Matrix.secondLevelReferrals.length)) */\n      mload(0x40)\n      tag_248\n      swap4\n      swap3\n      swap2\n      swap1\n      tag_213\n      jump\t// in\n    tag_248:\n      mload(0x40)\n      dup1\n      swap2\n      sub\n      swap1\n      log3\n        /* \"forsage.sol\":9265:9266  4 */\n      0x04\n        /* \"forsage.sol\":9225:9233  x6Matrix */\n      dup2\n        /* \"forsage.sol\":9225:9254  x6Matrix.secondLevelReferrals */\n      0x02\n      add\n        /* \"forsage.sol\":9225:9261  x6Matrix.secondLevelReferrals.length */\n      dup1\n      sload\n      swap1\n      pop\n        /* \"forsage.sol\":9225:9266  x6Matrix.secondLevelReferrals.length == 4 */\n      sub\n        /* \"forsage.sol\":9221:9659  if (x6Matrix.secondLevelReferrals.length == 4) {... */\n      tag_249\n      jumpi\n        /* \"forsage.sol\":9302:9306  true */\n      0x01\n        /* \"forsage.sol\":9283:9291  x6Matrix */\n      dup2\n        /* \"forsage.sol\":9283:9299  x6Matrix.blocked */\n      0x03\n      add\n      0x00\n        /* \"forsage.sol\":9283:9306  x6Matrix.blocked = true */\n      0x0100\n      exp\n      dup2\n      sload\n      dup2\n      0xff\n      mul\n      not\n      and\n      swap1\n      dup4\n      iszero\n      iszero\n      mul\n      or\n      swap1\n      sstore\n      pop\n        /* \"forsage.sol\":9321:9354  sendETHDividends(referrerAddress) */\n      tag_250\n        /* \"forsage.sol\":9338:9353  referrerAddress */\n      dup4\n        /* \"forsage.sol\":9321:9337  sendETHDividends */\n      tag_187\n        /* \"forsage.sol\":9321:9354  sendETHDividends(referrerAddress) */\n      jump\t// in\n    tag_250:\n        /* \"forsage.sol\":9394:9399  owner */\n      0x05\n      0x00\n      swap1\n      sload\n      swap1\n      0x0100\n      exp\n      swap1\n      div\n      0xffffffffffffffffffffffffffffffffffffffff\n      and\n        /* \"forsage.sol\":9375:9399  referrerAddress != owner */\n      0xffffffffffffffffffffffffffffffffffffffff\n      and\n        /* \"forsage.sol\":9375:9390  referrerAddress */\n      dup4\n        /* \"forsage.sol\":9375:9399  referrerAddress != owner */\n      0xffffffffffffffffffffffffffffffffffffffff\n      and\n      eq\n        /* \"forsage.sol\":9371:9648  if (referrerAddress != owner) {... */\n      tag_251\n      jumpi\n        /* \"forsage.sol\":9420:9447  address freeReferrerAddress */\n      0x00\n        /* \"forsage.sol\":9450:9492  findFreeX6Referrer(referrerAddress, level) */\n      tag_252\n        /* \"forsage.sol\":9469:9484  referrerAddress */\n      dup5\n        /* \"forsage.sol\":9486:9491  level */\n      dup5\n        /* \"forsage.sol\":9450:9468  findFreeX6Referrer */\n      tag_91\n        /* \"forsage.sol\":9450:9492  findFreeX6Referrer(referrerAddress, level) */\n      jump\t// in\n    tag_252:\n        /* \"forsage.sol\":9420:9492  address freeReferrerAddress = findFreeX6Referrer(referrerAddress, level) */\n      swap1\n      pop\n        /* \"forsage.sol\":9511:9568  updateX6Referrer(userAddress, freeReferrerAddress, level) */\n      tag_253\n        /* \"forsage.sol\":9528:9539  userAddress */\n      dup6\n        /* \"forsage.sol\":9541:9560  freeReferrerAddress */\n      dup3\n        /* \"forsage.sol\":9562:9567  level */\n      dup6\n        /* \"forsage.sol\":9511:9527  updateX6Referrer */\n      tag_127\n        /* \"forsage.sol\":9511:9568  updateX6Referrer(userAddress, freeReferrerAddress, level) */\n      jump\t// in\n    tag_253:\n        /* \"forsage.sol\":9401:9584  {... */\n      pop\n        /* \"forsage.sol\":9371:9648  if (referrerAddress != owner) {... */\n      jump(tag_254)\n    tag_251:\n        /* \"forsage.sol\":9609:9632  sendETHDividends(owner) */\n      tag_255\n        /* \"forsage.sol\":9626:9631  owner */\n      0x05\n      0x00\n      swap1\n      sload\n      swap1\n      0x0100\n      exp\n      swap1\n      div\n      0xffffffffffffffffffffffffffffffffffffffff\n      and\n        /* \"forsage.sol\":9609:9625  sendETHDividends */\n      tag_187\n        /* \"forsage.sol\":9609:9632  sendETHDividends(owner) */\n      jump\t// in\n    tag_255:\n        /* \"forsage.sol\":9371:9648  if (referrerAddress != owner) {... */\n    tag_254:\n        /* \"forsage.sol\":9221:9659  if (x6Matrix.secondLevelReferrals.length == 4) {... */\n    tag_249:\n        /* \"forsage.sol\":8718:9666  {... */\n      pop\n        /* \"forsage.sol\":8614:9666  function updateX6ReferrerSecondLevel(address userAddress, address referrerAddress, uint8 level) private {... */\n      pop\n      pop\n      pop\n      jump\t// out\n    tag_191:\n      pop\n      dup1\n      sload\n      0x00\n      dup3\n      sstore\n      swap1\n      0x00\n      mstore\n      keccak256(0x00, 0x20)\n      swap1\n      dup2\n      add\n      swap1\n      tag_257\n      swap2\n      swap1\n      tag_258\n      jump\t// in\n    tag_257:\n      pop\n      jump\t// out\n    tag_258:\n    tag_259:\n      dup1\n      dup3\n      gt\n      iszero\n      tag_260\n      jumpi\n      0x00\n      dup2\n      0x00\n      swap1\n      sstore\n      pop\n      0x01\n      add\n      jump(tag_259)\n    tag_260:\n      pop\n      swap1\n      jump\t// out\n        /* \"#utility.yul\":7:93   */\n    tag_261:\n        /* \"#utility.yul\":42:49   */\n      0x00\n        /* \"#utility.yul\":82:86   */\n      0xff\n        /* \"#utility.yul\":75:80   */\n      dup3\n        /* \"#utility.yul\":71:87   */\n      and\n        /* \"#utility.yul\":60:87   */\n      swap1\n      pop\n        /* \"#utility.yul\":7:93   */\n      swap2\n      swap1\n      pop\n      jump\t// out\n        /* \"#utility.yul\":99:211   */\n    tag_262:\n        /* \"#utility.yul\":182:204   */\n      tag_324\n        /* \"#utility.yul\":198:203   */\n      dup2\n        /* \"#utility.yul\":182:204   */\n      tag_261\n      jump\t// in\n    tag_324:\n        /* \"#utility.yul\":177:180   */\n      dup3\n        /* \"#utility.yul\":170:205   */\n      mstore\n        /* \"#utility.yul\":99:211   */\n      pop\n      pop\n      jump\t// out\n        /* \"#utility.yul\":217:431   */\n    tag_33:\n        /* \"#utility.yul\":306:310   */\n      0x00\n        /* \"#utility.yul\":344:346   */\n      0x20\n        /* \"#utility.yul\":333:342   */\n      dup3\n        /* \"#utility.yul\":329:347   */\n      add\n        /* \"#utility.yul\":321:347   */\n      swap1\n      pop\n        /* \"#utility.yul\":357:424   */\n      tag_326\n        /* \"#utility.yul\":421:422   */\n      0x00\n        /* \"#utility.yul\":410:419   */\n      dup4\n        /* \"#utility.yul\":406:423   */\n      add\n        /* \"#utility.yul\":397:403   */\n      dup5\n        /* \"#utility.yul\":357:424   */\n      tag_262\n      jump\t// in\n    tag_326:\n        /* \"#utility.yul\":217:431   */\n      swap3\n      swap2\n      pop\n      pop\n      jump\t// out\n        /* \"#utility.yul\":437:512   */\n    tag_263:\n        /* \"#utility.yul\":470:476   */\n      0x00\n        /* \"#utility.yul\":503:505   */\n      0x40\n        /* \"#utility.yul\":497:506   */\n      mload\n        /* \"#utility.yul\":487:506   */\n      swap1\n      pop\n        /* \"#utility.yul\":437:512   */\n      swap1\n      jump\t// out\n        /* \"#utility.yul\":518:635   */\n    tag_264:\n        /* \"#utility.yul\":627:628   */\n      0x00\n        /* \"#utility.yul\":624:625   */\n      dup1\n        /* \"#utility.yul\":617:629   */\n      revert\n        /* \"#utility.yul\":641:758   */\n    tag_265:\n        /* \"#utility.yul\":750:751   */\n      0x00\n        /* \"#utility.yul\":747:748   */\n      dup1\n        /* \"#utility.yul\":740:752   */\n      revert\n        /* \"#utility.yul\":764:841   */\n    tag_266:\n        /* \"#utility.yul\":801:808   */\n      0x00\n        /* \"#utility.yul\":830:835   */\n      dup2\n        /* \"#utility.yul\":819:835   */\n      swap1\n      pop\n        /* \"#utility.yul\":764:841   */\n      swap2\n      swap1\n      pop\n      jump\t// out\n        /* \"#utility.yul\":847:969   */\n    tag_267:\n        /* \"#utility.yul\":920:944   */\n      tag_332\n        /* \"#utility.yul\":938:943   */\n      dup2\n        /* \"#utility.yul\":920:944   */\n      tag_266\n      jump\t// in\n    tag_332:\n        /* \"#utility.yul\":913:918   */\n      dup2\n        /* \"#utility.yul\":910:945   */\n      eq\n        /* \"#utility.yul\":900:963   */\n      tag_333\n      jumpi\n        /* \"#utility.yul\":959:960   */\n      0x00\n        /* \"#utility.yul\":956:957   */\n      dup1\n        /* \"#utility.yul\":949:961   */\n      revert\n        /* \"#utility.yul\":900:963   */\n    tag_333:\n        /* \"#utility.yul\":847:969   */\n      pop\n      jump\t// out\n        /* \"#utility.yul\":975:1114   */\n    tag_268:\n        /* \"#utility.yul\":1021:1026   */\n      0x00\n        /* \"#utility.yul\":1059:1065   */\n      dup2\n        /* \"#utility.yul\":1046:1066   */\n      calldataload\n        /* \"#utility.yul\":1037:1066   */\n      swap1\n      pop\n        /* \"#utility.yul\":1075:1108   */\n      tag_335\n        /* \"#utility.yul\":1102:1107   */\n      dup2\n        /* \"#utility.yul\":1075:1108   */\n      tag_267\n      jump\t// in\n    tag_335:\n        /* \"#utility.yul\":975:1114   */\n      swap3\n      swap2\n      pop\n      pop\n      jump\t// out\n        /* \"#utility.yul\":1120:1449   */\n    tag_37:\n        /* \"#utility.yul\":1179:1185   */\n      0x00\n        /* \"#utility.yul\":1228:1230   */\n      0x20\n        /* \"#utility.yul\":1216:1225   */\n      dup3\n        /* \"#utility.yul\":1207:1214   */\n      dup5\n        /* \"#utility.yul\":1203:1226   */\n      sub\n        /* \"#utility.yul\":1199:1231   */\n      slt\n        /* \"#utility.yul\":1196:1315   */\n      iszero\n      tag_337\n      jumpi\n        /* \"#utility.yul\":1234:1313   */\n      tag_338\n      tag_264\n      jump\t// in\n    tag_338:\n        /* \"#utility.yul\":1196:1315   */\n    tag_337:\n        /* \"#utility.yul\":1354:1355   */\n      0x00\n        /* \"#utility.yul\":1379:1432   */\n      tag_339\n        /* \"#utility.yul\":1424:1431   */\n      dup5\n        /* \"#utility.yul\":1415:1421   */\n      dup3\n        /* \"#utility.yul\":1404:1413   */\n      dup6\n        /* \"#utility.yul\":1400:1422   */\n      add\n        /* \"#utility.yul\":1379:1432   */\n      tag_268\n      jump\t// in\n    tag_339:\n        /* \"#utility.yul\":1369:1432   */\n      swap2\n      pop\n        /* \"#utility.yul\":1325:1442   */\n      pop\n        /* \"#utility.yul\":1120:1449   */\n      swap3\n      swap2\n      pop\n      pop\n      jump\t// out\n        /* \"#utility.yul\":1455:1581   */\n    tag_269:\n        /* \"#utility.yul\":1492:1499   */\n      0x00\n        /* \"#utility.yul\":1532:1574   */\n      0xffffffffffffffffffffffffffffffffffffffff\n        /* \"#utility.yul\":1525:1530   */\n      dup3\n        /* \"#utility.yul\":1521:1575   */\n      and\n        /* \"#utility.yul\":1510:1575   */\n      swap1\n      pop\n        /* \"#utility.yul\":1455:1581   */\n      swap2\n      swap1\n      pop\n      jump\t// out\n        /* \"#utility.yul\":1587:1683   */\n    tag_270:\n        /* \"#utility.yul\":1624:1631   */\n      0x00\n        /* \"#utility.yul\":1653:1677   */\n      tag_342\n        /* \"#utility.yul\":1671:1676   */\n      dup3\n        /* \"#utility.yul\":1653:1677   */\n      tag_269\n      jump\t// in\n    tag_342:\n        /* \"#utility.yul\":1642:1677   */\n      swap1\n      pop\n        /* \"#utility.yul\":1587:1683   */\n      swap2\n      swap1\n      pop\n      jump\t// out\n        /* \"#utility.yul\":1689:1807   */\n    tag_271:\n        /* \"#utility.yul\":1776:1800   */\n      tag_344\n        /* \"#utility.yul\":1794:1799   */\n      dup2\n        /* \"#utility.yul\":1776:1800   */\n      tag_270\n      jump\t// in\n    tag_344:\n        /* \"#utility.yul\":1771:1774   */\n      dup3\n        /* \"#utility.yul\":1764:1801   */\n      mstore\n        /* \"#utility.yul\":1689:1807   */\n      pop\n      pop\n      jump\t// out\n        /* \"#utility.yul\":1813:2035   */\n    tag_40:\n        /* \"#utility.yul\":1906:1910   */\n      0x00\n        /* \"#utility.yul\":1944:1946   */\n      0x20\n        /* \"#utility.yul\":1933:1942   */\n      dup3\n        /* \"#utility.yul\":1929:1947   */\n      add\n        /* \"#utility.yul\":1921:1947   */\n      swap1\n      pop\n        /* \"#utility.yul\":1957:2028   */\n      tag_346\n        /* \"#utility.yul\":2025:2026   */\n      0x00\n        /* \"#utility.yul\":2014:2023   */\n      dup4\n        /* \"#utility.yul\":2010:2027   */\n      add\n        /* \"#utility.yul\":2001:2007   */\n      dup5\n        /* \"#utility.yul\":1957:2028   */\n      tag_271\n      jump\t// in\n    tag_346:\n        /* \"#utility.yul\":1813:2035   */\n      swap3\n      swap2\n      pop\n      pop\n      jump\t// out\n        /* \"#utility.yul\":2041:2159   */\n    tag_272:\n        /* \"#utility.yul\":2128:2152   */\n      tag_348\n        /* \"#utility.yul\":2146:2151   */\n      dup2\n        /* \"#utility.yul\":2128:2152   */\n      tag_266\n      jump\t// in\n    tag_348:\n        /* \"#utility.yul\":2123:2126   */\n      dup3\n        /* \"#utility.yul\":2116:2153   */\n      mstore\n        /* \"#utility.yul\":2041:2159   */\n      pop\n      pop\n      jump\t// out\n        /* \"#utility.yul\":2165:2387   */\n    tag_45:\n        /* \"#utility.yul\":2258:2262   */\n      0x00\n        /* \"#utility.yul\":2296:2298   */\n      0x20\n        /* \"#utility.yul\":2285:2294   */\n      dup3\n        /* \"#utility.yul\":2281:2299   */\n      add\n        /* \"#utility.yul\":2273:2299   */\n      swap1\n      pop\n        /* \"#utility.yul\":2309:2380   */\n      tag_350\n        /* \"#utility.yul\":2377:2378   */\n      0x00\n        /* \"#utility.yul\":2366:2375   */\n      dup4\n        /* \"#utility.yul\":2362:2379   */\n      add\n        /* \"#utility.yul\":2353:2359   */\n      dup5\n        /* \"#utility.yul\":2309:2380   */\n      tag_272\n      jump\t// in\n    tag_350:\n        /* \"#utility.yul\":2165:2387   */\n      swap3\n      swap2\n      pop\n      pop\n      jump\t// out\n        /* \"#utility.yul\":2393:2510   */\n    tag_273:\n        /* \"#utility.yul\":2502:2503   */\n      0x00\n        /* \"#utility.yul\":2499:2500   */\n      dup1\n        /* \"#utility.yul\":2492:2504   */\n      revert\n        /* \"#utility.yul\":2516:2633   */\n    tag_274:\n        /* \"#utility.yul\":2625:2626   */\n      0x00\n        /* \"#utility.yul\":2622:2623   */\n      dup1\n        /* \"#utility.yul\":2615:2627   */\n      revert\n        /* \"#utility.yul\":2639:2741   */\n    tag_275:\n        /* \"#utility.yul\":2680:2686   */\n      0x00\n        /* \"#utility.yul\":2731:2733   */\n      0x1f\n        /* \"#utility.yul\":2727:2734   */\n      not\n        /* \"#utility.yul\":2722:2724   */\n      0x1f\n        /* \"#utility.yul\":2715:2720   */\n      dup4\n        /* \"#utility.yul\":2711:2725   */\n      add\n        /* \"#utility.yul\":2707:2735   */\n      and\n        /* \"#utility.yul\":2697:2735   */\n      swap1\n      pop\n        /* \"#utility.yul\":2639:2741   */\n      swap2\n      swap1\n      pop\n      jump\t// out\n        /* \"#utility.yul\":2747:2927   */\n    tag_276:\n        /* \"#utility.yul\":2795:2872   */\n      0x4e487b7100000000000000000000000000000000000000000000000000000000\n        /* \"#utility.yul\":2792:2793   */\n      0x00\n        /* \"#utility.yul\":2785:2873   */\n      mstore\n        /* \"#utility.yul\":2892:2896   */\n      0x41\n        /* \"#utility.yul\":2889:2890   */\n      0x04\n        /* \"#utility.yul\":2882:2897   */\n      mstore\n        /* \"#utility.yul\":2916:2920   */\n      0x24\n        /* \"#utility.yul\":2913:2914   */\n      0x00\n        /* \"#utility.yul\":2906:2921   */\n      revert\n        /* \"#utility.yul\":2933:3214   */\n    tag_277:\n        /* \"#utility.yul\":3016:3043   */\n      tag_356\n        /* \"#utility.yul\":3038:3042   */\n      dup3\n        /* \"#utility.yul\":3016:3043   */\n      tag_275\n      jump\t// in\n    tag_356:\n        /* \"#utility.yul\":3008:3014   */\n      dup2\n        /* \"#utility.yul\":3004:3044   */\n      add\n        /* \"#utility.yul\":3146:3152   */\n      dup2\n        /* \"#utility.yul\":3134:3144   */\n      dup2\n        /* \"#utility.yul\":3131:3153   */\n      lt\n        /* \"#utility.yul\":3110:3128   */\n      0xffffffffffffffff\n        /* \"#utility.yul\":3098:3108   */\n      dup3\n        /* \"#utility.yul\":3095:3129   */\n      gt\n        /* \"#utility.yul\":3092:3154   */\n      or\n        /* \"#utility.yul\":3089:3177   */\n      iszero\n      tag_357\n      jumpi\n        /* \"#utility.yul\":3157:3175   */\n      tag_358\n      tag_276\n      jump\t// in\n    tag_358:\n        /* \"#utility.yul\":3089:3177   */\n    tag_357:\n        /* \"#utility.yul\":3197:3207   */\n      dup1\n        /* \"#utility.yul\":3193:3195   */\n      0x40\n        /* \"#utility.yul\":3186:3208   */\n      mstore\n        /* \"#utility.yul\":2976:3214   */\n      pop\n        /* \"#utility.yul\":2933:3214   */\n      pop\n      pop\n      jump\t// out\n        /* \"#utility.yul\":3220:3349   */\n    tag_278:\n        /* \"#utility.yul\":3254:3260   */\n      0x00\n        /* \"#utility.yul\":3281:3301   */\n      tag_360\n      tag_263\n      jump\t// in\n    tag_360:\n        /* \"#utility.yul\":3271:3301   */\n      swap1\n      pop\n        /* \"#utility.yul\":3310:3343   */\n      tag_361\n        /* \"#utility.yul\":3338:3342   */\n      dup3\n        /* \"#utility.yul\":3330:3336   */\n      dup3\n        /* \"#utility.yul\":3310:3343   */\n      tag_277\n      jump\t// in\n    tag_361:\n        /* \"#utility.yul\":3220:3349   */\n      swap2\n      swap1\n      pop\n      jump\t// out\n        /* \"#utility.yul\":3355:3662   */\n    tag_279:\n        /* \"#utility.yul\":3416:3420   */\n      0x00\n        /* \"#utility.yul\":3506:3524   */\n      0xffffffffffffffff\n        /* \"#utility.yul\":3498:3504   */\n      dup3\n        /* \"#utility.yul\":3495:3525   */\n      gt\n        /* \"#utility.yul\":3492:3548   */\n      iszero\n      tag_363\n      jumpi\n        /* \"#utility.yul\":3528:3546   */\n      tag_364\n      tag_276\n      jump\t// in\n    tag_364:\n        /* \"#utility.yul\":3492:3548   */\n    tag_363:\n        /* \"#utility.yul\":3566:3595   */\n      tag_365\n        /* \"#utility.yul\":3588:3594   */\n      dup3\n        /* \"#utility.yul\":3566:3595   */\n      tag_275\n      jump\t// in\n    tag_365:\n        /* \"#utility.yul\":3558:3595   */\n      swap1\n      pop\n        /* \"#utility.yul\":3650:3654   */\n      0x20\n        /* \"#utility.yul\":3644:3648   */\n      dup2\n        /* \"#utility.yul\":3640:3655   */\n      add\n        /* \"#utility.yul\":3632:3655   */\n      swap1\n      pop\n        /* \"#utility.yul\":3355:3662   */\n      swap2\n      swap1\n      pop\n      jump\t// out\n        /* \"#utility.yul\":3668:3816   */\n    tag_280:\n        /* \"#utility.yul\":3766:3772   */\n      dup3\n        /* \"#utility.yul\":3761:3764   */\n      dup2\n        /* \"#utility.yul\":3756:3759   */\n      dup4\n        /* \"#utility.yul\":3743:3773   */\n      calldatacopy\n        /* \"#utility.yul\":3807:3808   */\n      0x00\n        /* \"#utility.yul\":3798:3804   */\n      dup4\n        /* \"#utility.yul\":3793:3796   */\n      dup4\n        /* \"#utility.yul\":3789:3805   */\n      add\n        /* \"#utility.yul\":3782:3809   */\n      mstore\n        /* \"#utility.yul\":3668:3816   */\n      pop\n      pop\n      pop\n      jump\t// out\n        /* \"#utility.yul\":3822:4245   */\n    tag_281:\n        /* \"#utility.yul\":3899:3904   */\n      0x00\n        /* \"#utility.yul\":3924:3989   */\n      tag_368\n        /* \"#utility.yul\":3940:3988   */\n      tag_369\n        /* \"#utility.yul\":3981:3987   */\n      dup5\n        /* \"#utility.yul\":3940:3988   */\n      tag_279\n      jump\t// in\n    tag_369:\n        /* \"#utility.yul\":3924:3989   */\n      tag_278\n      jump\t// in\n    tag_368:\n        /* \"#utility.yul\":3915:3989   */\n      swap1\n      pop\n        /* \"#utility.yul\":4012:4018   */\n      dup3\n        /* \"#utility.yul\":4005:4010   */\n      dup2\n        /* \"#utility.yul\":3998:4019   */\n      mstore\n        /* \"#utility.yul\":4050:4054   */\n      0x20\n        /* \"#utility.yul\":4043:4048   */\n      dup2\n        /* \"#utility.yul\":4039:4055   */\n      add\n        /* \"#utility.yul\":4088:4091   */\n      dup5\n        /* \"#utility.yul\":4079:4085   */\n      dup5\n        /* \"#utility.yul\":4074:4077   */\n      dup5\n        /* \"#utility.yul\":4070:4086   */\n      add\n        /* \"#utility.yul\":4067:4092   */\n      gt\n        /* \"#utility.yul\":4064:4176   */\n      iszero\n      tag_370\n      jumpi\n        /* \"#utility.yul\":4095:4174   */\n      tag_371\n      tag_274\n      jump\t// in\n    tag_371:\n        /* \"#utility.yul\":4064:4176   */\n    tag_370:\n        /* \"#utility.yul\":4185:4239   */\n      tag_372\n        /* \"#utility.yul\":4232:4238   */\n      dup5\n        /* \"#utility.yul\":4227:4230   */\n      dup3\n        /* \"#utility.yul\":4222:4225   */\n      dup6\n        /* \"#utility.yul\":4185:4239   */\n      tag_280\n      jump\t// in\n    tag_372:\n        /* \"#utility.yul\":3905:4245   */\n      pop\n        /* \"#utility.yul\":3822:4245   */\n      swap4\n      swap3\n      pop\n      pop\n      pop\n      jump\t// out\n        /* \"#utility.yul\":4264:4602   */\n    tag_282:\n        /* \"#utility.yul\":4319:4324   */\n      0x00\n        /* \"#utility.yul\":4368:4371   */\n      dup3\n        /* \"#utility.yul\":4361:4365   */\n      0x1f\n        /* \"#utility.yul\":4353:4359   */\n      dup4\n        /* \"#utility.yul\":4349:4366   */\n      add\n        /* \"#utility.yul\":4345:4372   */\n      slt\n        /* \"#utility.yul\":4335:4457   */\n      tag_374\n      jumpi\n        /* \"#utility.yul\":4376:4455   */\n      tag_375\n      tag_273\n      jump\t// in\n    tag_375:\n        /* \"#utility.yul\":4335:4457   */\n    tag_374:\n        /* \"#utility.yul\":4493:4499   */\n      dup2\n        /* \"#utility.yul\":4480:4500   */\n      calldataload\n        /* \"#utility.yul\":4518:4596   */\n      tag_376\n        /* \"#utility.yul\":4592:4595   */\n      dup5\n        /* \"#utility.yul\":4584:4590   */\n      dup3\n        /* \"#utility.yul\":4577:4581   */\n      0x20\n        /* \"#utility.yul\":4569:4575   */\n      dup7\n        /* \"#utility.yul\":4565:4582   */\n      add\n        /* \"#utility.yul\":4518:4596   */\n      tag_281\n      jump\t// in\n    tag_376:\n        /* \"#utility.yul\":4509:4596   */\n      swap2\n      pop\n        /* \"#utility.yul\":4325:4602   */\n      pop\n        /* \"#utility.yul\":4264:4602   */\n      swap3\n      swap2\n      pop\n      pop\n      jump\t// out\n        /* \"#utility.yul\":4608:5115   */\n    tag_49:\n        /* \"#utility.yul\":4676:4682   */\n      0x00\n        /* \"#utility.yul\":4725:4727   */\n      0x20\n        /* \"#utility.yul\":4713:4722   */\n      dup3\n        /* \"#utility.yul\":4704:4711   */\n      dup5\n        /* \"#utility.yul\":4700:4723   */\n      sub\n        /* \"#utility.yul\":4696:4728   */\n      slt\n        /* \"#utility.yul\":4693:4812   */\n      iszero\n      tag_378\n      jumpi\n        /* \"#utility.yul\":4731:4810   */\n      tag_379\n      tag_264\n      jump\t// in\n    tag_379:\n        /* \"#utility.yul\":4693:4812   */\n    tag_378:\n        /* \"#utility.yul\":4879:4880   */\n      0x00\n        /* \"#utility.yul\":4868:4877   */\n      dup3\n        /* \"#utility.yul\":4864:4881   */\n      add\n        /* \"#utility.yul\":4851:4882   */\n      calldataload\n        /* \"#utility.yul\":4909:4927   */\n      0xffffffffffffffff\n        /* \"#utility.yul\":4901:4907   */\n      dup2\n        /* \"#utility.yul\":4898:4928   */\n      gt\n        /* \"#utility.yul\":4895:5012   */\n      iszero\n      tag_380\n      jumpi\n        /* \"#utility.yul\":4931:5010   */\n      tag_381\n      tag_265\n      jump\t// in\n    tag_381:\n        /* \"#utility.yul\":4895:5012   */\n    tag_380:\n        /* \"#utility.yul\":5036:5098   */\n      tag_382\n        /* \"#utility.yul\":5090:5097   */\n      dup5\n        /* \"#utility.yul\":5081:5087   */\n      dup3\n        /* \"#utility.yul\":5070:5079   */\n      dup6\n        /* \"#utility.yul\":5066:5088   */\n      add\n        /* \"#utility.yul\":5036:5098   */\n      tag_282\n      jump\t// in\n    tag_382:\n        /* \"#utility.yul\":5026:5098   */\n      swap2\n      pop\n        /* \"#utility.yul\":4822:5108   */\n      pop\n        /* \"#utility.yul\":4608:5115   */\n      swap3\n      swap2\n      pop\n      pop\n      jump\t// out\n        /* \"#utility.yul\":5121:5243   */\n    tag_283:\n        /* \"#utility.yul\":5194:5218   */\n      tag_384\n        /* \"#utility.yul\":5212:5217   */\n      dup2\n        /* \"#utility.yul\":5194:5218   */\n      tag_270\n      jump\t// in\n    tag_384:\n        /* \"#utility.yul\":5187:5192   */\n      dup2\n        /* \"#utility.yul\":5184:5219   */\n      eq\n        /* \"#utility.yul\":5174:5237   */\n      tag_385\n      jumpi\n        /* \"#utility.yul\":5233:5234   */\n      0x00\n        /* \"#utility.yul\":5230:5231   */\n      dup1\n        /* \"#utility.yul\":5223:5235   */\n      revert\n        /* \"#utility.yul\":5174:5237   */\n    tag_385:\n        /* \"#utility.yul\":5121:5243   */\n      pop\n      jump\t// out\n        /* \"#utility.yul\":5249:5388   */\n    tag_284:\n        /* \"#utility.yul\":5295:5300   */\n      0x00\n        /* \"#utility.yul\":5333:5339   */\n      dup2\n        /* \"#utility.yul\":5320:5340   */\n      calldataload\n        /* \"#utility.yul\":5311:5340   */\n      swap1\n      pop\n        /* \"#utility.yul\":5349:5382   */\n      tag_387\n        /* \"#utility.yul\":5376:5381   */\n      dup2\n        /* \"#utility.yul\":5349:5382   */\n      tag_283\n      jump\t// in\n    tag_387:\n        /* \"#utility.yul\":5249:5388   */\n      swap3\n      swap2\n      pop\n      pop\n      jump\t// out\n        /* \"#utility.yul\":5394:5723   */\n    tag_54:\n        /* \"#utility.yul\":5453:5459   */\n      0x00\n        /* \"#utility.yul\":5502:5504   */\n      0x20\n        /* \"#utility.yul\":5490:5499   */\n      dup3\n        /* \"#utility.yul\":5481:5488   */\n      dup5\n        /* \"#utility.yul\":5477:5500   */\n      sub\n        /* \"#utility.yul\":5473:5505   */\n      slt\n        /* \"#utility.yul\":5470:5589   */\n      iszero\n      tag_389\n      jumpi\n        /* \"#utility.yul\":5508:5587   */\n      tag_390\n      tag_264\n      jump\t// in\n    tag_390:\n        /* \"#utility.yul\":5470:5589   */\n    tag_389:\n        /* \"#utility.yul\":5628:5629   */\n      0x00\n        /* \"#utility.yul\":5653:5706   */\n      tag_391\n        /* \"#utility.yul\":5698:5705   */\n      dup5\n        /* \"#utility.yul\":5689:5695   */\n      dup3\n        /* \"#utility.yul\":5678:5687   */\n      dup6\n        /* \"#utility.yul\":5674:5696   */\n      add\n        /* \"#utility.yul\":5653:5706   */\n      tag_284\n      jump\t// in\n    tag_391:\n        /* \"#utility.yul\":5643:5706   */\n      swap2\n      pop\n        /* \"#utility.yul\":5599:5716   */\n      pop\n        /* \"#utility.yul\":5394:5723   */\n      swap3\n      swap2\n      pop\n      pop\n      jump\t// out\n        /* \"#utility.yul\":5729:5819   */\n    tag_285:\n        /* \"#utility.yul\":5763:5770   */\n      0x00\n        /* \"#utility.yul\":5806:5811   */\n      dup2\n        /* \"#utility.yul\":5799:5812   */\n      iszero\n        /* \"#utility.yul\":5792:5813   */\n      iszero\n        /* \"#utility.yul\":5781:5813   */\n      swap1\n      pop\n        /* \"#utility.yul\":5729:5819   */\n      swap2\n      swap1\n      pop\n      jump\t// out\n        /* \"#utility.yul\":5825:5934   */\n    tag_286:\n        /* \"#utility.yul\":5906:5927   */\n      tag_394\n        /* \"#utility.yul\":5921:5926   */\n      dup2\n        /* \"#utility.yul\":5906:5927   */\n      tag_285\n      jump\t// in\n    tag_394:\n        /* \"#utility.yul\":5901:5904   */\n      dup3\n        /* \"#utility.yul\":5894:5928   */\n      mstore\n        /* \"#utility.yul\":5825:5934   */\n      pop\n      pop\n      jump\t// out\n        /* \"#utility.yul\":5940:6150   */\n    tag_57:\n        /* \"#utility.yul\":6027:6031   */\n      0x00\n        /* \"#utility.yul\":6065:6067   */\n      0x20\n        /* \"#utility.yul\":6054:6063   */\n      dup3\n        /* \"#utility.yul\":6050:6068   */\n      add\n        /* \"#utility.yul\":6042:6068   */\n      swap1\n      pop\n        /* \"#utility.yul\":6078:6143   */\n      tag_396\n        /* \"#utility.yul\":6140:6141   */\n      0x00\n        /* \"#utility.yul\":6129:6138   */\n      dup4\n        /* \"#utility.yul\":6125:6142   */\n      add\n        /* \"#utility.yul\":6116:6122   */\n      dup5\n        /* \"#utility.yul\":6078:6143   */\n      tag_286\n      jump\t// in\n    tag_396:\n        /* \"#utility.yul\":5940:6150   */\n      swap3\n      swap2\n      pop\n      pop\n      jump\t// out\n        /* \"#utility.yul\":6156:6274   */\n    tag_287:\n        /* \"#utility.yul\":6227:6249   */\n      tag_398\n        /* \"#utility.yul\":6243:6248   */\n      dup2\n        /* \"#utility.yul\":6227:6249   */\n      tag_261\n      jump\t// in\n    tag_398:\n        /* \"#utility.yul\":6220:6225   */\n      dup2\n        /* \"#utility.yul\":6217:6250   */\n      eq\n        /* \"#utility.yul\":6207:6268   */\n      tag_399\n      jumpi\n        /* \"#utility.yul\":6264:6265   */\n      0x00\n        /* \"#utility.yul\":6261:6262   */\n      dup1\n        /* \"#utility.yul\":6254:6266   */\n      revert\n        /* \"#utility.yul\":6207:6268   */\n    tag_399:\n        /* \"#utility.yul\":6156:6274   */\n      pop\n      jump\t// out\n        /* \"#utility.yul\":6280:6415   */\n    tag_288:\n        /* \"#utility.yul\":6324:6329   */\n      0x00\n        /* \"#utility.yul\":6362:6368   */\n      dup2\n        /* \"#utility.yul\":6349:6369   */\n      calldataload\n        /* \"#utility.yul\":6340:6369   */\n      swap1\n      pop\n        /* \"#utility.yul\":6378:6409   */\n      tag_401\n        /* \"#utility.yul\":6403:6408   */\n      dup2\n        /* \"#utility.yul\":6378:6409   */\n      tag_287\n      jump\t// in\n    tag_401:\n        /* \"#utility.yul\":6280:6415   */\n      swap3\n      swap2\n      pop\n      pop\n      jump\t// out\n        /* \"#utility.yul\":6421:6891   */\n    tag_64:\n        /* \"#utility.yul\":6487:6493   */\n      0x00\n        /* \"#utility.yul\":6495:6501   */\n      dup1\n        /* \"#utility.yul\":6544:6546   */\n      0x40\n        /* \"#utility.yul\":6532:6541   */\n      dup4\n        /* \"#utility.yul\":6523:6530   */\n      dup6\n        /* \"#utility.yul\":6519:6542   */\n      sub\n        /* \"#utility.yul\":6515:6547   */\n      slt\n        /* \"#utility.yul\":6512:6631   */\n      iszero\n      tag_403\n      jumpi\n        /* \"#utility.yul\":6550:6629   */\n      tag_404\n      tag_264\n      jump\t// in\n    tag_404:\n        /* \"#utility.yul\":6512:6631   */\n    tag_403:\n        /* \"#utility.yul\":6670:6671   */\n      0x00\n        /* \"#utility.yul\":6695:6748   */\n      tag_405\n        /* \"#utility.yul\":6740:6747   */\n      dup6\n        /* \"#utility.yul\":6731:6737   */\n      dup3\n        /* \"#utility.yul\":6720:6729   */\n      dup7\n        /* \"#utility.yul\":6716:6738   */\n      add\n        /* \"#utility.yul\":6695:6748   */\n      tag_284\n      jump\t// in\n    tag_405:\n        /* \"#utility.yul\":6685:6748   */\n      swap3\n      pop\n        /* \"#utility.yul\":6641:6758   */\n      pop\n        /* \"#utility.yul\":6797:6799   */\n      0x20\n        /* \"#utility.yul\":6823:6874   */\n      tag_406\n        /* \"#utility.yul\":6866:6873   */\n      dup6\n        /* \"#utility.yul\":6857:6863   */\n      dup3\n        /* \"#utility.yul\":6846:6855   */\n      dup7\n        /* \"#utility.yul\":6842:6864   */\n      add\n        /* \"#utility.yul\":6823:6874   */\n      tag_288\n      jump\t// in\n    tag_406:\n        /* \"#utility.yul\":6813:6874   */\n      swap2\n      pop\n        /* \"#utility.yul\":6768:6884   */\n      pop\n        /* \"#utility.yul\":6421:6891   */\n      swap3\n      pop\n      swap3\n      swap1\n      pop\n      jump\t// out\n        /* \"#utility.yul\":6897:7327   */\n    tag_67:\n        /* \"#utility.yul\":7040:7044   */\n      0x00\n        /* \"#utility.yul\":7078:7080   */\n      0x60\n        /* \"#utility.yul\":7067:7076   */\n      dup3\n        /* \"#utility.yul\":7063:7081   */\n      add\n        /* \"#utility.yul\":7055:7081   */\n      swap1\n      pop\n        /* \"#utility.yul\":7091:7162   */\n      tag_408\n        /* \"#utility.yul\":7159:7160   */\n      0x00\n        /* \"#utility.yul\":7148:7157   */\n      dup4\n        /* \"#utility.yul\":7144:7161   */\n      add\n        /* \"#utility.yul\":7135:7141   */\n      dup7\n        /* \"#utility.yul\":7091:7162   */\n      tag_271\n      jump\t// in\n    tag_408:\n        /* \"#utility.yul\":7172:7238   */\n      tag_409\n        /* \"#utility.yul\":7234:7236   */\n      0x20\n        /* \"#utility.yul\":7223:7232   */\n      dup4\n        /* \"#utility.yul\":7219:7237   */\n      add\n        /* \"#utility.yul\":7210:7216   */\n      dup6\n        /* \"#utility.yul\":7172:7238   */\n      tag_286\n      jump\t// in\n    tag_409:\n        /* \"#utility.yul\":7248:7320   */\n      tag_410\n        /* \"#utility.yul\":7316:7318   */\n      0x40\n        /* \"#utility.yul\":7305:7314   */\n      dup4\n        /* \"#utility.yul\":7301:7319   */\n      add\n        /* \"#utility.yul\":7292:7298   */\n      dup5\n        /* \"#utility.yul\":7248:7320   */\n      tag_272\n      jump\t// in\n    tag_410:\n        /* \"#utility.yul\":6897:7327   */\n      swap5\n      swap4\n      pop\n      pop\n      pop\n      pop\n      jump\t// out\n        /* \"#utility.yul\":7333:7775   */\n    tag_77:\n        /* \"#utility.yul\":7482:7486   */\n      0x00\n        /* \"#utility.yul\":7520:7522   */\n      0x60\n        /* \"#utility.yul\":7509:7518   */\n      dup3\n        /* \"#utility.yul\":7505:7523   */\n      add\n        /* \"#utility.yul\":7497:7523   */\n      swap1\n      pop\n        /* \"#utility.yul\":7533:7604   */\n      tag_412\n        /* \"#utility.yul\":7601:7602   */\n      0x00\n        /* \"#utility.yul\":7590:7599   */\n      dup4\n        /* \"#utility.yul\":7586:7603   */\n      add\n        /* \"#utility.yul\":7577:7583   */\n      dup7\n        /* \"#utility.yul\":7533:7604   */\n      tag_272\n      jump\t// in\n    tag_412:\n        /* \"#utility.yul\":7614:7686   */\n      tag_413\n        /* \"#utility.yul\":7682:7684   */\n      0x20\n        /* \"#utility.yul\":7671:7680   */\n      dup4\n        /* \"#utility.yul\":7667:7685   */\n      add\n        /* \"#utility.yul\":7658:7664   */\n      dup6\n        /* \"#utility.yul\":7614:7686   */\n      tag_271\n      jump\t// in\n    tag_413:\n        /* \"#utility.yul\":7696:7768   */\n      tag_414\n        /* \"#utility.yul\":7764:7766   */\n      0x40\n        /* \"#utility.yul\":7753:7762   */\n      dup4\n        /* \"#utility.yul\":7749:7767   */\n      add\n        /* \"#utility.yul\":7740:7746   */\n      dup5\n        /* \"#utility.yul\":7696:7768   */\n      tag_272\n      jump\t// in\n    tag_414:\n        /* \"#utility.yul\":7333:7775   */\n      swap5\n      swap4\n      pop\n      pop\n      pop\n      pop\n      jump\t// out\n        /* \"#utility.yul\":7781:8247   */\n    tag_80:\n        /* \"#utility.yul\":7845:7851   */\n      0x00\n        /* \"#utility.yul\":7853:7859   */\n      dup1\n        /* \"#utility.yul\":7902:7904   */\n      0x40\n        /* \"#utility.yul\":7890:7899   */\n      dup4\n        /* \"#utility.yul\":7881:7888   */\n      dup6\n        /* \"#utility.yul\":7877:7900   */\n      sub\n        /* \"#utility.yul\":7873:7905   */\n      slt\n        /* \"#utility.yul\":7870:7989   */\n      iszero\n      tag_416\n      jumpi\n        /* \"#utility.yul\":7908:7987   */\n      tag_417\n      tag_264\n      jump\t// in\n    tag_417:\n        /* \"#utility.yul\":7870:7989   */\n    tag_416:\n        /* \"#utility.yul\":8028:8029   */\n      0x00\n        /* \"#utility.yul\":8053:8104   */\n      tag_418\n        /* \"#utility.yul\":8096:8103   */\n      dup6\n        /* \"#utility.yul\":8087:8093   */\n      dup3\n        /* \"#utility.yul\":8076:8085   */\n      dup7\n        /* \"#utility.yul\":8072:8094   */\n      add\n        /* \"#utility.yul\":8053:8104   */\n      tag_288\n      jump\t// in\n    tag_418:\n        /* \"#utility.yul\":8043:8104   */\n      swap3\n      pop\n        /* \"#utility.yul\":7999:8114   */\n      pop\n        /* \"#utility.yul\":8153:8155   */\n      0x20\n        /* \"#utility.yul\":8179:8230   */\n      tag_419\n        /* \"#utility.yul\":8222:8229   */\n      dup6\n        /* \"#utility.yul\":8213:8219   */\n      dup3\n        /* \"#utility.yul\":8202:8211   */\n      dup7\n        /* \"#utility.yul\":8198:8220   */\n      add\n        /* \"#utility.yul\":8179:8230   */\n      tag_288\n      jump\t// in\n    tag_419:\n        /* \"#utility.yul\":8169:8230   */\n      swap2\n      pop\n        /* \"#utility.yul\":8124:8240   */\n      pop\n        /* \"#utility.yul\":7781:8247   */\n      swap3\n      pop\n      swap3\n      swap1\n      pop\n      jump\t// out\n        /* \"#utility.yul\":8253:8794   */\n    tag_87:\n        /* \"#utility.yul\":8424:8428   */\n      0x00\n        /* \"#utility.yul\":8462:8465   */\n      0x80\n        /* \"#utility.yul\":8451:8460   */\n      dup3\n        /* \"#utility.yul\":8447:8466   */\n      add\n        /* \"#utility.yul\":8439:8466   */\n      swap1\n      pop\n        /* \"#utility.yul\":8476:8547   */\n      tag_421\n        /* \"#utility.yul\":8544:8545   */\n      0x00\n        /* \"#utility.yul\":8533:8542   */\n      dup4\n        /* \"#utility.yul\":8529:8546   */\n      add\n        /* \"#utility.yul\":8520:8526   */\n      dup8\n        /* \"#utility.yul\":8476:8547   */\n      tag_271\n      jump\t// in\n    tag_421:\n        /* \"#utility.yul\":8557:8623   */\n      tag_422\n        /* \"#utility.yul\":8619:8621   */\n      0x20\n        /* \"#utility.yul\":8608:8617   */\n      dup4\n        /* \"#utility.yul\":8604:8622   */\n      add\n        /* \"#utility.yul\":8595:8601   */\n      dup7\n        /* \"#utility.yul\":8557:8623   */\n      tag_286\n      jump\t// in\n    tag_422:\n        /* \"#utility.yul\":8633:8705   */\n      tag_423\n        /* \"#utility.yul\":8701:8703   */\n      0x40\n        /* \"#utility.yul\":8690:8699   */\n      dup4\n        /* \"#utility.yul\":8686:8704   */\n      add\n        /* \"#utility.yul\":8677:8683   */\n      dup6\n        /* \"#utility.yul\":8633:8705   */\n      tag_272\n      jump\t// in\n    tag_423:\n        /* \"#utility.yul\":8715:8787   */\n      tag_424\n        /* \"#utility.yul\":8783:8785   */\n      0x60\n        /* \"#utility.yul\":8772:8781   */\n      dup4\n        /* \"#utility.yul\":8768:8786   */\n      add\n        /* \"#utility.yul\":8759:8765   */\n      dup5\n        /* \"#utility.yul\":8715:8787   */\n      tag_271\n      jump\t// in\n    tag_424:\n        /* \"#utility.yul\":8253:8794   */\n      swap6\n      swap5\n      pop\n      pop\n      pop\n      pop\n      pop\n      jump\t// out\n        /* \"#utility.yul\":8800:9125   */\n    tag_96:\n        /* \"#utility.yul\":8857:8863   */\n      0x00\n        /* \"#utility.yul\":8906:8908   */\n      0x20\n        /* \"#utility.yul\":8894:8903   */\n      dup3\n        /* \"#utility.yul\":8885:8892   */\n      dup5\n        /* \"#utility.yul\":8881:8904   */\n      sub\n        /* \"#utility.yul\":8877:8909   */\n      slt\n        /* \"#utility.yul\":8874:8993   */\n      iszero\n      tag_426\n      jumpi\n        /* \"#utility.yul\":8912:8991   */\n      tag_427\n      tag_264\n      jump\t// in\n    tag_427:\n        /* \"#utility.yul\":8874:8993   */\n    tag_426:\n        /* \"#utility.yul\":9032:9033   */\n      0x00\n        /* \"#utility.yul\":9057:9108   */\n      tag_428\n        /* \"#utility.yul\":9100:9107   */\n      dup5\n        /* \"#utility.yul\":9091:9097   */\n      dup3\n        /* \"#utility.yul\":9080:9089   */\n      dup6\n        /* \"#utility.yul\":9076:9098   */\n      add\n        /* \"#utility.yul\":9057:9108   */\n      tag_288\n      jump\t// in\n    tag_428:\n        /* \"#utility.yul\":9047:9108   */\n      swap2\n      pop\n        /* \"#utility.yul\":9003:9118   */\n      pop\n        /* \"#utility.yul\":8800:9125   */\n      swap3\n      swap2\n      pop\n      pop\n      jump\t// out\n        /* \"#utility.yul\":9131:9300   */\n    tag_289:\n        /* \"#utility.yul\":9215:9226   */\n      0x00\n        /* \"#utility.yul\":9249:9255   */\n      dup3\n        /* \"#utility.yul\":9244:9247   */\n      dup3\n        /* \"#utility.yul\":9237:9256   */\n      mstore\n        /* \"#utility.yul\":9289:9293   */\n      0x20\n        /* \"#utility.yul\":9284:9287   */\n      dup3\n        /* \"#utility.yul\":9280:9294   */\n      add\n        /* \"#utility.yul\":9265:9294   */\n      swap1\n      pop\n        /* \"#utility.yul\":9131:9300   */\n      swap3\n      swap2\n      pop\n      pop\n      jump\t// out\n        /* \"#utility.yul\":9306:9488   */\n    tag_290:\n        /* \"#utility.yul\":9446:9480   */\n      0x526567697374726174696f6e20636f737420697320302e30352065746865722e\n        /* \"#utility.yul\":9442:9443   */\n      0x00\n        /* \"#utility.yul\":9434:9440   */\n      dup3\n        /* \"#utility.yul\":9430:9444   */\n      add\n        /* \"#utility.yul\":9423:9481   */\n      mstore\n        /* \"#utility.yul\":9306:9488   */\n      pop\n      jump\t// out\n        /* \"#utility.yul\":9494:9860   */\n    tag_291:\n        /* \"#utility.yul\":9636:9639   */\n      0x00\n        /* \"#utility.yul\":9657:9724   */\n      tag_432\n        /* \"#utility.yul\":9721:9723   */\n      0x20\n        /* \"#utility.yul\":9716:9719   */\n      dup4\n        /* \"#utility.yul\":9657:9724   */\n      tag_289\n      jump\t// in\n    tag_432:\n        /* \"#utility.yul\":9650:9724   */\n      swap2\n      pop\n        /* \"#utility.yul\":9733:9826   */\n      tag_433\n        /* \"#utility.yul\":9822:9825   */\n      dup3\n        /* \"#utility.yul\":9733:9826   */\n      tag_290\n      jump\t// in\n    tag_433:\n        /* \"#utility.yul\":9851:9853   */\n      0x20\n        /* \"#utility.yul\":9846:9849   */\n      dup3\n        /* \"#utility.yul\":9842:9854   */\n      add\n        /* \"#utility.yul\":9835:9854   */\n      swap1\n      pop\n        /* \"#utility.yul\":9494:9860   */\n      swap2\n      swap1\n      pop\n      jump\t// out\n        /* \"#utility.yul\":9866:10285   */\n    tag_107:\n        /* \"#utility.yul\":10032:10036   */\n      0x00\n        /* \"#utility.yul\":10070:10072   */\n      0x20\n        /* \"#utility.yul\":10059:10068   */\n      dup3\n        /* \"#utility.yul\":10055:10073   */\n      add\n        /* \"#utility.yul\":10047:10073   */\n      swap1\n      pop\n        /* \"#utility.yul\":10119:10128   */\n      dup2\n        /* \"#utility.yul\":10113:10117   */\n      dup2\n        /* \"#utility.yul\":10109:10129   */\n      sub\n        /* \"#utility.yul\":10105:10106   */\n      0x00\n        /* \"#utility.yul\":10094:10103   */\n      dup4\n        /* \"#utility.yul\":10090:10107   */\n      add\n        /* \"#utility.yul\":10083:10130   */\n      mstore\n        /* \"#utility.yul\":10147:10278   */\n      tag_435\n        /* \"#utility.yul\":10273:10277   */\n      dup2\n        /* \"#utility.yul\":10147:10278   */\n      tag_291\n      jump\t// in\n    tag_435:\n        /* \"#utility.yul\":10139:10278   */\n      swap1\n      pop\n        /* \"#utility.yul\":9866:10285   */\n      swap2\n      swap1\n      pop\n      jump\t// out\n        /* \"#utility.yul\":10291:10461   */\n    tag_292:\n        /* \"#utility.yul\":10431:10453   */\n      0x5573657220616c7265616479206578697374732e000000000000000000000000\n        /* \"#utility.yul\":10427:10428   */\n      0x00\n        /* \"#utility.yul\":10419:10425   */\n      dup3\n        /* \"#utility.yul\":10415:10429   */\n      add\n        /* \"#utility.yul\":10408:10454   */\n      mstore\n        /* \"#utility.yul\":10291:10461   */\n      pop\n      jump\t// out\n        /* \"#utility.yul\":10467:10833   */\n    tag_293:\n        /* \"#utility.yul\":10609:10612   */\n      0x00\n        /* \"#utility.yul\":10630:10697   */\n      tag_438\n        /* \"#utility.yul\":10694:10696   */\n      0x14\n        /* \"#utility.yul\":10689:10692   */\n      dup4\n        /* \"#utility.yul\":10630:10697   */\n      tag_289\n      jump\t// in\n    tag_438:\n        /* \"#utility.yul\":10623:10697   */\n      swap2\n      pop\n        /* \"#utility.yul\":10706:10799   */\n      tag_439\n        /* \"#utility.yul\":10795:10798   */\n      dup3\n        /* \"#utility.yul\":10706:10799   */\n      tag_292\n      jump\t// in\n    tag_439:\n        /* \"#utility.yul\":10824:10826   */\n      0x20\n        /* \"#utility.yul\":10819:10822   */\n      dup3\n        /* \"#utility.yul\":10815:10827   */\n      add\n        /* \"#utility.yul\":10808:10827   */\n      swap1\n      pop\n        /* \"#utility.yul\":10467:10833   */\n      swap2\n      swap1\n      pop\n      jump\t// out\n        /* \"#utility.yul\":10839:11258   */\n    tag_111:\n        /* \"#utility.yul\":11005:11009   */\n      0x00\n        /* \"#utility.yul\":11043:11045   */\n      0x20\n        /* \"#utility.yul\":11032:11041   */\n      dup3\n        /* \"#utility.yul\":11028:11046   */\n      add\n        /* \"#utility.yul\":11020:11046   */\n      swap1\n      pop\n        /* \"#utility.yul\":11092:11101   */\n      dup2\n        /* \"#utility.yul\":11086:11090   */\n      dup2\n        /* \"#utility.yul\":11082:11102   */\n      sub\n        /* \"#utility.yul\":11078:11079   */\n      0x00\n        /* \"#utility.yul\":11067:11076   */\n      dup4\n        /* \"#utility.yul\":11063:11080   */\n      add\n        /* \"#utility.yul\":11056:11103   */\n      mstore\n        /* \"#utility.yul\":11120:11251   */\n      tag_441\n        /* \"#utility.yul\":11246:11250   */\n      dup2\n        /* \"#utility.yul\":11120:11251   */\n      tag_293\n      jump\t// in\n    tag_441:\n        /* \"#utility.yul\":11112:11251   */\n      swap1\n      pop\n        /* \"#utility.yul\":10839:11258   */\n      swap2\n      swap1\n      pop\n      jump\t// out\n        /* \"#utility.yul\":11264:11438   */\n    tag_294:\n        /* \"#utility.yul\":11404:11430   */\n      0x526566657272657220646f6573206e6f742065786973742e0000000000000000\n        /* \"#utility.yul\":11400:11401   */\n      0x00\n        /* \"#utility.yul\":11392:11398   */\n      dup3\n        /* \"#utility.yul\":11388:11402   */\n      add\n        /* \"#utility.yul\":11381:11431   */\n      mstore\n        /* \"#utility.yul\":11264:11438   */\n      pop\n      jump\t// out\n        /* \"#utility.yul\":11444:11810   */\n    tag_295:\n        /* \"#utility.yul\":11586:11589   */\n      0x00\n        /* \"#utility.yul\":11607:11674   */\n      tag_444\n        /* \"#utility.yul\":11671:11673   */\n      0x18\n        /* \"#utility.yul\":11666:11669   */\n      dup4\n        /* \"#utility.yul\":11607:11674   */\n      tag_289\n      jump\t// in\n    tag_444:\n        /* \"#utility.yul\":11600:11674   */\n      swap2\n      pop\n        /* \"#utility.yul\":11683:11776   */\n      tag_445\n        /* \"#utility.yul\":11772:11775   */\n      dup3\n        /* \"#utility.yul\":11683:11776   */\n      tag_294\n      jump\t// in\n    tag_445:\n        /* \"#utility.yul\":11801:11803   */\n      0x20\n        /* \"#utility.yul\":11796:11799   */\n      dup3\n        /* \"#utility.yul\":11792:11804   */\n      add\n        /* \"#utility.yul\":11785:11804   */\n      swap1\n      pop\n        /* \"#utility.yul\":11444:11810   */\n      swap2\n      swap1\n      pop\n      jump\t// out\n        /* \"#utility.yul\":11816:12235   */\n    tag_115:\n        /* \"#utility.yul\":11982:11986   */\n      0x00\n        /* \"#utility.yul\":12020:12022   */\n      0x20\n        /* \"#utility.yul\":12009:12018   */\n      dup3\n        /* \"#utility.yul\":12005:12023   */\n      add\n        /* \"#utility.yul\":11997:12023   */\n      swap1\n      pop\n        /* \"#utility.yul\":12069:12078   */\n      dup2\n        /* \"#utility.yul\":12063:12067   */\n      dup2\n        /* \"#utility.yul\":12059:12079   */\n      sub\n        /* \"#utility.yul\":12055:12056   */\n      0x00\n        /* \"#utility.yul\":12044:12053   */\n      dup4\n        /* \"#utility.yul\":12040:12057   */\n      add\n        /* \"#utility.yul\":12033:12080   */\n      mstore\n        /* \"#utility.yul\":12097:12228   */\n      tag_447\n        /* \"#utility.yul\":12223:12227   */\n      dup2\n        /* \"#utility.yul\":12097:12228   */\n      tag_295\n      jump\t// in\n    tag_447:\n        /* \"#utility.yul\":12089:12228   */\n      swap1\n      pop\n        /* \"#utility.yul\":11816:12235   */\n      swap2\n      swap1\n      pop\n      jump\t// out\n        /* \"#utility.yul\":12241:12412   */\n    tag_296:\n        /* \"#utility.yul\":12381:12404   */\n      0x43616e6e6f74206265206120636f6e74726163742e0000000000000000000000\n        /* \"#utility.yul\":12377:12378   */\n      0x00\n        /* \"#utility.yul\":12369:12375   */\n      dup3\n        /* \"#utility.yul\":12365:12379   */\n      add\n        /* \"#utility.yul\":12358:12405   */\n      mstore\n        /* \"#utility.yul\":12241:12412   */\n      pop\n      jump\t// out\n        /* \"#utility.yul\":12418:12784   */\n    tag_297:\n        /* \"#utility.yul\":12560:12563   */\n      0x00\n        /* \"#utility.yul\":12581:12648   */\n      tag_450\n        /* \"#utility.yul\":12645:12647   */\n      0x15\n        /* \"#utility.yul\":12640:12643   */\n      dup4\n        /* \"#utility.yul\":12581:12648   */\n      tag_289\n      jump\t// in\n    tag_450:\n        /* \"#utility.yul\":12574:12648   */\n      swap2\n      pop\n        /* \"#utility.yul\":12657:12750   */\n      tag_451\n        /* \"#utility.yul\":12746:12749   */\n      dup3\n        /* \"#utility.yul\":12657:12750   */\n      tag_296\n      jump\t// in\n    tag_451:\n        /* \"#utility.yul\":12775:12777   */\n      0x20\n        /* \"#utility.yul\":12770:12773   */\n      dup3\n        /* \"#utility.yul\":12766:12778   */\n      add\n        /* \"#utility.yul\":12759:12778   */\n      swap1\n      pop\n        /* \"#utility.yul\":12418:12784   */\n      swap2\n      swap1\n      pop\n      jump\t// out\n        /* \"#utility.yul\":12790:13209   */\n    tag_118:\n        /* \"#utility.yul\":12956:12960   */\n      0x00\n        /* \"#utility.yul\":12994:12996   */\n      0x20\n        /* \"#utility.yul\":12983:12992   */\n      dup3\n        /* \"#utility.yul\":12979:12997   */\n      add\n        /* \"#utility.yul\":12971:12997   */\n      swap1\n      pop\n        /* \"#utility.yul\":13043:13052   */\n      dup2\n        /* \"#utility.yul\":13037:13041   */\n      dup2\n        /* \"#utility.yul\":13033:13053   */\n      sub\n        /* \"#utility.yul\":13029:13030   */\n      0x00\n        /* \"#utility.yul\":13018:13027   */\n      dup4\n        /* \"#utility.yul\":13014:13031   */\n      add\n        /* \"#utility.yul\":13007:13054   */\n      mstore\n        /* \"#utility.yul\":13071:13202   */\n      tag_453\n        /* \"#utility.yul\":13197:13201   */\n      dup2\n        /* \"#utility.yul\":13071:13202   */\n      tag_297\n      jump\t// in\n    tag_453:\n        /* \"#utility.yul\":13063:13202   */\n      swap1\n      pop\n        /* \"#utility.yul\":12790:13209   */\n      swap2\n      swap1\n      pop\n      jump\t// out\n        /* \"#utility.yul\":13215:13395   */\n    tag_298:\n        /* \"#utility.yul\":13263:13340   */\n      0x4e487b7100000000000000000000000000000000000000000000000000000000\n        /* \"#utility.yul\":13260:13261   */\n      0x00\n        /* \"#utility.yul\":13253:13341   */\n      mstore\n        /* \"#utility.yul\":13360:13364   */\n      0x11\n        /* \"#utility.yul\":13357:13358   */\n      0x04\n        /* \"#utility.yul\":13350:13365   */\n      mstore\n        /* \"#utility.yul\":13384:13388   */\n      0x24\n        /* \"#utility.yul\":13381:13382   */\n      0x00\n        /* \"#utility.yul\":13374:13389   */\n      revert\n        /* \"#utility.yul\":13401:13634   */\n    tag_120:\n        /* \"#utility.yul\":13440:13443   */\n      0x00\n        /* \"#utility.yul\":13463:13487   */\n      tag_456\n        /* \"#utility.yul\":13481:13486   */\n      dup3\n        /* \"#utility.yul\":13463:13487   */\n      tag_266\n      jump\t// in\n    tag_456:\n        /* \"#utility.yul\":13454:13487   */\n      swap2\n      pop\n        /* \"#utility.yul\":13509:13575   */\n      0xffffffffffffffffffffffffffffffffffffffffffffffffffffffffffffffff\n        /* \"#utility.yul\":13502:13507   */\n      dup3\n        /* \"#utility.yul\":13499:13576   */\n      sub\n        /* \"#utility.yul\":13496:13599   */\n      tag_457\n      jumpi\n        /* \"#utility.yul\":13579:13597   */\n      tag_458\n      tag_298\n      jump\t// in\n    tag_458:\n        /* \"#utility.yul\":13496:13599   */\n    tag_457:\n        /* \"#utility.yul\":13626:13627   */\n      0x01\n        /* \"#utility.yul\":13619:13624   */\n      dup3\n        /* \"#utility.yul\":13615:13628   */\n      add\n        /* \"#utility.yul\":13608:13628   */\n      swap1\n      pop\n        /* \"#utility.yul\":13401:13634   */\n      swap2\n      swap1\n      pop\n      jump\t// out\n        /* \"#utility.yul\":13640:13866   */\n    tag_299:\n        /* \"#utility.yul\":13780:13814   */\n      0x55736572206973206e6f7420726567697374657265642e205265676973746572\n        /* \"#utility.yul\":13776:13777   */\n      0x00\n        /* \"#utility.yul\":13768:13774   */\n      dup3\n        /* \"#utility.yul\":13764:13778   */\n      add\n        /* \"#utility.yul\":13757:13815   */\n      mstore\n        /* \"#utility.yul\":13849:13858   */\n      0x2066697273742e00000000000000000000000000000000000000000000000000\n        /* \"#utility.yul\":13844:13846   */\n      0x20\n        /* \"#utility.yul\":13836:13842   */\n      dup3\n        /* \"#utility.yul\":13832:13847   */\n      add\n        /* \"#utility.yul\":13825:13859   */\n      mstore\n        /* \"#utility.yul\":13640:13866   */\n      pop\n      jump\t// out\n        /* \"#utility.yul\":13872:14238   */\n    tag_300:\n        /* \"#utility.yul\":14014:14017   */\n      0x00\n        /* \"#utility.yul\":14035:14102   */\n      tag_461\n        /* \"#utility.yul\":14099:14101   */\n      0x27\n        /* \"#utility.yul\":14094:14097   */\n      dup4\n        /* \"#utility.yul\":14035:14102   */\n      tag_289\n      jump\t// in\n    tag_461:\n        /* \"#utility.yul\":14028:14102   */\n      swap2\n      pop\n        /* \"#utility.yul\":14111:14204   */\n      tag_462\n        /* \"#utility.yul\":14200:14203   */\n      dup3\n        /* \"#utility.yul\":14111:14204   */\n      tag_299\n      jump\t// in\n    tag_462:\n        /* \"#utility.yul\":14229:14231   */\n      0x40\n        /* \"#utility.yul\":14224:14227   */\n      dup3\n        /* \"#utility.yul\":14220:14232   */\n      add\n        /* \"#utility.yul\":14213:14232   */\n      swap1\n      pop\n        /* \"#utility.yul\":13872:14238   */\n      swap2\n      swap1\n      pop\n      jump\t// out\n        /* \"#utility.yul\":14244:14663   */\n    tag_137:\n        /* \"#utility.yul\":14410:14414   */\n      0x00\n        /* \"#utility.yul\":14448:14450   */\n      0x20\n        /* \"#utility.yul\":14437:14446   */\n      dup3\n        /* \"#utility.yul\":14433:14451   */\n      add\n        /* \"#utility.yul\":14425:14451   */\n      swap1\n      pop\n        /* \"#utility.yul\":14497:14506   */\n      dup2\n        /* \"#utility.yul\":14491:14495   */\n      dup2\n        /* \"#utility.yul\":14487:14507   */\n      sub\n        /* \"#utility.yul\":14483:14484   */\n      0x00\n        /* \"#utility.yul\":14472:14481   */\n      dup4\n        /* \"#utility.yul\":14468:14485   */\n      add\n        /* \"#utility.yul\":14461:14508   */\n      mstore\n        /* \"#utility.yul\":14525:14656   */\n      tag_464\n        /* \"#utility.yul\":14651:14655   */\n      dup2\n        /* \"#utility.yul\":14525:14656   */\n      tag_300\n      jump\t// in\n    tag_464:\n        /* \"#utility.yul\":14517:14656   */\n      swap1\n      pop\n        /* \"#utility.yul\":14244:14663   */\n      swap2\n      swap1\n      pop\n      jump\t// out\n        /* \"#utility.yul\":14669:14834   */\n    tag_301:\n        /* \"#utility.yul\":14809:14826   */\n      0x496e76616c6964206d61747269782e0000000000000000000000000000000000\n        /* \"#utility.yul\":14805:14806   */\n      0x00\n        /* \"#utility.yul\":14797:14803   */\n      dup3\n        /* \"#utility.yul\":14793:14807   */\n      add\n        /* \"#utility.yul\":14786:14827   */\n      mstore\n        /* \"#utility.yul\":14669:14834   */\n      pop\n      jump\t// out\n        /* \"#utility.yul\":14840:15206   */\n    tag_302:\n        /* \"#utility.yul\":14982:14985   */\n      0x00\n        /* \"#utility.yul\":15003:15070   */\n      tag_467\n        /* \"#utility.yul\":15067:15069   */\n      0x0f\n        /* \"#utility.yul\":15062:15065   */\n      dup4\n        /* \"#utility.yul\":15003:15070   */\n      tag_289\n      jump\t// in\n    tag_467:\n        /* \"#utility.yul\":14996:15070   */\n      swap2\n      pop\n        /* \"#utility.yul\":15079:15172   */\n      tag_468\n        /* \"#utility.yul\":15168:15171   */\n      dup3\n        /* \"#utility.yul\":15079:15172   */\n      tag_301\n      jump\t// in\n    tag_468:\n        /* \"#utility.yul\":15197:15199   */\n      0x20\n        /* \"#utility.yul\":15192:15195   */\n      dup3\n        /* \"#utility.yul\":15188:15200   */\n      add\n        /* \"#utility.yul\":15181:15200   */\n      swap1\n      pop\n        /* \"#utility.yul\":14840:15206   */\n      swap2\n      swap1\n      pop\n      jump\t// out\n        /* \"#utility.yul\":15212:15631   */\n    tag_141:\n        /* \"#utility.yul\":15378:15382   */\n      0x00\n        /* \"#utility.yul\":15416:15418   */\n      0x20\n        /* \"#utility.yul\":15405:15414   */\n      dup3\n        /* \"#utility.yul\":15401:15419   */\n      add\n        /* \"#utility.yul\":15393:15419   */\n      swap1\n      pop\n        /* \"#utility.yul\":15465:15474   */\n      dup2\n        /* \"#utility.yul\":15459:15463   */\n      dup2\n        /* \"#utility.yul\":15455:15475   */\n      sub\n        /* \"#utility.yul\":15451:15452   */\n      0x00\n        /* \"#utility.yul\":15440:15449   */\n      dup4\n        /* \"#utility.yul\":15436:15453   */\n      add\n        /* \"#utility.yul\":15429:15476   */\n      mstore\n        /* \"#utility.yul\":15493:15624   */\n      tag_470\n        /* \"#utility.yul\":15619:15623   */\n      dup2\n        /* \"#utility.yul\":15493:15624   */\n      tag_302\n      jump\t// in\n    tag_470:\n        /* \"#utility.yul\":15485:15624   */\n      swap1\n      pop\n        /* \"#utility.yul\":15212:15631   */\n      swap2\n      swap1\n      pop\n      jump\t// out\n        /* \"#utility.yul\":15637:15801   */\n    tag_303:\n        /* \"#utility.yul\":15777:15793   */\n      0x496e76616c69642070726963652e000000000000000000000000000000000000\n        /* \"#utility.yul\":15773:15774   */\n      0x00\n        /* \"#utility.yul\":15765:15771   */\n      dup3\n        /* \"#utility.yul\":15761:15775   */\n      add\n        /* \"#utility.yul\":15754:15794   */\n      mstore\n        /* \"#utility.yul\":15637:15801   */\n      pop\n      jump\t// out\n        /* \"#utility.yul\":15807:16173   */\n    tag_304:\n        /* \"#utility.yul\":15949:15952   */\n      0x00\n        /* \"#utility.yul\":15970:16037   */\n      tag_473\n        /* \"#utility.yul\":16034:16036   */\n      0x0e\n        /* \"#utility.yul\":16029:16032   */\n      dup4\n        /* \"#utility.yul\":15970:16037   */\n      tag_289\n      jump\t// in\n    tag_473:\n        /* \"#utility.yul\":15963:16037   */\n      swap2\n      pop\n        /* \"#utility.yul\":16046:16139   */\n      tag_474\n        /* \"#utility.yul\":16135:16138   */\n      dup3\n        /* \"#utility.yul\":16046:16139   */\n      tag_303\n      jump\t// in\n    tag_474:\n        /* \"#utility.yul\":16164:16166   */\n      0x20\n        /* \"#utility.yul\":16159:16162   */\n      dup3\n        /* \"#utility.yul\":16155:16167   */\n      add\n        /* \"#utility.yul\":16148:16167   */\n      swap1\n      pop\n        /* \"#utility.yul\":15807:16173   */\n      swap2\n      swap1\n      pop\n      jump\t// out\n        /* \"#utility.yul\":16179:16598   */\n    tag_144:\n        /* \"#utility.yul\":16345:16349   */\n      0x00\n        /* \"#utility.yul\":16383:16385   */\n      0x20\n        /* \"#utility.yul\":16372:16381   */\n      dup3\n        /* \"#utility.yul\":16368:16386   */\n      add\n        /* \"#utility.yul\":16360:16386   */\n      swap1\n      pop\n        /* \"#utility.yul\":16432:16441   */\n      dup2\n        /* \"#utility.yul\":16426:16430   */\n      dup2\n        /* \"#utility.yul\":16422:16442   */\n      sub\n        /* \"#utility.yul\":16418:16419   */\n      0x00\n        /* \"#utility.yul\":16407:16416   */\n      dup4\n        /* \"#utility.yul\":16403:16420   */\n      add\n        /* \"#utility.yul\":16396:16443   */\n      mstore\n        /* \"#utility.yul\":16460:16591   */\n      tag_476\n        /* \"#utility.yul\":16586:16590   */\n      dup2\n        /* \"#utility.yul\":16460:16591   */\n      tag_304\n      jump\t// in\n    tag_476:\n        /* \"#utility.yul\":16452:16591   */\n      swap1\n      pop\n        /* \"#utility.yul\":16179:16598   */\n      swap2\n      swap1\n      pop\n      jump\t// out\n        /* \"#utility.yul\":16604:16768   */\n    tag_305:\n        /* \"#utility.yul\":16744:16760   */\n      0x496e76616c6964206c6576656c2e000000000000000000000000000000000000\n        /* \"#utility.yul\":16740:16741   */\n      0x00\n        /* \"#utility.yul\":16732:16738   */\n      dup3\n        /* \"#utility.yul\":16728:16742   */\n      add\n        /* \"#utility.yul\":16721:16761   */\n      mstore\n        /* \"#utility.yul\":16604:16768   */\n      pop\n      jump\t// out\n        /* \"#utility.yul\":16774:17140   */\n    tag_306:\n        /* \"#utility.yul\":16916:16919   */\n      0x00\n        /* \"#utility.yul\":16937:17004   */\n      tag_479\n        /* \"#utility.yul\":17001:17003   */\n      0x0e\n        /* \"#utility.yul\":16996:16999   */\n      dup4\n        /* \"#utility.yul\":16937:17004   */\n      tag_289\n      jump\t// in\n    tag_479:\n        /* \"#utility.yul\":16930:17004   */\n      swap2\n      pop\n        /* \"#utility.yul\":17013:17106   */\n      tag_480\n        /* \"#utility.yul\":17102:17105   */\n      dup3\n        /* \"#utility.yul\":17013:17106   */\n      tag_305\n      jump\t// in\n    tag_480:\n        /* \"#utility.yul\":17131:17133   */\n      0x20\n        /* \"#utility.yul\":17126:17129   */\n      dup3\n        /* \"#utility.yul\":17122:17134   */\n      add\n        /* \"#utility.yul\":17115:17134   */\n      swap1\n      pop\n        /* \"#utility.yul\":16774:17140   */\n      swap2\n      swap1\n      pop\n      jump\t// out\n        /* \"#utility.yul\":17146:17565   */\n    tag_148:\n        /* \"#utility.yul\":17312:17316   */\n      0x00\n        /* \"#utility.yul\":17350:17352   */\n      0x20\n        /* \"#utility.yul\":17339:17348   */\n      dup3\n        /* \"#utility.yul\":17335:17353   */\n      add\n        /* \"#utility.yul\":17327:17353   */\n      swap1\n      pop\n        /* \"#utility.yul\":17399:17408   */\n      dup2\n        /* \"#utility.yul\":17393:17397   */\n      dup2\n        /* \"#utility.yul\":17389:17409   */\n      sub\n        /* \"#utility.yul\":17385:17386   */\n      0x00\n        /* \"#utility.yul\":17374:17383   */\n      dup4\n        /* \"#utility.yul\":17370:17387   */\n      add\n        /* \"#utility.yul\":17363:17410   */\n      mstore\n        /* \"#utility.yul\":17427:17558   */\n      tag_482\n        /* \"#utility.yul\":17553:17557   */\n      dup2\n        /* \"#utility.yul\":17427:17558   */\n      tag_306\n      jump\t// in\n    tag_482:\n        /* \"#utility.yul\":17419:17558   */\n      swap1\n      pop\n        /* \"#utility.yul\":17146:17565   */\n      swap2\n      swap1\n      pop\n      jump\t// out\n        /* \"#utility.yul\":17571:17745   */\n    tag_307:\n        /* \"#utility.yul\":17711:17737   */\n      0x4c6576656c20616c7265616479206163746976617465642e0000000000000000\n        /* \"#utility.yul\":17707:17708   */\n      0x00\n        /* \"#utility.yul\":17699:17705   */\n      dup3\n        /* \"#utility.yul\":17695:17709   */\n      add\n        /* \"#utility.yul\":17688:17738   */\n      mstore\n        /* \"#utility.yul\":17571:17745   */\n      pop\n      jump\t// out\n        /* \"#utility.yul\":17751:18117   */\n    tag_308:\n        /* \"#utility.yul\":17893:17896   */\n      0x00\n        /* \"#utility.yul\":17914:17981   */\n      tag_485\n        /* \"#utility.yul\":17978:17980   */\n      0x18\n        /* \"#utility.yul\":17973:17976   */\n      dup4\n        /* \"#utility.yul\":17914:17981   */\n      tag_289\n      jump\t// in\n    tag_485:\n        /* \"#utility.yul\":17907:17981   */\n      swap2\n      pop\n        /* \"#utility.yul\":17990:18083   */\n      tag_486\n        /* \"#utility.yul\":18079:18082   */\n      dup3\n        /* \"#utility.yul\":17990:18083   */\n      tag_307\n      jump\t// in\n    tag_486:\n        /* \"#utility.yul\":18108:18110   */\n      0x20\n        /* \"#utility.yul\":18103:18106   */\n      dup3\n        /* \"#utility.yul\":18099:18111   */\n      add\n        /* \"#utility.yul\":18092:18111   */\n      swap1\n      pop\n        /* \"#utility.yul\":17751:18117   */\n      swap2\n      swap1\n      pop\n      jump\t// out\n        /* \"#utility.yul\":18123:18542   */\n    tag_152:\n        /* \"#utility.yul\":18289:18293   */\n      0x00\n        /* \"#utility.yul\":18327:18329   */\n      0x20\n        /* \"#utility.yul\":18316:18325   */\n      dup3\n        /* \"#utility.yul\":18312:18330   */\n      add\n        /* \"#utility.yul\":18304:18330   */\n      swap1\n      pop\n        /* \"#utility.yul\":18376:18385   */\n      dup2\n        /* \"#utility.yul\":18370:18374   */\n      dup2\n        /* \"#utility.yul\":18366:18386   */\n      sub\n        /* \"#utility.yul\":18362:18363   */\n      0x00\n        /* \"#utility.yul\":18351:18360   */\n      dup4\n        /* \"#utility.yul\":18347:18364   */\n      add\n        /* \"#utility.yul\":18340:18387   */\n      mstore\n        /* \"#utility.yul\":18404:18535   */\n      tag_488\n        /* \"#utility.yul\":18530:18534   */\n      dup2\n        /* \"#utility.yul\":18404:18535   */\n      tag_308\n      jump\t// in\n    tag_488:\n        /* \"#utility.yul\":18396:18535   */\n      swap1\n      pop\n        /* \"#utility.yul\":18123:18542   */\n      swap2\n      swap1\n      pop\n      jump\t// out\n        /* \"#utility.yul\":18548:18739   */\n    tag_154:\n        /* \"#utility.yul\":18586:18590   */\n      0x00\n        /* \"#utility.yul\":18606:18624   */\n      tag_490\n        /* \"#utility.yul\":18622:18623   */\n      dup3\n        /* \"#utility.yul\":18606:18624   */\n      tag_261\n      jump\t// in\n    tag_490:\n        /* \"#utility.yul\":18601:18624   */\n      swap2\n      pop\n        /* \"#utility.yul\":18638:18656   */\n      tag_491\n        /* \"#utility.yul\":18654:18655   */\n      dup4\n        /* \"#utility.yul\":18638:18656   */\n      tag_261\n      jump\t// in\n    tag_491:\n        /* \"#utility.yul\":18633:18656   */\n      swap3\n      pop\n        /* \"#utility.yul\":18680:18681   */\n      dup3\n        /* \"#utility.yul\":18677:18678   */\n      dup3\n        /* \"#utility.yul\":18673:18682   */\n      sub\n        /* \"#utility.yul\":18665:18682   */\n      swap1\n      pop\n        /* \"#utility.yul\":18704:18708   */\n      0xff\n        /* \"#utility.yul\":18698:18702   */\n      dup2\n        /* \"#utility.yul\":18695:18709   */\n      gt\n        /* \"#utility.yul\":18692:18732   */\n      iszero\n      tag_492\n      jumpi\n        /* \"#utility.yul\":18712:18730   */\n      tag_493\n      tag_298\n      jump\t// in\n    tag_493:\n        /* \"#utility.yul\":18692:18732   */\n    tag_492:\n        /* \"#utility.yul\":18548:18739   */\n      swap3\n      swap2\n      pop\n      pop\n      jump\t// out\n        /* \"#utility.yul\":18745:18830   */\n    tag_309:\n        /* \"#utility.yul\":18790:18797   */\n      0x00\n        /* \"#utility.yul\":18819:18824   */\n      dup2\n        /* \"#utility.yul\":18808:18824   */\n      swap1\n      pop\n        /* \"#utility.yul\":18745:18830   */\n      swap2\n      swap1\n      pop\n      jump\t// out\n        /* \"#utility.yul\":18836:18896   */\n    tag_310:\n        /* \"#utility.yul\":18864:18867   */\n      0x00\n        /* \"#utility.yul\":18885:18890   */\n      dup2\n        /* \"#utility.yul\":18878:18890   */\n      swap1\n      pop\n        /* \"#utility.yul\":18836:18896   */\n      swap2\n      swap1\n      pop\n      jump\t// out\n        /* \"#utility.yul\":18902:19056   */\n    tag_311:\n        /* \"#utility.yul\":18958:18967   */\n      0x00\n        /* \"#utility.yul\":18991:19050   */\n      tag_497\n        /* \"#utility.yul\":19007:19049   */\n      tag_498\n        /* \"#utility.yul\":19016:19048   */\n      tag_499\n        /* \"#utility.yul\":19042:19047   */\n      dup5\n        /* \"#utility.yul\":19016:19048   */\n      tag_309\n      jump\t// in\n    tag_499:\n        /* \"#utility.yul\":19007:19049   */\n      tag_310\n      jump\t// in\n    tag_498:\n        /* \"#utility.yul\":18991:19050   */\n      tag_261\n      jump\t// in\n    tag_497:\n        /* \"#utility.yul\":18978:19050   */\n      swap1\n      pop\n        /* \"#utility.yul\":18902:19056   */\n      swap2\n      swap1\n      pop\n      jump\t// out\n        /* \"#utility.yul\":19062:19205   */\n    tag_312:\n        /* \"#utility.yul\":19155:19198   */\n      tag_501\n        /* \"#utility.yul\":19192:19197   */\n      dup2\n        /* \"#utility.yul\":19155:19198   */\n      tag_311\n      jump\t// in\n    tag_501:\n        /* \"#utility.yul\":19150:19153   */\n      dup3\n        /* \"#utility.yul\":19143:19199   */\n      mstore\n        /* \"#utility.yul\":19062:19205   */\n      pop\n      pop\n      jump\t// out\n        /* \"#utility.yul\":19211:19547   */\n    tag_160:\n        /* \"#utility.yul\":19334:19338   */\n      0x00\n        /* \"#utility.yul\":19372:19374   */\n      0x40\n        /* \"#utility.yul\":19361:19370   */\n      dup3\n        /* \"#utility.yul\":19357:19375   */\n      add\n        /* \"#utility.yul\":19349:19375   */\n      swap1\n      pop\n        /* \"#utility.yul\":19385:19462   */\n      tag_503\n        /* \"#utility.yul\":19459:19460   */\n      0x00\n        /* \"#utility.yul\":19448:19457   */\n      dup4\n        /* \"#utility.yul\":19444:19461   */\n      add\n        /* \"#utility.yul\":19435:19441   */\n      dup6\n        /* \"#utility.yul\":19385:19462   */\n      tag_312\n      jump\t// in\n    tag_503:\n        /* \"#utility.yul\":19472:19540   */\n      tag_504\n        /* \"#utility.yul\":19536:19538   */\n      0x20\n        /* \"#utility.yul\":19525:19534   */\n      dup4\n        /* \"#utility.yul\":19521:19539   */\n      add\n        /* \"#utility.yul\":19512:19518   */\n      dup5\n        /* \"#utility.yul\":19472:19540   */\n      tag_262\n      jump\t// in\n    tag_504:\n        /* \"#utility.yul\":19211:19547   */\n      swap4\n      swap3\n      pop\n      pop\n      pop\n      jump\t// out\n        /* \"#utility.yul\":19553:19638   */\n    tag_313:\n        /* \"#utility.yul\":19598:19605   */\n      0x00\n        /* \"#utility.yul\":19627:19632   */\n      dup2\n        /* \"#utility.yul\":19616:19632   */\n      swap1\n      pop\n        /* \"#utility.yul\":19553:19638   */\n      swap2\n      swap1\n      pop\n      jump\t// out\n        /* \"#utility.yul\":19644:19798   */\n    tag_314:\n        /* \"#utility.yul\":19700:19709   */\n      0x00\n        /* \"#utility.yul\":19733:19792   */\n      tag_507\n        /* \"#utility.yul\":19749:19791   */\n      tag_508\n        /* \"#utility.yul\":19758:19790   */\n      tag_509\n        /* \"#utility.yul\":19784:19789   */\n      dup5\n        /* \"#utility.yul\":19758:19790   */\n      tag_313\n      jump\t// in\n    tag_509:\n        /* \"#utility.yul\":19749:19791   */\n      tag_310\n      jump\t// in\n    tag_508:\n        /* \"#utility.yul\":19733:19792   */\n      tag_261\n      jump\t// in\n    tag_507:\n        /* \"#utility.yul\":19720:19792   */\n      swap1\n      pop\n        /* \"#utility.yul\":19644:19798   */\n      swap2\n      swap1\n      pop\n      jump\t// out\n        /* \"#utility.yul\":19804:19947   */\n    tag_315:\n        /* \"#utility.yul\":19897:19940   */\n      tag_511\n        /* \"#utility.yul\":19934:19939   */\n      dup2\n        /* \"#utility.yul\":19897:19940   */\n      tag_314\n      jump\t// in\n    tag_511:\n        /* \"#utility.yul\":19892:19895   */\n      dup3\n        /* \"#utility.yul\":19885:19941   */\n      mstore\n        /* \"#utility.yul\":19804:19947   */\n      pop\n      pop\n      jump\t// out\n        /* \"#utility.yul\":19953:20289   */\n    tag_170:\n        /* \"#utility.yul\":20076:20080   */\n      0x00\n        /* \"#utility.yul\":20114:20116   */\n      0x40\n        /* \"#utility.yul\":20103:20112   */\n      dup3\n        /* \"#utility.yul\":20099:20117   */\n      add\n        /* \"#utility.yul\":20091:20117   */\n      swap1\n      pop\n        /* \"#utility.yul\":20127:20204   */\n      tag_513\n        /* \"#utility.yul\":20201:20202   */\n      0x00\n        /* \"#utility.yul\":20190:20199   */\n      dup4\n        /* \"#utility.yul\":20186:20203   */\n      add\n        /* \"#utility.yul\":20177:20183   */\n      dup6\n        /* \"#utility.yul\":20127:20204   */\n      tag_315\n      jump\t// in\n    tag_513:\n        /* \"#utility.yul\":20214:20282   */\n      tag_514\n        /* \"#utility.yul\":20278:20280   */\n      0x20\n        /* \"#utility.yul\":20267:20276   */\n      dup4\n        /* \"#utility.yul\":20263:20281   */\n      add\n        /* \"#utility.yul\":20254:20260   */\n      dup5\n        /* \"#utility.yul\":20214:20282   */\n      tag_262\n      jump\t// in\n    tag_514:\n        /* \"#utility.yul\":19953:20289   */\n      swap4\n      swap3\n      pop\n      pop\n      pop\n      jump\t// out\n        /* \"#utility.yul\":20295:20733   */\n    tag_185:\n        /* \"#utility.yul\":20442:20446   */\n      0x00\n        /* \"#utility.yul\":20480:20482   */\n      0x60\n        /* \"#utility.yul\":20469:20478   */\n      dup3\n        /* \"#utility.yul\":20465:20483   */\n      add\n        /* \"#utility.yul\":20457:20483   */\n      swap1\n      pop\n        /* \"#utility.yul\":20493:20570   */\n      tag_516\n        /* \"#utility.yul\":20567:20568   */\n      0x00\n        /* \"#utility.yul\":20556:20565   */\n      dup4\n        /* \"#utility.yul\":20552:20569   */\n      add\n        /* \"#utility.yul\":20543:20549   */\n      dup7\n        /* \"#utility.yul\":20493:20570   */\n      tag_312\n      jump\t// in\n    tag_516:\n        /* \"#utility.yul\":20580:20648   */\n      tag_517\n        /* \"#utility.yul\":20644:20646   */\n      0x20\n        /* \"#utility.yul\":20633:20642   */\n      dup4\n        /* \"#utility.yul\":20629:20647   */\n      add\n        /* \"#utility.yul\":20620:20626   */\n      dup6\n        /* \"#utility.yul\":20580:20648   */\n      tag_262\n      jump\t// in\n    tag_517:\n        /* \"#utility.yul\":20658:20726   */\n      tag_518\n        /* \"#utility.yul\":20722:20724   */\n      0x40\n        /* \"#utility.yul\":20711:20720   */\n      dup4\n        /* \"#utility.yul\":20707:20725   */\n      add\n        /* \"#utility.yul\":20698:20704   */\n      dup5\n        /* \"#utility.yul\":20658:20726   */\n      tag_262\n      jump\t// in\n    tag_518:\n        /* \"#utility.yul\":20295:20733   */\n      swap5\n      swap4\n      pop\n      pop\n      pop\n      pop\n      jump\t// out\n        /* \"#utility.yul\":20739:20824   */\n    tag_316:\n        /* \"#utility.yul\":20784:20791   */\n      0x00\n        /* \"#utility.yul\":20813:20818   */\n      dup2\n        /* \"#utility.yul\":20802:20818   */\n      swap1\n      pop\n        /* \"#utility.yul\":20739:20824   */\n      swap2\n      swap1\n      pop\n      jump\t// out\n        /* \"#utility.yul\":20830:20984   */\n    tag_317:\n        /* \"#utility.yul\":20886:20895   */\n      0x00\n        /* \"#utility.yul\":20919:20978   */\n      tag_521\n        /* \"#utility.yul\":20935:20977   */\n      tag_522\n        /* \"#utility.yul\":20944:20976   */\n      tag_523\n        /* \"#utility.yul\":20970:20975   */\n      dup5\n        /* \"#utility.yul\":20944:20976   */\n      tag_316\n      jump\t// in\n    tag_523:\n        /* \"#utility.yul\":20935:20977   */\n      tag_310\n      jump\t// in\n    tag_522:\n        /* \"#utility.yul\":20919:20978   */\n      tag_261\n      jump\t// in\n    tag_521:\n        /* \"#utility.yul\":20906:20978   */\n      swap1\n      pop\n        /* \"#utility.yul\":20830:20984   */\n      swap2\n      swap1\n      pop\n      jump\t// out\n        /* \"#utility.yul\":20990:21133   */\n    tag_318:\n        /* \"#utility.yul\":21083:21126   */\n      tag_525\n        /* \"#utility.yul\":21120:21125   */\n      dup2\n        /* \"#utility.yul\":21083:21126   */\n      tag_317\n      jump\t// in\n    tag_525:\n        /* \"#utility.yul\":21078:21081   */\n      dup3\n        /* \"#utility.yul\":21071:21127   */\n      mstore\n        /* \"#utility.yul\":20990:21133   */\n      pop\n      pop\n      jump\t// out\n        /* \"#utility.yul\":21139:21597   */\n    tag_189:\n        /* \"#utility.yul\":21296:21300   */\n      0x00\n        /* \"#utility.yul\":21334:21336   */\n      0x60\n        /* \"#utility.yul\":21323:21332   */\n      dup3\n        /* \"#utility.yul\":21319:21337   */\n      add\n        /* \"#utility.yul\":21311:21337   */\n      swap1\n      pop\n        /* \"#utility.yul\":21347:21424   */\n      tag_527\n        /* \"#utility.yul\":21421:21422   */\n      0x00\n        /* \"#utility.yul\":21410:21419   */\n      dup4\n        /* \"#utility.yul\":21406:21423   */\n      add\n        /* \"#utility.yul\":21397:21403   */\n      dup7\n        /* \"#utility.yul\":21347:21424   */\n      tag_312\n      jump\t// in\n    tag_527:\n        /* \"#utility.yul\":21434:21502   */\n      tag_528\n        /* \"#utility.yul\":21498:21500   */\n      0x20\n        /* \"#utility.yul\":21487:21496   */\n      dup4\n        /* \"#utility.yul\":21483:21501   */\n      add\n        /* \"#utility.yul\":21474:21480   */\n      dup6\n        /* \"#utility.yul\":21434:21502   */\n      tag_262\n      jump\t// in\n    tag_528:\n        /* \"#utility.yul\":21512:21590   */\n      tag_529\n        /* \"#utility.yul\":21586:21588   */\n      0x40\n        /* \"#utility.yul\":21575:21584   */\n      dup4\n        /* \"#utility.yul\":21571:21589   */\n      add\n        /* \"#utility.yul\":21562:21568   */\n      dup5\n        /* \"#utility.yul\":21512:21590   */\n      tag_318\n      jump\t// in\n    tag_529:\n        /* \"#utility.yul\":21139:21597   */\n      swap5\n      swap4\n      pop\n      pop\n      pop\n      pop\n      jump\t// out\n        /* \"#utility.yul\":21603:21791   */\n    tag_193:\n        /* \"#utility.yul\":21641:21644   */\n      0x00\n        /* \"#utility.yul\":21660:21678   */\n      tag_531\n        /* \"#utility.yul\":21676:21677   */\n      dup3\n        /* \"#utility.yul\":21660:21678   */\n      tag_261\n      jump\t// in\n    tag_531:\n        /* \"#utility.yul\":21655:21678   */\n      swap2\n      pop\n        /* \"#utility.yul\":21692:21710   */\n      tag_532\n        /* \"#utility.yul\":21708:21709   */\n      dup4\n        /* \"#utility.yul\":21692:21710   */\n      tag_261\n      jump\t// in\n    tag_532:\n        /* \"#utility.yul\":21687:21710   */\n      swap3\n      pop\n        /* \"#utility.yul\":21733:21734   */\n      dup3\n        /* \"#utility.yul\":21730:21731   */\n      dup3\n        /* \"#utility.yul\":21726:21735   */\n      add\n        /* \"#utility.yul\":21719:21735   */\n      swap1\n      pop\n        /* \"#utility.yul\":21756:21760   */\n      0xff\n        /* \"#utility.yul\":21751:21754   */\n      dup2\n        /* \"#utility.yul\":21748:21761   */\n      gt\n        /* \"#utility.yul\":21745:21784   */\n      iszero\n      tag_533\n      jumpi\n        /* \"#utility.yul\":21764:21782   */\n      tag_534\n      tag_298\n      jump\t// in\n    tag_534:\n        /* \"#utility.yul\":21745:21784   */\n    tag_533:\n        /* \"#utility.yul\":21603:21791   */\n      swap3\n      swap2\n      pop\n      pop\n      jump\t// out\n        /* \"#utility.yul\":21797:21974   */\n    tag_319:\n        /* \"#utility.yul\":21937:21966   */\n      0x5265666572726572206c6576656c20697320696e6163746976652e0000000000\n        /* \"#utility.yul\":21933:21934   */\n      0x00\n        /* \"#utility.yul\":21925:21931   */\n      dup3\n        /* \"#utility.yul\":21921:21935   */\n      add\n        /* \"#utility.yul\":21914:21967   */\n      mstore\n        /* \"#utility.yul\":21797:21974   */\n      pop\n      jump\t// out\n        /* \"#utility.yul\":21980:22346   */\n    tag_320:\n        /* \"#utility.yul\":22122:22125   */\n      0x00\n        /* \"#utility.yul\":22143:22210   */\n      tag_537\n        /* \"#utility.yul\":22207:22209   */\n      0x1b\n        /* \"#utility.yul\":22202:22205   */\n      dup4\n        /* \"#utility.yul\":22143:22210   */\n      tag_289\n      jump\t// in\n    tag_537:\n        /* \"#utility.yul\":22136:22210   */\n      swap2\n      pop\n        /* \"#utility.yul\":22219:22312   */\n      tag_538\n        /* \"#utility.yul\":22308:22311   */\n      dup3\n        /* \"#utility.yul\":22219:22312   */\n      tag_319\n      jump\t// in\n    tag_538:\n        /* \"#utility.yul\":22337:22339   */\n      0x20\n        /* \"#utility.yul\":22332:22335   */\n      dup3\n        /* \"#utility.yul\":22328:22340   */\n      add\n        /* \"#utility.yul\":22321:22340   */\n      swap1\n      pop\n        /* \"#utility.yul\":21980:22346   */\n      swap2\n      swap1\n      pop\n      jump\t// out\n        /* \"#utility.yul\":22352:22771   */\n    tag_209:\n        /* \"#utility.yul\":22518:22522   */\n      0x00\n        /* \"#utility.yul\":22556:22558   */\n      0x20\n        /* \"#utility.yul\":22545:22554   */\n      dup3\n        /* \"#utility.yul\":22541:22559   */\n      add\n        /* \"#utility.yul\":22533:22559   */\n      swap1\n      pop\n        /* \"#utility.yul\":22605:22614   */\n      dup2\n        /* \"#utility.yul\":22599:22603   */\n      dup2\n        /* \"#utility.yul\":22595:22615   */\n      sub\n        /* \"#utility.yul\":22591:22592   */\n      0x00\n        /* \"#utility.yul\":22580:22589   */\n      dup4\n        /* \"#utility.yul\":22576:22593   */\n      add\n        /* \"#utility.yul\":22569:22616   */\n      mstore\n        /* \"#utility.yul\":22633:22764   */\n      tag_540\n        /* \"#utility.yul\":22759:22763   */\n      dup2\n        /* \"#utility.yul\":22633:22764   */\n      tag_320\n      jump\t// in\n    tag_540:\n        /* \"#utility.yul\":22625:22764   */\n      swap1\n      pop\n        /* \"#utility.yul\":22352:22771   */\n      swap2\n      swap1\n      pop\n      jump\t// out\n        /* \"#utility.yul\":22777:23215   */\n    tag_213:\n        /* \"#utility.yul\":22924:22928   */\n      0x00\n        /* \"#utility.yul\":22962:22964   */\n      0x60\n        /* \"#utility.yul\":22951:22960   */\n      dup3\n        /* \"#utility.yul\":22947:22965   */\n      add\n        /* \"#utility.yul\":22939:22965   */\n      swap1\n      pop\n        /* \"#utility.yul\":22975:23052   */\n      tag_542\n        /* \"#utility.yul\":23049:23050   */\n      0x00\n        /* \"#utility.yul\":23038:23047   */\n      dup4\n        /* \"#utility.yul\":23034:23051   */\n      add\n        /* \"#utility.yul\":23025:23031   */\n      dup7\n        /* \"#utility.yul\":22975:23052   */\n      tag_315\n      jump\t// in\n    tag_542:\n        /* \"#utility.yul\":23062:23130   */\n      tag_543\n        /* \"#utility.yul\":23126:23128   */\n      0x20\n        /* \"#utility.yul\":23115:23124   */\n      dup4\n        /* \"#utility.yul\":23111:23129   */\n      add\n        /* \"#utility.yul\":23102:23108   */\n      dup6\n        /* \"#utility.yul\":23062:23130   */\n      tag_262\n      jump\t// in\n    tag_543:\n        /* \"#utility.yul\":23140:23208   */\n      tag_544\n        /* \"#utility.yul\":23204:23206   */\n      0x40\n        /* \"#utility.yul\":23193:23202   */\n      dup4\n        /* \"#utility.yul\":23189:23207   */\n      add\n        /* \"#utility.yul\":23180:23186   */\n      dup5\n        /* \"#utility.yul\":23140:23208   */\n      tag_262\n      jump\t// in\n    tag_544:\n        /* \"#utility.yul\":22777:23215   */\n      swap5\n      swap4\n      pop\n      pop\n      pop\n      pop\n      jump\t// out\n        /* \"#utility.yul\":23221:23401   */\n    tag_220:\n        /* \"#utility.yul\":23269:23346   */\n      0x4e487b7100000000000000000000000000000000000000000000000000000000\n        /* \"#utility.yul\":23266:23267   */\n      0x00\n        /* \"#utility.yul\":23259:23347   */\n      mstore\n        /* \"#utility.yul\":23366:23370   */\n      0x32\n        /* \"#utility.yul\":23363:23364   */\n      0x04\n        /* \"#utility.yul\":23356:23371   */\n      mstore\n        /* \"#utility.yul\":23390:23394   */\n      0x24\n        /* \"#utility.yul\":23387:23388   */\n      0x00\n        /* \"#utility.yul\":23380:23395   */\n      revert\n\n    auxdata: 0xa26469706673582212209d5f6765bfae937f173064c3d5a582b8cc794f1a59df2aaad623aa03b65ac23b64736f6c634300081a0033\n}\n",
				"bytecode": {
					"linkReferences": {},
					"object": "60806040526002600455348015610014575f80fd5b506040516132c83803806132c8833981810160405281019061003691906102dc565b6658d15e1762800060065f600160ff1681526020019081526020015f20819055505f600290505b600c60ff168160ff16116100c957600260065f60018461007d9190610340565b60ff1660ff1681526020019081526020015f205461009b919061037d565b60065f8360ff1660ff1681526020019081526020015f208190555080806100c1906103be565b91505061005d565b508060055f6101000a81548173ffffffffffffffffffffffffffffffffffffffff021916908373ffffffffffffffffffffffffffffffffffffffff1602179055505f805f8373ffffffffffffffffffffffffffffffffffffffff1673ffffffffffffffffffffffffffffffffffffffff1681526020019081526020015f2090506001815f01819055505f816001015f6101000a81548173ffffffffffffffffffffffffffffffffffffffff021916908373ffffffffffffffffffffffffffffffffffffffff1602179055505f81600201819055508160035f600181526020019081526020015f205f6101000a81548173ffffffffffffffffffffffffffffffffffffffff021916908373ffffffffffffffffffffffffffffffffffffffff1602179055505f600190505b600c60ff168160ff1611610276576001826003015f8360ff1660ff1681526020019081526020015f205f6101000a81548160ff0219169083151502179055506001826004015f8360ff1660ff1681526020019081526020015f205f6101000a81548160ff021916908315150217905550808061026e906103be565b9150506101f3565b5050506103e6565b5f80fd5b5f73ffffffffffffffffffffffffffffffffffffffff82169050919050565b5f6102ab82610282565b9050919050565b6102bb816102a1565b81146102c5575f80fd5b50565b5f815190506102d6816102b2565b92915050565b5f602082840312156102f1576102f061027e565b5b5f6102fe848285016102c8565b91505092915050565b5f60ff82169050919050565b7f4e487b71000000000000000000000000000000000000000000000000000000005f52601160045260245ffd5b5f61034a82610307565b915061035583610307565b9250828203905060ff81111561036e5761036d610313565b5b92915050565b5f819050919050565b5f61038782610374565b915061039283610374565b92508282026103a081610374565b915082820484148315176103b7576103b6610313565b5b5092915050565b5f6103c882610307565b915060ff82036103db576103da610313565b5b600182019050919050565b612ed5806103f35f395ff3fe6080604052600436106100e0575f3560e01c80638da5cb5b1161007e578063d4414b5011610058578063d4414b501461034f578063e06e8dbd1461038e578063ecabdf79146103ca578063fa45323d1461040657610112565b80638da5cb5b146102cb578063a87430ba146102f5578063be389d571461033357610112565b806342526e4e116100ba57806342526e4e146101f9578063509222cd14610235578063797eee241461027157806387b2b7e71461028d57610112565b806329c70400146101695780632a2d0c4714610193578063348d4487146101cf57610112565b36610112576101103360055f9054906101000a900473ffffffffffffffffffffffffffffffffffffffff16610442565b005b610167336101625f368080601f0160208091040260200160405190810160405280939291908181526020018383808284375f81840152601f19601f82011690508083019250505050505050610885565b610442565b005b348015610174575f80fd5b5061017d610892565b60405161018a919061231e565b60405180910390f35b34801561019e575f80fd5b506101b960048036038101906101b4919061237b565b610897565b6040516101c691906123e5565b60405180910390f35b3480156101da575f80fd5b506101e36108c7565b6040516101f0919061240d565b60405180910390f35b348015610204575f80fd5b5061021f600480360381019061021a9190612562565b610885565b60405161022c91906123e5565b60405180910390f35b348015610240575f80fd5b5061025b600480360381019061025691906125d3565b6108cd565b6040516102689190612618565b60405180910390f35b61028b600480360381019061028691906125d3565b610917565b005b348015610298575f80fd5b506102b360048036038101906102ae919061265b565b610924565b6040516102c293929190612699565b60405180910390f35b3480156102d6575f80fd5b506102df610980565b6040516102ec91906123e5565b60405180910390f35b348015610300575f80fd5b5061031b600480360381019061031691906125d3565b6109a5565b60405161032a939291906126ce565b60405180910390f35b61034d60048036038101906103489190612703565b6109e9565b005b34801561035a575f80fd5b506103756004803603810190610370919061265b565b611040565b6040516103859493929190612741565b60405180910390f35b348015610399575f80fd5b506103b460048036038101906103af919061265b565b6110c1565b6040516103c191906123e5565b60405180910390f35b3480156103d5575f80fd5b506103f060048036038101906103eb9190612784565b61129c565b6040516103fd919061240d565b60405180910390f35b348015610411575f80fd5b5061042c6004803603810190610427919061265b565b6112b1565b60405161043991906123e5565b60405180910390f35b66b1a2bc2ec50000341461048b576040517f08c379a000000000000000000000000000000000000000000000000000000000815260040161048290612809565b60405180910390fd5b610494826108cd565b156104d4576040517f08c379a00000000000000000000000000000000000000000000000000000000081526004016104cb90612871565b60405180910390fd5b6104dd816108cd565b61051c576040517f08c379a0000000000000000000000000000000000000000000000000000000008152600401610513906128d9565b60405180910390fd5b5f823b90505f8163ffffffff1614610569576040517f08c379a000000000000000000000000000000000000000000000000000000000815260040161056090612941565b60405180910390fd5b5f805f8573ffffffffffffffffffffffffffffffffffffffff1673ffffffffffffffffffffffffffffffffffffffff1681526020019081526020015f209050600454815f018190555082816001015f6101000a81548173ffffffffffffffffffffffffffffffffffffffff021916908373ffffffffffffffffffffffffffffffffffffffff1602179055505f81600201819055508360035f60045481526020019081526020015f205f6101000a81548173ffffffffffffffffffffffffffffffffffffffff021916908373ffffffffffffffffffffffffffffffffffffffff16021790555060045f8154809291906106609061298c565b91905055505f808473ffffffffffffffffffffffffffffffffffffffff1673ffffffffffffffffffffffffffffffffffffffff1681526020019081526020015f206002015f8154809291906106b49061298c565b91905055506001816003015f600160ff1681526020019081526020015f205f6101000a81548160ff0219169083151502179055506001816004015f600160ff1681526020019081526020015f205f6101000a81548160ff0219169083151502179055505f6107238560016112b1565b90508060015f8773ffffffffffffffffffffffffffffffffffffffff1673ffffffffffffffffffffffffffffffffffffffff1681526020019081526020015f205f600160ff1681526020019081526020015f205f015f6101000a81548173ffffffffffffffffffffffffffffffffffffffff021916908373ffffffffffffffffffffffffffffffffffffffff1602179055506107c18582600161148c565b6107d7856107d08760016110c1565b600161197c565b815f01548473ffffffffffffffffffffffffffffffffffffffff168673ffffffffffffffffffffffffffffffffffffffff167f309bb360e8b69c23937ccc5fb01f9aeeead1c95a99604e175113ff82f2b1723a5f808973ffffffffffffffffffffffffffffffffffffffff1673ffffffffffffffffffffffffffffffffffffffff1681526020019081526020015f205f0154604051610876919061240d565b60405180910390a45050505050565b5f60148201519050919050565b600c81565b6003602052805f5260405f205f915054906101000a900473ffffffffffffffffffffffffffffffffffffffff1681565b60045481565b5f805f808473ffffffffffffffffffffffffffffffffffffffff1673ffffffffffffffffffffffffffffffffffffffff1681526020019081526020015f205f015414159050919050565b6109213382610442565b50565b6001602052815f5260405f20602052805f5260405f205f9150915050805f015f9054906101000a900473ffffffffffffffffffffffffffffffffffffffff1690806002015f9054906101000a900460ff16908060030154905083565b60055f9054906101000a900473ffffffffffffffffffffffffffffffffffffffff1681565b5f602052805f5260405f205f91509050805f015490806001015f9054906101000a900473ffffffffffffffffffffffffffffffffffffffff16908060020154905083565b6109f2336108cd565b610a31576040517f08c379a0000000000000000000000000000000000000000000000000000000008152600401610a2890612a43565b60405180910390fd5b60018260ff161480610a46575060028260ff16145b610a85576040517f08c379a0000000000000000000000000000000000000000000000000000000008152600401610a7c90612aab565b60405180910390fd5b60065f8260ff1660ff1681526020019081526020015f20543414610ade576040517f08c379a0000000000000000000000000000000000000000000000000000000008152600401610ad590612b13565b60405180910390fd5b60018160ff16118015610af85750600c60ff168160ff1611155b610b37576040517f08c379a0000000000000000000000000000000000000000000000000000000008152600401610b2e90612b7b565b60405180910390fd5b60018260ff1603610dc1575f803373ffffffffffffffffffffffffffffffffffffffff1673ffffffffffffffffffffffffffffffffffffffff1681526020019081526020015f206003015f8260ff1660ff1681526020019081526020015f205f9054906101000a900460ff1615610be3576040517f08c379a0000000000000000000000000000000000000000000000000000000008152600401610bda90612be3565b60405180910390fd5b60015f3373ffffffffffffffffffffffffffffffffffffffff1673ffffffffffffffffffffffffffffffffffffffff1681526020019081526020015f205f600183610c2e9190612c01565b60ff1660ff1681526020019081526020015f206002015f9054906101000a900460ff1615610ccf575f60015f3373ffffffffffffffffffffffffffffffffffffffff1673ffffffffffffffffffffffffffffffffffffffff1681526020019081526020015f205f600184610ca29190612c01565b60ff1660ff1681526020019081526020015f206002015f6101000a81548160ff0219169083151502179055505b5f610cda33836112b1565b905060015f803373ffffffffffffffffffffffffffffffffffffffff1673ffffffffffffffffffffffffffffffffffffffff1681526020019081526020015f206003015f8460ff1660ff1681526020019081526020015f205f6101000a81548160ff021916908315150217905550610d5333828461148c565b8073ffffffffffffffffffffffffffffffffffffffff163373ffffffffffffffffffffffffffffffffffffffff167f18a92df19fd94d6cfff209966673a5ca05a1c8e2bb68e097fce2bdc2ed811119600185604051610db3929190612c77565b60405180910390a35061103c565b5f803373ffffffffffffffffffffffffffffffffffffffff1673ffffffffffffffffffffffffffffffffffffffff1681526020019081526020015f206004015f8260ff1660ff1681526020019081526020015f205f9054906101000a900460ff1615610e62576040517f08c379a0000000000000000000000000000000000000000000000000000000008152600401610e5990612be3565b60405180910390fd5b60025f3373ffffffffffffffffffffffffffffffffffffffff1673ffffffffffffffffffffffffffffffffffffffff1681526020019081526020015f205f600183610ead9190612c01565b60ff1660ff1681526020019081526020015f206003015f9054906101000a900460ff1615610f4e575f60025f3373ffffffffffffffffffffffffffffffffffffffff1673ffffffffffffffffffffffffffffffffffffffff1681526020019081526020015f205f600184610f219190612c01565b60ff1660ff1681526020019081526020015f206003015f6101000a81548160ff0219169083151502179055505b5f610f5933836110c1565b905060015f803373ffffffffffffffffffffffffffffffffffffffff1673ffffffffffffffffffffffffffffffffffffffff1681526020019081526020015f206004015f8460ff1660ff1681526020019081526020015f205f6101000a81548160ff021916908315150217905550610fd233828461197c565b8073ffffffffffffffffffffffffffffffffffffffff163373ffffffffffffffffffffffffffffffffffffffff167f18a92df19fd94d6cfff209966673a5ca05a1c8e2bb68e097fce2bdc2ed811119600285604051611032929190612cd7565b60405180910390a3505b5050565b6002602052815f5260405f20602052805f5260405f205f9150915050805f015f9054906101000a900473ffffffffffffffffffffffffffffffffffffffff1690806003015f9054906101000a900460ff1690806004015490806005015f9054906101000a900473ffffffffffffffffffffffffffffffffffffffff16905084565b5f5b600115611295575f80805f8673ffffffffffffffffffffffffffffffffffffffff1673ffffffffffffffffffffffffffffffffffffffff1681526020019081526020015f206001015f9054906101000a900473ffffffffffffffffffffffffffffffffffffffff1673ffffffffffffffffffffffffffffffffffffffff1673ffffffffffffffffffffffffffffffffffffffff1681526020019081526020015f206004015f8360ff1660ff1681526020019081526020015f205f9054906101000a900460ff16156111f4575f808473ffffffffffffffffffffffffffffffffffffffff1673ffffffffffffffffffffffffffffffffffffffff1681526020019081526020015f206001015f9054906101000a900473ffffffffffffffffffffffffffffffffffffffff169050611296565b5f808473ffffffffffffffffffffffffffffffffffffffff1673ffffffffffffffffffffffffffffffffffffffff1681526020019081526020015f206001015f9054906101000a900473ffffffffffffffffffffffffffffffffffffffff1692505f73ffffffffffffffffffffffffffffffffffffffff168373ffffffffffffffffffffffffffffffffffffffff1603611290575f9050611296565b6110c3565b5b92915050565b6006602052805f5260405f205f915090505481565b5f5b600115611485575f80805f8673ffffffffffffffffffffffffffffffffffffffff1673ffffffffffffffffffffffffffffffffffffffff1681526020019081526020015f206001015f9054906101000a900473ffffffffffffffffffffffffffffffffffffffff1673ffffffffffffffffffffffffffffffffffffffff1673ffffffffffffffffffffffffffffffffffffffff1681526020019081526020015f206003015f8360ff1660ff1681526020019081526020015f205f9054906101000a900460ff16156113e4575f808473ffffffffffffffffffffffffffffffffffffffff1673ffffffffffffffffffffffffffffffffffffffff1681526020019081526020015f206001015f9054906101000a900473ffffffffffffffffffffffffffffffffffffffff169050611486565b5f808473ffffffffffffffffffffffffffffffffffffffff1673ffffffffffffffffffffffffffffffffffffffff1681526020019081526020015f206001015f9054906101000a900473ffffffffffffffffffffffffffffffffffffffff1692505f73ffffffffffffffffffffffffffffffffffffffff168373ffffffffffffffffffffffffffffffffffffffff1603611480575f9050611486565b6112b3565b5b92915050565b5f60015f8473ffffffffffffffffffffffffffffffffffffffff1673ffffffffffffffffffffffffffffffffffffffff1681526020019081526020015f205f8360ff1660ff1681526020019081526020015f2090508060010184908060018154018082558091505060019003905f5260205f20015f9091909190916101000a81548173ffffffffffffffffffffffffffffffffffffffff021916908373ffffffffffffffffffffffffffffffffffffffff1602179055506003816001018054905010156115d3578273ffffffffffffffffffffffffffffffffffffffff168473ffffffffffffffffffffffffffffffffffffffff167f68062c5925c4317adf3a7095478d28b33fd8b41458bc7620b61bc46bf1b24d8260018585600101805490506040516115bc93929190612cfe565b60405180910390a36115cd83611fee565b50611977565b8273ffffffffffffffffffffffffffffffffffffffff168473ffffffffffffffffffffffffffffffffffffffff167f68062c5925c4317adf3a7095478d28b33fd8b41458bc7620b61bc46bf1b24d82600185600360405161163693929190612d6c565b60405180910390a3806001015f61164d91906122ca565b5f808473ffffffffffffffffffffffffffffffffffffffff1673ffffffffffffffffffffffffffffffffffffffff1681526020019081526020015f206003015f60018461169a9190612da1565b60ff1660ff1681526020019081526020015f205f9054906101000a900460ff161580156116ce5750600c60ff168260ff1614155b156116f0576001816002015f6101000a81548160ff0219169083151502179055505b60055f9054906101000a900473ffffffffffffffffffffffffffffffffffffffff1673ffffffffffffffffffffffffffffffffffffffff168373ffffffffffffffffffffffffffffffffffffffff1614611891575f61174f84846112b1565b90508073ffffffffffffffffffffffffffffffffffffffff16825f015f9054906101000a900473ffffffffffffffffffffffffffffffffffffffff1673ffffffffffffffffffffffffffffffffffffffff16146117e85780825f015f6101000a81548173ffffffffffffffffffffffffffffffffffffffff021916908373ffffffffffffffffffffffffffffffffffffffff1602179055505b816003015f8154809291906117fc9061298c565b91905055508473ffffffffffffffffffffffffffffffffffffffff168173ffffffffffffffffffffffffffffffffffffffff168573ffffffffffffffffffffffffffffffffffffffff167fa00c953eff38ec1b71e7fe060b2ab8df0bbe5354319fbdde4fbdafd6324386a6600187604051611878929190612c77565b60405180910390a461188b84828561148c565b50611975565b6118bb60055f9054906101000a900473ffffffffffffffffffffffffffffffffffffffff16611fee565b806003015f8154809291906118cf9061298c565b91905055508373ffffffffffffffffffffffffffffffffffffffff165f73ffffffffffffffffffffffffffffffffffffffff1660055f9054906101000a900473ffffffffffffffffffffffffffffffffffffffff1673ffffffffffffffffffffffffffffffffffffffff167fa00c953eff38ec1b71e7fe060b2ab8df0bbe5354319fbdde4fbdafd6324386a660018660405161196c929190612c77565b60405180910390a45b505b505050565b5f808373ffffffffffffffffffffffffffffffffffffffff1673ffffffffffffffffffffffffffffffffffffffff1681526020019081526020015f206004015f8260ff1660ff1681526020019081526020015f205f9054906101000a900460ff16611a1c576040517f08c379a0000000000000000000000000000000000000000000000000000000008152600401611a1390612e1f565b60405180910390fd5b5f60025f8473ffffffffffffffffffffffffffffffffffffffff1673ffffffffffffffffffffffffffffffffffffffff1681526020019081526020015f205f8360ff1660ff1681526020019081526020015f209050600281600101805490501015611fcd578060010184908060018154018082558091505060019003905f5260205f20015f9091909190916101000a81548173ffffffffffffffffffffffffffffffffffffffff021916908373ffffffffffffffffffffffffffffffffffffffff1602179055508273ffffffffffffffffffffffffffffffffffffffff168473ffffffffffffffffffffffffffffffffffffffff167f68062c5925c4317adf3a7095478d28b33fd8b41458bc7620b61bc46bf1b24d826002858560010180549050604051611b4c93929190612e3d565b60405180910390a382815f015f6101000a81548173ffffffffffffffffffffffffffffffffffffffff021916908373ffffffffffffffffffffffffffffffffffffffff16021790555060055f9054906101000a900473ffffffffffffffffffffffffffffffffffffffff1673ffffffffffffffffffffffffffffffffffffffff168373ffffffffffffffffffffffffffffffffffffffff1603611bf857611bf283611fee565b50611fe9565b5f815f015f9054906101000a900473ffffffffffffffffffffffffffffffffffffffff16905060025f8273ffffffffffffffffffffffffffffffffffffffff1673ffffffffffffffffffffffffffffffffffffffff1681526020019081526020015f205f8460ff1660ff1681526020019081526020015f2060020185908060018154018082558091505060019003905f5260205f20015f9091909190916101000a81548173ffffffffffffffffffffffffffffffffffffffff021916908373ffffffffffffffffffffffffffffffffffffffff1602179055505f60025f8373ffffffffffffffffffffffffffffffffffffffff1673ffffffffffffffffffffffffffffffffffffffff1681526020019081526020015f205f8560ff1660ff1681526020019081526020015f20600101805490509050600281148015611df657508473ffffffffffffffffffffffffffffffffffffffff1660025f8473ffffffffffffffffffffffffffffffffffffffff1673ffffffffffffffffffffffffffffffffffffffff1681526020019081526020015f205f8660ff1660ff1681526020019081526020015f206001015f81548110611db657611db5612e72565b5b905f5260205f20015f9054906101000a900473ffffffffffffffffffffffffffffffffffffffff1673ffffffffffffffffffffffffffffffffffffffff16145b8015611ebc57508473ffffffffffffffffffffffffffffffffffffffff1660025f8473ffffffffffffffffffffffffffffffffffffffff1673ffffffffffffffffffffffffffffffffffffffff1681526020019081526020015f205f8660ff1660ff1681526020019081526020015f20600101600181548110611e7c57611e7b612e72565b5b905f5260205f20015f9054906101000a900473ffffffffffffffffffffffffffffffffffffffff1673ffffffffffffffffffffffffffffffffffffffff16145b15611fb157600460025f8473ffffffffffffffffffffffffffffffffffffffff1673ffffffffffffffffffffffffffffffffffffffff1681526020019081526020015f205f8660ff1660ff1681526020019081526020015f206002018054905003611f9857600160025f8473ffffffffffffffffffffffffffffffffffffffff1673ffffffffffffffffffffffffffffffffffffffff1681526020019081526020015f205f8660ff1660ff1681526020019081526020015f206003015f6101000a81548160ff021916908315150217905550611f9782611fee565b5b611fac86611fa684876110c1565b8661197c565b611fc6565b611fc586611fbf84876110c1565b8661197c565b5b5050611fe7565b5f611fd884846110c1565b9050611fe5858285612080565b505b505b505050565b5f8190505f670de0b6b3a764000090508173ffffffffffffffffffffffffffffffffffffffff166108fc8290811502906040515f60405180830381858888f1935050505061207b578173ffffffffffffffffffffffffffffffffffffffff166108fc4790811502906040515f60405180830381858888f19350505050158015612079573d5f803e3d5ffd5b505b505050565b5f60025f8473ffffffffffffffffffffffffffffffffffffffff1673ffffffffffffffffffffffffffffffffffffffff1681526020019081526020015f205f8360ff1660ff1681526020019081526020015f209050600481600201805490500361211f576001816003015f6101000a81548160ff021916908315150217905550806002015f61210f91906122ca565b806001015f61211e91906122ca565b5b8060020184908060018154018082558091505060019003905f5260205f20015f9091909190916101000a81548173ffffffffffffffffffffffffffffffffffffffff021916908373ffffffffffffffffffffffffffffffffffffffff1602179055508273ffffffffffffffffffffffffffffffffffffffff168473ffffffffffffffffffffffffffffffffffffffff167f68062c5925c4317adf3a7095478d28b33fd8b41458bc7620b61bc46bf1b24d8260028585600201805490506040516121ea93929190612e3d565b60405180910390a360048160020180549050036122c4576001816003015f6101000a81548160ff02191690831515021790555061222683611fee565b60055f9054906101000a900473ffffffffffffffffffffffffffffffffffffffff1673ffffffffffffffffffffffffffffffffffffffff168373ffffffffffffffffffffffffffffffffffffffff1614612298575f61228584846110c1565b905061229285828561197c565b506122c3565b6122c260055f9054906101000a900473ffffffffffffffffffffffffffffffffffffffff16611fee565b5b5b50505050565b5080545f8255905f5260205f20908101906122e591906122e8565b50565b5b808211156122ff575f815f9055506001016122e9565b5090565b5f60ff82169050919050565b61231881612303565b82525050565b5f6020820190506123315f83018461230f565b92915050565b5f604051905090565b5f80fd5b5f80fd5b5f819050919050565b61235a81612348565b8114612364575f80fd5b50565b5f8135905061237581612351565b92915050565b5f602082840312156123905761238f612340565b5b5f61239d84828501612367565b91505092915050565b5f73ffffffffffffffffffffffffffffffffffffffff82169050919050565b5f6123cf826123a6565b9050919050565b6123df816123c5565b82525050565b5f6020820190506123f85f8301846123d6565b92915050565b61240781612348565b82525050565b5f6020820190506124205f8301846123fe565b92915050565b5f80fd5b5f80fd5b5f601f19601f8301169050919050565b7f4e487b71000000000000000000000000000000000000000000000000000000005f52604160045260245ffd5b6124748261242e565b810181811067ffffffffffffffff821117156124935761249261243e565b5b80604052505050565b5f6124a5612337565b90506124b1828261246b565b919050565b5f67ffffffffffffffff8211156124d0576124cf61243e565b5b6124d98261242e565b9050602081019050919050565b828183375f83830152505050565b5f612506612501846124b6565b61249c565b9050828152602081018484840111156125225761252161242a565b5b61252d8482856124e6565b509392505050565b5f82601f83011261254957612548612426565b5b81356125598482602086016124f4565b91505092915050565b5f6020828403121561257757612576612340565b5b5f82013567ffffffffffffffff81111561259457612593612344565b5b6125a084828501612535565b91505092915050565b6125b2816123c5565b81146125bc575f80fd5b50565b5f813590506125cd816125a9565b92915050565b5f602082840312156125e8576125e7612340565b5b5f6125f5848285016125bf565b91505092915050565b5f8115159050919050565b612612816125fe565b82525050565b5f60208201905061262b5f830184612609565b92915050565b61263a81612303565b8114612644575f80fd5b50565b5f8135905061265581612631565b92915050565b5f806040838503121561267157612670612340565b5b5f61267e858286016125bf565b925050602061268f85828601612647565b9150509250929050565b5f6060820190506126ac5f8301866123d6565b6126b96020830185612609565b6126c660408301846123fe565b949350505050565b5f6060820190506126e15f8301866123fe565b6126ee60208301856123d6565b6126fb60408301846123fe565b949350505050565b5f806040838503121561271957612718612340565b5b5f61272685828601612647565b925050602061273785828601612647565b9150509250929050565b5f6080820190506127545f8301876123d6565b6127616020830186612609565b61276e60408301856123fe565b61277b60608301846123d6565b95945050505050565b5f6020828403121561279957612798612340565b5b5f6127a684828501612647565b91505092915050565b5f82825260208201905092915050565b7f526567697374726174696f6e20636f737420697320302e30352065746865722e5f82015250565b5f6127f36020836127af565b91506127fe826127bf565b602082019050919050565b5f6020820190508181035f830152612820816127e7565b9050919050565b7f5573657220616c7265616479206578697374732e0000000000000000000000005f82015250565b5f61285b6014836127af565b915061286682612827565b602082019050919050565b5f6020820190508181035f8301526128888161284f565b9050919050565b7f526566657272657220646f6573206e6f742065786973742e00000000000000005f82015250565b5f6128c36018836127af565b91506128ce8261288f565b602082019050919050565b5f6020820190508181035f8301526128f0816128b7565b9050919050565b7f43616e6e6f74206265206120636f6e74726163742e00000000000000000000005f82015250565b5f61292b6015836127af565b9150612936826128f7565b602082019050919050565b5f6020820190508181035f8301526129588161291f565b9050919050565b7f4e487b71000000000000000000000000000000000000000000000000000000005f52601160045260245ffd5b5f61299682612348565b91507fffffffffffffffffffffffffffffffffffffffffffffffffffffffffffffffff82036129c8576129c761295f565b5b600182019050919050565b7f55736572206973206e6f7420726567697374657265642e2052656769737465725f8201527f2066697273742e00000000000000000000000000000000000000000000000000602082015250565b5f612a2d6027836127af565b9150612a38826129d3565b604082019050919050565b5f6020820190508181035f830152612a5a81612a21565b9050919050565b7f496e76616c6964206d61747269782e00000000000000000000000000000000005f82015250565b5f612a95600f836127af565b9150612aa082612a61565b602082019050919050565b5f6020820190508181035f830152612ac281612a89565b9050919050565b7f496e76616c69642070726963652e0000000000000000000000000000000000005f82015250565b5f612afd600e836127af565b9150612b0882612ac9565b602082019050919050565b5f6020820190508181035f830152612b2a81612af1565b9050919050565b7f496e76616c6964206c6576656c2e0000000000000000000000000000000000005f82015250565b5f612b65600e836127af565b9150612b7082612b31565b602082019050919050565b5f6020820190508181035f830152612b9281612b59565b9050919050565b7f4c6576656c20616c7265616479206163746976617465642e00000000000000005f82015250565b5f612bcd6018836127af565b9150612bd882612b99565b602082019050919050565b5f6020820190508181035f830152612bfa81612bc1565b9050919050565b5f612c0b82612303565b9150612c1683612303565b9250828203905060ff811115612c2f57612c2e61295f565b5b92915050565b5f819050919050565b5f819050919050565b5f612c61612c5c612c5784612c35565b612c3e565b612303565b9050919050565b612c7181612c47565b82525050565b5f604082019050612c8a5f830185612c68565b612c97602083018461230f565b9392505050565b5f819050919050565b5f612cc1612cbc612cb784612c9e565b612c3e565b612303565b9050919050565b612cd181612ca7565b82525050565b5f604082019050612cea5f830185612cc8565b612cf7602083018461230f565b9392505050565b5f606082019050612d115f830186612c68565b612d1e602083018561230f565b612d2b604083018461230f565b949350505050565b5f819050919050565b5f612d56612d51612d4c84612d33565b612c3e565b612303565b9050919050565b612d6681612d3c565b82525050565b5f606082019050612d7f5f830186612c68565b612d8c602083018561230f565b612d996040830184612d5d565b949350505050565b5f612dab82612303565b9150612db683612303565b9250828201905060ff811115612dcf57612dce61295f565b5b92915050565b7f5265666572726572206c6576656c20697320696e6163746976652e00000000005f82015250565b5f612e09601b836127af565b9150612e1482612dd5565b602082019050919050565b5f6020820190508181035f830152612e3681612dfd565b9050919050565b5f606082019050612e505f830186612cc8565b612e5d602083018561230f565b612e6a604083018461230f565b949350505050565b7f4e487b71000000000000000000000000000000000000000000000000000000005f52603260045260245ffdfea26469706673582212209d5f6765bfae937f173064c3d5a582b8cc794f1a59df2aaad623aa03b65ac23b64736f6c634300081a0033",
					"opcodes": "PUSH1 0x80 PUSH1 0x40 MSTORE PUSH1 0x2 PUSH1 0x4 SSTORE CALLVALUE DUP1 ISZERO PUSH2 0x14 JUMPI PUSH0 DUP1 REVERT JUMPDEST POP PUSH1 0x40 MLOAD PUSH2 0x32C8 CODESIZE SUB DUP1 PUSH2 0x32C8 DUP4 CODECOPY DUP2 DUP2 ADD PUSH1 0x40 MSTORE DUP2 ADD SWAP1 PUSH2 0x36 SWAP2 SWAP1 PUSH2 0x2DC JUMP JUMPDEST PUSH7 0x58D15E17628000 PUSH1 0x6 PUSH0 PUSH1 0x1 PUSH1 0xFF AND DUP2 MSTORE PUSH1 0x20 ADD SWAP1 DUP2 MSTORE PUSH1 0x20 ADD PUSH0 KECCAK256 DUP2 SWAP1 SSTORE POP PUSH0 PUSH1 0x2 SWAP1 POP JUMPDEST PUSH1 0xC PUSH1 0xFF AND DUP2 PUSH1 0xFF AND GT PUSH2 0xC9 JUMPI PUSH1 0x2 PUSH1 0x6 PUSH0 PUSH1 0x1 DUP5 PUSH2 0x7D SWAP2 SWAP1 PUSH2 0x340 JUMP JUMPDEST PUSH1 0xFF AND PUSH1 0xFF AND DUP2 MSTORE PUSH1 0x20 ADD SWAP1 DUP2 MSTORE PUSH1 0x20 ADD PUSH0 KECCAK256 SLOAD PUSH2 0x9B SWAP2 SWAP1 PUSH2 0x37D JUMP JUMPDEST PUSH1 0x6 PUSH0 DUP4 PUSH1 0xFF AND PUSH1 0xFF AND DUP2 MSTORE PUSH1 0x20 ADD SWAP1 DUP2 MSTORE PUSH1 0x20 ADD PUSH0 KECCAK256 DUP2 SWAP1 SSTORE POP DUP1 DUP1 PUSH2 0xC1 SWAP1 PUSH2 0x3BE JUMP JUMPDEST SWAP2 POP POP PUSH2 0x5D JUMP JUMPDEST POP DUP1 PUSH1 0x5 PUSH0 PUSH2 0x100 EXP DUP2 SLOAD DUP2 PUSH20 0xFFFFFFFFFFFFFFFFFFFFFFFFFFFFFFFFFFFFFFFF MUL NOT AND SWAP1 DUP4 PUSH20 0xFFFFFFFFFFFFFFFFFFFFFFFFFFFFFFFFFFFFFFFF AND MUL OR SWAP1 SSTORE POP PUSH0 DUP1 PUSH0 DUP4 PUSH20 0xFFFFFFFFFFFFFFFFFFFFFFFFFFFFFFFFFFFFFFFF AND PUSH20 0xFFFFFFFFFFFFFFFFFFFFFFFFFFFFFFFFFFFFFFFF AND DUP2 MSTORE PUSH1 0x20 ADD SWAP1 DUP2 MSTORE PUSH1 0x20 ADD PUSH0 KECCAK256 SWAP1 POP PUSH1 0x1 DUP2 PUSH0 ADD DUP2 SWAP1 SSTORE POP PUSH0 DUP2 PUSH1 0x1 ADD PUSH0 PUSH2 0x100 EXP DUP2 SLOAD DUP2 PUSH20 0xFFFFFFFFFFFFFFFFFFFFFFFFFFFFFFFFFFFFFFFF MUL NOT AND SWAP1 DUP4 PUSH20 0xFFFFFFFFFFFFFFFFFFFFFFFFFFFFFFFFFFFFFFFF AND MUL OR SWAP1 SSTORE POP PUSH0 DUP2 PUSH1 0x2 ADD DUP2 SWAP1 SSTORE POP DUP2 PUSH1 0x3 PUSH0 PUSH1 0x1 DUP2 MSTORE PUSH1 0x20 ADD SWAP1 DUP2 MSTORE PUSH1 0x20 ADD PUSH0 KECCAK256 PUSH0 PUSH2 0x100 EXP DUP2 SLOAD DUP2 PUSH20 0xFFFFFFFFFFFFFFFFFFFFFFFFFFFFFFFFFFFFFFFF MUL NOT AND SWAP1 DUP4 PUSH20 0xFFFFFFFFFFFFFFFFFFFFFFFFFFFFFFFFFFFFFFFF AND MUL OR SWAP1 SSTORE POP PUSH0 PUSH1 0x1 SWAP1 POP JUMPDEST PUSH1 0xC PUSH1 0xFF AND DUP2 PUSH1 0xFF AND GT PUSH2 0x276 JUMPI PUSH1 0x1 DUP3 PUSH1 0x3 ADD PUSH0 DUP4 PUSH1 0xFF AND PUSH1 0xFF AND DUP2 MSTORE PUSH1 0x20 ADD SWAP1 DUP2 MSTORE PUSH1 0x20 ADD PUSH0 KECCAK256 PUSH0 PUSH2 0x100 EXP DUP2 SLOAD DUP2 PUSH1 0xFF MUL NOT AND SWAP1 DUP4 ISZERO ISZERO MUL OR SWAP1 SSTORE POP PUSH1 0x1 DUP3 PUSH1 0x4 ADD PUSH0 DUP4 PUSH1 0xFF AND PUSH1 0xFF AND DUP2 MSTORE PUSH1 0x20 ADD SWAP1 DUP2 MSTORE PUSH1 0x20 ADD PUSH0 KECCAK256 PUSH0 PUSH2 0x100 EXP DUP2 SLOAD DUP2 PUSH1 0xFF MUL NOT AND SWAP1 DUP4 ISZERO ISZERO MUL OR SWAP1 SSTORE POP DUP1 DUP1 PUSH2 0x26E SWAP1 PUSH2 0x3BE JUMP JUMPDEST SWAP2 POP POP PUSH2 0x1F3 JUMP JUMPDEST POP POP POP PUSH2 0x3E6 JUMP JUMPDEST PUSH0 DUP1 REVERT JUMPDEST PUSH0 PUSH20 0xFFFFFFFFFFFFFFFFFFFFFFFFFFFFFFFFFFFFFFFF DUP3 AND SWAP1 POP SWAP2 SWAP1 POP JUMP JUMPDEST PUSH0 PUSH2 0x2AB DUP3 PUSH2 0x282 JUMP JUMPDEST SWAP1 POP SWAP2 SWAP1 POP JUMP JUMPDEST PUSH2 0x2BB DUP2 PUSH2 0x2A1 JUMP JUMPDEST DUP2 EQ PUSH2 0x2C5 JUMPI PUSH0 DUP1 REVERT JUMPDEST POP JUMP JUMPDEST PUSH0 DUP2 MLOAD SWAP1 POP PUSH2 0x2D6 DUP2 PUSH2 0x2B2 JUMP JUMPDEST SWAP3 SWAP2 POP POP JUMP JUMPDEST PUSH0 PUSH1 0x20 DUP3 DUP5 SUB SLT ISZERO PUSH2 0x2F1 JUMPI PUSH2 0x2F0 PUSH2 0x27E JUMP JUMPDEST JUMPDEST PUSH0 PUSH2 0x2FE DUP5 DUP3 DUP6 ADD PUSH2 0x2C8 JUMP JUMPDEST SWAP2 POP POP SWAP3 SWAP2 POP POP JUMP JUMPDEST PUSH0 PUSH1 0xFF DUP3 AND SWAP1 POP SWAP2 SWAP1 POP JUMP JUMPDEST PUSH32 0x4E487B7100000000000000000000000000000000000000000000000000000000 PUSH0 MSTORE PUSH1 0x11 PUSH1 0x4 MSTORE PUSH1 0x24 PUSH0 REVERT JUMPDEST PUSH0 PUSH2 0x34A DUP3 PUSH2 0x307 JUMP JUMPDEST SWAP2 POP PUSH2 0x355 DUP4 PUSH2 0x307 JUMP JUMPDEST SWAP3 POP DUP3 DUP3 SUB SWAP1 POP PUSH1 0xFF DUP2 GT ISZERO PUSH2 0x36E JUMPI PUSH2 0x36D PUSH2 0x313 JUMP JUMPDEST JUMPDEST SWAP3 SWAP2 POP POP JUMP JUMPDEST PUSH0 DUP2 SWAP1 POP SWAP2 SWAP1 POP JUMP JUMPDEST PUSH0 PUSH2 0x387 DUP3 PUSH2 0x374 JUMP JUMPDEST SWAP2 POP PUSH2 0x392 DUP4 PUSH2 0x374 JUMP JUMPDEST SWAP3 POP DUP3 DUP3 MUL PUSH2 0x3A0 DUP2 PUSH2 0x374 JUMP JUMPDEST SWAP2 POP DUP3 DUP3 DIV DUP5 EQ DUP4 ISZERO OR PUSH2 0x3B7 JUMPI PUSH2 0x3B6 PUSH2 0x313 JUMP JUMPDEST JUMPDEST POP SWAP3 SWAP2 POP POP JUMP JUMPDEST PUSH0 PUSH2 0x3C8 DUP3 PUSH2 0x307 JUMP JUMPDEST SWAP2 POP PUSH1 0xFF DUP3 SUB PUSH2 0x3DB JUMPI PUSH2 0x3DA PUSH2 0x313 JUMP JUMPDEST JUMPDEST PUSH1 0x1 DUP3 ADD SWAP1 POP SWAP2 SWAP1 POP JUMP JUMPDEST PUSH2 0x2ED5 DUP1 PUSH2 0x3F3 PUSH0 CODECOPY PUSH0 RETURN INVALID PUSH1 0x80 PUSH1 0x40 MSTORE PUSH1 0x4 CALLDATASIZE LT PUSH2 0xE0 JUMPI PUSH0 CALLDATALOAD PUSH1 0xE0 SHR DUP1 PUSH4 0x8DA5CB5B GT PUSH2 0x7E JUMPI DUP1 PUSH4 0xD4414B50 GT PUSH2 0x58 JUMPI DUP1 PUSH4 0xD4414B50 EQ PUSH2 0x34F JUMPI DUP1 PUSH4 0xE06E8DBD EQ PUSH2 0x38E JUMPI DUP1 PUSH4 0xECABDF79 EQ PUSH2 0x3CA JUMPI DUP1 PUSH4 0xFA45323D EQ PUSH2 0x406 JUMPI PUSH2 0x112 JUMP JUMPDEST DUP1 PUSH4 0x8DA5CB5B EQ PUSH2 0x2CB JUMPI DUP1 PUSH4 0xA87430BA EQ PUSH2 0x2F5 JUMPI DUP1 PUSH4 0xBE389D57 EQ PUSH2 0x333 JUMPI PUSH2 0x112 JUMP JUMPDEST DUP1 PUSH4 0x42526E4E GT PUSH2 0xBA JUMPI DUP1 PUSH4 0x42526E4E EQ PUSH2 0x1F9 JUMPI DUP1 PUSH4 0x509222CD EQ PUSH2 0x235 JUMPI DUP1 PUSH4 0x797EEE24 EQ PUSH2 0x271 JUMPI DUP1 PUSH4 0x87B2B7E7 EQ PUSH2 0x28D JUMPI PUSH2 0x112 JUMP JUMPDEST DUP1 PUSH4 0x29C70400 EQ PUSH2 0x169 JUMPI DUP1 PUSH4 0x2A2D0C47 EQ PUSH2 0x193 JUMPI DUP1 PUSH4 0x348D4487 EQ PUSH2 0x1CF JUMPI PUSH2 0x112 JUMP JUMPDEST CALLDATASIZE PUSH2 0x112 JUMPI PUSH2 0x110 CALLER PUSH1 0x5 PUSH0 SWAP1 SLOAD SWAP1 PUSH2 0x100 EXP SWAP1 DIV PUSH20 0xFFFFFFFFFFFFFFFFFFFFFFFFFFFFFFFFFFFFFFFF AND PUSH2 0x442 JUMP JUMPDEST STOP JUMPDEST PUSH2 0x167 CALLER PUSH2 0x162 PUSH0 CALLDATASIZE DUP1 DUP1 PUSH1 0x1F ADD PUSH1 0x20 DUP1 SWAP2 DIV MUL PUSH1 0x20 ADD PUSH1 0x40 MLOAD SWAP1 DUP2 ADD PUSH1 0x40 MSTORE DUP1 SWAP4 SWAP3 SWAP2 SWAP1 DUP2 DUP2 MSTORE PUSH1 0x20 ADD DUP4 DUP4 DUP1 DUP3 DUP5 CALLDATACOPY PUSH0 DUP2 DUP5 ADD MSTORE PUSH1 0x1F NOT PUSH1 0x1F DUP3 ADD AND SWAP1 POP DUP1 DUP4 ADD SWAP3 POP POP POP POP POP POP POP PUSH2 0x885 JUMP JUMPDEST PUSH2 0x442 JUMP JUMPDEST STOP JUMPDEST CALLVALUE DUP1 ISZERO PUSH2 0x174 JUMPI PUSH0 DUP1 REVERT JUMPDEST POP PUSH2 0x17D PUSH2 0x892 JUMP JUMPDEST PUSH1 0x40 MLOAD PUSH2 0x18A SWAP2 SWAP1 PUSH2 0x231E JUMP JUMPDEST PUSH1 0x40 MLOAD DUP1 SWAP2 SUB SWAP1 RETURN JUMPDEST CALLVALUE DUP1 ISZERO PUSH2 0x19E JUMPI PUSH0 DUP1 REVERT JUMPDEST POP PUSH2 0x1B9 PUSH1 0x4 DUP1 CALLDATASIZE SUB DUP2 ADD SWAP1 PUSH2 0x1B4 SWAP2 SWAP1 PUSH2 0x237B JUMP JUMPDEST PUSH2 0x897 JUMP JUMPDEST PUSH1 0x40 MLOAD PUSH2 0x1C6 SWAP2 SWAP1 PUSH2 0x23E5 JUMP JUMPDEST PUSH1 0x40 MLOAD DUP1 SWAP2 SUB SWAP1 RETURN JUMPDEST CALLVALUE DUP1 ISZERO PUSH2 0x1DA JUMPI PUSH0 DUP1 REVERT JUMPDEST POP PUSH2 0x1E3 PUSH2 0x8C7 JUMP JUMPDEST PUSH1 0x40 MLOAD PUSH2 0x1F0 SWAP2 SWAP1 PUSH2 0x240D JUMP JUMPDEST PUSH1 0x40 MLOAD DUP1 SWAP2 SUB SWAP1 RETURN JUMPDEST CALLVALUE DUP1 ISZERO PUSH2 0x204 JUMPI PUSH0 DUP1 REVERT JUMPDEST POP PUSH2 0x21F PUSH1 0x4 DUP1 CALLDATASIZE SUB DUP2 ADD SWAP1 PUSH2 0x21A SWAP2 SWAP1 PUSH2 0x2562 JUMP JUMPDEST PUSH2 0x885 JUMP JUMPDEST PUSH1 0x40 MLOAD PUSH2 0x22C SWAP2 SWAP1 PUSH2 0x23E5 JUMP JUMPDEST PUSH1 0x40 MLOAD DUP1 SWAP2 SUB SWAP1 RETURN JUMPDEST CALLVALUE DUP1 ISZERO PUSH2 0x240 JUMPI PUSH0 DUP1 REVERT JUMPDEST POP PUSH2 0x25B PUSH1 0x4 DUP1 CALLDATASIZE SUB DUP2 ADD SWAP1 PUSH2 0x256 SWAP2 SWAP1 PUSH2 0x25D3 JUMP JUMPDEST PUSH2 0x8CD JUMP JUMPDEST PUSH1 0x40 MLOAD PUSH2 0x268 SWAP2 SWAP1 PUSH2 0x2618 JUMP JUMPDEST PUSH1 0x40 MLOAD DUP1 SWAP2 SUB SWAP1 RETURN JUMPDEST PUSH2 0x28B PUSH1 0x4 DUP1 CALLDATASIZE SUB DUP2 ADD SWAP1 PUSH2 0x286 SWAP2 SWAP1 PUSH2 0x25D3 JUMP JUMPDEST PUSH2 0x917 JUMP JUMPDEST STOP JUMPDEST CALLVALUE DUP1 ISZERO PUSH2 0x298 JUMPI PUSH0 DUP1 REVERT JUMPDEST POP PUSH2 0x2B3 PUSH1 0x4 DUP1 CALLDATASIZE SUB DUP2 ADD SWAP1 PUSH2 0x2AE SWAP2 SWAP1 PUSH2 0x265B JUMP JUMPDEST PUSH2 0x924 JUMP JUMPDEST PUSH1 0x40 MLOAD PUSH2 0x2C2 SWAP4 SWAP3 SWAP2 SWAP1 PUSH2 0x2699 JUMP JUMPDEST PUSH1 0x40 MLOAD DUP1 SWAP2 SUB SWAP1 RETURN JUMPDEST CALLVALUE DUP1 ISZERO PUSH2 0x2D6 JUMPI PUSH0 DUP1 REVERT JUMPDEST POP PUSH2 0x2DF PUSH2 0x980 JUMP JUMPDEST PUSH1 0x40 MLOAD PUSH2 0x2EC SWAP2 SWAP1 PUSH2 0x23E5 JUMP JUMPDEST PUSH1 0x40 MLOAD DUP1 SWAP2 SUB SWAP1 RETURN JUMPDEST CALLVALUE DUP1 ISZERO PUSH2 0x300 JUMPI PUSH0 DUP1 REVERT JUMPDEST POP PUSH2 0x31B PUSH1 0x4 DUP1 CALLDATASIZE SUB DUP2 ADD SWAP1 PUSH2 0x316 SWAP2 SWAP1 PUSH2 0x25D3 JUMP JUMPDEST PUSH2 0x9A5 JUMP JUMPDEST PUSH1 0x40 MLOAD PUSH2 0x32A SWAP4 SWAP3 SWAP2 SWAP1 PUSH2 0x26CE JUMP JUMPDEST PUSH1 0x40 MLOAD DUP1 SWAP2 SUB SWAP1 RETURN JUMPDEST PUSH2 0x34D PUSH1 0x4 DUP1 CALLDATASIZE SUB DUP2 ADD SWAP1 PUSH2 0x348 SWAP2 SWAP1 PUSH2 0x2703 JUMP JUMPDEST PUSH2 0x9E9 JUMP JUMPDEST STOP JUMPDEST CALLVALUE DUP1 ISZERO PUSH2 0x35A JUMPI PUSH0 DUP1 REVERT JUMPDEST POP PUSH2 0x375 PUSH1 0x4 DUP1 CALLDATASIZE SUB DUP2 ADD SWAP1 PUSH2 0x370 SWAP2 SWAP1 PUSH2 0x265B JUMP JUMPDEST PUSH2 0x1040 JUMP JUMPDEST PUSH1 0x40 MLOAD PUSH2 0x385 SWAP5 SWAP4 SWAP3 SWAP2 SWAP1 PUSH2 0x2741 JUMP JUMPDEST PUSH1 0x40 MLOAD DUP1 SWAP2 SUB SWAP1 RETURN JUMPDEST CALLVALUE DUP1 ISZERO PUSH2 0x399 JUMPI PUSH0 DUP1 REVERT JUMPDEST POP PUSH2 0x3B4 PUSH1 0x4 DUP1 CALLDATASIZE SUB DUP2 ADD SWAP1 PUSH2 0x3AF SWAP2 SWAP1 PUSH2 0x265B JUMP JUMPDEST PUSH2 0x10C1 JUMP JUMPDEST PUSH1 0x40 MLOAD PUSH2 0x3C1 SWAP2 SWAP1 PUSH2 0x23E5 JUMP JUMPDEST PUSH1 0x40 MLOAD DUP1 SWAP2 SUB SWAP1 RETURN JUMPDEST CALLVALUE DUP1 ISZERO PUSH2 0x3D5 JUMPI PUSH0 DUP1 REVERT JUMPDEST POP PUSH2 0x3F0 PUSH1 0x4 DUP1 CALLDATASIZE SUB DUP2 ADD SWAP1 PUSH2 0x3EB SWAP2 SWAP1 PUSH2 0x2784 JUMP JUMPDEST PUSH2 0x129C JUMP JUMPDEST PUSH1 0x40 MLOAD PUSH2 0x3FD SWAP2 SWAP1 PUSH2 0x240D JUMP JUMPDEST PUSH1 0x40 MLOAD DUP1 SWAP2 SUB SWAP1 RETURN JUMPDEST CALLVALUE DUP1 ISZERO PUSH2 0x411 JUMPI PUSH0 DUP1 REVERT JUMPDEST POP PUSH2 0x42C PUSH1 0x4 DUP1 CALLDATASIZE SUB DUP2 ADD SWAP1 PUSH2 0x427 SWAP2 SWAP1 PUSH2 0x265B JUMP JUMPDEST PUSH2 0x12B1 JUMP JUMPDEST PUSH1 0x40 MLOAD PUSH2 0x439 SWAP2 SWAP1 PUSH2 0x23E5 JUMP JUMPDEST PUSH1 0x40 MLOAD DUP1 SWAP2 SUB SWAP1 RETURN JUMPDEST PUSH7 0xB1A2BC2EC50000 CALLVALUE EQ PUSH2 0x48B JUMPI PUSH1 0x40 MLOAD PUSH32 0x8C379A000000000000000000000000000000000000000000000000000000000 DUP2 MSTORE PUSH1 0x4 ADD PUSH2 0x482 SWAP1 PUSH2 0x2809 JUMP JUMPDEST PUSH1 0x40 MLOAD DUP1 SWAP2 SUB SWAP1 REVERT JUMPDEST PUSH2 0x494 DUP3 PUSH2 0x8CD JUMP JUMPDEST ISZERO PUSH2 0x4D4 JUMPI PUSH1 0x40 MLOAD PUSH32 0x8C379A000000000000000000000000000000000000000000000000000000000 DUP2 MSTORE PUSH1 0x4 ADD PUSH2 0x4CB SWAP1 PUSH2 0x2871 JUMP JUMPDEST PUSH1 0x40 MLOAD DUP1 SWAP2 SUB SWAP1 REVERT JUMPDEST PUSH2 0x4DD DUP2 PUSH2 0x8CD JUMP JUMPDEST PUSH2 0x51C JUMPI PUSH1 0x40 MLOAD PUSH32 0x8C379A000000000000000000000000000000000000000000000000000000000 DUP2 MSTORE PUSH1 0x4 ADD PUSH2 0x513 SWAP1 PUSH2 0x28D9 JUMP JUMPDEST PUSH1 0x40 MLOAD DUP1 SWAP2 SUB SWAP1 REVERT JUMPDEST PUSH0 DUP3 EXTCODESIZE SWAP1 POP PUSH0 DUP2 PUSH4 0xFFFFFFFF AND EQ PUSH2 0x569 JUMPI PUSH1 0x40 MLOAD PUSH32 0x8C379A000000000000000000000000000000000000000000000000000000000 DUP2 MSTORE PUSH1 0x4 ADD PUSH2 0x560 SWAP1 PUSH2 0x2941 JUMP JUMPDEST PUSH1 0x40 MLOAD DUP1 SWAP2 SUB SWAP1 REVERT JUMPDEST PUSH0 DUP1 PUSH0 DUP6 PUSH20 0xFFFFFFFFFFFFFFFFFFFFFFFFFFFFFFFFFFFFFFFF AND PUSH20 0xFFFFFFFFFFFFFFFFFFFFFFFFFFFFFFFFFFFFFFFF AND DUP2 MSTORE PUSH1 0x20 ADD SWAP1 DUP2 MSTORE PUSH1 0x20 ADD PUSH0 KECCAK256 SWAP1 POP PUSH1 0x4 SLOAD DUP2 PUSH0 ADD DUP2 SWAP1 SSTORE POP DUP3 DUP2 PUSH1 0x1 ADD PUSH0 PUSH2 0x100 EXP DUP2 SLOAD DUP2 PUSH20 0xFFFFFFFFFFFFFFFFFFFFFFFFFFFFFFFFFFFFFFFF MUL NOT AND SWAP1 DUP4 PUSH20 0xFFFFFFFFFFFFFFFFFFFFFFFFFFFFFFFFFFFFFFFF AND MUL OR SWAP1 SSTORE POP PUSH0 DUP2 PUSH1 0x2 ADD DUP2 SWAP1 SSTORE POP DUP4 PUSH1 0x3 PUSH0 PUSH1 0x4 SLOAD DUP2 MSTORE PUSH1 0x20 ADD SWAP1 DUP2 MSTORE PUSH1 0x20 ADD PUSH0 KECCAK256 PUSH0 PUSH2 0x100 EXP DUP2 SLOAD DUP2 PUSH20 0xFFFFFFFFFFFFFFFFFFFFFFFFFFFFFFFFFFFFFFFF MUL NOT AND SWAP1 DUP4 PUSH20 0xFFFFFFFFFFFFFFFFFFFFFFFFFFFFFFFFFFFFFFFF AND MUL OR SWAP1 SSTORE POP PUSH1 0x4 PUSH0 DUP2 SLOAD DUP1 SWAP3 SWAP2 SWAP1 PUSH2 0x660 SWAP1 PUSH2 0x298C JUMP JUMPDEST SWAP2 SWAP1 POP SSTORE POP PUSH0 DUP1 DUP5 PUSH20 0xFFFFFFFFFFFFFFFFFFFFFFFFFFFFFFFFFFFFFFFF AND PUSH20 0xFFFFFFFFFFFFFFFFFFFFFFFFFFFFFFFFFFFFFFFF AND DUP2 MSTORE PUSH1 0x20 ADD SWAP1 DUP2 MSTORE PUSH1 0x20 ADD PUSH0 KECCAK256 PUSH1 0x2 ADD PUSH0 DUP2 SLOAD DUP1 SWAP3 SWAP2 SWAP1 PUSH2 0x6B4 SWAP1 PUSH2 0x298C JUMP JUMPDEST SWAP2 SWAP1 POP SSTORE POP PUSH1 0x1 DUP2 PUSH1 0x3 ADD PUSH0 PUSH1 0x1 PUSH1 0xFF AND DUP2 MSTORE PUSH1 0x20 ADD SWAP1 DUP2 MSTORE PUSH1 0x20 ADD PUSH0 KECCAK256 PUSH0 PUSH2 0x100 EXP DUP2 SLOAD DUP2 PUSH1 0xFF MUL NOT AND SWAP1 DUP4 ISZERO ISZERO MUL OR SWAP1 SSTORE POP PUSH1 0x1 DUP2 PUSH1 0x4 ADD PUSH0 PUSH1 0x1 PUSH1 0xFF AND DUP2 MSTORE PUSH1 0x20 ADD SWAP1 DUP2 MSTORE PUSH1 0x20 ADD PUSH0 KECCAK256 PUSH0 PUSH2 0x100 EXP DUP2 SLOAD DUP2 PUSH1 0xFF MUL NOT AND SWAP1 DUP4 ISZERO ISZERO MUL OR SWAP1 SSTORE POP PUSH0 PUSH2 0x723 DUP6 PUSH1 0x1 PUSH2 0x12B1 JUMP JUMPDEST SWAP1 POP DUP1 PUSH1 0x1 PUSH0 DUP8 PUSH20 0xFFFFFFFFFFFFFFFFFFFFFFFFFFFFFFFFFFFFFFFF AND PUSH20 0xFFFFFFFFFFFFFFFFFFFFFFFFFFFFFFFFFFFFFFFF AND DUP2 MSTORE PUSH1 0x20 ADD SWAP1 DUP2 MSTORE PUSH1 0x20 ADD PUSH0 KECCAK256 PUSH0 PUSH1 0x1 PUSH1 0xFF AND DUP2 MSTORE PUSH1 0x20 ADD SWAP1 DUP2 MSTORE PUSH1 0x20 ADD PUSH0 KECCAK256 PUSH0 ADD PUSH0 PUSH2 0x100 EXP DUP2 SLOAD DUP2 PUSH20 0xFFFFFFFFFFFFFFFFFFFFFFFFFFFFFFFFFFFFFFFF MUL NOT AND SWAP1 DUP4 PUSH20 0xFFFFFFFFFFFFFFFFFFFFFFFFFFFFFFFFFFFFFFFF AND MUL OR SWAP1 SSTORE POP PUSH2 0x7C1 DUP6 DUP3 PUSH1 0x1 PUSH2 0x148C JUMP JUMPDEST PUSH2 0x7D7 DUP6 PUSH2 0x7D0 DUP8 PUSH1 0x1 PUSH2 0x10C1 JUMP JUMPDEST PUSH1 0x1 PUSH2 0x197C JUMP JUMPDEST DUP2 PUSH0 ADD SLOAD DUP5 PUSH20 0xFFFFFFFFFFFFFFFFFFFFFFFFFFFFFFFFFFFFFFFF AND DUP7 PUSH20 0xFFFFFFFFFFFFFFFFFFFFFFFFFFFFFFFFFFFFFFFF AND PUSH32 0x309BB360E8B69C23937CCC5FB01F9AEEEAD1C95A99604E175113FF82F2B1723A PUSH0 DUP1 DUP10 PUSH20 0xFFFFFFFFFFFFFFFFFFFFFFFFFFFFFFFFFFFFFFFF AND PUSH20 0xFFFFFFFFFFFFFFFFFFFFFFFFFFFFFFFFFFFFFFFF AND DUP2 MSTORE PUSH1 0x20 ADD SWAP1 DUP2 MSTORE PUSH1 0x20 ADD PUSH0 KECCAK256 PUSH0 ADD SLOAD PUSH1 0x40 MLOAD PUSH2 0x876 SWAP2 SWAP1 PUSH2 0x240D JUMP JUMPDEST PUSH1 0x40 MLOAD DUP1 SWAP2 SUB SWAP1 LOG4 POP POP POP POP POP JUMP JUMPDEST PUSH0 PUSH1 0x14 DUP3 ADD MLOAD SWAP1 POP SWAP2 SWAP1 POP JUMP JUMPDEST PUSH1 0xC DUP2 JUMP JUMPDEST PUSH1 0x3 PUSH1 0x20 MSTORE DUP1 PUSH0 MSTORE PUSH1 0x40 PUSH0 KECCAK256 PUSH0 SWAP2 POP SLOAD SWAP1 PUSH2 0x100 EXP SWAP1 DIV PUSH20 0xFFFFFFFFFFFFFFFFFFFFFFFFFFFFFFFFFFFFFFFF AND DUP2 JUMP JUMPDEST PUSH1 0x4 SLOAD DUP2 JUMP JUMPDEST PUSH0 DUP1 PUSH0 DUP1 DUP5 PUSH20 0xFFFFFFFFFFFFFFFFFFFFFFFFFFFFFFFFFFFFFFFF AND PUSH20 0xFFFFFFFFFFFFFFFFFFFFFFFFFFFFFFFFFFFFFFFF AND DUP2 MSTORE PUSH1 0x20 ADD SWAP1 DUP2 MSTORE PUSH1 0x20 ADD PUSH0 KECCAK256 PUSH0 ADD SLOAD EQ ISZERO SWAP1 POP SWAP2 SWAP1 POP JUMP JUMPDEST PUSH2 0x921 CALLER DUP3 PUSH2 0x442 JUMP JUMPDEST POP JUMP JUMPDEST PUSH1 0x1 PUSH1 0x20 MSTORE DUP2 PUSH0 MSTORE PUSH1 0x40 PUSH0 KECCAK256 PUSH1 0x20 MSTORE DUP1 PUSH0 MSTORE PUSH1 0x40 PUSH0 KECCAK256 PUSH0 SWAP2 POP SWAP2 POP POP DUP1 PUSH0 ADD PUSH0 SWAP1 SLOAD SWAP1 PUSH2 0x100 EXP SWAP1 DIV PUSH20 0xFFFFFFFFFFFFFFFFFFFFFFFFFFFFFFFFFFFFFFFF AND SWAP1 DUP1 PUSH1 0x2 ADD PUSH0 SWAP1 SLOAD SWAP1 PUSH2 0x100 EXP SWAP1 DIV PUSH1 0xFF AND SWAP1 DUP1 PUSH1 0x3 ADD SLOAD SWAP1 POP DUP4 JUMP JUMPDEST PUSH1 0x5 PUSH0 SWAP1 SLOAD SWAP1 PUSH2 0x100 EXP SWAP1 DIV PUSH20 0xFFFFFFFFFFFFFFFFFFFFFFFFFFFFFFFFFFFFFFFF AND DUP2 JUMP JUMPDEST PUSH0 PUSH1 0x20 MSTORE DUP1 PUSH0 MSTORE PUSH1 0x40 PUSH0 KECCAK256 PUSH0 SWAP2 POP SWAP1 POP DUP1 PUSH0 ADD SLOAD SWAP1 DUP1 PUSH1 0x1 ADD PUSH0 SWAP1 SLOAD SWAP1 PUSH2 0x100 EXP SWAP1 DIV PUSH20 0xFFFFFFFFFFFFFFFFFFFFFFFFFFFFFFFFFFFFFFFF AND SWAP1 DUP1 PUSH1 0x2 ADD SLOAD SWAP1 POP DUP4 JUMP JUMPDEST PUSH2 0x9F2 CALLER PUSH2 0x8CD JUMP JUMPDEST PUSH2 0xA31 JUMPI PUSH1 0x40 MLOAD PUSH32 0x8C379A000000000000000000000000000000000000000000000000000000000 DUP2 MSTORE PUSH1 0x4 ADD PUSH2 0xA28 SWAP1 PUSH2 0x2A43 JUMP JUMPDEST PUSH1 0x40 MLOAD DUP1 SWAP2 SUB SWAP1 REVERT JUMPDEST PUSH1 0x1 DUP3 PUSH1 0xFF AND EQ DUP1 PUSH2 0xA46 JUMPI POP PUSH1 0x2 DUP3 PUSH1 0xFF AND EQ JUMPDEST PUSH2 0xA85 JUMPI PUSH1 0x40 MLOAD PUSH32 0x8C379A000000000000000000000000000000000000000000000000000000000 DUP2 MSTORE PUSH1 0x4 ADD PUSH2 0xA7C SWAP1 PUSH2 0x2AAB JUMP JUMPDEST PUSH1 0x40 MLOAD DUP1 SWAP2 SUB SWAP1 REVERT JUMPDEST PUSH1 0x6 PUSH0 DUP3 PUSH1 0xFF AND PUSH1 0xFF AND DUP2 MSTORE PUSH1 0x20 ADD SWAP1 DUP2 MSTORE PUSH1 0x20 ADD PUSH0 KECCAK256 SLOAD CALLVALUE EQ PUSH2 0xADE JUMPI PUSH1 0x40 MLOAD PUSH32 0x8C379A000000000000000000000000000000000000000000000000000000000 DUP2 MSTORE PUSH1 0x4 ADD PUSH2 0xAD5 SWAP1 PUSH2 0x2B13 JUMP JUMPDEST PUSH1 0x40 MLOAD DUP1 SWAP2 SUB SWAP1 REVERT JUMPDEST PUSH1 0x1 DUP2 PUSH1 0xFF AND GT DUP1 ISZERO PUSH2 0xAF8 JUMPI POP PUSH1 0xC PUSH1 0xFF AND DUP2 PUSH1 0xFF AND GT ISZERO JUMPDEST PUSH2 0xB37 JUMPI PUSH1 0x40 MLOAD PUSH32 0x8C379A000000000000000000000000000000000000000000000000000000000 DUP2 MSTORE PUSH1 0x4 ADD PUSH2 0xB2E SWAP1 PUSH2 0x2B7B JUMP JUMPDEST PUSH1 0x40 MLOAD DUP1 SWAP2 SUB SWAP1 REVERT JUMPDEST PUSH1 0x1 DUP3 PUSH1 0xFF AND SUB PUSH2 0xDC1 JUMPI PUSH0 DUP1 CALLER PUSH20 0xFFFFFFFFFFFFFFFFFFFFFFFFFFFFFFFFFFFFFFFF AND PUSH20 0xFFFFFFFFFFFFFFFFFFFFFFFFFFFFFFFFFFFFFFFF AND DUP2 MSTORE PUSH1 0x20 ADD SWAP1 DUP2 MSTORE PUSH1 0x20 ADD PUSH0 KECCAK256 PUSH1 0x3 ADD PUSH0 DUP3 PUSH1 0xFF AND PUSH1 0xFF AND DUP2 MSTORE PUSH1 0x20 ADD SWAP1 DUP2 MSTORE PUSH1 0x20 ADD PUSH0 KECCAK256 PUSH0 SWAP1 SLOAD SWAP1 PUSH2 0x100 EXP SWAP1 DIV PUSH1 0xFF AND ISZERO PUSH2 0xBE3 JUMPI PUSH1 0x40 MLOAD PUSH32 0x8C379A000000000000000000000000000000000000000000000000000000000 DUP2 MSTORE PUSH1 0x4 ADD PUSH2 0xBDA SWAP1 PUSH2 0x2BE3 JUMP JUMPDEST PUSH1 0x40 MLOAD DUP1 SWAP2 SUB SWAP1 REVERT JUMPDEST PUSH1 0x1 PUSH0 CALLER PUSH20 0xFFFFFFFFFFFFFFFFFFFFFFFFFFFFFFFFFFFFFFFF AND PUSH20 0xFFFFFFFFFFFFFFFFFFFFFFFFFFFFFFFFFFFFFFFF AND DUP2 MSTORE PUSH1 0x20 ADD SWAP1 DUP2 MSTORE PUSH1 0x20 ADD PUSH0 KECCAK256 PUSH0 PUSH1 0x1 DUP4 PUSH2 0xC2E SWAP2 SWAP1 PUSH2 0x2C01 JUMP JUMPDEST PUSH1 0xFF AND PUSH1 0xFF AND DUP2 MSTORE PUSH1 0x20 ADD SWAP1 DUP2 MSTORE PUSH1 0x20 ADD PUSH0 KECCAK256 PUSH1 0x2 ADD PUSH0 SWAP1 SLOAD SWAP1 PUSH2 0x100 EXP SWAP1 DIV PUSH1 0xFF AND ISZERO PUSH2 0xCCF JUMPI PUSH0 PUSH1 0x1 PUSH0 CALLER PUSH20 0xFFFFFFFFFFFFFFFFFFFFFFFFFFFFFFFFFFFFFFFF AND PUSH20 0xFFFFFFFFFFFFFFFFFFFFFFFFFFFFFFFFFFFFFFFF AND DUP2 MSTORE PUSH1 0x20 ADD SWAP1 DUP2 MSTORE PUSH1 0x20 ADD PUSH0 KECCAK256 PUSH0 PUSH1 0x1 DUP5 PUSH2 0xCA2 SWAP2 SWAP1 PUSH2 0x2C01 JUMP JUMPDEST PUSH1 0xFF AND PUSH1 0xFF AND DUP2 MSTORE PUSH1 0x20 ADD SWAP1 DUP2 MSTORE PUSH1 0x20 ADD PUSH0 KECCAK256 PUSH1 0x2 ADD PUSH0 PUSH2 0x100 EXP DUP2 SLOAD DUP2 PUSH1 0xFF MUL NOT AND SWAP1 DUP4 ISZERO ISZERO MUL OR SWAP1 SSTORE POP JUMPDEST PUSH0 PUSH2 0xCDA CALLER DUP4 PUSH2 0x12B1 JUMP JUMPDEST SWAP1 POP PUSH1 0x1 PUSH0 DUP1 CALLER PUSH20 0xFFFFFFFFFFFFFFFFFFFFFFFFFFFFFFFFFFFFFFFF AND PUSH20 0xFFFFFFFFFFFFFFFFFFFFFFFFFFFFFFFFFFFFFFFF AND DUP2 MSTORE PUSH1 0x20 ADD SWAP1 DUP2 MSTORE PUSH1 0x20 ADD PUSH0 KECCAK256 PUSH1 0x3 ADD PUSH0 DUP5 PUSH1 0xFF AND PUSH1 0xFF AND DUP2 MSTORE PUSH1 0x20 ADD SWAP1 DUP2 MSTORE PUSH1 0x20 ADD PUSH0 KECCAK256 PUSH0 PUSH2 0x100 EXP DUP2 SLOAD DUP2 PUSH1 0xFF MUL NOT AND SWAP1 DUP4 ISZERO ISZERO MUL OR SWAP1 SSTORE POP PUSH2 0xD53 CALLER DUP3 DUP5 PUSH2 0x148C JUMP JUMPDEST DUP1 PUSH20 0xFFFFFFFFFFFFFFFFFFFFFFFFFFFFFFFFFFFFFFFF AND CALLER PUSH20 0xFFFFFFFFFFFFFFFFFFFFFFFFFFFFFFFFFFFFFFFF AND PUSH32 0x18A92DF19FD94D6CFFF209966673A5CA05A1C8E2BB68E097FCE2BDC2ED811119 PUSH1 0x1 DUP6 PUSH1 0x40 MLOAD PUSH2 0xDB3 SWAP3 SWAP2 SWAP1 PUSH2 0x2C77 JUMP JUMPDEST PUSH1 0x40 MLOAD DUP1 SWAP2 SUB SWAP1 LOG3 POP PUSH2 0x103C JUMP JUMPDEST PUSH0 DUP1 CALLER PUSH20 0xFFFFFFFFFFFFFFFFFFFFFFFFFFFFFFFFFFFFFFFF AND PUSH20 0xFFFFFFFFFFFFFFFFFFFFFFFFFFFFFFFFFFFFFFFF AND DUP2 MSTORE PUSH1 0x20 ADD SWAP1 DUP2 MSTORE PUSH1 0x20 ADD PUSH0 KECCAK256 PUSH1 0x4 ADD PUSH0 DUP3 PUSH1 0xFF AND PUSH1 0xFF AND DUP2 MSTORE PUSH1 0x20 ADD SWAP1 DUP2 MSTORE PUSH1 0x20 ADD PUSH0 KECCAK256 PUSH0 SWAP1 SLOAD SWAP1 PUSH2 0x100 EXP SWAP1 DIV PUSH1 0xFF AND ISZERO PUSH2 0xE62 JUMPI PUSH1 0x40 MLOAD PUSH32 0x8C379A000000000000000000000000000000000000000000000000000000000 DUP2 MSTORE PUSH1 0x4 ADD PUSH2 0xE59 SWAP1 PUSH2 0x2BE3 JUMP JUMPDEST PUSH1 0x40 MLOAD DUP1 SWAP2 SUB SWAP1 REVERT JUMPDEST PUSH1 0x2 PUSH0 CALLER PUSH20 0xFFFFFFFFFFFFFFFFFFFFFFFFFFFFFFFFFFFFFFFF AND PUSH20 0xFFFFFFFFFFFFFFFFFFFFFFFFFFFFFFFFFFFFFFFF AND DUP2 MSTORE PUSH1 0x20 ADD SWAP1 DUP2 MSTORE PUSH1 0x20 ADD PUSH0 KECCAK256 PUSH0 PUSH1 0x1 DUP4 PUSH2 0xEAD SWAP2 SWAP1 PUSH2 0x2C01 JUMP JUMPDEST PUSH1 0xFF AND PUSH1 0xFF AND DUP2 MSTORE PUSH1 0x20 ADD SWAP1 DUP2 MSTORE PUSH1 0x20 ADD PUSH0 KECCAK256 PUSH1 0x3 ADD PUSH0 SWAP1 SLOAD SWAP1 PUSH2 0x100 EXP SWAP1 DIV PUSH1 0xFF AND ISZERO PUSH2 0xF4E JUMPI PUSH0 PUSH1 0x2 PUSH0 CALLER PUSH20 0xFFFFFFFFFFFFFFFFFFFFFFFFFFFFFFFFFFFFFFFF AND PUSH20 0xFFFFFFFFFFFFFFFFFFFFFFFFFFFFFFFFFFFFFFFF AND DUP2 MSTORE PUSH1 0x20 ADD SWAP1 DUP2 MSTORE PUSH1 0x20 ADD PUSH0 KECCAK256 PUSH0 PUSH1 0x1 DUP5 PUSH2 0xF21 SWAP2 SWAP1 PUSH2 0x2C01 JUMP JUMPDEST PUSH1 0xFF AND PUSH1 0xFF AND DUP2 MSTORE PUSH1 0x20 ADD SWAP1 DUP2 MSTORE PUSH1 0x20 ADD PUSH0 KECCAK256 PUSH1 0x3 ADD PUSH0 PUSH2 0x100 EXP DUP2 SLOAD DUP2 PUSH1 0xFF MUL NOT AND SWAP1 DUP4 ISZERO ISZERO MUL OR SWAP1 SSTORE POP JUMPDEST PUSH0 PUSH2 0xF59 CALLER DUP4 PUSH2 0x10C1 JUMP JUMPDEST SWAP1 POP PUSH1 0x1 PUSH0 DUP1 CALLER PUSH20 0xFFFFFFFFFFFFFFFFFFFFFFFFFFFFFFFFFFFFFFFF AND PUSH20 0xFFFFFFFFFFFFFFFFFFFFFFFFFFFFFFFFFFFFFFFF AND DUP2 MSTORE PUSH1 0x20 ADD SWAP1 DUP2 MSTORE PUSH1 0x20 ADD PUSH0 KECCAK256 PUSH1 0x4 ADD PUSH0 DUP5 PUSH1 0xFF AND PUSH1 0xFF AND DUP2 MSTORE PUSH1 0x20 ADD SWAP1 DUP2 MSTORE PUSH1 0x20 ADD PUSH0 KECCAK256 PUSH0 PUSH2 0x100 EXP DUP2 SLOAD DUP2 PUSH1 0xFF MUL NOT AND SWAP1 DUP4 ISZERO ISZERO MUL OR SWAP1 SSTORE POP PUSH2 0xFD2 CALLER DUP3 DUP5 PUSH2 0x197C JUMP JUMPDEST DUP1 PUSH20 0xFFFFFFFFFFFFFFFFFFFFFFFFFFFFFFFFFFFFFFFF AND CALLER PUSH20 0xFFFFFFFFFFFFFFFFFFFFFFFFFFFFFFFFFFFFFFFF AND PUSH32 0x18A92DF19FD94D6CFFF209966673A5CA05A1C8E2BB68E097FCE2BDC2ED811119 PUSH1 0x2 DUP6 PUSH1 0x40 MLOAD PUSH2 0x1032 SWAP3 SWAP2 SWAP1 PUSH2 0x2CD7 JUMP JUMPDEST PUSH1 0x40 MLOAD DUP1 SWAP2 SUB SWAP1 LOG3 POP JUMPDEST POP POP JUMP JUMPDEST PUSH1 0x2 PUSH1 0x20 MSTORE DUP2 PUSH0 MSTORE PUSH1 0x40 PUSH0 KECCAK256 PUSH1 0x20 MSTORE DUP1 PUSH0 MSTORE PUSH1 0x40 PUSH0 KECCAK256 PUSH0 SWAP2 POP SWAP2 POP POP DUP1 PUSH0 ADD PUSH0 SWAP1 SLOAD SWAP1 PUSH2 0x100 EXP SWAP1 DIV PUSH20 0xFFFFFFFFFFFFFFFFFFFFFFFFFFFFFFFFFFFFFFFF AND SWAP1 DUP1 PUSH1 0x3 ADD PUSH0 SWAP1 SLOAD SWAP1 PUSH2 0x100 EXP SWAP1 DIV PUSH1 0xFF AND SWAP1 DUP1 PUSH1 0x4 ADD SLOAD SWAP1 DUP1 PUSH1 0x5 ADD PUSH0 SWAP1 SLOAD SWAP1 PUSH2 0x100 EXP SWAP1 DIV PUSH20 0xFFFFFFFFFFFFFFFFFFFFFFFFFFFFFFFFFFFFFFFF AND SWAP1 POP DUP5 JUMP JUMPDEST PUSH0 JUMPDEST PUSH1 0x1 ISZERO PUSH2 0x1295 JUMPI PUSH0 DUP1 DUP1 PUSH0 DUP7 PUSH20 0xFFFFFFFFFFFFFFFFFFFFFFFFFFFFFFFFFFFFFFFF AND PUSH20 0xFFFFFFFFFFFFFFFFFFFFFFFFFFFFFFFFFFFFFFFF AND DUP2 MSTORE PUSH1 0x20 ADD SWAP1 DUP2 MSTORE PUSH1 0x20 ADD PUSH0 KECCAK256 PUSH1 0x1 ADD PUSH0 SWAP1 SLOAD SWAP1 PUSH2 0x100 EXP SWAP1 DIV PUSH20 0xFFFFFFFFFFFFFFFFFFFFFFFFFFFFFFFFFFFFFFFF AND PUSH20 0xFFFFFFFFFFFFFFFFFFFFFFFFFFFFFFFFFFFFFFFF AND PUSH20 0xFFFFFFFFFFFFFFFFFFFFFFFFFFFFFFFFFFFFFFFF AND DUP2 MSTORE PUSH1 0x20 ADD SWAP1 DUP2 MSTORE PUSH1 0x20 ADD PUSH0 KECCAK256 PUSH1 0x4 ADD PUSH0 DUP4 PUSH1 0xFF AND PUSH1 0xFF AND DUP2 MSTORE PUSH1 0x20 ADD SWAP1 DUP2 MSTORE PUSH1 0x20 ADD PUSH0 KECCAK256 PUSH0 SWAP1 SLOAD SWAP1 PUSH2 0x100 EXP SWAP1 DIV PUSH1 0xFF AND ISZERO PUSH2 0x11F4 JUMPI PUSH0 DUP1 DUP5 PUSH20 0xFFFFFFFFFFFFFFFFFFFFFFFFFFFFFFFFFFFFFFFF AND PUSH20 0xFFFFFFFFFFFFFFFFFFFFFFFFFFFFFFFFFFFFFFFF AND DUP2 MSTORE PUSH1 0x20 ADD SWAP1 DUP2 MSTORE PUSH1 0x20 ADD PUSH0 KECCAK256 PUSH1 0x1 ADD PUSH0 SWAP1 SLOAD SWAP1 PUSH2 0x100 EXP SWAP1 DIV PUSH20 0xFFFFFFFFFFFFFFFFFFFFFFFFFFFFFFFFFFFFFFFF AND SWAP1 POP PUSH2 0x1296 JUMP JUMPDEST PUSH0 DUP1 DUP5 PUSH20 0xFFFFFFFFFFFFFFFFFFFFFFFFFFFFFFFFFFFFFFFF AND PUSH20 0xFFFFFFFFFFFFFFFFFFFFFFFFFFFFFFFFFFFFFFFF AND DUP2 MSTORE PUSH1 0x20 ADD SWAP1 DUP2 MSTORE PUSH1 0x20 ADD PUSH0 KECCAK256 PUSH1 0x1 ADD PUSH0 SWAP1 SLOAD SWAP1 PUSH2 0x100 EXP SWAP1 DIV PUSH20 0xFFFFFFFFFFFFFFFFFFFFFFFFFFFFFFFFFFFFFFFF AND SWAP3 POP PUSH0 PUSH20 0xFFFFFFFFFFFFFFFFFFFFFFFFFFFFFFFFFFFFFFFF AND DUP4 PUSH20 0xFFFFFFFFFFFFFFFFFFFFFFFFFFFFFFFFFFFFFFFF AND SUB PUSH2 0x1290 JUMPI PUSH0 SWAP1 POP PUSH2 0x1296 JUMP JUMPDEST PUSH2 0x10C3 JUMP JUMPDEST JUMPDEST SWAP3 SWAP2 POP POP JUMP JUMPDEST PUSH1 0x6 PUSH1 0x20 MSTORE DUP1 PUSH0 MSTORE PUSH1 0x40 PUSH0 KECCAK256 PUSH0 SWAP2 POP SWAP1 POP SLOAD DUP2 JUMP JUMPDEST PUSH0 JUMPDEST PUSH1 0x1 ISZERO PUSH2 0x1485 JUMPI PUSH0 DUP1 DUP1 PUSH0 DUP7 PUSH20 0xFFFFFFFFFFFFFFFFFFFFFFFFFFFFFFFFFFFFFFFF AND PUSH20 0xFFFFFFFFFFFFFFFFFFFFFFFFFFFFFFFFFFFFFFFF AND DUP2 MSTORE PUSH1 0x20 ADD SWAP1 DUP2 MSTORE PUSH1 0x20 ADD PUSH0 KECCAK256 PUSH1 0x1 ADD PUSH0 SWAP1 SLOAD SWAP1 PUSH2 0x100 EXP SWAP1 DIV PUSH20 0xFFFFFFFFFFFFFFFFFFFFFFFFFFFFFFFFFFFFFFFF AND PUSH20 0xFFFFFFFFFFFFFFFFFFFFFFFFFFFFFFFFFFFFFFFF AND PUSH20 0xFFFFFFFFFFFFFFFFFFFFFFFFFFFFFFFFFFFFFFFF AND DUP2 MSTORE PUSH1 0x20 ADD SWAP1 DUP2 MSTORE PUSH1 0x20 ADD PUSH0 KECCAK256 PUSH1 0x3 ADD PUSH0 DUP4 PUSH1 0xFF AND PUSH1 0xFF AND DUP2 MSTORE PUSH1 0x20 ADD SWAP1 DUP2 MSTORE PUSH1 0x20 ADD PUSH0 KECCAK256 PUSH0 SWAP1 SLOAD SWAP1 PUSH2 0x100 EXP SWAP1 DIV PUSH1 0xFF AND ISZERO PUSH2 0x13E4 JUMPI PUSH0 DUP1 DUP5 PUSH20 0xFFFFFFFFFFFFFFFFFFFFFFFFFFFFFFFFFFFFFFFF AND PUSH20 0xFFFFFFFFFFFFFFFFFFFFFFFFFFFFFFFFFFFFFFFF AND DUP2 MSTORE PUSH1 0x20 ADD SWAP1 DUP2 MSTORE PUSH1 0x20 ADD PUSH0 KECCAK256 PUSH1 0x1 ADD PUSH0 SWAP1 SLOAD SWAP1 PUSH2 0x100 EXP SWAP1 DIV PUSH20 0xFFFFFFFFFFFFFFFFFFFFFFFFFFFFFFFFFFFFFFFF AND SWAP1 POP PUSH2 0x1486 JUMP JUMPDEST PUSH0 DUP1 DUP5 PUSH20 0xFFFFFFFFFFFFFFFFFFFFFFFFFFFFFFFFFFFFFFFF AND PUSH20 0xFFFFFFFFFFFFFFFFFFFFFFFFFFFFFFFFFFFFFFFF AND DUP2 MSTORE PUSH1 0x20 ADD SWAP1 DUP2 MSTORE PUSH1 0x20 ADD PUSH0 KECCAK256 PUSH1 0x1 ADD PUSH0 SWAP1 SLOAD SWAP1 PUSH2 0x100 EXP SWAP1 DIV PUSH20 0xFFFFFFFFFFFFFFFFFFFFFFFFFFFFFFFFFFFFFFFF AND SWAP3 POP PUSH0 PUSH20 0xFFFFFFFFFFFFFFFFFFFFFFFFFFFFFFFFFFFFFFFF AND DUP4 PUSH20 0xFFFFFFFFFFFFFFFFFFFFFFFFFFFFFFFFFFFFFFFF AND SUB PUSH2 0x1480 JUMPI PUSH0 SWAP1 POP PUSH2 0x1486 JUMP JUMPDEST PUSH2 0x12B3 JUMP JUMPDEST JUMPDEST SWAP3 SWAP2 POP POP JUMP JUMPDEST PUSH0 PUSH1 0x1 PUSH0 DUP5 PUSH20 0xFFFFFFFFFFFFFFFFFFFFFFFFFFFFFFFFFFFFFFFF AND PUSH20 0xFFFFFFFFFFFFFFFFFFFFFFFFFFFFFFFFFFFFFFFF AND DUP2 MSTORE PUSH1 0x20 ADD SWAP1 DUP2 MSTORE PUSH1 0x20 ADD PUSH0 KECCAK256 PUSH0 DUP4 PUSH1 0xFF AND PUSH1 0xFF AND DUP2 MSTORE PUSH1 0x20 ADD SWAP1 DUP2 MSTORE PUSH1 0x20 ADD PUSH0 KECCAK256 SWAP1 POP DUP1 PUSH1 0x1 ADD DUP5 SWAP1 DUP1 PUSH1 0x1 DUP2 SLOAD ADD DUP1 DUP3 SSTORE DUP1 SWAP2 POP POP PUSH1 0x1 SWAP1 SUB SWAP1 PUSH0 MSTORE PUSH1 0x20 PUSH0 KECCAK256 ADD PUSH0 SWAP1 SWAP2 SWAP1 SWAP2 SWAP1 SWAP2 PUSH2 0x100 EXP DUP2 SLOAD DUP2 PUSH20 0xFFFFFFFFFFFFFFFFFFFFFFFFFFFFFFFFFFFFFFFF MUL NOT AND SWAP1 DUP4 PUSH20 0xFFFFFFFFFFFFFFFFFFFFFFFFFFFFFFFFFFFFFFFF AND MUL OR SWAP1 SSTORE POP PUSH1 0x3 DUP2 PUSH1 0x1 ADD DUP1 SLOAD SWAP1 POP LT ISZERO PUSH2 0x15D3 JUMPI DUP3 PUSH20 0xFFFFFFFFFFFFFFFFFFFFFFFFFFFFFFFFFFFFFFFF AND DUP5 PUSH20 0xFFFFFFFFFFFFFFFFFFFFFFFFFFFFFFFFFFFFFFFF AND PUSH32 0x68062C5925C4317ADF3A7095478D28B33FD8B41458BC7620B61BC46BF1B24D82 PUSH1 0x1 DUP6 DUP6 PUSH1 0x1 ADD DUP1 SLOAD SWAP1 POP PUSH1 0x40 MLOAD PUSH2 0x15BC SWAP4 SWAP3 SWAP2 SWAP1 PUSH2 0x2CFE JUMP JUMPDEST PUSH1 0x40 MLOAD DUP1 SWAP2 SUB SWAP1 LOG3 PUSH2 0x15CD DUP4 PUSH2 0x1FEE JUMP JUMPDEST POP PUSH2 0x1977 JUMP JUMPDEST DUP3 PUSH20 0xFFFFFFFFFFFFFFFFFFFFFFFFFFFFFFFFFFFFFFFF AND DUP5 PUSH20 0xFFFFFFFFFFFFFFFFFFFFFFFFFFFFFFFFFFFFFFFF AND PUSH32 0x68062C5925C4317ADF3A7095478D28B33FD8B41458BC7620B61BC46BF1B24D82 PUSH1 0x1 DUP6 PUSH1 0x3 PUSH1 0x40 MLOAD PUSH2 0x1636 SWAP4 SWAP3 SWAP2 SWAP1 PUSH2 0x2D6C JUMP JUMPDEST PUSH1 0x40 MLOAD DUP1 SWAP2 SUB SWAP1 LOG3 DUP1 PUSH1 0x1 ADD PUSH0 PUSH2 0x164D SWAP2 SWAP1 PUSH2 0x22CA JUMP JUMPDEST PUSH0 DUP1 DUP5 PUSH20 0xFFFFFFFFFFFFFFFFFFFFFFFFFFFFFFFFFFFFFFFF AND PUSH20 0xFFFFFFFFFFFFFFFFFFFFFFFFFFFFFFFFFFFFFFFF AND DUP2 MSTORE PUSH1 0x20 ADD SWAP1 DUP2 MSTORE PUSH1 0x20 ADD PUSH0 KECCAK256 PUSH1 0x3 ADD PUSH0 PUSH1 0x1 DUP5 PUSH2 0x169A SWAP2 SWAP1 PUSH2 0x2DA1 JUMP JUMPDEST PUSH1 0xFF AND PUSH1 0xFF AND DUP2 MSTORE PUSH1 0x20 ADD SWAP1 DUP2 MSTORE PUSH1 0x20 ADD PUSH0 KECCAK256 PUSH0 SWAP1 SLOAD SWAP1 PUSH2 0x100 EXP SWAP1 DIV PUSH1 0xFF AND ISZERO DUP1 ISZERO PUSH2 0x16CE JUMPI POP PUSH1 0xC PUSH1 0xFF AND DUP3 PUSH1 0xFF AND EQ ISZERO JUMPDEST ISZERO PUSH2 0x16F0 JUMPI PUSH1 0x1 DUP2 PUSH1 0x2 ADD PUSH0 PUSH2 0x100 EXP DUP2 SLOAD DUP2 PUSH1 0xFF MUL NOT AND SWAP1 DUP4 ISZERO ISZERO MUL OR SWAP1 SSTORE POP JUMPDEST PUSH1 0x5 PUSH0 SWAP1 SLOAD SWAP1 PUSH2 0x100 EXP SWAP1 DIV PUSH20 0xFFFFFFFFFFFFFFFFFFFFFFFFFFFFFFFFFFFFFFFF AND PUSH20 0xFFFFFFFFFFFFFFFFFFFFFFFFFFFFFFFFFFFFFFFF AND DUP4 PUSH20 0xFFFFFFFFFFFFFFFFFFFFFFFFFFFFFFFFFFFFFFFF AND EQ PUSH2 0x1891 JUMPI PUSH0 PUSH2 0x174F DUP5 DUP5 PUSH2 0x12B1 JUMP JUMPDEST SWAP1 POP DUP1 PUSH20 0xFFFFFFFFFFFFFFFFFFFFFFFFFFFFFFFFFFFFFFFF AND DUP3 PUSH0 ADD PUSH0 SWAP1 SLOAD SWAP1 PUSH2 0x100 EXP SWAP1 DIV PUSH20 0xFFFFFFFFFFFFFFFFFFFFFFFFFFFFFFFFFFFFFFFF AND PUSH20 0xFFFFFFFFFFFFFFFFFFFFFFFFFFFFFFFFFFFFFFFF AND EQ PUSH2 0x17E8 JUMPI DUP1 DUP3 PUSH0 ADD PUSH0 PUSH2 0x100 EXP DUP2 SLOAD DUP2 PUSH20 0xFFFFFFFFFFFFFFFFFFFFFFFFFFFFFFFFFFFFFFFF MUL NOT AND SWAP1 DUP4 PUSH20 0xFFFFFFFFFFFFFFFFFFFFFFFFFFFFFFFFFFFFFFFF AND MUL OR SWAP1 SSTORE POP JUMPDEST DUP2 PUSH1 0x3 ADD PUSH0 DUP2 SLOAD DUP1 SWAP3 SWAP2 SWAP1 PUSH2 0x17FC SWAP1 PUSH2 0x298C JUMP JUMPDEST SWAP2 SWAP1 POP SSTORE POP DUP5 PUSH20 0xFFFFFFFFFFFFFFFFFFFFFFFFFFFFFFFFFFFFFFFF AND DUP2 PUSH20 0xFFFFFFFFFFFFFFFFFFFFFFFFFFFFFFFFFFFFFFFF AND DUP6 PUSH20 0xFFFFFFFFFFFFFFFFFFFFFFFFFFFFFFFFFFFFFFFF AND PUSH32 0xA00C953EFF38EC1B71E7FE060B2AB8DF0BBE5354319FBDDE4FBDAFD6324386A6 PUSH1 0x1 DUP8 PUSH1 0x40 MLOAD PUSH2 0x1878 SWAP3 SWAP2 SWAP1 PUSH2 0x2C77 JUMP JUMPDEST PUSH1 0x40 MLOAD DUP1 SWAP2 SUB SWAP1 LOG4 PUSH2 0x188B DUP5 DUP3 DUP6 PUSH2 0x148C JUMP JUMPDEST POP PUSH2 0x1975 JUMP JUMPDEST PUSH2 0x18BB PUSH1 0x5 PUSH0 SWAP1 SLOAD SWAP1 PUSH2 0x100 EXP SWAP1 DIV PUSH20 0xFFFFFFFFFFFFFFFFFFFFFFFFFFFFFFFFFFFFFFFF AND PUSH2 0x1FEE JUMP JUMPDEST DUP1 PUSH1 0x3 ADD PUSH0 DUP2 SLOAD DUP1 SWAP3 SWAP2 SWAP1 PUSH2 0x18CF SWAP1 PUSH2 0x298C JUMP JUMPDEST SWAP2 SWAP1 POP SSTORE POP DUP4 PUSH20 0xFFFFFFFFFFFFFFFFFFFFFFFFFFFFFFFFFFFFFFFF AND PUSH0 PUSH20 0xFFFFFFFFFFFFFFFFFFFFFFFFFFFFFFFFFFFFFFFF AND PUSH1 0x5 PUSH0 SWAP1 SLOAD SWAP1 PUSH2 0x100 EXP SWAP1 DIV PUSH20 0xFFFFFFFFFFFFFFFFFFFFFFFFFFFFFFFFFFFFFFFF AND PUSH20 0xFFFFFFFFFFFFFFFFFFFFFFFFFFFFFFFFFFFFFFFF AND PUSH32 0xA00C953EFF38EC1B71E7FE060B2AB8DF0BBE5354319FBDDE4FBDAFD6324386A6 PUSH1 0x1 DUP7 PUSH1 0x40 MLOAD PUSH2 0x196C SWAP3 SWAP2 SWAP1 PUSH2 0x2C77 JUMP JUMPDEST PUSH1 0x40 MLOAD DUP1 SWAP2 SUB SWAP1 LOG4 JUMPDEST POP JUMPDEST POP POP POP JUMP JUMPDEST PUSH0 DUP1 DUP4 PUSH20 0xFFFFFFFFFFFFFFFFFFFFFFFFFFFFFFFFFFFFFFFF AND PUSH20 0xFFFFFFFFFFFFFFFFFFFFFFFFFFFFFFFFFFFFFFFF AND DUP2 MSTORE PUSH1 0x20 ADD SWAP1 DUP2 MSTORE PUSH1 0x20 ADD PUSH0 KECCAK256 PUSH1 0x4 ADD PUSH0 DUP3 PUSH1 0xFF AND PUSH1 0xFF AND DUP2 MSTORE PUSH1 0x20 ADD SWAP1 DUP2 MSTORE PUSH1 0x20 ADD PUSH0 KECCAK256 PUSH0 SWAP1 SLOAD SWAP1 PUSH2 0x100 EXP SWAP1 DIV PUSH1 0xFF AND PUSH2 0x1A1C JUMPI PUSH1 0x40 MLOAD PUSH32 0x8C379A000000000000000000000000000000000000000000000000000000000 DUP2 MSTORE PUSH1 0x4 ADD PUSH2 0x1A13 SWAP1 PUSH2 0x2E1F JUMP JUMPDEST PUSH1 0x40 MLOAD DUP1 SWAP2 SUB SWAP1 REVERT JUMPDEST PUSH0 PUSH1 0x2 PUSH0 DUP5 PUSH20 0xFFFFFFFFFFFFFFFFFFFFFFFFFFFFFFFFFFFFFFFF AND PUSH20 0xFFFFFFFFFFFFFFFFFFFFFFFFFFFFFFFFFFFFFFFF AND DUP2 MSTORE PUSH1 0x20 ADD SWAP1 DUP2 MSTORE PUSH1 0x20 ADD PUSH0 KECCAK256 PUSH0 DUP4 PUSH1 0xFF AND PUSH1 0xFF AND DUP2 MSTORE PUSH1 0x20 ADD SWAP1 DUP2 MSTORE PUSH1 0x20 ADD PUSH0 KECCAK256 SWAP1 POP PUSH1 0x2 DUP2 PUSH1 0x1 ADD DUP1 SLOAD SWAP1 POP LT ISZERO PUSH2 0x1FCD JUMPI DUP1 PUSH1 0x1 ADD DUP5 SWAP1 DUP1 PUSH1 0x1 DUP2 SLOAD ADD DUP1 DUP3 SSTORE DUP1 SWAP2 POP POP PUSH1 0x1 SWAP1 SUB SWAP1 PUSH0 MSTORE PUSH1 0x20 PUSH0 KECCAK256 ADD PUSH0 SWAP1 SWAP2 SWAP1 SWAP2 SWAP1 SWAP2 PUSH2 0x100 EXP DUP2 SLOAD DUP2 PUSH20 0xFFFFFFFFFFFFFFFFFFFFFFFFFFFFFFFFFFFFFFFF MUL NOT AND SWAP1 DUP4 PUSH20 0xFFFFFFFFFFFFFFFFFFFFFFFFFFFFFFFFFFFFFFFF AND MUL OR SWAP1 SSTORE POP DUP3 PUSH20 0xFFFFFFFFFFFFFFFFFFFFFFFFFFFFFFFFFFFFFFFF AND DUP5 PUSH20 0xFFFFFFFFFFFFFFFFFFFFFFFFFFFFFFFFFFFFFFFF AND PUSH32 0x68062C5925C4317ADF3A7095478D28B33FD8B41458BC7620B61BC46BF1B24D82 PUSH1 0x2 DUP6 DUP6 PUSH1 0x1 ADD DUP1 SLOAD SWAP1 POP PUSH1 0x40 MLOAD PUSH2 0x1B4C SWAP4 SWAP3 SWAP2 SWAP1 PUSH2 0x2E3D JUMP JUMPDEST PUSH1 0x40 MLOAD DUP1 SWAP2 SUB SWAP1 LOG3 DUP3 DUP2 PUSH0 ADD PUSH0 PUSH2 0x100 EXP DUP2 SLOAD DUP2 PUSH20 0xFFFFFFFFFFFFFFFFFFFFFFFFFFFFFFFFFFFFFFFF MUL NOT AND SWAP1 DUP4 PUSH20 0xFFFFFFFFFFFFFFFFFFFFFFFFFFFFFFFFFFFFFFFF AND MUL OR SWAP1 SSTORE POP PUSH1 0x5 PUSH0 SWAP1 SLOAD SWAP1 PUSH2 0x100 EXP SWAP1 DIV PUSH20 0xFFFFFFFFFFFFFFFFFFFFFFFFFFFFFFFFFFFFFFFF AND PUSH20 0xFFFFFFFFFFFFFFFFFFFFFFFFFFFFFFFFFFFFFFFF AND DUP4 PUSH20 0xFFFFFFFFFFFFFFFFFFFFFFFFFFFFFFFFFFFFFFFF AND SUB PUSH2 0x1BF8 JUMPI PUSH2 0x1BF2 DUP4 PUSH2 0x1FEE JUMP JUMPDEST POP PUSH2 0x1FE9 JUMP JUMPDEST PUSH0 DUP2 PUSH0 ADD PUSH0 SWAP1 SLOAD SWAP1 PUSH2 0x100 EXP SWAP1 DIV PUSH20 0xFFFFFFFFFFFFFFFFFFFFFFFFFFFFFFFFFFFFFFFF AND SWAP1 POP PUSH1 0x2 PUSH0 DUP3 PUSH20 0xFFFFFFFFFFFFFFFFFFFFFFFFFFFFFFFFFFFFFFFF AND PUSH20 0xFFFFFFFFFFFFFFFFFFFFFFFFFFFFFFFFFFFFFFFF AND DUP2 MSTORE PUSH1 0x20 ADD SWAP1 DUP2 MSTORE PUSH1 0x20 ADD PUSH0 KECCAK256 PUSH0 DUP5 PUSH1 0xFF AND PUSH1 0xFF AND DUP2 MSTORE PUSH1 0x20 ADD SWAP1 DUP2 MSTORE PUSH1 0x20 ADD PUSH0 KECCAK256 PUSH1 0x2 ADD DUP6 SWAP1 DUP1 PUSH1 0x1 DUP2 SLOAD ADD DUP1 DUP3 SSTORE DUP1 SWAP2 POP POP PUSH1 0x1 SWAP1 SUB SWAP1 PUSH0 MSTORE PUSH1 0x20 PUSH0 KECCAK256 ADD PUSH0 SWAP1 SWAP2 SWAP1 SWAP2 SWAP1 SWAP2 PUSH2 0x100 EXP DUP2 SLOAD DUP2 PUSH20 0xFFFFFFFFFFFFFFFFFFFFFFFFFFFFFFFFFFFFFFFF MUL NOT AND SWAP1 DUP4 PUSH20 0xFFFFFFFFFFFFFFFFFFFFFFFFFFFFFFFFFFFFFFFF AND MUL OR SWAP1 SSTORE POP PUSH0 PUSH1 0x2 PUSH0 DUP4 PUSH20 0xFFFFFFFFFFFFFFFFFFFFFFFFFFFFFFFFFFFFFFFF AND PUSH20 0xFFFFFFFFFFFFFFFFFFFFFFFFFFFFFFFFFFFFFFFF AND DUP2 MSTORE PUSH1 0x20 ADD SWAP1 DUP2 MSTORE PUSH1 0x20 ADD PUSH0 KECCAK256 PUSH0 DUP6 PUSH1 0xFF AND PUSH1 0xFF AND DUP2 MSTORE PUSH1 0x20 ADD SWAP1 DUP2 MSTORE PUSH1 0x20 ADD PUSH0 KECCAK256 PUSH1 0x1 ADD DUP1 SLOAD SWAP1 POP SWAP1 POP PUSH1 0x2 DUP2 EQ DUP1 ISZERO PUSH2 0x1DF6 JUMPI POP DUP5 PUSH20 0xFFFFFFFFFFFFFFFFFFFFFFFFFFFFFFFFFFFFFFFF AND PUSH1 0x2 PUSH0 DUP5 PUSH20 0xFFFFFFFFFFFFFFFFFFFFFFFFFFFFFFFFFFFFFFFF AND PUSH20 0xFFFFFFFFFFFFFFFFFFFFFFFFFFFFFFFFFFFFFFFF AND DUP2 MSTORE PUSH1 0x20 ADD SWAP1 DUP2 MSTORE PUSH1 0x20 ADD PUSH0 KECCAK256 PUSH0 DUP7 PUSH1 0xFF AND PUSH1 0xFF AND DUP2 MSTORE PUSH1 0x20 ADD SWAP1 DUP2 MSTORE PUSH1 0x20 ADD PUSH0 KECCAK256 PUSH1 0x1 ADD PUSH0 DUP2 SLOAD DUP2 LT PUSH2 0x1DB6 JUMPI PUSH2 0x1DB5 PUSH2 0x2E72 JUMP JUMPDEST JUMPDEST SWAP1 PUSH0 MSTORE PUSH1 0x20 PUSH0 KECCAK256 ADD PUSH0 SWAP1 SLOAD SWAP1 PUSH2 0x100 EXP SWAP1 DIV PUSH20 0xFFFFFFFFFFFFFFFFFFFFFFFFFFFFFFFFFFFFFFFF AND PUSH20 0xFFFFFFFFFFFFFFFFFFFFFFFFFFFFFFFFFFFFFFFF AND EQ JUMPDEST DUP1 ISZERO PUSH2 0x1EBC JUMPI POP DUP5 PUSH20 0xFFFFFFFFFFFFFFFFFFFFFFFFFFFFFFFFFFFFFFFF AND PUSH1 0x2 PUSH0 DUP5 PUSH20 0xFFFFFFFFFFFFFFFFFFFFFFFFFFFFFFFFFFFFFFFF AND PUSH20 0xFFFFFFFFFFFFFFFFFFFFFFFFFFFFFFFFFFFFFFFF AND DUP2 MSTORE PUSH1 0x20 ADD SWAP1 DUP2 MSTORE PUSH1 0x20 ADD PUSH0 KECCAK256 PUSH0 DUP7 PUSH1 0xFF AND PUSH1 0xFF AND DUP2 MSTORE PUSH1 0x20 ADD SWAP1 DUP2 MSTORE PUSH1 0x20 ADD PUSH0 KECCAK256 PUSH1 0x1 ADD PUSH1 0x1 DUP2 SLOAD DUP2 LT PUSH2 0x1E7C JUMPI PUSH2 0x1E7B PUSH2 0x2E72 JUMP JUMPDEST JUMPDEST SWAP1 PUSH0 MSTORE PUSH1 0x20 PUSH0 KECCAK256 ADD PUSH0 SWAP1 SLOAD SWAP1 PUSH2 0x100 EXP SWAP1 DIV PUSH20 0xFFFFFFFFFFFFFFFFFFFFFFFFFFFFFFFFFFFFFFFF AND PUSH20 0xFFFFFFFFFFFFFFFFFFFFFFFFFFFFFFFFFFFFFFFF AND EQ JUMPDEST ISZERO PUSH2 0x1FB1 JUMPI PUSH1 0x4 PUSH1 0x2 PUSH0 DUP5 PUSH20 0xFFFFFFFFFFFFFFFFFFFFFFFFFFFFFFFFFFFFFFFF AND PUSH20 0xFFFFFFFFFFFFFFFFFFFFFFFFFFFFFFFFFFFFFFFF AND DUP2 MSTORE PUSH1 0x20 ADD SWAP1 DUP2 MSTORE PUSH1 0x20 ADD PUSH0 KECCAK256 PUSH0 DUP7 PUSH1 0xFF AND PUSH1 0xFF AND DUP2 MSTORE PUSH1 0x20 ADD SWAP1 DUP2 MSTORE PUSH1 0x20 ADD PUSH0 KECCAK256 PUSH1 0x2 ADD DUP1 SLOAD SWAP1 POP SUB PUSH2 0x1F98 JUMPI PUSH1 0x1 PUSH1 0x2 PUSH0 DUP5 PUSH20 0xFFFFFFFFFFFFFFFFFFFFFFFFFFFFFFFFFFFFFFFF AND PUSH20 0xFFFFFFFFFFFFFFFFFFFFFFFFFFFFFFFFFFFFFFFF AND DUP2 MSTORE PUSH1 0x20 ADD SWAP1 DUP2 MSTORE PUSH1 0x20 ADD PUSH0 KECCAK256 PUSH0 DUP7 PUSH1 0xFF AND PUSH1 0xFF AND DUP2 MSTORE PUSH1 0x20 ADD SWAP1 DUP2 MSTORE PUSH1 0x20 ADD PUSH0 KECCAK256 PUSH1 0x3 ADD PUSH0 PUSH2 0x100 EXP DUP2 SLOAD DUP2 PUSH1 0xFF MUL NOT AND SWAP1 DUP4 ISZERO ISZERO MUL OR SWAP1 SSTORE POP PUSH2 0x1F97 DUP3 PUSH2 0x1FEE JUMP JUMPDEST JUMPDEST PUSH2 0x1FAC DUP7 PUSH2 0x1FA6 DUP5 DUP8 PUSH2 0x10C1 JUMP JUMPDEST DUP7 PUSH2 0x197C JUMP JUMPDEST PUSH2 0x1FC6 JUMP JUMPDEST PUSH2 0x1FC5 DUP7 PUSH2 0x1FBF DUP5 DUP8 PUSH2 0x10C1 JUMP JUMPDEST DUP7 PUSH2 0x197C JUMP JUMPDEST JUMPDEST POP POP PUSH2 0x1FE7 JUMP JUMPDEST PUSH0 PUSH2 0x1FD8 DUP5 DUP5 PUSH2 0x10C1 JUMP JUMPDEST SWAP1 POP PUSH2 0x1FE5 DUP6 DUP3 DUP6 PUSH2 0x2080 JUMP JUMPDEST POP JUMPDEST POP JUMPDEST POP POP POP JUMP JUMPDEST PUSH0 DUP2 SWAP1 POP PUSH0 PUSH8 0xDE0B6B3A7640000 SWAP1 POP DUP2 PUSH20 0xFFFFFFFFFFFFFFFFFFFFFFFFFFFFFFFFFFFFFFFF AND PUSH2 0x8FC DUP3 SWAP1 DUP2 ISZERO MUL SWAP1 PUSH1 0x40 MLOAD PUSH0 PUSH1 0x40 MLOAD DUP1 DUP4 SUB DUP2 DUP6 DUP9 DUP9 CALL SWAP4 POP POP POP POP PUSH2 0x207B JUMPI DUP2 PUSH20 0xFFFFFFFFFFFFFFFFFFFFFFFFFFFFFFFFFFFFFFFF AND PUSH2 0x8FC SELFBALANCE SWAP1 DUP2 ISZERO MUL SWAP1 PUSH1 0x40 MLOAD PUSH0 PUSH1 0x40 MLOAD DUP1 DUP4 SUB DUP2 DUP6 DUP9 DUP9 CALL SWAP4 POP POP POP POP ISZERO DUP1 ISZERO PUSH2 0x2079 JUMPI RETURNDATASIZE PUSH0 DUP1 RETURNDATACOPY RETURNDATASIZE PUSH0 REVERT JUMPDEST POP JUMPDEST POP POP POP JUMP JUMPDEST PUSH0 PUSH1 0x2 PUSH0 DUP5 PUSH20 0xFFFFFFFFFFFFFFFFFFFFFFFFFFFFFFFFFFFFFFFF AND PUSH20 0xFFFFFFFFFFFFFFFFFFFFFFFFFFFFFFFFFFFFFFFF AND DUP2 MSTORE PUSH1 0x20 ADD SWAP1 DUP2 MSTORE PUSH1 0x20 ADD PUSH0 KECCAK256 PUSH0 DUP4 PUSH1 0xFF AND PUSH1 0xFF AND DUP2 MSTORE PUSH1 0x20 ADD SWAP1 DUP2 MSTORE PUSH1 0x20 ADD PUSH0 KECCAK256 SWAP1 POP PUSH1 0x4 DUP2 PUSH1 0x2 ADD DUP1 SLOAD SWAP1 POP SUB PUSH2 0x211F JUMPI PUSH1 0x1 DUP2 PUSH1 0x3 ADD PUSH0 PUSH2 0x100 EXP DUP2 SLOAD DUP2 PUSH1 0xFF MUL NOT AND SWAP1 DUP4 ISZERO ISZERO MUL OR SWAP1 SSTORE POP DUP1 PUSH1 0x2 ADD PUSH0 PUSH2 0x210F SWAP2 SWAP1 PUSH2 0x22CA JUMP JUMPDEST DUP1 PUSH1 0x1 ADD PUSH0 PUSH2 0x211E SWAP2 SWAP1 PUSH2 0x22CA JUMP JUMPDEST JUMPDEST DUP1 PUSH1 0x2 ADD DUP5 SWAP1 DUP1 PUSH1 0x1 DUP2 SLOAD ADD DUP1 DUP3 SSTORE DUP1 SWAP2 POP POP PUSH1 0x1 SWAP1 SUB SWAP1 PUSH0 MSTORE PUSH1 0x20 PUSH0 KECCAK256 ADD PUSH0 SWAP1 SWAP2 SWAP1 SWAP2 SWAP1 SWAP2 PUSH2 0x100 EXP DUP2 SLOAD DUP2 PUSH20 0xFFFFFFFFFFFFFFFFFFFFFFFFFFFFFFFFFFFFFFFF MUL NOT AND SWAP1 DUP4 PUSH20 0xFFFFFFFFFFFFFFFFFFFFFFFFFFFFFFFFFFFFFFFF AND MUL OR SWAP1 SSTORE POP DUP3 PUSH20 0xFFFFFFFFFFFFFFFFFFFFFFFFFFFFFFFFFFFFFFFF AND DUP5 PUSH20 0xFFFFFFFFFFFFFFFFFFFFFFFFFFFFFFFFFFFFFFFF AND PUSH32 0x68062C5925C4317ADF3A7095478D28B33FD8B41458BC7620B61BC46BF1B24D82 PUSH1 0x2 DUP6 DUP6 PUSH1 0x2 ADD DUP1 SLOAD SWAP1 POP PUSH1 0x40 MLOAD PUSH2 0x21EA SWAP4 SWAP3 SWAP2 SWAP1 PUSH2 0x2E3D JUMP JUMPDEST PUSH1 0x40 MLOAD DUP1 SWAP2 SUB SWAP1 LOG3 PUSH1 0x4 DUP2 PUSH1 0x2 ADD DUP1 SLOAD SWAP1 POP SUB PUSH2 0x22C4 JUMPI PUSH1 0x1 DUP2 PUSH1 0x3 ADD PUSH0 PUSH2 0x100 EXP DUP2 SLOAD DUP2 PUSH1 0xFF MUL NOT AND SWAP1 DUP4 ISZERO ISZERO MUL OR SWAP1 SSTORE POP PUSH2 0x2226 DUP4 PUSH2 0x1FEE JUMP JUMPDEST PUSH1 0x5 PUSH0 SWAP1 SLOAD SWAP1 PUSH2 0x100 EXP SWAP1 DIV PUSH20 0xFFFFFFFFFFFFFFFFFFFFFFFFFFFFFFFFFFFFFFFF AND PUSH20 0xFFFFFFFFFFFFFFFFFFFFFFFFFFFFFFFFFFFFFFFF AND DUP4 PUSH20 0xFFFFFFFFFFFFFFFFFFFFFFFFFFFFFFFFFFFFFFFF AND EQ PUSH2 0x2298 JUMPI PUSH0 PUSH2 0x2285 DUP5 DUP5 PUSH2 0x10C1 JUMP JUMPDEST SWAP1 POP PUSH2 0x2292 DUP6 DUP3 DUP6 PUSH2 0x197C JUMP JUMPDEST POP PUSH2 0x22C3 JUMP JUMPDEST PUSH2 0x22C2 PUSH1 0x5 PUSH0 SWAP1 SLOAD SWAP1 PUSH2 0x100 EXP SWAP1 DIV PUSH20 0xFFFFFFFFFFFFFFFFFFFFFFFFFFFFFFFFFFFFFFFF AND PUSH2 0x1FEE JUMP JUMPDEST JUMPDEST JUMPDEST POP POP POP POP JUMP JUMPDEST POP DUP1 SLOAD PUSH0 DUP3 SSTORE SWAP1 PUSH0 MSTORE PUSH1 0x20 PUSH0 KECCAK256 SWAP1 DUP2 ADD SWAP1 PUSH2 0x22E5 SWAP2 SWAP1 PUSH2 0x22E8 JUMP JUMPDEST POP JUMP JUMPDEST JUMPDEST DUP1 DUP3 GT ISZERO PUSH2 0x22FF JUMPI PUSH0 DUP2 PUSH0 SWAP1 SSTORE POP PUSH1 0x1 ADD PUSH2 0x22E9 JUMP JUMPDEST POP SWAP1 JUMP JUMPDEST PUSH0 PUSH1 0xFF DUP3 AND SWAP1 POP SWAP2 SWAP1 POP JUMP JUMPDEST PUSH2 0x2318 DUP2 PUSH2 0x2303 JUMP JUMPDEST DUP3 MSTORE POP POP JUMP JUMPDEST PUSH0 PUSH1 0x20 DUP3 ADD SWAP1 POP PUSH2 0x2331 PUSH0 DUP4 ADD DUP5 PUSH2 0x230F JUMP JUMPDEST SWAP3 SWAP2 POP POP JUMP JUMPDEST PUSH0 PUSH1 0x40 MLOAD SWAP1 POP SWAP1 JUMP JUMPDEST PUSH0 DUP1 REVERT JUMPDEST PUSH0 DUP1 REVERT JUMPDEST PUSH0 DUP2 SWAP1 POP SWAP2 SWAP1 POP JUMP JUMPDEST PUSH2 0x235A DUP2 PUSH2 0x2348 JUMP JUMPDEST DUP2 EQ PUSH2 0x2364 JUMPI PUSH0 DUP1 REVERT JUMPDEST POP JUMP JUMPDEST PUSH0 DUP2 CALLDATALOAD SWAP1 POP PUSH2 0x2375 DUP2 PUSH2 0x2351 JUMP JUMPDEST SWAP3 SWAP2 POP POP JUMP JUMPDEST PUSH0 PUSH1 0x20 DUP3 DUP5 SUB SLT ISZERO PUSH2 0x2390 JUMPI PUSH2 0x238F PUSH2 0x2340 JUMP JUMPDEST JUMPDEST PUSH0 PUSH2 0x239D DUP5 DUP3 DUP6 ADD PUSH2 0x2367 JUMP JUMPDEST SWAP2 POP POP SWAP3 SWAP2 POP POP JUMP JUMPDEST PUSH0 PUSH20 0xFFFFFFFFFFFFFFFFFFFFFFFFFFFFFFFFFFFFFFFF DUP3 AND SWAP1 POP SWAP2 SWAP1 POP JUMP JUMPDEST PUSH0 PUSH2 0x23CF DUP3 PUSH2 0x23A6 JUMP JUMPDEST SWAP1 POP SWAP2 SWAP1 POP JUMP JUMPDEST PUSH2 0x23DF DUP2 PUSH2 0x23C5 JUMP JUMPDEST DUP3 MSTORE POP POP JUMP JUMPDEST PUSH0 PUSH1 0x20 DUP3 ADD SWAP1 POP PUSH2 0x23F8 PUSH0 DUP4 ADD DUP5 PUSH2 0x23D6 JUMP JUMPDEST SWAP3 SWAP2 POP POP JUMP JUMPDEST PUSH2 0x2407 DUP2 PUSH2 0x2348 JUMP JUMPDEST DUP3 MSTORE POP POP JUMP JUMPDEST PUSH0 PUSH1 0x20 DUP3 ADD SWAP1 POP PUSH2 0x2420 PUSH0 DUP4 ADD DUP5 PUSH2 0x23FE JUMP JUMPDEST SWAP3 SWAP2 POP POP JUMP JUMPDEST PUSH0 DUP1 REVERT JUMPDEST PUSH0 DUP1 REVERT JUMPDEST PUSH0 PUSH1 0x1F NOT PUSH1 0x1F DUP4 ADD AND SWAP1 POP SWAP2 SWAP1 POP JUMP JUMPDEST PUSH32 0x4E487B7100000000000000000000000000000000000000000000000000000000 PUSH0 MSTORE PUSH1 0x41 PUSH1 0x4 MSTORE PUSH1 0x24 PUSH0 REVERT JUMPDEST PUSH2 0x2474 DUP3 PUSH2 0x242E JUMP JUMPDEST DUP2 ADD DUP2 DUP2 LT PUSH8 0xFFFFFFFFFFFFFFFF DUP3 GT OR ISZERO PUSH2 0x2493 JUMPI PUSH2 0x2492 PUSH2 0x243E JUMP JUMPDEST JUMPDEST DUP1 PUSH1 0x40 MSTORE POP POP POP JUMP JUMPDEST PUSH0 PUSH2 0x24A5 PUSH2 0x2337 JUMP JUMPDEST SWAP1 POP PUSH2 0x24B1 DUP3 DUP3 PUSH2 0x246B JUMP JUMPDEST SWAP2 SWAP1 POP JUMP JUMPDEST PUSH0 PUSH8 0xFFFFFFFFFFFFFFFF DUP3 GT ISZERO PUSH2 0x24D0 JUMPI PUSH2 0x24CF PUSH2 0x243E JUMP JUMPDEST JUMPDEST PUSH2 0x24D9 DUP3 PUSH2 0x242E JUMP JUMPDEST SWAP1 POP PUSH1 0x20 DUP2 ADD SWAP1 POP SWAP2 SWAP1 POP JUMP JUMPDEST DUP3 DUP2 DUP4 CALLDATACOPY PUSH0 DUP4 DUP4 ADD MSTORE POP POP POP JUMP JUMPDEST PUSH0 PUSH2 0x2506 PUSH2 0x2501 DUP5 PUSH2 0x24B6 JUMP JUMPDEST PUSH2 0x249C JUMP JUMPDEST SWAP1 POP DUP3 DUP2 MSTORE PUSH1 0x20 DUP2 ADD DUP5 DUP5 DUP5 ADD GT ISZERO PUSH2 0x2522 JUMPI PUSH2 0x2521 PUSH2 0x242A JUMP JUMPDEST JUMPDEST PUSH2 0x252D DUP5 DUP3 DUP6 PUSH2 0x24E6 JUMP JUMPDEST POP SWAP4 SWAP3 POP POP POP JUMP JUMPDEST PUSH0 DUP3 PUSH1 0x1F DUP4 ADD SLT PUSH2 0x2549 JUMPI PUSH2 0x2548 PUSH2 0x2426 JUMP JUMPDEST JUMPDEST DUP2 CALLDATALOAD PUSH2 0x2559 DUP5 DUP3 PUSH1 0x20 DUP7 ADD PUSH2 0x24F4 JUMP JUMPDEST SWAP2 POP POP SWAP3 SWAP2 POP POP JUMP JUMPDEST PUSH0 PUSH1 0x20 DUP3 DUP5 SUB SLT ISZERO PUSH2 0x2577 JUMPI PUSH2 0x2576 PUSH2 0x2340 JUMP JUMPDEST JUMPDEST PUSH0 DUP3 ADD CALLDATALOAD PUSH8 0xFFFFFFFFFFFFFFFF DUP2 GT ISZERO PUSH2 0x2594 JUMPI PUSH2 0x2593 PUSH2 0x2344 JUMP JUMPDEST JUMPDEST PUSH2 0x25A0 DUP5 DUP3 DUP6 ADD PUSH2 0x2535 JUMP JUMPDEST SWAP2 POP POP SWAP3 SWAP2 POP POP JUMP JUMPDEST PUSH2 0x25B2 DUP2 PUSH2 0x23C5 JUMP JUMPDEST DUP2 EQ PUSH2 0x25BC JUMPI PUSH0 DUP1 REVERT JUMPDEST POP JUMP JUMPDEST PUSH0 DUP2 CALLDATALOAD SWAP1 POP PUSH2 0x25CD DUP2 PUSH2 0x25A9 JUMP JUMPDEST SWAP3 SWAP2 POP POP JUMP JUMPDEST PUSH0 PUSH1 0x20 DUP3 DUP5 SUB SLT ISZERO PUSH2 0x25E8 JUMPI PUSH2 0x25E7 PUSH2 0x2340 JUMP JUMPDEST JUMPDEST PUSH0 PUSH2 0x25F5 DUP5 DUP3 DUP6 ADD PUSH2 0x25BF JUMP JUMPDEST SWAP2 POP POP SWAP3 SWAP2 POP POP JUMP JUMPDEST PUSH0 DUP2 ISZERO ISZERO SWAP1 POP SWAP2 SWAP1 POP JUMP JUMPDEST PUSH2 0x2612 DUP2 PUSH2 0x25FE JUMP JUMPDEST DUP3 MSTORE POP POP JUMP JUMPDEST PUSH0 PUSH1 0x20 DUP3 ADD SWAP1 POP PUSH2 0x262B PUSH0 DUP4 ADD DUP5 PUSH2 0x2609 JUMP JUMPDEST SWAP3 SWAP2 POP POP JUMP JUMPDEST PUSH2 0x263A DUP2 PUSH2 0x2303 JUMP JUMPDEST DUP2 EQ PUSH2 0x2644 JUMPI PUSH0 DUP1 REVERT JUMPDEST POP JUMP JUMPDEST PUSH0 DUP2 CALLDATALOAD SWAP1 POP PUSH2 0x2655 DUP2 PUSH2 0x2631 JUMP JUMPDEST SWAP3 SWAP2 POP POP JUMP JUMPDEST PUSH0 DUP1 PUSH1 0x40 DUP4 DUP6 SUB SLT ISZERO PUSH2 0x2671 JUMPI PUSH2 0x2670 PUSH2 0x2340 JUMP JUMPDEST JUMPDEST PUSH0 PUSH2 0x267E DUP6 DUP3 DUP7 ADD PUSH2 0x25BF JUMP JUMPDEST SWAP3 POP POP PUSH1 0x20 PUSH2 0x268F DUP6 DUP3 DUP7 ADD PUSH2 0x2647 JUMP JUMPDEST SWAP2 POP POP SWAP3 POP SWAP3 SWAP1 POP JUMP JUMPDEST PUSH0 PUSH1 0x60 DUP3 ADD SWAP1 POP PUSH2 0x26AC PUSH0 DUP4 ADD DUP7 PUSH2 0x23D6 JUMP JUMPDEST PUSH2 0x26B9 PUSH1 0x20 DUP4 ADD DUP6 PUSH2 0x2609 JUMP JUMPDEST PUSH2 0x26C6 PUSH1 0x40 DUP4 ADD DUP5 PUSH2 0x23FE JUMP JUMPDEST SWAP5 SWAP4 POP POP POP POP JUMP JUMPDEST PUSH0 PUSH1 0x60 DUP3 ADD SWAP1 POP PUSH2 0x26E1 PUSH0 DUP4 ADD DUP7 PUSH2 0x23FE JUMP JUMPDEST PUSH2 0x26EE PUSH1 0x20 DUP4 ADD DUP6 PUSH2 0x23D6 JUMP JUMPDEST PUSH2 0x26FB PUSH1 0x40 DUP4 ADD DUP5 PUSH2 0x23FE JUMP JUMPDEST SWAP5 SWAP4 POP POP POP POP JUMP JUMPDEST PUSH0 DUP1 PUSH1 0x40 DUP4 DUP6 SUB SLT ISZERO PUSH2 0x2719 JUMPI PUSH2 0x2718 PUSH2 0x2340 JUMP JUMPDEST JUMPDEST PUSH0 PUSH2 0x2726 DUP6 DUP3 DUP7 ADD PUSH2 0x2647 JUMP JUMPDEST SWAP3 POP POP PUSH1 0x20 PUSH2 0x2737 DUP6 DUP3 DUP7 ADD PUSH2 0x2647 JUMP JUMPDEST SWAP2 POP POP SWAP3 POP SWAP3 SWAP1 POP JUMP JUMPDEST PUSH0 PUSH1 0x80 DUP3 ADD SWAP1 POP PUSH2 0x2754 PUSH0 DUP4 ADD DUP8 PUSH2 0x23D6 JUMP JUMPDEST PUSH2 0x2761 PUSH1 0x20 DUP4 ADD DUP7 PUSH2 0x2609 JUMP JUMPDEST PUSH2 0x276E PUSH1 0x40 DUP4 ADD DUP6 PUSH2 0x23FE JUMP JUMPDEST PUSH2 0x277B PUSH1 0x60 DUP4 ADD DUP5 PUSH2 0x23D6 JUMP JUMPDEST SWAP6 SWAP5 POP POP POP POP POP JUMP JUMPDEST PUSH0 PUSH1 0x20 DUP3 DUP5 SUB SLT ISZERO PUSH2 0x2799 JUMPI PUSH2 0x2798 PUSH2 0x2340 JUMP JUMPDEST JUMPDEST PUSH0 PUSH2 0x27A6 DUP5 DUP3 DUP6 ADD PUSH2 0x2647 JUMP JUMPDEST SWAP2 POP POP SWAP3 SWAP2 POP POP JUMP JUMPDEST PUSH0 DUP3 DUP3 MSTORE PUSH1 0x20 DUP3 ADD SWAP1 POP SWAP3 SWAP2 POP POP JUMP JUMPDEST PUSH32 0x526567697374726174696F6E20636F737420697320302E30352065746865722E PUSH0 DUP3 ADD MSTORE POP JUMP JUMPDEST PUSH0 PUSH2 0x27F3 PUSH1 0x20 DUP4 PUSH2 0x27AF JUMP JUMPDEST SWAP2 POP PUSH2 0x27FE DUP3 PUSH2 0x27BF JUMP JUMPDEST PUSH1 0x20 DUP3 ADD SWAP1 POP SWAP2 SWAP1 POP JUMP JUMPDEST PUSH0 PUSH1 0x20 DUP3 ADD SWAP1 POP DUP2 DUP2 SUB PUSH0 DUP4 ADD MSTORE PUSH2 0x2820 DUP2 PUSH2 0x27E7 JUMP JUMPDEST SWAP1 POP SWAP2 SWAP1 POP JUMP JUMPDEST PUSH32 0x5573657220616C7265616479206578697374732E000000000000000000000000 PUSH0 DUP3 ADD MSTORE POP JUMP JUMPDEST PUSH0 PUSH2 0x285B PUSH1 0x14 DUP4 PUSH2 0x27AF JUMP JUMPDEST SWAP2 POP PUSH2 0x2866 DUP3 PUSH2 0x2827 JUMP JUMPDEST PUSH1 0x20 DUP3 ADD SWAP1 POP SWAP2 SWAP1 POP JUMP JUMPDEST PUSH0 PUSH1 0x20 DUP3 ADD SWAP1 POP DUP2 DUP2 SUB PUSH0 DUP4 ADD MSTORE PUSH2 0x2888 DUP2 PUSH2 0x284F JUMP JUMPDEST SWAP1 POP SWAP2 SWAP1 POP JUMP JUMPDEST PUSH32 0x526566657272657220646F6573206E6F742065786973742E0000000000000000 PUSH0 DUP3 ADD MSTORE POP JUMP JUMPDEST PUSH0 PUSH2 0x28C3 PUSH1 0x18 DUP4 PUSH2 0x27AF JUMP JUMPDEST SWAP2 POP PUSH2 0x28CE DUP3 PUSH2 0x288F JUMP JUMPDEST PUSH1 0x20 DUP3 ADD SWAP1 POP SWAP2 SWAP1 POP JUMP JUMPDEST PUSH0 PUSH1 0x20 DUP3 ADD SWAP1 POP DUP2 DUP2 SUB PUSH0 DUP4 ADD MSTORE PUSH2 0x28F0 DUP2 PUSH2 0x28B7 JUMP JUMPDEST SWAP1 POP SWAP2 SWAP1 POP JUMP JUMPDEST PUSH32 0x43616E6E6F74206265206120636F6E74726163742E0000000000000000000000 PUSH0 DUP3 ADD MSTORE POP JUMP JUMPDEST PUSH0 PUSH2 0x292B PUSH1 0x15 DUP4 PUSH2 0x27AF JUMP JUMPDEST SWAP2 POP PUSH2 0x2936 DUP3 PUSH2 0x28F7 JUMP JUMPDEST PUSH1 0x20 DUP3 ADD SWAP1 POP SWAP2 SWAP1 POP JUMP JUMPDEST PUSH0 PUSH1 0x20 DUP3 ADD SWAP1 POP DUP2 DUP2 SUB PUSH0 DUP4 ADD MSTORE PUSH2 0x2958 DUP2 PUSH2 0x291F JUMP JUMPDEST SWAP1 POP SWAP2 SWAP1 POP JUMP JUMPDEST PUSH32 0x4E487B7100000000000000000000000000000000000000000000000000000000 PUSH0 MSTORE PUSH1 0x11 PUSH1 0x4 MSTORE PUSH1 0x24 PUSH0 REVERT JUMPDEST PUSH0 PUSH2 0x2996 DUP3 PUSH2 0x2348 JUMP JUMPDEST SWAP2 POP PUSH32 0xFFFFFFFFFFFFFFFFFFFFFFFFFFFFFFFFFFFFFFFFFFFFFFFFFFFFFFFFFFFFFFFF DUP3 SUB PUSH2 0x29C8 JUMPI PUSH2 0x29C7 PUSH2 0x295F JUMP JUMPDEST JUMPDEST PUSH1 0x1 DUP3 ADD SWAP1 POP SWAP2 SWAP1 POP JUMP JUMPDEST PUSH32 0x55736572206973206E6F7420726567697374657265642E205265676973746572 PUSH0 DUP3 ADD MSTORE PUSH32 0x2066697273742E00000000000000000000000000000000000000000000000000 PUSH1 0x20 DUP3 ADD MSTORE POP JUMP JUMPDEST PUSH0 PUSH2 0x2A2D PUSH1 0x27 DUP4 PUSH2 0x27AF JUMP JUMPDEST SWAP2 POP PUSH2 0x2A38 DUP3 PUSH2 0x29D3 JUMP JUMPDEST PUSH1 0x40 DUP3 ADD SWAP1 POP SWAP2 SWAP1 POP JUMP JUMPDEST PUSH0 PUSH1 0x20 DUP3 ADD SWAP1 POP DUP2 DUP2 SUB PUSH0 DUP4 ADD MSTORE PUSH2 0x2A5A DUP2 PUSH2 0x2A21 JUMP JUMPDEST SWAP1 POP SWAP2 SWAP1 POP JUMP JUMPDEST PUSH32 0x496E76616C6964206D61747269782E0000000000000000000000000000000000 PUSH0 DUP3 ADD MSTORE POP JUMP JUMPDEST PUSH0 PUSH2 0x2A95 PUSH1 0xF DUP4 PUSH2 0x27AF JUMP JUMPDEST SWAP2 POP PUSH2 0x2AA0 DUP3 PUSH2 0x2A61 JUMP JUMPDEST PUSH1 0x20 DUP3 ADD SWAP1 POP SWAP2 SWAP1 POP JUMP JUMPDEST PUSH0 PUSH1 0x20 DUP3 ADD SWAP1 POP DUP2 DUP2 SUB PUSH0 DUP4 ADD MSTORE PUSH2 0x2AC2 DUP2 PUSH2 0x2A89 JUMP JUMPDEST SWAP1 POP SWAP2 SWAP1 POP JUMP JUMPDEST PUSH32 0x496E76616C69642070726963652E000000000000000000000000000000000000 PUSH0 DUP3 ADD MSTORE POP JUMP JUMPDEST PUSH0 PUSH2 0x2AFD PUSH1 0xE DUP4 PUSH2 0x27AF JUMP JUMPDEST SWAP2 POP PUSH2 0x2B08 DUP3 PUSH2 0x2AC9 JUMP JUMPDEST PUSH1 0x20 DUP3 ADD SWAP1 POP SWAP2 SWAP1 POP JUMP JUMPDEST PUSH0 PUSH1 0x20 DUP3 ADD SWAP1 POP DUP2 DUP2 SUB PUSH0 DUP4 ADD MSTORE PUSH2 0x2B2A DUP2 PUSH2 0x2AF1 JUMP JUMPDEST SWAP1 POP SWAP2 SWAP1 POP JUMP JUMPDEST PUSH32 0x496E76616C6964206C6576656C2E000000000000000000000000000000000000 PUSH0 DUP3 ADD MSTORE POP JUMP JUMPDEST PUSH0 PUSH2 0x2B65 PUSH1 0xE DUP4 PUSH2 0x27AF JUMP JUMPDEST SWAP2 POP PUSH2 0x2B70 DUP3 PUSH2 0x2B31 JUMP JUMPDEST PUSH1 0x20 DUP3 ADD SWAP1 POP SWAP2 SWAP1 POP JUMP JUMPDEST PUSH0 PUSH1 0x20 DUP3 ADD SWAP1 POP DUP2 DUP2 SUB PUSH0 DUP4 ADD MSTORE PUSH2 0x2B92 DUP2 PUSH2 0x2B59 JUMP JUMPDEST SWAP1 POP SWAP2 SWAP1 POP JUMP JUMPDEST PUSH32 0x4C6576656C20616C7265616479206163746976617465642E0000000000000000 PUSH0 DUP3 ADD MSTORE POP JUMP JUMPDEST PUSH0 PUSH2 0x2BCD PUSH1 0x18 DUP4 PUSH2 0x27AF JUMP JUMPDEST SWAP2 POP PUSH2 0x2BD8 DUP3 PUSH2 0x2B99 JUMP JUMPDEST PUSH1 0x20 DUP3 ADD SWAP1 POP SWAP2 SWAP1 POP JUMP JUMPDEST PUSH0 PUSH1 0x20 DUP3 ADD SWAP1 POP DUP2 DUP2 SUB PUSH0 DUP4 ADD MSTORE PUSH2 0x2BFA DUP2 PUSH2 0x2BC1 JUMP JUMPDEST SWAP1 POP SWAP2 SWAP1 POP JUMP JUMPDEST PUSH0 PUSH2 0x2C0B DUP3 PUSH2 0x2303 JUMP JUMPDEST SWAP2 POP PUSH2 0x2C16 DUP4 PUSH2 0x2303 JUMP JUMPDEST SWAP3 POP DUP3 DUP3 SUB SWAP1 POP PUSH1 0xFF DUP2 GT ISZERO PUSH2 0x2C2F JUMPI PUSH2 0x2C2E PUSH2 0x295F JUMP JUMPDEST JUMPDEST SWAP3 SWAP2 POP POP JUMP JUMPDEST PUSH0 DUP2 SWAP1 POP SWAP2 SWAP1 POP JUMP JUMPDEST PUSH0 DUP2 SWAP1 POP SWAP2 SWAP1 POP JUMP JUMPDEST PUSH0 PUSH2 0x2C61 PUSH2 0x2C5C PUSH2 0x2C57 DUP5 PUSH2 0x2C35 JUMP JUMPDEST PUSH2 0x2C3E JUMP JUMPDEST PUSH2 0x2303 JUMP JUMPDEST SWAP1 POP SWAP2 SWAP1 POP JUMP JUMPDEST PUSH2 0x2C71 DUP2 PUSH2 0x2C47 JUMP JUMPDEST DUP3 MSTORE POP POP JUMP JUMPDEST PUSH0 PUSH1 0x40 DUP3 ADD SWAP1 POP PUSH2 0x2C8A PUSH0 DUP4 ADD DUP6 PUSH2 0x2C68 JUMP JUMPDEST PUSH2 0x2C97 PUSH1 0x20 DUP4 ADD DUP5 PUSH2 0x230F JUMP JUMPDEST SWAP4 SWAP3 POP POP POP JUMP JUMPDEST PUSH0 DUP2 SWAP1 POP SWAP2 SWAP1 POP JUMP JUMPDEST PUSH0 PUSH2 0x2CC1 PUSH2 0x2CBC PUSH2 0x2CB7 DUP5 PUSH2 0x2C9E JUMP JUMPDEST PUSH2 0x2C3E JUMP JUMPDEST PUSH2 0x2303 JUMP JUMPDEST SWAP1 POP SWAP2 SWAP1 POP JUMP JUMPDEST PUSH2 0x2CD1 DUP2 PUSH2 0x2CA7 JUMP JUMPDEST DUP3 MSTORE POP POP JUMP JUMPDEST PUSH0 PUSH1 0x40 DUP3 ADD SWAP1 POP PUSH2 0x2CEA PUSH0 DUP4 ADD DUP6 PUSH2 0x2CC8 JUMP JUMPDEST PUSH2 0x2CF7 PUSH1 0x20 DUP4 ADD DUP5 PUSH2 0x230F JUMP JUMPDEST SWAP4 SWAP3 POP POP POP JUMP JUMPDEST PUSH0 PUSH1 0x60 DUP3 ADD SWAP1 POP PUSH2 0x2D11 PUSH0 DUP4 ADD DUP7 PUSH2 0x2C68 JUMP JUMPDEST PUSH2 0x2D1E PUSH1 0x20 DUP4 ADD DUP6 PUSH2 0x230F JUMP JUMPDEST PUSH2 0x2D2B PUSH1 0x40 DUP4 ADD DUP5 PUSH2 0x230F JUMP JUMPDEST SWAP5 SWAP4 POP POP POP POP JUMP JUMPDEST PUSH0 DUP2 SWAP1 POP SWAP2 SWAP1 POP JUMP JUMPDEST PUSH0 PUSH2 0x2D56 PUSH2 0x2D51 PUSH2 0x2D4C DUP5 PUSH2 0x2D33 JUMP JUMPDEST PUSH2 0x2C3E JUMP JUMPDEST PUSH2 0x2303 JUMP JUMPDEST SWAP1 POP SWAP2 SWAP1 POP JUMP JUMPDEST PUSH2 0x2D66 DUP2 PUSH2 0x2D3C JUMP JUMPDEST DUP3 MSTORE POP POP JUMP JUMPDEST PUSH0 PUSH1 0x60 DUP3 ADD SWAP1 POP PUSH2 0x2D7F PUSH0 DUP4 ADD DUP7 PUSH2 0x2C68 JUMP JUMPDEST PUSH2 0x2D8C PUSH1 0x20 DUP4 ADD DUP6 PUSH2 0x230F JUMP JUMPDEST PUSH2 0x2D99 PUSH1 0x40 DUP4 ADD DUP5 PUSH2 0x2D5D JUMP JUMPDEST SWAP5 SWAP4 POP POP POP POP JUMP JUMPDEST PUSH0 PUSH2 0x2DAB DUP3 PUSH2 0x2303 JUMP JUMPDEST SWAP2 POP PUSH2 0x2DB6 DUP4 PUSH2 0x2303 JUMP JUMPDEST SWAP3 POP DUP3 DUP3 ADD SWAP1 POP PUSH1 0xFF DUP2 GT ISZERO PUSH2 0x2DCF JUMPI PUSH2 0x2DCE PUSH2 0x295F JUMP JUMPDEST JUMPDEST SWAP3 SWAP2 POP POP JUMP JUMPDEST PUSH32 0x5265666572726572206C6576656C20697320696E6163746976652E0000000000 PUSH0 DUP3 ADD MSTORE POP JUMP JUMPDEST PUSH0 PUSH2 0x2E09 PUSH1 0x1B DUP4 PUSH2 0x27AF JUMP JUMPDEST SWAP2 POP PUSH2 0x2E14 DUP3 PUSH2 0x2DD5 JUMP JUMPDEST PUSH1 0x20 DUP3 ADD SWAP1 POP SWAP2 SWAP1 POP JUMP JUMPDEST PUSH0 PUSH1 0x20 DUP3 ADD SWAP1 POP DUP2 DUP2 SUB PUSH0 DUP4 ADD MSTORE PUSH2 0x2E36 DUP2 PUSH2 0x2DFD JUMP JUMPDEST SWAP1 POP SWAP2 SWAP1 POP JUMP JUMPDEST PUSH0 PUSH1 0x60 DUP3 ADD SWAP1 POP PUSH2 0x2E50 PUSH0 DUP4 ADD DUP7 PUSH2 0x2CC8 JUMP JUMPDEST PUSH2 0x2E5D PUSH1 0x20 DUP4 ADD DUP6 PUSH2 0x230F JUMP JUMPDEST PUSH2 0x2E6A PUSH1 0x40 DUP4 ADD DUP5 PUSH2 0x230F JUMP JUMPDEST SWAP5 SWAP4 POP POP POP POP JUMP JUMPDEST PUSH32 0x4E487B7100000000000000000000000000000000000000000000000000000000 PUSH0 MSTORE PUSH1 0x32 PUSH1 0x4 MSTORE PUSH1 0x24 PUSH0 REVERT INVALID LOG2 PUSH5 0x6970667358 0x22 SLT KECCAK256 SWAP14 PUSH0 PUSH8 0x65BFAE937F173064 0xC3 0xD5 0xA5 DUP3 0xB8 0xCC PUSH26 0x4F1A59DF2AAAD623AA03B65AC23B64736F6C634300081A003300 "
				},
				"gasEstimates": {
					"creation": {
						"codeDepositCost": "2397800",
						"executionCost": "infinite",
						"totalCost": "infinite"
					},
					"external": {
						"": "infinite",
						"LAST_LEVEL()": "355",
						"buyNewLevel(uint8,uint8)": "infinite",
						"bytesToAddress(bytes)": "infinite",
						"findFreeX3Referrer(address,uint8)": "infinite",
						"findFreeX6Referrer(address,uint8)": "infinite",
						"idToAddress(uint256)": "2873",
						"isUserExists(address)": "2894",
						"lastUserId()": "2493",
						"levelPrice(uint8)": "2826",
						"owner()": "2531",
						"registrationExt(address)": "infinite",
						"users(address)": "infinite",
						"x3Matrices(address,uint8)": "infinite",
						"x6Matrices(address,uint8)": "infinite"
					},
					"internal": {
						"registration(address,address)": "infinite",
						"sendETHDividends(address)": "infinite",
						"updateX3Referrer(address,address,uint8)": "infinite",
						"updateX6Referrer(address,address,uint8)": "infinite",
						"updateX6ReferrerSecondLevel(address,address,uint8)": "infinite"
					}
				},
				"methodIdentifiers": {
					"LAST_LEVEL()": "29c70400",
					"buyNewLevel(uint8,uint8)": "be389d57",
					"bytesToAddress(bytes)": "42526e4e",
					"findFreeX3Referrer(address,uint8)": "fa45323d",
					"findFreeX6Referrer(address,uint8)": "e06e8dbd",
					"idToAddress(uint256)": "2a2d0c47",
					"isUserExists(address)": "509222cd",
					"lastUserId()": "348d4487",
					"levelPrice(uint8)": "ecabdf79",
					"owner()": "8da5cb5b",
					"registrationExt(address)": "797eee24",
					"users(address)": "a87430ba",
					"x3Matrices(address,uint8)": "87b2b7e7",
					"x6Matrices(address,uint8)": "d4414b50"
				}
			},
			"storageLayout": {
				"storage": [
					{
						"astId": 49,
						"contract": "forsage.sol:Forsage",
						"label": "users",
						"offset": 0,
						"slot": "0",
						"type": "t_mapping(t_address,t_struct(User)16_storage)"
					},
					{
						"astId": 56,
						"contract": "forsage.sol:Forsage",
						"label": "x3Matrices",
						"offset": 0,
						"slot": "1",
						"type": "t_mapping(t_address,t_mapping(t_uint8,t_struct(X3)26_storage))"
					},
					{
						"astId": 63,
						"contract": "forsage.sol:Forsage",
						"label": "x6Matrices",
						"offset": 0,
						"slot": "2",
						"type": "t_mapping(t_address,t_mapping(t_uint8,t_struct(X6)41_storage))"
					},
					{
						"astId": 67,
						"contract": "forsage.sol:Forsage",
						"label": "idToAddress",
						"offset": 0,
						"slot": "3",
						"type": "t_mapping(t_uint256,t_address)"
					},
					{
						"astId": 70,
						"contract": "forsage.sol:Forsage",
						"label": "lastUserId",
						"offset": 0,
						"slot": "4",
						"type": "t_uint256"
					},
					{
						"astId": 72,
						"contract": "forsage.sol:Forsage",
						"label": "owner",
						"offset": 0,
						"slot": "5",
						"type": "t_address"
					},
					{
						"astId": 76,
						"contract": "forsage.sol:Forsage",
						"label": "levelPrice",
						"offset": 0,
						"slot": "6",
						"type": "t_mapping(t_uint8,t_uint256)"
					}
				],
				"types": {
					"t_address": {
						"encoding": "inplace",
						"label": "address",
						"numberOfBytes": "20"
					},
					"t_array(t_address)dyn_storage": {
						"base": "t_address",
						"encoding": "dynamic_array",
						"label": "address[]",
						"numberOfBytes": "32"
					},
					"t_bool": {
						"encoding": "inplace",
						"label": "bool",
						"numberOfBytes": "1"
					},
					"t_mapping(t_address,t_mapping(t_uint8,t_struct(X3)26_storage))": {
						"encoding": "mapping",
						"key": "t_address",
						"label": "mapping(address => mapping(uint8 => struct Forsage.X3))",
						"numberOfBytes": "32",
						"value": "t_mapping(t_uint8,t_struct(X3)26_storage)"
					},
					"t_mapping(t_address,t_mapping(t_uint8,t_struct(X6)41_storage))": {
						"encoding": "mapping",
						"key": "t_address",
						"label": "mapping(address => mapping(uint8 => struct Forsage.X6))",
						"numberOfBytes": "32",
						"value": "t_mapping(t_uint8,t_struct(X6)41_storage)"
					},
					"t_mapping(t_address,t_struct(User)16_storage)": {
						"encoding": "mapping",
						"key": "t_address",
						"label": "mapping(address => struct Forsage.User)",
						"numberOfBytes": "32",
						"value": "t_struct(User)16_storage"
					},
					"t_mapping(t_uint256,t_address)": {
						"encoding": "mapping",
						"key": "t_uint256",
						"label": "mapping(uint256 => address)",
						"numberOfBytes": "32",
						"value": "t_address"
					},
					"t_mapping(t_uint8,t_bool)": {
						"encoding": "mapping",
						"key": "t_uint8",
						"label": "mapping(uint8 => bool)",
						"numberOfBytes": "32",
						"value": "t_bool"
					},
					"t_mapping(t_uint8,t_struct(X3)26_storage)": {
						"encoding": "mapping",
						"key": "t_uint8",
						"label": "mapping(uint8 => struct Forsage.X3)",
						"numberOfBytes": "32",
						"value": "t_struct(X3)26_storage"
					},
					"t_mapping(t_uint8,t_struct(X6)41_storage)": {
						"encoding": "mapping",
						"key": "t_uint8",
						"label": "mapping(uint8 => struct Forsage.X6)",
						"numberOfBytes": "32",
						"value": "t_struct(X6)41_storage"
					},
					"t_mapping(t_uint8,t_uint256)": {
						"encoding": "mapping",
						"key": "t_uint8",
						"label": "mapping(uint8 => uint256)",
						"numberOfBytes": "32",
						"value": "t_uint256"
					},
					"t_struct(User)16_storage": {
						"encoding": "inplace",
						"label": "struct Forsage.User",
						"members": [
							{
								"astId": 3,
								"contract": "forsage.sol:Forsage",
								"label": "id",
								"offset": 0,
								"slot": "0",
								"type": "t_uint256"
							},
							{
								"astId": 5,
								"contract": "forsage.sol:Forsage",
								"label": "referrer",
								"offset": 0,
								"slot": "1",
								"type": "t_address"
							},
							{
								"astId": 7,
								"contract": "forsage.sol:Forsage",
								"label": "partnersCount",
								"offset": 0,
								"slot": "2",
								"type": "t_uint256"
							},
							{
								"astId": 11,
								"contract": "forsage.sol:Forsage",
								"label": "activeX3Levels",
								"offset": 0,
								"slot": "3",
								"type": "t_mapping(t_uint8,t_bool)"
							},
							{
								"astId": 15,
								"contract": "forsage.sol:Forsage",
								"label": "activeX6Levels",
								"offset": 0,
								"slot": "4",
								"type": "t_mapping(t_uint8,t_bool)"
							}
						],
						"numberOfBytes": "160"
					},
					"t_struct(X3)26_storage": {
						"encoding": "inplace",
						"label": "struct Forsage.X3",
						"members": [
							{
								"astId": 18,
								"contract": "forsage.sol:Forsage",
								"label": "currentReferrer",
								"offset": 0,
								"slot": "0",
								"type": "t_address"
							},
							{
								"astId": 21,
								"contract": "forsage.sol:Forsage",
								"label": "referrals",
								"offset": 0,
								"slot": "1",
								"type": "t_array(t_address)dyn_storage"
							},
							{
								"astId": 23,
								"contract": "forsage.sol:Forsage",
								"label": "blocked",
								"offset": 0,
								"slot": "2",
								"type": "t_bool"
							},
							{
								"astId": 25,
								"contract": "forsage.sol:Forsage",
								"label": "reinvestCount",
								"offset": 0,
								"slot": "3",
								"type": "t_uint256"
							}
						],
						"numberOfBytes": "128"
					},
					"t_struct(X6)41_storage": {
						"encoding": "inplace",
						"label": "struct Forsage.X6",
						"members": [
							{
								"astId": 28,
								"contract": "forsage.sol:Forsage",
								"label": "currentReferrer",
								"offset": 0,
								"slot": "0",
								"type": "t_address"
							},
							{
								"astId": 31,
								"contract": "forsage.sol:Forsage",
								"label": "firstLevelReferrals",
								"offset": 0,
								"slot": "1",
								"type": "t_array(t_address)dyn_storage"
							},
							{
								"astId": 34,
								"contract": "forsage.sol:Forsage",
								"label": "secondLevelReferrals",
								"offset": 0,
								"slot": "2",
								"type": "t_array(t_address)dyn_storage"
							},
							{
								"astId": 36,
								"contract": "forsage.sol:Forsage",
								"label": "blocked",
								"offset": 0,
								"slot": "3",
								"type": "t_bool"
							},
							{
								"astId": 38,
								"contract": "forsage.sol:Forsage",
								"label": "reinvestCount",
								"offset": 0,
								"slot": "4",
								"type": "t_uint256"
							},
							{
								"astId": 40,
								"contract": "forsage.sol:Forsage",
								"label": "closedPart",
								"offset": 0,
								"slot": "5",
								"type": "t_address"
							}
						],
						"numberOfBytes": "192"
					},
					"t_uint256": {
						"encoding": "inplace",
						"label": "uint256",
						"numberOfBytes": "32"
					},
					"t_uint8": {
						"encoding": "inplace",
						"label": "uint8",
						"numberOfBytes": "1"
					}
				}
			},
			"userdoc": {
				"kind": "user",
				"methods": {},
				"version": 1
			}
		}
	}
}