{
	"checking.sol": {
		"checking": {
			"abi": [
				{
					"inputs": [],
					"stateMutability": "nonpayable",
					"type": "constructor"
				},
				{
					"anonymous": false,
					"inputs": [
						{
							"indexed": true,
							"internalType": "address",
							"name": "user",
							"type": "address"
						},
						{
							"indexed": false,
							"internalType": "uint256",
							"name": "amount",
							"type": "uint256"
						}
					],
					"name": "Earnings",
					"type": "event"
				},
				{
					"anonymous": false,
					"inputs": [
						{
							"indexed": true,
							"internalType": "address",
							"name": "user",
							"type": "address"
						},
						{
							"indexed": false,
							"internalType": "uint8",
							"name": "newLevel",
							"type": "uint8"
						},
						{
							"indexed": false,
							"internalType": "uint256",
							"name": "price",
							"type": "uint256"
						},
						{
							"indexed": false,
							"internalType": "uint256",
							"name": "uplineEarnings",
							"type": "uint256"
						},
						{
							"indexed": false,
							"internalType": "uint256",
							"name": "ownerEarnings",
							"type": "uint256"
						}
					],
					"name": "LevelUpgraded",
					"type": "event"
				},
				{
					"anonymous": false,
					"inputs": [
						{
							"indexed": true,
							"internalType": "address",
							"name": "user",
							"type": "address"
						},
						{
							"indexed": false,
							"internalType": "uint256",
							"name": "cycleCount",
							"type": "uint256"
						}
					],
					"name": "NewCycle",
					"type": "event"
				},
				{
					"anonymous": false,
					"inputs": [
						{
							"indexed": true,
							"internalType": "address",
							"name": "user",
							"type": "address"
						},
						{
							"indexed": true,
							"internalType": "address",
							"name": "referral",
							"type": "address"
						}
					],
					"name": "NewReferral",
					"type": "event"
				},
				{
					"anonymous": false,
					"inputs": [
						{
							"indexed": true,
							"internalType": "address",
							"name": "user",
							"type": "address"
						},
						{
							"indexed": true,
							"internalType": "address",
							"name": "upline",
							"type": "address"
						},
						{
							"indexed": false,
							"internalType": "uint256",
							"name": "userId",
							"type": "uint256"
						},
						{
							"indexed": false,
							"internalType": "uint256",
							"name": "uplineId",
							"type": "uint256"
						},
						{
							"indexed": false,
							"internalType": "uint256",
							"name": "fee",
							"type": "uint256"
						},
						{
							"indexed": false,
							"internalType": "uint8",
							"name": "partnerLevel",
							"type": "uint8"
						}
					],
					"name": "Registration",
					"type": "event"
				},
				{
					"inputs": [],
					"name": "BASIC_PRICE",
					"outputs": [
						{
							"internalType": "uint256",
							"name": "",
							"type": "uint256"
						}
					],
					"stateMutability": "view",
					"type": "function"
				},
				{
					"inputs": [],
					"name": "LAST_LEVEL",
					"outputs": [
						{
							"internalType": "uint8",
							"name": "",
							"type": "uint8"
						}
					],
					"stateMutability": "view",
					"type": "function"
				},
				{
					"inputs": [],
					"name": "REGISTRATION_FEE",
					"outputs": [
						{
							"internalType": "uint256",
							"name": "",
							"type": "uint256"
						}
					],
					"stateMutability": "view",
					"type": "function"
				},
				{
					"inputs": [
						{
							"internalType": "uint8",
							"name": "_newLevel",
							"type": "uint8"
						}
					],
					"name": "buyLevel",
					"outputs": [],
					"stateMutability": "payable",
					"type": "function"
				},
				{
					"inputs": [
						{
							"internalType": "address",
							"name": "userAddress",
							"type": "address"
						}
					],
					"name": "generateReferralLink",
					"outputs": [
						{
							"internalType": "string",
							"name": "",
							"type": "string"
						}
					],
					"stateMutability": "view",
					"type": "function"
				},
				{
					"inputs": [
						{
							"internalType": "address",
							"name": "_user",
							"type": "address"
						}
					],
					"name": "getCurrentUplineLevel",
					"outputs": [
						{
							"internalType": "uint8",
							"name": "",
							"type": "uint8"
						}
					],
					"stateMutability": "view",
					"type": "function"
				},
				{
					"inputs": [
						{
							"internalType": "uint8",
							"name": "_level",
							"type": "uint8"
						}
					],
					"name": "getLevelPrice",
					"outputs": [
						{
							"internalType": "uint256",
							"name": "",
							"type": "uint256"
						}
					],
					"stateMutability": "view",
					"type": "function"
				},
				{
					"inputs": [
						{
							"internalType": "address",
							"name": "_upline",
							"type": "address"
						}
					],
					"name": "getTotalReferralCount",
					"outputs": [
						{
							"internalType": "uint256",
							"name": "",
							"type": "uint256"
						}
					],
					"stateMutability": "view",
					"type": "function"
				},
				{
					"inputs": [
						{
							"internalType": "uint256",
							"name": "_id",
							"type": "uint256"
						}
					],
					"name": "getUserById",
					"outputs": [
						{
							"internalType": "address",
							"name": "",
							"type": "address"
						}
					],
					"stateMutability": "view",
					"type": "function"
				},
				{
					"inputs": [
						{
							"internalType": "address",
							"name": "_user",
							"type": "address"
						}
					],
					"name": "getUserInfo",
					"outputs": [
						{
							"internalType": "address",
							"name": "",
							"type": "address"
						},
						{
							"internalType": "uint256",
							"name": "",
							"type": "uint256"
						},
						{
							"internalType": "uint256",
							"name": "",
							"type": "uint256"
						},
						{
							"internalType": "uint256",
							"name": "",
							"type": "uint256"
						},
						{
							"internalType": "uint256",
							"name": "",
							"type": "uint256"
						},
						{
							"internalType": "uint256",
							"name": "",
							"type": "uint256"
						},
						{
							"internalType": "string",
							"name": "",
							"type": "string"
						},
						{
							"internalType": "string",
							"name": "",
							"type": "string"
						},
						{
							"internalType": "string",
							"name": "",
							"type": "string"
						},
						{
							"internalType": "string",
							"name": "",
							"type": "string"
						},
						{
							"internalType": "address",
							"name": "",
							"type": "address"
						}
					],
					"stateMutability": "view",
					"type": "function"
				},
				{
					"inputs": [
						{
							"internalType": "uint256",
							"name": "",
							"type": "uint256"
						}
					],
					"name": "idToAddress",
					"outputs": [
						{
							"internalType": "address",
							"name": "",
							"type": "address"
						}
					],
					"stateMutability": "view",
					"type": "function"
				},
				{
					"inputs": [],
					"name": "lastUserId",
					"outputs": [
						{
							"internalType": "uint256",
							"name": "",
							"type": "uint256"
						}
					],
					"stateMutability": "view",
					"type": "function"
				},
				{
					"inputs": [
						{
							"internalType": "uint8",
							"name": "",
							"type": "uint8"
						}
					],
					"name": "levelPrice",
					"outputs": [
						{
							"internalType": "uint256",
							"name": "",
							"type": "uint256"
						}
					],
					"stateMutability": "view",
					"type": "function"
				},
				{
					"inputs": [],
					"name": "owner",
					"outputs": [
						{
							"internalType": "address",
							"name": "",
							"type": "address"
						}
					],
					"stateMutability": "view",
					"type": "function"
				},
				{
					"inputs": [
						{
							"internalType": "address",
							"name": "_user",
							"type": "address"
						}
					],
					"name": "payUpline",
					"outputs": [
						{
							"internalType": "uint256",
							"name": "",
							"type": "uint256"
						}
					],
					"stateMutability": "payable",
					"type": "function"
				},
				{
					"inputs": [
						{
							"internalType": "address",
							"name": "_upline",
							"type": "address"
						},
						{
							"internalType": "string",
							"name": "firstName",
							"type": "string"
						},
						{
							"internalType": "string",
							"name": "lastName",
							"type": "string"
						},
						{
							"internalType": "string",
							"name": "profilePic",
							"type": "string"
						},
						{
							"internalType": "string",
							"name": "email",
							"type": "string"
						},
						{
							"internalType": "string",
							"name": "password",
							"type": "string"
						}
					],
					"name": "registerUpline",
					"outputs": [],
					"stateMutability": "payable",
					"type": "function"
				},
				{
					"inputs": [
						{
							"internalType": "address",
							"name": "_upline",
							"type": "address"
						},
						{
							"internalType": "string",
							"name": "firstName",
							"type": "string"
						},
						{
							"internalType": "string",
							"name": "lastName",
							"type": "string"
						},
						{
							"internalType": "string",
							"name": "profilePic",
							"type": "string"
						},
						{
							"internalType": "string",
							"name": "email",
							"type": "string"
						},
						{
							"internalType": "string",
							"name": "password",
							"type": "string"
						},
						{
							"internalType": "address",
							"name": "userAddress",
							"type": "address"
						}
					],
					"name": "registerUser",
					"outputs": [],
					"stateMutability": "payable",
					"type": "function"
				},
				{
					"inputs": [
						{
							"internalType": "address",
							"name": "_user",
							"type": "address"
						}
					],
					"name": "transactionHistory",
					"outputs": [
						{
							"internalType": "uint256",
							"name": "",
							"type": "uint256"
						},
						{
							"internalType": "uint256",
							"name": "",
							"type": "uint256"
						}
					],
					"stateMutability": "view",
					"type": "function"
				},
				{
					"inputs": [
						{
							"internalType": "address",
							"name": "",
							"type": "address"
						}
					],
					"name": "users",
					"outputs": [
						{
							"internalType": "address",
							"name": "upline",
							"type": "address"
						},
						{
							"internalType": "uint256",
							"name": "id",
							"type": "uint256"
						},
						{
							"internalType": "uint256",
							"name": "referralCount",
							"type": "uint256"
						},
						{
							"internalType": "uint256",
							"name": "cycleCount",
							"type": "uint256"
						},
						{
							"internalType": "uint256",
							"name": "earnings",
							"type": "uint256"
						},
						{
							"internalType": "uint8",
							"name": "partnerLevel",
							"type": "uint8"
						},
						{
							"internalType": "string",
							"name": "firstName",
							"type": "string"
						},
						{
							"internalType": "string",
							"name": "lastName",
							"type": "string"
						},
						{
							"internalType": "string",
							"name": "profilePic",
							"type": "string"
						},
						{
							"internalType": "string",
							"name": "email",
							"type": "string"
						},
						{
							"internalType": "bytes32",
							"name": "passwordHash",
							"type": "bytes32"
						},
						{
							"internalType": "address",
							"name": "userAddress",
							"type": "address"
						}
					],
					"stateMutability": "view",
					"type": "function"
				},
				{
					"stateMutability": "payable",
					"type": "receive"
				}
			],
			"devdoc": {
				"kind": "dev",
				"methods": {},
				"version": 1
			},
			"evm": {
				"assembly": "    /* \"checking.sol\":62:11383  contract checking {... */\n  mstore(0x40, 0x80)\n    /* \"checking.sol\":655:656  3 */\n  0x03\n    /* \"checking.sol\":627:656  uint256 public lastUserId = 3 */\n  dup1\n  sstore\n    /* \"checking.sol\":1300:2142  constructor() {... */\n  callvalue\n  dup1\n  iszero\n  tag_1\n  jumpi\n  0x00\n  dup1\n  revert\ntag_1:\n  pop\n    /* \"checking.sol\":1333:1343  msg.sender */\n  caller\n    /* \"checking.sol\":1325:1330  owner */\n  0x04\n  0x00\n    /* \"checking.sol\":1325:1343  owner = msg.sender */\n  0x0100\n  exp\n  dup2\n  sload\n  dup2\n  0xffffffffffffffffffffffffffffffffffffffff\n  mul\n  not\n  and\n  swap1\n  dup4\n  0xffffffffffffffffffffffffffffffffffffffff\n  and\n  mul\n  or\n  swap1\n  sstore\n  pop\n    /* \"checking.sol\":1371:1779  User({... */\n  mload(0x40)\n  dup1\n  0x01a0\n  add\n  0x40\n  mstore\n  dup1\n    /* \"checking.sol\":1407:1408  0 */\n  0x00\n    /* \"checking.sol\":1371:1779  User({... */\n  0xffffffffffffffffffffffffffffffffffffffff\n  and\n  dup2\n  mstore\n  0x20\n  add\n    /* \"checking.sol\":1428:1429  1 */\n  0x01\n    /* \"checking.sol\":1371:1779  User({... */\n  dup2\n  mstore\n  0x20\n  add\n    /* \"checking.sol\":1459:1460  0 */\n  0x00\n    /* \"checking.sol\":1371:1779  User({... */\n  dup2\n  mstore\n  0x20\n  add\n    /* \"checking.sol\":1487:1488  0 */\n  0x00\n    /* \"checking.sol\":1371:1779  User({... */\n  dup2\n  mstore\n  0x20\n  add\n    /* \"checking.sol\":1513:1514  0 */\n  0x00\n    /* \"checking.sol\":1371:1779  User({... */\n  dup2\n  mstore\n  0x20\n  add\n    /* \"checking.sol\":1543:1544  1 */\n  0x01\n    /* \"checking.sol\":1371:1779  User({... */\n  0xff\n  and\n  dup2\n  mstore\n  0x20\n  add\n    /* \"checking.sol\":1584:1585  0 */\n  0x00\n    /* \"checking.sol\":1570:1586  new address[](0) */\n  0xffffffffffffffff\n  dup2\n  gt\n  iszero\n  tag_4\n  jumpi\n  tag_5\n  tag_6\n  jump\t// in\ntag_5:\ntag_4:\n  mload(0x40)\n  swap1\n  dup1\n  dup3\n  mstore\n  dup1\n  0x20\n  mul\n  0x20\n  add\n  dup3\n  add\n  0x40\n  mstore\n  dup1\n  iszero\n  tag_7\n  jumpi\n  dup2\n  0x20\n  add\n  0x20\n  dup3\n  mul\n  dup1\n  calldatasize\n  dup4\n  calldatacopy\n  dup1\n  dup3\n  add\n  swap2\n  pop\n  pop\n  swap1\n  pop\ntag_7:\n  pop\n    /* \"checking.sol\":1371:1779  User({... */\n  dup2\n  mstore\n  0x20\n  add\n  mload(0x40)\n  dup1\n  0x20\n  add\n  0x40\n  mstore\n  dup1\n  0x00\n  dup2\n  mstore\n  pop\n  dup2\n  mstore\n  0x20\n  add\n  mload(0x40)\n  dup1\n  0x20\n  add\n  0x40\n  mstore\n  dup1\n  0x00\n  dup2\n  mstore\n  pop\n  dup2\n  mstore\n  0x20\n  add\n  mload(0x40)\n  dup1\n  0x20\n  add\n  0x40\n  mstore\n  dup1\n  0x00\n  dup2\n  mstore\n  pop\n  dup2\n  mstore\n  0x20\n  add\n  mload(0x40)\n  dup1\n  0x20\n  add\n  0x40\n  mstore\n  dup1\n  0x00\n  dup2\n  mstore\n  pop\n  dup2\n  mstore\n  0x20\n  add\n    /* \"checking.sol\":1732:1733  0 */\n  0x00\n    /* \"checking.sol\":1724:1734  bytes32(0) */\n  dup1\n  shl\n    /* \"checking.sol\":1371:1779  User({... */\n  dup2\n  mstore\n  0x20\n  add\n    /* \"checking.sol\":1762:1767  owner */\n  0x04\n  0x00\n  swap1\n  sload\n  swap1\n  0x0100\n  exp\n  swap1\n  div\n  0xffffffffffffffffffffffffffffffffffffffff\n  and\n    /* \"checking.sol\":1371:1779  User({... */\n  0xffffffffffffffffffffffffffffffffffffffff\n  and\n  dup2\n  mstore\n  pop\n    /* \"checking.sol\":1356:1361  users */\n  0x00\n    /* \"checking.sol\":1356:1368  users[owner] */\n  dup1\n    /* \"checking.sol\":1362:1367  owner */\n  0x04\n  0x00\n  swap1\n  sload\n  swap1\n  0x0100\n  exp\n  swap1\n  div\n  0xffffffffffffffffffffffffffffffffffffffff\n  and\n    /* \"checking.sol\":1356:1368  users[owner] */\n  0xffffffffffffffffffffffffffffffffffffffff\n  and\n  0xffffffffffffffffffffffffffffffffffffffff\n  and\n  dup2\n  mstore\n  0x20\n  add\n  swap1\n  dup2\n  mstore\n  0x20\n  add\n  0x00\n  keccak256\n    /* \"checking.sol\":1356:1779  users[owner] = User({... */\n  0x00\n  dup3\n  add\n  mload\n  dup2\n  0x00\n  add\n  exp(0x0100, 0x00)\n  dup2\n  sload\n  dup2\n  0xffffffffffffffffffffffffffffffffffffffff\n  mul\n  not\n  and\n  swap1\n  dup4\n  0xffffffffffffffffffffffffffffffffffffffff\n  and\n  mul\n  or\n  swap1\n  sstore\n  pop\n  0x20\n  dup3\n  add\n  mload\n  dup2\n  0x01\n  add\n  sstore\n  0x40\n  dup3\n  add\n  mload\n  dup2\n  0x02\n  add\n  sstore\n  0x60\n  dup3\n  add\n  mload\n  dup2\n  0x03\n  add\n  sstore\n  0x80\n  dup3\n  add\n  mload\n  dup2\n  0x04\n  add\n  sstore\n  0xa0\n  dup3\n  add\n  mload\n  dup2\n  0x05\n  add\n  exp(0x0100, 0x00)\n  dup2\n  sload\n  dup2\n  0xff\n  mul\n  not\n  and\n  swap1\n  dup4\n  0xff\n  and\n  mul\n  or\n  swap1\n  sstore\n  pop\n  0xc0\n  dup3\n  add\n  mload\n  dup2\n  0x06\n  add\n  swap1\n  dup1\n  mload\n  swap1\n  0x20\n  add\n  swap1\n  tag_8\n  swap3\n  swap2\n  swap1\n  tag_9\n  jump\t// in\ntag_8:\n  pop\n  0xe0\n  dup3\n  add\n  mload\n  dup2\n  0x07\n  add\n  swap1\n  dup2\n  tag_10\n  swap2\n  swap1\n  tag_11\n  jump\t// in\ntag_10:\n  pop\n  0x0100\n  dup3\n  add\n  mload\n  dup2\n  0x08\n  add\n  swap1\n  dup2\n  tag_12\n  swap2\n  swap1\n  tag_11\n  jump\t// in\ntag_12:\n  pop\n  0x0120\n  dup3\n  add\n  mload\n  dup2\n  0x09\n  add\n  swap1\n  dup2\n  tag_13\n  swap2\n  swap1\n  tag_11\n  jump\t// in\ntag_13:\n  pop\n  0x0140\n  dup3\n  add\n  mload\n  dup2\n  0x0a\n  add\n  swap1\n  dup2\n  tag_14\n  swap2\n  swap1\n  tag_11\n  jump\t// in\ntag_14:\n  pop\n  0x0160\n  dup3\n  add\n  mload\n  dup2\n  0x0b\n  add\n  sstore\n  0x0180\n  dup3\n  add\n  mload\n  dup2\n  0x0c\n  add\n  exp(0x0100, 0x00)\n  dup2\n  sload\n  dup2\n  0xffffffffffffffffffffffffffffffffffffffff\n  mul\n  not\n  and\n  swap1\n  dup4\n  0xffffffffffffffffffffffffffffffffffffffff\n  and\n  mul\n  or\n  swap1\n  sstore\n  pop\n  swap1\n  pop\n  pop\n    /* \"checking.sol\":1809:1814  owner */\n  0x04\n  0x00\n  swap1\n  sload\n  swap1\n  0x0100\n  exp\n  swap1\n  div\n  0xffffffffffffffffffffffffffffffffffffffff\n  and\n    /* \"checking.sol\":1792:1803  idToAddress */\n  0x01\n    /* \"checking.sol\":1792:1806  idToAddress[1] */\n  0x00\n    /* \"checking.sol\":1804:1805  1 */\n  0x01\n    /* \"checking.sol\":1792:1806  idToAddress[1] */\n  dup2\n  mstore\n  0x20\n  add\n  swap1\n  dup2\n  mstore\n  0x20\n  add\n  0x00\n  keccak256\n  0x00\n    /* \"checking.sol\":1792:1814  idToAddress[1] = owner */\n  0x0100\n  exp\n  dup2\n  sload\n  dup2\n  0xffffffffffffffffffffffffffffffffffffffff\n  mul\n  not\n  and\n  swap1\n  dup4\n  0xffffffffffffffffffffffffffffffffffffffff\n  and\n  mul\n  or\n  swap1\n  sstore\n  pop\n    /* \"checking.sol\":745:749  5e18 */\n  0x4563918244f40000\n    /* \"checking.sol\":1863:1873  levelPrice */\n  0x02\n    /* \"checking.sol\":1863:1876  levelPrice[1] */\n  0x00\n    /* \"checking.sol\":1874:1875  1 */\n  0x01\n    /* \"checking.sol\":1863:1876  levelPrice[1] */\n  0xff\n  and\n  dup2\n  mstore\n  0x20\n  add\n  swap1\n  dup2\n  mstore\n  0x20\n  add\n  0x00\n  keccak256\n    /* \"checking.sol\":1863:1890  levelPrice[1] = BASIC_PRICE */\n  dup2\n  swap1\n  sstore\n  pop\n    /* \"checking.sol\":1906:1913  uint8 i */\n  0x00\n    /* \"checking.sol\":1916:1917  2 */\n  0x02\n    /* \"checking.sol\":1906:1917  uint8 i = 2 */\n  swap1\n  pop\n    /* \"checking.sol\":1901:1996  for (uint8 i = 2; i <= 8; i++) {... */\ntag_15:\n    /* \"checking.sol\":1924:1925  8 */\n  0x08\n    /* \"checking.sol\":1919:1920  i */\n  dup2\n    /* \"checking.sol\":1919:1925  i <= 8 */\n  0xff\n  and\n  gt\n    /* \"checking.sol\":1901:1996  for (uint8 i = 2; i <= 8; i++) {... */\n  tag_16\n  jumpi\n    /* \"checking.sol\":1983:1984  2 */\n  0x02\n    /* \"checking.sol\":1963:1973  levelPrice */\n  dup1\n    /* \"checking.sol\":1963:1980  levelPrice[i - 1] */\n  0x00\n    /* \"checking.sol\":1978:1979  1 */\n  0x01\n    /* \"checking.sol\":1974:1975  i */\n  dup5\n    /* \"checking.sol\":1974:1979  i - 1 */\n  tag_18\n  swap2\n  swap1\n  tag_19\n  jump\t// in\ntag_18:\n    /* \"checking.sol\":1963:1980  levelPrice[i - 1] */\n  0xff\n  and\n  0xff\n  and\n  dup2\n  mstore\n  0x20\n  add\n  swap1\n  dup2\n  mstore\n  0x20\n  add\n  0x00\n  keccak256\n  sload\n    /* \"checking.sol\":1963:1984  levelPrice[i - 1] * 2 */\n  tag_20\n  swap2\n  swap1\n  tag_21\n  jump\t// in\ntag_20:\n    /* \"checking.sol\":1947:1957  levelPrice */\n  0x02\n    /* \"checking.sol\":1947:1960  levelPrice[i] */\n  0x00\n    /* \"checking.sol\":1958:1959  i */\n  dup4\n    /* \"checking.sol\":1947:1960  levelPrice[i] */\n  0xff\n  and\n  0xff\n  and\n  dup2\n  mstore\n  0x20\n  add\n  swap1\n  dup2\n  mstore\n  0x20\n  add\n  0x00\n  keccak256\n    /* \"checking.sol\":1947:1984  levelPrice[i] = levelPrice[i - 1] * 2 */\n  dup2\n  swap1\n  sstore\n  pop\n    /* \"checking.sol\":1927:1930  i++ */\n  dup1\n  dup1\n  tag_22\n  swap1\n  tag_23\n  jump\t// in\ntag_22:\n  swap2\n  pop\n  pop\n    /* \"checking.sol\":1901:1996  for (uint8 i = 2; i <= 8; i++) {... */\n  jump(tag_15)\ntag_16:\n  pop\n    /* \"checking.sol\":2022:2029  1250e18 */\n  0x43c33c193756480000\n    /* \"checking.sol\":2006:2016  levelPrice */\n  0x02\n    /* \"checking.sol\":2006:2019  levelPrice[9] */\n  0x00\n    /* \"checking.sol\":2017:2018  9 */\n  0x09\n    /* \"checking.sol\":2006:2019  levelPrice[9] */\n  0xff\n  and\n  dup2\n  mstore\n  0x20\n  add\n  swap1\n  dup2\n  mstore\n  0x20\n  add\n  0x00\n  keccak256\n    /* \"checking.sol\":2006:2029  levelPrice[9] = 1250e18 */\n  dup2\n  swap1\n  sstore\n  pop\n    /* \"checking.sol\":2057:2064  2500e18 */\n  0x878678326eac900000\n    /* \"checking.sol\":2040:2050  levelPrice */\n  0x02\n    /* \"checking.sol\":2040:2054  levelPrice[10] */\n  0x00\n    /* \"checking.sol\":2051:2053  10 */\n  0x0a\n    /* \"checking.sol\":2040:2054  levelPrice[10] */\n  0xff\n  and\n  dup2\n  mstore\n  0x20\n  add\n  swap1\n  dup2\n  mstore\n  0x20\n  add\n  0x00\n  keccak256\n    /* \"checking.sol\":2040:2064  levelPrice[10] = 2500e18 */\n  dup2\n  swap1\n  sstore\n  pop\n    /* \"checking.sol\":2092:2099  5000e18 */\n  0x010f0cf064dd59200000\n    /* \"checking.sol\":2075:2085  levelPrice */\n  0x02\n    /* \"checking.sol\":2075:2089  levelPrice[11] */\n  0x00\n    /* \"checking.sol\":2086:2088  11 */\n  0x0b\n    /* \"checking.sol\":2075:2089  levelPrice[11] */\n  0xff\n  and\n  dup2\n  mstore\n  0x20\n  add\n  swap1\n  dup2\n  mstore\n  0x20\n  add\n  0x00\n  keccak256\n    /* \"checking.sol\":2075:2099  levelPrice[11] = 5000e18 */\n  dup2\n  swap1\n  sstore\n  pop\n    /* \"checking.sol\":2127:2134  9900e18 */\n  0x0218ae196b8d4f300000\n    /* \"checking.sol\":2110:2120  levelPrice */\n  0x02\n    /* \"checking.sol\":2110:2124  levelPrice[12] */\n  0x00\n    /* \"checking.sol\":2121:2123  12 */\n  0x0c\n    /* \"checking.sol\":2110:2124  levelPrice[12] */\n  0xff\n  and\n  dup2\n  mstore\n  0x20\n  add\n  swap1\n  dup2\n  mstore\n  0x20\n  add\n  0x00\n  keccak256\n    /* \"checking.sol\":2110:2134  levelPrice[12] = 9900e18 */\n  dup2\n  swap1\n  sstore\n  pop\n    /* \"checking.sol\":62:11383  contract checking {... */\n  jump(tag_24)\ntag_9:\n  dup3\n  dup1\n  sload\n  dup3\n  dup3\n  sstore\n  swap1\n  0x00\n  mstore\n  keccak256(0x00, 0x20)\n  swap1\n  dup2\n  add\n  swap3\n  dup3\n  iszero\n  tag_25\n  jumpi\n  swap2\n  0x20\n  mul\n  dup3\n  add\ntag_26:\n  dup3\n  dup2\n  gt\n  iszero\n  tag_27\n  jumpi\n  dup3\n  mload\n  dup3\n  exp(0x0100, 0x00)\n  dup2\n  sload\n  dup2\n  0xffffffffffffffffffffffffffffffffffffffff\n  mul\n  not\n  and\n  swap1\n  dup4\n  0xffffffffffffffffffffffffffffffffffffffff\n  and\n  mul\n  or\n  swap1\n  sstore\n  pop\n  swap2\n  0x20\n  add\n  swap2\n  swap1\n  0x01\n  add\n  swap1\n  jump(tag_26)\ntag_27:\ntag_25:\n  pop\n  swap1\n  pop\n  tag_28\n  swap2\n  swap1\n  tag_29\n  jump\t// in\ntag_28:\n  pop\n  swap1\n  jump\t// out\ntag_29:\ntag_30:\n  dup1\n  dup3\n  gt\n  iszero\n  tag_31\n  jumpi\n  0x00\n  dup2\n  0x00\n  swap1\n  sstore\n  pop\n  0x01\n  add\n  jump(tag_30)\ntag_31:\n  pop\n  swap1\n  jump\t// out\n    /* \"#utility.yul\":7:187   */\ntag_6:\n    /* \"#utility.yul\":55:132   */\n  0x4e487b7100000000000000000000000000000000000000000000000000000000\n    /* \"#utility.yul\":52:53   */\n  0x00\n    /* \"#utility.yul\":45:133   */\n  mstore\n    /* \"#utility.yul\":152:156   */\n  0x41\n    /* \"#utility.yul\":149:150   */\n  0x04\n    /* \"#utility.yul\":142:157   */\n  mstore\n    /* \"#utility.yul\":176:180   */\n  0x24\n    /* \"#utility.yul\":173:174   */\n  0x00\n    /* \"#utility.yul\":166:181   */\n  revert\n    /* \"#utility.yul\":193:292   */\ntag_32:\n    /* \"#utility.yul\":245:251   */\n  0x00\n    /* \"#utility.yul\":279:284   */\n  dup2\n    /* \"#utility.yul\":273:285   */\n  mload\n    /* \"#utility.yul\":263:285   */\n  swap1\n  pop\n    /* \"#utility.yul\":193:292   */\n  swap2\n  swap1\n  pop\n  jump\t// out\n    /* \"#utility.yul\":298:478   */\ntag_33:\n    /* \"#utility.yul\":346:423   */\n  0x4e487b7100000000000000000000000000000000000000000000000000000000\n    /* \"#utility.yul\":343:344   */\n  0x00\n    /* \"#utility.yul\":336:424   */\n  mstore\n    /* \"#utility.yul\":443:447   */\n  0x22\n    /* \"#utility.yul\":440:441   */\n  0x04\n    /* \"#utility.yul\":433:448   */\n  mstore\n    /* \"#utility.yul\":467:471   */\n  0x24\n    /* \"#utility.yul\":464:465   */\n  0x00\n    /* \"#utility.yul\":457:472   */\n  revert\n    /* \"#utility.yul\":484:804   */\ntag_34:\n    /* \"#utility.yul\":528:534   */\n  0x00\n    /* \"#utility.yul\":565:566   */\n  0x02\n    /* \"#utility.yul\":559:563   */\n  dup3\n    /* \"#utility.yul\":555:567   */\n  div\n    /* \"#utility.yul\":545:567   */\n  swap1\n  pop\n    /* \"#utility.yul\":612:613   */\n  0x01\n    /* \"#utility.yul\":606:610   */\n  dup3\n    /* \"#utility.yul\":602:614   */\n  and\n    /* \"#utility.yul\":633:651   */\n  dup1\n    /* \"#utility.yul\":623:704   */\n  tag_58\n  jumpi\n    /* \"#utility.yul\":689:693   */\n  0x7f\n    /* \"#utility.yul\":681:687   */\n  dup3\n    /* \"#utility.yul\":677:694   */\n  and\n    /* \"#utility.yul\":667:694   */\n  swap2\n  pop\n    /* \"#utility.yul\":623:704   */\ntag_58:\n    /* \"#utility.yul\":751:753   */\n  0x20\n    /* \"#utility.yul\":743:749   */\n  dup3\n    /* \"#utility.yul\":740:754   */\n  lt\n    /* \"#utility.yul\":720:738   */\n  dup2\n    /* \"#utility.yul\":717:755   */\n  sub\n    /* \"#utility.yul\":714:798   */\n  tag_59\n  jumpi\n    /* \"#utility.yul\":770:788   */\n  tag_60\n  tag_33\n  jump\t// in\ntag_60:\n    /* \"#utility.yul\":714:798   */\ntag_59:\n    /* \"#utility.yul\":535:804   */\n  pop\n    /* \"#utility.yul\":484:804   */\n  swap2\n  swap1\n  pop\n  jump\t// out\n    /* \"#utility.yul\":810:951   */\ntag_35:\n    /* \"#utility.yul\":859:863   */\n  0x00\n    /* \"#utility.yul\":882:885   */\n  dup2\n    /* \"#utility.yul\":874:885   */\n  swap1\n  pop\n    /* \"#utility.yul\":905:908   */\n  dup2\n    /* \"#utility.yul\":902:903   */\n  0x00\n    /* \"#utility.yul\":895:909   */\n  mstore\n    /* \"#utility.yul\":939:943   */\n  0x20\n    /* \"#utility.yul\":936:937   */\n  0x00\n    /* \"#utility.yul\":926:944   */\n  keccak256\n    /* \"#utility.yul\":918:944   */\n  swap1\n  pop\n    /* \"#utility.yul\":810:951   */\n  swap2\n  swap1\n  pop\n  jump\t// out\n    /* \"#utility.yul\":957:1050   */\ntag_36:\n    /* \"#utility.yul\":994:1000   */\n  0x00\n    /* \"#utility.yul\":1041:1043   */\n  0x20\n    /* \"#utility.yul\":1036:1038   */\n  0x1f\n    /* \"#utility.yul\":1029:1034   */\n  dup4\n    /* \"#utility.yul\":1025:1039   */\n  add\n    /* \"#utility.yul\":1021:1044   */\n  div\n    /* \"#utility.yul\":1011:1044   */\n  swap1\n  pop\n    /* \"#utility.yul\":957:1050   */\n  swap2\n  swap1\n  pop\n  jump\t// out\n    /* \"#utility.yul\":1056:1163   */\ntag_37:\n    /* \"#utility.yul\":1100:1108   */\n  0x00\n    /* \"#utility.yul\":1150:1155   */\n  dup3\n    /* \"#utility.yul\":1144:1148   */\n  dup3\n    /* \"#utility.yul\":1140:1156   */\n  shl\n    /* \"#utility.yul\":1119:1156   */\n  swap1\n  pop\n    /* \"#utility.yul\":1056:1163   */\n  swap3\n  swap2\n  pop\n  pop\n  jump\t// out\n    /* \"#utility.yul\":1169:1562   */\ntag_38:\n    /* \"#utility.yul\":1238:1244   */\n  0x00\n    /* \"#utility.yul\":1288:1289   */\n  0x08\n    /* \"#utility.yul\":1276:1286   */\n  dup4\n    /* \"#utility.yul\":1272:1290   */\n  mul\n    /* \"#utility.yul\":1311:1408   */\n  tag_65\n    /* \"#utility.yul\":1341:1407   */\n  0xffffffffffffffffffffffffffffffffffffffffffffffffffffffffffffffff\n    /* \"#utility.yul\":1330:1339   */\n  dup3\n    /* \"#utility.yul\":1311:1408   */\n  tag_37\n  jump\t// in\ntag_65:\n    /* \"#utility.yul\":1429:1468   */\n  tag_66\n    /* \"#utility.yul\":1459:1467   */\n  dup7\n    /* \"#utility.yul\":1448:1457   */\n  dup4\n    /* \"#utility.yul\":1429:1468   */\n  tag_37\n  jump\t// in\ntag_66:\n    /* \"#utility.yul\":1417:1468   */\n  swap6\n  pop\n    /* \"#utility.yul\":1501:1505   */\n  dup1\n    /* \"#utility.yul\":1497:1506   */\n  not\n    /* \"#utility.yul\":1490:1495   */\n  dup5\n    /* \"#utility.yul\":1486:1507   */\n  and\n    /* \"#utility.yul\":1477:1507   */\n  swap4\n  pop\n    /* \"#utility.yul\":1550:1554   */\n  dup1\n    /* \"#utility.yul\":1540:1548   */\n  dup7\n    /* \"#utility.yul\":1536:1555   */\n  and\n    /* \"#utility.yul\":1529:1534   */\n  dup5\n    /* \"#utility.yul\":1526:1556   */\n  or\n    /* \"#utility.yul\":1516:1556   */\n  swap3\n  pop\n    /* \"#utility.yul\":1245:1562   */\n  pop\n  pop\n    /* \"#utility.yul\":1169:1562   */\n  swap4\n  swap3\n  pop\n  pop\n  pop\n  jump\t// out\n    /* \"#utility.yul\":1568:1645   */\ntag_39:\n    /* \"#utility.yul\":1605:1612   */\n  0x00\n    /* \"#utility.yul\":1634:1639   */\n  dup2\n    /* \"#utility.yul\":1623:1639   */\n  swap1\n  pop\n    /* \"#utility.yul\":1568:1645   */\n  swap2\n  swap1\n  pop\n  jump\t// out\n    /* \"#utility.yul\":1651:1711   */\ntag_40:\n    /* \"#utility.yul\":1679:1682   */\n  0x00\n    /* \"#utility.yul\":1700:1705   */\n  dup2\n    /* \"#utility.yul\":1693:1705   */\n  swap1\n  pop\n    /* \"#utility.yul\":1651:1711   */\n  swap2\n  swap1\n  pop\n  jump\t// out\n    /* \"#utility.yul\":1717:1859   */\ntag_41:\n    /* \"#utility.yul\":1767:1776   */\n  0x00\n    /* \"#utility.yul\":1800:1853   */\n  tag_70\n    /* \"#utility.yul\":1818:1852   */\n  tag_71\n    /* \"#utility.yul\":1827:1851   */\n  tag_72\n    /* \"#utility.yul\":1845:1850   */\n  dup5\n    /* \"#utility.yul\":1827:1851   */\n  tag_39\n  jump\t// in\ntag_72:\n    /* \"#utility.yul\":1818:1852   */\n  tag_40\n  jump\t// in\ntag_71:\n    /* \"#utility.yul\":1800:1853   */\n  tag_39\n  jump\t// in\ntag_70:\n    /* \"#utility.yul\":1787:1853   */\n  swap1\n  pop\n    /* \"#utility.yul\":1717:1859   */\n  swap2\n  swap1\n  pop\n  jump\t// out\n    /* \"#utility.yul\":1865:1940   */\ntag_42:\n    /* \"#utility.yul\":1908:1911   */\n  0x00\n    /* \"#utility.yul\":1929:1934   */\n  dup2\n    /* \"#utility.yul\":1922:1934   */\n  swap1\n  pop\n    /* \"#utility.yul\":1865:1940   */\n  swap2\n  swap1\n  pop\n  jump\t// out\n    /* \"#utility.yul\":1946:2215   */\ntag_43:\n    /* \"#utility.yul\":2056:2095   */\n  tag_75\n    /* \"#utility.yul\":2087:2094   */\n  dup4\n    /* \"#utility.yul\":2056:2095   */\n  tag_41\n  jump\t// in\ntag_75:\n    /* \"#utility.yul\":2117:2208   */\n  tag_76\n    /* \"#utility.yul\":2166:2207   */\n  tag_77\n    /* \"#utility.yul\":2190:2206   */\n  dup3\n    /* \"#utility.yul\":2166:2207   */\n  tag_42\n  jump\t// in\ntag_77:\n    /* \"#utility.yul\":2158:2164   */\n  dup5\n    /* \"#utility.yul\":2151:2155   */\n  dup5\n    /* \"#utility.yul\":2145:2156   */\n  sload\n    /* \"#utility.yul\":2117:2208   */\n  tag_38\n  jump\t// in\ntag_76:\n    /* \"#utility.yul\":2111:2115   */\n  dup3\n    /* \"#utility.yul\":2104:2209   */\n  sstore\n    /* \"#utility.yul\":2022:2215   */\n  pop\n    /* \"#utility.yul\":1946:2215   */\n  pop\n  pop\n  pop\n  jump\t// out\n    /* \"#utility.yul\":2221:2294   */\ntag_44:\n    /* \"#utility.yul\":2266:2269   */\n  0x00\n    /* \"#utility.yul\":2221:2294   */\n  swap1\n  jump\t// out\n    /* \"#utility.yul\":2300:2489   */\ntag_45:\n    /* \"#utility.yul\":2377:2409   */\n  tag_80\n  tag_44\n  jump\t// in\ntag_80:\n    /* \"#utility.yul\":2418:2483   */\n  tag_81\n    /* \"#utility.yul\":2476:2482   */\n  dup2\n    /* \"#utility.yul\":2468:2474   */\n  dup5\n    /* \"#utility.yul\":2462:2466   */\n  dup5\n    /* \"#utility.yul\":2418:2483   */\n  tag_43\n  jump\t// in\ntag_81:\n    /* \"#utility.yul\":2353:2489   */\n  pop\n    /* \"#utility.yul\":2300:2489   */\n  pop\n  pop\n  jump\t// out\n    /* \"#utility.yul\":2495:2681   */\ntag_46:\n    /* \"#utility.yul\":2555:2675   */\ntag_83:\n    /* \"#utility.yul\":2572:2575   */\n  dup2\n    /* \"#utility.yul\":2565:2570   */\n  dup2\n    /* \"#utility.yul\":2562:2576   */\n  lt\n    /* \"#utility.yul\":2555:2675   */\n  iszero\n  tag_85\n  jumpi\n    /* \"#utility.yul\":2626:2665   */\n  tag_86\n    /* \"#utility.yul\":2663:2664   */\n  0x00\n    /* \"#utility.yul\":2656:2661   */\n  dup3\n    /* \"#utility.yul\":2626:2665   */\n  tag_45\n  jump\t// in\ntag_86:\n    /* \"#utility.yul\":2599:2600   */\n  0x01\n    /* \"#utility.yul\":2592:2597   */\n  dup2\n    /* \"#utility.yul\":2588:2601   */\n  add\n    /* \"#utility.yul\":2579:2601   */\n  swap1\n  pop\n    /* \"#utility.yul\":2555:2675   */\n  jump(tag_83)\ntag_85:\n    /* \"#utility.yul\":2495:2681   */\n  pop\n  pop\n  jump\t// out\n    /* \"#utility.yul\":2687:3230   */\ntag_47:\n    /* \"#utility.yul\":2788:2790   */\n  0x1f\n    /* \"#utility.yul\":2783:2786   */\n  dup3\n    /* \"#utility.yul\":2780:2791   */\n  gt\n    /* \"#utility.yul\":2777:3223   */\n  iszero\n  tag_88\n  jumpi\n    /* \"#utility.yul\":2822:2860   */\n  tag_89\n    /* \"#utility.yul\":2854:2859   */\n  dup2\n    /* \"#utility.yul\":2822:2860   */\n  tag_35\n  jump\t// in\ntag_89:\n    /* \"#utility.yul\":2906:2935   */\n  tag_90\n    /* \"#utility.yul\":2924:2934   */\n  dup5\n    /* \"#utility.yul\":2906:2935   */\n  tag_36\n  jump\t// in\ntag_90:\n    /* \"#utility.yul\":2896:2904   */\n  dup2\n    /* \"#utility.yul\":2892:2936   */\n  add\n    /* \"#utility.yul\":3089:3091   */\n  0x20\n    /* \"#utility.yul\":3077:3087   */\n  dup6\n    /* \"#utility.yul\":3074:3092   */\n  lt\n    /* \"#utility.yul\":3071:3120   */\n  iszero\n  tag_91\n  jumpi\n    /* \"#utility.yul\":3110:3118   */\n  dup2\n    /* \"#utility.yul\":3095:3118   */\n  swap1\n  pop\n    /* \"#utility.yul\":3071:3120   */\ntag_91:\n    /* \"#utility.yul\":3133:3213   */\n  tag_92\n    /* \"#utility.yul\":3189:3211   */\n  tag_93\n    /* \"#utility.yul\":3207:3210   */\n  dup6\n    /* \"#utility.yul\":3189:3211   */\n  tag_36\n  jump\t// in\ntag_93:\n    /* \"#utility.yul\":3179:3187   */\n  dup4\n    /* \"#utility.yul\":3175:3212   */\n  add\n    /* \"#utility.yul\":3162:3173   */\n  dup3\n    /* \"#utility.yul\":3133:3213   */\n  tag_46\n  jump\t// in\ntag_92:\n    /* \"#utility.yul\":2792:3223   */\n  pop\n  pop\n    /* \"#utility.yul\":2777:3223   */\ntag_88:\n    /* \"#utility.yul\":2687:3230   */\n  pop\n  pop\n  pop\n  jump\t// out\n    /* \"#utility.yul\":3236:3353   */\ntag_48:\n    /* \"#utility.yul\":3290:3298   */\n  0x00\n    /* \"#utility.yul\":3340:3345   */\n  dup3\n    /* \"#utility.yul\":3334:3338   */\n  dup3\n    /* \"#utility.yul\":3330:3346   */\n  shr\n    /* \"#utility.yul\":3309:3346   */\n  swap1\n  pop\n    /* \"#utility.yul\":3236:3353   */\n  swap3\n  swap2\n  pop\n  pop\n  jump\t// out\n    /* \"#utility.yul\":3359:3528   */\ntag_49:\n    /* \"#utility.yul\":3403:3409   */\n  0x00\n    /* \"#utility.yul\":3436:3487   */\n  tag_96\n    /* \"#utility.yul\":3484:3485   */\n  0x00\n    /* \"#utility.yul\":3480:3486   */\n  not\n    /* \"#utility.yul\":3472:3477   */\n  dup5\n    /* \"#utility.yul\":3469:3470   */\n  0x08\n    /* \"#utility.yul\":3465:3478   */\n  mul\n    /* \"#utility.yul\":3436:3487   */\n  tag_48\n  jump\t// in\ntag_96:\n    /* \"#utility.yul\":3432:3488   */\n  not\n    /* \"#utility.yul\":3517:3521   */\n  dup1\n    /* \"#utility.yul\":3511:3515   */\n  dup4\n    /* \"#utility.yul\":3507:3522   */\n  and\n    /* \"#utility.yul\":3497:3522   */\n  swap2\n  pop\n    /* \"#utility.yul\":3410:3528   */\n  pop\n    /* \"#utility.yul\":3359:3528   */\n  swap3\n  swap2\n  pop\n  pop\n  jump\t// out\n    /* \"#utility.yul\":3533:3828   */\ntag_50:\n    /* \"#utility.yul\":3609:3613   */\n  0x00\n    /* \"#utility.yul\":3755:3784   */\n  tag_98\n    /* \"#utility.yul\":3780:3783   */\n  dup4\n    /* \"#utility.yul\":3774:3778   */\n  dup4\n    /* \"#utility.yul\":3755:3784   */\n  tag_49\n  jump\t// in\ntag_98:\n    /* \"#utility.yul\":3747:3784   */\n  swap2\n  pop\n    /* \"#utility.yul\":3817:3820   */\n  dup3\n    /* \"#utility.yul\":3814:3815   */\n  0x02\n    /* \"#utility.yul\":3810:3821   */\n  mul\n    /* \"#utility.yul\":3804:3808   */\n  dup3\n    /* \"#utility.yul\":3801:3822   */\n  or\n    /* \"#utility.yul\":3793:3822   */\n  swap1\n  pop\n    /* \"#utility.yul\":3533:3828   */\n  swap3\n  swap2\n  pop\n  pop\n  jump\t// out\n    /* \"#utility.yul\":3833:5228   */\ntag_11:\n    /* \"#utility.yul\":3950:3987   */\n  tag_100\n    /* \"#utility.yul\":3983:3986   */\n  dup3\n    /* \"#utility.yul\":3950:3987   */\n  tag_32\n  jump\t// in\ntag_100:\n    /* \"#utility.yul\":4052:4070   */\n  0xffffffffffffffff\n    /* \"#utility.yul\":4044:4050   */\n  dup2\n    /* \"#utility.yul\":4041:4071   */\n  gt\n    /* \"#utility.yul\":4038:4094   */\n  iszero\n  tag_101\n  jumpi\n    /* \"#utility.yul\":4074:4092   */\n  tag_102\n  tag_6\n  jump\t// in\ntag_102:\n    /* \"#utility.yul\":4038:4094   */\ntag_101:\n    /* \"#utility.yul\":4118:4156   */\n  tag_103\n    /* \"#utility.yul\":4150:4154   */\n  dup3\n    /* \"#utility.yul\":4144:4155   */\n  sload\n    /* \"#utility.yul\":4118:4156   */\n  tag_34\n  jump\t// in\ntag_103:\n    /* \"#utility.yul\":4203:4270   */\n  tag_104\n    /* \"#utility.yul\":4263:4269   */\n  dup3\n    /* \"#utility.yul\":4255:4261   */\n  dup3\n    /* \"#utility.yul\":4249:4253   */\n  dup6\n    /* \"#utility.yul\":4203:4270   */\n  tag_47\n  jump\t// in\ntag_104:\n    /* \"#utility.yul\":4297:4298   */\n  0x00\n    /* \"#utility.yul\":4321:4325   */\n  0x20\n    /* \"#utility.yul\":4308:4325   */\n  swap1\n  pop\n    /* \"#utility.yul\":4353:4355   */\n  0x1f\n    /* \"#utility.yul\":4345:4351   */\n  dup4\n    /* \"#utility.yul\":4342:4356   */\n  gt\n    /* \"#utility.yul\":4370:4371   */\n  0x01\n    /* \"#utility.yul\":4365:4983   */\n  dup2\n  eq\n  tag_106\n  jumpi\n    /* \"#utility.yul\":5027:5028   */\n  0x00\n    /* \"#utility.yul\":5044:5050   */\n  dup5\n    /* \"#utility.yul\":5041:5118   */\n  iszero\n  tag_107\n  jumpi\n    /* \"#utility.yul\":5093:5102   */\n  dup3\n    /* \"#utility.yul\":5088:5091   */\n  dup8\n    /* \"#utility.yul\":5084:5103   */\n  add\n    /* \"#utility.yul\":5078:5104   */\n  mload\n    /* \"#utility.yul\":5069:5104   */\n  swap1\n  pop\n    /* \"#utility.yul\":5041:5118   */\ntag_107:\n    /* \"#utility.yul\":5144:5211   */\n  tag_108\n    /* \"#utility.yul\":5204:5210   */\n  dup6\n    /* \"#utility.yul\":5197:5202   */\n  dup3\n    /* \"#utility.yul\":5144:5211   */\n  tag_50\n  jump\t// in\ntag_108:\n    /* \"#utility.yul\":5138:5142   */\n  dup7\n    /* \"#utility.yul\":5131:5212   */\n  sstore\n    /* \"#utility.yul\":5000:5222   */\n  pop\n    /* \"#utility.yul\":4335:5222   */\n  jump(tag_105)\n    /* \"#utility.yul\":4365:4983   */\ntag_106:\n    /* \"#utility.yul\":4417:4421   */\n  0x1f\n    /* \"#utility.yul\":4413:4422   */\n  not\n    /* \"#utility.yul\":4405:4411   */\n  dup5\n    /* \"#utility.yul\":4401:4423   */\n  and\n    /* \"#utility.yul\":4451:4488   */\n  tag_109\n    /* \"#utility.yul\":4483:4487   */\n  dup7\n    /* \"#utility.yul\":4451:4488   */\n  tag_35\n  jump\t// in\ntag_109:\n    /* \"#utility.yul\":4510:4511   */\n  0x00\n    /* \"#utility.yul\":4524:4732   */\ntag_110:\n    /* \"#utility.yul\":4538:4545   */\n  dup3\n    /* \"#utility.yul\":4535:4536   */\n  dup2\n    /* \"#utility.yul\":4532:4546   */\n  lt\n    /* \"#utility.yul\":4524:4732   */\n  iszero\n  tag_112\n  jumpi\n    /* \"#utility.yul\":4617:4626   */\n  dup5\n    /* \"#utility.yul\":4612:4615   */\n  dup10\n    /* \"#utility.yul\":4608:4627   */\n  add\n    /* \"#utility.yul\":4602:4628   */\n  mload\n    /* \"#utility.yul\":4594:4600   */\n  dup3\n    /* \"#utility.yul\":4587:4629   */\n  sstore\n    /* \"#utility.yul\":4668:4669   */\n  0x01\n    /* \"#utility.yul\":4660:4666   */\n  dup3\n    /* \"#utility.yul\":4656:4670   */\n  add\n    /* \"#utility.yul\":4646:4670   */\n  swap2\n  pop\n    /* \"#utility.yul\":4715:4717   */\n  0x20\n    /* \"#utility.yul\":4704:4713   */\n  dup6\n    /* \"#utility.yul\":4700:4718   */\n  add\n    /* \"#utility.yul\":4687:4718   */\n  swap5\n  pop\n    /* \"#utility.yul\":4561:4565   */\n  0x20\n    /* \"#utility.yul\":4558:4559   */\n  dup2\n    /* \"#utility.yul\":4554:4566   */\n  add\n    /* \"#utility.yul\":4549:4566   */\n  swap1\n  pop\n    /* \"#utility.yul\":4524:4732   */\n  jump(tag_110)\ntag_112:\n    /* \"#utility.yul\":4760:4766   */\n  dup7\n    /* \"#utility.yul\":4751:4758   */\n  dup4\n    /* \"#utility.yul\":4748:4767   */\n  lt\n    /* \"#utility.yul\":4745:4924   */\n  iszero\n  tag_113\n  jumpi\n    /* \"#utility.yul\":4818:4827   */\n  dup5\n    /* \"#utility.yul\":4813:4816   */\n  dup10\n    /* \"#utility.yul\":4809:4828   */\n  add\n    /* \"#utility.yul\":4803:4829   */\n  mload\n    /* \"#utility.yul\":4861:4909   */\n  tag_114\n    /* \"#utility.yul\":4903:4907   */\n  0x1f\n    /* \"#utility.yul\":4895:4901   */\n  dup10\n    /* \"#utility.yul\":4891:4908   */\n  and\n    /* \"#utility.yul\":4880:4889   */\n  dup3\n    /* \"#utility.yul\":4861:4909   */\n  tag_49\n  jump\t// in\ntag_114:\n    /* \"#utility.yul\":4853:4859   */\n  dup4\n    /* \"#utility.yul\":4846:4910   */\n  sstore\n    /* \"#utility.yul\":4768:4924   */\n  pop\n    /* \"#utility.yul\":4745:4924   */\ntag_113:\n    /* \"#utility.yul\":4970:4971   */\n  0x01\n    /* \"#utility.yul\":4966:4967   */\n  0x02\n    /* \"#utility.yul\":4958:4964   */\n  dup9\n    /* \"#utility.yul\":4954:4968   */\n  mul\n    /* \"#utility.yul\":4950:4972   */\n  add\n    /* \"#utility.yul\":4944:4948   */\n  dup9\n    /* \"#utility.yul\":4937:4973   */\n  sstore\n    /* \"#utility.yul\":4372:4983   */\n  pop\n  pop\n  pop\n    /* \"#utility.yul\":4335:5222   */\ntag_105:\n  pop\n    /* \"#utility.yul\":3925:5228   */\n  pop\n  pop\n  pop\n    /* \"#utility.yul\":3833:5228   */\n  pop\n  pop\n  jump\t// out\n    /* \"#utility.yul\":5234:5320   */\ntag_51:\n    /* \"#utility.yul\":5269:5276   */\n  0x00\n    /* \"#utility.yul\":5309:5313   */\n  0xff\n    /* \"#utility.yul\":5302:5307   */\n  dup3\n    /* \"#utility.yul\":5298:5314   */\n  and\n    /* \"#utility.yul\":5287:5314   */\n  swap1\n  pop\n    /* \"#utility.yul\":5234:5320   */\n  swap2\n  swap1\n  pop\n  jump\t// out\n    /* \"#utility.yul\":5326:5506   */\ntag_52:\n    /* \"#utility.yul\":5374:5451   */\n  0x4e487b7100000000000000000000000000000000000000000000000000000000\n    /* \"#utility.yul\":5371:5372   */\n  0x00\n    /* \"#utility.yul\":5364:5452   */\n  mstore\n    /* \"#utility.yul\":5471:5475   */\n  0x11\n    /* \"#utility.yul\":5468:5469   */\n  0x04\n    /* \"#utility.yul\":5461:5476   */\n  mstore\n    /* \"#utility.yul\":5495:5499   */\n  0x24\n    /* \"#utility.yul\":5492:5493   */\n  0x00\n    /* \"#utility.yul\":5485:5500   */\n  revert\n    /* \"#utility.yul\":5512:5703   */\ntag_19:\n    /* \"#utility.yul\":5550:5554   */\n  0x00\n    /* \"#utility.yul\":5570:5588   */\n  tag_118\n    /* \"#utility.yul\":5586:5587   */\n  dup3\n    /* \"#utility.yul\":5570:5588   */\n  tag_51\n  jump\t// in\ntag_118:\n    /* \"#utility.yul\":5565:5588   */\n  swap2\n  pop\n    /* \"#utility.yul\":5602:5620   */\n  tag_119\n    /* \"#utility.yul\":5618:5619   */\n  dup4\n    /* \"#utility.yul\":5602:5620   */\n  tag_51\n  jump\t// in\ntag_119:\n    /* \"#utility.yul\":5597:5620   */\n  swap3\n  pop\n    /* \"#utility.yul\":5644:5645   */\n  dup3\n    /* \"#utility.yul\":5641:5642   */\n  dup3\n    /* \"#utility.yul\":5637:5646   */\n  sub\n    /* \"#utility.yul\":5629:5646   */\n  swap1\n  pop\n    /* \"#utility.yul\":5668:5672   */\n  0xff\n    /* \"#utility.yul\":5662:5666   */\n  dup2\n    /* \"#utility.yul\":5659:5673   */\n  gt\n    /* \"#utility.yul\":5656:5696   */\n  iszero\n  tag_120\n  jumpi\n    /* \"#utility.yul\":5676:5694   */\n  tag_121\n  tag_52\n  jump\t// in\ntag_121:\n    /* \"#utility.yul\":5656:5696   */\ntag_120:\n    /* \"#utility.yul\":5512:5703   */\n  swap3\n  swap2\n  pop\n  pop\n  jump\t// out\n    /* \"#utility.yul\":5709:6119   */\ntag_21:\n    /* \"#utility.yul\":5749:5756   */\n  0x00\n    /* \"#utility.yul\":5772:5792   */\n  tag_123\n    /* \"#utility.yul\":5790:5791   */\n  dup3\n    /* \"#utility.yul\":5772:5792   */\n  tag_39\n  jump\t// in\ntag_123:\n    /* \"#utility.yul\":5767:5792   */\n  swap2\n  pop\n    /* \"#utility.yul\":5806:5826   */\n  tag_124\n    /* \"#utility.yul\":5824:5825   */\n  dup4\n    /* \"#utility.yul\":5806:5826   */\n  tag_39\n  jump\t// in\ntag_124:\n    /* \"#utility.yul\":5801:5826   */\n  swap3\n  pop\n    /* \"#utility.yul\":5861:5862   */\n  dup3\n    /* \"#utility.yul\":5858:5859   */\n  dup3\n    /* \"#utility.yul\":5854:5863   */\n  mul\n    /* \"#utility.yul\":5883:5913   */\n  tag_125\n    /* \"#utility.yul\":5901:5912   */\n  dup2\n    /* \"#utility.yul\":5883:5913   */\n  tag_39\n  jump\t// in\ntag_125:\n    /* \"#utility.yul\":5872:5913   */\n  swap2\n  pop\n    /* \"#utility.yul\":6062:6063   */\n  dup3\n    /* \"#utility.yul\":6053:6060   */\n  dup3\n    /* \"#utility.yul\":6049:6064   */\n  div\n    /* \"#utility.yul\":6046:6047   */\n  dup5\n    /* \"#utility.yul\":6043:6065   */\n  eq\n    /* \"#utility.yul\":6023:6024   */\n  dup4\n    /* \"#utility.yul\":6016:6025   */\n  iszero\n    /* \"#utility.yul\":5996:6079   */\n  or\n    /* \"#utility.yul\":5973:6112   */\n  tag_126\n  jumpi\n    /* \"#utility.yul\":6092:6110   */\n  tag_127\n  tag_52\n  jump\t// in\ntag_127:\n    /* \"#utility.yul\":5973:6112   */\ntag_126:\n    /* \"#utility.yul\":5757:6119   */\n  pop\n    /* \"#utility.yul\":5709:6119   */\n  swap3\n  swap2\n  pop\n  pop\n  jump\t// out\n    /* \"#utility.yul\":6125:6292   */\ntag_23:\n    /* \"#utility.yul\":6162:6165   */\n  0x00\n    /* \"#utility.yul\":6185:6207   */\n  tag_129\n    /* \"#utility.yul\":6201:6206   */\n  dup3\n    /* \"#utility.yul\":6185:6207   */\n  tag_51\n  jump\t// in\ntag_129:\n    /* \"#utility.yul\":6176:6207   */\n  swap2\n  pop\n    /* \"#utility.yul\":6229:6233   */\n  0xff\n    /* \"#utility.yul\":6222:6227   */\n  dup3\n    /* \"#utility.yul\":6219:6234   */\n  sub\n    /* \"#utility.yul\":6216:6257   */\n  tag_130\n  jumpi\n    /* \"#utility.yul\":6237:6255   */\n  tag_131\n  tag_52\n  jump\t// in\ntag_131:\n    /* \"#utility.yul\":6216:6257   */\ntag_130:\n    /* \"#utility.yul\":6284:6285   */\n  0x01\n    /* \"#utility.yul\":6277:6282   */\n  dup3\n    /* \"#utility.yul\":6273:6286   */\n  add\n    /* \"#utility.yul\":6266:6286   */\n  swap1\n  pop\n    /* \"#utility.yul\":6125:6292   */\n  swap2\n  swap1\n  pop\n  jump\t// out\n    /* \"checking.sol\":62:11383  contract checking {... */\ntag_24:\n  dataSize(sub_0)\n  dup1\n  dataOffset(sub_0)\n  0x00\n  codecopy\n  0x00\n  return\nstop\n\nsub_0: assembly {\n        /* \"checking.sol\":62:11383  contract checking {... */\n      mstore(0x40, 0x80)\n      jumpi(tag_1, lt(calldatasize, 0x04))\n      shr(0xe0, calldataload(0x00))\n      dup1\n      0x6f8e2516\n      gt\n      tag_22\n      jumpi\n      dup1\n      0x9ac7e09e\n      gt\n      tag_23\n      jumpi\n      dup1\n      0x9ac7e09e\n      eq\n      tag_17\n      jumpi\n      dup1\n      0xa87430ba\n      eq\n      tag_18\n      jumpi\n      dup1\n      0xaed8a6a7\n      eq\n      tag_19\n      jumpi\n      dup1\n      0xde972b43\n      eq\n      tag_20\n      jumpi\n      dup1\n      0xecabdf79\n      eq\n      tag_21\n      jumpi\n      jump(tag_2)\n    tag_23:\n      dup1\n      0x6f8e2516\n      eq\n      tag_12\n      jumpi\n      dup1\n      0x8d17a4d0\n      eq\n      tag_13\n      jumpi\n      dup1\n      0x8da5cb5b\n      eq\n      tag_14\n      jumpi\n      dup1\n      0x90287318\n      eq\n      tag_15\n      jumpi\n      dup1\n      0x90426274\n      eq\n      tag_16\n      jumpi\n      jump(tag_2)\n    tag_22:\n      dup1\n      0x348d4487\n      gt\n      tag_24\n      jumpi\n      dup1\n      0x348d4487\n      eq\n      tag_7\n      jumpi\n      dup1\n      0x3ee3d186\n      eq\n      tag_8\n      jumpi\n      dup1\n      0x6386c1c7\n      eq\n      tag_9\n      jumpi\n      dup1\n      0x64b4f751\n      eq\n      tag_10\n      jumpi\n      dup1\n      0x6ed6da9e\n      eq\n      tag_11\n      jumpi\n      jump(tag_2)\n    tag_24:\n      dup1\n      0x0bf424b4\n      eq\n      tag_3\n      jumpi\n      dup1\n      0x29c70400\n      eq\n      tag_4\n      jumpi\n      dup1\n      0x2a2d0c47\n      eq\n      tag_5\n      jumpi\n      dup1\n      0x3056deb8\n      eq\n      tag_6\n      jumpi\n      jump(tag_2)\n    tag_1:\n      jumpi(tag_2, calldatasize)\n      stop\n    tag_2:\n      0x00\n      dup1\n      revert\n        /* \"checking.sol\":2156:3402  function registerUpline(... */\n    tag_3:\n      tag_27\n      0x04\n      dup1\n      calldatasize\n      sub\n      dup2\n      add\n      swap1\n      tag_28\n      swap2\n      swap1\n      tag_29\n      jump\t// in\n    tag_28:\n      tag_30\n      jump\t// in\n    tag_27:\n      stop\n        /* \"checking.sol\":663:700  uint8 public constant LAST_LEVEL = 12 */\n    tag_4:\n      callvalue\n      dup1\n      iszero\n      tag_31\n      jumpi\n      0x00\n      dup1\n      revert\n    tag_31:\n      pop\n      tag_32\n      tag_33\n      jump\t// in\n    tag_32:\n      mload(0x40)\n      tag_34\n      swap2\n      swap1\n      tag_35\n      jump\t// in\n    tag_34:\n      mload(0x40)\n      dup1\n      swap2\n      sub\n      swap1\n      return\n        /* \"checking.sol\":522:568  mapping(uint256 => address) public idToAddress */\n    tag_5:\n      callvalue\n      dup1\n      iszero\n      tag_36\n      jumpi\n      0x00\n      dup1\n      revert\n    tag_36:\n      pop\n      tag_37\n      0x04\n      dup1\n      calldatasize\n      sub\n      dup2\n      add\n      swap1\n      tag_38\n      swap2\n      swap1\n      tag_39\n      jump\t// in\n    tag_38:\n      tag_40\n      jump\t// in\n    tag_37:\n      mload(0x40)\n      tag_41\n      swap2\n      swap1\n      tag_42\n      jump\t// in\n    tag_41:\n      mload(0x40)\n      dup1\n      swap2\n      sub\n      swap1\n      return\n        /* \"checking.sol\":3410:5014  function registerUser(... */\n    tag_6:\n      tag_43\n      0x04\n      dup1\n      calldatasize\n      sub\n      dup2\n      add\n      swap1\n      tag_44\n      swap2\n      swap1\n      tag_45\n      jump\t// in\n    tag_44:\n      tag_46\n      jump\t// in\n    tag_43:\n      stop\n        /* \"checking.sol\":627:656  uint256 public lastUserId = 3 */\n    tag_7:\n      callvalue\n      dup1\n      iszero\n      tag_47\n      jumpi\n      0x00\n      dup1\n      revert\n    tag_47:\n      pop\n      tag_48\n      tag_49\n      jump\t// in\n    tag_48:\n      mload(0x40)\n      tag_50\n      swap2\n      swap1\n      tag_51\n      jump\t// in\n    tag_50:\n      mload(0x40)\n      dup1\n      swap2\n      sub\n      swap1\n      return\n        /* \"checking.sol\":10649:10784  function getTotalReferralCount(address _upline) public view returns (uint256) {... */\n    tag_8:\n      callvalue\n      dup1\n      iszero\n      tag_52\n      jumpi\n      0x00\n      dup1\n      revert\n    tag_52:\n      pop\n      tag_53\n      0x04\n      dup1\n      calldatasize\n      sub\n      dup2\n      add\n      swap1\n      tag_54\n      swap2\n      swap1\n      tag_55\n      jump\t// in\n    tag_54:\n      tag_56\n      jump\t// in\n    tag_53:\n      mload(0x40)\n      tag_57\n      swap2\n      swap1\n      tag_51\n      jump\t// in\n    tag_57:\n      mload(0x40)\n      dup1\n      swap2\n      sub\n      swap1\n      return\n        /* \"checking.sol\":9559:10148  function getUserInfo(address _user) public view returns (... */\n    tag_9:\n      callvalue\n      dup1\n      iszero\n      tag_58\n      jumpi\n      0x00\n      dup1\n      revert\n    tag_58:\n      pop\n      tag_59\n      0x04\n      dup1\n      calldatasize\n      sub\n      dup2\n      add\n      swap1\n      tag_60\n      swap2\n      swap1\n      tag_55\n      jump\t// in\n    tag_60:\n      tag_61\n      jump\t// in\n    tag_59:\n      mload(0x40)\n      tag_62\n      swap12\n      swap11\n      swap10\n      swap9\n      swap8\n      swap7\n      swap6\n      swap5\n      swap4\n      swap3\n      swap2\n      swap1\n      tag_63\n      jump\t// in\n    tag_62:\n      mload(0x40)\n      dup1\n      swap2\n      sub\n      swap1\n      return\n        /* \"checking.sol\":756:804  uint256 public constant REGISTRATION_FEE = 25e18 */\n    tag_10:\n      callvalue\n      dup1\n      iszero\n      tag_64\n      jumpi\n      0x00\n      dup1\n      revert\n    tag_64:\n      pop\n      tag_65\n      tag_66\n      jump\t// in\n    tag_65:\n      mload(0x40)\n      tag_67\n      swap2\n      swap1\n      tag_51\n      jump\t// in\n    tag_67:\n      mload(0x40)\n      dup1\n      swap2\n      sub\n      swap1\n      return\n        /* \"checking.sol\":10346:10452  function getUserById(uint256 _id) public view returns (address) {... */\n    tag_11:\n      callvalue\n      dup1\n      iszero\n      tag_68\n      jumpi\n      0x00\n      dup1\n      revert\n    tag_68:\n      pop\n      tag_69\n      0x04\n      dup1\n      calldatasize\n      sub\n      dup2\n      add\n      swap1\n      tag_70\n      swap2\n      swap1\n      tag_39\n      jump\t// in\n    tag_70:\n      tag_71\n      jump\t// in\n    tag_69:\n      mload(0x40)\n      tag_72\n      swap2\n      swap1\n      tag_42\n      jump\t// in\n    tag_72:\n      mload(0x40)\n      dup1\n      swap2\n      sub\n      swap1\n      return\n        /* \"checking.sol\":10460:10643  function getLevelPrice(uint8 _level) public view returns (uint256) {... */\n    tag_12:\n      callvalue\n      dup1\n      iszero\n      tag_73\n      jumpi\n      0x00\n      dup1\n      revert\n    tag_73:\n      pop\n      tag_74\n      0x04\n      dup1\n      calldatasize\n      sub\n      dup2\n      add\n      swap1\n      tag_75\n      swap2\n      swap1\n      tag_76\n      jump\t// in\n    tag_75:\n      tag_77\n      jump\t// in\n    tag_74:\n      mload(0x40)\n      tag_78\n      swap2\n      swap1\n      tag_51\n      jump\t// in\n    tag_78:\n      mload(0x40)\n      dup1\n      swap2\n      sub\n      swap1\n      return\n        /* \"checking.sol\":6276:7499  function buyLevel(uint8 _newLevel) public payable {... */\n    tag_13:\n      tag_79\n      0x04\n      dup1\n      calldatasize\n      sub\n      dup2\n      add\n      swap1\n      tag_80\n      swap2\n      swap1\n      tag_76\n      jump\t// in\n    tag_80:\n      tag_81\n      jump\t// in\n    tag_79:\n      stop\n        /* \"checking.sol\":813:833  address public owner */\n    tag_14:\n      callvalue\n      dup1\n      iszero\n      tag_82\n      jumpi\n      0x00\n      dup1\n      revert\n    tag_82:\n      pop\n      tag_83\n      tag_84\n      jump\t// in\n    tag_83:\n      mload(0x40)\n      tag_85\n      swap2\n      swap1\n      tag_42\n      jump\t// in\n    tag_85:\n      mload(0x40)\n      dup1\n      swap2\n      sub\n      swap1\n      return\n        /* \"checking.sol\":11042:11380  function getCurrentUplineLevel(address _user) public view returns (uint8) {... */\n    tag_15:\n      callvalue\n      dup1\n      iszero\n      tag_86\n      jumpi\n      0x00\n      dup1\n      revert\n    tag_86:\n      pop\n      tag_87\n      0x04\n      dup1\n      calldatasize\n      sub\n      dup2\n      add\n      swap1\n      tag_88\n      swap2\n      swap1\n      tag_55\n      jump\t// in\n    tag_88:\n      tag_89\n      jump\t// in\n    tag_87:\n      mload(0x40)\n      tag_90\n      swap2\n      swap1\n      tag_35\n      jump\t// in\n    tag_90:\n      mload(0x40)\n      dup1\n      swap2\n      sub\n      swap1\n      return\n        /* \"checking.sol\":8363:9478  function payUpline(address _user) public payable returns (uint256) {... */\n    tag_16:\n      tag_91\n      0x04\n      dup1\n      calldatasize\n      sub\n      dup2\n      add\n      swap1\n      tag_92\n      swap2\n      swap1\n      tag_55\n      jump\t// in\n    tag_92:\n      tag_93\n      jump\t// in\n    tag_91:\n      mload(0x40)\n      tag_94\n      swap2\n      swap1\n      tag_51\n      jump\t// in\n    tag_94:\n      mload(0x40)\n      dup1\n      swap2\n      sub\n      swap1\n      return\n        /* \"checking.sol\":707:749  uint256 public constant BASIC_PRICE = 5e18 */\n    tag_17:\n      callvalue\n      dup1\n      iszero\n      tag_95\n      jumpi\n      0x00\n      dup1\n      revert\n    tag_95:\n      pop\n      tag_96\n      tag_97\n      jump\t// in\n    tag_96:\n      mload(0x40)\n      tag_98\n      swap2\n      swap1\n      tag_51\n      jump\t// in\n    tag_98:\n      mload(0x40)\n      dup1\n      swap2\n      sub\n      swap1\n      return\n        /* \"checking.sol\":478:515  mapping(address => User) public users */\n    tag_18:\n      callvalue\n      dup1\n      iszero\n      tag_99\n      jumpi\n      0x00\n      dup1\n      revert\n    tag_99:\n      pop\n      tag_100\n      0x04\n      dup1\n      calldatasize\n      sub\n      dup2\n      add\n      swap1\n      tag_101\n      swap2\n      swap1\n      tag_55\n      jump\t// in\n    tag_101:\n      tag_102\n      jump\t// in\n    tag_100:\n      mload(0x40)\n      tag_103\n      swap13\n      swap12\n      swap11\n      swap10\n      swap9\n      swap8\n      swap7\n      swap6\n      swap5\n      swap4\n      swap3\n      swap2\n      swap1\n      tag_104\n      jump\t// in\n    tag_103:\n      mload(0x40)\n      dup1\n      swap2\n      sub\n      swap1\n      return\n        /* \"checking.sol\":7507:7745  function generateReferralLink(address userAddress) public view returns (string memory) {... */\n    tag_19:\n      callvalue\n      dup1\n      iszero\n      tag_105\n      jumpi\n      0x00\n      dup1\n      revert\n    tag_105:\n      pop\n      tag_106\n      0x04\n      dup1\n      calldatasize\n      sub\n      dup2\n      add\n      swap1\n      tag_107\n      swap2\n      swap1\n      tag_55\n      jump\t// in\n    tag_107:\n      tag_108\n      jump\t// in\n    tag_106:\n      mload(0x40)\n      tag_109\n      swap2\n      swap1\n      tag_110\n      jump\t// in\n    tag_109:\n      mload(0x40)\n      dup1\n      swap2\n      sub\n      swap1\n      return\n        /* \"checking.sol\":10156:10338  function transactionHistory(address _user) public view returns (uint256, uint256) {... */\n    tag_20:\n      callvalue\n      dup1\n      iszero\n      tag_111\n      jumpi\n      0x00\n      dup1\n      revert\n    tag_111:\n      pop\n      tag_112\n      0x04\n      dup1\n      calldatasize\n      sub\n      dup2\n      add\n      swap1\n      tag_113\n      swap2\n      swap1\n      tag_55\n      jump\t// in\n    tag_113:\n      tag_114\n      jump\t// in\n    tag_112:\n      mload(0x40)\n      tag_115\n      swap3\n      swap2\n      swap1\n      tag_116\n      jump\t// in\n    tag_115:\n      mload(0x40)\n      dup1\n      swap2\n      sub\n      swap1\n      return\n        /* \"checking.sol\":575:618  mapping(uint8 => uint256) public levelPrice */\n    tag_21:\n      callvalue\n      dup1\n      iszero\n      tag_117\n      jumpi\n      0x00\n      dup1\n      revert\n    tag_117:\n      pop\n      tag_118\n      0x04\n      dup1\n      calldatasize\n      sub\n      dup2\n      add\n      swap1\n      tag_119\n      swap2\n      swap1\n      tag_76\n      jump\t// in\n    tag_119:\n      tag_120\n      jump\t// in\n    tag_118:\n      mload(0x40)\n      tag_121\n      swap2\n      swap1\n      tag_51\n      jump\t// in\n    tag_121:\n      mload(0x40)\n      dup1\n      swap2\n      sub\n      swap1\n      return\n        /* \"checking.sol\":2156:3402  function registerUpline(... */\n    tag_30:\n        /* \"checking.sol\":2435:2436  0 */\n      0x00\n        /* \"checking.sol\":2414:2419  users */\n      dup1\n        /* \"checking.sol\":2414:2428  users[_upline] */\n      0x00\n        /* \"checking.sol\":2420:2427  _upline */\n      dup9\n        /* \"checking.sol\":2414:2428  users[_upline] */\n      0xffffffffffffffffffffffffffffffffffffffff\n      and\n      0xffffffffffffffffffffffffffffffffffffffff\n      and\n      dup2\n      mstore\n      0x20\n      add\n      swap1\n      dup2\n      mstore\n      0x20\n      add\n      0x00\n      keccak256\n        /* \"checking.sol\":2414:2431  users[_upline].id */\n      0x01\n      add\n      sload\n        /* \"checking.sol\":2414:2436  users[_upline].id == 0 */\n      eq\n        /* \"checking.sol\":2406:2466  require(users[_upline].id == 0, \"Upline already registered\") */\n      tag_123\n      jumpi\n      mload(0x40)\n      0x08c379a000000000000000000000000000000000000000000000000000000000\n      dup2\n      mstore\n      0x04\n      add\n      tag_124\n      swap1\n      tag_125\n      jump\t// in\n    tag_124:\n      mload(0x40)\n      dup1\n      swap2\n      sub\n      swap1\n      revert\n    tag_123:\n        /* \"checking.sol\":2561:2581  bytes32 passwordHash */\n      0x00\n        /* \"checking.sol\":2611:2619  password */\n      dup2\n        /* \"checking.sol\":2594:2620  abi.encodePacked(password) */\n      add(0x20, mload(0x40))\n      tag_126\n      swap2\n      swap1\n      tag_127\n      jump\t// in\n    tag_126:\n      mload(0x40)\n      0x20\n      dup2\n      dup4\n      sub\n      sub\n      dup2\n      mstore\n      swap1\n      0x40\n      mstore\n        /* \"checking.sol\":2584:2621  keccak256(abi.encodePacked(password)) */\n      dup1\n      mload\n      swap1\n      0x20\n      add\n      keccak256\n        /* \"checking.sol\":2561:2621  bytes32 passwordHash = keccak256(abi.encodePacked(password)) */\n      swap1\n      pop\n        /* \"checking.sol\":2681:3125  User({... */\n      mload(0x40)\n      dup1\n      0x01a0\n      add\n      0x40\n      mstore\n      dup1\n        /* \"checking.sol\":2717:2718  0 */\n      0x00\n        /* \"checking.sol\":2681:3125  User({... */\n      0xffffffffffffffffffffffffffffffffffffffff\n      and\n      dup2\n      mstore\n      0x20\n      add\n        /* \"checking.sol\":2738:2748  lastUserId */\n      sload(0x03)\n        /* \"checking.sol\":2681:3125  User({... */\n      dup2\n      mstore\n      0x20\n      add\n        /* \"checking.sol\":2778:2779  0 */\n      0x00\n        /* \"checking.sol\":2681:3125  User({... */\n      dup2\n      mstore\n      0x20\n      add\n        /* \"checking.sol\":2806:2807  0 */\n      0x00\n        /* \"checking.sol\":2681:3125  User({... */\n      dup2\n      mstore\n      0x20\n      add\n        /* \"checking.sol\":2832:2833  0 */\n      0x00\n        /* \"checking.sol\":2681:3125  User({... */\n      dup2\n      mstore\n      0x20\n      add\n        /* \"checking.sol\":2862:2863  1 */\n      0x01\n        /* \"checking.sol\":2681:3125  User({... */\n      0xff\n      and\n      dup2\n      mstore\n      0x20\n      add\n        /* \"checking.sol\":2903:2904  0 */\n      0x00\n        /* \"checking.sol\":2889:2905  new address[](0) */\n      0xffffffffffffffff\n      dup2\n      gt\n      iszero\n      tag_128\n      jumpi\n      tag_129\n      tag_130\n      jump\t// in\n    tag_129:\n    tag_128:\n      mload(0x40)\n      swap1\n      dup1\n      dup3\n      mstore\n      dup1\n      0x20\n      mul\n      0x20\n      add\n      dup3\n      add\n      0x40\n      mstore\n      dup1\n      iszero\n      tag_131\n      jumpi\n      dup2\n      0x20\n      add\n      0x20\n      dup3\n      mul\n      dup1\n      calldatasize\n      dup4\n      calldatacopy\n      dup1\n      dup3\n      add\n      swap2\n      pop\n      pop\n      swap1\n      pop\n    tag_131:\n      pop\n        /* \"checking.sol\":2681:3125  User({... */\n      dup2\n      mstore\n      0x20\n      add\n        /* \"checking.sol\":2932:2941  firstName */\n      dup8\n        /* \"checking.sol\":2681:3125  User({... */\n      dup2\n      mstore\n      0x20\n      add\n        /* \"checking.sol\":2966:2974  lastName */\n      dup7\n        /* \"checking.sol\":2681:3125  User({... */\n      dup2\n      mstore\n      0x20\n      add\n        /* \"checking.sol\":3001:3011  profilePic */\n      dup6\n        /* \"checking.sol\":2681:3125  User({... */\n      dup2\n      mstore\n      0x20\n      add\n        /* \"checking.sol\":3033:3038  email */\n      dup5\n        /* \"checking.sol\":2681:3125  User({... */\n      dup2\n      mstore\n      0x20\n      add\n        /* \"checking.sol\":3066:3078  passwordHash */\n      dup3\n        /* \"checking.sol\":2681:3125  User({... */\n      dup2\n      mstore\n      0x20\n      add\n        /* \"checking.sol\":3106:3113  _upline */\n      dup9\n        /* \"checking.sol\":2681:3125  User({... */\n      0xffffffffffffffffffffffffffffffffffffffff\n      and\n      dup2\n      mstore\n      pop\n        /* \"checking.sol\":2664:2669  users */\n      0x00\n        /* \"checking.sol\":2664:2678  users[_upline] */\n      dup1\n        /* \"checking.sol\":2670:2677  _upline */\n      dup10\n        /* \"checking.sol\":2664:2678  users[_upline] */\n      0xffffffffffffffffffffffffffffffffffffffff\n      and\n      0xffffffffffffffffffffffffffffffffffffffff\n      and\n      dup2\n      mstore\n      0x20\n      add\n      swap1\n      dup2\n      mstore\n      0x20\n      add\n      0x00\n      keccak256\n        /* \"checking.sol\":2664:3125  users[_upline] = User({... */\n      0x00\n      dup3\n      add\n      mload\n      dup2\n      0x00\n      add\n      exp(0x0100, 0x00)\n      dup2\n      sload\n      dup2\n      0xffffffffffffffffffffffffffffffffffffffff\n      mul\n      not\n      and\n      swap1\n      dup4\n      0xffffffffffffffffffffffffffffffffffffffff\n      and\n      mul\n      or\n      swap1\n      sstore\n      pop\n      0x20\n      dup3\n      add\n      mload\n      dup2\n      0x01\n      add\n      sstore\n      0x40\n      dup3\n      add\n      mload\n      dup2\n      0x02\n      add\n      sstore\n      0x60\n      dup3\n      add\n      mload\n      dup2\n      0x03\n      add\n      sstore\n      0x80\n      dup3\n      add\n      mload\n      dup2\n      0x04\n      add\n      sstore\n      0xa0\n      dup3\n      add\n      mload\n      dup2\n      0x05\n      add\n      exp(0x0100, 0x00)\n      dup2\n      sload\n      dup2\n      0xff\n      mul\n      not\n      and\n      swap1\n      dup4\n      0xff\n      and\n      mul\n      or\n      swap1\n      sstore\n      pop\n      0xc0\n      dup3\n      add\n      mload\n      dup2\n      0x06\n      add\n      swap1\n      dup1\n      mload\n      swap1\n      0x20\n      add\n      swap1\n      tag_132\n      swap3\n      swap2\n      swap1\n      tag_133\n      jump\t// in\n    tag_132:\n      pop\n      0xe0\n      dup3\n      add\n      mload\n      dup2\n      0x07\n      add\n      swap1\n      dup2\n      tag_134\n      swap2\n      swap1\n      tag_135\n      jump\t// in\n    tag_134:\n      pop\n      0x0100\n      dup3\n      add\n      mload\n      dup2\n      0x08\n      add\n      swap1\n      dup2\n      tag_136\n      swap2\n      swap1\n      tag_135\n      jump\t// in\n    tag_136:\n      pop\n      0x0120\n      dup3\n      add\n      mload\n      dup2\n      0x09\n      add\n      swap1\n      dup2\n      tag_137\n      swap2\n      swap1\n      tag_135\n      jump\t// in\n    tag_137:\n      pop\n      0x0140\n      dup3\n      add\n      mload\n      dup2\n      0x0a\n      add\n      swap1\n      dup2\n      tag_138\n      swap2\n      swap1\n      tag_135\n      jump\t// in\n    tag_138:\n      pop\n      0x0160\n      dup3\n      add\n      mload\n      dup2\n      0x0b\n      add\n      sstore\n      0x0180\n      dup3\n      add\n      mload\n      dup2\n      0x0c\n      add\n      exp(0x0100, 0x00)\n      dup2\n      sload\n      dup2\n      0xffffffffffffffffffffffffffffffffffffffff\n      mul\n      not\n      and\n      swap1\n      dup4\n      0xffffffffffffffffffffffffffffffffffffffff\n      and\n      mul\n      or\n      swap1\n      sstore\n      pop\n      swap1\n      pop\n      pop\n        /* \"checking.sol\":3164:3171  _upline */\n      dup7\n        /* \"checking.sol\":3138:3149  idToAddress */\n      0x01\n        /* \"checking.sol\":3138:3161  idToAddress[lastUserId] */\n      0x00\n        /* \"checking.sol\":3150:3160  lastUserId */\n      sload(0x03)\n        /* \"checking.sol\":3138:3161  idToAddress[lastUserId] */\n      dup2\n      mstore\n      0x20\n      add\n      swap1\n      dup2\n      mstore\n      0x20\n      add\n      0x00\n      keccak256\n      0x00\n        /* \"checking.sol\":3138:3171  idToAddress[lastUserId] = _upline */\n      0x0100\n      exp\n      dup2\n      sload\n      dup2\n      0xffffffffffffffffffffffffffffffffffffffff\n      mul\n      not\n      and\n      swap1\n      dup4\n      0xffffffffffffffffffffffffffffffffffffffff\n      and\n      mul\n      or\n      swap1\n      sstore\n      pop\n        /* \"checking.sol\":3182:3192  lastUserId */\n      0x03\n      0x00\n        /* \"checking.sol\":3182:3194  lastUserId++ */\n      dup2\n      sload\n      dup1\n      swap3\n      swap2\n      swap1\n      tag_139\n      swap1\n      tag_140\n      jump\t// in\n    tag_139:\n      swap2\n      swap1\n      pop\n      sstore\n      pop\n        /* \"checking.sol\":3275:3280  owner */\n      0x04\n      0x00\n      swap1\n      sload\n      swap1\n      0x0100\n      exp\n      swap1\n      div\n      0xffffffffffffffffffffffffffffffffffffffff\n      and\n        /* \"checking.sol\":3267:3290  payable(owner).transfer */\n      0xffffffffffffffffffffffffffffffffffffffff\n      and\n        /* \"checking.sol\":3267:3301  payable(owner).transfer(msg.value) */\n      0x08fc\n        /* \"checking.sol\":3291:3300  msg.value */\n      callvalue\n        /* \"checking.sol\":3267:3301  payable(owner).transfer(msg.value) */\n      swap1\n      dup2\n      iszero\n      mul\n      swap1\n      mload(0x40)\n      0x00\n      mload(0x40)\n      dup1\n      dup4\n      sub\n      dup2\n      dup6\n      dup9\n      dup9\n      call\n      swap4\n      pop\n      pop\n      pop\n      pop\n      iszero\n      dup1\n      iszero\n      tag_142\n      jumpi\n      returndatasize\n      0x00\n      dup1\n      returndatacopy\n      revert(0x00, returndatasize)\n    tag_142:\n      pop\n        /* \"checking.sol\":3349:3350  0 */\n      0x00\n        /* \"checking.sol\":3319:3394  Registration(_upline, address(0), users[_upline].id, 0, REGISTRATION_FEE,1) */\n      0xffffffffffffffffffffffffffffffffffffffff\n      and\n        /* \"checking.sol\":3332:3339  _upline */\n      dup8\n        /* \"checking.sol\":3319:3394  Registration(_upline, address(0), users[_upline].id, 0, REGISTRATION_FEE,1) */\n      0xffffffffffffffffffffffffffffffffffffffff\n      and\n      0x2b4796a0a8e31f678c432f388e9bb4e2ab31ffb820bee612a940c1cf3a565c41\n        /* \"checking.sol\":3353:3358  users */\n      0x00\n        /* \"checking.sol\":3353:3367  users[_upline] */\n      dup1\n        /* \"checking.sol\":3359:3366  _upline */\n      dup12\n        /* \"checking.sol\":3353:3367  users[_upline] */\n      0xffffffffffffffffffffffffffffffffffffffff\n      and\n      0xffffffffffffffffffffffffffffffffffffffff\n      and\n      dup2\n      mstore\n      0x20\n      add\n      swap1\n      dup2\n      mstore\n      0x20\n      add\n      0x00\n      keccak256\n        /* \"checking.sol\":3353:3370  users[_upline].id */\n      0x01\n      add\n      sload\n        /* \"checking.sol\":3372:3373  0 */\n      0x00\n        /* \"checking.sol\":799:804  25e18 */\n      0x015af1d78b58c40000\n        /* \"checking.sol\":3392:3393  1 */\n      0x01\n        /* \"checking.sol\":3319:3394  Registration(_upline, address(0), users[_upline].id, 0, REGISTRATION_FEE,1) */\n      mload(0x40)\n      tag_143\n      swap5\n      swap4\n      swap3\n      swap2\n      swap1\n      tag_144\n      jump\t// in\n    tag_143:\n      mload(0x40)\n      dup1\n      swap2\n      sub\n      swap1\n      log3\n        /* \"checking.sol\":2395:3402  {... */\n      pop\n        /* \"checking.sol\":2156:3402  function registerUpline(... */\n      pop\n      pop\n      pop\n      pop\n      pop\n      pop\n      jump\t// out\n        /* \"checking.sol\":663:700  uint8 public constant LAST_LEVEL = 12 */\n    tag_33:\n        /* \"checking.sol\":698:700  12 */\n      0x0c\n        /* \"checking.sol\":663:700  uint8 public constant LAST_LEVEL = 12 */\n      dup2\n      jump\t// out\n        /* \"checking.sol\":522:568  mapping(uint256 => address) public idToAddress */\n    tag_40:\n      mstore(0x20, 0x01)\n      dup1\n      0x00\n      mstore\n      keccak256(0x00, 0x40)\n      0x00\n      swap2\n      pop\n      sload\n      swap1\n      0x0100\n      exp\n      swap1\n      div\n      0xffffffffffffffffffffffffffffffffffffffff\n      and\n      dup2\n      jump\t// out\n        /* \"checking.sol\":3410:5014  function registerUser(... */\n    tag_46:\n        /* \"checking.sol\":3715:3716  0 */\n      0x00\n        /* \"checking.sol\":3694:3699  users */\n      dup1\n        /* \"checking.sol\":3694:3708  users[_upline] */\n      0x00\n        /* \"checking.sol\":3700:3707  _upline */\n      dup10\n        /* \"checking.sol\":3694:3708  users[_upline] */\n      0xffffffffffffffffffffffffffffffffffffffff\n      and\n      0xffffffffffffffffffffffffffffffffffffffff\n      and\n      dup2\n      mstore\n      0x20\n      add\n      swap1\n      dup2\n      mstore\n      0x20\n      add\n      0x00\n      keccak256\n        /* \"checking.sol\":3694:3711  users[_upline].id */\n      0x01\n      add\n      sload\n        /* \"checking.sol\":3694:3716  users[_upline].id != 0 */\n      sub\n        /* \"checking.sol\":3686:3742  require(users[_upline].id != 0, \"Upline does not exist\") */\n      tag_146\n      jumpi\n      mload(0x40)\n      0x08c379a000000000000000000000000000000000000000000000000000000000\n      dup2\n      mstore\n      0x04\n      add\n      tag_147\n      swap1\n      tag_148\n      jump\t// in\n    tag_147:\n      mload(0x40)\n      dup1\n      swap2\n      sub\n      swap1\n      revert\n    tag_146:\n        /* \"checking.sol\":3911:3931  bytes32 passwordHash */\n      0x00\n        /* \"checking.sol\":3961:3969  password */\n      dup3\n        /* \"checking.sol\":3944:3970  abi.encodePacked(password) */\n      add(0x20, mload(0x40))\n      tag_149\n      swap2\n      swap1\n      tag_127\n      jump\t// in\n    tag_149:\n      mload(0x40)\n      0x20\n      dup2\n      dup4\n      sub\n      sub\n      dup2\n      mstore\n      swap1\n      0x40\n      mstore\n        /* \"checking.sol\":3934:3971  keccak256(abi.encodePacked(password)) */\n      dup1\n      mload\n      swap1\n      0x20\n      add\n      keccak256\n        /* \"checking.sol\":3911:3971  bytes32 passwordHash = keccak256(abi.encodePacked(password)) */\n      swap1\n      pop\n        /* \"checking.sol\":4034:4480  User({... */\n      mload(0x40)\n      dup1\n      0x01a0\n      add\n      0x40\n      mstore\n      dup1\n        /* \"checking.sol\":4062:4069  _upline */\n      dup10\n        /* \"checking.sol\":4034:4480  User({... */\n      0xffffffffffffffffffffffffffffffffffffffff\n      and\n      dup2\n      mstore\n      0x20\n      add\n        /* \"checking.sol\":4088:4098  lastUserId */\n      sload(0x03)\n        /* \"checking.sol\":4034:4480  User({... */\n      dup2\n      mstore\n      0x20\n      add\n        /* \"checking.sol\":4128:4129  0 */\n      0x00\n        /* \"checking.sol\":4034:4480  User({... */\n      dup2\n      mstore\n      0x20\n      add\n        /* \"checking.sol\":4156:4157  0 */\n      0x00\n        /* \"checking.sol\":4034:4480  User({... */\n      dup2\n      mstore\n      0x20\n      add\n        /* \"checking.sol\":4182:4183  0 */\n      0x00\n        /* \"checking.sol\":4034:4480  User({... */\n      dup2\n      mstore\n      0x20\n      add\n        /* \"checking.sol\":4212:4213  1 */\n      0x01\n        /* \"checking.sol\":4034:4480  User({... */\n      0xff\n      and\n      dup2\n      mstore\n      0x20\n      add\n        /* \"checking.sol\":4253:4254  0 */\n      0x00\n        /* \"checking.sol\":4239:4255  new address[](0) */\n      0xffffffffffffffff\n      dup2\n      gt\n      iszero\n      tag_150\n      jumpi\n      tag_151\n      tag_130\n      jump\t// in\n    tag_151:\n    tag_150:\n      mload(0x40)\n      swap1\n      dup1\n      dup3\n      mstore\n      dup1\n      0x20\n      mul\n      0x20\n      add\n      dup3\n      add\n      0x40\n      mstore\n      dup1\n      iszero\n      tag_152\n      jumpi\n      dup2\n      0x20\n      add\n      0x20\n      dup3\n      mul\n      dup1\n      calldatasize\n      dup4\n      calldatacopy\n      dup1\n      dup3\n      add\n      swap2\n      pop\n      pop\n      swap1\n      pop\n    tag_152:\n      pop\n        /* \"checking.sol\":4034:4480  User({... */\n      dup2\n      mstore\n      0x20\n      add\n        /* \"checking.sol\":4282:4291  firstName */\n      dup9\n        /* \"checking.sol\":4034:4480  User({... */\n      dup2\n      mstore\n      0x20\n      add\n        /* \"checking.sol\":4316:4324  lastName */\n      dup8\n        /* \"checking.sol\":4034:4480  User({... */\n      dup2\n      mstore\n      0x20\n      add\n        /* \"checking.sol\":4351:4361  profilePic */\n      dup7\n        /* \"checking.sol\":4034:4480  User({... */\n      dup2\n      mstore\n      0x20\n      add\n        /* \"checking.sol\":4383:4388  email */\n      dup6\n        /* \"checking.sol\":4034:4480  User({... */\n      dup2\n      mstore\n      0x20\n      add\n        /* \"checking.sol\":4417:4429  passwordHash */\n      dup3\n        /* \"checking.sol\":4034:4480  User({... */\n      dup2\n      mstore\n      0x20\n      add\n        /* \"checking.sol\":4457:4468  userAddress */\n      dup4\n        /* \"checking.sol\":4034:4480  User({... */\n      0xffffffffffffffffffffffffffffffffffffffff\n      and\n      dup2\n      mstore\n      pop\n        /* \"checking.sol\":4014:4019  users */\n      0x00\n        /* \"checking.sol\":4014:4031  users[msg.sender] */\n      dup1\n        /* \"checking.sol\":4020:4030  msg.sender */\n      caller\n        /* \"checking.sol\":4014:4031  users[msg.sender] */\n      0xffffffffffffffffffffffffffffffffffffffff\n      and\n      0xffffffffffffffffffffffffffffffffffffffff\n      and\n      dup2\n      mstore\n      0x20\n      add\n      swap1\n      dup2\n      mstore\n      0x20\n      add\n      0x00\n      keccak256\n        /* \"checking.sol\":4014:4480  users[msg.sender] = User({... */\n      0x00\n      dup3\n      add\n      mload\n      dup2\n      0x00\n      add\n      exp(0x0100, 0x00)\n      dup2\n      sload\n      dup2\n      0xffffffffffffffffffffffffffffffffffffffff\n      mul\n      not\n      and\n      swap1\n      dup4\n      0xffffffffffffffffffffffffffffffffffffffff\n      and\n      mul\n      or\n      swap1\n      sstore\n      pop\n      0x20\n      dup3\n      add\n      mload\n      dup2\n      0x01\n      add\n      sstore\n      0x40\n      dup3\n      add\n      mload\n      dup2\n      0x02\n      add\n      sstore\n      0x60\n      dup3\n      add\n      mload\n      dup2\n      0x03\n      add\n      sstore\n      0x80\n      dup3\n      add\n      mload\n      dup2\n      0x04\n      add\n      sstore\n      0xa0\n      dup3\n      add\n      mload\n      dup2\n      0x05\n      add\n      exp(0x0100, 0x00)\n      dup2\n      sload\n      dup2\n      0xff\n      mul\n      not\n      and\n      swap1\n      dup4\n      0xff\n      and\n      mul\n      or\n      swap1\n      sstore\n      pop\n      0xc0\n      dup3\n      add\n      mload\n      dup2\n      0x06\n      add\n      swap1\n      dup1\n      mload\n      swap1\n      0x20\n      add\n      swap1\n      tag_153\n      swap3\n      swap2\n      swap1\n      tag_133\n      jump\t// in\n    tag_153:\n      pop\n      0xe0\n      dup3\n      add\n      mload\n      dup2\n      0x07\n      add\n      swap1\n      dup2\n      tag_154\n      swap2\n      swap1\n      tag_135\n      jump\t// in\n    tag_154:\n      pop\n      0x0100\n      dup3\n      add\n      mload\n      dup2\n      0x08\n      add\n      swap1\n      dup2\n      tag_155\n      swap2\n      swap1\n      tag_135\n      jump\t// in\n    tag_155:\n      pop\n      0x0120\n      dup3\n      add\n      mload\n      dup2\n      0x09\n      add\n      swap1\n      dup2\n      tag_156\n      swap2\n      swap1\n      tag_135\n      jump\t// in\n    tag_156:\n      pop\n      0x0140\n      dup3\n      add\n      mload\n      dup2\n      0x0a\n      add\n      swap1\n      dup2\n      tag_157\n      swap2\n      swap1\n      tag_135\n      jump\t// in\n    tag_157:\n      pop\n      0x0160\n      dup3\n      add\n      mload\n      dup2\n      0x0b\n      add\n      sstore\n      0x0180\n      dup3\n      add\n      mload\n      dup2\n      0x0c\n      add\n      exp(0x0100, 0x00)\n      dup2\n      sload\n      dup2\n      0xffffffffffffffffffffffffffffffffffffffff\n      mul\n      not\n      and\n      swap1\n      dup4\n      0xffffffffffffffffffffffffffffffffffffffff\n      and\n      mul\n      or\n      swap1\n      sstore\n      pop\n      swap1\n      pop\n      pop\n        /* \"checking.sol\":4519:4529  msg.sender */\n      caller\n        /* \"checking.sol\":4493:4504  idToAddress */\n      0x01\n        /* \"checking.sol\":4493:4516  idToAddress[lastUserId] */\n      0x00\n        /* \"checking.sol\":4505:4515  lastUserId */\n      sload(0x03)\n        /* \"checking.sol\":4493:4516  idToAddress[lastUserId] */\n      dup2\n      mstore\n      0x20\n      add\n      swap1\n      dup2\n      mstore\n      0x20\n      add\n      0x00\n      keccak256\n      0x00\n        /* \"checking.sol\":4493:4529  idToAddress[lastUserId] = msg.sender */\n      0x0100\n      exp\n      dup2\n      sload\n      dup2\n      0xffffffffffffffffffffffffffffffffffffffff\n      mul\n      not\n      and\n      swap1\n      dup4\n      0xffffffffffffffffffffffffffffffffffffffff\n      and\n      mul\n      or\n      swap1\n      sstore\n      pop\n        /* \"checking.sol\":4540:4550  lastUserId */\n      0x03\n      0x00\n        /* \"checking.sol\":4540:4552  lastUserId++ */\n      dup2\n      sload\n      dup1\n      swap3\n      swap2\n      swap1\n      tag_158\n      swap1\n      tag_140\n      jump\t// in\n    tag_158:\n      swap2\n      swap1\n      pop\n      sstore\n      pop\n        /* \"checking.sol\":4594:4599  users */\n      0x00\n        /* \"checking.sol\":4594:4608  users[_upline] */\n      dup1\n        /* \"checking.sol\":4600:4607  _upline */\n      dup10\n        /* \"checking.sol\":4594:4608  users[_upline] */\n      0xffffffffffffffffffffffffffffffffffffffff\n      and\n      0xffffffffffffffffffffffffffffffffffffffff\n      and\n      dup2\n      mstore\n      0x20\n      add\n      swap1\n      dup2\n      mstore\n      0x20\n      add\n      0x00\n      keccak256\n        /* \"checking.sol\":4594:4622  users[_upline].referralCount */\n      0x02\n      add\n      0x00\n        /* \"checking.sol\":4594:4624  users[_upline].referralCount++ */\n      dup2\n      sload\n      dup1\n      swap3\n      swap2\n      swap1\n      tag_159\n      swap1\n      tag_140\n      jump\t// in\n    tag_159:\n      swap2\n      swap1\n      pop\n      sstore\n      pop\n        /* \"checking.sol\":4635:4640  users */\n      0x00\n        /* \"checking.sol\":4635:4649  users[_upline] */\n      dup1\n        /* \"checking.sol\":4641:4648  _upline */\n      dup10\n        /* \"checking.sol\":4635:4649  users[_upline] */\n      0xffffffffffffffffffffffffffffffffffffffff\n      and\n      0xffffffffffffffffffffffffffffffffffffffff\n      and\n      dup2\n      mstore\n      0x20\n      add\n      swap1\n      dup2\n      mstore\n      0x20\n      add\n      0x00\n      keccak256\n        /* \"checking.sol\":4635:4659  users[_upline].referrals */\n      0x06\n      add\n        /* \"checking.sol\":4665:4675  msg.sender */\n      caller\n        /* \"checking.sol\":4635:4676  users[_upline].referrals.push(msg.sender) */\n      swap1\n      dup1\n      0x01\n      dup2\n      sload\n      add\n      dup1\n      dup3\n      sstore\n      dup1\n      swap2\n      pop\n      pop\n      0x01\n      swap1\n      sub\n      swap1\n      0x00\n      mstore\n      keccak256(0x00, 0x20)\n      add\n      0x00\n      swap1\n      swap2\n      swap1\n      swap2\n      swap1\n      swap2\n      0x0100\n      exp\n      dup2\n      sload\n      dup2\n      0xffffffffffffffffffffffffffffffffffffffff\n      mul\n      not\n      and\n      swap1\n      dup4\n      0xffffffffffffffffffffffffffffffffffffffff\n      and\n      mul\n      or\n      swap1\n      sstore\n      pop\n        /* \"checking.sol\":4695:4700  owner */\n      0x04\n      0x00\n      swap1\n      sload\n      swap1\n      0x0100\n      exp\n      swap1\n      div\n      0xffffffffffffffffffffffffffffffffffffffff\n      and\n        /* \"checking.sol\":4687:4710  payable(owner).transfer */\n      0xffffffffffffffffffffffffffffffffffffffff\n      and\n        /* \"checking.sol\":4687:4721  payable(owner).transfer(msg.value) */\n      0x08fc\n        /* \"checking.sol\":4711:4720  msg.value */\n      callvalue\n        /* \"checking.sol\":4687:4721  payable(owner).transfer(msg.value) */\n      swap1\n      dup2\n      iszero\n      mul\n      swap1\n      mload(0x40)\n      0x00\n      mload(0x40)\n      dup1\n      dup4\n      sub\n      dup2\n      dup6\n      dup9\n      dup9\n      call\n      swap4\n      pop\n      pop\n      pop\n      pop\n      iszero\n      dup1\n      iszero\n      tag_162\n      jumpi\n      returndatasize\n      0x00\n      dup1\n      returndatacopy\n      revert(0x00, returndatasize)\n    tag_162:\n      pop\n        /* \"checking.sol\":4789:4824  handleReferral(msg.sender, _upline) */\n      tag_163\n        /* \"checking.sol\":4804:4814  msg.sender */\n      caller\n        /* \"checking.sol\":4816:4823  _upline */\n      dup10\n        /* \"checking.sol\":4789:4803  handleReferral */\n      tag_164\n        /* \"checking.sol\":4789:4824  handleReferral(msg.sender, _upline) */\n      jump\t// in\n    tag_163:\n        /* \"checking.sol\":4938:4945  _upline */\n      dup8\n        /* \"checking.sol\":4913:5006  Registration(msg.sender, _upline, users[msg.sender].id, users[_upline].id,REGISTRATION_FEE,1) */\n      0xffffffffffffffffffffffffffffffffffffffff\n      and\n        /* \"checking.sol\":4926:4936  msg.sender */\n      caller\n        /* \"checking.sol\":4913:5006  Registration(msg.sender, _upline, users[msg.sender].id, users[_upline].id,REGISTRATION_FEE,1) */\n      0xffffffffffffffffffffffffffffffffffffffff\n      and\n      0x2b4796a0a8e31f678c432f388e9bb4e2ab31ffb820bee612a940c1cf3a565c41\n        /* \"checking.sol\":4947:4952  users */\n      0x00\n        /* \"checking.sol\":4947:4964  users[msg.sender] */\n      dup1\n        /* \"checking.sol\":4953:4963  msg.sender */\n      caller\n        /* \"checking.sol\":4947:4964  users[msg.sender] */\n      0xffffffffffffffffffffffffffffffffffffffff\n      and\n      0xffffffffffffffffffffffffffffffffffffffff\n      and\n      dup2\n      mstore\n      0x20\n      add\n      swap1\n      dup2\n      mstore\n      0x20\n      add\n      0x00\n      keccak256\n        /* \"checking.sol\":4947:4967  users[msg.sender].id */\n      0x01\n      add\n      sload\n        /* \"checking.sol\":4969:4974  users */\n      0x00\n        /* \"checking.sol\":4969:4983  users[_upline] */\n      dup1\n        /* \"checking.sol\":4975:4982  _upline */\n      dup14\n        /* \"checking.sol\":4969:4983  users[_upline] */\n      0xffffffffffffffffffffffffffffffffffffffff\n      and\n      0xffffffffffffffffffffffffffffffffffffffff\n      and\n      dup2\n      mstore\n      0x20\n      add\n      swap1\n      dup2\n      mstore\n      0x20\n      add\n      0x00\n      keccak256\n        /* \"checking.sol\":4969:4986  users[_upline].id */\n      0x01\n      add\n      sload\n        /* \"checking.sol\":799:804  25e18 */\n      0x015af1d78b58c40000\n        /* \"checking.sol\":5004:5005  1 */\n      0x01\n        /* \"checking.sol\":4913:5006  Registration(msg.sender, _upline, users[msg.sender].id, users[_upline].id,REGISTRATION_FEE,1) */\n      mload(0x40)\n      tag_165\n      swap5\n      swap4\n      swap3\n      swap2\n      swap1\n      tag_166\n      jump\t// in\n    tag_165:\n      mload(0x40)\n      dup1\n      swap2\n      sub\n      swap1\n      log3\n        /* \"checking.sol\":3675:5014  {... */\n      pop\n        /* \"checking.sol\":3410:5014  function registerUser(... */\n      pop\n      pop\n      pop\n      pop\n      pop\n      pop\n      pop\n      jump\t// out\n        /* \"checking.sol\":627:656  uint256 public lastUserId = 3 */\n    tag_49:\n      sload(0x03)\n      dup2\n      jump\t// out\n        /* \"checking.sol\":10649:10784  function getTotalReferralCount(address _upline) public view returns (uint256) {... */\n    tag_56:\n        /* \"checking.sol\":10718:10725  uint256 */\n      0x00\n        /* \"checking.sol\":10745:10776  _getTotalReferralCount(_upline) */\n      tag_168\n        /* \"checking.sol\":10768:10775  _upline */\n      dup3\n        /* \"checking.sol\":10745:10767  _getTotalReferralCount */\n      tag_169\n        /* \"checking.sol\":10745:10776  _getTotalReferralCount(_upline) */\n      jump\t// in\n    tag_168:\n        /* \"checking.sol\":10738:10776  return _getTotalReferralCount(_upline) */\n      swap1\n      pop\n        /* \"checking.sol\":10649:10784  function getTotalReferralCount(address _upline) public view returns (uint256) {... */\n      swap2\n      swap1\n      pop\n      jump\t// out\n        /* \"checking.sol\":9559:10148  function getUserInfo(address _user) public view returns (... */\n    tag_61:\n        /* \"checking.sol\":9626:9633  address */\n      0x00\n        /* \"checking.sol\":9635:9642  uint256 */\n      dup1\n        /* \"checking.sol\":9644:9651  uint256 */\n      0x00\n        /* \"checking.sol\":9653:9660  uint256 */\n      dup1\n        /* \"checking.sol\":9662:9669  uint256 */\n      0x00\n        /* \"checking.sol\":9671:9678  uint256 */\n      dup1\n        /* \"checking.sol\":9680:9693  string memory */\n      0x60\n        /* \"checking.sol\":9695:9708  string memory */\n      dup1\n        /* \"checking.sol\":9710:9723  string memory */\n      0x60\n        /* \"checking.sol\":9725:9738  string memory */\n      dup1\n        /* \"checking.sol\":9740:9747  address */\n      0x00\n        /* \"checking.sol\":9766:9782  User memory user */\n      dup1\n        /* \"checking.sol\":9785:9790  users */\n      0x00\n        /* \"checking.sol\":9785:9797  users[_user] */\n      dup1\n        /* \"checking.sol\":9791:9796  _user */\n      dup15\n        /* \"checking.sol\":9785:9797  users[_user] */\n      0xffffffffffffffffffffffffffffffffffffffff\n      and\n      0xffffffffffffffffffffffffffffffffffffffff\n      and\n      dup2\n      mstore\n      0x20\n      add\n      swap1\n      dup2\n      mstore\n      0x20\n      add\n      0x00\n      keccak256\n        /* \"checking.sol\":9766:9797  User memory user = users[_user] */\n      mload(0x40)\n      dup1\n      0x01a0\n      add\n      0x40\n      mstore\n      swap1\n      dup2\n      0x00\n      dup3\n      add\n      0x00\n      swap1\n      sload\n      swap1\n      0x0100\n      exp\n      swap1\n      div\n      0xffffffffffffffffffffffffffffffffffffffff\n      and\n      0xffffffffffffffffffffffffffffffffffffffff\n      and\n      0xffffffffffffffffffffffffffffffffffffffff\n      and\n      dup2\n      mstore\n      0x20\n      add\n      0x01\n      dup3\n      add\n      sload\n      dup2\n      mstore\n      0x20\n      add\n      0x02\n      dup3\n      add\n      sload\n      dup2\n      mstore\n      0x20\n      add\n      0x03\n      dup3\n      add\n      sload\n      dup2\n      mstore\n      0x20\n      add\n      0x04\n      dup3\n      add\n      sload\n      dup2\n      mstore\n      0x20\n      add\n      0x05\n      dup3\n      add\n      0x00\n      swap1\n      sload\n      swap1\n      0x0100\n      exp\n      swap1\n      div\n      0xff\n      and\n      0xff\n      and\n      0xff\n      and\n      dup2\n      mstore\n      0x20\n      add\n      0x06\n      dup3\n      add\n      dup1\n      sload\n      dup1\n      0x20\n      mul\n      0x20\n      add\n      mload(0x40)\n      swap1\n      dup2\n      add\n      0x40\n      mstore\n      dup1\n      swap3\n      swap2\n      swap1\n      dup2\n      dup2\n      mstore\n      0x20\n      add\n      dup3\n      dup1\n      sload\n      dup1\n      iszero\n      tag_171\n      jumpi\n      0x20\n      mul\n      dup3\n      add\n      swap2\n      swap1\n      0x00\n      mstore\n      keccak256(0x00, 0x20)\n      swap1\n    tag_172:\n      dup2\n      0x00\n      swap1\n      sload\n      swap1\n      0x0100\n      exp\n      swap1\n      div\n      0xffffffffffffffffffffffffffffffffffffffff\n      and\n      0xffffffffffffffffffffffffffffffffffffffff\n      and\n      dup2\n      mstore\n      0x20\n      add\n      swap1\n      0x01\n      add\n      swap1\n      dup1\n      dup4\n      gt\n      tag_172\n      jumpi\n    tag_171:\n      pop\n      pop\n      pop\n      pop\n      pop\n      dup2\n      mstore\n      0x20\n      add\n      0x07\n      dup3\n      add\n      dup1\n      sload\n      tag_173\n      swap1\n      tag_174\n      jump\t// in\n    tag_173:\n      dup1\n      0x1f\n      add\n      0x20\n      dup1\n      swap2\n      div\n      mul\n      0x20\n      add\n      mload(0x40)\n      swap1\n      dup2\n      add\n      0x40\n      mstore\n      dup1\n      swap3\n      swap2\n      swap1\n      dup2\n      dup2\n      mstore\n      0x20\n      add\n      dup3\n      dup1\n      sload\n      tag_175\n      swap1\n      tag_174\n      jump\t// in\n    tag_175:\n      dup1\n      iszero\n      tag_176\n      jumpi\n      dup1\n      0x1f\n      lt\n      tag_177\n      jumpi\n      0x0100\n      dup1\n      dup4\n      sload\n      div\n      mul\n      dup4\n      mstore\n      swap2\n      0x20\n      add\n      swap2\n      jump(tag_176)\n    tag_177:\n      dup3\n      add\n      swap2\n      swap1\n      0x00\n      mstore\n      keccak256(0x00, 0x20)\n      swap1\n    tag_178:\n      dup2\n      sload\n      dup2\n      mstore\n      swap1\n      0x01\n      add\n      swap1\n      0x20\n      add\n      dup1\n      dup4\n      gt\n      tag_178\n      jumpi\n      dup3\n      swap1\n      sub\n      0x1f\n      and\n      dup3\n      add\n      swap2\n    tag_176:\n      pop\n      pop\n      pop\n      pop\n      pop\n      dup2\n      mstore\n      0x20\n      add\n      0x08\n      dup3\n      add\n      dup1\n      sload\n      tag_179\n      swap1\n      tag_174\n      jump\t// in\n    tag_179:\n      dup1\n      0x1f\n      add\n      0x20\n      dup1\n      swap2\n      div\n      mul\n      0x20\n      add\n      mload(0x40)\n      swap1\n      dup2\n      add\n      0x40\n      mstore\n      dup1\n      swap3\n      swap2\n      swap1\n      dup2\n      dup2\n      mstore\n      0x20\n      add\n      dup3\n      dup1\n      sload\n      tag_180\n      swap1\n      tag_174\n      jump\t// in\n    tag_180:\n      dup1\n      iszero\n      tag_181\n      jumpi\n      dup1\n      0x1f\n      lt\n      tag_182\n      jumpi\n      0x0100\n      dup1\n      dup4\n      sload\n      div\n      mul\n      dup4\n      mstore\n      swap2\n      0x20\n      add\n      swap2\n      jump(tag_181)\n    tag_182:\n      dup3\n      add\n      swap2\n      swap1\n      0x00\n      mstore\n      keccak256(0x00, 0x20)\n      swap1\n    tag_183:\n      dup2\n      sload\n      dup2\n      mstore\n      swap1\n      0x01\n      add\n      swap1\n      0x20\n      add\n      dup1\n      dup4\n      gt\n      tag_183\n      jumpi\n      dup3\n      swap1\n      sub\n      0x1f\n      and\n      dup3\n      add\n      swap2\n    tag_181:\n      pop\n      pop\n      pop\n      pop\n      pop\n      dup2\n      mstore\n      0x20\n      add\n      0x09\n      dup3\n      add\n      dup1\n      sload\n      tag_184\n      swap1\n      tag_174\n      jump\t// in\n    tag_184:\n      dup1\n      0x1f\n      add\n      0x20\n      dup1\n      swap2\n      div\n      mul\n      0x20\n      add\n      mload(0x40)\n      swap1\n      dup2\n      add\n      0x40\n      mstore\n      dup1\n      swap3\n      swap2\n      swap1\n      dup2\n      dup2\n      mstore\n      0x20\n      add\n      dup3\n      dup1\n      sload\n      tag_185\n      swap1\n      tag_174\n      jump\t// in\n    tag_185:\n      dup1\n      iszero\n      tag_186\n      jumpi\n      dup1\n      0x1f\n      lt\n      tag_187\n      jumpi\n      0x0100\n      dup1\n      dup4\n      sload\n      div\n      mul\n      dup4\n      mstore\n      swap2\n      0x20\n      add\n      swap2\n      jump(tag_186)\n    tag_187:\n      dup3\n      add\n      swap2\n      swap1\n      0x00\n      mstore\n      keccak256(0x00, 0x20)\n      swap1\n    tag_188:\n      dup2\n      sload\n      dup2\n      mstore\n      swap1\n      0x01\n      add\n      swap1\n      0x20\n      add\n      dup1\n      dup4\n      gt\n      tag_188\n      jumpi\n      dup3\n      swap1\n      sub\n      0x1f\n      and\n      dup3\n      add\n      swap2\n    tag_186:\n      pop\n      pop\n      pop\n      pop\n      pop\n      dup2\n      mstore\n      0x20\n      add\n      0x0a\n      dup3\n      add\n      dup1\n      sload\n      tag_189\n      swap1\n      tag_174\n      jump\t// in\n    tag_189:\n      dup1\n      0x1f\n      add\n      0x20\n      dup1\n      swap2\n      div\n      mul\n      0x20\n      add\n      mload(0x40)\n      swap1\n      dup2\n      add\n      0x40\n      mstore\n      dup1\n      swap3\n      swap2\n      swap1\n      dup2\n      dup2\n      mstore\n      0x20\n      add\n      dup3\n      dup1\n      sload\n      tag_190\n      swap1\n      tag_174\n      jump\t// in\n    tag_190:\n      dup1\n      iszero\n      tag_191\n      jumpi\n      dup1\n      0x1f\n      lt\n      tag_192\n      jumpi\n      0x0100\n      dup1\n      dup4\n      sload\n      div\n      mul\n      dup4\n      mstore\n      swap2\n      0x20\n      add\n      swap2\n      jump(tag_191)\n    tag_192:\n      dup3\n      add\n      swap2\n      swap1\n      0x00\n      mstore\n      keccak256(0x00, 0x20)\n      swap1\n    tag_193:\n      dup2\n      sload\n      dup2\n      mstore\n      swap1\n      0x01\n      add\n      swap1\n      0x20\n      add\n      dup1\n      dup4\n      gt\n      tag_193\n      jumpi\n      dup3\n      swap1\n      sub\n      0x1f\n      and\n      dup3\n      add\n      swap2\n    tag_191:\n      pop\n      pop\n      pop\n      pop\n      pop\n      dup2\n      mstore\n      0x20\n      add\n      0x0b\n      dup3\n      add\n      sload\n      dup2\n      mstore\n      0x20\n      add\n      0x0c\n      dup3\n      add\n      0x00\n      swap1\n      sload\n      swap1\n      0x0100\n      exp\n      swap1\n      div\n      0xffffffffffffffffffffffffffffffffffffffff\n      and\n      0xffffffffffffffffffffffffffffffffffffffff\n      and\n      0xffffffffffffffffffffffffffffffffffffffff\n      and\n      dup2\n      mstore\n      pop\n      pop\n      swap1\n      pop\n        /* \"checking.sol\":9830:9834  user */\n      dup1\n        /* \"checking.sol\":9830:9841  user.upline */\n      0x00\n      add\n      mload\n        /* \"checking.sol\":9856:9860  user */\n      dup2\n        /* \"checking.sol\":9856:9863  user.id */\n      0x20\n      add\n      mload\n        /* \"checking.sol\":9878:9882  user */\n      dup3\n        /* \"checking.sol\":9878:9896  user.referralCount */\n      0x40\n      add\n      mload\n        /* \"checking.sol\":9911:9915  user */\n      dup4\n        /* \"checking.sol\":9911:9926  user.cycleCount */\n      0x60\n      add\n      mload\n        /* \"checking.sol\":9941:9945  user */\n      dup5\n        /* \"checking.sol\":9941:9954  user.earnings */\n      0x80\n      add\n      mload\n        /* \"checking.sol\":9969:9973  user */\n      dup6\n        /* \"checking.sol\":9969:9986  user.partnerLevel */\n      0xa0\n      add\n      mload\n        /* \"checking.sol\":10001:10005  user */\n      dup7\n        /* \"checking.sol\":10001:10015  user.firstName */\n      0xe0\n      add\n      mload\n        /* \"checking.sol\":10030:10034  user */\n      dup8\n        /* \"checking.sol\":10030:10043  user.lastName */\n      0x0100\n      add\n      mload\n        /* \"checking.sol\":10058:10062  user */\n      dup9\n        /* \"checking.sol\":10058:10073  user.profilePic */\n      0x0120\n      add\n      mload\n        /* \"checking.sol\":10088:10092  user */\n      dup10\n        /* \"checking.sol\":10088:10098  user.email */\n      0x0140\n      add\n      mload\n        /* \"checking.sol\":10113:10117  user */\n      dup11\n        /* \"checking.sol\":10113:10129  user.userAddress */\n      0x0180\n      add\n      mload\n        /* \"checking.sol\":9808:10140  return (... */\n      dup6\n      0xff\n      and\n      swap6\n      pop\n      swap12\n      pop\n      swap12\n      pop\n      swap12\n      pop\n      swap12\n      pop\n      swap12\n      pop\n      swap12\n      pop\n      swap12\n      pop\n      swap12\n      pop\n      swap12\n      pop\n      swap12\n      pop\n      swap12\n      pop\n      pop\n        /* \"checking.sol\":9559:10148  function getUserInfo(address _user) public view returns (... */\n      swap2\n      swap4\n      swap6\n      swap8\n      swap10\n      swap12\n      swap1\n      swap3\n      swap5\n      swap7\n      swap9\n      swap11\n      pop\n      jump\t// out\n        /* \"checking.sol\":756:804  uint256 public constant REGISTRATION_FEE = 25e18 */\n    tag_66:\n        /* \"checking.sol\":799:804  25e18 */\n      0x015af1d78b58c40000\n        /* \"checking.sol\":756:804  uint256 public constant REGISTRATION_FEE = 25e18 */\n      dup2\n      jump\t// out\n        /* \"checking.sol\":10346:10452  function getUserById(uint256 _id) public view returns (address) {... */\n    tag_71:\n        /* \"checking.sol\":10401:10408  address */\n      0x00\n        /* \"checking.sol\":10428:10439  idToAddress */\n      0x01\n        /* \"checking.sol\":10428:10444  idToAddress[_id] */\n      0x00\n        /* \"checking.sol\":10440:10443  _id */\n      dup4\n        /* \"checking.sol\":10428:10444  idToAddress[_id] */\n      dup2\n      mstore\n      0x20\n      add\n      swap1\n      dup2\n      mstore\n      0x20\n      add\n      0x00\n      keccak256\n      0x00\n      swap1\n      sload\n      swap1\n      0x0100\n      exp\n      swap1\n      div\n      0xffffffffffffffffffffffffffffffffffffffff\n      and\n        /* \"checking.sol\":10421:10444  return idToAddress[_id] */\n      swap1\n      pop\n        /* \"checking.sol\":10346:10452  function getUserById(uint256 _id) public view returns (address) {... */\n      swap2\n      swap1\n      pop\n      jump\t// out\n        /* \"checking.sol\":10460:10643  function getLevelPrice(uint8 _level) public view returns (uint256) {... */\n    tag_77:\n        /* \"checking.sol\":10518:10525  uint256 */\n      0x00\n        /* \"checking.sol\":10556:10557  1 */\n      0x01\n        /* \"checking.sol\":10546:10552  _level */\n      dup3\n        /* \"checking.sol\":10546:10557  _level >= 1 */\n      0xff\n      and\n      lt\n      iszero\n        /* \"checking.sol\":10546:10581  _level >= 1 && _level <= LAST_LEVEL */\n      dup1\n      iszero\n      tag_196\n      jumpi\n      pop\n        /* \"checking.sol\":698:700  12 */\n      0x0c\n        /* \"checking.sol\":10561:10581  _level <= LAST_LEVEL */\n      0xff\n      and\n        /* \"checking.sol\":10561:10567  _level */\n      dup3\n        /* \"checking.sol\":10561:10581  _level <= LAST_LEVEL */\n      0xff\n      and\n      gt\n      iszero\n        /* \"checking.sol\":10546:10581  _level >= 1 && _level <= LAST_LEVEL */\n    tag_196:\n        /* \"checking.sol\":10538:10599  require(_level >= 1 && _level <= LAST_LEVEL, \"Invalid level\") */\n      tag_197\n      jumpi\n      mload(0x40)\n      0x08c379a000000000000000000000000000000000000000000000000000000000\n      dup2\n      mstore\n      0x04\n      add\n      tag_198\n      swap1\n      tag_199\n      jump\t// in\n    tag_198:\n      mload(0x40)\n      dup1\n      swap2\n      sub\n      swap1\n      revert\n    tag_197:\n        /* \"checking.sol\":10617:10627  levelPrice */\n      0x02\n        /* \"checking.sol\":10617:10635  levelPrice[_level] */\n      0x00\n        /* \"checking.sol\":10628:10634  _level */\n      dup4\n        /* \"checking.sol\":10617:10635  levelPrice[_level] */\n      0xff\n      and\n      0xff\n      and\n      dup2\n      mstore\n      0x20\n      add\n      swap1\n      dup2\n      mstore\n      0x20\n      add\n      0x00\n      keccak256\n      sload\n        /* \"checking.sol\":10610:10635  return levelPrice[_level] */\n      swap1\n      pop\n        /* \"checking.sol\":10460:10643  function getLevelPrice(uint8 _level) public view returns (uint256) {... */\n      swap2\n      swap1\n      pop\n      jump\t// out\n        /* \"checking.sol\":6276:7499  function buyLevel(uint8 _newLevel) public payable {... */\n    tag_81:\n        /* \"checking.sol\":6353:6358  users */\n      0x00\n        /* \"checking.sol\":6353:6370  users[msg.sender] */\n      dup1\n        /* \"checking.sol\":6359:6369  msg.sender */\n      caller\n        /* \"checking.sol\":6353:6370  users[msg.sender] */\n      0xffffffffffffffffffffffffffffffffffffffff\n      and\n      0xffffffffffffffffffffffffffffffffffffffff\n      and\n      dup2\n      mstore\n      0x20\n      add\n      swap1\n      dup2\n      mstore\n      0x20\n      add\n      0x00\n      keccak256\n        /* \"checking.sol\":6353:6383  users[msg.sender].partnerLevel */\n      0x05\n      add\n      0x00\n      swap1\n      sload\n      swap1\n      0x0100\n      exp\n      swap1\n      div\n      0xff\n      and\n        /* \"checking.sol\":6341:6383  _newLevel > users[msg.sender].partnerLevel */\n      0xff\n      and\n        /* \"checking.sol\":6341:6350  _newLevel */\n      dup2\n        /* \"checking.sol\":6341:6383  _newLevel > users[msg.sender].partnerLevel */\n      0xff\n      and\n      gt\n        /* \"checking.sol\":6333:6430  require(_newLevel > users[msg.sender].partnerLevel, \"Cannot downgrade or stay at the same level\") */\n      tag_201\n      jumpi\n      mload(0x40)\n      0x08c379a000000000000000000000000000000000000000000000000000000000\n      dup2\n      mstore\n      0x04\n      add\n      tag_202\n      swap1\n      tag_203\n      jump\t// in\n    tag_202:\n      mload(0x40)\n      dup1\n      swap2\n      sub\n      swap1\n      revert\n    tag_201:\n        /* \"checking.sol\":698:700  12 */\n      0x0c\n        /* \"checking.sol\":6445:6468  _newLevel <= LAST_LEVEL */\n      0xff\n      and\n        /* \"checking.sol\":6445:6454  _newLevel */\n      dup2\n        /* \"checking.sol\":6445:6468  _newLevel <= LAST_LEVEL */\n      0xff\n      and\n      gt\n      iszero\n        /* \"checking.sol\":6437:6486  require(_newLevel <= LAST_LEVEL, \"Invalid level\") */\n      tag_204\n      jumpi\n      mload(0x40)\n      0x08c379a000000000000000000000000000000000000000000000000000000000\n      dup2\n      mstore\n      0x04\n      add\n      tag_205\n      swap1\n      tag_199\n      jump\t// in\n    tag_205:\n      mload(0x40)\n      dup1\n      swap2\n      sub\n      swap1\n      revert\n    tag_204:\n        /* \"checking.sol\":6495:6508  uint256 price */\n      0x00\n        /* \"checking.sol\":6511:6521  levelPrice */\n      0x02\n        /* \"checking.sol\":6511:6532  levelPrice[_newLevel] */\n      0x00\n        /* \"checking.sol\":6522:6531  _newLevel */\n      dup4\n        /* \"checking.sol\":6511:6532  levelPrice[_newLevel] */\n      0xff\n      and\n      0xff\n      and\n      dup2\n      mstore\n      0x20\n      add\n      swap1\n      dup2\n      mstore\n      0x20\n      add\n      0x00\n      keccak256\n      sload\n        /* \"checking.sol\":6495:6532  uint256 price = levelPrice[_newLevel] */\n      swap1\n      pop\n        /* \"checking.sol\":6642:6656  address upline */\n      0x00\n        /* \"checking.sol\":6659:6664  users */\n      dup1\n        /* \"checking.sol\":6659:6676  users[msg.sender] */\n      0x00\n        /* \"checking.sol\":6665:6675  msg.sender */\n      caller\n        /* \"checking.sol\":6659:6676  users[msg.sender] */\n      0xffffffffffffffffffffffffffffffffffffffff\n      and\n      0xffffffffffffffffffffffffffffffffffffffff\n      and\n      dup2\n      mstore\n      0x20\n      add\n      swap1\n      dup2\n      mstore\n      0x20\n      add\n      0x00\n      keccak256\n        /* \"checking.sol\":6659:6683  users[msg.sender].upline */\n      0x00\n      add\n      0x00\n      swap1\n      sload\n      swap1\n      0x0100\n      exp\n      swap1\n      div\n      0xffffffffffffffffffffffffffffffffffffffff\n      and\n        /* \"checking.sol\":6642:6683  address upline = users[msg.sender].upline */\n      swap1\n      pop\n        /* \"checking.sol\":6690:6712  uint256 uplineEarnings */\n      0x00\n        /* \"checking.sol\":6728:6731  100 */\n      0x64\n        /* \"checking.sol\":6723:6725  10 */\n      0x0a\n        /* \"checking.sol\":6715:6720  price */\n      dup5\n        /* \"checking.sol\":6715:6725  price * 10 */\n      tag_206\n      swap2\n      swap1\n      tag_207\n      jump\t// in\n    tag_206:\n        /* \"checking.sol\":6715:6731  price * 10 / 100 */\n      tag_208\n      swap2\n      swap1\n      tag_209\n      jump\t// in\n    tag_208:\n        /* \"checking.sol\":6690:6731  uint256 uplineEarnings = price * 10 / 100 */\n      swap1\n      pop\n        /* \"checking.sol\":6755:6776  uint256 ownerEarnings */\n      0x00\n        /* \"checking.sol\":6787:6801  uplineEarnings */\n      dup2\n        /* \"checking.sol\":6779:6784  price */\n      dup5\n        /* \"checking.sol\":6779:6801  price - uplineEarnings */\n      tag_210\n      swap2\n      swap1\n      tag_211\n      jump\t// in\n    tag_210:\n        /* \"checking.sol\":6755:6801  uint256 ownerEarnings = price - uplineEarnings */\n      swap1\n      pop\n        /* \"checking.sol\":6879:6888  _newLevel */\n      dup5\n        /* \"checking.sol\":6846:6851  users */\n      0x00\n        /* \"checking.sol\":6846:6863  users[msg.sender] */\n      dup1\n        /* \"checking.sol\":6852:6862  msg.sender */\n      caller\n        /* \"checking.sol\":6846:6863  users[msg.sender] */\n      0xffffffffffffffffffffffffffffffffffffffff\n      and\n      0xffffffffffffffffffffffffffffffffffffffff\n      and\n      dup2\n      mstore\n      0x20\n      add\n      swap1\n      dup2\n      mstore\n      0x20\n      add\n      0x00\n      keccak256\n        /* \"checking.sol\":6846:6876  users[msg.sender].partnerLevel */\n      0x05\n      add\n      0x00\n        /* \"checking.sol\":6846:6888  users[msg.sender].partnerLevel = _newLevel */\n      0x0100\n      exp\n      dup2\n      sload\n      dup2\n      0xff\n      mul\n      not\n      and\n      swap1\n      dup4\n      0xff\n      and\n      mul\n      or\n      swap1\n      sstore\n      pop\n        /* \"checking.sol\":6959:6960  0 */\n      0x00\n        /* \"checking.sol\":6941:6961  upline != address(0) */\n      0xffffffffffffffffffffffffffffffffffffffff\n      and\n        /* \"checking.sol\":6941:6947  upline */\n      dup4\n        /* \"checking.sol\":6941:6961  upline != address(0) */\n      0xffffffffffffffffffffffffffffffffffffffff\n      and\n      eq\n        /* \"checking.sol\":6937:7215  if (upline != address(0)) {... */\n      tag_212\n      jumpi\n        /* \"checking.sol\":6975:6993  bool successUpline */\n      0x00\n        /* \"checking.sol\":7007:7013  upline */\n      dup4\n        /* \"checking.sol\":6999:7019  payable(upline).call */\n      0xffffffffffffffffffffffffffffffffffffffff\n      and\n        /* \"checking.sol\":7027:7041  uplineEarnings */\n      dup4\n        /* \"checking.sol\":6999:7046  payable(upline).call{value: uplineEarnings}(\"\") */\n      mload(0x40)\n      tag_213\n      swap1\n      tag_214\n      jump\t// in\n    tag_213:\n      0x00\n      mload(0x40)\n      dup1\n      dup4\n      sub\n      dup2\n      dup6\n      dup8\n      gas\n      call\n      swap3\n      pop\n      pop\n      pop\n      returndatasize\n      dup1\n      0x00\n      dup2\n      eq\n      tag_217\n      jumpi\n      mload(0x40)\n      swap2\n      pop\n      and(add(returndatasize, 0x3f), not(0x1f))\n      dup3\n      add\n      0x40\n      mstore\n      returndatasize\n      dup3\n      mstore\n      returndatasize\n      0x00\n      0x20\n      dup5\n      add\n      returndatacopy\n      jump(tag_216)\n    tag_217:\n      0x60\n      swap2\n      pop\n    tag_216:\n      pop\n        /* \"checking.sol\":6974:7046  (bool successUpline, ) = payable(upline).call{value: uplineEarnings}(\"\") */\n      pop\n      swap1\n      pop\n        /* \"checking.sol\":7065:7078  successUpline */\n      dup1\n        /* \"checking.sol\":7057:7108  require(successUpline, \"Transfer to upline failed\") */\n      tag_218\n      jumpi\n      mload(0x40)\n      0x08c379a000000000000000000000000000000000000000000000000000000000\n      dup2\n      mstore\n      0x04\n      add\n      tag_219\n      swap1\n      tag_220\n      jump\t// in\n    tag_219:\n      mload(0x40)\n      dup1\n      swap2\n      sub\n      swap1\n      revert\n    tag_218:\n        /* \"checking.sol\":7145:7159  uplineEarnings */\n      dup3\n        /* \"checking.sol\":7119:7124  users */\n      0x00\n        /* \"checking.sol\":7119:7132  users[upline] */\n      dup1\n        /* \"checking.sol\":7125:7131  upline */\n      dup7\n        /* \"checking.sol\":7119:7132  users[upline] */\n      0xffffffffffffffffffffffffffffffffffffffff\n      and\n      0xffffffffffffffffffffffffffffffffffffffff\n      and\n      dup2\n      mstore\n      0x20\n      add\n      swap1\n      dup2\n      mstore\n      0x20\n      add\n      0x00\n      keccak256\n        /* \"checking.sol\":7119:7141  users[upline].earnings */\n      0x04\n      add\n      0x00\n        /* \"checking.sol\":7119:7159  users[upline].earnings += uplineEarnings */\n      dup3\n      dup3\n      sload\n      tag_221\n      swap2\n      swap1\n      tag_222\n      jump\t// in\n    tag_221:\n      swap3\n      pop\n      pop\n      dup2\n      swap1\n      sstore\n      pop\n        /* \"checking.sol\":7184:7190  upline */\n      dup4\n        /* \"checking.sol\":7175:7207  Earnings(upline, uplineEarnings) */\n      0xffffffffffffffffffffffffffffffffffffffff\n      and\n      0x92d81ab7e787d9a43bbb8f8ca7f0b2708da03b86d5aea53d5d20656ff8dad1ee\n        /* \"checking.sol\":7192:7206  uplineEarnings */\n      dup5\n        /* \"checking.sol\":7175:7207  Earnings(upline, uplineEarnings) */\n      mload(0x40)\n      tag_223\n      swap2\n      swap1\n      tag_51\n      jump\t// in\n    tag_223:\n      mload(0x40)\n      dup1\n      swap2\n      sub\n      swap1\n      log2\n        /* \"checking.sol\":6963:7215  {... */\n      pop\n        /* \"checking.sol\":6937:7215  if (upline != address(0)) {... */\n    tag_212:\n        /* \"checking.sol\":7281:7298  bool successOwner */\n      0x00\n        /* \"checking.sol\":7312:7317  owner */\n      0x04\n      0x00\n      swap1\n      sload\n      swap1\n      0x0100\n      exp\n      swap1\n      div\n      0xffffffffffffffffffffffffffffffffffffffff\n      and\n        /* \"checking.sol\":7304:7323  payable(owner).call */\n      0xffffffffffffffffffffffffffffffffffffffff\n      and\n        /* \"checking.sol\":7331:7344  ownerEarnings */\n      dup3\n        /* \"checking.sol\":7304:7349  payable(owner).call{value: ownerEarnings}(\"\") */\n      mload(0x40)\n      tag_224\n      swap1\n      tag_214\n      jump\t// in\n    tag_224:\n      0x00\n      mload(0x40)\n      dup1\n      dup4\n      sub\n      dup2\n      dup6\n      dup8\n      gas\n      call\n      swap3\n      pop\n      pop\n      pop\n      returndatasize\n      dup1\n      0x00\n      dup2\n      eq\n      tag_227\n      jumpi\n      mload(0x40)\n      swap2\n      pop\n      and(add(returndatasize, 0x3f), not(0x1f))\n      dup3\n      add\n      0x40\n      mstore\n      returndatasize\n      dup3\n      mstore\n      returndatasize\n      0x00\n      0x20\n      dup5\n      add\n      returndatacopy\n      jump(tag_226)\n    tag_227:\n      0x60\n      swap2\n      pop\n    tag_226:\n      pop\n        /* \"checking.sol\":7280:7349  (bool successOwner, ) = payable(owner).call{value: ownerEarnings}(\"\") */\n      pop\n      swap1\n      pop\n        /* \"checking.sol\":7435:7445  msg.sender */\n      caller\n        /* \"checking.sol\":7421:7495  LevelUpgraded(msg.sender, _newLevel, price, uplineEarnings, ownerEarnings) */\n      0xffffffffffffffffffffffffffffffffffffffff\n      and\n      0xdbf0b0dd9da4bea8f6827b8c94d9d2c555a713d0b15d01f002f81f321bba5e3c\n        /* \"checking.sol\":7447:7456  _newLevel */\n      dup8\n        /* \"checking.sol\":7458:7463  price */\n      dup8\n        /* \"checking.sol\":7465:7479  uplineEarnings */\n      dup7\n        /* \"checking.sol\":7481:7494  ownerEarnings */\n      dup7\n        /* \"checking.sol\":7421:7495  LevelUpgraded(msg.sender, _newLevel, price, uplineEarnings, ownerEarnings) */\n      mload(0x40)\n      tag_228\n      swap5\n      swap4\n      swap3\n      swap2\n      swap1\n      tag_229\n      jump\t// in\n    tag_228:\n      mload(0x40)\n      dup1\n      swap2\n      sub\n      swap1\n      log2\n        /* \"checking.sol\":6326:7499  {... */\n      pop\n      pop\n      pop\n      pop\n      pop\n        /* \"checking.sol\":6276:7499  function buyLevel(uint8 _newLevel) public payable {... */\n      pop\n      jump\t// out\n        /* \"checking.sol\":813:833  address public owner */\n    tag_84:\n      0x04\n      0x00\n      swap1\n      sload\n      swap1\n      0x0100\n      exp\n      swap1\n      div\n      0xffffffffffffffffffffffffffffffffffffffff\n      and\n      dup2\n      jump\t// out\n        /* \"checking.sol\":11042:11380  function getCurrentUplineLevel(address _user) public view returns (uint8) {... */\n    tag_89:\n        /* \"checking.sol\":11109:11114  uint8 */\n      0x00\n        /* \"checking.sol\":11123:11137  address upline */\n      dup1\n        /* \"checking.sol\":11140:11145  users */\n      0x00\n        /* \"checking.sol\":11140:11152  users[_user] */\n      dup1\n        /* \"checking.sol\":11146:11151  _user */\n      dup5\n        /* \"checking.sol\":11140:11152  users[_user] */\n      0xffffffffffffffffffffffffffffffffffffffff\n      and\n      0xffffffffffffffffffffffffffffffffffffffff\n      and\n      dup2\n      mstore\n      0x20\n      add\n      swap1\n      dup2\n      mstore\n      0x20\n      add\n      0x00\n      keccak256\n        /* \"checking.sol\":11140:11159  users[_user].upline */\n      0x00\n      add\n      0x00\n      swap1\n      sload\n      swap1\n      0x0100\n      exp\n      swap1\n      div\n      0xffffffffffffffffffffffffffffffffffffffff\n      and\n        /* \"checking.sol\":11123:11159  address upline = users[_user].upline */\n      swap1\n      pop\n        /* \"checking.sol\":11234:11235  0 */\n      0x00\n        /* \"checking.sol\":11216:11236  upline == address(0) */\n      0xffffffffffffffffffffffffffffffffffffffff\n      and\n        /* \"checking.sol\":11216:11222  upline */\n      dup2\n        /* \"checking.sol\":11216:11236  upline == address(0) */\n      0xffffffffffffffffffffffffffffffffffffffff\n      and\n      sub\n        /* \"checking.sol\":11212:11288  if (upline == address(0)) {... */\n      tag_231\n      jumpi\n        /* \"checking.sol\":11256:11257  0 */\n      0x00\n        /* \"checking.sol\":11249:11257  return 0 */\n      swap2\n      pop\n      pop\n      jump(tag_230)\n        /* \"checking.sol\":11212:11288  if (upline == address(0)) {... */\n    tag_231:\n        /* \"checking.sol\":11350:11355  users */\n      0x00\n        /* \"checking.sol\":11350:11363  users[upline] */\n      dup1\n        /* \"checking.sol\":11356:11362  upline */\n      dup3\n        /* \"checking.sol\":11350:11363  users[upline] */\n      0xffffffffffffffffffffffffffffffffffffffff\n      and\n      0xffffffffffffffffffffffffffffffffffffffff\n      and\n      dup2\n      mstore\n      0x20\n      add\n      swap1\n      dup2\n      mstore\n      0x20\n      add\n      0x00\n      keccak256\n        /* \"checking.sol\":11350:11376  users[upline].partnerLevel */\n      0x05\n      add\n      0x00\n      swap1\n      sload\n      swap1\n      0x0100\n      exp\n      swap1\n      div\n      0xff\n      and\n        /* \"checking.sol\":11343:11376  return users[upline].partnerLevel */\n      swap2\n      pop\n      pop\n        /* \"checking.sol\":11042:11380  function getCurrentUplineLevel(address _user) public view returns (uint8) {... */\n    tag_230:\n      swap2\n      swap1\n      pop\n      jump\t// out\n        /* \"checking.sol\":8363:9478  function payUpline(address _user) public payable returns (uint256) {... */\n    tag_93:\n        /* \"checking.sol\":8421:8428  uint256 */\n      0x00\n        /* \"checking.sol\":8441:8459  address uplineUser */\n      dup1\n        /* \"checking.sol\":8462:8467  users */\n      0x00\n        /* \"checking.sol\":8462:8474  users[_user] */\n      dup1\n        /* \"checking.sol\":8468:8473  _user */\n      dup5\n        /* \"checking.sol\":8462:8474  users[_user] */\n      0xffffffffffffffffffffffffffffffffffffffff\n      and\n      0xffffffffffffffffffffffffffffffffffffffff\n      and\n      dup2\n      mstore\n      0x20\n      add\n      swap1\n      dup2\n      mstore\n      0x20\n      add\n      0x00\n      keccak256\n        /* \"checking.sol\":8462:8481  users[_user].upline */\n      0x00\n      add\n      0x00\n      swap1\n      sload\n      swap1\n      0x0100\n      exp\n      swap1\n      div\n      0xffffffffffffffffffffffffffffffffffffffff\n      and\n        /* \"checking.sol\":8441:8481  address uplineUser = users[_user].upline */\n      swap1\n      pop\n        /* \"checking.sol\":8520:8521  0 */\n      0x00\n        /* \"checking.sol\":8498:8522  uplineUser == address(0) */\n      0xffffffffffffffffffffffffffffffffffffffff\n      and\n        /* \"checking.sol\":8498:8508  uplineUser */\n      dup2\n        /* \"checking.sol\":8498:8522  uplineUser == address(0) */\n      0xffffffffffffffffffffffffffffffffffffffff\n      and\n      sub\n        /* \"checking.sol\":8494:8559  if (uplineUser == address(0)) {... */\n      tag_233\n      jumpi\n        /* \"checking.sol\":8546:8547  0 */\n      0x00\n        /* \"checking.sol\":8539:8547  return 0 */\n      swap2\n      pop\n      pop\n      jump(tag_232)\n        /* \"checking.sol\":8494:8559  if (uplineUser == address(0)) {... */\n    tag_233:\n        /* \"checking.sol\":8610:8611  2 */\n      0x02\n        /* \"checking.sol\":8575:8580  users */\n      0x00\n        /* \"checking.sol\":8575:8592  users[uplineUser] */\n      dup1\n        /* \"checking.sol\":8581:8591  uplineUser */\n      dup4\n        /* \"checking.sol\":8575:8592  users[uplineUser] */\n      0xffffffffffffffffffffffffffffffffffffffff\n      and\n      0xffffffffffffffffffffffffffffffffffffffff\n      and\n      dup2\n      mstore\n      0x20\n      add\n      swap1\n      dup2\n      mstore\n      0x20\n      add\n      0x00\n      keccak256\n        /* \"checking.sol\":8575:8606  users[uplineUser].referralCount */\n      0x02\n      add\n      sload\n        /* \"checking.sol\":8575:8611  users[uplineUser].referralCount >= 2 */\n      lt\n        /* \"checking.sol\":8571:9471  if (users[uplineUser].referralCount >= 2) {... */\n      tag_234\n      jumpi\n        /* \"checking.sol\":8628:8639  uint8 level */\n      0x00\n        /* \"checking.sol\":8642:8647  users */\n      dup1\n        /* \"checking.sol\":8642:8659  users[uplineUser] */\n      0x00\n        /* \"checking.sol\":8648:8658  uplineUser */\n      dup4\n        /* \"checking.sol\":8642:8659  users[uplineUser] */\n      0xffffffffffffffffffffffffffffffffffffffff\n      and\n      0xffffffffffffffffffffffffffffffffffffffff\n      and\n      dup2\n      mstore\n      0x20\n      add\n      swap1\n      dup2\n      mstore\n      0x20\n      add\n      0x00\n      keccak256\n        /* \"checking.sol\":8642:8672  users[uplineUser].partnerLevel */\n      0x05\n      add\n      0x00\n      swap1\n      sload\n      swap1\n      0x0100\n      exp\n      swap1\n      div\n      0xff\n      and\n        /* \"checking.sol\":8628:8672  uint8 level = users[uplineUser].partnerLevel */\n      swap1\n      pop\n        /* \"checking.sol\":8687:8701  uint256 reward */\n      0x00\n        /* \"checking.sol\":8704:8714  levelPrice */\n      0x02\n        /* \"checking.sol\":8704:8721  levelPrice[level] */\n      0x00\n        /* \"checking.sol\":8715:8720  level */\n      dup4\n        /* \"checking.sol\":8704:8721  levelPrice[level] */\n      0xff\n      and\n      0xff\n      and\n      dup2\n      mstore\n      0x20\n      add\n      swap1\n      dup2\n      mstore\n      0x20\n      add\n      0x00\n      keccak256\n      sload\n        /* \"checking.sol\":8687:8721  uint256 reward = levelPrice[level] */\n      swap1\n      pop\n        /* \"checking.sol\":8826:8856  rewardUser(uplineUser, reward) */\n      tag_235\n        /* \"checking.sol\":8837:8847  uplineUser */\n      dup4\n        /* \"checking.sol\":8849:8855  reward */\n      dup3\n        /* \"checking.sol\":8826:8836  rewardUser */\n      tag_236\n        /* \"checking.sol\":8826:8856  rewardUser(uplineUser, reward) */\n      jump\t// in\n    tag_235:\n        /* \"checking.sol\":8873:8878  users */\n      0x00\n        /* \"checking.sol\":8873:8890  users[uplineUser] */\n      dup1\n        /* \"checking.sol\":8879:8889  uplineUser */\n      dup5\n        /* \"checking.sol\":8873:8890  users[uplineUser] */\n      0xffffffffffffffffffffffffffffffffffffffff\n      and\n      0xffffffffffffffffffffffffffffffffffffffff\n      and\n      dup2\n      mstore\n      0x20\n      add\n      swap1\n      dup2\n      mstore\n      0x20\n      add\n      0x00\n      keccak256\n        /* \"checking.sol\":8873:8901  users[uplineUser].cycleCount */\n      0x03\n      add\n      0x00\n        /* \"checking.sol\":8873:8903  users[uplineUser].cycleCount++ */\n      dup2\n      sload\n      dup1\n      swap3\n      swap2\n      swap1\n      tag_237\n      swap1\n      tag_140\n      jump\t// in\n    tag_237:\n      swap2\n      swap1\n      pop\n      sstore\n      pop\n        /* \"checking.sol\":8932:8942  uplineUser */\n      dup3\n        /* \"checking.sol\":8923:8973  NewCycle(uplineUser, users[uplineUser].cycleCount) */\n      0xffffffffffffffffffffffffffffffffffffffff\n      and\n      0x18c00b25130b4512b396a52c89756cb9a1177c6002fe34cbc071f88cf90812a1\n        /* \"checking.sol\":8944:8949  users */\n      0x00\n        /* \"checking.sol\":8944:8961  users[uplineUser] */\n      dup1\n        /* \"checking.sol\":8950:8960  uplineUser */\n      dup7\n        /* \"checking.sol\":8944:8961  users[uplineUser] */\n      0xffffffffffffffffffffffffffffffffffffffff\n      and\n      0xffffffffffffffffffffffffffffffffffffffff\n      and\n      dup2\n      mstore\n      0x20\n      add\n      swap1\n      dup2\n      mstore\n      0x20\n      add\n      0x00\n      keccak256\n        /* \"checking.sol\":8944:8972  users[uplineUser].cycleCount */\n      0x03\n      add\n      sload\n        /* \"checking.sol\":8923:8973  NewCycle(uplineUser, users[uplineUser].cycleCount) */\n      mload(0x40)\n      tag_238\n      swap2\n      swap1\n      tag_51\n      jump\t// in\n    tag_238:\n      mload(0x40)\n      dup1\n      swap2\n      sub\n      swap1\n      log2\n        /* \"checking.sol\":9022:9023  0 */\n      0x00\n        /* \"checking.sol\":8988:8993  users */\n      dup1\n        /* \"checking.sol\":8988:9005  users[uplineUser] */\n      0x00\n        /* \"checking.sol\":8994:9004  uplineUser */\n      dup6\n        /* \"checking.sol\":8988:9005  users[uplineUser] */\n      0xffffffffffffffffffffffffffffffffffffffff\n      and\n      0xffffffffffffffffffffffffffffffffffffffff\n      and\n      dup2\n      mstore\n      0x20\n      add\n      swap1\n      dup2\n      mstore\n      0x20\n      add\n      0x00\n      keccak256\n        /* \"checking.sol\":8988:9019  users[uplineUser].referralCount */\n      0x02\n      add\n        /* \"checking.sol\":8988:9023  users[uplineUser].referralCount = 0 */\n      dup2\n      swap1\n      sstore\n      pop\n        /* \"checking.sol\":8613:9035  {... */\n      pop\n      pop\n        /* \"checking.sol\":8571:9471  if (users[uplineUser].referralCount >= 2) {... */\n      jump(tag_239)\n    tag_234:\n        /* \"checking.sol\":9070:9075  users */\n      0x00\n        /* \"checking.sol\":9070:9087  users[uplineUser] */\n      dup1\n        /* \"checking.sol\":9076:9086  uplineUser */\n      dup3\n        /* \"checking.sol\":9070:9087  users[uplineUser] */\n      0xffffffffffffffffffffffffffffffffffffffff\n      and\n      0xffffffffffffffffffffffffffffffffffffffff\n      and\n      dup2\n      mstore\n      0x20\n      add\n      swap1\n      dup2\n      mstore\n      0x20\n      add\n      0x00\n      keccak256\n        /* \"checking.sol\":9070:9101  users[uplineUser].referralCount */\n      0x02\n      add\n      0x00\n        /* \"checking.sol\":9070:9103  users[uplineUser].referralCount++ */\n      dup2\n      sload\n      dup1\n      swap3\n      swap2\n      swap1\n      tag_240\n      swap1\n      tag_140\n      jump\t// in\n    tag_240:\n      swap2\n      swap1\n      pop\n      sstore\n      pop\n        /* \"checking.sol\":8571:9471  if (users[uplineUser].referralCount >= 2) {... */\n    tag_239:\n        /* \"checking.sol\":8430:9478  {... */\n      pop\n        /* \"checking.sol\":8363:9478  function payUpline(address _user) public payable returns (uint256) {... */\n    tag_232:\n      swap2\n      swap1\n      pop\n      jump\t// out\n        /* \"checking.sol\":707:749  uint256 public constant BASIC_PRICE = 5e18 */\n    tag_97:\n        /* \"checking.sol\":745:749  5e18 */\n      0x4563918244f40000\n        /* \"checking.sol\":707:749  uint256 public constant BASIC_PRICE = 5e18 */\n      dup2\n      jump\t// out\n        /* \"checking.sol\":478:515  mapping(address => User) public users */\n    tag_102:\n      mstore(0x20, 0x00)\n      dup1\n      0x00\n      mstore\n      keccak256(0x00, 0x40)\n      0x00\n      swap2\n      pop\n      swap1\n      pop\n      dup1\n      0x00\n      add\n      0x00\n      swap1\n      sload\n      swap1\n      0x0100\n      exp\n      swap1\n      div\n      0xffffffffffffffffffffffffffffffffffffffff\n      and\n      swap1\n      dup1\n      0x01\n      add\n      sload\n      swap1\n      dup1\n      0x02\n      add\n      sload\n      swap1\n      dup1\n      0x03\n      add\n      sload\n      swap1\n      dup1\n      0x04\n      add\n      sload\n      swap1\n      dup1\n      0x05\n      add\n      0x00\n      swap1\n      sload\n      swap1\n      0x0100\n      exp\n      swap1\n      div\n      0xff\n      and\n      swap1\n      dup1\n      0x07\n      add\n      dup1\n      sload\n      tag_241\n      swap1\n      tag_174\n      jump\t// in\n    tag_241:\n      dup1\n      0x1f\n      add\n      0x20\n      dup1\n      swap2\n      div\n      mul\n      0x20\n      add\n      mload(0x40)\n      swap1\n      dup2\n      add\n      0x40\n      mstore\n      dup1\n      swap3\n      swap2\n      swap1\n      dup2\n      dup2\n      mstore\n      0x20\n      add\n      dup3\n      dup1\n      sload\n      tag_242\n      swap1\n      tag_174\n      jump\t// in\n    tag_242:\n      dup1\n      iszero\n      tag_243\n      jumpi\n      dup1\n      0x1f\n      lt\n      tag_244\n      jumpi\n      0x0100\n      dup1\n      dup4\n      sload\n      div\n      mul\n      dup4\n      mstore\n      swap2\n      0x20\n      add\n      swap2\n      jump(tag_243)\n    tag_244:\n      dup3\n      add\n      swap2\n      swap1\n      0x00\n      mstore\n      keccak256(0x00, 0x20)\n      swap1\n    tag_245:\n      dup2\n      sload\n      dup2\n      mstore\n      swap1\n      0x01\n      add\n      swap1\n      0x20\n      add\n      dup1\n      dup4\n      gt\n      tag_245\n      jumpi\n      dup3\n      swap1\n      sub\n      0x1f\n      and\n      dup3\n      add\n      swap2\n    tag_243:\n      pop\n      pop\n      pop\n      pop\n      pop\n      swap1\n      dup1\n      0x08\n      add\n      dup1\n      sload\n      tag_246\n      swap1\n      tag_174\n      jump\t// in\n    tag_246:\n      dup1\n      0x1f\n      add\n      0x20\n      dup1\n      swap2\n      div\n      mul\n      0x20\n      add\n      mload(0x40)\n      swap1\n      dup2\n      add\n      0x40\n      mstore\n      dup1\n      swap3\n      swap2\n      swap1\n      dup2\n      dup2\n      mstore\n      0x20\n      add\n      dup3\n      dup1\n      sload\n      tag_247\n      swap1\n      tag_174\n      jump\t// in\n    tag_247:\n      dup1\n      iszero\n      tag_248\n      jumpi\n      dup1\n      0x1f\n      lt\n      tag_249\n      jumpi\n      0x0100\n      dup1\n      dup4\n      sload\n      div\n      mul\n      dup4\n      mstore\n      swap2\n      0x20\n      add\n      swap2\n      jump(tag_248)\n    tag_249:\n      dup3\n      add\n      swap2\n      swap1\n      0x00\n      mstore\n      keccak256(0x00, 0x20)\n      swap1\n    tag_250:\n      dup2\n      sload\n      dup2\n      mstore\n      swap1\n      0x01\n      add\n      swap1\n      0x20\n      add\n      dup1\n      dup4\n      gt\n      tag_250\n      jumpi\n      dup3\n      swap1\n      sub\n      0x1f\n      and\n      dup3\n      add\n      swap2\n    tag_248:\n      pop\n      pop\n      pop\n      pop\n      pop\n      swap1\n      dup1\n      0x09\n      add\n      dup1\n      sload\n      tag_251\n      swap1\n      tag_174\n      jump\t// in\n    tag_251:\n      dup1\n      0x1f\n      add\n      0x20\n      dup1\n      swap2\n      div\n      mul\n      0x20\n      add\n      mload(0x40)\n      swap1\n      dup2\n      add\n      0x40\n      mstore\n      dup1\n      swap3\n      swap2\n      swap1\n      dup2\n      dup2\n      mstore\n      0x20\n      add\n      dup3\n      dup1\n      sload\n      tag_252\n      swap1\n      tag_174\n      jump\t// in\n    tag_252:\n      dup1\n      iszero\n      tag_253\n      jumpi\n      dup1\n      0x1f\n      lt\n      tag_254\n      jumpi\n      0x0100\n      dup1\n      dup4\n      sload\n      div\n      mul\n      dup4\n      mstore\n      swap2\n      0x20\n      add\n      swap2\n      jump(tag_253)\n    tag_254:\n      dup3\n      add\n      swap2\n      swap1\n      0x00\n      mstore\n      keccak256(0x00, 0x20)\n      swap1\n    tag_255:\n      dup2\n      sload\n      dup2\n      mstore\n      swap1\n      0x01\n      add\n      swap1\n      0x20\n      add\n      dup1\n      dup4\n      gt\n      tag_255\n      jumpi\n      dup3\n      swap1\n      sub\n      0x1f\n      and\n      dup3\n      add\n      swap2\n    tag_253:\n      pop\n      pop\n      pop\n      pop\n      pop\n      swap1\n      dup1\n      0x0a\n      add\n      dup1\n      sload\n      tag_256\n      swap1\n      tag_174\n      jump\t// in\n    tag_256:\n      dup1\n      0x1f\n      add\n      0x20\n      dup1\n      swap2\n      div\n      mul\n      0x20\n      add\n      mload(0x40)\n      swap1\n      dup2\n      add\n      0x40\n      mstore\n      dup1\n      swap3\n      swap2\n      swap1\n      dup2\n      dup2\n      mstore\n      0x20\n      add\n      dup3\n      dup1\n      sload\n      tag_257\n      swap1\n      tag_174\n      jump\t// in\n    tag_257:\n      dup1\n      iszero\n      tag_258\n      jumpi\n      dup1\n      0x1f\n      lt\n      tag_259\n      jumpi\n      0x0100\n      dup1\n      dup4\n      sload\n      div\n      mul\n      dup4\n      mstore\n      swap2\n      0x20\n      add\n      swap2\n      jump(tag_258)\n    tag_259:\n      dup3\n      add\n      swap2\n      swap1\n      0x00\n      mstore\n      keccak256(0x00, 0x20)\n      swap1\n    tag_260:\n      dup2\n      sload\n      dup2\n      mstore\n      swap1\n      0x01\n      add\n      swap1\n      0x20\n      add\n      dup1\n      dup4\n      gt\n      tag_260\n      jumpi\n      dup3\n      swap1\n      sub\n      0x1f\n      and\n      dup3\n      add\n      swap2\n    tag_258:\n      pop\n      pop\n      pop\n      pop\n      pop\n      swap1\n      dup1\n      0x0b\n      add\n      sload\n      swap1\n      dup1\n      0x0c\n      add\n      0x00\n      swap1\n      sload\n      swap1\n      0x0100\n      exp\n      swap1\n      div\n      0xffffffffffffffffffffffffffffffffffffffff\n      and\n      swap1\n      pop\n      dup13\n      jump\t// out\n        /* \"checking.sol\":7507:7745  function generateReferralLink(address userAddress) public view returns (string memory) {... */\n    tag_108:\n        /* \"checking.sol\":7579:7592  string memory */\n      0x60\n        /* \"checking.sol\":7605:7616  uint userId */\n      0x00\n        /* \"checking.sol\":7619:7624  users */\n      dup1\n        /* \"checking.sol\":7619:7637  users[userAddress] */\n      0x00\n        /* \"checking.sol\":7625:7636  userAddress */\n      dup5\n        /* \"checking.sol\":7619:7637  users[userAddress] */\n      0xffffffffffffffffffffffffffffffffffffffff\n      and\n      0xffffffffffffffffffffffffffffffffffffffff\n      and\n      dup2\n      mstore\n      0x20\n      add\n      swap1\n      dup2\n      mstore\n      0x20\n      add\n      0x00\n      keccak256\n        /* \"checking.sol\":7619:7640  users[userAddress].id */\n      0x01\n      add\n      sload\n        /* \"checking.sol\":7605:7640  uint userId = users[userAddress].id */\n      swap1\n      pop\n        /* \"checking.sol\":7715:7735  uintToString(userId) */\n      tag_262\n        /* \"checking.sol\":7728:7734  userId */\n      dup2\n        /* \"checking.sol\":7715:7727  uintToString */\n      tag_263\n        /* \"checking.sol\":7715:7735  uintToString(userId) */\n      jump\t// in\n    tag_262:\n        /* \"checking.sol\":7665:7736  abi.encodePacked(\"https://example.com/referral/\", uintToString(userId)) */\n      add(0x20, mload(0x40))\n      tag_264\n      swap2\n      swap1\n      tag_265\n      jump\t// in\n    tag_264:\n      mload(0x40)\n      0x20\n      dup2\n      dup4\n      sub\n      sub\n      dup2\n      mstore\n      swap1\n      0x40\n      mstore\n        /* \"checking.sol\":7651:7737  return string(abi.encodePacked(\"https://example.com/referral/\", uintToString(userId))) */\n      swap2\n      pop\n      pop\n        /* \"checking.sol\":7507:7745  function generateReferralLink(address userAddress) public view returns (string memory) {... */\n      swap2\n      swap1\n      pop\n      jump\t// out\n        /* \"checking.sol\":10156:10338  function transactionHistory(address _user) public view returns (uint256, uint256) {... */\n    tag_114:\n        /* \"checking.sol\":10220:10227  uint256 */\n      0x00\n        /* \"checking.sol\":10229:10236  uint256 */\n      dup1\n        /* \"checking.sol\":10249:10265  User memory user */\n      0x00\n        /* \"checking.sol\":10268:10273  users */\n      dup1\n        /* \"checking.sol\":10268:10280  users[_user] */\n      0x00\n        /* \"checking.sol\":10274:10279  _user */\n      dup6\n        /* \"checking.sol\":10268:10280  users[_user] */\n      0xffffffffffffffffffffffffffffffffffffffff\n      and\n      0xffffffffffffffffffffffffffffffffffffffff\n      and\n      dup2\n      mstore\n      0x20\n      add\n      swap1\n      dup2\n      mstore\n      0x20\n      add\n      0x00\n      keccak256\n        /* \"checking.sol\":10249:10280  User memory user = users[_user] */\n      mload(0x40)\n      dup1\n      0x01a0\n      add\n      0x40\n      mstore\n      swap1\n      dup2\n      0x00\n      dup3\n      add\n      0x00\n      swap1\n      sload\n      swap1\n      0x0100\n      exp\n      swap1\n      div\n      0xffffffffffffffffffffffffffffffffffffffff\n      and\n      0xffffffffffffffffffffffffffffffffffffffff\n      and\n      0xffffffffffffffffffffffffffffffffffffffff\n      and\n      dup2\n      mstore\n      0x20\n      add\n      0x01\n      dup3\n      add\n      sload\n      dup2\n      mstore\n      0x20\n      add\n      0x02\n      dup3\n      add\n      sload\n      dup2\n      mstore\n      0x20\n      add\n      0x03\n      dup3\n      add\n      sload\n      dup2\n      mstore\n      0x20\n      add\n      0x04\n      dup3\n      add\n      sload\n      dup2\n      mstore\n      0x20\n      add\n      0x05\n      dup3\n      add\n      0x00\n      swap1\n      sload\n      swap1\n      0x0100\n      exp\n      swap1\n      div\n      0xff\n      and\n      0xff\n      and\n      0xff\n      and\n      dup2\n      mstore\n      0x20\n      add\n      0x06\n      dup3\n      add\n      dup1\n      sload\n      dup1\n      0x20\n      mul\n      0x20\n      add\n      mload(0x40)\n      swap1\n      dup2\n      add\n      0x40\n      mstore\n      dup1\n      swap3\n      swap2\n      swap1\n      dup2\n      dup2\n      mstore\n      0x20\n      add\n      dup3\n      dup1\n      sload\n      dup1\n      iszero\n      tag_267\n      jumpi\n      0x20\n      mul\n      dup3\n      add\n      swap2\n      swap1\n      0x00\n      mstore\n      keccak256(0x00, 0x20)\n      swap1\n    tag_268:\n      dup2\n      0x00\n      swap1\n      sload\n      swap1\n      0x0100\n      exp\n      swap1\n      div\n      0xffffffffffffffffffffffffffffffffffffffff\n      and\n      0xffffffffffffffffffffffffffffffffffffffff\n      and\n      dup2\n      mstore\n      0x20\n      add\n      swap1\n      0x01\n      add\n      swap1\n      dup1\n      dup4\n      gt\n      tag_268\n      jumpi\n    tag_267:\n      pop\n      pop\n      pop\n      pop\n      pop\n      dup2\n      mstore\n      0x20\n      add\n      0x07\n      dup3\n      add\n      dup1\n      sload\n      tag_269\n      swap1\n      tag_174\n      jump\t// in\n    tag_269:\n      dup1\n      0x1f\n      add\n      0x20\n      dup1\n      swap2\n      div\n      mul\n      0x20\n      add\n      mload(0x40)\n      swap1\n      dup2\n      add\n      0x40\n      mstore\n      dup1\n      swap3\n      swap2\n      swap1\n      dup2\n      dup2\n      mstore\n      0x20\n      add\n      dup3\n      dup1\n      sload\n      tag_270\n      swap1\n      tag_174\n      jump\t// in\n    tag_270:\n      dup1\n      iszero\n      tag_271\n      jumpi\n      dup1\n      0x1f\n      lt\n      tag_272\n      jumpi\n      0x0100\n      dup1\n      dup4\n      sload\n      div\n      mul\n      dup4\n      mstore\n      swap2\n      0x20\n      add\n      swap2\n      jump(tag_271)\n    tag_272:\n      dup3\n      add\n      swap2\n      swap1\n      0x00\n      mstore\n      keccak256(0x00, 0x20)\n      swap1\n    tag_273:\n      dup2\n      sload\n      dup2\n      mstore\n      swap1\n      0x01\n      add\n      swap1\n      0x20\n      add\n      dup1\n      dup4\n      gt\n      tag_273\n      jumpi\n      dup3\n      swap1\n      sub\n      0x1f\n      and\n      dup3\n      add\n      swap2\n    tag_271:\n      pop\n      pop\n      pop\n      pop\n      pop\n      dup2\n      mstore\n      0x20\n      add\n      0x08\n      dup3\n      add\n      dup1\n      sload\n      tag_274\n      swap1\n      tag_174\n      jump\t// in\n    tag_274:\n      dup1\n      0x1f\n      add\n      0x20\n      dup1\n      swap2\n      div\n      mul\n      0x20\n      add\n      mload(0x40)\n      swap1\n      dup2\n      add\n      0x40\n      mstore\n      dup1\n      swap3\n      swap2\n      swap1\n      dup2\n      dup2\n      mstore\n      0x20\n      add\n      dup3\n      dup1\n      sload\n      tag_275\n      swap1\n      tag_174\n      jump\t// in\n    tag_275:\n      dup1\n      iszero\n      tag_276\n      jumpi\n      dup1\n      0x1f\n      lt\n      tag_277\n      jumpi\n      0x0100\n      dup1\n      dup4\n      sload\n      div\n      mul\n      dup4\n      mstore\n      swap2\n      0x20\n      add\n      swap2\n      jump(tag_276)\n    tag_277:\n      dup3\n      add\n      swap2\n      swap1\n      0x00\n      mstore\n      keccak256(0x00, 0x20)\n      swap1\n    tag_278:\n      dup2\n      sload\n      dup2\n      mstore\n      swap1\n      0x01\n      add\n      swap1\n      0x20\n      add\n      dup1\n      dup4\n      gt\n      tag_278\n      jumpi\n      dup3\n      swap1\n      sub\n      0x1f\n      and\n      dup3\n      add\n      swap2\n    tag_276:\n      pop\n      pop\n      pop\n      pop\n      pop\n      dup2\n      mstore\n      0x20\n      add\n      0x09\n      dup3\n      add\n      dup1\n      sload\n      tag_279\n      swap1\n      tag_174\n      jump\t// in\n    tag_279:\n      dup1\n      0x1f\n      add\n      0x20\n      dup1\n      swap2\n      div\n      mul\n      0x20\n      add\n      mload(0x40)\n      swap1\n      dup2\n      add\n      0x40\n      mstore\n      dup1\n      swap3\n      swap2\n      swap1\n      dup2\n      dup2\n      mstore\n      0x20\n      add\n      dup3\n      dup1\n      sload\n      tag_280\n      swap1\n      tag_174\n      jump\t// in\n    tag_280:\n      dup1\n      iszero\n      tag_281\n      jumpi\n      dup1\n      0x1f\n      lt\n      tag_282\n      jumpi\n      0x0100\n      dup1\n      dup4\n      sload\n      div\n      mul\n      dup4\n      mstore\n      swap2\n      0x20\n      add\n      swap2\n      jump(tag_281)\n    tag_282:\n      dup3\n      add\n      swap2\n      swap1\n      0x00\n      mstore\n      keccak256(0x00, 0x20)\n      swap1\n    tag_283:\n      dup2\n      sload\n      dup2\n      mstore\n      swap1\n      0x01\n      add\n      swap1\n      0x20\n      add\n      dup1\n      dup4\n      gt\n      tag_283\n      jumpi\n      dup3\n      swap1\n      sub\n      0x1f\n      and\n      dup3\n      add\n      swap2\n    tag_281:\n      pop\n      pop\n      pop\n      pop\n      pop\n      dup2\n      mstore\n      0x20\n      add\n      0x0a\n      dup3\n      add\n      dup1\n      sload\n      tag_284\n      swap1\n      tag_174\n      jump\t// in\n    tag_284:\n      dup1\n      0x1f\n      add\n      0x20\n      dup1\n      swap2\n      div\n      mul\n      0x20\n      add\n      mload(0x40)\n      swap1\n      dup2\n      add\n      0x40\n      mstore\n      dup1\n      swap3\n      swap2\n      swap1\n      dup2\n      dup2\n      mstore\n      0x20\n      add\n      dup3\n      dup1\n      sload\n      tag_285\n      swap1\n      tag_174\n      jump\t// in\n    tag_285:\n      dup1\n      iszero\n      tag_286\n      jumpi\n      dup1\n      0x1f\n      lt\n      tag_287\n      jumpi\n      0x0100\n      dup1\n      dup4\n      sload\n      div\n      mul\n      dup4\n      mstore\n      swap2\n      0x20\n      add\n      swap2\n      jump(tag_286)\n    tag_287:\n      dup3\n      add\n      swap2\n      swap1\n      0x00\n      mstore\n      keccak256(0x00, 0x20)\n      swap1\n    tag_288:\n      dup2\n      sload\n      dup2\n      mstore\n      swap1\n      0x01\n      add\n      swap1\n      0x20\n      add\n      dup1\n      dup4\n      gt\n      tag_288\n      jumpi\n      dup3\n      swap1\n      sub\n      0x1f\n      and\n      dup3\n      add\n      swap2\n    tag_286:\n      pop\n      pop\n      pop\n      pop\n      pop\n      dup2\n      mstore\n      0x20\n      add\n      0x0b\n      dup3\n      add\n      sload\n      dup2\n      mstore\n      0x20\n      add\n      0x0c\n      dup3\n      add\n      0x00\n      swap1\n      sload\n      swap1\n      0x0100\n      exp\n      swap1\n      div\n      0xffffffffffffffffffffffffffffffffffffffff\n      and\n      0xffffffffffffffffffffffffffffffffffffffff\n      and\n      0xffffffffffffffffffffffffffffffffffffffff\n      and\n      dup2\n      mstore\n      pop\n      pop\n      swap1\n      pop\n        /* \"checking.sol\":10299:10303  user */\n      dup1\n        /* \"checking.sol\":10299:10314  user.cycleCount */\n      0x60\n      add\n      mload\n        /* \"checking.sol\":10316:10320  user */\n      dup2\n        /* \"checking.sol\":10316:10329  user.earnings */\n      0x80\n      add\n      mload\n        /* \"checking.sol\":10291:10330  return (user.cycleCount, user.earnings) */\n      swap3\n      pop\n      swap3\n      pop\n      pop\n        /* \"checking.sol\":10156:10338  function transactionHistory(address _user) public view returns (uint256, uint256) {... */\n      swap2\n      pop\n      swap2\n      jump\t// out\n        /* \"checking.sol\":575:618  mapping(uint8 => uint256) public levelPrice */\n    tag_120:\n      mstore(0x20, 0x02)\n      dup1\n      0x00\n      mstore\n      keccak256(0x00, 0x40)\n      0x00\n      swap2\n      pop\n      swap1\n      pop\n      sload\n      dup2\n      jump\t// out\n        /* \"checking.sol\":5022:5905  function handleReferral(address _user, address _upline) internal {... */\n    tag_164:\n        /* \"checking.sol\":5098:5116  address uplineUser */\n      0x00\n        /* \"checking.sol\":5119:5124  users */\n      dup1\n        /* \"checking.sol\":5119:5131  users[_user] */\n      0x00\n        /* \"checking.sol\":5125:5130  _user */\n      dup5\n        /* \"checking.sol\":5119:5131  users[_user] */\n      0xffffffffffffffffffffffffffffffffffffffff\n      and\n      0xffffffffffffffffffffffffffffffffffffffff\n      and\n      dup2\n      mstore\n      0x20\n      add\n      swap1\n      dup2\n      mstore\n      0x20\n      add\n      0x00\n      keccak256\n        /* \"checking.sol\":5119:5138  users[_user].upline */\n      0x00\n      add\n      0x00\n      swap1\n      sload\n      swap1\n      0x0100\n      exp\n      swap1\n      div\n      0xffffffffffffffffffffffffffffffffffffffff\n      and\n        /* \"checking.sol\":5098:5138  address uplineUser = users[_user].upline */\n      swap1\n      pop\n        /* \"checking.sol\":5184:5185  3 */\n      0x03\n        /* \"checking.sol\":5153:5158  users */\n      0x00\n        /* \"checking.sol\":5153:5167  users[_upline] */\n      dup1\n        /* \"checking.sol\":5159:5166  _upline */\n      dup5\n        /* \"checking.sol\":5153:5167  users[_upline] */\n      0xffffffffffffffffffffffffffffffffffffffff\n      and\n      0xffffffffffffffffffffffffffffffffffffffff\n      and\n      dup2\n      mstore\n      0x20\n      add\n      swap1\n      dup2\n      mstore\n      0x20\n      add\n      0x00\n      keccak256\n        /* \"checking.sol\":5153:5181  users[_upline].referralCount */\n      0x02\n      add\n      sload\n        /* \"checking.sol\":5153:5185  users[_upline].referralCount < 3 */\n      lt\n        /* \"checking.sol\":5149:5898  if (users[_upline].referralCount < 3) {... */\n      iszero\n      tag_290\n      jumpi\n        /* \"checking.sol\":5202:5213  uint8 level */\n      0x00\n        /* \"checking.sol\":5216:5221  users */\n      dup1\n        /* \"checking.sol\":5216:5233  users[uplineUser] */\n      0x00\n        /* \"checking.sol\":5222:5232  uplineUser */\n      dup4\n        /* \"checking.sol\":5216:5233  users[uplineUser] */\n      0xffffffffffffffffffffffffffffffffffffffff\n      and\n      0xffffffffffffffffffffffffffffffffffffffff\n      and\n      dup2\n      mstore\n      0x20\n      add\n      swap1\n      dup2\n      mstore\n      0x20\n      add\n      0x00\n      keccak256\n        /* \"checking.sol\":5216:5246  users[uplineUser].partnerLevel */\n      0x05\n      add\n      0x00\n      swap1\n      sload\n      swap1\n      0x0100\n      exp\n      swap1\n      div\n      0xff\n      and\n        /* \"checking.sol\":5202:5246  uint8 level = users[uplineUser].partnerLevel */\n      swap1\n      pop\n        /* \"checking.sol\":5339:5377  rewardUser(_upline, levelPrice[level]) */\n      tag_291\n        /* \"checking.sol\":5350:5357  _upline */\n      dup4\n        /* \"checking.sol\":5359:5369  levelPrice */\n      0x02\n        /* \"checking.sol\":5359:5376  levelPrice[level] */\n      0x00\n        /* \"checking.sol\":5370:5375  level */\n      dup5\n        /* \"checking.sol\":5359:5376  levelPrice[level] */\n      0xff\n      and\n      0xff\n      and\n      dup2\n      mstore\n      0x20\n      add\n      swap1\n      dup2\n      mstore\n      0x20\n      add\n      0x00\n      keccak256\n      sload\n        /* \"checking.sol\":5339:5349  rewardUser */\n      tag_236\n        /* \"checking.sol\":5339:5377  rewardUser(_upline, levelPrice[level]) */\n      jump\t// in\n    tag_291:\n        /* \"checking.sol\":5187:5389  {... */\n      pop\n        /* \"checking.sol\":5149:5898  if (users[_upline].referralCount < 3) {... */\n      jump(tag_292)\n    tag_290:\n        /* \"checking.sol\":5512:5534  address uplineOfUpline */\n      0x00\n        /* \"checking.sol\":5537:5542  users */\n      dup1\n        /* \"checking.sol\":5537:5551  users[_upline] */\n      0x00\n        /* \"checking.sol\":5543:5550  _upline */\n      dup5\n        /* \"checking.sol\":5537:5551  users[_upline] */\n      0xffffffffffffffffffffffffffffffffffffffff\n      and\n      0xffffffffffffffffffffffffffffffffffffffff\n      and\n      dup2\n      mstore\n      0x20\n      add\n      swap1\n      dup2\n      mstore\n      0x20\n      add\n      0x00\n      keccak256\n        /* \"checking.sol\":5537:5558  users[_upline].upline */\n      0x00\n      add\n      0x00\n      swap1\n      sload\n      swap1\n      0x0100\n      exp\n      swap1\n      div\n      0xffffffffffffffffffffffffffffffffffffffff\n      and\n        /* \"checking.sol\":5512:5558  address uplineOfUpline = users[_upline].upline */\n      swap1\n      pop\n        /* \"checking.sol\":5603:5604  0 */\n      0x00\n        /* \"checking.sol\":5577:5605  uplineOfUpline != address(0) */\n      0xffffffffffffffffffffffffffffffffffffffff\n      and\n        /* \"checking.sol\":5577:5591  uplineOfUpline */\n      dup2\n        /* \"checking.sol\":5577:5605  uplineOfUpline != address(0) */\n      0xffffffffffffffffffffffffffffffffffffffff\n      and\n      eq\n        /* \"checking.sol\":5573:5797  if (uplineOfUpline != address(0)) {... */\n      tag_293\n      jumpi\n        /* \"checking.sol\":5626:5667  rewardUser(uplineOfUpline, levelPrice[1]) */\n      tag_294\n        /* \"checking.sol\":5637:5651  uplineOfUpline */\n      dup2\n        /* \"checking.sol\":5653:5663  levelPrice */\n      0x02\n        /* \"checking.sol\":5653:5666  levelPrice[1] */\n      0x00\n        /* \"checking.sol\":5664:5665  1 */\n      0x01\n        /* \"checking.sol\":5653:5666  levelPrice[1] */\n      0xff\n      and\n      dup2\n      mstore\n      0x20\n      add\n      swap1\n      dup2\n      mstore\n      0x20\n      add\n      0x00\n      keccak256\n      sload\n        /* \"checking.sol\":5626:5636  rewardUser */\n      tag_236\n        /* \"checking.sol\":5626:5667  rewardUser(uplineOfUpline, levelPrice[1]) */\n      jump\t// in\n    tag_294:\n        /* \"checking.sol\":5686:5691  users */\n      0x00\n        /* \"checking.sol\":5686:5700  users[_upline] */\n      dup1\n        /* \"checking.sol\":5692:5699  _upline */\n      dup5\n        /* \"checking.sol\":5686:5700  users[_upline] */\n      0xffffffffffffffffffffffffffffffffffffffff\n      and\n      0xffffffffffffffffffffffffffffffffffffffff\n      and\n      dup2\n      mstore\n      0x20\n      add\n      swap1\n      dup2\n      mstore\n      0x20\n      add\n      0x00\n      keccak256\n        /* \"checking.sol\":5686:5711  users[_upline].cycleCount */\n      0x03\n      add\n      0x00\n        /* \"checking.sol\":5686:5713  users[_upline].cycleCount++ */\n      dup2\n      sload\n      dup1\n      swap3\n      swap2\n      swap1\n      tag_295\n      swap1\n      tag_140\n      jump\t// in\n    tag_295:\n      swap2\n      swap1\n      pop\n      sstore\n      pop\n        /* \"checking.sol\":5746:5753  _upline */\n      dup3\n        /* \"checking.sol\":5737:5781  NewCycle(_upline, users[_upline].cycleCount) */\n      0xffffffffffffffffffffffffffffffffffffffff\n      and\n      0x18c00b25130b4512b396a52c89756cb9a1177c6002fe34cbc071f88cf90812a1\n        /* \"checking.sol\":5755:5760  users */\n      0x00\n        /* \"checking.sol\":5755:5769  users[_upline] */\n      dup1\n        /* \"checking.sol\":5761:5768  _upline */\n      dup7\n        /* \"checking.sol\":5755:5769  users[_upline] */\n      0xffffffffffffffffffffffffffffffffffffffff\n      and\n      0xffffffffffffffffffffffffffffffffffffffff\n      and\n      dup2\n      mstore\n      0x20\n      add\n      swap1\n      dup2\n      mstore\n      0x20\n      add\n      0x00\n      keccak256\n        /* \"checking.sol\":5755:5780  users[_upline].cycleCount */\n      0x03\n      add\n      sload\n        /* \"checking.sol\":5737:5781  NewCycle(_upline, users[_upline].cycleCount) */\n      mload(0x40)\n      tag_296\n      swap2\n      swap1\n      tag_51\n      jump\t// in\n    tag_296:\n      mload(0x40)\n      dup1\n      swap2\n      sub\n      swap1\n      log2\n        /* \"checking.sol\":5573:5797  if (uplineOfUpline != address(0)) {... */\n    tag_293:\n        /* \"checking.sol\":5885:5886  0 */\n      0x00\n        /* \"checking.sol\":5854:5859  users */\n      dup1\n        /* \"checking.sol\":5854:5868  users[_upline] */\n      0x00\n        /* \"checking.sol\":5860:5867  _upline */\n      dup6\n        /* \"checking.sol\":5854:5868  users[_upline] */\n      0xffffffffffffffffffffffffffffffffffffffff\n      and\n      0xffffffffffffffffffffffffffffffffffffffff\n      and\n      dup2\n      mstore\n      0x20\n      add\n      swap1\n      dup2\n      mstore\n      0x20\n      add\n      0x00\n      keccak256\n        /* \"checking.sol\":5854:5882  users[_upline].referralCount */\n      0x02\n      add\n        /* \"checking.sol\":5854:5886  users[_upline].referralCount = 0 */\n      dup2\n      swap1\n      sstore\n      pop\n        /* \"checking.sol\":5395:5898  {... */\n      pop\n        /* \"checking.sol\":5149:5898  if (users[_upline].referralCount < 3) {... */\n    tag_292:\n        /* \"checking.sol\":5087:5905  {... */\n      pop\n        /* \"checking.sol\":5022:5905  function handleReferral(address _user, address _upline) internal {... */\n      pop\n      pop\n      jump\t// out\n        /* \"checking.sol\":10792:11038  function _getTotalReferralCount(address _upline) internal view returns (uint256) {... */\n    tag_169:\n        /* \"checking.sol\":10864:10871  uint256 */\n      0x00\n        /* \"checking.sol\":10880:10898  uint256 totalCount */\n      dup1\n        /* \"checking.sol\":10901:10906  users */\n      0x00\n        /* \"checking.sol\":10901:10915  users[_upline] */\n      dup1\n        /* \"checking.sol\":10907:10914  _upline */\n      dup5\n        /* \"checking.sol\":10901:10915  users[_upline] */\n      0xffffffffffffffffffffffffffffffffffffffff\n      and\n      0xffffffffffffffffffffffffffffffffffffffff\n      and\n      dup2\n      mstore\n      0x20\n      add\n      swap1\n      dup2\n      mstore\n      0x20\n      add\n      0x00\n      keccak256\n        /* \"checking.sol\":10901:10929  users[_upline].referralCount */\n      0x02\n      add\n      sload\n        /* \"checking.sol\":10880:10929  uint256 totalCount = users[_upline].referralCount */\n      swap1\n      pop\n        /* \"checking.sol\":11024:11034  totalCount */\n      dup1\n        /* \"checking.sol\":11017:11034  return totalCount */\n      swap2\n      pop\n      pop\n        /* \"checking.sol\":10792:11038  function _getTotalReferralCount(address _upline) internal view returns (uint256) {... */\n      swap2\n      swap1\n      pop\n      jump\t// out\n        /* \"checking.sol\":5913:6268  function rewardUser(address _user, uint256 _amount) internal {... */\n    tag_236:\n        /* \"checking.sol\":6010:6017  _amount */\n      dup1\n        /* \"checking.sol\":5985:5990  users */\n      0x00\n        /* \"checking.sol\":5985:5997  users[_user] */\n      dup1\n        /* \"checking.sol\":5991:5996  _user */\n      dup5\n        /* \"checking.sol\":5985:5997  users[_user] */\n      0xffffffffffffffffffffffffffffffffffffffff\n      and\n      0xffffffffffffffffffffffffffffffffffffffff\n      and\n      dup2\n      mstore\n      0x20\n      add\n      swap1\n      dup2\n      mstore\n      0x20\n      add\n      0x00\n      keccak256\n        /* \"checking.sol\":5985:6006  users[_user].earnings */\n      0x04\n      add\n      0x00\n        /* \"checking.sol\":5985:6017  users[_user].earnings += _amount */\n      dup3\n      dup3\n      sload\n      tag_299\n      swap2\n      swap1\n      tag_222\n      jump\t// in\n    tag_299:\n      swap3\n      pop\n      pop\n      dup2\n      swap1\n      sstore\n      pop\n        /* \"checking.sol\":6070:6082  bool success */\n      0x00\n        /* \"checking.sol\":6096:6101  _user */\n      dup3\n        /* \"checking.sol\":6088:6107  payable(_user).call */\n      0xffffffffffffffffffffffffffffffffffffffff\n      and\n        /* \"checking.sol\":6115:6122  _amount */\n      dup3\n        /* \"checking.sol\":6088:6127  payable(_user).call{value: _amount}(\"\") */\n      mload(0x40)\n      tag_300\n      swap1\n      tag_214\n      jump\t// in\n    tag_300:\n      0x00\n      mload(0x40)\n      dup1\n      dup4\n      sub\n      dup2\n      dup6\n      dup8\n      gas\n      call\n      swap3\n      pop\n      pop\n      pop\n      returndatasize\n      dup1\n      0x00\n      dup2\n      eq\n      tag_303\n      jumpi\n      mload(0x40)\n      swap2\n      pop\n      and(add(returndatasize, 0x3f), not(0x1f))\n      dup3\n      add\n      0x40\n      mstore\n      returndatasize\n      dup3\n      mstore\n      returndatasize\n      0x00\n      0x20\n      dup5\n      add\n      returndatacopy\n      jump(tag_302)\n    tag_303:\n      0x60\n      swap2\n      pop\n    tag_302:\n      pop\n        /* \"checking.sol\":6069:6127  (bool success, ) = payable(_user).call{value: _amount}(\"\") */\n      pop\n      swap1\n      pop\n        /* \"checking.sol\":6245:6250  _user */\n      dup3\n        /* \"checking.sol\":6236:6260  Earnings(_user, _amount) */\n      0xffffffffffffffffffffffffffffffffffffffff\n      and\n      0x92d81ab7e787d9a43bbb8f8ca7f0b2708da03b86d5aea53d5d20656ff8dad1ee\n        /* \"checking.sol\":6252:6259  _amount */\n      dup4\n        /* \"checking.sol\":6236:6260  Earnings(_user, _amount) */\n      mload(0x40)\n      tag_304\n      swap2\n      swap1\n      tag_51\n      jump\t// in\n    tag_304:\n      mload(0x40)\n      dup1\n      swap2\n      sub\n      swap1\n      log2\n        /* \"checking.sol\":5974:6268  {... */\n      pop\n        /* \"checking.sol\":5913:6268  function rewardUser(address _user, uint256 _amount) internal {... */\n      pop\n      pop\n      jump\t// out\n        /* \"checking.sol\":7753:8353  function uintToString(uint v) private pure returns (string memory str) {... */\n    tag_263:\n        /* \"checking.sol\":7805:7822  string memory str */\n      0x60\n        /* \"checking.sol\":7844:7845  0 */\n      0x00\n        /* \"checking.sol\":7839:7840  v */\n      dup3\n        /* \"checking.sol\":7839:7845  v == 0 */\n      sub\n        /* \"checking.sol\":7835:7884  if (v == 0) {... */\n      tag_306\n      jumpi\n        /* \"checking.sol\":7862:7872  return \"0\" */\n      mload(0x40)\n      dup1\n      0x40\n      add\n      0x40\n      mstore\n      dup1\n      0x01\n      dup2\n      mstore\n      0x20\n      add\n      0x3000000000000000000000000000000000000000000000000000000000000000\n      dup2\n      mstore\n      pop\n      swap1\n      pop\n      jump(tag_305)\n        /* \"checking.sol\":7835:7884  if (v == 0) {... */\n    tag_306:\n        /* \"checking.sol\":7894:7905  uint maxLen */\n      0x00\n        /* \"checking.sol\":7908:7910  78 */\n      0x4e\n        /* \"checking.sol\":7894:7910  uint maxLen = 78 */\n      swap1\n      pop\n        /* \"checking.sol\":7965:7986  bytes memory reversed */\n      0x00\n        /* \"checking.sol\":7999:8005  maxLen */\n      dup2\n        /* \"checking.sol\":7989:8006  new bytes(maxLen) */\n      0xffffffffffffffff\n      dup2\n      gt\n      iszero\n      tag_307\n      jumpi\n      tag_308\n      tag_130\n      jump\t// in\n    tag_308:\n    tag_307:\n      mload(0x40)\n      swap1\n      dup1\n      dup3\n      mstore\n      dup1\n      0x1f\n      add\n      not(0x1f)\n      and\n      0x20\n      add\n      dup3\n      add\n      0x40\n      mstore\n      dup1\n      iszero\n      tag_309\n      jumpi\n      dup2\n      0x20\n      add\n      0x01\n      dup3\n      mul\n      dup1\n      calldatasize\n      dup4\n      calldatacopy\n      dup1\n      dup3\n      add\n      swap2\n      pop\n      pop\n      swap1\n      pop\n    tag_309:\n      pop\n        /* \"checking.sol\":7965:8006  bytes memory reversed = new bytes(maxLen) */\n      swap1\n      pop\n        /* \"checking.sol\":8017:8023  uint i */\n      0x00\n        /* \"checking.sol\":8038:8188  while (v != 0) {... */\n    tag_310:\n        /* \"checking.sol\":8050:8051  0 */\n      0x00\n        /* \"checking.sol\":8045:8046  v */\n      dup6\n        /* \"checking.sol\":8045:8051  v != 0 */\n      eq\n        /* \"checking.sol\":8038:8188  while (v != 0) {... */\n      tag_311\n      jumpi\n        /* \"checking.sol\":8068:8082  uint remainder */\n      0x00\n        /* \"checking.sol\":8089:8091  10 */\n      0x0a\n        /* \"checking.sol\":8085:8086  v */\n      dup7\n        /* \"checking.sol\":8085:8091  v % 10 */\n      tag_312\n      swap2\n      swap1\n      tag_313\n      jump\t// in\n    tag_312:\n        /* \"checking.sol\":8068:8091  uint remainder = v % 10 */\n      swap1\n      pop\n        /* \"checking.sol\":8114:8116  10 */\n      0x0a\n        /* \"checking.sol\":8110:8111  v */\n      dup7\n        /* \"checking.sol\":8110:8116  v / 10 */\n      tag_314\n      swap2\n      swap1\n      tag_209\n      jump\t// in\n    tag_314:\n        /* \"checking.sol\":8106:8116  v = v / 10 */\n      swap6\n      pop\n        /* \"checking.sol\":8165:8174  remainder */\n      dup1\n        /* \"checking.sol\":8160:8162  48 */\n      0x30\n        /* \"checking.sol\":8160:8174  48 + remainder */\n      tag_315\n      swap2\n      swap1\n      tag_222\n      jump\t// in\n    tag_315:\n        /* \"checking.sol\":8147:8176  bytes1(uint8(48 + remainder)) */\n      0xf8\n      shl\n        /* \"checking.sol\":8131:8139  reversed */\n      dup4\n        /* \"checking.sol\":8140:8143  i++ */\n      dup4\n      dup1\n      tag_316\n      swap1\n      tag_140\n      jump\t// in\n    tag_316:\n      swap5\n      pop\n        /* \"checking.sol\":8131:8144  reversed[i++] */\n      dup2\n      mload\n      dup2\n      lt\n      tag_317\n      jumpi\n      tag_318\n      tag_319\n      jump\t// in\n    tag_318:\n    tag_317:\n      0x20\n      add\n      add\n        /* \"checking.sol\":8131:8176  reversed[i++] = bytes1(uint8(48 + remainder)) */\n      swap1\n      not(0xffffffffffffffffffffffffffffffffffffffffffffffffffffffffffffff)\n      and\n      swap1\n      dup2\n      0x00\n      byte\n      swap1\n      mstore8\n      pop\n        /* \"checking.sol\":8053:8188  {... */\n      pop\n        /* \"checking.sol\":8038:8188  while (v != 0) {... */\n      jump(tag_310)\n    tag_311:\n        /* \"checking.sol\":8198:8212  bytes memory s */\n      0x00\n        /* \"checking.sol\":8225:8226  i */\n      dup2\n        /* \"checking.sol\":8215:8227  new bytes(i) */\n      0xffffffffffffffff\n      dup2\n      gt\n      iszero\n      tag_320\n      jumpi\n      tag_321\n      tag_130\n      jump\t// in\n    tag_321:\n    tag_320:\n      mload(0x40)\n      swap1\n      dup1\n      dup3\n      mstore\n      dup1\n      0x1f\n      add\n      not(0x1f)\n      and\n      0x20\n      add\n      dup3\n      add\n      0x40\n      mstore\n      dup1\n      iszero\n      tag_322\n      jumpi\n      dup2\n      0x20\n      add\n      0x01\n      dup3\n      mul\n      dup1\n      calldatasize\n      dup4\n      calldatacopy\n      dup1\n      dup3\n      add\n      swap2\n      pop\n      pop\n      swap1\n      pop\n    tag_322:\n      pop\n        /* \"checking.sol\":8198:8227  bytes memory s = new bytes(i) */\n      swap1\n      pop\n        /* \"checking.sol\":8243:8249  uint j */\n      0x00\n        /* \"checking.sol\":8238:8320  for (uint j = 0; j < i; j++) {... */\n    tag_323:\n        /* \"checking.sol\":8259:8260  i */\n      dup3\n        /* \"checking.sol\":8255:8256  j */\n      dup2\n        /* \"checking.sol\":8255:8260  j < i */\n      lt\n        /* \"checking.sol\":8238:8320  for (uint j = 0; j < i; j++) {... */\n      iszero\n      tag_324\n      jumpi\n        /* \"checking.sol\":8289:8297  reversed */\n      dup4\n        /* \"checking.sol\":8306:8307  1 */\n      0x01\n        /* \"checking.sol\":8302:8303  j */\n      dup3\n        /* \"checking.sol\":8298:8299  i */\n      dup6\n        /* \"checking.sol\":8298:8303  i - j */\n      tag_326\n      swap2\n      swap1\n      tag_211\n      jump\t// in\n    tag_326:\n        /* \"checking.sol\":8298:8307  i - j - 1 */\n      tag_327\n      swap2\n      swap1\n      tag_211\n      jump\t// in\n    tag_327:\n        /* \"checking.sol\":8289:8308  reversed[i - j - 1] */\n      dup2\n      mload\n      dup2\n      lt\n      tag_328\n      jumpi\n      tag_329\n      tag_319\n      jump\t// in\n    tag_329:\n    tag_328:\n      0x20\n      add\n      add\n      mload\n      0xf8\n      shr\n      0xf8\n      shl\n        /* \"checking.sol\":8282:8283  s */\n      dup3\n        /* \"checking.sol\":8284:8285  j */\n      dup3\n        /* \"checking.sol\":8282:8286  s[j] */\n      dup2\n      mload\n      dup2\n      lt\n      tag_330\n      jumpi\n      tag_331\n      tag_319\n      jump\t// in\n    tag_331:\n    tag_330:\n      0x20\n      add\n      add\n        /* \"checking.sol\":8282:8308  s[j] = reversed[i - j - 1] */\n      swap1\n      not(0xffffffffffffffffffffffffffffffffffffffffffffffffffffffffffffff)\n      and\n      swap1\n      dup2\n      0x00\n      byte\n      swap1\n      mstore8\n      pop\n        /* \"checking.sol\":8262:8265  j++ */\n      dup1\n      dup1\n      0x01\n      add\n      swap2\n      pop\n      pop\n        /* \"checking.sol\":8238:8320  for (uint j = 0; j < i; j++) {... */\n      jump(tag_323)\n    tag_324:\n      pop\n        /* \"checking.sol\":8343:8344  s */\n      dup1\n        /* \"checking.sol\":8330:8345  str = string(s) */\n      swap5\n      pop\n        /* \"checking.sol\":7824:8353  {... */\n      pop\n      pop\n      pop\n      pop\n        /* \"checking.sol\":7753:8353  function uintToString(uint v) private pure returns (string memory str) {... */\n    tag_305:\n      swap2\n      swap1\n      pop\n      jump\t// out\n    tag_133:\n      dup3\n      dup1\n      sload\n      dup3\n      dup3\n      sstore\n      swap1\n      0x00\n      mstore\n      keccak256(0x00, 0x20)\n      swap1\n      dup2\n      add\n      swap3\n      dup3\n      iszero\n      tag_332\n      jumpi\n      swap2\n      0x20\n      mul\n      dup3\n      add\n    tag_333:\n      dup3\n      dup2\n      gt\n      iszero\n      tag_334\n      jumpi\n      dup3\n      mload\n      dup3\n      exp(0x0100, 0x00)\n      dup2\n      sload\n      dup2\n      0xffffffffffffffffffffffffffffffffffffffff\n      mul\n      not\n      and\n      swap1\n      dup4\n      0xffffffffffffffffffffffffffffffffffffffff\n      and\n      mul\n      or\n      swap1\n      sstore\n      pop\n      swap2\n      0x20\n      add\n      swap2\n      swap1\n      0x01\n      add\n      swap1\n      jump(tag_333)\n    tag_334:\n    tag_332:\n      pop\n      swap1\n      pop\n      tag_335\n      swap2\n      swap1\n      tag_336\n      jump\t// in\n    tag_335:\n      pop\n      swap1\n      jump\t// out\n    tag_336:\n    tag_337:\n      dup1\n      dup3\n      gt\n      iszero\n      tag_338\n      jumpi\n      0x00\n      dup2\n      0x00\n      swap1\n      sstore\n      pop\n      0x01\n      add\n      jump(tag_337)\n    tag_338:\n      pop\n      swap1\n      jump\t// out\n        /* \"#utility.yul\":7:82   */\n    tag_339:\n        /* \"#utility.yul\":40:46   */\n      0x00\n        /* \"#utility.yul\":73:75   */\n      0x40\n        /* \"#utility.yul\":67:76   */\n      mload\n        /* \"#utility.yul\":57:76   */\n      swap1\n      pop\n        /* \"#utility.yul\":7:82   */\n      swap1\n      jump\t// out\n        /* \"#utility.yul\":88:205   */\n    tag_340:\n        /* \"#utility.yul\":197:198   */\n      0x00\n        /* \"#utility.yul\":194:195   */\n      dup1\n        /* \"#utility.yul\":187:199   */\n      revert\n        /* \"#utility.yul\":211:328   */\n    tag_341:\n        /* \"#utility.yul\":320:321   */\n      0x00\n        /* \"#utility.yul\":317:318   */\n      dup1\n        /* \"#utility.yul\":310:322   */\n      revert\n        /* \"#utility.yul\":334:460   */\n    tag_342:\n        /* \"#utility.yul\":371:378   */\n      0x00\n        /* \"#utility.yul\":411:453   */\n      0xffffffffffffffffffffffffffffffffffffffff\n        /* \"#utility.yul\":404:409   */\n      dup3\n        /* \"#utility.yul\":400:454   */\n      and\n        /* \"#utility.yul\":389:454   */\n      swap1\n      pop\n        /* \"#utility.yul\":334:460   */\n      swap2\n      swap1\n      pop\n      jump\t// out\n        /* \"#utility.yul\":466:562   */\n    tag_343:\n        /* \"#utility.yul\":503:510   */\n      0x00\n        /* \"#utility.yul\":532:556   */\n      tag_417\n        /* \"#utility.yul\":550:555   */\n      dup3\n        /* \"#utility.yul\":532:556   */\n      tag_342\n      jump\t// in\n    tag_417:\n        /* \"#utility.yul\":521:556   */\n      swap1\n      pop\n        /* \"#utility.yul\":466:562   */\n      swap2\n      swap1\n      pop\n      jump\t// out\n        /* \"#utility.yul\":568:690   */\n    tag_344:\n        /* \"#utility.yul\":641:665   */\n      tag_419\n        /* \"#utility.yul\":659:664   */\n      dup2\n        /* \"#utility.yul\":641:665   */\n      tag_343\n      jump\t// in\n    tag_419:\n        /* \"#utility.yul\":634:639   */\n      dup2\n        /* \"#utility.yul\":631:666   */\n      eq\n        /* \"#utility.yul\":621:684   */\n      tag_420\n      jumpi\n        /* \"#utility.yul\":680:681   */\n      0x00\n        /* \"#utility.yul\":677:678   */\n      dup1\n        /* \"#utility.yul\":670:682   */\n      revert\n        /* \"#utility.yul\":621:684   */\n    tag_420:\n        /* \"#utility.yul\":568:690   */\n      pop\n      jump\t// out\n        /* \"#utility.yul\":696:835   */\n    tag_345:\n        /* \"#utility.yul\":742:747   */\n      0x00\n        /* \"#utility.yul\":780:786   */\n      dup2\n        /* \"#utility.yul\":767:787   */\n      calldataload\n        /* \"#utility.yul\":758:787   */\n      swap1\n      pop\n        /* \"#utility.yul\":796:829   */\n      tag_422\n        /* \"#utility.yul\":823:828   */\n      dup2\n        /* \"#utility.yul\":796:829   */\n      tag_344\n      jump\t// in\n    tag_422:\n        /* \"#utility.yul\":696:835   */\n      swap3\n      swap2\n      pop\n      pop\n      jump\t// out\n        /* \"#utility.yul\":841:958   */\n    tag_346:\n        /* \"#utility.yul\":950:951   */\n      0x00\n        /* \"#utility.yul\":947:948   */\n      dup1\n        /* \"#utility.yul\":940:952   */\n      revert\n        /* \"#utility.yul\":964:1081   */\n    tag_347:\n        /* \"#utility.yul\":1073:1074   */\n      0x00\n        /* \"#utility.yul\":1070:1071   */\n      dup1\n        /* \"#utility.yul\":1063:1075   */\n      revert\n        /* \"#utility.yul\":1087:1189   */\n    tag_348:\n        /* \"#utility.yul\":1128:1134   */\n      0x00\n        /* \"#utility.yul\":1179:1181   */\n      0x1f\n        /* \"#utility.yul\":1175:1182   */\n      not\n        /* \"#utility.yul\":1170:1172   */\n      0x1f\n        /* \"#utility.yul\":1163:1168   */\n      dup4\n        /* \"#utility.yul\":1159:1173   */\n      add\n        /* \"#utility.yul\":1155:1183   */\n      and\n        /* \"#utility.yul\":1145:1183   */\n      swap1\n      pop\n        /* \"#utility.yul\":1087:1189   */\n      swap2\n      swap1\n      pop\n      jump\t// out\n        /* \"#utility.yul\":1195:1375   */\n    tag_130:\n        /* \"#utility.yul\":1243:1320   */\n      0x4e487b7100000000000000000000000000000000000000000000000000000000\n        /* \"#utility.yul\":1240:1241   */\n      0x00\n        /* \"#utility.yul\":1233:1321   */\n      mstore\n        /* \"#utility.yul\":1340:1344   */\n      0x41\n        /* \"#utility.yul\":1337:1338   */\n      0x04\n        /* \"#utility.yul\":1330:1345   */\n      mstore\n        /* \"#utility.yul\":1364:1368   */\n      0x24\n        /* \"#utility.yul\":1361:1362   */\n      0x00\n        /* \"#utility.yul\":1354:1369   */\n      revert\n        /* \"#utility.yul\":1381:1662   */\n    tag_349:\n        /* \"#utility.yul\":1464:1491   */\n      tag_428\n        /* \"#utility.yul\":1486:1490   */\n      dup3\n        /* \"#utility.yul\":1464:1491   */\n      tag_348\n      jump\t// in\n    tag_428:\n        /* \"#utility.yul\":1456:1462   */\n      dup2\n        /* \"#utility.yul\":1452:1492   */\n      add\n        /* \"#utility.yul\":1594:1600   */\n      dup2\n        /* \"#utility.yul\":1582:1592   */\n      dup2\n        /* \"#utility.yul\":1579:1601   */\n      lt\n        /* \"#utility.yul\":1558:1576   */\n      0xffffffffffffffff\n        /* \"#utility.yul\":1546:1556   */\n      dup3\n        /* \"#utility.yul\":1543:1577   */\n      gt\n        /* \"#utility.yul\":1540:1602   */\n      or\n        /* \"#utility.yul\":1537:1625   */\n      iszero\n      tag_429\n      jumpi\n        /* \"#utility.yul\":1605:1623   */\n      tag_430\n      tag_130\n      jump\t// in\n    tag_430:\n        /* \"#utility.yul\":1537:1625   */\n    tag_429:\n        /* \"#utility.yul\":1645:1655   */\n      dup1\n        /* \"#utility.yul\":1641:1643   */\n      0x40\n        /* \"#utility.yul\":1634:1656   */\n      mstore\n        /* \"#utility.yul\":1424:1662   */\n      pop\n        /* \"#utility.yul\":1381:1662   */\n      pop\n      pop\n      jump\t// out\n        /* \"#utility.yul\":1668:1797   */\n    tag_350:\n        /* \"#utility.yul\":1702:1708   */\n      0x00\n        /* \"#utility.yul\":1729:1749   */\n      tag_432\n      tag_339\n      jump\t// in\n    tag_432:\n        /* \"#utility.yul\":1719:1749   */\n      swap1\n      pop\n        /* \"#utility.yul\":1758:1791   */\n      tag_433\n        /* \"#utility.yul\":1786:1790   */\n      dup3\n        /* \"#utility.yul\":1778:1784   */\n      dup3\n        /* \"#utility.yul\":1758:1791   */\n      tag_349\n      jump\t// in\n    tag_433:\n        /* \"#utility.yul\":1668:1797   */\n      swap2\n      swap1\n      pop\n      jump\t// out\n        /* \"#utility.yul\":1803:2111   */\n    tag_351:\n        /* \"#utility.yul\":1865:1869   */\n      0x00\n        /* \"#utility.yul\":1955:1973   */\n      0xffffffffffffffff\n        /* \"#utility.yul\":1947:1953   */\n      dup3\n        /* \"#utility.yul\":1944:1974   */\n      gt\n        /* \"#utility.yul\":1941:1997   */\n      iszero\n      tag_435\n      jumpi\n        /* \"#utility.yul\":1977:1995   */\n      tag_436\n      tag_130\n      jump\t// in\n    tag_436:\n        /* \"#utility.yul\":1941:1997   */\n    tag_435:\n        /* \"#utility.yul\":2015:2044   */\n      tag_437\n        /* \"#utility.yul\":2037:2043   */\n      dup3\n        /* \"#utility.yul\":2015:2044   */\n      tag_348\n      jump\t// in\n    tag_437:\n        /* \"#utility.yul\":2007:2044   */\n      swap1\n      pop\n        /* \"#utility.yul\":2099:2103   */\n      0x20\n        /* \"#utility.yul\":2093:2097   */\n      dup2\n        /* \"#utility.yul\":2089:2104   */\n      add\n        /* \"#utility.yul\":2081:2104   */\n      swap1\n      pop\n        /* \"#utility.yul\":1803:2111   */\n      swap2\n      swap1\n      pop\n      jump\t// out\n        /* \"#utility.yul\":2117:2265   */\n    tag_352:\n        /* \"#utility.yul\":2215:2221   */\n      dup3\n        /* \"#utility.yul\":2210:2213   */\n      dup2\n        /* \"#utility.yul\":2205:2208   */\n      dup4\n        /* \"#utility.yul\":2192:2222   */\n      calldatacopy\n        /* \"#utility.yul\":2256:2257   */\n      0x00\n        /* \"#utility.yul\":2247:2253   */\n      dup4\n        /* \"#utility.yul\":2242:2245   */\n      dup4\n        /* \"#utility.yul\":2238:2254   */\n      add\n        /* \"#utility.yul\":2231:2258   */\n      mstore\n        /* \"#utility.yul\":2117:2265   */\n      pop\n      pop\n      pop\n      jump\t// out\n        /* \"#utility.yul\":2271:2696   */\n    tag_353:\n        /* \"#utility.yul\":2349:2354   */\n      0x00\n        /* \"#utility.yul\":2374:2440   */\n      tag_440\n        /* \"#utility.yul\":2390:2439   */\n      tag_441\n        /* \"#utility.yul\":2432:2438   */\n      dup5\n        /* \"#utility.yul\":2390:2439   */\n      tag_351\n      jump\t// in\n    tag_441:\n        /* \"#utility.yul\":2374:2440   */\n      tag_350\n      jump\t// in\n    tag_440:\n        /* \"#utility.yul\":2365:2440   */\n      swap1\n      pop\n        /* \"#utility.yul\":2463:2469   */\n      dup3\n        /* \"#utility.yul\":2456:2461   */\n      dup2\n        /* \"#utility.yul\":2449:2470   */\n      mstore\n        /* \"#utility.yul\":2501:2505   */\n      0x20\n        /* \"#utility.yul\":2494:2499   */\n      dup2\n        /* \"#utility.yul\":2490:2506   */\n      add\n        /* \"#utility.yul\":2539:2542   */\n      dup5\n        /* \"#utility.yul\":2530:2536   */\n      dup5\n        /* \"#utility.yul\":2525:2528   */\n      dup5\n        /* \"#utility.yul\":2521:2537   */\n      add\n        /* \"#utility.yul\":2518:2543   */\n      gt\n        /* \"#utility.yul\":2515:2627   */\n      iszero\n      tag_442\n      jumpi\n        /* \"#utility.yul\":2546:2625   */\n      tag_443\n      tag_347\n      jump\t// in\n    tag_443:\n        /* \"#utility.yul\":2515:2627   */\n    tag_442:\n        /* \"#utility.yul\":2636:2690   */\n      tag_444\n        /* \"#utility.yul\":2683:2689   */\n      dup5\n        /* \"#utility.yul\":2678:2681   */\n      dup3\n        /* \"#utility.yul\":2673:2676   */\n      dup6\n        /* \"#utility.yul\":2636:2690   */\n      tag_352\n      jump\t// in\n    tag_444:\n        /* \"#utility.yul\":2355:2696   */\n      pop\n        /* \"#utility.yul\":2271:2696   */\n      swap4\n      swap3\n      pop\n      pop\n      pop\n      jump\t// out\n        /* \"#utility.yul\":2716:3056   */\n    tag_354:\n        /* \"#utility.yul\":2772:2777   */\n      0x00\n        /* \"#utility.yul\":2821:2824   */\n      dup3\n        /* \"#utility.yul\":2814:2818   */\n      0x1f\n        /* \"#utility.yul\":2806:2812   */\n      dup4\n        /* \"#utility.yul\":2802:2819   */\n      add\n        /* \"#utility.yul\":2798:2825   */\n      slt\n        /* \"#utility.yul\":2788:2910   */\n      tag_446\n      jumpi\n        /* \"#utility.yul\":2829:2908   */\n      tag_447\n      tag_346\n      jump\t// in\n    tag_447:\n        /* \"#utility.yul\":2788:2910   */\n    tag_446:\n        /* \"#utility.yul\":2946:2952   */\n      dup2\n        /* \"#utility.yul\":2933:2953   */\n      calldataload\n        /* \"#utility.yul\":2971:3050   */\n      tag_448\n        /* \"#utility.yul\":3046:3049   */\n      dup5\n        /* \"#utility.yul\":3038:3044   */\n      dup3\n        /* \"#utility.yul\":3031:3035   */\n      0x20\n        /* \"#utility.yul\":3023:3029   */\n      dup7\n        /* \"#utility.yul\":3019:3036   */\n      add\n        /* \"#utility.yul\":2971:3050   */\n      tag_353\n      jump\t// in\n    tag_448:\n        /* \"#utility.yul\":2962:3050   */\n      swap2\n      pop\n        /* \"#utility.yul\":2778:3056   */\n      pop\n        /* \"#utility.yul\":2716:3056   */\n      swap3\n      swap2\n      pop\n      pop\n      jump\t// out\n        /* \"#utility.yul\":3062:5019   */\n    tag_29:\n        /* \"#utility.yul\":3216:3222   */\n      0x00\n        /* \"#utility.yul\":3224:3230   */\n      dup1\n        /* \"#utility.yul\":3232:3238   */\n      0x00\n        /* \"#utility.yul\":3240:3246   */\n      dup1\n        /* \"#utility.yul\":3248:3254   */\n      0x00\n        /* \"#utility.yul\":3256:3262   */\n      dup1\n        /* \"#utility.yul\":3305:3308   */\n      0xc0\n        /* \"#utility.yul\":3293:3302   */\n      dup8\n        /* \"#utility.yul\":3284:3291   */\n      dup10\n        /* \"#utility.yul\":3280:3303   */\n      sub\n        /* \"#utility.yul\":3276:3309   */\n      slt\n        /* \"#utility.yul\":3273:3393   */\n      iszero\n      tag_450\n      jumpi\n        /* \"#utility.yul\":3312:3391   */\n      tag_451\n      tag_340\n      jump\t// in\n    tag_451:\n        /* \"#utility.yul\":3273:3393   */\n    tag_450:\n        /* \"#utility.yul\":3432:3433   */\n      0x00\n        /* \"#utility.yul\":3457:3510   */\n      tag_452\n        /* \"#utility.yul\":3502:3509   */\n      dup10\n        /* \"#utility.yul\":3493:3499   */\n      dup3\n        /* \"#utility.yul\":3482:3491   */\n      dup11\n        /* \"#utility.yul\":3478:3500   */\n      add\n        /* \"#utility.yul\":3457:3510   */\n      tag_345\n      jump\t// in\n    tag_452:\n        /* \"#utility.yul\":3447:3510   */\n      swap7\n      pop\n        /* \"#utility.yul\":3403:3520   */\n      pop\n        /* \"#utility.yul\":3587:3589   */\n      0x20\n        /* \"#utility.yul\":3576:3585   */\n      dup8\n        /* \"#utility.yul\":3572:3590   */\n      add\n        /* \"#utility.yul\":3559:3591   */\n      calldataload\n        /* \"#utility.yul\":3618:3636   */\n      0xffffffffffffffff\n        /* \"#utility.yul\":3610:3616   */\n      dup2\n        /* \"#utility.yul\":3607:3637   */\n      gt\n        /* \"#utility.yul\":3604:3721   */\n      iszero\n      tag_453\n      jumpi\n        /* \"#utility.yul\":3640:3719   */\n      tag_454\n      tag_341\n      jump\t// in\n    tag_454:\n        /* \"#utility.yul\":3604:3721   */\n    tag_453:\n        /* \"#utility.yul\":3745:3808   */\n      tag_455\n        /* \"#utility.yul\":3800:3807   */\n      dup10\n        /* \"#utility.yul\":3791:3797   */\n      dup3\n        /* \"#utility.yul\":3780:3789   */\n      dup11\n        /* \"#utility.yul\":3776:3798   */\n      add\n        /* \"#utility.yul\":3745:3808   */\n      tag_354\n      jump\t// in\n    tag_455:\n        /* \"#utility.yul\":3735:3808   */\n      swap6\n      pop\n        /* \"#utility.yul\":3530:3818   */\n      pop\n        /* \"#utility.yul\":3885:3887   */\n      0x40\n        /* \"#utility.yul\":3874:3883   */\n      dup8\n        /* \"#utility.yul\":3870:3888   */\n      add\n        /* \"#utility.yul\":3857:3889   */\n      calldataload\n        /* \"#utility.yul\":3916:3934   */\n      0xffffffffffffffff\n        /* \"#utility.yul\":3908:3914   */\n      dup2\n        /* \"#utility.yul\":3905:3935   */\n      gt\n        /* \"#utility.yul\":3902:4019   */\n      iszero\n      tag_456\n      jumpi\n        /* \"#utility.yul\":3938:4017   */\n      tag_457\n      tag_341\n      jump\t// in\n    tag_457:\n        /* \"#utility.yul\":3902:4019   */\n    tag_456:\n        /* \"#utility.yul\":4043:4106   */\n      tag_458\n        /* \"#utility.yul\":4098:4105   */\n      dup10\n        /* \"#utility.yul\":4089:4095   */\n      dup3\n        /* \"#utility.yul\":4078:4087   */\n      dup11\n        /* \"#utility.yul\":4074:4096   */\n      add\n        /* \"#utility.yul\":4043:4106   */\n      tag_354\n      jump\t// in\n    tag_458:\n        /* \"#utility.yul\":4033:4106   */\n      swap5\n      pop\n        /* \"#utility.yul\":3828:4116   */\n      pop\n        /* \"#utility.yul\":4183:4185   */\n      0x60\n        /* \"#utility.yul\":4172:4181   */\n      dup8\n        /* \"#utility.yul\":4168:4186   */\n      add\n        /* \"#utility.yul\":4155:4187   */\n      calldataload\n        /* \"#utility.yul\":4214:4232   */\n      0xffffffffffffffff\n        /* \"#utility.yul\":4206:4212   */\n      dup2\n        /* \"#utility.yul\":4203:4233   */\n      gt\n        /* \"#utility.yul\":4200:4317   */\n      iszero\n      tag_459\n      jumpi\n        /* \"#utility.yul\":4236:4315   */\n      tag_460\n      tag_341\n      jump\t// in\n    tag_460:\n        /* \"#utility.yul\":4200:4317   */\n    tag_459:\n        /* \"#utility.yul\":4341:4404   */\n      tag_461\n        /* \"#utility.yul\":4396:4403   */\n      dup10\n        /* \"#utility.yul\":4387:4393   */\n      dup3\n        /* \"#utility.yul\":4376:4385   */\n      dup11\n        /* \"#utility.yul\":4372:4394   */\n      add\n        /* \"#utility.yul\":4341:4404   */\n      tag_354\n      jump\t// in\n    tag_461:\n        /* \"#utility.yul\":4331:4404   */\n      swap4\n      pop\n        /* \"#utility.yul\":4126:4414   */\n      pop\n        /* \"#utility.yul\":4481:4484   */\n      0x80\n        /* \"#utility.yul\":4470:4479   */\n      dup8\n        /* \"#utility.yul\":4466:4485   */\n      add\n        /* \"#utility.yul\":4453:4486   */\n      calldataload\n        /* \"#utility.yul\":4513:4531   */\n      0xffffffffffffffff\n        /* \"#utility.yul\":4505:4511   */\n      dup2\n        /* \"#utility.yul\":4502:4532   */\n      gt\n        /* \"#utility.yul\":4499:4616   */\n      iszero\n      tag_462\n      jumpi\n        /* \"#utility.yul\":4535:4614   */\n      tag_463\n      tag_341\n      jump\t// in\n    tag_463:\n        /* \"#utility.yul\":4499:4616   */\n    tag_462:\n        /* \"#utility.yul\":4640:4703   */\n      tag_464\n        /* \"#utility.yul\":4695:4702   */\n      dup10\n        /* \"#utility.yul\":4686:4692   */\n      dup3\n        /* \"#utility.yul\":4675:4684   */\n      dup11\n        /* \"#utility.yul\":4671:4693   */\n      add\n        /* \"#utility.yul\":4640:4703   */\n      tag_354\n      jump\t// in\n    tag_464:\n        /* \"#utility.yul\":4630:4703   */\n      swap3\n      pop\n        /* \"#utility.yul\":4424:4713   */\n      pop\n        /* \"#utility.yul\":4780:4783   */\n      0xa0\n        /* \"#utility.yul\":4769:4778   */\n      dup8\n        /* \"#utility.yul\":4765:4784   */\n      add\n        /* \"#utility.yul\":4752:4785   */\n      calldataload\n        /* \"#utility.yul\":4812:4830   */\n      0xffffffffffffffff\n        /* \"#utility.yul\":4804:4810   */\n      dup2\n        /* \"#utility.yul\":4801:4831   */\n      gt\n        /* \"#utility.yul\":4798:4915   */\n      iszero\n      tag_465\n      jumpi\n        /* \"#utility.yul\":4834:4913   */\n      tag_466\n      tag_341\n      jump\t// in\n    tag_466:\n        /* \"#utility.yul\":4798:4915   */\n    tag_465:\n        /* \"#utility.yul\":4939:5002   */\n      tag_467\n        /* \"#utility.yul\":4994:5001   */\n      dup10\n        /* \"#utility.yul\":4985:4991   */\n      dup3\n        /* \"#utility.yul\":4974:4983   */\n      dup11\n        /* \"#utility.yul\":4970:4992   */\n      add\n        /* \"#utility.yul\":4939:5002   */\n      tag_354\n      jump\t// in\n    tag_467:\n        /* \"#utility.yul\":4929:5002   */\n      swap2\n      pop\n        /* \"#utility.yul\":4723:5012   */\n      pop\n        /* \"#utility.yul\":3062:5019   */\n      swap3\n      swap6\n      pop\n      swap3\n      swap6\n      pop\n      swap3\n      swap6\n      jump\t// out\n        /* \"#utility.yul\":5025:5111   */\n    tag_355:\n        /* \"#utility.yul\":5060:5067   */\n      0x00\n        /* \"#utility.yul\":5100:5104   */\n      0xff\n        /* \"#utility.yul\":5093:5098   */\n      dup3\n        /* \"#utility.yul\":5089:5105   */\n      and\n        /* \"#utility.yul\":5078:5105   */\n      swap1\n      pop\n        /* \"#utility.yul\":5025:5111   */\n      swap2\n      swap1\n      pop\n      jump\t// out\n        /* \"#utility.yul\":5117:5229   */\n    tag_356:\n        /* \"#utility.yul\":5200:5222   */\n      tag_470\n        /* \"#utility.yul\":5216:5221   */\n      dup2\n        /* \"#utility.yul\":5200:5222   */\n      tag_355\n      jump\t// in\n    tag_470:\n        /* \"#utility.yul\":5195:5198   */\n      dup3\n        /* \"#utility.yul\":5188:5223   */\n      mstore\n        /* \"#utility.yul\":5117:5229   */\n      pop\n      pop\n      jump\t// out\n        /* \"#utility.yul\":5235:5449   */\n    tag_35:\n        /* \"#utility.yul\":5324:5328   */\n      0x00\n        /* \"#utility.yul\":5362:5364   */\n      0x20\n        /* \"#utility.yul\":5351:5360   */\n      dup3\n        /* \"#utility.yul\":5347:5365   */\n      add\n        /* \"#utility.yul\":5339:5365   */\n      swap1\n      pop\n        /* \"#utility.yul\":5375:5442   */\n      tag_472\n        /* \"#utility.yul\":5439:5440   */\n      0x00\n        /* \"#utility.yul\":5428:5437   */\n      dup4\n        /* \"#utility.yul\":5424:5441   */\n      add\n        /* \"#utility.yul\":5415:5421   */\n      dup5\n        /* \"#utility.yul\":5375:5442   */\n      tag_356\n      jump\t// in\n    tag_472:\n        /* \"#utility.yul\":5235:5449   */\n      swap3\n      swap2\n      pop\n      pop\n      jump\t// out\n        /* \"#utility.yul\":5455:5532   */\n    tag_357:\n        /* \"#utility.yul\":5492:5499   */\n      0x00\n        /* \"#utility.yul\":5521:5526   */\n      dup2\n        /* \"#utility.yul\":5510:5526   */\n      swap1\n      pop\n        /* \"#utility.yul\":5455:5532   */\n      swap2\n      swap1\n      pop\n      jump\t// out\n        /* \"#utility.yul\":5538:5660   */\n    tag_358:\n        /* \"#utility.yul\":5611:5635   */\n      tag_475\n        /* \"#utility.yul\":5629:5634   */\n      dup2\n        /* \"#utility.yul\":5611:5635   */\n      tag_357\n      jump\t// in\n    tag_475:\n        /* \"#utility.yul\":5604:5609   */\n      dup2\n        /* \"#utility.yul\":5601:5636   */\n      eq\n        /* \"#utility.yul\":5591:5654   */\n      tag_476\n      jumpi\n        /* \"#utility.yul\":5650:5651   */\n      0x00\n        /* \"#utility.yul\":5647:5648   */\n      dup1\n        /* \"#utility.yul\":5640:5652   */\n      revert\n        /* \"#utility.yul\":5591:5654   */\n    tag_476:\n        /* \"#utility.yul\":5538:5660   */\n      pop\n      jump\t// out\n        /* \"#utility.yul\":5666:5805   */\n    tag_359:\n        /* \"#utility.yul\":5712:5717   */\n      0x00\n        /* \"#utility.yul\":5750:5756   */\n      dup2\n        /* \"#utility.yul\":5737:5757   */\n      calldataload\n        /* \"#utility.yul\":5728:5757   */\n      swap1\n      pop\n        /* \"#utility.yul\":5766:5799   */\n      tag_478\n        /* \"#utility.yul\":5793:5798   */\n      dup2\n        /* \"#utility.yul\":5766:5799   */\n      tag_358\n      jump\t// in\n    tag_478:\n        /* \"#utility.yul\":5666:5805   */\n      swap3\n      swap2\n      pop\n      pop\n      jump\t// out\n        /* \"#utility.yul\":5811:6140   */\n    tag_39:\n        /* \"#utility.yul\":5870:5876   */\n      0x00\n        /* \"#utility.yul\":5919:5921   */\n      0x20\n        /* \"#utility.yul\":5907:5916   */\n      dup3\n        /* \"#utility.yul\":5898:5905   */\n      dup5\n        /* \"#utility.yul\":5894:5917   */\n      sub\n        /* \"#utility.yul\":5890:5922   */\n      slt\n        /* \"#utility.yul\":5887:6006   */\n      iszero\n      tag_480\n      jumpi\n        /* \"#utility.yul\":5925:6004   */\n      tag_481\n      tag_340\n      jump\t// in\n    tag_481:\n        /* \"#utility.yul\":5887:6006   */\n    tag_480:\n        /* \"#utility.yul\":6045:6046   */\n      0x00\n        /* \"#utility.yul\":6070:6123   */\n      tag_482\n        /* \"#utility.yul\":6115:6122   */\n      dup5\n        /* \"#utility.yul\":6106:6112   */\n      dup3\n        /* \"#utility.yul\":6095:6104   */\n      dup6\n        /* \"#utility.yul\":6091:6113   */\n      add\n        /* \"#utility.yul\":6070:6123   */\n      tag_359\n      jump\t// in\n    tag_482:\n        /* \"#utility.yul\":6060:6123   */\n      swap2\n      pop\n        /* \"#utility.yul\":6016:6133   */\n      pop\n        /* \"#utility.yul\":5811:6140   */\n      swap3\n      swap2\n      pop\n      pop\n      jump\t// out\n        /* \"#utility.yul\":6146:6264   */\n    tag_360:\n        /* \"#utility.yul\":6233:6257   */\n      tag_484\n        /* \"#utility.yul\":6251:6256   */\n      dup2\n        /* \"#utility.yul\":6233:6257   */\n      tag_343\n      jump\t// in\n    tag_484:\n        /* \"#utility.yul\":6228:6231   */\n      dup3\n        /* \"#utility.yul\":6221:6258   */\n      mstore\n        /* \"#utility.yul\":6146:6264   */\n      pop\n      pop\n      jump\t// out\n        /* \"#utility.yul\":6270:6492   */\n    tag_42:\n        /* \"#utility.yul\":6363:6367   */\n      0x00\n        /* \"#utility.yul\":6401:6403   */\n      0x20\n        /* \"#utility.yul\":6390:6399   */\n      dup3\n        /* \"#utility.yul\":6386:6404   */\n      add\n        /* \"#utility.yul\":6378:6404   */\n      swap1\n      pop\n        /* \"#utility.yul\":6414:6485   */\n      tag_486\n        /* \"#utility.yul\":6482:6483   */\n      0x00\n        /* \"#utility.yul\":6471:6480   */\n      dup4\n        /* \"#utility.yul\":6467:6484   */\n      add\n        /* \"#utility.yul\":6458:6464   */\n      dup5\n        /* \"#utility.yul\":6414:6485   */\n      tag_360\n      jump\t// in\n    tag_486:\n        /* \"#utility.yul\":6270:6492   */\n      swap3\n      swap2\n      pop\n      pop\n      jump\t// out\n        /* \"#utility.yul\":6498:8601   */\n    tag_45:\n        /* \"#utility.yul\":6661:6667   */\n      0x00\n        /* \"#utility.yul\":6669:6675   */\n      dup1\n        /* \"#utility.yul\":6677:6683   */\n      0x00\n        /* \"#utility.yul\":6685:6691   */\n      dup1\n        /* \"#utility.yul\":6693:6699   */\n      0x00\n        /* \"#utility.yul\":6701:6707   */\n      dup1\n        /* \"#utility.yul\":6709:6715   */\n      0x00\n        /* \"#utility.yul\":6758:6761   */\n      0xe0\n        /* \"#utility.yul\":6746:6755   */\n      dup9\n        /* \"#utility.yul\":6737:6744   */\n      dup11\n        /* \"#utility.yul\":6733:6756   */\n      sub\n        /* \"#utility.yul\":6729:6762   */\n      slt\n        /* \"#utility.yul\":6726:6846   */\n      iszero\n      tag_488\n      jumpi\n        /* \"#utility.yul\":6765:6844   */\n      tag_489\n      tag_340\n      jump\t// in\n    tag_489:\n        /* \"#utility.yul\":6726:6846   */\n    tag_488:\n        /* \"#utility.yul\":6885:6886   */\n      0x00\n        /* \"#utility.yul\":6910:6963   */\n      tag_490\n        /* \"#utility.yul\":6955:6962   */\n      dup11\n        /* \"#utility.yul\":6946:6952   */\n      dup3\n        /* \"#utility.yul\":6935:6944   */\n      dup12\n        /* \"#utility.yul\":6931:6953   */\n      add\n        /* \"#utility.yul\":6910:6963   */\n      tag_345\n      jump\t// in\n    tag_490:\n        /* \"#utility.yul\":6900:6963   */\n      swap8\n      pop\n        /* \"#utility.yul\":6856:6973   */\n      pop\n        /* \"#utility.yul\":7040:7042   */\n      0x20\n        /* \"#utility.yul\":7029:7038   */\n      dup9\n        /* \"#utility.yul\":7025:7043   */\n      add\n        /* \"#utility.yul\":7012:7044   */\n      calldataload\n        /* \"#utility.yul\":7071:7089   */\n      0xffffffffffffffff\n        /* \"#utility.yul\":7063:7069   */\n      dup2\n        /* \"#utility.yul\":7060:7090   */\n      gt\n        /* \"#utility.yul\":7057:7174   */\n      iszero\n      tag_491\n      jumpi\n        /* \"#utility.yul\":7093:7172   */\n      tag_492\n      tag_341\n      jump\t// in\n    tag_492:\n        /* \"#utility.yul\":7057:7174   */\n    tag_491:\n        /* \"#utility.yul\":7198:7261   */\n      tag_493\n        /* \"#utility.yul\":7253:7260   */\n      dup11\n        /* \"#utility.yul\":7244:7250   */\n      dup3\n        /* \"#utility.yul\":7233:7242   */\n      dup12\n        /* \"#utility.yul\":7229:7251   */\n      add\n        /* \"#utility.yul\":7198:7261   */\n      tag_354\n      jump\t// in\n    tag_493:\n        /* \"#utility.yul\":7188:7261   */\n      swap7\n      pop\n        /* \"#utility.yul\":6983:7271   */\n      pop\n        /* \"#utility.yul\":7338:7340   */\n      0x40\n        /* \"#utility.yul\":7327:7336   */\n      dup9\n        /* \"#utility.yul\":7323:7341   */\n      add\n        /* \"#utility.yul\":7310:7342   */\n      calldataload\n        /* \"#utility.yul\":7369:7387   */\n      0xffffffffffffffff\n        /* \"#utility.yul\":7361:7367   */\n      dup2\n        /* \"#utility.yul\":7358:7388   */\n      gt\n        /* \"#utility.yul\":7355:7472   */\n      iszero\n      tag_494\n      jumpi\n        /* \"#utility.yul\":7391:7470   */\n      tag_495\n      tag_341\n      jump\t// in\n    tag_495:\n        /* \"#utility.yul\":7355:7472   */\n    tag_494:\n        /* \"#utility.yul\":7496:7559   */\n      tag_496\n        /* \"#utility.yul\":7551:7558   */\n      dup11\n        /* \"#utility.yul\":7542:7548   */\n      dup3\n        /* \"#utility.yul\":7531:7540   */\n      dup12\n        /* \"#utility.yul\":7527:7549   */\n      add\n        /* \"#utility.yul\":7496:7559   */\n      tag_354\n      jump\t// in\n    tag_496:\n        /* \"#utility.yul\":7486:7559   */\n      swap6\n      pop\n        /* \"#utility.yul\":7281:7569   */\n      pop\n        /* \"#utility.yul\":7636:7638   */\n      0x60\n        /* \"#utility.yul\":7625:7634   */\n      dup9\n        /* \"#utility.yul\":7621:7639   */\n      add\n        /* \"#utility.yul\":7608:7640   */\n      calldataload\n        /* \"#utility.yul\":7667:7685   */\n      0xffffffffffffffff\n        /* \"#utility.yul\":7659:7665   */\n      dup2\n        /* \"#utility.yul\":7656:7686   */\n      gt\n        /* \"#utility.yul\":7653:7770   */\n      iszero\n      tag_497\n      jumpi\n        /* \"#utility.yul\":7689:7768   */\n      tag_498\n      tag_341\n      jump\t// in\n    tag_498:\n        /* \"#utility.yul\":7653:7770   */\n    tag_497:\n        /* \"#utility.yul\":7794:7857   */\n      tag_499\n        /* \"#utility.yul\":7849:7856   */\n      dup11\n        /* \"#utility.yul\":7840:7846   */\n      dup3\n        /* \"#utility.yul\":7829:7838   */\n      dup12\n        /* \"#utility.yul\":7825:7847   */\n      add\n        /* \"#utility.yul\":7794:7857   */\n      tag_354\n      jump\t// in\n    tag_499:\n        /* \"#utility.yul\":7784:7857   */\n      swap5\n      pop\n        /* \"#utility.yul\":7579:7867   */\n      pop\n        /* \"#utility.yul\":7934:7937   */\n      0x80\n        /* \"#utility.yul\":7923:7932   */\n      dup9\n        /* \"#utility.yul\":7919:7938   */\n      add\n        /* \"#utility.yul\":7906:7939   */\n      calldataload\n        /* \"#utility.yul\":7966:7984   */\n      0xffffffffffffffff\n        /* \"#utility.yul\":7958:7964   */\n      dup2\n        /* \"#utility.yul\":7955:7985   */\n      gt\n        /* \"#utility.yul\":7952:8069   */\n      iszero\n      tag_500\n      jumpi\n        /* \"#utility.yul\":7988:8067   */\n      tag_501\n      tag_341\n      jump\t// in\n    tag_501:\n        /* \"#utility.yul\":7952:8069   */\n    tag_500:\n        /* \"#utility.yul\":8093:8156   */\n      tag_502\n        /* \"#utility.yul\":8148:8155   */\n      dup11\n        /* \"#utility.yul\":8139:8145   */\n      dup3\n        /* \"#utility.yul\":8128:8137   */\n      dup12\n        /* \"#utility.yul\":8124:8146   */\n      add\n        /* \"#utility.yul\":8093:8156   */\n      tag_354\n      jump\t// in\n    tag_502:\n        /* \"#utility.yul\":8083:8156   */\n      swap4\n      pop\n        /* \"#utility.yul\":7877:8166   */\n      pop\n        /* \"#utility.yul\":8233:8236   */\n      0xa0\n        /* \"#utility.yul\":8222:8231   */\n      dup9\n        /* \"#utility.yul\":8218:8237   */\n      add\n        /* \"#utility.yul\":8205:8238   */\n      calldataload\n        /* \"#utility.yul\":8265:8283   */\n      0xffffffffffffffff\n        /* \"#utility.yul\":8257:8263   */\n      dup2\n        /* \"#utility.yul\":8254:8284   */\n      gt\n        /* \"#utility.yul\":8251:8368   */\n      iszero\n      tag_503\n      jumpi\n        /* \"#utility.yul\":8287:8366   */\n      tag_504\n      tag_341\n      jump\t// in\n    tag_504:\n        /* \"#utility.yul\":8251:8368   */\n    tag_503:\n        /* \"#utility.yul\":8392:8455   */\n      tag_505\n        /* \"#utility.yul\":8447:8454   */\n      dup11\n        /* \"#utility.yul\":8438:8444   */\n      dup3\n        /* \"#utility.yul\":8427:8436   */\n      dup12\n        /* \"#utility.yul\":8423:8445   */\n      add\n        /* \"#utility.yul\":8392:8455   */\n      tag_354\n      jump\t// in\n    tag_505:\n        /* \"#utility.yul\":8382:8455   */\n      swap3\n      pop\n        /* \"#utility.yul\":8176:8465   */\n      pop\n        /* \"#utility.yul\":8504:8507   */\n      0xc0\n        /* \"#utility.yul\":8531:8584   */\n      tag_506\n        /* \"#utility.yul\":8576:8583   */\n      dup11\n        /* \"#utility.yul\":8567:8573   */\n      dup3\n        /* \"#utility.yul\":8556:8565   */\n      dup12\n        /* \"#utility.yul\":8552:8574   */\n      add\n        /* \"#utility.yul\":8531:8584   */\n      tag_345\n      jump\t// in\n    tag_506:\n        /* \"#utility.yul\":8521:8584   */\n      swap2\n      pop\n        /* \"#utility.yul\":8475:8594   */\n      pop\n        /* \"#utility.yul\":6498:8601   */\n      swap3\n      swap6\n      swap9\n      swap2\n      swap5\n      swap8\n      pop\n      swap3\n      swap6\n      pop\n      jump\t// out\n        /* \"#utility.yul\":8607:8725   */\n    tag_361:\n        /* \"#utility.yul\":8694:8718   */\n      tag_508\n        /* \"#utility.yul\":8712:8717   */\n      dup2\n        /* \"#utility.yul\":8694:8718   */\n      tag_357\n      jump\t// in\n    tag_508:\n        /* \"#utility.yul\":8689:8692   */\n      dup3\n        /* \"#utility.yul\":8682:8719   */\n      mstore\n        /* \"#utility.yul\":8607:8725   */\n      pop\n      pop\n      jump\t// out\n        /* \"#utility.yul\":8731:8953   */\n    tag_51:\n        /* \"#utility.yul\":8824:8828   */\n      0x00\n        /* \"#utility.yul\":8862:8864   */\n      0x20\n        /* \"#utility.yul\":8851:8860   */\n      dup3\n        /* \"#utility.yul\":8847:8865   */\n      add\n        /* \"#utility.yul\":8839:8865   */\n      swap1\n      pop\n        /* \"#utility.yul\":8875:8946   */\n      tag_510\n        /* \"#utility.yul\":8943:8944   */\n      0x00\n        /* \"#utility.yul\":8932:8941   */\n      dup4\n        /* \"#utility.yul\":8928:8945   */\n      add\n        /* \"#utility.yul\":8919:8925   */\n      dup5\n        /* \"#utility.yul\":8875:8946   */\n      tag_361\n      jump\t// in\n    tag_510:\n        /* \"#utility.yul\":8731:8953   */\n      swap3\n      swap2\n      pop\n      pop\n      jump\t// out\n        /* \"#utility.yul\":8959:9288   */\n    tag_55:\n        /* \"#utility.yul\":9018:9024   */\n      0x00\n        /* \"#utility.yul\":9067:9069   */\n      0x20\n        /* \"#utility.yul\":9055:9064   */\n      dup3\n        /* \"#utility.yul\":9046:9053   */\n      dup5\n        /* \"#utility.yul\":9042:9065   */\n      sub\n        /* \"#utility.yul\":9038:9070   */\n      slt\n        /* \"#utility.yul\":9035:9154   */\n      iszero\n      tag_512\n      jumpi\n        /* \"#utility.yul\":9073:9152   */\n      tag_513\n      tag_340\n      jump\t// in\n    tag_513:\n        /* \"#utility.yul\":9035:9154   */\n    tag_512:\n        /* \"#utility.yul\":9193:9194   */\n      0x00\n        /* \"#utility.yul\":9218:9271   */\n      tag_514\n        /* \"#utility.yul\":9263:9270   */\n      dup5\n        /* \"#utility.yul\":9254:9260   */\n      dup3\n        /* \"#utility.yul\":9243:9252   */\n      dup6\n        /* \"#utility.yul\":9239:9261   */\n      add\n        /* \"#utility.yul\":9218:9271   */\n      tag_345\n      jump\t// in\n    tag_514:\n        /* \"#utility.yul\":9208:9271   */\n      swap2\n      pop\n        /* \"#utility.yul\":9164:9281   */\n      pop\n        /* \"#utility.yul\":8959:9288   */\n      swap3\n      swap2\n      pop\n      pop\n      jump\t// out\n        /* \"#utility.yul\":9294:9393   */\n    tag_362:\n        /* \"#utility.yul\":9346:9352   */\n      0x00\n        /* \"#utility.yul\":9380:9385   */\n      dup2\n        /* \"#utility.yul\":9374:9386   */\n      mload\n        /* \"#utility.yul\":9364:9386   */\n      swap1\n      pop\n        /* \"#utility.yul\":9294:9393   */\n      swap2\n      swap1\n      pop\n      jump\t// out\n        /* \"#utility.yul\":9399:9568   */\n    tag_363:\n        /* \"#utility.yul\":9483:9494   */\n      0x00\n        /* \"#utility.yul\":9517:9523   */\n      dup3\n        /* \"#utility.yul\":9512:9515   */\n      dup3\n        /* \"#utility.yul\":9505:9524   */\n      mstore\n        /* \"#utility.yul\":9557:9561   */\n      0x20\n        /* \"#utility.yul\":9552:9555   */\n      dup3\n        /* \"#utility.yul\":9548:9562   */\n      add\n        /* \"#utility.yul\":9533:9562   */\n      swap1\n      pop\n        /* \"#utility.yul\":9399:9568   */\n      swap3\n      swap2\n      pop\n      pop\n      jump\t// out\n        /* \"#utility.yul\":9574:9713   */\n    tag_364:\n        /* \"#utility.yul\":9663:9669   */\n      dup3\n        /* \"#utility.yul\":9658:9661   */\n      dup2\n        /* \"#utility.yul\":9653:9656   */\n      dup4\n        /* \"#utility.yul\":9647:9670   */\n      mcopy\n        /* \"#utility.yul\":9704:9705   */\n      0x00\n        /* \"#utility.yul\":9695:9701   */\n      dup4\n        /* \"#utility.yul\":9690:9693   */\n      dup4\n        /* \"#utility.yul\":9686:9702   */\n      add\n        /* \"#utility.yul\":9679:9706   */\n      mstore\n        /* \"#utility.yul\":9574:9713   */\n      pop\n      pop\n      pop\n      jump\t// out\n        /* \"#utility.yul\":9719:10096   */\n    tag_365:\n        /* \"#utility.yul\":9807:9810   */\n      0x00\n        /* \"#utility.yul\":9835:9874   */\n      tag_519\n        /* \"#utility.yul\":9868:9873   */\n      dup3\n        /* \"#utility.yul\":9835:9874   */\n      tag_362\n      jump\t// in\n    tag_519:\n        /* \"#utility.yul\":9890:9961   */\n      tag_520\n        /* \"#utility.yul\":9954:9960   */\n      dup2\n        /* \"#utility.yul\":9949:9952   */\n      dup6\n        /* \"#utility.yul\":9890:9961   */\n      tag_363\n      jump\t// in\n    tag_520:\n        /* \"#utility.yul\":9883:9961   */\n      swap4\n      pop\n        /* \"#utility.yul\":9970:10035   */\n      tag_521\n        /* \"#utility.yul\":10028:10034   */\n      dup2\n        /* \"#utility.yul\":10023:10026   */\n      dup6\n        /* \"#utility.yul\":10016:10020   */\n      0x20\n        /* \"#utility.yul\":10009:10014   */\n      dup7\n        /* \"#utility.yul\":10005:10021   */\n      add\n        /* \"#utility.yul\":9970:10035   */\n      tag_364\n      jump\t// in\n    tag_521:\n        /* \"#utility.yul\":10060:10089   */\n      tag_522\n        /* \"#utility.yul\":10082:10088   */\n      dup2\n        /* \"#utility.yul\":10060:10089   */\n      tag_348\n      jump\t// in\n    tag_522:\n        /* \"#utility.yul\":10055:10058   */\n      dup5\n        /* \"#utility.yul\":10051:10090   */\n      add\n        /* \"#utility.yul\":10044:10090   */\n      swap2\n      pop\n        /* \"#utility.yul\":9811:10096   */\n      pop\n        /* \"#utility.yul\":9719:10096   */\n      swap3\n      swap2\n      pop\n      pop\n      jump\t// out\n        /* \"#utility.yul\":10102:11798   */\n    tag_63:\n        /* \"#utility.yul\":10556:10560   */\n      0x00\n        /* \"#utility.yul\":10594:10597   */\n      0x0160\n        /* \"#utility.yul\":10583:10592   */\n      dup3\n        /* \"#utility.yul\":10579:10598   */\n      add\n        /* \"#utility.yul\":10571:10598   */\n      swap1\n      pop\n        /* \"#utility.yul\":10608:10679   */\n      tag_524\n        /* \"#utility.yul\":10676:10677   */\n      0x00\n        /* \"#utility.yul\":10665:10674   */\n      dup4\n        /* \"#utility.yul\":10661:10678   */\n      add\n        /* \"#utility.yul\":10652:10658   */\n      dup15\n        /* \"#utility.yul\":10608:10679   */\n      tag_360\n      jump\t// in\n    tag_524:\n        /* \"#utility.yul\":10689:10761   */\n      tag_525\n        /* \"#utility.yul\":10757:10759   */\n      0x20\n        /* \"#utility.yul\":10746:10755   */\n      dup4\n        /* \"#utility.yul\":10742:10760   */\n      add\n        /* \"#utility.yul\":10733:10739   */\n      dup14\n        /* \"#utility.yul\":10689:10761   */\n      tag_361\n      jump\t// in\n    tag_525:\n        /* \"#utility.yul\":10771:10843   */\n      tag_526\n        /* \"#utility.yul\":10839:10841   */\n      0x40\n        /* \"#utility.yul\":10828:10837   */\n      dup4\n        /* \"#utility.yul\":10824:10842   */\n      add\n        /* \"#utility.yul\":10815:10821   */\n      dup13\n        /* \"#utility.yul\":10771:10843   */\n      tag_361\n      jump\t// in\n    tag_526:\n        /* \"#utility.yul\":10853:10925   */\n      tag_527\n        /* \"#utility.yul\":10921:10923   */\n      0x60\n        /* \"#utility.yul\":10910:10919   */\n      dup4\n        /* \"#utility.yul\":10906:10924   */\n      add\n        /* \"#utility.yul\":10897:10903   */\n      dup12\n        /* \"#utility.yul\":10853:10925   */\n      tag_361\n      jump\t// in\n    tag_527:\n        /* \"#utility.yul\":10935:11008   */\n      tag_528\n        /* \"#utility.yul\":11003:11006   */\n      0x80\n        /* \"#utility.yul\":10992:11001   */\n      dup4\n        /* \"#utility.yul\":10988:11007   */\n      add\n        /* \"#utility.yul\":10979:10985   */\n      dup11\n        /* \"#utility.yul\":10935:11008   */\n      tag_361\n      jump\t// in\n    tag_528:\n        /* \"#utility.yul\":11018:11091   */\n      tag_529\n        /* \"#utility.yul\":11086:11089   */\n      0xa0\n        /* \"#utility.yul\":11075:11084   */\n      dup4\n        /* \"#utility.yul\":11071:11090   */\n      add\n        /* \"#utility.yul\":11062:11068   */\n      dup10\n        /* \"#utility.yul\":11018:11091   */\n      tag_361\n      jump\t// in\n    tag_529:\n        /* \"#utility.yul\":11139:11148   */\n      dup2\n        /* \"#utility.yul\":11133:11137   */\n      dup2\n        /* \"#utility.yul\":11129:11149   */\n      sub\n        /* \"#utility.yul\":11123:11126   */\n      0xc0\n        /* \"#utility.yul\":11112:11121   */\n      dup4\n        /* \"#utility.yul\":11108:11127   */\n      add\n        /* \"#utility.yul\":11101:11150   */\n      mstore\n        /* \"#utility.yul\":11167:11245   */\n      tag_530\n        /* \"#utility.yul\":11240:11244   */\n      dup2\n        /* \"#utility.yul\":11231:11237   */\n      dup9\n        /* \"#utility.yul\":11167:11245   */\n      tag_365\n      jump\t// in\n    tag_530:\n        /* \"#utility.yul\":11159:11245   */\n      swap1\n      pop\n        /* \"#utility.yul\":11293:11302   */\n      dup2\n        /* \"#utility.yul\":11287:11291   */\n      dup2\n        /* \"#utility.yul\":11283:11303   */\n      sub\n        /* \"#utility.yul\":11277:11280   */\n      0xe0\n        /* \"#utility.yul\":11266:11275   */\n      dup4\n        /* \"#utility.yul\":11262:11281   */\n      add\n        /* \"#utility.yul\":11255:11304   */\n      mstore\n        /* \"#utility.yul\":11321:11399   */\n      tag_531\n        /* \"#utility.yul\":11394:11398   */\n      dup2\n        /* \"#utility.yul\":11385:11391   */\n      dup8\n        /* \"#utility.yul\":11321:11399   */\n      tag_365\n      jump\t// in\n    tag_531:\n        /* \"#utility.yul\":11313:11399   */\n      swap1\n      pop\n        /* \"#utility.yul\":11447:11456   */\n      dup2\n        /* \"#utility.yul\":11441:11445   */\n      dup2\n        /* \"#utility.yul\":11437:11457   */\n      sub\n        /* \"#utility.yul\":11431:11434   */\n      0x0100\n        /* \"#utility.yul\":11420:11429   */\n      dup4\n        /* \"#utility.yul\":11416:11435   */\n      add\n        /* \"#utility.yul\":11409:11458   */\n      mstore\n        /* \"#utility.yul\":11475:11553   */\n      tag_532\n        /* \"#utility.yul\":11548:11552   */\n      dup2\n        /* \"#utility.yul\":11539:11545   */\n      dup7\n        /* \"#utility.yul\":11475:11553   */\n      tag_365\n      jump\t// in\n    tag_532:\n        /* \"#utility.yul\":11467:11553   */\n      swap1\n      pop\n        /* \"#utility.yul\":11601:11610   */\n      dup2\n        /* \"#utility.yul\":11595:11599   */\n      dup2\n        /* \"#utility.yul\":11591:11611   */\n      sub\n        /* \"#utility.yul\":11585:11588   */\n      0x0120\n        /* \"#utility.yul\":11574:11583   */\n      dup4\n        /* \"#utility.yul\":11570:11589   */\n      add\n        /* \"#utility.yul\":11563:11612   */\n      mstore\n        /* \"#utility.yul\":11629:11707   */\n      tag_533\n        /* \"#utility.yul\":11702:11706   */\n      dup2\n        /* \"#utility.yul\":11693:11699   */\n      dup6\n        /* \"#utility.yul\":11629:11707   */\n      tag_365\n      jump\t// in\n    tag_533:\n        /* \"#utility.yul\":11621:11707   */\n      swap1\n      pop\n        /* \"#utility.yul\":11717:11791   */\n      tag_534\n        /* \"#utility.yul\":11786:11789   */\n      0x0140\n        /* \"#utility.yul\":11775:11784   */\n      dup4\n        /* \"#utility.yul\":11771:11790   */\n      add\n        /* \"#utility.yul\":11761:11768   */\n      dup5\n        /* \"#utility.yul\":11717:11791   */\n      tag_360\n      jump\t// in\n    tag_534:\n        /* \"#utility.yul\":10102:11798   */\n      swap13\n      swap12\n      pop\n      pop\n      pop\n      pop\n      pop\n      pop\n      pop\n      pop\n      pop\n      pop\n      pop\n      pop\n      jump\t// out\n        /* \"#utility.yul\":11804:11922   */\n    tag_366:\n        /* \"#utility.yul\":11875:11897   */\n      tag_536\n        /* \"#utility.yul\":11891:11896   */\n      dup2\n        /* \"#utility.yul\":11875:11897   */\n      tag_355\n      jump\t// in\n    tag_536:\n        /* \"#utility.yul\":11868:11873   */\n      dup2\n        /* \"#utility.yul\":11865:11898   */\n      eq\n        /* \"#utility.yul\":11855:11916   */\n      tag_537\n      jumpi\n        /* \"#utility.yul\":11912:11913   */\n      0x00\n        /* \"#utility.yul\":11909:11910   */\n      dup1\n        /* \"#utility.yul\":11902:11914   */\n      revert\n        /* \"#utility.yul\":11855:11916   */\n    tag_537:\n        /* \"#utility.yul\":11804:11922   */\n      pop\n      jump\t// out\n        /* \"#utility.yul\":11928:12063   */\n    tag_367:\n        /* \"#utility.yul\":11972:11977   */\n      0x00\n        /* \"#utility.yul\":12010:12016   */\n      dup2\n        /* \"#utility.yul\":11997:12017   */\n      calldataload\n        /* \"#utility.yul\":11988:12017   */\n      swap1\n      pop\n        /* \"#utility.yul\":12026:12057   */\n      tag_539\n        /* \"#utility.yul\":12051:12056   */\n      dup2\n        /* \"#utility.yul\":12026:12057   */\n      tag_366\n      jump\t// in\n    tag_539:\n        /* \"#utility.yul\":11928:12063   */\n      swap3\n      swap2\n      pop\n      pop\n      jump\t// out\n        /* \"#utility.yul\":12069:12394   */\n    tag_76:\n        /* \"#utility.yul\":12126:12132   */\n      0x00\n        /* \"#utility.yul\":12175:12177   */\n      0x20\n        /* \"#utility.yul\":12163:12172   */\n      dup3\n        /* \"#utility.yul\":12154:12161   */\n      dup5\n        /* \"#utility.yul\":12150:12173   */\n      sub\n        /* \"#utility.yul\":12146:12178   */\n      slt\n        /* \"#utility.yul\":12143:12262   */\n      iszero\n      tag_541\n      jumpi\n        /* \"#utility.yul\":12181:12260   */\n      tag_542\n      tag_340\n      jump\t// in\n    tag_542:\n        /* \"#utility.yul\":12143:12262   */\n    tag_541:\n        /* \"#utility.yul\":12301:12302   */\n      0x00\n        /* \"#utility.yul\":12326:12377   */\n      tag_543\n        /* \"#utility.yul\":12369:12376   */\n      dup5\n        /* \"#utility.yul\":12360:12366   */\n      dup3\n        /* \"#utility.yul\":12349:12358   */\n      dup6\n        /* \"#utility.yul\":12345:12367   */\n      add\n        /* \"#utility.yul\":12326:12377   */\n      tag_367\n      jump\t// in\n    tag_543:\n        /* \"#utility.yul\":12316:12377   */\n      swap2\n      pop\n        /* \"#utility.yul\":12272:12387   */\n      pop\n        /* \"#utility.yul\":12069:12394   */\n      swap3\n      swap2\n      pop\n      pop\n      jump\t// out\n        /* \"#utility.yul\":12400:12477   */\n    tag_368:\n        /* \"#utility.yul\":12437:12444   */\n      0x00\n        /* \"#utility.yul\":12466:12471   */\n      dup2\n        /* \"#utility.yul\":12455:12471   */\n      swap1\n      pop\n        /* \"#utility.yul\":12400:12477   */\n      swap2\n      swap1\n      pop\n      jump\t// out\n        /* \"#utility.yul\":12483:12601   */\n    tag_369:\n        /* \"#utility.yul\":12570:12594   */\n      tag_546\n        /* \"#utility.yul\":12588:12593   */\n      dup2\n        /* \"#utility.yul\":12570:12594   */\n      tag_368\n      jump\t// in\n    tag_546:\n        /* \"#utility.yul\":12565:12568   */\n      dup3\n        /* \"#utility.yul\":12558:12595   */\n      mstore\n        /* \"#utility.yul\":12483:12601   */\n      pop\n      pop\n      jump\t// out\n        /* \"#utility.yul\":12607:14408   */\n    tag_104:\n        /* \"#utility.yul\":13086:13090   */\n      0x00\n        /* \"#utility.yul\":13124:13127   */\n      0x0180\n        /* \"#utility.yul\":13113:13122   */\n      dup3\n        /* \"#utility.yul\":13109:13128   */\n      add\n        /* \"#utility.yul\":13101:13128   */\n      swap1\n      pop\n        /* \"#utility.yul\":13138:13209   */\n      tag_548\n        /* \"#utility.yul\":13206:13207   */\n      0x00\n        /* \"#utility.yul\":13195:13204   */\n      dup4\n        /* \"#utility.yul\":13191:13208   */\n      add\n        /* \"#utility.yul\":13182:13188   */\n      dup16\n        /* \"#utility.yul\":13138:13209   */\n      tag_360\n      jump\t// in\n    tag_548:\n        /* \"#utility.yul\":13219:13291   */\n      tag_549\n        /* \"#utility.yul\":13287:13289   */\n      0x20\n        /* \"#utility.yul\":13276:13285   */\n      dup4\n        /* \"#utility.yul\":13272:13290   */\n      add\n        /* \"#utility.yul\":13263:13269   */\n      dup15\n        /* \"#utility.yul\":13219:13291   */\n      tag_361\n      jump\t// in\n    tag_549:\n        /* \"#utility.yul\":13301:13373   */\n      tag_550\n        /* \"#utility.yul\":13369:13371   */\n      0x40\n        /* \"#utility.yul\":13358:13367   */\n      dup4\n        /* \"#utility.yul\":13354:13372   */\n      add\n        /* \"#utility.yul\":13345:13351   */\n      dup14\n        /* \"#utility.yul\":13301:13373   */\n      tag_361\n      jump\t// in\n    tag_550:\n        /* \"#utility.yul\":13383:13455   */\n      tag_551\n        /* \"#utility.yul\":13451:13453   */\n      0x60\n        /* \"#utility.yul\":13440:13449   */\n      dup4\n        /* \"#utility.yul\":13436:13454   */\n      add\n        /* \"#utility.yul\":13427:13433   */\n      dup13\n        /* \"#utility.yul\":13383:13455   */\n      tag_361\n      jump\t// in\n    tag_551:\n        /* \"#utility.yul\":13465:13538   */\n      tag_552\n        /* \"#utility.yul\":13533:13536   */\n      0x80\n        /* \"#utility.yul\":13522:13531   */\n      dup4\n        /* \"#utility.yul\":13518:13537   */\n      add\n        /* \"#utility.yul\":13509:13515   */\n      dup12\n        /* \"#utility.yul\":13465:13538   */\n      tag_361\n      jump\t// in\n    tag_552:\n        /* \"#utility.yul\":13548:13617   */\n      tag_553\n        /* \"#utility.yul\":13612:13615   */\n      0xa0\n        /* \"#utility.yul\":13601:13610   */\n      dup4\n        /* \"#utility.yul\":13597:13616   */\n      add\n        /* \"#utility.yul\":13588:13594   */\n      dup11\n        /* \"#utility.yul\":13548:13617   */\n      tag_356\n      jump\t// in\n    tag_553:\n        /* \"#utility.yul\":13665:13674   */\n      dup2\n        /* \"#utility.yul\":13659:13663   */\n      dup2\n        /* \"#utility.yul\":13655:13675   */\n      sub\n        /* \"#utility.yul\":13649:13652   */\n      0xc0\n        /* \"#utility.yul\":13638:13647   */\n      dup4\n        /* \"#utility.yul\":13634:13653   */\n      add\n        /* \"#utility.yul\":13627:13676   */\n      mstore\n        /* \"#utility.yul\":13693:13771   */\n      tag_554\n        /* \"#utility.yul\":13766:13770   */\n      dup2\n        /* \"#utility.yul\":13757:13763   */\n      dup10\n        /* \"#utility.yul\":13693:13771   */\n      tag_365\n      jump\t// in\n    tag_554:\n        /* \"#utility.yul\":13685:13771   */\n      swap1\n      pop\n        /* \"#utility.yul\":13819:13828   */\n      dup2\n        /* \"#utility.yul\":13813:13817   */\n      dup2\n        /* \"#utility.yul\":13809:13829   */\n      sub\n        /* \"#utility.yul\":13803:13806   */\n      0xe0\n        /* \"#utility.yul\":13792:13801   */\n      dup4\n        /* \"#utility.yul\":13788:13807   */\n      add\n        /* \"#utility.yul\":13781:13830   */\n      mstore\n        /* \"#utility.yul\":13847:13925   */\n      tag_555\n        /* \"#utility.yul\":13920:13924   */\n      dup2\n        /* \"#utility.yul\":13911:13917   */\n      dup9\n        /* \"#utility.yul\":13847:13925   */\n      tag_365\n      jump\t// in\n    tag_555:\n        /* \"#utility.yul\":13839:13925   */\n      swap1\n      pop\n        /* \"#utility.yul\":13973:13982   */\n      dup2\n        /* \"#utility.yul\":13967:13971   */\n      dup2\n        /* \"#utility.yul\":13963:13983   */\n      sub\n        /* \"#utility.yul\":13957:13960   */\n      0x0100\n        /* \"#utility.yul\":13946:13955   */\n      dup4\n        /* \"#utility.yul\":13942:13961   */\n      add\n        /* \"#utility.yul\":13935:13984   */\n      mstore\n        /* \"#utility.yul\":14001:14079   */\n      tag_556\n        /* \"#utility.yul\":14074:14078   */\n      dup2\n        /* \"#utility.yul\":14065:14071   */\n      dup8\n        /* \"#utility.yul\":14001:14079   */\n      tag_365\n      jump\t// in\n    tag_556:\n        /* \"#utility.yul\":13993:14079   */\n      swap1\n      pop\n        /* \"#utility.yul\":14127:14136   */\n      dup2\n        /* \"#utility.yul\":14121:14125   */\n      dup2\n        /* \"#utility.yul\":14117:14137   */\n      sub\n        /* \"#utility.yul\":14111:14114   */\n      0x0120\n        /* \"#utility.yul\":14100:14109   */\n      dup4\n        /* \"#utility.yul\":14096:14115   */\n      add\n        /* \"#utility.yul\":14089:14138   */\n      mstore\n        /* \"#utility.yul\":14155:14233   */\n      tag_557\n        /* \"#utility.yul\":14228:14232   */\n      dup2\n        /* \"#utility.yul\":14219:14225   */\n      dup7\n        /* \"#utility.yul\":14155:14233   */\n      tag_365\n      jump\t// in\n    tag_557:\n        /* \"#utility.yul\":14147:14233   */\n      swap1\n      pop\n        /* \"#utility.yul\":14243:14317   */\n      tag_558\n        /* \"#utility.yul\":14312:14315   */\n      0x0140\n        /* \"#utility.yul\":14301:14310   */\n      dup4\n        /* \"#utility.yul\":14297:14316   */\n      add\n        /* \"#utility.yul\":14287:14294   */\n      dup6\n        /* \"#utility.yul\":14243:14317   */\n      tag_369\n      jump\t// in\n    tag_558:\n        /* \"#utility.yul\":14327:14401   */\n      tag_559\n        /* \"#utility.yul\":14396:14399   */\n      0x0160\n        /* \"#utility.yul\":14385:14394   */\n      dup4\n        /* \"#utility.yul\":14381:14400   */\n      add\n        /* \"#utility.yul\":14371:14378   */\n      dup5\n        /* \"#utility.yul\":14327:14401   */\n      tag_360\n      jump\t// in\n    tag_559:\n        /* \"#utility.yul\":12607:14408   */\n      swap14\n      swap13\n      pop\n      pop\n      pop\n      pop\n      pop\n      pop\n      pop\n      pop\n      pop\n      pop\n      pop\n      pop\n      pop\n      jump\t// out\n        /* \"#utility.yul\":14414:14727   */\n    tag_110:\n        /* \"#utility.yul\":14527:14531   */\n      0x00\n        /* \"#utility.yul\":14565:14567   */\n      0x20\n        /* \"#utility.yul\":14554:14563   */\n      dup3\n        /* \"#utility.yul\":14550:14568   */\n      add\n        /* \"#utility.yul\":14542:14568   */\n      swap1\n      pop\n        /* \"#utility.yul\":14614:14623   */\n      dup2\n        /* \"#utility.yul\":14608:14612   */\n      dup2\n        /* \"#utility.yul\":14604:14624   */\n      sub\n        /* \"#utility.yul\":14600:14601   */\n      0x00\n        /* \"#utility.yul\":14589:14598   */\n      dup4\n        /* \"#utility.yul\":14585:14602   */\n      add\n        /* \"#utility.yul\":14578:14625   */\n      mstore\n        /* \"#utility.yul\":14642:14720   */\n      tag_561\n        /* \"#utility.yul\":14715:14719   */\n      dup2\n        /* \"#utility.yul\":14706:14712   */\n      dup5\n        /* \"#utility.yul\":14642:14720   */\n      tag_365\n      jump\t// in\n    tag_561:\n        /* \"#utility.yul\":14634:14720   */\n      swap1\n      pop\n        /* \"#utility.yul\":14414:14727   */\n      swap3\n      swap2\n      pop\n      pop\n      jump\t// out\n        /* \"#utility.yul\":14733:15065   */\n    tag_116:\n        /* \"#utility.yul\":14854:14858   */\n      0x00\n        /* \"#utility.yul\":14892:14894   */\n      0x40\n        /* \"#utility.yul\":14881:14890   */\n      dup3\n        /* \"#utility.yul\":14877:14895   */\n      add\n        /* \"#utility.yul\":14869:14895   */\n      swap1\n      pop\n        /* \"#utility.yul\":14905:14976   */\n      tag_563\n        /* \"#utility.yul\":14973:14974   */\n      0x00\n        /* \"#utility.yul\":14962:14971   */\n      dup4\n        /* \"#utility.yul\":14958:14975   */\n      add\n        /* \"#utility.yul\":14949:14955   */\n      dup6\n        /* \"#utility.yul\":14905:14976   */\n      tag_361\n      jump\t// in\n    tag_563:\n        /* \"#utility.yul\":14986:15058   */\n      tag_564\n        /* \"#utility.yul\":15054:15056   */\n      0x20\n        /* \"#utility.yul\":15043:15052   */\n      dup4\n        /* \"#utility.yul\":15039:15057   */\n      add\n        /* \"#utility.yul\":15030:15036   */\n      dup5\n        /* \"#utility.yul\":14986:15058   */\n      tag_361\n      jump\t// in\n    tag_564:\n        /* \"#utility.yul\":14733:15065   */\n      swap4\n      swap3\n      pop\n      pop\n      pop\n      jump\t// out\n        /* \"#utility.yul\":15071:15246   */\n    tag_370:\n        /* \"#utility.yul\":15211:15238   */\n      0x55706c696e6520616c7265616479207265676973746572656400000000000000\n        /* \"#utility.yul\":15207:15208   */\n      0x00\n        /* \"#utility.yul\":15199:15205   */\n      dup3\n        /* \"#utility.yul\":15195:15209   */\n      add\n        /* \"#utility.yul\":15188:15239   */\n      mstore\n        /* \"#utility.yul\":15071:15246   */\n      pop\n      jump\t// out\n        /* \"#utility.yul\":15252:15618   */\n    tag_371:\n        /* \"#utility.yul\":15394:15397   */\n      0x00\n        /* \"#utility.yul\":15415:15482   */\n      tag_567\n        /* \"#utility.yul\":15479:15481   */\n      0x19\n        /* \"#utility.yul\":15474:15477   */\n      dup4\n        /* \"#utility.yul\":15415:15482   */\n      tag_363\n      jump\t// in\n    tag_567:\n        /* \"#utility.yul\":15408:15482   */\n      swap2\n      pop\n        /* \"#utility.yul\":15491:15584   */\n      tag_568\n        /* \"#utility.yul\":15580:15583   */\n      dup3\n        /* \"#utility.yul\":15491:15584   */\n      tag_370\n      jump\t// in\n    tag_568:\n        /* \"#utility.yul\":15609:15611   */\n      0x20\n        /* \"#utility.yul\":15604:15607   */\n      dup3\n        /* \"#utility.yul\":15600:15612   */\n      add\n        /* \"#utility.yul\":15593:15612   */\n      swap1\n      pop\n        /* \"#utility.yul\":15252:15618   */\n      swap2\n      swap1\n      pop\n      jump\t// out\n        /* \"#utility.yul\":15624:16043   */\n    tag_125:\n        /* \"#utility.yul\":15790:15794   */\n      0x00\n        /* \"#utility.yul\":15828:15830   */\n      0x20\n        /* \"#utility.yul\":15817:15826   */\n      dup3\n        /* \"#utility.yul\":15813:15831   */\n      add\n        /* \"#utility.yul\":15805:15831   */\n      swap1\n      pop\n        /* \"#utility.yul\":15877:15886   */\n      dup2\n        /* \"#utility.yul\":15871:15875   */\n      dup2\n        /* \"#utility.yul\":15867:15887   */\n      sub\n        /* \"#utility.yul\":15863:15864   */\n      0x00\n        /* \"#utility.yul\":15852:15861   */\n      dup4\n        /* \"#utility.yul\":15848:15865   */\n      add\n        /* \"#utility.yul\":15841:15888   */\n      mstore\n        /* \"#utility.yul\":15905:16036   */\n      tag_570\n        /* \"#utility.yul\":16031:16035   */\n      dup2\n        /* \"#utility.yul\":15905:16036   */\n      tag_371\n      jump\t// in\n    tag_570:\n        /* \"#utility.yul\":15897:16036   */\n      swap1\n      pop\n        /* \"#utility.yul\":15624:16043   */\n      swap2\n      swap1\n      pop\n      jump\t// out\n        /* \"#utility.yul\":16049:16197   */\n    tag_372:\n        /* \"#utility.yul\":16151:16162   */\n      0x00\n        /* \"#utility.yul\":16188:16191   */\n      dup2\n        /* \"#utility.yul\":16173:16191   */\n      swap1\n      pop\n        /* \"#utility.yul\":16049:16197   */\n      swap3\n      swap2\n      pop\n      pop\n      jump\t// out\n        /* \"#utility.yul\":16203:16593   */\n    tag_373:\n        /* \"#utility.yul\":16309:16312   */\n      0x00\n        /* \"#utility.yul\":16337:16376   */\n      tag_573\n        /* \"#utility.yul\":16370:16375   */\n      dup3\n        /* \"#utility.yul\":16337:16376   */\n      tag_362\n      jump\t// in\n    tag_573:\n        /* \"#utility.yul\":16392:16481   */\n      tag_574\n        /* \"#utility.yul\":16474:16480   */\n      dup2\n        /* \"#utility.yul\":16469:16472   */\n      dup6\n        /* \"#utility.yul\":16392:16481   */\n      tag_372\n      jump\t// in\n    tag_574:\n        /* \"#utility.yul\":16385:16481   */\n      swap4\n      pop\n        /* \"#utility.yul\":16490:16555   */\n      tag_575\n        /* \"#utility.yul\":16548:16554   */\n      dup2\n        /* \"#utility.yul\":16543:16546   */\n      dup6\n        /* \"#utility.yul\":16536:16540   */\n      0x20\n        /* \"#utility.yul\":16529:16534   */\n      dup7\n        /* \"#utility.yul\":16525:16541   */\n      add\n        /* \"#utility.yul\":16490:16555   */\n      tag_364\n      jump\t// in\n    tag_575:\n        /* \"#utility.yul\":16580:16586   */\n      dup1\n        /* \"#utility.yul\":16575:16578   */\n      dup5\n        /* \"#utility.yul\":16571:16587   */\n      add\n        /* \"#utility.yul\":16564:16587   */\n      swap2\n      pop\n        /* \"#utility.yul\":16313:16593   */\n      pop\n        /* \"#utility.yul\":16203:16593   */\n      swap3\n      swap2\n      pop\n      pop\n      jump\t// out\n        /* \"#utility.yul\":16599:16874   */\n    tag_127:\n        /* \"#utility.yul\":16731:16734   */\n      0x00\n        /* \"#utility.yul\":16753:16848   */\n      tag_577\n        /* \"#utility.yul\":16844:16847   */\n      dup3\n        /* \"#utility.yul\":16835:16841   */\n      dup5\n        /* \"#utility.yul\":16753:16848   */\n      tag_373\n      jump\t// in\n    tag_577:\n        /* \"#utility.yul\":16746:16848   */\n      swap2\n      pop\n        /* \"#utility.yul\":16865:16868   */\n      dup2\n        /* \"#utility.yul\":16858:16868   */\n      swap1\n      pop\n        /* \"#utility.yul\":16599:16874   */\n      swap3\n      swap2\n      pop\n      pop\n      jump\t// out\n        /* \"#utility.yul\":16880:17060   */\n    tag_374:\n        /* \"#utility.yul\":16928:17005   */\n      0x4e487b7100000000000000000000000000000000000000000000000000000000\n        /* \"#utility.yul\":16925:16926   */\n      0x00\n        /* \"#utility.yul\":16918:17006   */\n      mstore\n        /* \"#utility.yul\":17025:17029   */\n      0x22\n        /* \"#utility.yul\":17022:17023   */\n      0x04\n        /* \"#utility.yul\":17015:17030   */\n      mstore\n        /* \"#utility.yul\":17049:17053   */\n      0x24\n        /* \"#utility.yul\":17046:17047   */\n      0x00\n        /* \"#utility.yul\":17039:17054   */\n      revert\n        /* \"#utility.yul\":17066:17386   */\n    tag_174:\n        /* \"#utility.yul\":17110:17116   */\n      0x00\n        /* \"#utility.yul\":17147:17148   */\n      0x02\n        /* \"#utility.yul\":17141:17145   */\n      dup3\n        /* \"#utility.yul\":17137:17149   */\n      div\n        /* \"#utility.yul\":17127:17149   */\n      swap1\n      pop\n        /* \"#utility.yul\":17194:17195   */\n      0x01\n        /* \"#utility.yul\":17188:17192   */\n      dup3\n        /* \"#utility.yul\":17184:17196   */\n      and\n        /* \"#utility.yul\":17215:17233   */\n      dup1\n        /* \"#utility.yul\":17205:17286   */\n      tag_580\n      jumpi\n        /* \"#utility.yul\":17271:17275   */\n      0x7f\n        /* \"#utility.yul\":17263:17269   */\n      dup3\n        /* \"#utility.yul\":17259:17276   */\n      and\n        /* \"#utility.yul\":17249:17276   */\n      swap2\n      pop\n        /* \"#utility.yul\":17205:17286   */\n    tag_580:\n        /* \"#utility.yul\":17333:17335   */\n      0x20\n        /* \"#utility.yul\":17325:17331   */\n      dup3\n        /* \"#utility.yul\":17322:17336   */\n      lt\n        /* \"#utility.yul\":17302:17320   */\n      dup2\n        /* \"#utility.yul\":17299:17337   */\n      sub\n        /* \"#utility.yul\":17296:17380   */\n      tag_581\n      jumpi\n        /* \"#utility.yul\":17352:17370   */\n      tag_582\n      tag_374\n      jump\t// in\n    tag_582:\n        /* \"#utility.yul\":17296:17380   */\n    tag_581:\n        /* \"#utility.yul\":17117:17386   */\n      pop\n        /* \"#utility.yul\":17066:17386   */\n      swap2\n      swap1\n      pop\n      jump\t// out\n        /* \"#utility.yul\":17392:17533   */\n    tag_375:\n        /* \"#utility.yul\":17441:17445   */\n      0x00\n        /* \"#utility.yul\":17464:17467   */\n      dup2\n        /* \"#utility.yul\":17456:17467   */\n      swap1\n      pop\n        /* \"#utility.yul\":17487:17490   */\n      dup2\n        /* \"#utility.yul\":17484:17485   */\n      0x00\n        /* \"#utility.yul\":17477:17491   */\n      mstore\n        /* \"#utility.yul\":17521:17525   */\n      0x20\n        /* \"#utility.yul\":17518:17519   */\n      0x00\n        /* \"#utility.yul\":17508:17526   */\n      keccak256\n        /* \"#utility.yul\":17500:17526   */\n      swap1\n      pop\n        /* \"#utility.yul\":17392:17533   */\n      swap2\n      swap1\n      pop\n      jump\t// out\n        /* \"#utility.yul\":17539:17632   */\n    tag_376:\n        /* \"#utility.yul\":17576:17582   */\n      0x00\n        /* \"#utility.yul\":17623:17625   */\n      0x20\n        /* \"#utility.yul\":17618:17620   */\n      0x1f\n        /* \"#utility.yul\":17611:17616   */\n      dup4\n        /* \"#utility.yul\":17607:17621   */\n      add\n        /* \"#utility.yul\":17603:17626   */\n      div\n        /* \"#utility.yul\":17593:17626   */\n      swap1\n      pop\n        /* \"#utility.yul\":17539:17632   */\n      swap2\n      swap1\n      pop\n      jump\t// out\n        /* \"#utility.yul\":17638:17745   */\n    tag_377:\n        /* \"#utility.yul\":17682:17690   */\n      0x00\n        /* \"#utility.yul\":17732:17737   */\n      dup3\n        /* \"#utility.yul\":17726:17730   */\n      dup3\n        /* \"#utility.yul\":17722:17738   */\n      shl\n        /* \"#utility.yul\":17701:17738   */\n      swap1\n      pop\n        /* \"#utility.yul\":17638:17745   */\n      swap3\n      swap2\n      pop\n      pop\n      jump\t// out\n        /* \"#utility.yul\":17751:18144   */\n    tag_378:\n        /* \"#utility.yul\":17820:17826   */\n      0x00\n        /* \"#utility.yul\":17870:17871   */\n      0x08\n        /* \"#utility.yul\":17858:17868   */\n      dup4\n        /* \"#utility.yul\":17854:17872   */\n      mul\n        /* \"#utility.yul\":17893:17990   */\n      tag_587\n        /* \"#utility.yul\":17923:17989   */\n      0xffffffffffffffffffffffffffffffffffffffffffffffffffffffffffffffff\n        /* \"#utility.yul\":17912:17921   */\n      dup3\n        /* \"#utility.yul\":17893:17990   */\n      tag_377\n      jump\t// in\n    tag_587:\n        /* \"#utility.yul\":18011:18050   */\n      tag_588\n        /* \"#utility.yul\":18041:18049   */\n      dup7\n        /* \"#utility.yul\":18030:18039   */\n      dup4\n        /* \"#utility.yul\":18011:18050   */\n      tag_377\n      jump\t// in\n    tag_588:\n        /* \"#utility.yul\":17999:18050   */\n      swap6\n      pop\n        /* \"#utility.yul\":18083:18087   */\n      dup1\n        /* \"#utility.yul\":18079:18088   */\n      not\n        /* \"#utility.yul\":18072:18077   */\n      dup5\n        /* \"#utility.yul\":18068:18089   */\n      and\n        /* \"#utility.yul\":18059:18089   */\n      swap4\n      pop\n        /* \"#utility.yul\":18132:18136   */\n      dup1\n        /* \"#utility.yul\":18122:18130   */\n      dup7\n        /* \"#utility.yul\":18118:18137   */\n      and\n        /* \"#utility.yul\":18111:18116   */\n      dup5\n        /* \"#utility.yul\":18108:18138   */\n      or\n        /* \"#utility.yul\":18098:18138   */\n      swap3\n      pop\n        /* \"#utility.yul\":17827:18144   */\n      pop\n      pop\n        /* \"#utility.yul\":17751:18144   */\n      swap4\n      swap3\n      pop\n      pop\n      pop\n      jump\t// out\n        /* \"#utility.yul\":18150:18210   */\n    tag_379:\n        /* \"#utility.yul\":18178:18181   */\n      0x00\n        /* \"#utility.yul\":18199:18204   */\n      dup2\n        /* \"#utility.yul\":18192:18204   */\n      swap1\n      pop\n        /* \"#utility.yul\":18150:18210   */\n      swap2\n      swap1\n      pop\n      jump\t// out\n        /* \"#utility.yul\":18216:18358   */\n    tag_380:\n        /* \"#utility.yul\":18266:18275   */\n      0x00\n        /* \"#utility.yul\":18299:18352   */\n      tag_591\n        /* \"#utility.yul\":18317:18351   */\n      tag_592\n        /* \"#utility.yul\":18326:18350   */\n      tag_593\n        /* \"#utility.yul\":18344:18349   */\n      dup5\n        /* \"#utility.yul\":18326:18350   */\n      tag_357\n      jump\t// in\n    tag_593:\n        /* \"#utility.yul\":18317:18351   */\n      tag_379\n      jump\t// in\n    tag_592:\n        /* \"#utility.yul\":18299:18352   */\n      tag_357\n      jump\t// in\n    tag_591:\n        /* \"#utility.yul\":18286:18352   */\n      swap1\n      pop\n        /* \"#utility.yul\":18216:18358   */\n      swap2\n      swap1\n      pop\n      jump\t// out\n        /* \"#utility.yul\":18364:18439   */\n    tag_381:\n        /* \"#utility.yul\":18407:18410   */\n      0x00\n        /* \"#utility.yul\":18428:18433   */\n      dup2\n        /* \"#utility.yul\":18421:18433   */\n      swap1\n      pop\n        /* \"#utility.yul\":18364:18439   */\n      swap2\n      swap1\n      pop\n      jump\t// out\n        /* \"#utility.yul\":18445:18714   */\n    tag_382:\n        /* \"#utility.yul\":18555:18594   */\n      tag_596\n        /* \"#utility.yul\":18586:18593   */\n      dup4\n        /* \"#utility.yul\":18555:18594   */\n      tag_380\n      jump\t// in\n    tag_596:\n        /* \"#utility.yul\":18616:18707   */\n      tag_597\n        /* \"#utility.yul\":18665:18706   */\n      tag_598\n        /* \"#utility.yul\":18689:18705   */\n      dup3\n        /* \"#utility.yul\":18665:18706   */\n      tag_381\n      jump\t// in\n    tag_598:\n        /* \"#utility.yul\":18657:18663   */\n      dup5\n        /* \"#utility.yul\":18650:18654   */\n      dup5\n        /* \"#utility.yul\":18644:18655   */\n      sload\n        /* \"#utility.yul\":18616:18707   */\n      tag_378\n      jump\t// in\n    tag_597:\n        /* \"#utility.yul\":18610:18614   */\n      dup3\n        /* \"#utility.yul\":18603:18708   */\n      sstore\n        /* \"#utility.yul\":18521:18714   */\n      pop\n        /* \"#utility.yul\":18445:18714   */\n      pop\n      pop\n      pop\n      jump\t// out\n        /* \"#utility.yul\":18720:18793   */\n    tag_383:\n        /* \"#utility.yul\":18765:18768   */\n      0x00\n        /* \"#utility.yul\":18720:18793   */\n      swap1\n      jump\t// out\n        /* \"#utility.yul\":18799:18988   */\n    tag_384:\n        /* \"#utility.yul\":18876:18908   */\n      tag_601\n      tag_383\n      jump\t// in\n    tag_601:\n        /* \"#utility.yul\":18917:18982   */\n      tag_602\n        /* \"#utility.yul\":18975:18981   */\n      dup2\n        /* \"#utility.yul\":18967:18973   */\n      dup5\n        /* \"#utility.yul\":18961:18965   */\n      dup5\n        /* \"#utility.yul\":18917:18982   */\n      tag_382\n      jump\t// in\n    tag_602:\n        /* \"#utility.yul\":18852:18988   */\n      pop\n        /* \"#utility.yul\":18799:18988   */\n      pop\n      pop\n      jump\t// out\n        /* \"#utility.yul\":18994:19180   */\n    tag_385:\n        /* \"#utility.yul\":19054:19174   */\n    tag_604:\n        /* \"#utility.yul\":19071:19074   */\n      dup2\n        /* \"#utility.yul\":19064:19069   */\n      dup2\n        /* \"#utility.yul\":19061:19075   */\n      lt\n        /* \"#utility.yul\":19054:19174   */\n      iszero\n      tag_606\n      jumpi\n        /* \"#utility.yul\":19125:19164   */\n      tag_607\n        /* \"#utility.yul\":19162:19163   */\n      0x00\n        /* \"#utility.yul\":19155:19160   */\n      dup3\n        /* \"#utility.yul\":19125:19164   */\n      tag_384\n      jump\t// in\n    tag_607:\n        /* \"#utility.yul\":19098:19099   */\n      0x01\n        /* \"#utility.yul\":19091:19096   */\n      dup2\n        /* \"#utility.yul\":19087:19100   */\n      add\n        /* \"#utility.yul\":19078:19100   */\n      swap1\n      pop\n        /* \"#utility.yul\":19054:19174   */\n      jump(tag_604)\n    tag_606:\n        /* \"#utility.yul\":18994:19180   */\n      pop\n      pop\n      jump\t// out\n        /* \"#utility.yul\":19186:19729   */\n    tag_386:\n        /* \"#utility.yul\":19287:19289   */\n      0x1f\n        /* \"#utility.yul\":19282:19285   */\n      dup3\n        /* \"#utility.yul\":19279:19290   */\n      gt\n        /* \"#utility.yul\":19276:19722   */\n      iszero\n      tag_609\n      jumpi\n        /* \"#utility.yul\":19321:19359   */\n      tag_610\n        /* \"#utility.yul\":19353:19358   */\n      dup2\n        /* \"#utility.yul\":19321:19359   */\n      tag_375\n      jump\t// in\n    tag_610:\n        /* \"#utility.yul\":19405:19434   */\n      tag_611\n        /* \"#utility.yul\":19423:19433   */\n      dup5\n        /* \"#utility.yul\":19405:19434   */\n      tag_376\n      jump\t// in\n    tag_611:\n        /* \"#utility.yul\":19395:19403   */\n      dup2\n        /* \"#utility.yul\":19391:19435   */\n      add\n        /* \"#utility.yul\":19588:19590   */\n      0x20\n        /* \"#utility.yul\":19576:19586   */\n      dup6\n        /* \"#utility.yul\":19573:19591   */\n      lt\n        /* \"#utility.yul\":19570:19619   */\n      iszero\n      tag_612\n      jumpi\n        /* \"#utility.yul\":19609:19617   */\n      dup2\n        /* \"#utility.yul\":19594:19617   */\n      swap1\n      pop\n        /* \"#utility.yul\":19570:19619   */\n    tag_612:\n        /* \"#utility.yul\":19632:19712   */\n      tag_613\n        /* \"#utility.yul\":19688:19710   */\n      tag_614\n        /* \"#utility.yul\":19706:19709   */\n      dup6\n        /* \"#utility.yul\":19688:19710   */\n      tag_376\n      jump\t// in\n    tag_614:\n        /* \"#utility.yul\":19678:19686   */\n      dup4\n        /* \"#utility.yul\":19674:19711   */\n      add\n        /* \"#utility.yul\":19661:19672   */\n      dup3\n        /* \"#utility.yul\":19632:19712   */\n      tag_385\n      jump\t// in\n    tag_613:\n        /* \"#utility.yul\":19291:19722   */\n      pop\n      pop\n        /* \"#utility.yul\":19276:19722   */\n    tag_609:\n        /* \"#utility.yul\":19186:19729   */\n      pop\n      pop\n      pop\n      jump\t// out\n        /* \"#utility.yul\":19735:19852   */\n    tag_387:\n        /* \"#utility.yul\":19789:19797   */\n      0x00\n        /* \"#utility.yul\":19839:19844   */\n      dup3\n        /* \"#utility.yul\":19833:19837   */\n      dup3\n        /* \"#utility.yul\":19829:19845   */\n      shr\n        /* \"#utility.yul\":19808:19845   */\n      swap1\n      pop\n        /* \"#utility.yul\":19735:19852   */\n      swap3\n      swap2\n      pop\n      pop\n      jump\t// out\n        /* \"#utility.yul\":19858:20027   */\n    tag_388:\n        /* \"#utility.yul\":19902:19908   */\n      0x00\n        /* \"#utility.yul\":19935:19986   */\n      tag_617\n        /* \"#utility.yul\":19983:19984   */\n      0x00\n        /* \"#utility.yul\":19979:19985   */\n      not\n        /* \"#utility.yul\":19971:19976   */\n      dup5\n        /* \"#utility.yul\":19968:19969   */\n      0x08\n        /* \"#utility.yul\":19964:19977   */\n      mul\n        /* \"#utility.yul\":19935:19986   */\n      tag_387\n      jump\t// in\n    tag_617:\n        /* \"#utility.yul\":19931:19987   */\n      not\n        /* \"#utility.yul\":20016:20020   */\n      dup1\n        /* \"#utility.yul\":20010:20014   */\n      dup4\n        /* \"#utility.yul\":20006:20021   */\n      and\n        /* \"#utility.yul\":19996:20021   */\n      swap2\n      pop\n        /* \"#utility.yul\":19909:20027   */\n      pop\n        /* \"#utility.yul\":19858:20027   */\n      swap3\n      swap2\n      pop\n      pop\n      jump\t// out\n        /* \"#utility.yul\":20032:20327   */\n    tag_389:\n        /* \"#utility.yul\":20108:20112   */\n      0x00\n        /* \"#utility.yul\":20254:20283   */\n      tag_619\n        /* \"#utility.yul\":20279:20282   */\n      dup4\n        /* \"#utility.yul\":20273:20277   */\n      dup4\n        /* \"#utility.yul\":20254:20283   */\n      tag_388\n      jump\t// in\n    tag_619:\n        /* \"#utility.yul\":20246:20283   */\n      swap2\n      pop\n        /* \"#utility.yul\":20316:20319   */\n      dup3\n        /* \"#utility.yul\":20313:20314   */\n      0x02\n        /* \"#utility.yul\":20309:20320   */\n      mul\n        /* \"#utility.yul\":20303:20307   */\n      dup3\n        /* \"#utility.yul\":20300:20321   */\n      or\n        /* \"#utility.yul\":20292:20321   */\n      swap1\n      pop\n        /* \"#utility.yul\":20032:20327   */\n      swap3\n      swap2\n      pop\n      pop\n      jump\t// out\n        /* \"#utility.yul\":20332:21727   */\n    tag_135:\n        /* \"#utility.yul\":20449:20486   */\n      tag_621\n        /* \"#utility.yul\":20482:20485   */\n      dup3\n        /* \"#utility.yul\":20449:20486   */\n      tag_362\n      jump\t// in\n    tag_621:\n        /* \"#utility.yul\":20551:20569   */\n      0xffffffffffffffff\n        /* \"#utility.yul\":20543:20549   */\n      dup2\n        /* \"#utility.yul\":20540:20570   */\n      gt\n        /* \"#utility.yul\":20537:20593   */\n      iszero\n      tag_622\n      jumpi\n        /* \"#utility.yul\":20573:20591   */\n      tag_623\n      tag_130\n      jump\t// in\n    tag_623:\n        /* \"#utility.yul\":20537:20593   */\n    tag_622:\n        /* \"#utility.yul\":20617:20655   */\n      tag_624\n        /* \"#utility.yul\":20649:20653   */\n      dup3\n        /* \"#utility.yul\":20643:20654   */\n      sload\n        /* \"#utility.yul\":20617:20655   */\n      tag_174\n      jump\t// in\n    tag_624:\n        /* \"#utility.yul\":20702:20769   */\n      tag_625\n        /* \"#utility.yul\":20762:20768   */\n      dup3\n        /* \"#utility.yul\":20754:20760   */\n      dup3\n        /* \"#utility.yul\":20748:20752   */\n      dup6\n        /* \"#utility.yul\":20702:20769   */\n      tag_386\n      jump\t// in\n    tag_625:\n        /* \"#utility.yul\":20796:20797   */\n      0x00\n        /* \"#utility.yul\":20820:20824   */\n      0x20\n        /* \"#utility.yul\":20807:20824   */\n      swap1\n      pop\n        /* \"#utility.yul\":20852:20854   */\n      0x1f\n        /* \"#utility.yul\":20844:20850   */\n      dup4\n        /* \"#utility.yul\":20841:20855   */\n      gt\n        /* \"#utility.yul\":20869:20870   */\n      0x01\n        /* \"#utility.yul\":20864:21482   */\n      dup2\n      eq\n      tag_627\n      jumpi\n        /* \"#utility.yul\":21526:21527   */\n      0x00\n        /* \"#utility.yul\":21543:21549   */\n      dup5\n        /* \"#utility.yul\":21540:21617   */\n      iszero\n      tag_628\n      jumpi\n        /* \"#utility.yul\":21592:21601   */\n      dup3\n        /* \"#utility.yul\":21587:21590   */\n      dup8\n        /* \"#utility.yul\":21583:21602   */\n      add\n        /* \"#utility.yul\":21577:21603   */\n      mload\n        /* \"#utility.yul\":21568:21603   */\n      swap1\n      pop\n        /* \"#utility.yul\":21540:21617   */\n    tag_628:\n        /* \"#utility.yul\":21643:21710   */\n      tag_629\n        /* \"#utility.yul\":21703:21709   */\n      dup6\n        /* \"#utility.yul\":21696:21701   */\n      dup3\n        /* \"#utility.yul\":21643:21710   */\n      tag_389\n      jump\t// in\n    tag_629:\n        /* \"#utility.yul\":21637:21641   */\n      dup7\n        /* \"#utility.yul\":21630:21711   */\n      sstore\n        /* \"#utility.yul\":21499:21721   */\n      pop\n        /* \"#utility.yul\":20834:21721   */\n      jump(tag_626)\n        /* \"#utility.yul\":20864:21482   */\n    tag_627:\n        /* \"#utility.yul\":20916:20920   */\n      0x1f\n        /* \"#utility.yul\":20912:20921   */\n      not\n        /* \"#utility.yul\":20904:20910   */\n      dup5\n        /* \"#utility.yul\":20900:20922   */\n      and\n        /* \"#utility.yul\":20950:20987   */\n      tag_630\n        /* \"#utility.yul\":20982:20986   */\n      dup7\n        /* \"#utility.yul\":20950:20987   */\n      tag_375\n      jump\t// in\n    tag_630:\n        /* \"#utility.yul\":21009:21010   */\n      0x00\n        /* \"#utility.yul\":21023:21231   */\n    tag_631:\n        /* \"#utility.yul\":21037:21044   */\n      dup3\n        /* \"#utility.yul\":21034:21035   */\n      dup2\n        /* \"#utility.yul\":21031:21045   */\n      lt\n        /* \"#utility.yul\":21023:21231   */\n      iszero\n      tag_633\n      jumpi\n        /* \"#utility.yul\":21116:21125   */\n      dup5\n        /* \"#utility.yul\":21111:21114   */\n      dup10\n        /* \"#utility.yul\":21107:21126   */\n      add\n        /* \"#utility.yul\":21101:21127   */\n      mload\n        /* \"#utility.yul\":21093:21099   */\n      dup3\n        /* \"#utility.yul\":21086:21128   */\n      sstore\n        /* \"#utility.yul\":21167:21168   */\n      0x01\n        /* \"#utility.yul\":21159:21165   */\n      dup3\n        /* \"#utility.yul\":21155:21169   */\n      add\n        /* \"#utility.yul\":21145:21169   */\n      swap2\n      pop\n        /* \"#utility.yul\":21214:21216   */\n      0x20\n        /* \"#utility.yul\":21203:21212   */\n      dup6\n        /* \"#utility.yul\":21199:21217   */\n      add\n        /* \"#utility.yul\":21186:21217   */\n      swap5\n      pop\n        /* \"#utility.yul\":21060:21064   */\n      0x20\n        /* \"#utility.yul\":21057:21058   */\n      dup2\n        /* \"#utility.yul\":21053:21065   */\n      add\n        /* \"#utility.yul\":21048:21065   */\n      swap1\n      pop\n        /* \"#utility.yul\":21023:21231   */\n      jump(tag_631)\n    tag_633:\n        /* \"#utility.yul\":21259:21265   */\n      dup7\n        /* \"#utility.yul\":21250:21257   */\n      dup4\n        /* \"#utility.yul\":21247:21266   */\n      lt\n        /* \"#utility.yul\":21244:21423   */\n      iszero\n      tag_634\n      jumpi\n        /* \"#utility.yul\":21317:21326   */\n      dup5\n        /* \"#utility.yul\":21312:21315   */\n      dup10\n        /* \"#utility.yul\":21308:21327   */\n      add\n        /* \"#utility.yul\":21302:21328   */\n      mload\n        /* \"#utility.yul\":21360:21408   */\n      tag_635\n        /* \"#utility.yul\":21402:21406   */\n      0x1f\n        /* \"#utility.yul\":21394:21400   */\n      dup10\n        /* \"#utility.yul\":21390:21407   */\n      and\n        /* \"#utility.yul\":21379:21388   */\n      dup3\n        /* \"#utility.yul\":21360:21408   */\n      tag_388\n      jump\t// in\n    tag_635:\n        /* \"#utility.yul\":21352:21358   */\n      dup4\n        /* \"#utility.yul\":21345:21409   */\n      sstore\n        /* \"#utility.yul\":21267:21423   */\n      pop\n        /* \"#utility.yul\":21244:21423   */\n    tag_634:\n        /* \"#utility.yul\":21469:21470   */\n      0x01\n        /* \"#utility.yul\":21465:21466   */\n      0x02\n        /* \"#utility.yul\":21457:21463   */\n      dup9\n        /* \"#utility.yul\":21453:21467   */\n      mul\n        /* \"#utility.yul\":21449:21471   */\n      add\n        /* \"#utility.yul\":21443:21447   */\n      dup9\n        /* \"#utility.yul\":21436:21472   */\n      sstore\n        /* \"#utility.yul\":20871:21482   */\n      pop\n      pop\n      pop\n        /* \"#utility.yul\":20834:21721   */\n    tag_626:\n      pop\n        /* \"#utility.yul\":20424:21727   */\n      pop\n      pop\n      pop\n        /* \"#utility.yul\":20332:21727   */\n      pop\n      pop\n      jump\t// out\n        /* \"#utility.yul\":21733:21913   */\n    tag_390:\n        /* \"#utility.yul\":21781:21858   */\n      0x4e487b7100000000000000000000000000000000000000000000000000000000\n        /* \"#utility.yul\":21778:21779   */\n      0x00\n        /* \"#utility.yul\":21771:21859   */\n      mstore\n        /* \"#utility.yul\":21878:21882   */\n      0x11\n        /* \"#utility.yul\":21875:21876   */\n      0x04\n        /* \"#utility.yul\":21868:21883   */\n      mstore\n        /* \"#utility.yul\":21902:21906   */\n      0x24\n        /* \"#utility.yul\":21899:21900   */\n      0x00\n        /* \"#utility.yul\":21892:21907   */\n      revert\n        /* \"#utility.yul\":21919:22152   */\n    tag_140:\n        /* \"#utility.yul\":21958:21961   */\n      0x00\n        /* \"#utility.yul\":21981:22005   */\n      tag_638\n        /* \"#utility.yul\":21999:22004   */\n      dup3\n        /* \"#utility.yul\":21981:22005   */\n      tag_357\n      jump\t// in\n    tag_638:\n        /* \"#utility.yul\":21972:22005   */\n      swap2\n      pop\n        /* \"#utility.yul\":22027:22093   */\n      0xffffffffffffffffffffffffffffffffffffffffffffffffffffffffffffffff\n        /* \"#utility.yul\":22020:22025   */\n      dup3\n        /* \"#utility.yul\":22017:22094   */\n      sub\n        /* \"#utility.yul\":22014:22117   */\n      tag_639\n      jumpi\n        /* \"#utility.yul\":22097:22115   */\n      tag_640\n      tag_390\n      jump\t// in\n    tag_640:\n        /* \"#utility.yul\":22014:22117   */\n    tag_639:\n        /* \"#utility.yul\":22144:22145   */\n      0x01\n        /* \"#utility.yul\":22137:22142   */\n      dup3\n        /* \"#utility.yul\":22133:22146   */\n      add\n        /* \"#utility.yul\":22126:22146   */\n      swap1\n      pop\n        /* \"#utility.yul\":21919:22152   */\n      swap2\n      swap1\n      pop\n      jump\t// out\n        /* \"#utility.yul\":22158:22243   */\n    tag_391:\n        /* \"#utility.yul\":22203:22210   */\n      0x00\n        /* \"#utility.yul\":22232:22237   */\n      dup2\n        /* \"#utility.yul\":22221:22237   */\n      swap1\n      pop\n        /* \"#utility.yul\":22158:22243   */\n      swap2\n      swap1\n      pop\n      jump\t// out\n        /* \"#utility.yul\":22249:22407   */\n    tag_392:\n        /* \"#utility.yul\":22307:22316   */\n      0x00\n        /* \"#utility.yul\":22340:22401   */\n      tag_643\n        /* \"#utility.yul\":22358:22400   */\n      tag_644\n        /* \"#utility.yul\":22367:22399   */\n      tag_645\n        /* \"#utility.yul\":22393:22398   */\n      dup5\n        /* \"#utility.yul\":22367:22399   */\n      tag_391\n      jump\t// in\n    tag_645:\n        /* \"#utility.yul\":22358:22400   */\n      tag_379\n      jump\t// in\n    tag_644:\n        /* \"#utility.yul\":22340:22401   */\n      tag_357\n      jump\t// in\n    tag_643:\n        /* \"#utility.yul\":22327:22401   */\n      swap1\n      pop\n        /* \"#utility.yul\":22249:22407   */\n      swap2\n      swap1\n      pop\n      jump\t// out\n        /* \"#utility.yul\":22413:22560   */\n    tag_393:\n        /* \"#utility.yul\":22508:22553   */\n      tag_647\n        /* \"#utility.yul\":22547:22552   */\n      dup2\n        /* \"#utility.yul\":22508:22553   */\n      tag_392\n      jump\t// in\n    tag_647:\n        /* \"#utility.yul\":22503:22506   */\n      dup3\n        /* \"#utility.yul\":22496:22554   */\n      mstore\n        /* \"#utility.yul\":22413:22560   */\n      pop\n      pop\n      jump\t// out\n        /* \"#utility.yul\":22566:22651   */\n    tag_394:\n        /* \"#utility.yul\":22611:22618   */\n      0x00\n        /* \"#utility.yul\":22640:22645   */\n      dup2\n        /* \"#utility.yul\":22629:22645   */\n      swap1\n      pop\n        /* \"#utility.yul\":22566:22651   */\n      swap2\n      swap1\n      pop\n      jump\t// out\n        /* \"#utility.yul\":22657:22811   */\n    tag_395:\n        /* \"#utility.yul\":22713:22722   */\n      0x00\n        /* \"#utility.yul\":22746:22805   */\n      tag_650\n        /* \"#utility.yul\":22762:22804   */\n      tag_651\n        /* \"#utility.yul\":22771:22803   */\n      tag_652\n        /* \"#utility.yul\":22797:22802   */\n      dup5\n        /* \"#utility.yul\":22771:22803   */\n      tag_394\n      jump\t// in\n    tag_652:\n        /* \"#utility.yul\":22762:22804   */\n      tag_379\n      jump\t// in\n    tag_651:\n        /* \"#utility.yul\":22746:22805   */\n      tag_355\n      jump\t// in\n    tag_650:\n        /* \"#utility.yul\":22733:22805   */\n      swap1\n      pop\n        /* \"#utility.yul\":22657:22811   */\n      swap2\n      swap1\n      pop\n      jump\t// out\n        /* \"#utility.yul\":22817:22960   */\n    tag_396:\n        /* \"#utility.yul\":22910:22953   */\n      tag_654\n        /* \"#utility.yul\":22947:22952   */\n      dup2\n        /* \"#utility.yul\":22910:22953   */\n      tag_395\n      jump\t// in\n    tag_654:\n        /* \"#utility.yul\":22905:22908   */\n      dup3\n        /* \"#utility.yul\":22898:22954   */\n      mstore\n        /* \"#utility.yul\":22817:22960   */\n      pop\n      pop\n      jump\t// out\n        /* \"#utility.yul\":22966:23547   */\n    tag_144:\n        /* \"#utility.yul\":23157:23161   */\n      0x00\n        /* \"#utility.yul\":23195:23198   */\n      0x80\n        /* \"#utility.yul\":23184:23193   */\n      dup3\n        /* \"#utility.yul\":23180:23199   */\n      add\n        /* \"#utility.yul\":23172:23199   */\n      swap1\n      pop\n        /* \"#utility.yul\":23209:23280   */\n      tag_656\n        /* \"#utility.yul\":23277:23278   */\n      0x00\n        /* \"#utility.yul\":23266:23275   */\n      dup4\n        /* \"#utility.yul\":23262:23279   */\n      add\n        /* \"#utility.yul\":23253:23259   */\n      dup8\n        /* \"#utility.yul\":23209:23280   */\n      tag_361\n      jump\t// in\n    tag_656:\n        /* \"#utility.yul\":23290:23370   */\n      tag_657\n        /* \"#utility.yul\":23366:23368   */\n      0x20\n        /* \"#utility.yul\":23355:23364   */\n      dup4\n        /* \"#utility.yul\":23351:23369   */\n      add\n        /* \"#utility.yul\":23342:23348   */\n      dup7\n        /* \"#utility.yul\":23290:23370   */\n      tag_393\n      jump\t// in\n    tag_657:\n        /* \"#utility.yul\":23380:23452   */\n      tag_658\n        /* \"#utility.yul\":23448:23450   */\n      0x40\n        /* \"#utility.yul\":23437:23446   */\n      dup4\n        /* \"#utility.yul\":23433:23451   */\n      add\n        /* \"#utility.yul\":23424:23430   */\n      dup6\n        /* \"#utility.yul\":23380:23452   */\n      tag_361\n      jump\t// in\n    tag_658:\n        /* \"#utility.yul\":23462:23540   */\n      tag_659\n        /* \"#utility.yul\":23536:23538   */\n      0x60\n        /* \"#utility.yul\":23525:23534   */\n      dup4\n        /* \"#utility.yul\":23521:23539   */\n      add\n        /* \"#utility.yul\":23512:23518   */\n      dup5\n        /* \"#utility.yul\":23462:23540   */\n      tag_396\n      jump\t// in\n    tag_659:\n        /* \"#utility.yul\":22966:23547   */\n      swap6\n      swap5\n      pop\n      pop\n      pop\n      pop\n      pop\n      jump\t// out\n        /* \"#utility.yul\":23553:23724   */\n    tag_397:\n        /* \"#utility.yul\":23693:23716   */\n      0x55706c696e6520646f6573206e6f742065786973740000000000000000000000\n        /* \"#utility.yul\":23689:23690   */\n      0x00\n        /* \"#utility.yul\":23681:23687   */\n      dup3\n        /* \"#utility.yul\":23677:23691   */\n      add\n        /* \"#utility.yul\":23670:23717   */\n      mstore\n        /* \"#utility.yul\":23553:23724   */\n      pop\n      jump\t// out\n        /* \"#utility.yul\":23730:24096   */\n    tag_398:\n        /* \"#utility.yul\":23872:23875   */\n      0x00\n        /* \"#utility.yul\":23893:23960   */\n      tag_662\n        /* \"#utility.yul\":23957:23959   */\n      0x15\n        /* \"#utility.yul\":23952:23955   */\n      dup4\n        /* \"#utility.yul\":23893:23960   */\n      tag_363\n      jump\t// in\n    tag_662:\n        /* \"#utility.yul\":23886:23960   */\n      swap2\n      pop\n        /* \"#utility.yul\":23969:24062   */\n      tag_663\n        /* \"#utility.yul\":24058:24061   */\n      dup3\n        /* \"#utility.yul\":23969:24062   */\n      tag_397\n      jump\t// in\n    tag_663:\n        /* \"#utility.yul\":24087:24089   */\n      0x20\n        /* \"#utility.yul\":24082:24085   */\n      dup3\n        /* \"#utility.yul\":24078:24090   */\n      add\n        /* \"#utility.yul\":24071:24090   */\n      swap1\n      pop\n        /* \"#utility.yul\":23730:24096   */\n      swap2\n      swap1\n      pop\n      jump\t// out\n        /* \"#utility.yul\":24102:24521   */\n    tag_148:\n        /* \"#utility.yul\":24268:24272   */\n      0x00\n        /* \"#utility.yul\":24306:24308   */\n      0x20\n        /* \"#utility.yul\":24295:24304   */\n      dup3\n        /* \"#utility.yul\":24291:24309   */\n      add\n        /* \"#utility.yul\":24283:24309   */\n      swap1\n      pop\n        /* \"#utility.yul\":24355:24364   */\n      dup2\n        /* \"#utility.yul\":24349:24353   */\n      dup2\n        /* \"#utility.yul\":24345:24365   */\n      sub\n        /* \"#utility.yul\":24341:24342   */\n      0x00\n        /* \"#utility.yul\":24330:24339   */\n      dup4\n        /* \"#utility.yul\":24326:24343   */\n      add\n        /* \"#utility.yul\":24319:24366   */\n      mstore\n        /* \"#utility.yul\":24383:24514   */\n      tag_665\n        /* \"#utility.yul\":24509:24513   */\n      dup2\n        /* \"#utility.yul\":24383:24514   */\n      tag_398\n      jump\t// in\n    tag_665:\n        /* \"#utility.yul\":24375:24514   */\n      swap1\n      pop\n        /* \"#utility.yul\":24102:24521   */\n      swap2\n      swap1\n      pop\n      jump\t// out\n        /* \"#utility.yul\":24527:25092   */\n    tag_166:\n        /* \"#utility.yul\":24710:24714   */\n      0x00\n        /* \"#utility.yul\":24748:24751   */\n      0x80\n        /* \"#utility.yul\":24737:24746   */\n      dup3\n        /* \"#utility.yul\":24733:24752   */\n      add\n        /* \"#utility.yul\":24725:24752   */\n      swap1\n      pop\n        /* \"#utility.yul\":24762:24833   */\n      tag_667\n        /* \"#utility.yul\":24830:24831   */\n      0x00\n        /* \"#utility.yul\":24819:24828   */\n      dup4\n        /* \"#utility.yul\":24815:24832   */\n      add\n        /* \"#utility.yul\":24806:24812   */\n      dup8\n        /* \"#utility.yul\":24762:24833   */\n      tag_361\n      jump\t// in\n    tag_667:\n        /* \"#utility.yul\":24843:24915   */\n      tag_668\n        /* \"#utility.yul\":24911:24913   */\n      0x20\n        /* \"#utility.yul\":24900:24909   */\n      dup4\n        /* \"#utility.yul\":24896:24914   */\n      add\n        /* \"#utility.yul\":24887:24893   */\n      dup7\n        /* \"#utility.yul\":24843:24915   */\n      tag_361\n      jump\t// in\n    tag_668:\n        /* \"#utility.yul\":24925:24997   */\n      tag_669\n        /* \"#utility.yul\":24993:24995   */\n      0x40\n        /* \"#utility.yul\":24982:24991   */\n      dup4\n        /* \"#utility.yul\":24978:24996   */\n      add\n        /* \"#utility.yul\":24969:24975   */\n      dup6\n        /* \"#utility.yul\":24925:24997   */\n      tag_361\n      jump\t// in\n    tag_669:\n        /* \"#utility.yul\":25007:25085   */\n      tag_670\n        /* \"#utility.yul\":25081:25083   */\n      0x60\n        /* \"#utility.yul\":25070:25079   */\n      dup4\n        /* \"#utility.yul\":25066:25084   */\n      add\n        /* \"#utility.yul\":25057:25063   */\n      dup5\n        /* \"#utility.yul\":25007:25085   */\n      tag_396\n      jump\t// in\n    tag_670:\n        /* \"#utility.yul\":24527:25092   */\n      swap6\n      swap5\n      pop\n      pop\n      pop\n      pop\n      pop\n      jump\t// out\n        /* \"#utility.yul\":25098:25261   */\n    tag_399:\n        /* \"#utility.yul\":25238:25253   */\n      0x496e76616c6964206c6576656c00000000000000000000000000000000000000\n        /* \"#utility.yul\":25234:25235   */\n      0x00\n        /* \"#utility.yul\":25226:25232   */\n      dup3\n        /* \"#utility.yul\":25222:25236   */\n      add\n        /* \"#utility.yul\":25215:25254   */\n      mstore\n        /* \"#utility.yul\":25098:25261   */\n      pop\n      jump\t// out\n        /* \"#utility.yul\":25267:25633   */\n    tag_400:\n        /* \"#utility.yul\":25409:25412   */\n      0x00\n        /* \"#utility.yul\":25430:25497   */\n      tag_673\n        /* \"#utility.yul\":25494:25496   */\n      0x0d\n        /* \"#utility.yul\":25489:25492   */\n      dup4\n        /* \"#utility.yul\":25430:25497   */\n      tag_363\n      jump\t// in\n    tag_673:\n        /* \"#utility.yul\":25423:25497   */\n      swap2\n      pop\n        /* \"#utility.yul\":25506:25599   */\n      tag_674\n        /* \"#utility.yul\":25595:25598   */\n      dup3\n        /* \"#utility.yul\":25506:25599   */\n      tag_399\n      jump\t// in\n    tag_674:\n        /* \"#utility.yul\":25624:25626   */\n      0x20\n        /* \"#utility.yul\":25619:25622   */\n      dup3\n        /* \"#utility.yul\":25615:25627   */\n      add\n        /* \"#utility.yul\":25608:25627   */\n      swap1\n      pop\n        /* \"#utility.yul\":25267:25633   */\n      swap2\n      swap1\n      pop\n      jump\t// out\n        /* \"#utility.yul\":25639:26058   */\n    tag_199:\n        /* \"#utility.yul\":25805:25809   */\n      0x00\n        /* \"#utility.yul\":25843:25845   */\n      0x20\n        /* \"#utility.yul\":25832:25841   */\n      dup3\n        /* \"#utility.yul\":25828:25846   */\n      add\n        /* \"#utility.yul\":25820:25846   */\n      swap1\n      pop\n        /* \"#utility.yul\":25892:25901   */\n      dup2\n        /* \"#utility.yul\":25886:25890   */\n      dup2\n        /* \"#utility.yul\":25882:25902   */\n      sub\n        /* \"#utility.yul\":25878:25879   */\n      0x00\n        /* \"#utility.yul\":25867:25876   */\n      dup4\n        /* \"#utility.yul\":25863:25880   */\n      add\n        /* \"#utility.yul\":25856:25903   */\n      mstore\n        /* \"#utility.yul\":25920:26051   */\n      tag_676\n        /* \"#utility.yul\":26046:26050   */\n      dup2\n        /* \"#utility.yul\":25920:26051   */\n      tag_400\n      jump\t// in\n    tag_676:\n        /* \"#utility.yul\":25912:26051   */\n      swap1\n      pop\n        /* \"#utility.yul\":25639:26058   */\n      swap2\n      swap1\n      pop\n      jump\t// out\n        /* \"#utility.yul\":26064:26293   */\n    tag_401:\n        /* \"#utility.yul\":26204:26238   */\n      0x43616e6e6f7420646f776e6772616465206f7220737461792061742074686520\n        /* \"#utility.yul\":26200:26201   */\n      0x00\n        /* \"#utility.yul\":26192:26198   */\n      dup3\n        /* \"#utility.yul\":26188:26202   */\n      add\n        /* \"#utility.yul\":26181:26239   */\n      mstore\n        /* \"#utility.yul\":26273:26285   */\n      0x73616d65206c6576656c00000000000000000000000000000000000000000000\n        /* \"#utility.yul\":26268:26270   */\n      0x20\n        /* \"#utility.yul\":26260:26266   */\n      dup3\n        /* \"#utility.yul\":26256:26271   */\n      add\n        /* \"#utility.yul\":26249:26286   */\n      mstore\n        /* \"#utility.yul\":26064:26293   */\n      pop\n      jump\t// out\n        /* \"#utility.yul\":26299:26665   */\n    tag_402:\n        /* \"#utility.yul\":26441:26444   */\n      0x00\n        /* \"#utility.yul\":26462:26529   */\n      tag_679\n        /* \"#utility.yul\":26526:26528   */\n      0x2a\n        /* \"#utility.yul\":26521:26524   */\n      dup4\n        /* \"#utility.yul\":26462:26529   */\n      tag_363\n      jump\t// in\n    tag_679:\n        /* \"#utility.yul\":26455:26529   */\n      swap2\n      pop\n        /* \"#utility.yul\":26538:26631   */\n      tag_680\n        /* \"#utility.yul\":26627:26630   */\n      dup3\n        /* \"#utility.yul\":26538:26631   */\n      tag_401\n      jump\t// in\n    tag_680:\n        /* \"#utility.yul\":26656:26658   */\n      0x40\n        /* \"#utility.yul\":26651:26654   */\n      dup3\n        /* \"#utility.yul\":26647:26659   */\n      add\n        /* \"#utility.yul\":26640:26659   */\n      swap1\n      pop\n        /* \"#utility.yul\":26299:26665   */\n      swap2\n      swap1\n      pop\n      jump\t// out\n        /* \"#utility.yul\":26671:27090   */\n    tag_203:\n        /* \"#utility.yul\":26837:26841   */\n      0x00\n        /* \"#utility.yul\":26875:26877   */\n      0x20\n        /* \"#utility.yul\":26864:26873   */\n      dup3\n        /* \"#utility.yul\":26860:26878   */\n      add\n        /* \"#utility.yul\":26852:26878   */\n      swap1\n      pop\n        /* \"#utility.yul\":26924:26933   */\n      dup2\n        /* \"#utility.yul\":26918:26922   */\n      dup2\n        /* \"#utility.yul\":26914:26934   */\n      sub\n        /* \"#utility.yul\":26910:26911   */\n      0x00\n        /* \"#utility.yul\":26899:26908   */\n      dup4\n        /* \"#utility.yul\":26895:26912   */\n      add\n        /* \"#utility.yul\":26888:26935   */\n      mstore\n        /* \"#utility.yul\":26952:27083   */\n      tag_682\n        /* \"#utility.yul\":27078:27082   */\n      dup2\n        /* \"#utility.yul\":26952:27083   */\n      tag_402\n      jump\t// in\n    tag_682:\n        /* \"#utility.yul\":26944:27083   */\n      swap1\n      pop\n        /* \"#utility.yul\":26671:27090   */\n      swap2\n      swap1\n      pop\n      jump\t// out\n        /* \"#utility.yul\":27096:27506   */\n    tag_207:\n        /* \"#utility.yul\":27136:27143   */\n      0x00\n        /* \"#utility.yul\":27159:27179   */\n      tag_684\n        /* \"#utility.yul\":27177:27178   */\n      dup3\n        /* \"#utility.yul\":27159:27179   */\n      tag_357\n      jump\t// in\n    tag_684:\n        /* \"#utility.yul\":27154:27179   */\n      swap2\n      pop\n        /* \"#utility.yul\":27193:27213   */\n      tag_685\n        /* \"#utility.yul\":27211:27212   */\n      dup4\n        /* \"#utility.yul\":27193:27213   */\n      tag_357\n      jump\t// in\n    tag_685:\n        /* \"#utility.yul\":27188:27213   */\n      swap3\n      pop\n        /* \"#utility.yul\":27248:27249   */\n      dup3\n        /* \"#utility.yul\":27245:27246   */\n      dup3\n        /* \"#utility.yul\":27241:27250   */\n      mul\n        /* \"#utility.yul\":27270:27300   */\n      tag_686\n        /* \"#utility.yul\":27288:27299   */\n      dup2\n        /* \"#utility.yul\":27270:27300   */\n      tag_357\n      jump\t// in\n    tag_686:\n        /* \"#utility.yul\":27259:27300   */\n      swap2\n      pop\n        /* \"#utility.yul\":27449:27450   */\n      dup3\n        /* \"#utility.yul\":27440:27447   */\n      dup3\n        /* \"#utility.yul\":27436:27451   */\n      div\n        /* \"#utility.yul\":27433:27434   */\n      dup5\n        /* \"#utility.yul\":27430:27452   */\n      eq\n        /* \"#utility.yul\":27410:27411   */\n      dup4\n        /* \"#utility.yul\":27403:27412   */\n      iszero\n        /* \"#utility.yul\":27383:27466   */\n      or\n        /* \"#utility.yul\":27360:27499   */\n      tag_687\n      jumpi\n        /* \"#utility.yul\":27479:27497   */\n      tag_688\n      tag_390\n      jump\t// in\n    tag_688:\n        /* \"#utility.yul\":27360:27499   */\n    tag_687:\n        /* \"#utility.yul\":27144:27506   */\n      pop\n        /* \"#utility.yul\":27096:27506   */\n      swap3\n      swap2\n      pop\n      pop\n      jump\t// out\n        /* \"#utility.yul\":27512:27692   */\n    tag_403:\n        /* \"#utility.yul\":27560:27637   */\n      0x4e487b7100000000000000000000000000000000000000000000000000000000\n        /* \"#utility.yul\":27557:27558   */\n      0x00\n        /* \"#utility.yul\":27550:27638   */\n      mstore\n        /* \"#utility.yul\":27657:27661   */\n      0x12\n        /* \"#utility.yul\":27654:27655   */\n      0x04\n        /* \"#utility.yul\":27647:27662   */\n      mstore\n        /* \"#utility.yul\":27681:27685   */\n      0x24\n        /* \"#utility.yul\":27678:27679   */\n      0x00\n        /* \"#utility.yul\":27671:27686   */\n      revert\n        /* \"#utility.yul\":27698:27883   */\n    tag_209:\n        /* \"#utility.yul\":27738:27739   */\n      0x00\n        /* \"#utility.yul\":27755:27775   */\n      tag_691\n        /* \"#utility.yul\":27773:27774   */\n      dup3\n        /* \"#utility.yul\":27755:27775   */\n      tag_357\n      jump\t// in\n    tag_691:\n        /* \"#utility.yul\":27750:27775   */\n      swap2\n      pop\n        /* \"#utility.yul\":27789:27809   */\n      tag_692\n        /* \"#utility.yul\":27807:27808   */\n      dup4\n        /* \"#utility.yul\":27789:27809   */\n      tag_357\n      jump\t// in\n    tag_692:\n        /* \"#utility.yul\":27784:27809   */\n      swap3\n      pop\n        /* \"#utility.yul\":27828:27829   */\n      dup3\n        /* \"#utility.yul\":27818:27853   */\n      tag_693\n      jumpi\n        /* \"#utility.yul\":27833:27851   */\n      tag_694\n      tag_403\n      jump\t// in\n    tag_694:\n        /* \"#utility.yul\":27818:27853   */\n    tag_693:\n        /* \"#utility.yul\":27875:27876   */\n      dup3\n        /* \"#utility.yul\":27872:27873   */\n      dup3\n        /* \"#utility.yul\":27868:27877   */\n      div\n        /* \"#utility.yul\":27863:27877   */\n      swap1\n      pop\n        /* \"#utility.yul\":27698:27883   */\n      swap3\n      swap2\n      pop\n      pop\n      jump\t// out\n        /* \"#utility.yul\":27889:28083   */\n    tag_211:\n        /* \"#utility.yul\":27929:27933   */\n      0x00\n        /* \"#utility.yul\":27949:27969   */\n      tag_696\n        /* \"#utility.yul\":27967:27968   */\n      dup3\n        /* \"#utility.yul\":27949:27969   */\n      tag_357\n      jump\t// in\n    tag_696:\n        /* \"#utility.yul\":27944:27969   */\n      swap2\n      pop\n        /* \"#utility.yul\":27983:28003   */\n      tag_697\n        /* \"#utility.yul\":28001:28002   */\n      dup4\n        /* \"#utility.yul\":27983:28003   */\n      tag_357\n      jump\t// in\n    tag_697:\n        /* \"#utility.yul\":27978:28003   */\n      swap3\n      pop\n        /* \"#utility.yul\":28027:28028   */\n      dup3\n        /* \"#utility.yul\":28024:28025   */\n      dup3\n        /* \"#utility.yul\":28020:28029   */\n      sub\n        /* \"#utility.yul\":28012:28029   */\n      swap1\n      pop\n        /* \"#utility.yul\":28051:28052   */\n      dup2\n        /* \"#utility.yul\":28045:28049   */\n      dup2\n        /* \"#utility.yul\":28042:28053   */\n      gt\n        /* \"#utility.yul\":28039:28076   */\n      iszero\n      tag_698\n      jumpi\n        /* \"#utility.yul\":28056:28074   */\n      tag_699\n      tag_390\n      jump\t// in\n    tag_699:\n        /* \"#utility.yul\":28039:28076   */\n    tag_698:\n        /* \"#utility.yul\":27889:28083   */\n      swap3\n      swap2\n      pop\n      pop\n      jump\t// out\n        /* \"#utility.yul\":28089:28236   */\n    tag_404:\n        /* \"#utility.yul\":28190:28201   */\n      0x00\n        /* \"#utility.yul\":28227:28230   */\n      dup2\n        /* \"#utility.yul\":28212:28230   */\n      swap1\n      pop\n        /* \"#utility.yul\":28089:28236   */\n      swap3\n      swap2\n      pop\n      pop\n      jump\t// out\n        /* \"#utility.yul\":28242:28356   */\n    tag_405:\n      pop\n      jump\t// out\n        /* \"#utility.yul\":28362:28760   */\n    tag_406:\n        /* \"#utility.yul\":28521:28524   */\n      0x00\n        /* \"#utility.yul\":28542:28625   */\n      tag_703\n        /* \"#utility.yul\":28623:28624   */\n      0x00\n        /* \"#utility.yul\":28618:28621   */\n      dup4\n        /* \"#utility.yul\":28542:28625   */\n      tag_404\n      jump\t// in\n    tag_703:\n        /* \"#utility.yul\":28535:28625   */\n      swap2\n      pop\n        /* \"#utility.yul\":28634:28727   */\n      tag_704\n        /* \"#utility.yul\":28723:28726   */\n      dup3\n        /* \"#utility.yul\":28634:28727   */\n      tag_405\n      jump\t// in\n    tag_704:\n        /* \"#utility.yul\":28752:28753   */\n      0x00\n        /* \"#utility.yul\":28747:28750   */\n      dup3\n        /* \"#utility.yul\":28743:28754   */\n      add\n        /* \"#utility.yul\":28736:28754   */\n      swap1\n      pop\n        /* \"#utility.yul\":28362:28760   */\n      swap2\n      swap1\n      pop\n      jump\t// out\n        /* \"#utility.yul\":28766:29145   */\n    tag_214:\n        /* \"#utility.yul\":28950:28953   */\n      0x00\n        /* \"#utility.yul\":28972:29119   */\n      tag_706\n        /* \"#utility.yul\":29115:29118   */\n      dup3\n        /* \"#utility.yul\":28972:29119   */\n      tag_406\n      jump\t// in\n    tag_706:\n        /* \"#utility.yul\":28965:29119   */\n      swap2\n      pop\n        /* \"#utility.yul\":29136:29139   */\n      dup2\n        /* \"#utility.yul\":29129:29139   */\n      swap1\n      pop\n        /* \"#utility.yul\":28766:29145   */\n      swap2\n      swap1\n      pop\n      jump\t// out\n        /* \"#utility.yul\":29151:29326   */\n    tag_407:\n        /* \"#utility.yul\":29291:29318   */\n      0x5472616e7366657220746f2075706c696e65206661696c656400000000000000\n        /* \"#utility.yul\":29287:29288   */\n      0x00\n        /* \"#utility.yul\":29279:29285   */\n      dup3\n        /* \"#utility.yul\":29275:29289   */\n      add\n        /* \"#utility.yul\":29268:29319   */\n      mstore\n        /* \"#utility.yul\":29151:29326   */\n      pop\n      jump\t// out\n        /* \"#utility.yul\":29332:29698   */\n    tag_408:\n        /* \"#utility.yul\":29474:29477   */\n      0x00\n        /* \"#utility.yul\":29495:29562   */\n      tag_709\n        /* \"#utility.yul\":29559:29561   */\n      0x19\n        /* \"#utility.yul\":29554:29557   */\n      dup4\n        /* \"#utility.yul\":29495:29562   */\n      tag_363\n      jump\t// in\n    tag_709:\n        /* \"#utility.yul\":29488:29562   */\n      swap2\n      pop\n        /* \"#utility.yul\":29571:29664   */\n      tag_710\n        /* \"#utility.yul\":29660:29663   */\n      dup3\n        /* \"#utility.yul\":29571:29664   */\n      tag_407\n      jump\t// in\n    tag_710:\n        /* \"#utility.yul\":29689:29691   */\n      0x20\n        /* \"#utility.yul\":29684:29687   */\n      dup3\n        /* \"#utility.yul\":29680:29692   */\n      add\n        /* \"#utility.yul\":29673:29692   */\n      swap1\n      pop\n        /* \"#utility.yul\":29332:29698   */\n      swap2\n      swap1\n      pop\n      jump\t// out\n        /* \"#utility.yul\":29704:30123   */\n    tag_220:\n        /* \"#utility.yul\":29870:29874   */\n      0x00\n        /* \"#utility.yul\":29908:29910   */\n      0x20\n        /* \"#utility.yul\":29897:29906   */\n      dup3\n        /* \"#utility.yul\":29893:29911   */\n      add\n        /* \"#utility.yul\":29885:29911   */\n      swap1\n      pop\n        /* \"#utility.yul\":29957:29966   */\n      dup2\n        /* \"#utility.yul\":29951:29955   */\n      dup2\n        /* \"#utility.yul\":29947:29967   */\n      sub\n        /* \"#utility.yul\":29943:29944   */\n      0x00\n        /* \"#utility.yul\":29932:29941   */\n      dup4\n        /* \"#utility.yul\":29928:29945   */\n      add\n        /* \"#utility.yul\":29921:29968   */\n      mstore\n        /* \"#utility.yul\":29985:30116   */\n      tag_712\n        /* \"#utility.yul\":30111:30115   */\n      dup2\n        /* \"#utility.yul\":29985:30116   */\n      tag_408\n      jump\t// in\n    tag_712:\n        /* \"#utility.yul\":29977:30116   */\n      swap1\n      pop\n        /* \"#utility.yul\":29704:30123   */\n      swap2\n      swap1\n      pop\n      jump\t// out\n        /* \"#utility.yul\":30129:30320   */\n    tag_222:\n        /* \"#utility.yul\":30169:30172   */\n      0x00\n        /* \"#utility.yul\":30188:30208   */\n      tag_714\n        /* \"#utility.yul\":30206:30207   */\n      dup3\n        /* \"#utility.yul\":30188:30208   */\n      tag_357\n      jump\t// in\n    tag_714:\n        /* \"#utility.yul\":30183:30208   */\n      swap2\n      pop\n        /* \"#utility.yul\":30222:30242   */\n      tag_715\n        /* \"#utility.yul\":30240:30241   */\n      dup4\n        /* \"#utility.yul\":30222:30242   */\n      tag_357\n      jump\t// in\n    tag_715:\n        /* \"#utility.yul\":30217:30242   */\n      swap3\n      pop\n        /* \"#utility.yul\":30265:30266   */\n      dup3\n        /* \"#utility.yul\":30262:30263   */\n      dup3\n        /* \"#utility.yul\":30258:30267   */\n      add\n        /* \"#utility.yul\":30251:30267   */\n      swap1\n      pop\n        /* \"#utility.yul\":30286:30289   */\n      dup1\n        /* \"#utility.yul\":30283:30284   */\n      dup3\n        /* \"#utility.yul\":30280:30290   */\n      gt\n        /* \"#utility.yul\":30277:30313   */\n      iszero\n      tag_716\n      jumpi\n        /* \"#utility.yul\":30293:30311   */\n      tag_717\n      tag_390\n      jump\t// in\n    tag_717:\n        /* \"#utility.yul\":30277:30313   */\n    tag_716:\n        /* \"#utility.yul\":30129:30320   */\n      swap3\n      swap2\n      pop\n      pop\n      jump\t// out\n        /* \"#utility.yul\":30326:30871   */\n    tag_229:\n        /* \"#utility.yul\":30499:30503   */\n      0x00\n        /* \"#utility.yul\":30537:30540   */\n      0x80\n        /* \"#utility.yul\":30526:30535   */\n      dup3\n        /* \"#utility.yul\":30522:30541   */\n      add\n        /* \"#utility.yul\":30514:30541   */\n      swap1\n      pop\n        /* \"#utility.yul\":30551:30618   */\n      tag_719\n        /* \"#utility.yul\":30615:30616   */\n      0x00\n        /* \"#utility.yul\":30604:30613   */\n      dup4\n        /* \"#utility.yul\":30600:30617   */\n      add\n        /* \"#utility.yul\":30591:30597   */\n      dup8\n        /* \"#utility.yul\":30551:30618   */\n      tag_356\n      jump\t// in\n    tag_719:\n        /* \"#utility.yul\":30628:30700   */\n      tag_720\n        /* \"#utility.yul\":30696:30698   */\n      0x20\n        /* \"#utility.yul\":30685:30694   */\n      dup4\n        /* \"#utility.yul\":30681:30699   */\n      add\n        /* \"#utility.yul\":30672:30678   */\n      dup7\n        /* \"#utility.yul\":30628:30700   */\n      tag_361\n      jump\t// in\n    tag_720:\n        /* \"#utility.yul\":30710:30782   */\n      tag_721\n        /* \"#utility.yul\":30778:30780   */\n      0x40\n        /* \"#utility.yul\":30767:30776   */\n      dup4\n        /* \"#utility.yul\":30763:30781   */\n      add\n        /* \"#utility.yul\":30754:30760   */\n      dup6\n        /* \"#utility.yul\":30710:30782   */\n      tag_361\n      jump\t// in\n    tag_721:\n        /* \"#utility.yul\":30792:30864   */\n      tag_722\n        /* \"#utility.yul\":30860:30862   */\n      0x60\n        /* \"#utility.yul\":30849:30858   */\n      dup4\n        /* \"#utility.yul\":30845:30863   */\n      add\n        /* \"#utility.yul\":30836:30842   */\n      dup5\n        /* \"#utility.yul\":30792:30864   */\n      tag_361\n      jump\t// in\n    tag_722:\n        /* \"#utility.yul\":30326:30871   */\n      swap6\n      swap5\n      pop\n      pop\n      pop\n      pop\n      pop\n      jump\t// out\n        /* \"#utility.yul\":30877:31060   */\n    tag_409:\n        /* \"#utility.yul\":31017:31048   */\n      0x68747470733a2f2f6578616d706c652e636f6d2f726566657272616c2f000000\n        /* \"#utility.yul\":31013:31014   */\n      0x00\n        /* \"#utility.yul\":31005:31011   */\n      dup3\n        /* \"#utility.yul\":31001:31015   */\n      add\n        /* \"#utility.yul\":30994:31049   */\n      mstore\n        /* \"#utility.yul\":30877:31060   */\n      pop\n      jump\t// out\n        /* \"#utility.yul\":31070:31488   */\n    tag_410:\n        /* \"#utility.yul\":31230:31233   */\n      0x00\n        /* \"#utility.yul\":31255:31340   */\n      tag_725\n        /* \"#utility.yul\":31337:31339   */\n      0x1d\n        /* \"#utility.yul\":31332:31335   */\n      dup4\n        /* \"#utility.yul\":31255:31340   */\n      tag_372\n      jump\t// in\n    tag_725:\n        /* \"#utility.yul\":31248:31340   */\n      swap2\n      pop\n        /* \"#utility.yul\":31353:31446   */\n      tag_726\n        /* \"#utility.yul\":31442:31445   */\n      dup3\n        /* \"#utility.yul\":31353:31446   */\n      tag_409\n      jump\t// in\n    tag_726:\n        /* \"#utility.yul\":31475:31477   */\n      0x1d\n        /* \"#utility.yul\":31470:31473   */\n      dup3\n        /* \"#utility.yul\":31466:31478   */\n      add\n        /* \"#utility.yul\":31459:31478   */\n      swap1\n      pop\n        /* \"#utility.yul\":31070:31488   */\n      swap2\n      swap1\n      pop\n      jump\t// out\n        /* \"#utility.yul\":31498:32055   */\n    tag_265:\n        /* \"#utility.yul\":31731:31734   */\n      0x00\n        /* \"#utility.yul\":31757:31905   */\n      tag_728\n        /* \"#utility.yul\":31901:31904   */\n      dup3\n        /* \"#utility.yul\":31757:31905   */\n      tag_410\n      jump\t// in\n    tag_728:\n        /* \"#utility.yul\":31750:31905   */\n      swap2\n      pop\n        /* \"#utility.yul\":31926:32021   */\n      tag_729\n        /* \"#utility.yul\":32017:32020   */\n      dup3\n        /* \"#utility.yul\":32008:32014   */\n      dup5\n        /* \"#utility.yul\":31926:32021   */\n      tag_373\n      jump\t// in\n    tag_729:\n        /* \"#utility.yul\":31919:32021   */\n      swap2\n      pop\n        /* \"#utility.yul\":32042:32045   */\n      dup2\n        /* \"#utility.yul\":32035:32045   */\n      swap1\n      pop\n        /* \"#utility.yul\":31498:32055   */\n      swap3\n      swap2\n      pop\n      pop\n      jump\t// out\n        /* \"#utility.yul\":32065:32261   */\n    tag_313:\n        /* \"#utility.yul\":32097:32098   */\n      0x00\n        /* \"#utility.yul\":32118:32138   */\n      tag_731\n        /* \"#utility.yul\":32136:32137   */\n      dup3\n        /* \"#utility.yul\":32118:32138   */\n      tag_357\n      jump\t// in\n    tag_731:\n        /* \"#utility.yul\":32113:32138   */\n      swap2\n      pop\n        /* \"#utility.yul\":32156:32176   */\n      tag_732\n        /* \"#utility.yul\":32174:32175   */\n      dup4\n        /* \"#utility.yul\":32156:32176   */\n      tag_357\n      jump\t// in\n    tag_732:\n        /* \"#utility.yul\":32151:32176   */\n      swap3\n      pop\n        /* \"#utility.yul\":32199:32200   */\n      dup3\n        /* \"#utility.yul\":32189:32224   */\n      tag_733\n      jumpi\n        /* \"#utility.yul\":32204:32222   */\n      tag_734\n      tag_403\n      jump\t// in\n    tag_734:\n        /* \"#utility.yul\":32189:32224   */\n    tag_733:\n        /* \"#utility.yul\":32249:32250   */\n      dup3\n        /* \"#utility.yul\":32246:32247   */\n      dup3\n        /* \"#utility.yul\":32242:32251   */\n      mod\n        /* \"#utility.yul\":32237:32251   */\n      swap1\n      pop\n        /* \"#utility.yul\":32065:32261   */\n      swap3\n      swap2\n      pop\n      pop\n      jump\t// out\n        /* \"#utility.yul\":32271:32467   */\n    tag_319:\n        /* \"#utility.yul\":32323:32400   */\n      0x4e487b7100000000000000000000000000000000000000000000000000000000\n        /* \"#utility.yul\":32320:32321   */\n      0x00\n        /* \"#utility.yul\":32313:32401   */\n      mstore\n        /* \"#utility.yul\":32424:32428   */\n      0x32\n        /* \"#utility.yul\":32421:32422   */\n      0x04\n        /* \"#utility.yul\":32414:32429   */\n      mstore\n        /* \"#utility.yul\":32452:32456   */\n      0x24\n        /* \"#utility.yul\":32449:32450   */\n      0x00\n        /* \"#utility.yul\":32442:32457   */\n      revert\n\n    auxdata: 0xa2646970667358221220b2630d72d8155fa51f34030e2bea8bb9a9549e336ec0ec90c5479155a69c9e8e64736f6c634300081a0033\n}\n",
				"bytecode": {
					"linkReferences": {},
					"object": "608060405260038055348015610013575f80fd5b503360045f6101000a81548173ffffffffffffffffffffffffffffffffffffffff021916908373ffffffffffffffffffffffffffffffffffffffff160217905550604051806101a001604052805f73ffffffffffffffffffffffffffffffffffffffff168152602001600181526020015f81526020015f81526020015f8152602001600160ff1681526020015f67ffffffffffffffff8111156100b9576100b861056d565b5b6040519080825280602002602001820160405280156100e75781602001602082028036833780820191505090505b50815260200160405180602001604052805f815250815260200160405180602001604052805f815250815260200160405180602001604052805f815250815260200160405180602001604052805f81525081526020015f801b815260200160045f9054906101000a900473ffffffffffffffffffffffffffffffffffffffff1673ffffffffffffffffffffffffffffffffffffffff168152505f8060045f9054906101000a900473ffffffffffffffffffffffffffffffffffffffff1673ffffffffffffffffffffffffffffffffffffffff1673ffffffffffffffffffffffffffffffffffffffff1681526020019081526020015f205f820151815f015f6101000a81548173ffffffffffffffffffffffffffffffffffffffff021916908373ffffffffffffffffffffffffffffffffffffffff1602179055506020820151816001015560408201518160020155606082015181600301556080820151816004015560a0820151816005015f6101000a81548160ff021916908360ff16021790555060c08201518160060190805190602001906102859291906104cb565b5060e082015181600701908161029b91906107a7565b506101008201518160080190816102b291906107a7565b506101208201518160090190816102c991906107a7565b5061014082015181600a0190816102e091906107a7565b5061016082015181600b015561018082015181600c015f6101000a81548173ffffffffffffffffffffffffffffffffffffffff021916908373ffffffffffffffffffffffffffffffffffffffff16021790555090505060045f9054906101000a900473ffffffffffffffffffffffffffffffffffffffff1660015f600181526020019081526020015f205f6101000a81548173ffffffffffffffffffffffffffffffffffffffff021916908373ffffffffffffffffffffffffffffffffffffffff160217905550674563918244f4000060025f600160ff1681526020019081526020015f20819055505f600290505b60088160ff1611610437576002805f6001846103eb91906108af565b60ff1660ff1681526020019081526020015f205461040991906108e3565b60025f8360ff1660ff1681526020019081526020015f2081905550808061042f90610924565b9150506103cf565b506843c33c19375648000060025f600960ff1681526020019081526020015f208190555068878678326eac90000060025f600a60ff1681526020019081526020015f208190555069010f0cf064dd5920000060025f600b60ff1681526020019081526020015f2081905550690218ae196b8d4f30000060025f600c60ff1681526020019081526020015f208190555061094c565b828054828255905f5260205f20908101928215610541579160200282015b82811115610540578251825f6101000a81548173ffffffffffffffffffffffffffffffffffffffff021916908373ffffffffffffffffffffffffffffffffffffffff160217905550916020019190600101906104e9565b5b50905061054e9190610552565b5090565b5b80821115610569575f815f905550600101610553565b5090565b7f4e487b71000000000000000000000000000000000000000000000000000000005f52604160045260245ffd5b5f81519050919050565b7f4e487b71000000000000000000000000000000000000000000000000000000005f52602260045260245ffd5b5f60028204905060018216806105e857607f821691505b6020821081036105fb576105fa6105a4565b5b50919050565b5f819050815f5260205f209050919050565b5f6020601f8301049050919050565b5f82821b905092915050565b5f6008830261065d7fffffffffffffffffffffffffffffffffffffffffffffffffffffffffffffffff82610622565b6106678683610622565b95508019841693508086168417925050509392505050565b5f819050919050565b5f819050919050565b5f6106ab6106a66106a18461067f565b610688565b61067f565b9050919050565b5f819050919050565b6106c483610691565b6106d86106d0826106b2565b84845461062e565b825550505050565b5f90565b6106ec6106e0565b6106f78184846106bb565b505050565b5b8181101561071a5761070f5f826106e4565b6001810190506106fd565b5050565b601f82111561075f5761073081610601565b61073984610613565b81016020851015610748578190505b61075c61075485610613565b8301826106fc565b50505b505050565b5f82821c905092915050565b5f61077f5f1984600802610764565b1980831691505092915050565b5f6107978383610770565b9150826002028217905092915050565b6107b08261059a565b67ffffffffffffffff8111156107c9576107c861056d565b5b6107d382546105d1565b6107de82828561071e565b5f60209050601f83116001811461080f575f84156107fd578287015190505b610807858261078c565b86555061086e565b601f19841661081d86610601565b5f5b828110156108445784890151825560018201915060208501945060208101905061081f565b86831015610861578489015161085d601f891682610770565b8355505b6001600288020188555050505b505050505050565b5f60ff82169050919050565b7f4e487b71000000000000000000000000000000000000000000000000000000005f52601160045260245ffd5b5f6108b982610876565b91506108c483610876565b9250828203905060ff8111156108dd576108dc610882565b5b92915050565b5f6108ed8261067f565b91506108f88361067f565b92508282026109068161067f565b9150828204841483151761091d5761091c610882565b5b5092915050565b5f61092e82610876565b915060ff820361094157610940610882565b5b600182019050919050565b613c7b806109595f395ff3fe608060405260043610610117575f3560e01c80636f8e25161161009f5780639ac7e09e116100635780639ac7e09e146103c0578063a87430ba146103ea578063aed8a6a714610431578063de972b431461046d578063ecabdf79146104aa5761011e565b80636f8e2516146102d25780638d17a4d01461030e5780638da5cb5b1461032a578063902873181461035457806390426274146103905761011e565b8063348d4487116100e6578063348d4487146101c05780633ee3d186146101ea5780636386c1c71461022657806364b4f7511461026c5780636ed6da9e146102965761011e565b80630bf424b41461012257806329c704001461013e5780632a2d0c47146101685780633056deb8146101a45761011e565b3661011e57005b5f80fd5b61013c60048036038101906101379190612d4a565b6104e6565b005b348015610149575f80fd5b50610152610982565b60405161015f9190612e7a565b60405180910390f35b348015610173575f80fd5b5061018e60048036038101906101899190612ec6565b610987565b60405161019b9190612f00565b60405180910390f35b6101be60048036038101906101b99190612f19565b6109b7565b005b3480156101cb575f80fd5b506101d4610f8e565b6040516101e19190613051565b60405180910390f35b3480156101f5575f80fd5b50610210600480360381019061020b919061306a565b610f94565b60405161021d9190613051565b60405180910390f35b348015610231575f80fd5b5061024c6004803603810190610247919061306a565b610fa5565b6040516102639b9a999897969594939291906130f5565b60405180910390f35b348015610277575f80fd5b50610280611425565b60405161028d9190613051565b60405180910390f35b3480156102a1575f80fd5b506102bc60048036038101906102b79190612ec6565b611432565b6040516102c99190612f00565b60405180910390f35b3480156102dd575f80fd5b506102f860048036038101906102f391906131e4565b61146b565b6040516103059190613051565b60405180910390f35b610328600480360381019061032391906131e4565b6114e5565b005b348015610335575f80fd5b5061033e611925565b60405161034b9190612f00565b60405180910390f35b34801561035f575f80fd5b5061037a6004803603810190610375919061306a565b61194a565b6040516103879190612e7a565b60405180910390f35b6103aa60048036038101906103a5919061306a565b611a3d565b6040516103b79190613051565b60405180910390f35b3480156103cb575f80fd5b506103d4611d1e565b6040516103e19190613051565b60405180910390f35b3480156103f5575f80fd5b50610410600480360381019061040b919061306a565b611d2a565b6040516104289c9b9a99989796959493929190613227565b60405180910390f35b34801561043c575f80fd5b506104576004803603810190610452919061306a565b611fe7565b60405161046491906132fb565b60405180910390f35b348015610478575f80fd5b50610493600480360381019061048e919061306a565b61205c565b6040516104a192919061331b565b60405180910390f35b3480156104b5575f80fd5b506104d060048036038101906104cb91906131e4565b61247f565b6040516104dd9190613051565b60405180910390f35b5f805f8873ffffffffffffffffffffffffffffffffffffffff1673ffffffffffffffffffffffffffffffffffffffff1681526020019081526020015f206001015414610567576040517f08c379a000000000000000000000000000000000000000000000000000000000815260040161055e9061338c565b60405180910390fd5b5f8160405160200161057991906133e4565b604051602081830303815290604052805190602001209050604051806101a001604052805f73ffffffffffffffffffffffffffffffffffffffff16815260200160035481526020015f81526020015f81526020015f8152602001600160ff1681526020015f67ffffffffffffffff8111156105f7576105f6612c26565b5b6040519080825280602002602001820160405280156106255781602001602082028036833780820191505090505b5081526020018781526020018681526020018581526020018481526020018281526020018873ffffffffffffffffffffffffffffffffffffffff168152505f808973ffffffffffffffffffffffffffffffffffffffff1673ffffffffffffffffffffffffffffffffffffffff1681526020019081526020015f205f820151815f015f6101000a81548173ffffffffffffffffffffffffffffffffffffffff021916908373ffffffffffffffffffffffffffffffffffffffff1602179055506020820151816001015560408201518160020155606082015181600301556080820151816004015560a0820151816005015f6101000a81548160ff021916908360ff16021790555060c0820151816006019080519060200190610747929190612b01565b5060e082015181600701908161075d91906135f4565b5061010082015181600801908161077491906135f4565b5061012082015181600901908161078b91906135f4565b5061014082015181600a0190816107a291906135f4565b5061016082015181600b015561018082015181600c015f6101000a81548173ffffffffffffffffffffffffffffffffffffffff021916908373ffffffffffffffffffffffffffffffffffffffff1602179055509050508660015f60035481526020019081526020015f205f6101000a81548173ffffffffffffffffffffffffffffffffffffffff021916908373ffffffffffffffffffffffffffffffffffffffff16021790555060035f81548092919061085b906136f0565b919050555060045f9054906101000a900473ffffffffffffffffffffffffffffffffffffffff1673ffffffffffffffffffffffffffffffffffffffff166108fc3490811502906040515f60405180830381858888f193505050501580156108c4573d5f803e3d5ffd5b505f73ffffffffffffffffffffffffffffffffffffffff168773ffffffffffffffffffffffffffffffffffffffff167f2b4796a0a8e31f678c432f388e9bb4e2ab31ffb820bee612a940c1cf3a565c415f808b73ffffffffffffffffffffffffffffffffffffffff1673ffffffffffffffffffffffffffffffffffffffff1681526020019081526020015f20600101545f68015af1d78b58c40000600160405161097194939291906137a9565b60405180910390a350505050505050565b600c81565b6001602052805f5260405f205f915054906101000a900473ffffffffffffffffffffffffffffffffffffffff1681565b5f805f8973ffffffffffffffffffffffffffffffffffffffff1673ffffffffffffffffffffffffffffffffffffffff1681526020019081526020015f206001015403610a38576040517f08c379a0000000000000000000000000000000000000000000000000000000008152600401610a2f90613836565b60405180910390fd5b5f82604051602001610a4a91906133e4565b604051602081830303815290604052805190602001209050604051806101a001604052808973ffffffffffffffffffffffffffffffffffffffff16815260200160035481526020015f81526020015f81526020015f8152602001600160ff1681526020015f67ffffffffffffffff811115610ac857610ac7612c26565b5b604051908082528060200260200182016040528015610af65781602001602082028036833780820191505090505b5081526020018881526020018781526020018681526020018581526020018281526020018373ffffffffffffffffffffffffffffffffffffffff168152505f803373ffffffffffffffffffffffffffffffffffffffff1673ffffffffffffffffffffffffffffffffffffffff1681526020019081526020015f205f820151815f015f6101000a81548173ffffffffffffffffffffffffffffffffffffffff021916908373ffffffffffffffffffffffffffffffffffffffff1602179055506020820151816001015560408201518160020155606082015181600301556080820151816004015560a0820151816005015f6101000a81548160ff021916908360ff16021790555060c0820151816006019080519060200190610c18929190612b01565b5060e0820151816007019081610c2e91906135f4565b50610100820151816008019081610c4591906135f4565b50610120820151816009019081610c5c91906135f4565b5061014082015181600a019081610c7391906135f4565b5061016082015181600b015561018082015181600c015f6101000a81548173ffffffffffffffffffffffffffffffffffffffff021916908373ffffffffffffffffffffffffffffffffffffffff1602179055509050503360015f60035481526020019081526020015f205f6101000a81548173ffffffffffffffffffffffffffffffffffffffff021916908373ffffffffffffffffffffffffffffffffffffffff16021790555060035f815480929190610d2c906136f0565b91905055505f808973ffffffffffffffffffffffffffffffffffffffff1673ffffffffffffffffffffffffffffffffffffffff1681526020019081526020015f206002015f815480929190610d80906136f0565b91905055505f808973ffffffffffffffffffffffffffffffffffffffff1673ffffffffffffffffffffffffffffffffffffffff1681526020019081526020015f2060060133908060018154018082558091505060019003905f5260205f20015f9091909190916101000a81548173ffffffffffffffffffffffffffffffffffffffff021916908373ffffffffffffffffffffffffffffffffffffffff16021790555060045f9054906101000a900473ffffffffffffffffffffffffffffffffffffffff1673ffffffffffffffffffffffffffffffffffffffff166108fc3490811502906040515f60405180830381858888f19350505050158015610e86573d5f803e3d5ffd5b50610e913389612494565b8773ffffffffffffffffffffffffffffffffffffffff163373ffffffffffffffffffffffffffffffffffffffff167f2b4796a0a8e31f678c432f388e9bb4e2ab31ffb820bee612a940c1cf3a565c415f803373ffffffffffffffffffffffffffffffffffffffff1673ffffffffffffffffffffffffffffffffffffffff1681526020019081526020015f20600101545f808d73ffffffffffffffffffffffffffffffffffffffff1673ffffffffffffffffffffffffffffffffffffffff1681526020019081526020015f206001015468015af1d78b58c400006001604051610f7c9493929190613854565b60405180910390a35050505050505050565b60035481565b5f610f9e82612793565b9050919050565b5f805f805f806060806060805f805f808e73ffffffffffffffffffffffffffffffffffffffff1673ffffffffffffffffffffffffffffffffffffffff1681526020019081526020015f20604051806101a00160405290815f82015f9054906101000a900473ffffffffffffffffffffffffffffffffffffffff1673ffffffffffffffffffffffffffffffffffffffff1673ffffffffffffffffffffffffffffffffffffffff16815260200160018201548152602001600282015481526020016003820154815260200160048201548152602001600582015f9054906101000a900460ff1660ff1660ff1681526020016006820180548060200260200160405190810160405280929190818152602001828054801561111557602002820191905f5260205f20905b815f9054906101000a900473ffffffffffffffffffffffffffffffffffffffff1673ffffffffffffffffffffffffffffffffffffffff16815260200190600101908083116110cc575b5050505050815260200160078201805461112e90613427565b80601f016020809104026020016040519081016040528092919081815260200182805461115a90613427565b80156111a55780601f1061117c576101008083540402835291602001916111a5565b820191905f5260205f20905b81548152906001019060200180831161118857829003601f168201915b505050505081526020016008820180546111be90613427565b80601f01602080910402602001604051908101604052809291908181526020018280546111ea90613427565b80156112355780601f1061120c57610100808354040283529160200191611235565b820191905f5260205f20905b81548152906001019060200180831161121857829003601f168201915b5050505050815260200160098201805461124e90613427565b80601f016020809104026020016040519081016040528092919081815260200182805461127a90613427565b80156112c55780601f1061129c576101008083540402835291602001916112c5565b820191905f5260205f20905b8154815290600101906020018083116112a857829003601f168201915b50505050508152602001600a820180546112de90613427565b80601f016020809104026020016040519081016040528092919081815260200182805461130a90613427565b80156113555780601f1061132c57610100808354040283529160200191611355565b820191905f5260205f20905b81548152906001019060200180831161133857829003601f168201915b50505050508152602001600b8201548152602001600c82015f9054906101000a900473ffffffffffffffffffffffffffffffffffffffff1673ffffffffffffffffffffffffffffffffffffffff1673ffffffffffffffffffffffffffffffffffffffff16815250509050805f015181602001518260400151836060015184608001518560a001518660e001518761010001518861012001518961014001518a61018001518560ff1695509b509b509b509b509b509b509b509b509b509b509b505091939597999b90929496989a50565b68015af1d78b58c4000081565b5f60015f8381526020019081526020015f205f9054906101000a900473ffffffffffffffffffffffffffffffffffffffff169050919050565b5f60018260ff16101580156114875750600c60ff168260ff1611155b6114c6576040517f08c379a00000000000000000000000000000000000000000000000000000000081526004016114bd906138e1565b60405180910390fd5b60025f8360ff1660ff1681526020019081526020015f20549050919050565b5f803373ffffffffffffffffffffffffffffffffffffffff1673ffffffffffffffffffffffffffffffffffffffff1681526020019081526020015f206005015f9054906101000a900460ff1660ff168160ff1611611578576040517f08c379a000000000000000000000000000000000000000000000000000000000815260040161156f9061396f565b60405180910390fd5b600c60ff168160ff1611156115c2576040517f08c379a00000000000000000000000000000000000000000000000000000000081526004016115b9906138e1565b60405180910390fd5b5f60025f8360ff1660ff1681526020019081526020015f205490505f805f3373ffffffffffffffffffffffffffffffffffffffff1673ffffffffffffffffffffffffffffffffffffffff1681526020019081526020015f205f015f9054906101000a900473ffffffffffffffffffffffffffffffffffffffff1690505f6064600a8461164e919061398d565b61165891906139fb565b90505f81846116679190613a2b565b9050845f803373ffffffffffffffffffffffffffffffffffffffff1673ffffffffffffffffffffffffffffffffffffffff1681526020019081526020015f206005015f6101000a81548160ff021916908360ff1602179055505f73ffffffffffffffffffffffffffffffffffffffff168373ffffffffffffffffffffffffffffffffffffffff1614611840575f8373ffffffffffffffffffffffffffffffffffffffff168360405161171890613a8b565b5f6040518083038185875af1925050503d805f8114611752576040519150601f19603f3d011682016040523d82523d5f602084013e611757565b606091505b505090508061179b576040517f08c379a000000000000000000000000000000000000000000000000000000000815260040161179290613ae9565b60405180910390fd5b825f808673ffffffffffffffffffffffffffffffffffffffff1673ffffffffffffffffffffffffffffffffffffffff1681526020019081526020015f206004015f8282546117e99190613b07565b925050819055508373ffffffffffffffffffffffffffffffffffffffff167f92d81ab7e787d9a43bbb8f8ca7f0b2708da03b86d5aea53d5d20656ff8dad1ee846040516118369190613051565b60405180910390a2505b5f60045f9054906101000a900473ffffffffffffffffffffffffffffffffffffffff1673ffffffffffffffffffffffffffffffffffffffff168260405161188690613a8b565b5f6040518083038185875af1925050503d805f81146118c0576040519150601f19603f3d011682016040523d82523d5f602084013e6118c5565b606091505b505090503373ffffffffffffffffffffffffffffffffffffffff167fdbf0b0dd9da4bea8f6827b8c94d9d2c555a713d0b15d01f002f81f321bba5e3c878786866040516119159493929190613b3a565b60405180910390a2505050505050565b60045f9054906101000a900473ffffffffffffffffffffffffffffffffffffffff1681565b5f805f808473ffffffffffffffffffffffffffffffffffffffff1673ffffffffffffffffffffffffffffffffffffffff1681526020019081526020015f205f015f9054906101000a900473ffffffffffffffffffffffffffffffffffffffff1690505f73ffffffffffffffffffffffffffffffffffffffff168173ffffffffffffffffffffffffffffffffffffffff16036119e8575f915050611a38565b5f808273ffffffffffffffffffffffffffffffffffffffff1673ffffffffffffffffffffffffffffffffffffffff1681526020019081526020015f206005015f9054906101000a900460ff169150505b919050565b5f805f808473ffffffffffffffffffffffffffffffffffffffff1673ffffffffffffffffffffffffffffffffffffffff1681526020019081526020015f205f015f9054906101000a900473ffffffffffffffffffffffffffffffffffffffff1690505f73ffffffffffffffffffffffffffffffffffffffff168173ffffffffffffffffffffffffffffffffffffffff1603611adb575f915050611d19565b60025f808373ffffffffffffffffffffffffffffffffffffffff1673ffffffffffffffffffffffffffffffffffffffff1681526020019081526020015f206002015410611cc2575f805f8373ffffffffffffffffffffffffffffffffffffffff1673ffffffffffffffffffffffffffffffffffffffff1681526020019081526020015f206005015f9054906101000a900460ff1690505f60025f8360ff1660ff1681526020019081526020015f20549050611b9683826127e0565b5f808473ffffffffffffffffffffffffffffffffffffffff1673ffffffffffffffffffffffffffffffffffffffff1681526020019081526020015f206003015f815480929190611be5906136f0565b91905055508273ffffffffffffffffffffffffffffffffffffffff167f18c00b25130b4512b396a52c89756cb9a1177c6002fe34cbc071f88cf90812a15f808673ffffffffffffffffffffffffffffffffffffffff1673ffffffffffffffffffffffffffffffffffffffff1681526020019081526020015f2060030154604051611c6f9190613051565b60405180910390a25f805f8573ffffffffffffffffffffffffffffffffffffffff1673ffffffffffffffffffffffffffffffffffffffff1681526020019081526020015f20600201819055505050611d17565b5f808273ffffffffffffffffffffffffffffffffffffffff1673ffffffffffffffffffffffffffffffffffffffff1681526020019081526020015f206002015f815480929190611d11906136f0565b91905055505b505b919050565b674563918244f4000081565b5f602052805f5260405f205f91509050805f015f9054906101000a900473ffffffffffffffffffffffffffffffffffffffff1690806001015490806002015490806003015490806004015490806005015f9054906101000a900460ff1690806007018054611d9790613427565b80601f0160208091040260200160405190810160405280929190818152602001828054611dc390613427565b8015611e0e5780601f10611de557610100808354040283529160200191611e0e565b820191905f5260205f20905b815481529060010190602001808311611df157829003601f168201915b505050505090806008018054611e2390613427565b80601f0160208091040260200160405190810160405280929190818152602001828054611e4f90613427565b8015611e9a5780601f10611e7157610100808354040283529160200191611e9a565b820191905f5260205f20905b815481529060010190602001808311611e7d57829003601f168201915b505050505090806009018054611eaf90613427565b80601f0160208091040260200160405190810160405280929190818152602001828054611edb90613427565b8015611f265780601f10611efd57610100808354040283529160200191611f26565b820191905f5260205f20905b815481529060010190602001808311611f0957829003601f168201915b50505050509080600a018054611f3b90613427565b80601f0160208091040260200160405190810160405280929190818152602001828054611f6790613427565b8015611fb25780601f10611f8957610100808354040283529160200191611fb2565b820191905f5260205f20905b815481529060010190602001808311611f9557829003601f168201915b50505050509080600b01549080600c015f9054906101000a900473ffffffffffffffffffffffffffffffffffffffff1690508c565b60605f805f8473ffffffffffffffffffffffffffffffffffffffff1673ffffffffffffffffffffffffffffffffffffffff1681526020019081526020015f20600101549050612035816128f0565b6040516020016120459190613bc7565b604051602081830303815290604052915050919050565b5f805f805f8573ffffffffffffffffffffffffffffffffffffffff1673ffffffffffffffffffffffffffffffffffffffff1681526020019081526020015f20604051806101a00160405290815f82015f9054906101000a900473ffffffffffffffffffffffffffffffffffffffff1673ffffffffffffffffffffffffffffffffffffffff1673ffffffffffffffffffffffffffffffffffffffff16815260200160018201548152602001600282015481526020016003820154815260200160048201548152602001600582015f9054906101000a900460ff1660ff1660ff168152602001600682018054806020026020016040519081016040528092919081815260200182805480156121c157602002820191905f5260205f20905b815f9054906101000a900473ffffffffffffffffffffffffffffffffffffffff1673ffffffffffffffffffffffffffffffffffffffff1681526020019060010190808311612178575b505050505081526020016007820180546121da90613427565b80601f016020809104026020016040519081016040528092919081815260200182805461220690613427565b80156122515780601f1061222857610100808354040283529160200191612251565b820191905f5260205f20905b81548152906001019060200180831161223457829003601f168201915b5050505050815260200160088201805461226a90613427565b80601f016020809104026020016040519081016040528092919081815260200182805461229690613427565b80156122e15780601f106122b8576101008083540402835291602001916122e1565b820191905f5260205f20905b8154815290600101906020018083116122c457829003601f168201915b505050505081526020016009820180546122fa90613427565b80601f016020809104026020016040519081016040528092919081815260200182805461232690613427565b80156123715780601f1061234857610100808354040283529160200191612371565b820191905f5260205f20905b81548152906001019060200180831161235457829003601f168201915b50505050508152602001600a8201805461238a90613427565b80601f01602080910402602001604051908101604052809291908181526020018280546123b690613427565b80156124015780601f106123d857610100808354040283529160200191612401565b820191905f5260205f20905b8154815290600101906020018083116123e457829003601f168201915b50505050508152602001600b8201548152602001600c82015f9054906101000a900473ffffffffffffffffffffffffffffffffffffffff1673ffffffffffffffffffffffffffffffffffffffff1673ffffffffffffffffffffffffffffffffffffffff16815250509050806060015181608001519250925050915091565b6002602052805f5260405f205f915090505481565b5f805f8473ffffffffffffffffffffffffffffffffffffffff1673ffffffffffffffffffffffffffffffffffffffff1681526020019081526020015f205f015f9054906101000a900473ffffffffffffffffffffffffffffffffffffffff16905060035f808473ffffffffffffffffffffffffffffffffffffffff1673ffffffffffffffffffffffffffffffffffffffff1681526020019081526020015f206002015410156125b3575f805f8373ffffffffffffffffffffffffffffffffffffffff1673ffffffffffffffffffffffffffffffffffffffff1681526020019081526020015f206005015f9054906101000a900460ff1690506125ad8360025f8460ff1660ff1681526020019081526020015f20546127e0565b5061278e565b5f805f8473ffffffffffffffffffffffffffffffffffffffff1673ffffffffffffffffffffffffffffffffffffffff1681526020019081526020015f205f015f9054906101000a900473ffffffffffffffffffffffffffffffffffffffff1690505f73ffffffffffffffffffffffffffffffffffffffff168173ffffffffffffffffffffffffffffffffffffffff1614612748576126668160025f600160ff1681526020019081526020015f20546127e0565b5f808473ffffffffffffffffffffffffffffffffffffffff1673ffffffffffffffffffffffffffffffffffffffff1681526020019081526020015f206003015f8154809291906126b5906136f0565b91905055508273ffffffffffffffffffffffffffffffffffffffff167f18c00b25130b4512b396a52c89756cb9a1177c6002fe34cbc071f88cf90812a15f808673ffffffffffffffffffffffffffffffffffffffff1673ffffffffffffffffffffffffffffffffffffffff1681526020019081526020015f206003015460405161273f9190613051565b60405180910390a25b5f805f8573ffffffffffffffffffffffffffffffffffffffff1673ffffffffffffffffffffffffffffffffffffffff1681526020019081526020015f2060020181905550505b505050565b5f805f808473ffffffffffffffffffffffffffffffffffffffff1673ffffffffffffffffffffffffffffffffffffffff1681526020019081526020015f2060020154905080915050919050565b805f808473ffffffffffffffffffffffffffffffffffffffff1673ffffffffffffffffffffffffffffffffffffffff1681526020019081526020015f206004015f82825461282e9190613b07565b925050819055505f8273ffffffffffffffffffffffffffffffffffffffff168260405161285a90613a8b565b5f6040518083038185875af1925050503d805f8114612894576040519150601f19603f3d011682016040523d82523d5f602084013e612899565b606091505b505090508273ffffffffffffffffffffffffffffffffffffffff167f92d81ab7e787d9a43bbb8f8ca7f0b2708da03b86d5aea53d5d20656ff8dad1ee836040516128e39190613051565b60405180910390a2505050565b60605f8203612936576040518060400160405280600181526020017f30000000000000000000000000000000000000000000000000000000000000008152509050612afc565b5f604e90505f8167ffffffffffffffff81111561295657612955612c26565b5b6040519080825280601f01601f1916602001820160405280156129885781602001600182028036833780820191505090505b5090505f5b5f8514612a16575f600a866129a29190613be8565b9050600a866129b191906139fb565b95508060306129c09190613b07565b60f81b8383806129cf906136f0565b9450815181106129e2576129e1613c18565b5b60200101907effffffffffffffffffffffffffffffffffffffffffffffffffffffffffffff191690815f1a9053505061298d565b5f8167ffffffffffffffff811115612a3157612a30612c26565b5b6040519080825280601f01601f191660200182016040528015612a635781602001600182028036833780820191505090505b5090505f5b82811015612af3578360018285612a7f9190613a2b565b612a899190613a2b565b81518110612a9a57612a99613c18565b5b602001015160f81c60f81b828281518110612ab857612ab7613c18565b5b60200101907effffffffffffffffffffffffffffffffffffffffffffffffffffffffffffff191690815f1a9053508080600101915050612a68565b50809450505050505b919050565b828054828255905f5260205f20908101928215612b77579160200282015b82811115612b76578251825f6101000a81548173ffffffffffffffffffffffffffffffffffffffff021916908373ffffffffffffffffffffffffffffffffffffffff16021790555091602001919060010190612b1f565b5b509050612b849190612b88565b5090565b5b80821115612b9f575f815f905550600101612b89565b5090565b5f604051905090565b5f80fd5b5f80fd5b5f73ffffffffffffffffffffffffffffffffffffffff82169050919050565b5f612bdd82612bb4565b9050919050565b612bed81612bd3565b8114612bf7575f80fd5b50565b5f81359050612c0881612be4565b92915050565b5f80fd5b5f80fd5b5f601f19601f8301169050919050565b7f4e487b71000000000000000000000000000000000000000000000000000000005f52604160045260245ffd5b612c5c82612c16565b810181811067ffffffffffffffff82111715612c7b57612c7a612c26565b5b80604052505050565b5f612c8d612ba3565b9050612c998282612c53565b919050565b5f67ffffffffffffffff821115612cb857612cb7612c26565b5b612cc182612c16565b9050602081019050919050565b828183375f83830152505050565b5f612cee612ce984612c9e565b612c84565b905082815260208101848484011115612d0a57612d09612c12565b5b612d15848285612cce565b509392505050565b5f82601f830112612d3157612d30612c0e565b5b8135612d41848260208601612cdc565b91505092915050565b5f805f805f8060c08789031215612d6457612d63612bac565b5b5f612d7189828a01612bfa565b965050602087013567ffffffffffffffff811115612d9257612d91612bb0565b5b612d9e89828a01612d1d565b955050604087013567ffffffffffffffff811115612dbf57612dbe612bb0565b5b612dcb89828a01612d1d565b945050606087013567ffffffffffffffff811115612dec57612deb612bb0565b5b612df889828a01612d1d565b935050608087013567ffffffffffffffff811115612e1957612e18612bb0565b5b612e2589828a01612d1d565b92505060a087013567ffffffffffffffff811115612e4657612e45612bb0565b5b612e5289828a01612d1d565b9150509295509295509295565b5f60ff82169050919050565b612e7481612e5f565b82525050565b5f602082019050612e8d5f830184612e6b565b92915050565b5f819050919050565b612ea581612e93565b8114612eaf575f80fd5b50565b5f81359050612ec081612e9c565b92915050565b5f60208284031215612edb57612eda612bac565b5b5f612ee884828501612eb2565b91505092915050565b612efa81612bd3565b82525050565b5f602082019050612f135f830184612ef1565b92915050565b5f805f805f805f60e0888a031215612f3457612f33612bac565b5b5f612f418a828b01612bfa565b975050602088013567ffffffffffffffff811115612f6257612f61612bb0565b5b612f6e8a828b01612d1d565b965050604088013567ffffffffffffffff811115612f8f57612f8e612bb0565b5b612f9b8a828b01612d1d565b955050606088013567ffffffffffffffff811115612fbc57612fbb612bb0565b5b612fc88a828b01612d1d565b945050608088013567ffffffffffffffff811115612fe957612fe8612bb0565b5b612ff58a828b01612d1d565b93505060a088013567ffffffffffffffff81111561301657613015612bb0565b5b6130228a828b01612d1d565b92505060c06130338a828b01612bfa565b91505092959891949750929550565b61304b81612e93565b82525050565b5f6020820190506130645f830184613042565b92915050565b5f6020828403121561307f5761307e612bac565b5b5f61308c84828501612bfa565b91505092915050565b5f81519050919050565b5f82825260208201905092915050565b8281835e5f83830152505050565b5f6130c782613095565b6130d1818561309f565b93506130e18185602086016130af565b6130ea81612c16565b840191505092915050565b5f610160820190506131095f83018e612ef1565b613116602083018d613042565b613123604083018c613042565b613130606083018b613042565b61313d608083018a613042565b61314a60a0830189613042565b81810360c083015261315c81886130bd565b905081810360e083015261317081876130bd565b905081810361010083015261318581866130bd565b905081810361012083015261319a81856130bd565b90506131aa610140830184612ef1565b9c9b505050505050505050505050565b6131c381612e5f565b81146131cd575f80fd5b50565b5f813590506131de816131ba565b92915050565b5f602082840312156131f9576131f8612bac565b5b5f613206848285016131d0565b91505092915050565b5f819050919050565b6132218161320f565b82525050565b5f6101808201905061323b5f83018f612ef1565b613248602083018e613042565b613255604083018d613042565b613262606083018c613042565b61326f608083018b613042565b61327c60a083018a612e6b565b81810360c083015261328e81896130bd565b905081810360e08301526132a281886130bd565b90508181036101008301526132b781876130bd565b90508181036101208301526132cc81866130bd565b90506132dc610140830185613218565b6132ea610160830184612ef1565b9d9c50505050505050505050505050565b5f6020820190508181035f83015261331381846130bd565b905092915050565b5f60408201905061332e5f830185613042565b61333b6020830184613042565b9392505050565b7f55706c696e6520616c72656164792072656769737465726564000000000000005f82015250565b5f61337660198361309f565b915061338182613342565b602082019050919050565b5f6020820190508181035f8301526133a38161336a565b9050919050565b5f81905092915050565b5f6133be82613095565b6133c881856133aa565b93506133d88185602086016130af565b80840191505092915050565b5f6133ef82846133b4565b915081905092915050565b7f4e487b71000000000000000000000000000000000000000000000000000000005f52602260045260245ffd5b5f600282049050600182168061343e57607f821691505b602082108103613451576134506133fa565b5b50919050565b5f819050815f5260205f209050919050565b5f6020601f8301049050919050565b5f82821b905092915050565b5f600883026134b37fffffffffffffffffffffffffffffffffffffffffffffffffffffffffffffffff82613478565b6134bd8683613478565b95508019841693508086168417925050509392505050565b5f819050919050565b5f6134f86134f36134ee84612e93565b6134d5565b612e93565b9050919050565b5f819050919050565b613511836134de565b61352561351d826134ff565b848454613484565b825550505050565b5f90565b61353961352d565b613544818484613508565b505050565b5b818110156135675761355c5f82613531565b60018101905061354a565b5050565b601f8211156135ac5761357d81613457565b61358684613469565b81016020851015613595578190505b6135a96135a185613469565b830182613549565b50505b505050565b5f82821c905092915050565b5f6135cc5f19846008026135b1565b1980831691505092915050565b5f6135e483836135bd565b9150826002028217905092915050565b6135fd82613095565b67ffffffffffffffff81111561361657613615612c26565b5b6136208254613427565b61362b82828561356b565b5f60209050601f83116001811461365c575f841561364a578287015190505b61365485826135d9565b8655506136bb565b601f19841661366a86613457565b5f5b828110156136915784890151825560018201915060208501945060208101905061366c565b868310156136ae57848901516136aa601f8916826135bd565b8355505b6001600288020188555050505b505050505050565b7f4e487b71000000000000000000000000000000000000000000000000000000005f52601160045260245ffd5b5f6136fa82612e93565b91507fffffffffffffffffffffffffffffffffffffffffffffffffffffffffffffffff820361372c5761372b6136c3565b5b600182019050919050565b5f819050919050565b5f61375a61375561375084613737565b6134d5565b612e93565b9050919050565b61376a81613740565b82525050565b5f819050919050565b5f61379361378e61378984613770565b6134d5565b612e5f565b9050919050565b6137a381613779565b82525050565b5f6080820190506137bc5f830187613042565b6137c96020830186613761565b6137d66040830185613042565b6137e3606083018461379a565b95945050505050565b7f55706c696e6520646f6573206e6f7420657869737400000000000000000000005f82015250565b5f61382060158361309f565b915061382b826137ec565b602082019050919050565b5f6020820190508181035f83015261384d81613814565b9050919050565b5f6080820190506138675f830187613042565b6138746020830186613042565b6138816040830185613042565b61388e606083018461379a565b95945050505050565b7f496e76616c6964206c6576656c000000000000000000000000000000000000005f82015250565b5f6138cb600d8361309f565b91506138d682613897565b602082019050919050565b5f6020820190508181035f8301526138f8816138bf565b9050919050565b7f43616e6e6f7420646f776e6772616465206f72207374617920617420746865205f8201527f73616d65206c6576656c00000000000000000000000000000000000000000000602082015250565b5f613959602a8361309f565b9150613964826138ff565b604082019050919050565b5f6020820190508181035f8301526139868161394d565b9050919050565b5f61399782612e93565b91506139a283612e93565b92508282026139b081612e93565b915082820484148315176139c7576139c66136c3565b5b5092915050565b7f4e487b71000000000000000000000000000000000000000000000000000000005f52601260045260245ffd5b5f613a0582612e93565b9150613a1083612e93565b925082613a2057613a1f6139ce565b5b828204905092915050565b5f613a3582612e93565b9150613a4083612e93565b9250828203905081811115613a5857613a576136c3565b5b92915050565b5f81905092915050565b50565b5f613a765f83613a5e565b9150613a8182613a68565b5f82019050919050565b5f613a9582613a6b565b9150819050919050565b7f5472616e7366657220746f2075706c696e65206661696c6564000000000000005f82015250565b5f613ad360198361309f565b9150613ade82613a9f565b602082019050919050565b5f6020820190508181035f830152613b0081613ac7565b9050919050565b5f613b1182612e93565b9150613b1c83612e93565b9250828201905080821115613b3457613b336136c3565b5b92915050565b5f608082019050613b4d5f830187612e6b565b613b5a6020830186613042565b613b676040830185613042565b613b746060830184613042565b95945050505050565b7f68747470733a2f2f6578616d706c652e636f6d2f726566657272616c2f0000005f82015250565b5f613bb1601d836133aa565b9150613bbc82613b7d565b601d82019050919050565b5f613bd182613ba5565b9150613bdd82846133b4565b915081905092915050565b5f613bf282612e93565b9150613bfd83612e93565b925082613c0d57613c0c6139ce565b5b828206905092915050565b7f4e487b71000000000000000000000000000000000000000000000000000000005f52603260045260245ffdfea2646970667358221220b2630d72d8155fa51f34030e2bea8bb9a9549e336ec0ec90c5479155a69c9e8e64736f6c634300081a0033",
					"opcodes": "PUSH1 0x80 PUSH1 0x40 MSTORE PUSH1 0x3 DUP1 SSTORE CALLVALUE DUP1 ISZERO PUSH2 0x13 JUMPI PUSH0 DUP1 REVERT JUMPDEST POP CALLER PUSH1 0x4 PUSH0 PUSH2 0x100 EXP DUP2 SLOAD DUP2 PUSH20 0xFFFFFFFFFFFFFFFFFFFFFFFFFFFFFFFFFFFFFFFF MUL NOT AND SWAP1 DUP4 PUSH20 0xFFFFFFFFFFFFFFFFFFFFFFFFFFFFFFFFFFFFFFFF AND MUL OR SWAP1 SSTORE POP PUSH1 0x40 MLOAD DUP1 PUSH2 0x1A0 ADD PUSH1 0x40 MSTORE DUP1 PUSH0 PUSH20 0xFFFFFFFFFFFFFFFFFFFFFFFFFFFFFFFFFFFFFFFF AND DUP2 MSTORE PUSH1 0x20 ADD PUSH1 0x1 DUP2 MSTORE PUSH1 0x20 ADD PUSH0 DUP2 MSTORE PUSH1 0x20 ADD PUSH0 DUP2 MSTORE PUSH1 0x20 ADD PUSH0 DUP2 MSTORE PUSH1 0x20 ADD PUSH1 0x1 PUSH1 0xFF AND DUP2 MSTORE PUSH1 0x20 ADD PUSH0 PUSH8 0xFFFFFFFFFFFFFFFF DUP2 GT ISZERO PUSH2 0xB9 JUMPI PUSH2 0xB8 PUSH2 0x56D JUMP JUMPDEST JUMPDEST PUSH1 0x40 MLOAD SWAP1 DUP1 DUP3 MSTORE DUP1 PUSH1 0x20 MUL PUSH1 0x20 ADD DUP3 ADD PUSH1 0x40 MSTORE DUP1 ISZERO PUSH2 0xE7 JUMPI DUP2 PUSH1 0x20 ADD PUSH1 0x20 DUP3 MUL DUP1 CALLDATASIZE DUP4 CALLDATACOPY DUP1 DUP3 ADD SWAP2 POP POP SWAP1 POP JUMPDEST POP DUP2 MSTORE PUSH1 0x20 ADD PUSH1 0x40 MLOAD DUP1 PUSH1 0x20 ADD PUSH1 0x40 MSTORE DUP1 PUSH0 DUP2 MSTORE POP DUP2 MSTORE PUSH1 0x20 ADD PUSH1 0x40 MLOAD DUP1 PUSH1 0x20 ADD PUSH1 0x40 MSTORE DUP1 PUSH0 DUP2 MSTORE POP DUP2 MSTORE PUSH1 0x20 ADD PUSH1 0x40 MLOAD DUP1 PUSH1 0x20 ADD PUSH1 0x40 MSTORE DUP1 PUSH0 DUP2 MSTORE POP DUP2 MSTORE PUSH1 0x20 ADD PUSH1 0x40 MLOAD DUP1 PUSH1 0x20 ADD PUSH1 0x40 MSTORE DUP1 PUSH0 DUP2 MSTORE POP DUP2 MSTORE PUSH1 0x20 ADD PUSH0 DUP1 SHL DUP2 MSTORE PUSH1 0x20 ADD PUSH1 0x4 PUSH0 SWAP1 SLOAD SWAP1 PUSH2 0x100 EXP SWAP1 DIV PUSH20 0xFFFFFFFFFFFFFFFFFFFFFFFFFFFFFFFFFFFFFFFF AND PUSH20 0xFFFFFFFFFFFFFFFFFFFFFFFFFFFFFFFFFFFFFFFF AND DUP2 MSTORE POP PUSH0 DUP1 PUSH1 0x4 PUSH0 SWAP1 SLOAD SWAP1 PUSH2 0x100 EXP SWAP1 DIV PUSH20 0xFFFFFFFFFFFFFFFFFFFFFFFFFFFFFFFFFFFFFFFF AND PUSH20 0xFFFFFFFFFFFFFFFFFFFFFFFFFFFFFFFFFFFFFFFF AND PUSH20 0xFFFFFFFFFFFFFFFFFFFFFFFFFFFFFFFFFFFFFFFF AND DUP2 MSTORE PUSH1 0x20 ADD SWAP1 DUP2 MSTORE PUSH1 0x20 ADD PUSH0 KECCAK256 PUSH0 DUP3 ADD MLOAD DUP2 PUSH0 ADD PUSH0 PUSH2 0x100 EXP DUP2 SLOAD DUP2 PUSH20 0xFFFFFFFFFFFFFFFFFFFFFFFFFFFFFFFFFFFFFFFF MUL NOT AND SWAP1 DUP4 PUSH20 0xFFFFFFFFFFFFFFFFFFFFFFFFFFFFFFFFFFFFFFFF AND MUL OR SWAP1 SSTORE POP PUSH1 0x20 DUP3 ADD MLOAD DUP2 PUSH1 0x1 ADD SSTORE PUSH1 0x40 DUP3 ADD MLOAD DUP2 PUSH1 0x2 ADD SSTORE PUSH1 0x60 DUP3 ADD MLOAD DUP2 PUSH1 0x3 ADD SSTORE PUSH1 0x80 DUP3 ADD MLOAD DUP2 PUSH1 0x4 ADD SSTORE PUSH1 0xA0 DUP3 ADD MLOAD DUP2 PUSH1 0x5 ADD PUSH0 PUSH2 0x100 EXP DUP2 SLOAD DUP2 PUSH1 0xFF MUL NOT AND SWAP1 DUP4 PUSH1 0xFF AND MUL OR SWAP1 SSTORE POP PUSH1 0xC0 DUP3 ADD MLOAD DUP2 PUSH1 0x6 ADD SWAP1 DUP1 MLOAD SWAP1 PUSH1 0x20 ADD SWAP1 PUSH2 0x285 SWAP3 SWAP2 SWAP1 PUSH2 0x4CB JUMP JUMPDEST POP PUSH1 0xE0 DUP3 ADD MLOAD DUP2 PUSH1 0x7 ADD SWAP1 DUP2 PUSH2 0x29B SWAP2 SWAP1 PUSH2 0x7A7 JUMP JUMPDEST POP PUSH2 0x100 DUP3 ADD MLOAD DUP2 PUSH1 0x8 ADD SWAP1 DUP2 PUSH2 0x2B2 SWAP2 SWAP1 PUSH2 0x7A7 JUMP JUMPDEST POP PUSH2 0x120 DUP3 ADD MLOAD DUP2 PUSH1 0x9 ADD SWAP1 DUP2 PUSH2 0x2C9 SWAP2 SWAP1 PUSH2 0x7A7 JUMP JUMPDEST POP PUSH2 0x140 DUP3 ADD MLOAD DUP2 PUSH1 0xA ADD SWAP1 DUP2 PUSH2 0x2E0 SWAP2 SWAP1 PUSH2 0x7A7 JUMP JUMPDEST POP PUSH2 0x160 DUP3 ADD MLOAD DUP2 PUSH1 0xB ADD SSTORE PUSH2 0x180 DUP3 ADD MLOAD DUP2 PUSH1 0xC ADD PUSH0 PUSH2 0x100 EXP DUP2 SLOAD DUP2 PUSH20 0xFFFFFFFFFFFFFFFFFFFFFFFFFFFFFFFFFFFFFFFF MUL NOT AND SWAP1 DUP4 PUSH20 0xFFFFFFFFFFFFFFFFFFFFFFFFFFFFFFFFFFFFFFFF AND MUL OR SWAP1 SSTORE POP SWAP1 POP POP PUSH1 0x4 PUSH0 SWAP1 SLOAD SWAP1 PUSH2 0x100 EXP SWAP1 DIV PUSH20 0xFFFFFFFFFFFFFFFFFFFFFFFFFFFFFFFFFFFFFFFF AND PUSH1 0x1 PUSH0 PUSH1 0x1 DUP2 MSTORE PUSH1 0x20 ADD SWAP1 DUP2 MSTORE PUSH1 0x20 ADD PUSH0 KECCAK256 PUSH0 PUSH2 0x100 EXP DUP2 SLOAD DUP2 PUSH20 0xFFFFFFFFFFFFFFFFFFFFFFFFFFFFFFFFFFFFFFFF MUL NOT AND SWAP1 DUP4 PUSH20 0xFFFFFFFFFFFFFFFFFFFFFFFFFFFFFFFFFFFFFFFF AND MUL OR SWAP1 SSTORE POP PUSH8 0x4563918244F40000 PUSH1 0x2 PUSH0 PUSH1 0x1 PUSH1 0xFF AND DUP2 MSTORE PUSH1 0x20 ADD SWAP1 DUP2 MSTORE PUSH1 0x20 ADD PUSH0 KECCAK256 DUP2 SWAP1 SSTORE POP PUSH0 PUSH1 0x2 SWAP1 POP JUMPDEST PUSH1 0x8 DUP2 PUSH1 0xFF AND GT PUSH2 0x437 JUMPI PUSH1 0x2 DUP1 PUSH0 PUSH1 0x1 DUP5 PUSH2 0x3EB SWAP2 SWAP1 PUSH2 0x8AF JUMP JUMPDEST PUSH1 0xFF AND PUSH1 0xFF AND DUP2 MSTORE PUSH1 0x20 ADD SWAP1 DUP2 MSTORE PUSH1 0x20 ADD PUSH0 KECCAK256 SLOAD PUSH2 0x409 SWAP2 SWAP1 PUSH2 0x8E3 JUMP JUMPDEST PUSH1 0x2 PUSH0 DUP4 PUSH1 0xFF AND PUSH1 0xFF AND DUP2 MSTORE PUSH1 0x20 ADD SWAP1 DUP2 MSTORE PUSH1 0x20 ADD PUSH0 KECCAK256 DUP2 SWAP1 SSTORE POP DUP1 DUP1 PUSH2 0x42F SWAP1 PUSH2 0x924 JUMP JUMPDEST SWAP2 POP POP PUSH2 0x3CF JUMP JUMPDEST POP PUSH9 0x43C33C193756480000 PUSH1 0x2 PUSH0 PUSH1 0x9 PUSH1 0xFF AND DUP2 MSTORE PUSH1 0x20 ADD SWAP1 DUP2 MSTORE PUSH1 0x20 ADD PUSH0 KECCAK256 DUP2 SWAP1 SSTORE POP PUSH9 0x878678326EAC900000 PUSH1 0x2 PUSH0 PUSH1 0xA PUSH1 0xFF AND DUP2 MSTORE PUSH1 0x20 ADD SWAP1 DUP2 MSTORE PUSH1 0x20 ADD PUSH0 KECCAK256 DUP2 SWAP1 SSTORE POP PUSH10 0x10F0CF064DD59200000 PUSH1 0x2 PUSH0 PUSH1 0xB PUSH1 0xFF AND DUP2 MSTORE PUSH1 0x20 ADD SWAP1 DUP2 MSTORE PUSH1 0x20 ADD PUSH0 KECCAK256 DUP2 SWAP1 SSTORE POP PUSH10 0x218AE196B8D4F300000 PUSH1 0x2 PUSH0 PUSH1 0xC PUSH1 0xFF AND DUP2 MSTORE PUSH1 0x20 ADD SWAP1 DUP2 MSTORE PUSH1 0x20 ADD PUSH0 KECCAK256 DUP2 SWAP1 SSTORE POP PUSH2 0x94C JUMP JUMPDEST DUP3 DUP1 SLOAD DUP3 DUP3 SSTORE SWAP1 PUSH0 MSTORE PUSH1 0x20 PUSH0 KECCAK256 SWAP1 DUP2 ADD SWAP3 DUP3 ISZERO PUSH2 0x541 JUMPI SWAP2 PUSH1 0x20 MUL DUP3 ADD JUMPDEST DUP3 DUP2 GT ISZERO PUSH2 0x540 JUMPI DUP3 MLOAD DUP3 PUSH0 PUSH2 0x100 EXP DUP2 SLOAD DUP2 PUSH20 0xFFFFFFFFFFFFFFFFFFFFFFFFFFFFFFFFFFFFFFFF MUL NOT AND SWAP1 DUP4 PUSH20 0xFFFFFFFFFFFFFFFFFFFFFFFFFFFFFFFFFFFFFFFF AND MUL OR SWAP1 SSTORE POP SWAP2 PUSH1 0x20 ADD SWAP2 SWAP1 PUSH1 0x1 ADD SWAP1 PUSH2 0x4E9 JUMP JUMPDEST JUMPDEST POP SWAP1 POP PUSH2 0x54E SWAP2 SWAP1 PUSH2 0x552 JUMP JUMPDEST POP SWAP1 JUMP JUMPDEST JUMPDEST DUP1 DUP3 GT ISZERO PUSH2 0x569 JUMPI PUSH0 DUP2 PUSH0 SWAP1 SSTORE POP PUSH1 0x1 ADD PUSH2 0x553 JUMP JUMPDEST POP SWAP1 JUMP JUMPDEST PUSH32 0x4E487B7100000000000000000000000000000000000000000000000000000000 PUSH0 MSTORE PUSH1 0x41 PUSH1 0x4 MSTORE PUSH1 0x24 PUSH0 REVERT JUMPDEST PUSH0 DUP2 MLOAD SWAP1 POP SWAP2 SWAP1 POP JUMP JUMPDEST PUSH32 0x4E487B7100000000000000000000000000000000000000000000000000000000 PUSH0 MSTORE PUSH1 0x22 PUSH1 0x4 MSTORE PUSH1 0x24 PUSH0 REVERT JUMPDEST PUSH0 PUSH1 0x2 DUP3 DIV SWAP1 POP PUSH1 0x1 DUP3 AND DUP1 PUSH2 0x5E8 JUMPI PUSH1 0x7F DUP3 AND SWAP2 POP JUMPDEST PUSH1 0x20 DUP3 LT DUP2 SUB PUSH2 0x5FB JUMPI PUSH2 0x5FA PUSH2 0x5A4 JUMP JUMPDEST JUMPDEST POP SWAP2 SWAP1 POP JUMP JUMPDEST PUSH0 DUP2 SWAP1 POP DUP2 PUSH0 MSTORE PUSH1 0x20 PUSH0 KECCAK256 SWAP1 POP SWAP2 SWAP1 POP JUMP JUMPDEST PUSH0 PUSH1 0x20 PUSH1 0x1F DUP4 ADD DIV SWAP1 POP SWAP2 SWAP1 POP JUMP JUMPDEST PUSH0 DUP3 DUP3 SHL SWAP1 POP SWAP3 SWAP2 POP POP JUMP JUMPDEST PUSH0 PUSH1 0x8 DUP4 MUL PUSH2 0x65D PUSH32 0xFFFFFFFFFFFFFFFFFFFFFFFFFFFFFFFFFFFFFFFFFFFFFFFFFFFFFFFFFFFFFFFF DUP3 PUSH2 0x622 JUMP JUMPDEST PUSH2 0x667 DUP7 DUP4 PUSH2 0x622 JUMP JUMPDEST SWAP6 POP DUP1 NOT DUP5 AND SWAP4 POP DUP1 DUP7 AND DUP5 OR SWAP3 POP POP POP SWAP4 SWAP3 POP POP POP JUMP JUMPDEST PUSH0 DUP2 SWAP1 POP SWAP2 SWAP1 POP JUMP JUMPDEST PUSH0 DUP2 SWAP1 POP SWAP2 SWAP1 POP JUMP JUMPDEST PUSH0 PUSH2 0x6AB PUSH2 0x6A6 PUSH2 0x6A1 DUP5 PUSH2 0x67F JUMP JUMPDEST PUSH2 0x688 JUMP JUMPDEST PUSH2 0x67F JUMP JUMPDEST SWAP1 POP SWAP2 SWAP1 POP JUMP JUMPDEST PUSH0 DUP2 SWAP1 POP SWAP2 SWAP1 POP JUMP JUMPDEST PUSH2 0x6C4 DUP4 PUSH2 0x691 JUMP JUMPDEST PUSH2 0x6D8 PUSH2 0x6D0 DUP3 PUSH2 0x6B2 JUMP JUMPDEST DUP5 DUP5 SLOAD PUSH2 0x62E JUMP JUMPDEST DUP3 SSTORE POP POP POP POP JUMP JUMPDEST PUSH0 SWAP1 JUMP JUMPDEST PUSH2 0x6EC PUSH2 0x6E0 JUMP JUMPDEST PUSH2 0x6F7 DUP2 DUP5 DUP5 PUSH2 0x6BB JUMP JUMPDEST POP POP POP JUMP JUMPDEST JUMPDEST DUP2 DUP2 LT ISZERO PUSH2 0x71A JUMPI PUSH2 0x70F PUSH0 DUP3 PUSH2 0x6E4 JUMP JUMPDEST PUSH1 0x1 DUP2 ADD SWAP1 POP PUSH2 0x6FD JUMP JUMPDEST POP POP JUMP JUMPDEST PUSH1 0x1F DUP3 GT ISZERO PUSH2 0x75F JUMPI PUSH2 0x730 DUP2 PUSH2 0x601 JUMP JUMPDEST PUSH2 0x739 DUP5 PUSH2 0x613 JUMP JUMPDEST DUP2 ADD PUSH1 0x20 DUP6 LT ISZERO PUSH2 0x748 JUMPI DUP2 SWAP1 POP JUMPDEST PUSH2 0x75C PUSH2 0x754 DUP6 PUSH2 0x613 JUMP JUMPDEST DUP4 ADD DUP3 PUSH2 0x6FC JUMP JUMPDEST POP POP JUMPDEST POP POP POP JUMP JUMPDEST PUSH0 DUP3 DUP3 SHR SWAP1 POP SWAP3 SWAP2 POP POP JUMP JUMPDEST PUSH0 PUSH2 0x77F PUSH0 NOT DUP5 PUSH1 0x8 MUL PUSH2 0x764 JUMP JUMPDEST NOT DUP1 DUP4 AND SWAP2 POP POP SWAP3 SWAP2 POP POP JUMP JUMPDEST PUSH0 PUSH2 0x797 DUP4 DUP4 PUSH2 0x770 JUMP JUMPDEST SWAP2 POP DUP3 PUSH1 0x2 MUL DUP3 OR SWAP1 POP SWAP3 SWAP2 POP POP JUMP JUMPDEST PUSH2 0x7B0 DUP3 PUSH2 0x59A JUMP JUMPDEST PUSH8 0xFFFFFFFFFFFFFFFF DUP2 GT ISZERO PUSH2 0x7C9 JUMPI PUSH2 0x7C8 PUSH2 0x56D JUMP JUMPDEST JUMPDEST PUSH2 0x7D3 DUP3 SLOAD PUSH2 0x5D1 JUMP JUMPDEST PUSH2 0x7DE DUP3 DUP3 DUP6 PUSH2 0x71E JUMP JUMPDEST PUSH0 PUSH1 0x20 SWAP1 POP PUSH1 0x1F DUP4 GT PUSH1 0x1 DUP2 EQ PUSH2 0x80F JUMPI PUSH0 DUP5 ISZERO PUSH2 0x7FD JUMPI DUP3 DUP8 ADD MLOAD SWAP1 POP JUMPDEST PUSH2 0x807 DUP6 DUP3 PUSH2 0x78C JUMP JUMPDEST DUP7 SSTORE POP PUSH2 0x86E JUMP JUMPDEST PUSH1 0x1F NOT DUP5 AND PUSH2 0x81D DUP7 PUSH2 0x601 JUMP JUMPDEST PUSH0 JUMPDEST DUP3 DUP2 LT ISZERO PUSH2 0x844 JUMPI DUP5 DUP10 ADD MLOAD DUP3 SSTORE PUSH1 0x1 DUP3 ADD SWAP2 POP PUSH1 0x20 DUP6 ADD SWAP5 POP PUSH1 0x20 DUP2 ADD SWAP1 POP PUSH2 0x81F JUMP JUMPDEST DUP7 DUP4 LT ISZERO PUSH2 0x861 JUMPI DUP5 DUP10 ADD MLOAD PUSH2 0x85D PUSH1 0x1F DUP10 AND DUP3 PUSH2 0x770 JUMP JUMPDEST DUP4 SSTORE POP JUMPDEST PUSH1 0x1 PUSH1 0x2 DUP9 MUL ADD DUP9 SSTORE POP POP POP JUMPDEST POP POP POP POP POP POP JUMP JUMPDEST PUSH0 PUSH1 0xFF DUP3 AND SWAP1 POP SWAP2 SWAP1 POP JUMP JUMPDEST PUSH32 0x4E487B7100000000000000000000000000000000000000000000000000000000 PUSH0 MSTORE PUSH1 0x11 PUSH1 0x4 MSTORE PUSH1 0x24 PUSH0 REVERT JUMPDEST PUSH0 PUSH2 0x8B9 DUP3 PUSH2 0x876 JUMP JUMPDEST SWAP2 POP PUSH2 0x8C4 DUP4 PUSH2 0x876 JUMP JUMPDEST SWAP3 POP DUP3 DUP3 SUB SWAP1 POP PUSH1 0xFF DUP2 GT ISZERO PUSH2 0x8DD JUMPI PUSH2 0x8DC PUSH2 0x882 JUMP JUMPDEST JUMPDEST SWAP3 SWAP2 POP POP JUMP JUMPDEST PUSH0 PUSH2 0x8ED DUP3 PUSH2 0x67F JUMP JUMPDEST SWAP2 POP PUSH2 0x8F8 DUP4 PUSH2 0x67F JUMP JUMPDEST SWAP3 POP DUP3 DUP3 MUL PUSH2 0x906 DUP2 PUSH2 0x67F JUMP JUMPDEST SWAP2 POP DUP3 DUP3 DIV DUP5 EQ DUP4 ISZERO OR PUSH2 0x91D JUMPI PUSH2 0x91C PUSH2 0x882 JUMP JUMPDEST JUMPDEST POP SWAP3 SWAP2 POP POP JUMP JUMPDEST PUSH0 PUSH2 0x92E DUP3 PUSH2 0x876 JUMP JUMPDEST SWAP2 POP PUSH1 0xFF DUP3 SUB PUSH2 0x941 JUMPI PUSH2 0x940 PUSH2 0x882 JUMP JUMPDEST JUMPDEST PUSH1 0x1 DUP3 ADD SWAP1 POP SWAP2 SWAP1 POP JUMP JUMPDEST PUSH2 0x3C7B DUP1 PUSH2 0x959 PUSH0 CODECOPY PUSH0 RETURN INVALID PUSH1 0x80 PUSH1 0x40 MSTORE PUSH1 0x4 CALLDATASIZE LT PUSH2 0x117 JUMPI PUSH0 CALLDATALOAD PUSH1 0xE0 SHR DUP1 PUSH4 0x6F8E2516 GT PUSH2 0x9F JUMPI DUP1 PUSH4 0x9AC7E09E GT PUSH2 0x63 JUMPI DUP1 PUSH4 0x9AC7E09E EQ PUSH2 0x3C0 JUMPI DUP1 PUSH4 0xA87430BA EQ PUSH2 0x3EA JUMPI DUP1 PUSH4 0xAED8A6A7 EQ PUSH2 0x431 JUMPI DUP1 PUSH4 0xDE972B43 EQ PUSH2 0x46D JUMPI DUP1 PUSH4 0xECABDF79 EQ PUSH2 0x4AA JUMPI PUSH2 0x11E JUMP JUMPDEST DUP1 PUSH4 0x6F8E2516 EQ PUSH2 0x2D2 JUMPI DUP1 PUSH4 0x8D17A4D0 EQ PUSH2 0x30E JUMPI DUP1 PUSH4 0x8DA5CB5B EQ PUSH2 0x32A JUMPI DUP1 PUSH4 0x90287318 EQ PUSH2 0x354 JUMPI DUP1 PUSH4 0x90426274 EQ PUSH2 0x390 JUMPI PUSH2 0x11E JUMP JUMPDEST DUP1 PUSH4 0x348D4487 GT PUSH2 0xE6 JUMPI DUP1 PUSH4 0x348D4487 EQ PUSH2 0x1C0 JUMPI DUP1 PUSH4 0x3EE3D186 EQ PUSH2 0x1EA JUMPI DUP1 PUSH4 0x6386C1C7 EQ PUSH2 0x226 JUMPI DUP1 PUSH4 0x64B4F751 EQ PUSH2 0x26C JUMPI DUP1 PUSH4 0x6ED6DA9E EQ PUSH2 0x296 JUMPI PUSH2 0x11E JUMP JUMPDEST DUP1 PUSH4 0xBF424B4 EQ PUSH2 0x122 JUMPI DUP1 PUSH4 0x29C70400 EQ PUSH2 0x13E JUMPI DUP1 PUSH4 0x2A2D0C47 EQ PUSH2 0x168 JUMPI DUP1 PUSH4 0x3056DEB8 EQ PUSH2 0x1A4 JUMPI PUSH2 0x11E JUMP JUMPDEST CALLDATASIZE PUSH2 0x11E JUMPI STOP JUMPDEST PUSH0 DUP1 REVERT JUMPDEST PUSH2 0x13C PUSH1 0x4 DUP1 CALLDATASIZE SUB DUP2 ADD SWAP1 PUSH2 0x137 SWAP2 SWAP1 PUSH2 0x2D4A JUMP JUMPDEST PUSH2 0x4E6 JUMP JUMPDEST STOP JUMPDEST CALLVALUE DUP1 ISZERO PUSH2 0x149 JUMPI PUSH0 DUP1 REVERT JUMPDEST POP PUSH2 0x152 PUSH2 0x982 JUMP JUMPDEST PUSH1 0x40 MLOAD PUSH2 0x15F SWAP2 SWAP1 PUSH2 0x2E7A JUMP JUMPDEST PUSH1 0x40 MLOAD DUP1 SWAP2 SUB SWAP1 RETURN JUMPDEST CALLVALUE DUP1 ISZERO PUSH2 0x173 JUMPI PUSH0 DUP1 REVERT JUMPDEST POP PUSH2 0x18E PUSH1 0x4 DUP1 CALLDATASIZE SUB DUP2 ADD SWAP1 PUSH2 0x189 SWAP2 SWAP1 PUSH2 0x2EC6 JUMP JUMPDEST PUSH2 0x987 JUMP JUMPDEST PUSH1 0x40 MLOAD PUSH2 0x19B SWAP2 SWAP1 PUSH2 0x2F00 JUMP JUMPDEST PUSH1 0x40 MLOAD DUP1 SWAP2 SUB SWAP1 RETURN JUMPDEST PUSH2 0x1BE PUSH1 0x4 DUP1 CALLDATASIZE SUB DUP2 ADD SWAP1 PUSH2 0x1B9 SWAP2 SWAP1 PUSH2 0x2F19 JUMP JUMPDEST PUSH2 0x9B7 JUMP JUMPDEST STOP JUMPDEST CALLVALUE DUP1 ISZERO PUSH2 0x1CB JUMPI PUSH0 DUP1 REVERT JUMPDEST POP PUSH2 0x1D4 PUSH2 0xF8E JUMP JUMPDEST PUSH1 0x40 MLOAD PUSH2 0x1E1 SWAP2 SWAP1 PUSH2 0x3051 JUMP JUMPDEST PUSH1 0x40 MLOAD DUP1 SWAP2 SUB SWAP1 RETURN JUMPDEST CALLVALUE DUP1 ISZERO PUSH2 0x1F5 JUMPI PUSH0 DUP1 REVERT JUMPDEST POP PUSH2 0x210 PUSH1 0x4 DUP1 CALLDATASIZE SUB DUP2 ADD SWAP1 PUSH2 0x20B SWAP2 SWAP1 PUSH2 0x306A JUMP JUMPDEST PUSH2 0xF94 JUMP JUMPDEST PUSH1 0x40 MLOAD PUSH2 0x21D SWAP2 SWAP1 PUSH2 0x3051 JUMP JUMPDEST PUSH1 0x40 MLOAD DUP1 SWAP2 SUB SWAP1 RETURN JUMPDEST CALLVALUE DUP1 ISZERO PUSH2 0x231 JUMPI PUSH0 DUP1 REVERT JUMPDEST POP PUSH2 0x24C PUSH1 0x4 DUP1 CALLDATASIZE SUB DUP2 ADD SWAP1 PUSH2 0x247 SWAP2 SWAP1 PUSH2 0x306A JUMP JUMPDEST PUSH2 0xFA5 JUMP JUMPDEST PUSH1 0x40 MLOAD PUSH2 0x263 SWAP12 SWAP11 SWAP10 SWAP9 SWAP8 SWAP7 SWAP6 SWAP5 SWAP4 SWAP3 SWAP2 SWAP1 PUSH2 0x30F5 JUMP JUMPDEST PUSH1 0x40 MLOAD DUP1 SWAP2 SUB SWAP1 RETURN JUMPDEST CALLVALUE DUP1 ISZERO PUSH2 0x277 JUMPI PUSH0 DUP1 REVERT JUMPDEST POP PUSH2 0x280 PUSH2 0x1425 JUMP JUMPDEST PUSH1 0x40 MLOAD PUSH2 0x28D SWAP2 SWAP1 PUSH2 0x3051 JUMP JUMPDEST PUSH1 0x40 MLOAD DUP1 SWAP2 SUB SWAP1 RETURN JUMPDEST CALLVALUE DUP1 ISZERO PUSH2 0x2A1 JUMPI PUSH0 DUP1 REVERT JUMPDEST POP PUSH2 0x2BC PUSH1 0x4 DUP1 CALLDATASIZE SUB DUP2 ADD SWAP1 PUSH2 0x2B7 SWAP2 SWAP1 PUSH2 0x2EC6 JUMP JUMPDEST PUSH2 0x1432 JUMP JUMPDEST PUSH1 0x40 MLOAD PUSH2 0x2C9 SWAP2 SWAP1 PUSH2 0x2F00 JUMP JUMPDEST PUSH1 0x40 MLOAD DUP1 SWAP2 SUB SWAP1 RETURN JUMPDEST CALLVALUE DUP1 ISZERO PUSH2 0x2DD JUMPI PUSH0 DUP1 REVERT JUMPDEST POP PUSH2 0x2F8 PUSH1 0x4 DUP1 CALLDATASIZE SUB DUP2 ADD SWAP1 PUSH2 0x2F3 SWAP2 SWAP1 PUSH2 0x31E4 JUMP JUMPDEST PUSH2 0x146B JUMP JUMPDEST PUSH1 0x40 MLOAD PUSH2 0x305 SWAP2 SWAP1 PUSH2 0x3051 JUMP JUMPDEST PUSH1 0x40 MLOAD DUP1 SWAP2 SUB SWAP1 RETURN JUMPDEST PUSH2 0x328 PUSH1 0x4 DUP1 CALLDATASIZE SUB DUP2 ADD SWAP1 PUSH2 0x323 SWAP2 SWAP1 PUSH2 0x31E4 JUMP JUMPDEST PUSH2 0x14E5 JUMP JUMPDEST STOP JUMPDEST CALLVALUE DUP1 ISZERO PUSH2 0x335 JUMPI PUSH0 DUP1 REVERT JUMPDEST POP PUSH2 0x33E PUSH2 0x1925 JUMP JUMPDEST PUSH1 0x40 MLOAD PUSH2 0x34B SWAP2 SWAP1 PUSH2 0x2F00 JUMP JUMPDEST PUSH1 0x40 MLOAD DUP1 SWAP2 SUB SWAP1 RETURN JUMPDEST CALLVALUE DUP1 ISZERO PUSH2 0x35F JUMPI PUSH0 DUP1 REVERT JUMPDEST POP PUSH2 0x37A PUSH1 0x4 DUP1 CALLDATASIZE SUB DUP2 ADD SWAP1 PUSH2 0x375 SWAP2 SWAP1 PUSH2 0x306A JUMP JUMPDEST PUSH2 0x194A JUMP JUMPDEST PUSH1 0x40 MLOAD PUSH2 0x387 SWAP2 SWAP1 PUSH2 0x2E7A JUMP JUMPDEST PUSH1 0x40 MLOAD DUP1 SWAP2 SUB SWAP1 RETURN JUMPDEST PUSH2 0x3AA PUSH1 0x4 DUP1 CALLDATASIZE SUB DUP2 ADD SWAP1 PUSH2 0x3A5 SWAP2 SWAP1 PUSH2 0x306A JUMP JUMPDEST PUSH2 0x1A3D JUMP JUMPDEST PUSH1 0x40 MLOAD PUSH2 0x3B7 SWAP2 SWAP1 PUSH2 0x3051 JUMP JUMPDEST PUSH1 0x40 MLOAD DUP1 SWAP2 SUB SWAP1 RETURN JUMPDEST CALLVALUE DUP1 ISZERO PUSH2 0x3CB JUMPI PUSH0 DUP1 REVERT JUMPDEST POP PUSH2 0x3D4 PUSH2 0x1D1E JUMP JUMPDEST PUSH1 0x40 MLOAD PUSH2 0x3E1 SWAP2 SWAP1 PUSH2 0x3051 JUMP JUMPDEST PUSH1 0x40 MLOAD DUP1 SWAP2 SUB SWAP1 RETURN JUMPDEST CALLVALUE DUP1 ISZERO PUSH2 0x3F5 JUMPI PUSH0 DUP1 REVERT JUMPDEST POP PUSH2 0x410 PUSH1 0x4 DUP1 CALLDATASIZE SUB DUP2 ADD SWAP1 PUSH2 0x40B SWAP2 SWAP1 PUSH2 0x306A JUMP JUMPDEST PUSH2 0x1D2A JUMP JUMPDEST PUSH1 0x40 MLOAD PUSH2 0x428 SWAP13 SWAP12 SWAP11 SWAP10 SWAP9 SWAP8 SWAP7 SWAP6 SWAP5 SWAP4 SWAP3 SWAP2 SWAP1 PUSH2 0x3227 JUMP JUMPDEST PUSH1 0x40 MLOAD DUP1 SWAP2 SUB SWAP1 RETURN JUMPDEST CALLVALUE DUP1 ISZERO PUSH2 0x43C JUMPI PUSH0 DUP1 REVERT JUMPDEST POP PUSH2 0x457 PUSH1 0x4 DUP1 CALLDATASIZE SUB DUP2 ADD SWAP1 PUSH2 0x452 SWAP2 SWAP1 PUSH2 0x306A JUMP JUMPDEST PUSH2 0x1FE7 JUMP JUMPDEST PUSH1 0x40 MLOAD PUSH2 0x464 SWAP2 SWAP1 PUSH2 0x32FB JUMP JUMPDEST PUSH1 0x40 MLOAD DUP1 SWAP2 SUB SWAP1 RETURN JUMPDEST CALLVALUE DUP1 ISZERO PUSH2 0x478 JUMPI PUSH0 DUP1 REVERT JUMPDEST POP PUSH2 0x493 PUSH1 0x4 DUP1 CALLDATASIZE SUB DUP2 ADD SWAP1 PUSH2 0x48E SWAP2 SWAP1 PUSH2 0x306A JUMP JUMPDEST PUSH2 0x205C JUMP JUMPDEST PUSH1 0x40 MLOAD PUSH2 0x4A1 SWAP3 SWAP2 SWAP1 PUSH2 0x331B JUMP JUMPDEST PUSH1 0x40 MLOAD DUP1 SWAP2 SUB SWAP1 RETURN JUMPDEST CALLVALUE DUP1 ISZERO PUSH2 0x4B5 JUMPI PUSH0 DUP1 REVERT JUMPDEST POP PUSH2 0x4D0 PUSH1 0x4 DUP1 CALLDATASIZE SUB DUP2 ADD SWAP1 PUSH2 0x4CB SWAP2 SWAP1 PUSH2 0x31E4 JUMP JUMPDEST PUSH2 0x247F JUMP JUMPDEST PUSH1 0x40 MLOAD PUSH2 0x4DD SWAP2 SWAP1 PUSH2 0x3051 JUMP JUMPDEST PUSH1 0x40 MLOAD DUP1 SWAP2 SUB SWAP1 RETURN JUMPDEST PUSH0 DUP1 PUSH0 DUP9 PUSH20 0xFFFFFFFFFFFFFFFFFFFFFFFFFFFFFFFFFFFFFFFF AND PUSH20 0xFFFFFFFFFFFFFFFFFFFFFFFFFFFFFFFFFFFFFFFF AND DUP2 MSTORE PUSH1 0x20 ADD SWAP1 DUP2 MSTORE PUSH1 0x20 ADD PUSH0 KECCAK256 PUSH1 0x1 ADD SLOAD EQ PUSH2 0x567 JUMPI PUSH1 0x40 MLOAD PUSH32 0x8C379A000000000000000000000000000000000000000000000000000000000 DUP2 MSTORE PUSH1 0x4 ADD PUSH2 0x55E SWAP1 PUSH2 0x338C JUMP JUMPDEST PUSH1 0x40 MLOAD DUP1 SWAP2 SUB SWAP1 REVERT JUMPDEST PUSH0 DUP2 PUSH1 0x40 MLOAD PUSH1 0x20 ADD PUSH2 0x579 SWAP2 SWAP1 PUSH2 0x33E4 JUMP JUMPDEST PUSH1 0x40 MLOAD PUSH1 0x20 DUP2 DUP4 SUB SUB DUP2 MSTORE SWAP1 PUSH1 0x40 MSTORE DUP1 MLOAD SWAP1 PUSH1 0x20 ADD KECCAK256 SWAP1 POP PUSH1 0x40 MLOAD DUP1 PUSH2 0x1A0 ADD PUSH1 0x40 MSTORE DUP1 PUSH0 PUSH20 0xFFFFFFFFFFFFFFFFFFFFFFFFFFFFFFFFFFFFFFFF AND DUP2 MSTORE PUSH1 0x20 ADD PUSH1 0x3 SLOAD DUP2 MSTORE PUSH1 0x20 ADD PUSH0 DUP2 MSTORE PUSH1 0x20 ADD PUSH0 DUP2 MSTORE PUSH1 0x20 ADD PUSH0 DUP2 MSTORE PUSH1 0x20 ADD PUSH1 0x1 PUSH1 0xFF AND DUP2 MSTORE PUSH1 0x20 ADD PUSH0 PUSH8 0xFFFFFFFFFFFFFFFF DUP2 GT ISZERO PUSH2 0x5F7 JUMPI PUSH2 0x5F6 PUSH2 0x2C26 JUMP JUMPDEST JUMPDEST PUSH1 0x40 MLOAD SWAP1 DUP1 DUP3 MSTORE DUP1 PUSH1 0x20 MUL PUSH1 0x20 ADD DUP3 ADD PUSH1 0x40 MSTORE DUP1 ISZERO PUSH2 0x625 JUMPI DUP2 PUSH1 0x20 ADD PUSH1 0x20 DUP3 MUL DUP1 CALLDATASIZE DUP4 CALLDATACOPY DUP1 DUP3 ADD SWAP2 POP POP SWAP1 POP JUMPDEST POP DUP2 MSTORE PUSH1 0x20 ADD DUP8 DUP2 MSTORE PUSH1 0x20 ADD DUP7 DUP2 MSTORE PUSH1 0x20 ADD DUP6 DUP2 MSTORE PUSH1 0x20 ADD DUP5 DUP2 MSTORE PUSH1 0x20 ADD DUP3 DUP2 MSTORE PUSH1 0x20 ADD DUP9 PUSH20 0xFFFFFFFFFFFFFFFFFFFFFFFFFFFFFFFFFFFFFFFF AND DUP2 MSTORE POP PUSH0 DUP1 DUP10 PUSH20 0xFFFFFFFFFFFFFFFFFFFFFFFFFFFFFFFFFFFFFFFF AND PUSH20 0xFFFFFFFFFFFFFFFFFFFFFFFFFFFFFFFFFFFFFFFF AND DUP2 MSTORE PUSH1 0x20 ADD SWAP1 DUP2 MSTORE PUSH1 0x20 ADD PUSH0 KECCAK256 PUSH0 DUP3 ADD MLOAD DUP2 PUSH0 ADD PUSH0 PUSH2 0x100 EXP DUP2 SLOAD DUP2 PUSH20 0xFFFFFFFFFFFFFFFFFFFFFFFFFFFFFFFFFFFFFFFF MUL NOT AND SWAP1 DUP4 PUSH20 0xFFFFFFFFFFFFFFFFFFFFFFFFFFFFFFFFFFFFFFFF AND MUL OR SWAP1 SSTORE POP PUSH1 0x20 DUP3 ADD MLOAD DUP2 PUSH1 0x1 ADD SSTORE PUSH1 0x40 DUP3 ADD MLOAD DUP2 PUSH1 0x2 ADD SSTORE PUSH1 0x60 DUP3 ADD MLOAD DUP2 PUSH1 0x3 ADD SSTORE PUSH1 0x80 DUP3 ADD MLOAD DUP2 PUSH1 0x4 ADD SSTORE PUSH1 0xA0 DUP3 ADD MLOAD DUP2 PUSH1 0x5 ADD PUSH0 PUSH2 0x100 EXP DUP2 SLOAD DUP2 PUSH1 0xFF MUL NOT AND SWAP1 DUP4 PUSH1 0xFF AND MUL OR SWAP1 SSTORE POP PUSH1 0xC0 DUP3 ADD MLOAD DUP2 PUSH1 0x6 ADD SWAP1 DUP1 MLOAD SWAP1 PUSH1 0x20 ADD SWAP1 PUSH2 0x747 SWAP3 SWAP2 SWAP1 PUSH2 0x2B01 JUMP JUMPDEST POP PUSH1 0xE0 DUP3 ADD MLOAD DUP2 PUSH1 0x7 ADD SWAP1 DUP2 PUSH2 0x75D SWAP2 SWAP1 PUSH2 0x35F4 JUMP JUMPDEST POP PUSH2 0x100 DUP3 ADD MLOAD DUP2 PUSH1 0x8 ADD SWAP1 DUP2 PUSH2 0x774 SWAP2 SWAP1 PUSH2 0x35F4 JUMP JUMPDEST POP PUSH2 0x120 DUP3 ADD MLOAD DUP2 PUSH1 0x9 ADD SWAP1 DUP2 PUSH2 0x78B SWAP2 SWAP1 PUSH2 0x35F4 JUMP JUMPDEST POP PUSH2 0x140 DUP3 ADD MLOAD DUP2 PUSH1 0xA ADD SWAP1 DUP2 PUSH2 0x7A2 SWAP2 SWAP1 PUSH2 0x35F4 JUMP JUMPDEST POP PUSH2 0x160 DUP3 ADD MLOAD DUP2 PUSH1 0xB ADD SSTORE PUSH2 0x180 DUP3 ADD MLOAD DUP2 PUSH1 0xC ADD PUSH0 PUSH2 0x100 EXP DUP2 SLOAD DUP2 PUSH20 0xFFFFFFFFFFFFFFFFFFFFFFFFFFFFFFFFFFFFFFFF MUL NOT AND SWAP1 DUP4 PUSH20 0xFFFFFFFFFFFFFFFFFFFFFFFFFFFFFFFFFFFFFFFF AND MUL OR SWAP1 SSTORE POP SWAP1 POP POP DUP7 PUSH1 0x1 PUSH0 PUSH1 0x3 SLOAD DUP2 MSTORE PUSH1 0x20 ADD SWAP1 DUP2 MSTORE PUSH1 0x20 ADD PUSH0 KECCAK256 PUSH0 PUSH2 0x100 EXP DUP2 SLOAD DUP2 PUSH20 0xFFFFFFFFFFFFFFFFFFFFFFFFFFFFFFFFFFFFFFFF MUL NOT AND SWAP1 DUP4 PUSH20 0xFFFFFFFFFFFFFFFFFFFFFFFFFFFFFFFFFFFFFFFF AND MUL OR SWAP1 SSTORE POP PUSH1 0x3 PUSH0 DUP2 SLOAD DUP1 SWAP3 SWAP2 SWAP1 PUSH2 0x85B SWAP1 PUSH2 0x36F0 JUMP JUMPDEST SWAP2 SWAP1 POP SSTORE POP PUSH1 0x4 PUSH0 SWAP1 SLOAD SWAP1 PUSH2 0x100 EXP SWAP1 DIV PUSH20 0xFFFFFFFFFFFFFFFFFFFFFFFFFFFFFFFFFFFFFFFF AND PUSH20 0xFFFFFFFFFFFFFFFFFFFFFFFFFFFFFFFFFFFFFFFF AND PUSH2 0x8FC CALLVALUE SWAP1 DUP2 ISZERO MUL SWAP1 PUSH1 0x40 MLOAD PUSH0 PUSH1 0x40 MLOAD DUP1 DUP4 SUB DUP2 DUP6 DUP9 DUP9 CALL SWAP4 POP POP POP POP ISZERO DUP1 ISZERO PUSH2 0x8C4 JUMPI RETURNDATASIZE PUSH0 DUP1 RETURNDATACOPY RETURNDATASIZE PUSH0 REVERT JUMPDEST POP PUSH0 PUSH20 0xFFFFFFFFFFFFFFFFFFFFFFFFFFFFFFFFFFFFFFFF AND DUP8 PUSH20 0xFFFFFFFFFFFFFFFFFFFFFFFFFFFFFFFFFFFFFFFF AND PUSH32 0x2B4796A0A8E31F678C432F388E9BB4E2AB31FFB820BEE612A940C1CF3A565C41 PUSH0 DUP1 DUP12 PUSH20 0xFFFFFFFFFFFFFFFFFFFFFFFFFFFFFFFFFFFFFFFF AND PUSH20 0xFFFFFFFFFFFFFFFFFFFFFFFFFFFFFFFFFFFFFFFF AND DUP2 MSTORE PUSH1 0x20 ADD SWAP1 DUP2 MSTORE PUSH1 0x20 ADD PUSH0 KECCAK256 PUSH1 0x1 ADD SLOAD PUSH0 PUSH9 0x15AF1D78B58C40000 PUSH1 0x1 PUSH1 0x40 MLOAD PUSH2 0x971 SWAP5 SWAP4 SWAP3 SWAP2 SWAP1 PUSH2 0x37A9 JUMP JUMPDEST PUSH1 0x40 MLOAD DUP1 SWAP2 SUB SWAP1 LOG3 POP POP POP POP POP POP POP JUMP JUMPDEST PUSH1 0xC DUP2 JUMP JUMPDEST PUSH1 0x1 PUSH1 0x20 MSTORE DUP1 PUSH0 MSTORE PUSH1 0x40 PUSH0 KECCAK256 PUSH0 SWAP2 POP SLOAD SWAP1 PUSH2 0x100 EXP SWAP1 DIV PUSH20 0xFFFFFFFFFFFFFFFFFFFFFFFFFFFFFFFFFFFFFFFF AND DUP2 JUMP JUMPDEST PUSH0 DUP1 PUSH0 DUP10 PUSH20 0xFFFFFFFFFFFFFFFFFFFFFFFFFFFFFFFFFFFFFFFF AND PUSH20 0xFFFFFFFFFFFFFFFFFFFFFFFFFFFFFFFFFFFFFFFF AND DUP2 MSTORE PUSH1 0x20 ADD SWAP1 DUP2 MSTORE PUSH1 0x20 ADD PUSH0 KECCAK256 PUSH1 0x1 ADD SLOAD SUB PUSH2 0xA38 JUMPI PUSH1 0x40 MLOAD PUSH32 0x8C379A000000000000000000000000000000000000000000000000000000000 DUP2 MSTORE PUSH1 0x4 ADD PUSH2 0xA2F SWAP1 PUSH2 0x3836 JUMP JUMPDEST PUSH1 0x40 MLOAD DUP1 SWAP2 SUB SWAP1 REVERT JUMPDEST PUSH0 DUP3 PUSH1 0x40 MLOAD PUSH1 0x20 ADD PUSH2 0xA4A SWAP2 SWAP1 PUSH2 0x33E4 JUMP JUMPDEST PUSH1 0x40 MLOAD PUSH1 0x20 DUP2 DUP4 SUB SUB DUP2 MSTORE SWAP1 PUSH1 0x40 MSTORE DUP1 MLOAD SWAP1 PUSH1 0x20 ADD KECCAK256 SWAP1 POP PUSH1 0x40 MLOAD DUP1 PUSH2 0x1A0 ADD PUSH1 0x40 MSTORE DUP1 DUP10 PUSH20 0xFFFFFFFFFFFFFFFFFFFFFFFFFFFFFFFFFFFFFFFF AND DUP2 MSTORE PUSH1 0x20 ADD PUSH1 0x3 SLOAD DUP2 MSTORE PUSH1 0x20 ADD PUSH0 DUP2 MSTORE PUSH1 0x20 ADD PUSH0 DUP2 MSTORE PUSH1 0x20 ADD PUSH0 DUP2 MSTORE PUSH1 0x20 ADD PUSH1 0x1 PUSH1 0xFF AND DUP2 MSTORE PUSH1 0x20 ADD PUSH0 PUSH8 0xFFFFFFFFFFFFFFFF DUP2 GT ISZERO PUSH2 0xAC8 JUMPI PUSH2 0xAC7 PUSH2 0x2C26 JUMP JUMPDEST JUMPDEST PUSH1 0x40 MLOAD SWAP1 DUP1 DUP3 MSTORE DUP1 PUSH1 0x20 MUL PUSH1 0x20 ADD DUP3 ADD PUSH1 0x40 MSTORE DUP1 ISZERO PUSH2 0xAF6 JUMPI DUP2 PUSH1 0x20 ADD PUSH1 0x20 DUP3 MUL DUP1 CALLDATASIZE DUP4 CALLDATACOPY DUP1 DUP3 ADD SWAP2 POP POP SWAP1 POP JUMPDEST POP DUP2 MSTORE PUSH1 0x20 ADD DUP9 DUP2 MSTORE PUSH1 0x20 ADD DUP8 DUP2 MSTORE PUSH1 0x20 ADD DUP7 DUP2 MSTORE PUSH1 0x20 ADD DUP6 DUP2 MSTORE PUSH1 0x20 ADD DUP3 DUP2 MSTORE PUSH1 0x20 ADD DUP4 PUSH20 0xFFFFFFFFFFFFFFFFFFFFFFFFFFFFFFFFFFFFFFFF AND DUP2 MSTORE POP PUSH0 DUP1 CALLER PUSH20 0xFFFFFFFFFFFFFFFFFFFFFFFFFFFFFFFFFFFFFFFF AND PUSH20 0xFFFFFFFFFFFFFFFFFFFFFFFFFFFFFFFFFFFFFFFF AND DUP2 MSTORE PUSH1 0x20 ADD SWAP1 DUP2 MSTORE PUSH1 0x20 ADD PUSH0 KECCAK256 PUSH0 DUP3 ADD MLOAD DUP2 PUSH0 ADD PUSH0 PUSH2 0x100 EXP DUP2 SLOAD DUP2 PUSH20 0xFFFFFFFFFFFFFFFFFFFFFFFFFFFFFFFFFFFFFFFF MUL NOT AND SWAP1 DUP4 PUSH20 0xFFFFFFFFFFFFFFFFFFFFFFFFFFFFFFFFFFFFFFFF AND MUL OR SWAP1 SSTORE POP PUSH1 0x20 DUP3 ADD MLOAD DUP2 PUSH1 0x1 ADD SSTORE PUSH1 0x40 DUP3 ADD MLOAD DUP2 PUSH1 0x2 ADD SSTORE PUSH1 0x60 DUP3 ADD MLOAD DUP2 PUSH1 0x3 ADD SSTORE PUSH1 0x80 DUP3 ADD MLOAD DUP2 PUSH1 0x4 ADD SSTORE PUSH1 0xA0 DUP3 ADD MLOAD DUP2 PUSH1 0x5 ADD PUSH0 PUSH2 0x100 EXP DUP2 SLOAD DUP2 PUSH1 0xFF MUL NOT AND SWAP1 DUP4 PUSH1 0xFF AND MUL OR SWAP1 SSTORE POP PUSH1 0xC0 DUP3 ADD MLOAD DUP2 PUSH1 0x6 ADD SWAP1 DUP1 MLOAD SWAP1 PUSH1 0x20 ADD SWAP1 PUSH2 0xC18 SWAP3 SWAP2 SWAP1 PUSH2 0x2B01 JUMP JUMPDEST POP PUSH1 0xE0 DUP3 ADD MLOAD DUP2 PUSH1 0x7 ADD SWAP1 DUP2 PUSH2 0xC2E SWAP2 SWAP1 PUSH2 0x35F4 JUMP JUMPDEST POP PUSH2 0x100 DUP3 ADD MLOAD DUP2 PUSH1 0x8 ADD SWAP1 DUP2 PUSH2 0xC45 SWAP2 SWAP1 PUSH2 0x35F4 JUMP JUMPDEST POP PUSH2 0x120 DUP3 ADD MLOAD DUP2 PUSH1 0x9 ADD SWAP1 DUP2 PUSH2 0xC5C SWAP2 SWAP1 PUSH2 0x35F4 JUMP JUMPDEST POP PUSH2 0x140 DUP3 ADD MLOAD DUP2 PUSH1 0xA ADD SWAP1 DUP2 PUSH2 0xC73 SWAP2 SWAP1 PUSH2 0x35F4 JUMP JUMPDEST POP PUSH2 0x160 DUP3 ADD MLOAD DUP2 PUSH1 0xB ADD SSTORE PUSH2 0x180 DUP3 ADD MLOAD DUP2 PUSH1 0xC ADD PUSH0 PUSH2 0x100 EXP DUP2 SLOAD DUP2 PUSH20 0xFFFFFFFFFFFFFFFFFFFFFFFFFFFFFFFFFFFFFFFF MUL NOT AND SWAP1 DUP4 PUSH20 0xFFFFFFFFFFFFFFFFFFFFFFFFFFFFFFFFFFFFFFFF AND MUL OR SWAP1 SSTORE POP SWAP1 POP POP CALLER PUSH1 0x1 PUSH0 PUSH1 0x3 SLOAD DUP2 MSTORE PUSH1 0x20 ADD SWAP1 DUP2 MSTORE PUSH1 0x20 ADD PUSH0 KECCAK256 PUSH0 PUSH2 0x100 EXP DUP2 SLOAD DUP2 PUSH20 0xFFFFFFFFFFFFFFFFFFFFFFFFFFFFFFFFFFFFFFFF MUL NOT AND SWAP1 DUP4 PUSH20 0xFFFFFFFFFFFFFFFFFFFFFFFFFFFFFFFFFFFFFFFF AND MUL OR SWAP1 SSTORE POP PUSH1 0x3 PUSH0 DUP2 SLOAD DUP1 SWAP3 SWAP2 SWAP1 PUSH2 0xD2C SWAP1 PUSH2 0x36F0 JUMP JUMPDEST SWAP2 SWAP1 POP SSTORE POP PUSH0 DUP1 DUP10 PUSH20 0xFFFFFFFFFFFFFFFFFFFFFFFFFFFFFFFFFFFFFFFF AND PUSH20 0xFFFFFFFFFFFFFFFFFFFFFFFFFFFFFFFFFFFFFFFF AND DUP2 MSTORE PUSH1 0x20 ADD SWAP1 DUP2 MSTORE PUSH1 0x20 ADD PUSH0 KECCAK256 PUSH1 0x2 ADD PUSH0 DUP2 SLOAD DUP1 SWAP3 SWAP2 SWAP1 PUSH2 0xD80 SWAP1 PUSH2 0x36F0 JUMP JUMPDEST SWAP2 SWAP1 POP SSTORE POP PUSH0 DUP1 DUP10 PUSH20 0xFFFFFFFFFFFFFFFFFFFFFFFFFFFFFFFFFFFFFFFF AND PUSH20 0xFFFFFFFFFFFFFFFFFFFFFFFFFFFFFFFFFFFFFFFF AND DUP2 MSTORE PUSH1 0x20 ADD SWAP1 DUP2 MSTORE PUSH1 0x20 ADD PUSH0 KECCAK256 PUSH1 0x6 ADD CALLER SWAP1 DUP1 PUSH1 0x1 DUP2 SLOAD ADD DUP1 DUP3 SSTORE DUP1 SWAP2 POP POP PUSH1 0x1 SWAP1 SUB SWAP1 PUSH0 MSTORE PUSH1 0x20 PUSH0 KECCAK256 ADD PUSH0 SWAP1 SWAP2 SWAP1 SWAP2 SWAP1 SWAP2 PUSH2 0x100 EXP DUP2 SLOAD DUP2 PUSH20 0xFFFFFFFFFFFFFFFFFFFFFFFFFFFFFFFFFFFFFFFF MUL NOT AND SWAP1 DUP4 PUSH20 0xFFFFFFFFFFFFFFFFFFFFFFFFFFFFFFFFFFFFFFFF AND MUL OR SWAP1 SSTORE POP PUSH1 0x4 PUSH0 SWAP1 SLOAD SWAP1 PUSH2 0x100 EXP SWAP1 DIV PUSH20 0xFFFFFFFFFFFFFFFFFFFFFFFFFFFFFFFFFFFFFFFF AND PUSH20 0xFFFFFFFFFFFFFFFFFFFFFFFFFFFFFFFFFFFFFFFF AND PUSH2 0x8FC CALLVALUE SWAP1 DUP2 ISZERO MUL SWAP1 PUSH1 0x40 MLOAD PUSH0 PUSH1 0x40 MLOAD DUP1 DUP4 SUB DUP2 DUP6 DUP9 DUP9 CALL SWAP4 POP POP POP POP ISZERO DUP1 ISZERO PUSH2 0xE86 JUMPI RETURNDATASIZE PUSH0 DUP1 RETURNDATACOPY RETURNDATASIZE PUSH0 REVERT JUMPDEST POP PUSH2 0xE91 CALLER DUP10 PUSH2 0x2494 JUMP JUMPDEST DUP8 PUSH20 0xFFFFFFFFFFFFFFFFFFFFFFFFFFFFFFFFFFFFFFFF AND CALLER PUSH20 0xFFFFFFFFFFFFFFFFFFFFFFFFFFFFFFFFFFFFFFFF AND PUSH32 0x2B4796A0A8E31F678C432F388E9BB4E2AB31FFB820BEE612A940C1CF3A565C41 PUSH0 DUP1 CALLER PUSH20 0xFFFFFFFFFFFFFFFFFFFFFFFFFFFFFFFFFFFFFFFF AND PUSH20 0xFFFFFFFFFFFFFFFFFFFFFFFFFFFFFFFFFFFFFFFF AND DUP2 MSTORE PUSH1 0x20 ADD SWAP1 DUP2 MSTORE PUSH1 0x20 ADD PUSH0 KECCAK256 PUSH1 0x1 ADD SLOAD PUSH0 DUP1 DUP14 PUSH20 0xFFFFFFFFFFFFFFFFFFFFFFFFFFFFFFFFFFFFFFFF AND PUSH20 0xFFFFFFFFFFFFFFFFFFFFFFFFFFFFFFFFFFFFFFFF AND DUP2 MSTORE PUSH1 0x20 ADD SWAP1 DUP2 MSTORE PUSH1 0x20 ADD PUSH0 KECCAK256 PUSH1 0x1 ADD SLOAD PUSH9 0x15AF1D78B58C40000 PUSH1 0x1 PUSH1 0x40 MLOAD PUSH2 0xF7C SWAP5 SWAP4 SWAP3 SWAP2 SWAP1 PUSH2 0x3854 JUMP JUMPDEST PUSH1 0x40 MLOAD DUP1 SWAP2 SUB SWAP1 LOG3 POP POP POP POP POP POP POP POP JUMP JUMPDEST PUSH1 0x3 SLOAD DUP2 JUMP JUMPDEST PUSH0 PUSH2 0xF9E DUP3 PUSH2 0x2793 JUMP JUMPDEST SWAP1 POP SWAP2 SWAP1 POP JUMP JUMPDEST PUSH0 DUP1 PUSH0 DUP1 PUSH0 DUP1 PUSH1 0x60 DUP1 PUSH1 0x60 DUP1 PUSH0 DUP1 PUSH0 DUP1 DUP15 PUSH20 0xFFFFFFFFFFFFFFFFFFFFFFFFFFFFFFFFFFFFFFFF AND PUSH20 0xFFFFFFFFFFFFFFFFFFFFFFFFFFFFFFFFFFFFFFFF AND DUP2 MSTORE PUSH1 0x20 ADD SWAP1 DUP2 MSTORE PUSH1 0x20 ADD PUSH0 KECCAK256 PUSH1 0x40 MLOAD DUP1 PUSH2 0x1A0 ADD PUSH1 0x40 MSTORE SWAP1 DUP2 PUSH0 DUP3 ADD PUSH0 SWAP1 SLOAD SWAP1 PUSH2 0x100 EXP SWAP1 DIV PUSH20 0xFFFFFFFFFFFFFFFFFFFFFFFFFFFFFFFFFFFFFFFF AND PUSH20 0xFFFFFFFFFFFFFFFFFFFFFFFFFFFFFFFFFFFFFFFF AND PUSH20 0xFFFFFFFFFFFFFFFFFFFFFFFFFFFFFFFFFFFFFFFF AND DUP2 MSTORE PUSH1 0x20 ADD PUSH1 0x1 DUP3 ADD SLOAD DUP2 MSTORE PUSH1 0x20 ADD PUSH1 0x2 DUP3 ADD SLOAD DUP2 MSTORE PUSH1 0x20 ADD PUSH1 0x3 DUP3 ADD SLOAD DUP2 MSTORE PUSH1 0x20 ADD PUSH1 0x4 DUP3 ADD SLOAD DUP2 MSTORE PUSH1 0x20 ADD PUSH1 0x5 DUP3 ADD PUSH0 SWAP1 SLOAD SWAP1 PUSH2 0x100 EXP SWAP1 DIV PUSH1 0xFF AND PUSH1 0xFF AND PUSH1 0xFF AND DUP2 MSTORE PUSH1 0x20 ADD PUSH1 0x6 DUP3 ADD DUP1 SLOAD DUP1 PUSH1 0x20 MUL PUSH1 0x20 ADD PUSH1 0x40 MLOAD SWAP1 DUP2 ADD PUSH1 0x40 MSTORE DUP1 SWAP3 SWAP2 SWAP1 DUP2 DUP2 MSTORE PUSH1 0x20 ADD DUP3 DUP1 SLOAD DUP1 ISZERO PUSH2 0x1115 JUMPI PUSH1 0x20 MUL DUP3 ADD SWAP2 SWAP1 PUSH0 MSTORE PUSH1 0x20 PUSH0 KECCAK256 SWAP1 JUMPDEST DUP2 PUSH0 SWAP1 SLOAD SWAP1 PUSH2 0x100 EXP SWAP1 DIV PUSH20 0xFFFFFFFFFFFFFFFFFFFFFFFFFFFFFFFFFFFFFFFF AND PUSH20 0xFFFFFFFFFFFFFFFFFFFFFFFFFFFFFFFFFFFFFFFF AND DUP2 MSTORE PUSH1 0x20 ADD SWAP1 PUSH1 0x1 ADD SWAP1 DUP1 DUP4 GT PUSH2 0x10CC JUMPI JUMPDEST POP POP POP POP POP DUP2 MSTORE PUSH1 0x20 ADD PUSH1 0x7 DUP3 ADD DUP1 SLOAD PUSH2 0x112E SWAP1 PUSH2 0x3427 JUMP JUMPDEST DUP1 PUSH1 0x1F ADD PUSH1 0x20 DUP1 SWAP2 DIV MUL PUSH1 0x20 ADD PUSH1 0x40 MLOAD SWAP1 DUP2 ADD PUSH1 0x40 MSTORE DUP1 SWAP3 SWAP2 SWAP1 DUP2 DUP2 MSTORE PUSH1 0x20 ADD DUP3 DUP1 SLOAD PUSH2 0x115A SWAP1 PUSH2 0x3427 JUMP JUMPDEST DUP1 ISZERO PUSH2 0x11A5 JUMPI DUP1 PUSH1 0x1F LT PUSH2 0x117C JUMPI PUSH2 0x100 DUP1 DUP4 SLOAD DIV MUL DUP4 MSTORE SWAP2 PUSH1 0x20 ADD SWAP2 PUSH2 0x11A5 JUMP JUMPDEST DUP3 ADD SWAP2 SWAP1 PUSH0 MSTORE PUSH1 0x20 PUSH0 KECCAK256 SWAP1 JUMPDEST DUP2 SLOAD DUP2 MSTORE SWAP1 PUSH1 0x1 ADD SWAP1 PUSH1 0x20 ADD DUP1 DUP4 GT PUSH2 0x1188 JUMPI DUP3 SWAP1 SUB PUSH1 0x1F AND DUP3 ADD SWAP2 JUMPDEST POP POP POP POP POP DUP2 MSTORE PUSH1 0x20 ADD PUSH1 0x8 DUP3 ADD DUP1 SLOAD PUSH2 0x11BE SWAP1 PUSH2 0x3427 JUMP JUMPDEST DUP1 PUSH1 0x1F ADD PUSH1 0x20 DUP1 SWAP2 DIV MUL PUSH1 0x20 ADD PUSH1 0x40 MLOAD SWAP1 DUP2 ADD PUSH1 0x40 MSTORE DUP1 SWAP3 SWAP2 SWAP1 DUP2 DUP2 MSTORE PUSH1 0x20 ADD DUP3 DUP1 SLOAD PUSH2 0x11EA SWAP1 PUSH2 0x3427 JUMP JUMPDEST DUP1 ISZERO PUSH2 0x1235 JUMPI DUP1 PUSH1 0x1F LT PUSH2 0x120C JUMPI PUSH2 0x100 DUP1 DUP4 SLOAD DIV MUL DUP4 MSTORE SWAP2 PUSH1 0x20 ADD SWAP2 PUSH2 0x1235 JUMP JUMPDEST DUP3 ADD SWAP2 SWAP1 PUSH0 MSTORE PUSH1 0x20 PUSH0 KECCAK256 SWAP1 JUMPDEST DUP2 SLOAD DUP2 MSTORE SWAP1 PUSH1 0x1 ADD SWAP1 PUSH1 0x20 ADD DUP1 DUP4 GT PUSH2 0x1218 JUMPI DUP3 SWAP1 SUB PUSH1 0x1F AND DUP3 ADD SWAP2 JUMPDEST POP POP POP POP POP DUP2 MSTORE PUSH1 0x20 ADD PUSH1 0x9 DUP3 ADD DUP1 SLOAD PUSH2 0x124E SWAP1 PUSH2 0x3427 JUMP JUMPDEST DUP1 PUSH1 0x1F ADD PUSH1 0x20 DUP1 SWAP2 DIV MUL PUSH1 0x20 ADD PUSH1 0x40 MLOAD SWAP1 DUP2 ADD PUSH1 0x40 MSTORE DUP1 SWAP3 SWAP2 SWAP1 DUP2 DUP2 MSTORE PUSH1 0x20 ADD DUP3 DUP1 SLOAD PUSH2 0x127A SWAP1 PUSH2 0x3427 JUMP JUMPDEST DUP1 ISZERO PUSH2 0x12C5 JUMPI DUP1 PUSH1 0x1F LT PUSH2 0x129C JUMPI PUSH2 0x100 DUP1 DUP4 SLOAD DIV MUL DUP4 MSTORE SWAP2 PUSH1 0x20 ADD SWAP2 PUSH2 0x12C5 JUMP JUMPDEST DUP3 ADD SWAP2 SWAP1 PUSH0 MSTORE PUSH1 0x20 PUSH0 KECCAK256 SWAP1 JUMPDEST DUP2 SLOAD DUP2 MSTORE SWAP1 PUSH1 0x1 ADD SWAP1 PUSH1 0x20 ADD DUP1 DUP4 GT PUSH2 0x12A8 JUMPI DUP3 SWAP1 SUB PUSH1 0x1F AND DUP3 ADD SWAP2 JUMPDEST POP POP POP POP POP DUP2 MSTORE PUSH1 0x20 ADD PUSH1 0xA DUP3 ADD DUP1 SLOAD PUSH2 0x12DE SWAP1 PUSH2 0x3427 JUMP JUMPDEST DUP1 PUSH1 0x1F ADD PUSH1 0x20 DUP1 SWAP2 DIV MUL PUSH1 0x20 ADD PUSH1 0x40 MLOAD SWAP1 DUP2 ADD PUSH1 0x40 MSTORE DUP1 SWAP3 SWAP2 SWAP1 DUP2 DUP2 MSTORE PUSH1 0x20 ADD DUP3 DUP1 SLOAD PUSH2 0x130A SWAP1 PUSH2 0x3427 JUMP JUMPDEST DUP1 ISZERO PUSH2 0x1355 JUMPI DUP1 PUSH1 0x1F LT PUSH2 0x132C JUMPI PUSH2 0x100 DUP1 DUP4 SLOAD DIV MUL DUP4 MSTORE SWAP2 PUSH1 0x20 ADD SWAP2 PUSH2 0x1355 JUMP JUMPDEST DUP3 ADD SWAP2 SWAP1 PUSH0 MSTORE PUSH1 0x20 PUSH0 KECCAK256 SWAP1 JUMPDEST DUP2 SLOAD DUP2 MSTORE SWAP1 PUSH1 0x1 ADD SWAP1 PUSH1 0x20 ADD DUP1 DUP4 GT PUSH2 0x1338 JUMPI DUP3 SWAP1 SUB PUSH1 0x1F AND DUP3 ADD SWAP2 JUMPDEST POP POP POP POP POP DUP2 MSTORE PUSH1 0x20 ADD PUSH1 0xB DUP3 ADD SLOAD DUP2 MSTORE PUSH1 0x20 ADD PUSH1 0xC DUP3 ADD PUSH0 SWAP1 SLOAD SWAP1 PUSH2 0x100 EXP SWAP1 DIV PUSH20 0xFFFFFFFFFFFFFFFFFFFFFFFFFFFFFFFFFFFFFFFF AND PUSH20 0xFFFFFFFFFFFFFFFFFFFFFFFFFFFFFFFFFFFFFFFF AND PUSH20 0xFFFFFFFFFFFFFFFFFFFFFFFFFFFFFFFFFFFFFFFF AND DUP2 MSTORE POP POP SWAP1 POP DUP1 PUSH0 ADD MLOAD DUP2 PUSH1 0x20 ADD MLOAD DUP3 PUSH1 0x40 ADD MLOAD DUP4 PUSH1 0x60 ADD MLOAD DUP5 PUSH1 0x80 ADD MLOAD DUP6 PUSH1 0xA0 ADD MLOAD DUP7 PUSH1 0xE0 ADD MLOAD DUP8 PUSH2 0x100 ADD MLOAD DUP9 PUSH2 0x120 ADD MLOAD DUP10 PUSH2 0x140 ADD MLOAD DUP11 PUSH2 0x180 ADD MLOAD DUP6 PUSH1 0xFF AND SWAP6 POP SWAP12 POP SWAP12 POP SWAP12 POP SWAP12 POP SWAP12 POP SWAP12 POP SWAP12 POP SWAP12 POP SWAP12 POP SWAP12 POP SWAP12 POP POP SWAP2 SWAP4 SWAP6 SWAP8 SWAP10 SWAP12 SWAP1 SWAP3 SWAP5 SWAP7 SWAP9 SWAP11 POP JUMP JUMPDEST PUSH9 0x15AF1D78B58C40000 DUP2 JUMP JUMPDEST PUSH0 PUSH1 0x1 PUSH0 DUP4 DUP2 MSTORE PUSH1 0x20 ADD SWAP1 DUP2 MSTORE PUSH1 0x20 ADD PUSH0 KECCAK256 PUSH0 SWAP1 SLOAD SWAP1 PUSH2 0x100 EXP SWAP1 DIV PUSH20 0xFFFFFFFFFFFFFFFFFFFFFFFFFFFFFFFFFFFFFFFF AND SWAP1 POP SWAP2 SWAP1 POP JUMP JUMPDEST PUSH0 PUSH1 0x1 DUP3 PUSH1 0xFF AND LT ISZERO DUP1 ISZERO PUSH2 0x1487 JUMPI POP PUSH1 0xC PUSH1 0xFF AND DUP3 PUSH1 0xFF AND GT ISZERO JUMPDEST PUSH2 0x14C6 JUMPI PUSH1 0x40 MLOAD PUSH32 0x8C379A000000000000000000000000000000000000000000000000000000000 DUP2 MSTORE PUSH1 0x4 ADD PUSH2 0x14BD SWAP1 PUSH2 0x38E1 JUMP JUMPDEST PUSH1 0x40 MLOAD DUP1 SWAP2 SUB SWAP1 REVERT JUMPDEST PUSH1 0x2 PUSH0 DUP4 PUSH1 0xFF AND PUSH1 0xFF AND DUP2 MSTORE PUSH1 0x20 ADD SWAP1 DUP2 MSTORE PUSH1 0x20 ADD PUSH0 KECCAK256 SLOAD SWAP1 POP SWAP2 SWAP1 POP JUMP JUMPDEST PUSH0 DUP1 CALLER PUSH20 0xFFFFFFFFFFFFFFFFFFFFFFFFFFFFFFFFFFFFFFFF AND PUSH20 0xFFFFFFFFFFFFFFFFFFFFFFFFFFFFFFFFFFFFFFFF AND DUP2 MSTORE PUSH1 0x20 ADD SWAP1 DUP2 MSTORE PUSH1 0x20 ADD PUSH0 KECCAK256 PUSH1 0x5 ADD PUSH0 SWAP1 SLOAD SWAP1 PUSH2 0x100 EXP SWAP1 DIV PUSH1 0xFF AND PUSH1 0xFF AND DUP2 PUSH1 0xFF AND GT PUSH2 0x1578 JUMPI PUSH1 0x40 MLOAD PUSH32 0x8C379A000000000000000000000000000000000000000000000000000000000 DUP2 MSTORE PUSH1 0x4 ADD PUSH2 0x156F SWAP1 PUSH2 0x396F JUMP JUMPDEST PUSH1 0x40 MLOAD DUP1 SWAP2 SUB SWAP1 REVERT JUMPDEST PUSH1 0xC PUSH1 0xFF AND DUP2 PUSH1 0xFF AND GT ISZERO PUSH2 0x15C2 JUMPI PUSH1 0x40 MLOAD PUSH32 0x8C379A000000000000000000000000000000000000000000000000000000000 DUP2 MSTORE PUSH1 0x4 ADD PUSH2 0x15B9 SWAP1 PUSH2 0x38E1 JUMP JUMPDEST PUSH1 0x40 MLOAD DUP1 SWAP2 SUB SWAP1 REVERT JUMPDEST PUSH0 PUSH1 0x2 PUSH0 DUP4 PUSH1 0xFF AND PUSH1 0xFF AND DUP2 MSTORE PUSH1 0x20 ADD SWAP1 DUP2 MSTORE PUSH1 0x20 ADD PUSH0 KECCAK256 SLOAD SWAP1 POP PUSH0 DUP1 PUSH0 CALLER PUSH20 0xFFFFFFFFFFFFFFFFFFFFFFFFFFFFFFFFFFFFFFFF AND PUSH20 0xFFFFFFFFFFFFFFFFFFFFFFFFFFFFFFFFFFFFFFFF AND DUP2 MSTORE PUSH1 0x20 ADD SWAP1 DUP2 MSTORE PUSH1 0x20 ADD PUSH0 KECCAK256 PUSH0 ADD PUSH0 SWAP1 SLOAD SWAP1 PUSH2 0x100 EXP SWAP1 DIV PUSH20 0xFFFFFFFFFFFFFFFFFFFFFFFFFFFFFFFFFFFFFFFF AND SWAP1 POP PUSH0 PUSH1 0x64 PUSH1 0xA DUP5 PUSH2 0x164E SWAP2 SWAP1 PUSH2 0x398D JUMP JUMPDEST PUSH2 0x1658 SWAP2 SWAP1 PUSH2 0x39FB JUMP JUMPDEST SWAP1 POP PUSH0 DUP2 DUP5 PUSH2 0x1667 SWAP2 SWAP1 PUSH2 0x3A2B JUMP JUMPDEST SWAP1 POP DUP5 PUSH0 DUP1 CALLER PUSH20 0xFFFFFFFFFFFFFFFFFFFFFFFFFFFFFFFFFFFFFFFF AND PUSH20 0xFFFFFFFFFFFFFFFFFFFFFFFFFFFFFFFFFFFFFFFF AND DUP2 MSTORE PUSH1 0x20 ADD SWAP1 DUP2 MSTORE PUSH1 0x20 ADD PUSH0 KECCAK256 PUSH1 0x5 ADD PUSH0 PUSH2 0x100 EXP DUP2 SLOAD DUP2 PUSH1 0xFF MUL NOT AND SWAP1 DUP4 PUSH1 0xFF AND MUL OR SWAP1 SSTORE POP PUSH0 PUSH20 0xFFFFFFFFFFFFFFFFFFFFFFFFFFFFFFFFFFFFFFFF AND DUP4 PUSH20 0xFFFFFFFFFFFFFFFFFFFFFFFFFFFFFFFFFFFFFFFF AND EQ PUSH2 0x1840 JUMPI PUSH0 DUP4 PUSH20 0xFFFFFFFFFFFFFFFFFFFFFFFFFFFFFFFFFFFFFFFF AND DUP4 PUSH1 0x40 MLOAD PUSH2 0x1718 SWAP1 PUSH2 0x3A8B JUMP JUMPDEST PUSH0 PUSH1 0x40 MLOAD DUP1 DUP4 SUB DUP2 DUP6 DUP8 GAS CALL SWAP3 POP POP POP RETURNDATASIZE DUP1 PUSH0 DUP2 EQ PUSH2 0x1752 JUMPI PUSH1 0x40 MLOAD SWAP2 POP PUSH1 0x1F NOT PUSH1 0x3F RETURNDATASIZE ADD AND DUP3 ADD PUSH1 0x40 MSTORE RETURNDATASIZE DUP3 MSTORE RETURNDATASIZE PUSH0 PUSH1 0x20 DUP5 ADD RETURNDATACOPY PUSH2 0x1757 JUMP JUMPDEST PUSH1 0x60 SWAP2 POP JUMPDEST POP POP SWAP1 POP DUP1 PUSH2 0x179B JUMPI PUSH1 0x40 MLOAD PUSH32 0x8C379A000000000000000000000000000000000000000000000000000000000 DUP2 MSTORE PUSH1 0x4 ADD PUSH2 0x1792 SWAP1 PUSH2 0x3AE9 JUMP JUMPDEST PUSH1 0x40 MLOAD DUP1 SWAP2 SUB SWAP1 REVERT JUMPDEST DUP3 PUSH0 DUP1 DUP7 PUSH20 0xFFFFFFFFFFFFFFFFFFFFFFFFFFFFFFFFFFFFFFFF AND PUSH20 0xFFFFFFFFFFFFFFFFFFFFFFFFFFFFFFFFFFFFFFFF AND DUP2 MSTORE PUSH1 0x20 ADD SWAP1 DUP2 MSTORE PUSH1 0x20 ADD PUSH0 KECCAK256 PUSH1 0x4 ADD PUSH0 DUP3 DUP3 SLOAD PUSH2 0x17E9 SWAP2 SWAP1 PUSH2 0x3B07 JUMP JUMPDEST SWAP3 POP POP DUP2 SWAP1 SSTORE POP DUP4 PUSH20 0xFFFFFFFFFFFFFFFFFFFFFFFFFFFFFFFFFFFFFFFF AND PUSH32 0x92D81AB7E787D9A43BBB8F8CA7F0B2708DA03B86D5AEA53D5D20656FF8DAD1EE DUP5 PUSH1 0x40 MLOAD PUSH2 0x1836 SWAP2 SWAP1 PUSH2 0x3051 JUMP JUMPDEST PUSH1 0x40 MLOAD DUP1 SWAP2 SUB SWAP1 LOG2 POP JUMPDEST PUSH0 PUSH1 0x4 PUSH0 SWAP1 SLOAD SWAP1 PUSH2 0x100 EXP SWAP1 DIV PUSH20 0xFFFFFFFFFFFFFFFFFFFFFFFFFFFFFFFFFFFFFFFF AND PUSH20 0xFFFFFFFFFFFFFFFFFFFFFFFFFFFFFFFFFFFFFFFF AND DUP3 PUSH1 0x40 MLOAD PUSH2 0x1886 SWAP1 PUSH2 0x3A8B JUMP JUMPDEST PUSH0 PUSH1 0x40 MLOAD DUP1 DUP4 SUB DUP2 DUP6 DUP8 GAS CALL SWAP3 POP POP POP RETURNDATASIZE DUP1 PUSH0 DUP2 EQ PUSH2 0x18C0 JUMPI PUSH1 0x40 MLOAD SWAP2 POP PUSH1 0x1F NOT PUSH1 0x3F RETURNDATASIZE ADD AND DUP3 ADD PUSH1 0x40 MSTORE RETURNDATASIZE DUP3 MSTORE RETURNDATASIZE PUSH0 PUSH1 0x20 DUP5 ADD RETURNDATACOPY PUSH2 0x18C5 JUMP JUMPDEST PUSH1 0x60 SWAP2 POP JUMPDEST POP POP SWAP1 POP CALLER PUSH20 0xFFFFFFFFFFFFFFFFFFFFFFFFFFFFFFFFFFFFFFFF AND PUSH32 0xDBF0B0DD9DA4BEA8F6827B8C94D9D2C555A713D0B15D01F002F81F321BBA5E3C DUP8 DUP8 DUP7 DUP7 PUSH1 0x40 MLOAD PUSH2 0x1915 SWAP5 SWAP4 SWAP3 SWAP2 SWAP1 PUSH2 0x3B3A JUMP JUMPDEST PUSH1 0x40 MLOAD DUP1 SWAP2 SUB SWAP1 LOG2 POP POP POP POP POP POP JUMP JUMPDEST PUSH1 0x4 PUSH0 SWAP1 SLOAD SWAP1 PUSH2 0x100 EXP SWAP1 DIV PUSH20 0xFFFFFFFFFFFFFFFFFFFFFFFFFFFFFFFFFFFFFFFF AND DUP2 JUMP JUMPDEST PUSH0 DUP1 PUSH0 DUP1 DUP5 PUSH20 0xFFFFFFFFFFFFFFFFFFFFFFFFFFFFFFFFFFFFFFFF AND PUSH20 0xFFFFFFFFFFFFFFFFFFFFFFFFFFFFFFFFFFFFFFFF AND DUP2 MSTORE PUSH1 0x20 ADD SWAP1 DUP2 MSTORE PUSH1 0x20 ADD PUSH0 KECCAK256 PUSH0 ADD PUSH0 SWAP1 SLOAD SWAP1 PUSH2 0x100 EXP SWAP1 DIV PUSH20 0xFFFFFFFFFFFFFFFFFFFFFFFFFFFFFFFFFFFFFFFF AND SWAP1 POP PUSH0 PUSH20 0xFFFFFFFFFFFFFFFFFFFFFFFFFFFFFFFFFFFFFFFF AND DUP2 PUSH20 0xFFFFFFFFFFFFFFFFFFFFFFFFFFFFFFFFFFFFFFFF AND SUB PUSH2 0x19E8 JUMPI PUSH0 SWAP2 POP POP PUSH2 0x1A38 JUMP JUMPDEST PUSH0 DUP1 DUP3 PUSH20 0xFFFFFFFFFFFFFFFFFFFFFFFFFFFFFFFFFFFFFFFF AND PUSH20 0xFFFFFFFFFFFFFFFFFFFFFFFFFFFFFFFFFFFFFFFF AND DUP2 MSTORE PUSH1 0x20 ADD SWAP1 DUP2 MSTORE PUSH1 0x20 ADD PUSH0 KECCAK256 PUSH1 0x5 ADD PUSH0 SWAP1 SLOAD SWAP1 PUSH2 0x100 EXP SWAP1 DIV PUSH1 0xFF AND SWAP2 POP POP JUMPDEST SWAP2 SWAP1 POP JUMP JUMPDEST PUSH0 DUP1 PUSH0 DUP1 DUP5 PUSH20 0xFFFFFFFFFFFFFFFFFFFFFFFFFFFFFFFFFFFFFFFF AND PUSH20 0xFFFFFFFFFFFFFFFFFFFFFFFFFFFFFFFFFFFFFFFF AND DUP2 MSTORE PUSH1 0x20 ADD SWAP1 DUP2 MSTORE PUSH1 0x20 ADD PUSH0 KECCAK256 PUSH0 ADD PUSH0 SWAP1 SLOAD SWAP1 PUSH2 0x100 EXP SWAP1 DIV PUSH20 0xFFFFFFFFFFFFFFFFFFFFFFFFFFFFFFFFFFFFFFFF AND SWAP1 POP PUSH0 PUSH20 0xFFFFFFFFFFFFFFFFFFFFFFFFFFFFFFFFFFFFFFFF AND DUP2 PUSH20 0xFFFFFFFFFFFFFFFFFFFFFFFFFFFFFFFFFFFFFFFF AND SUB PUSH2 0x1ADB JUMPI PUSH0 SWAP2 POP POP PUSH2 0x1D19 JUMP JUMPDEST PUSH1 0x2 PUSH0 DUP1 DUP4 PUSH20 0xFFFFFFFFFFFFFFFFFFFFFFFFFFFFFFFFFFFFFFFF AND PUSH20 0xFFFFFFFFFFFFFFFFFFFFFFFFFFFFFFFFFFFFFFFF AND DUP2 MSTORE PUSH1 0x20 ADD SWAP1 DUP2 MSTORE PUSH1 0x20 ADD PUSH0 KECCAK256 PUSH1 0x2 ADD SLOAD LT PUSH2 0x1CC2 JUMPI PUSH0 DUP1 PUSH0 DUP4 PUSH20 0xFFFFFFFFFFFFFFFFFFFFFFFFFFFFFFFFFFFFFFFF AND PUSH20 0xFFFFFFFFFFFFFFFFFFFFFFFFFFFFFFFFFFFFFFFF AND DUP2 MSTORE PUSH1 0x20 ADD SWAP1 DUP2 MSTORE PUSH1 0x20 ADD PUSH0 KECCAK256 PUSH1 0x5 ADD PUSH0 SWAP1 SLOAD SWAP1 PUSH2 0x100 EXP SWAP1 DIV PUSH1 0xFF AND SWAP1 POP PUSH0 PUSH1 0x2 PUSH0 DUP4 PUSH1 0xFF AND PUSH1 0xFF AND DUP2 MSTORE PUSH1 0x20 ADD SWAP1 DUP2 MSTORE PUSH1 0x20 ADD PUSH0 KECCAK256 SLOAD SWAP1 POP PUSH2 0x1B96 DUP4 DUP3 PUSH2 0x27E0 JUMP JUMPDEST PUSH0 DUP1 DUP5 PUSH20 0xFFFFFFFFFFFFFFFFFFFFFFFFFFFFFFFFFFFFFFFF AND PUSH20 0xFFFFFFFFFFFFFFFFFFFFFFFFFFFFFFFFFFFFFFFF AND DUP2 MSTORE PUSH1 0x20 ADD SWAP1 DUP2 MSTORE PUSH1 0x20 ADD PUSH0 KECCAK256 PUSH1 0x3 ADD PUSH0 DUP2 SLOAD DUP1 SWAP3 SWAP2 SWAP1 PUSH2 0x1BE5 SWAP1 PUSH2 0x36F0 JUMP JUMPDEST SWAP2 SWAP1 POP SSTORE POP DUP3 PUSH20 0xFFFFFFFFFFFFFFFFFFFFFFFFFFFFFFFFFFFFFFFF AND PUSH32 0x18C00B25130B4512B396A52C89756CB9A1177C6002FE34CBC071F88CF90812A1 PUSH0 DUP1 DUP7 PUSH20 0xFFFFFFFFFFFFFFFFFFFFFFFFFFFFFFFFFFFFFFFF AND PUSH20 0xFFFFFFFFFFFFFFFFFFFFFFFFFFFFFFFFFFFFFFFF AND DUP2 MSTORE PUSH1 0x20 ADD SWAP1 DUP2 MSTORE PUSH1 0x20 ADD PUSH0 KECCAK256 PUSH1 0x3 ADD SLOAD PUSH1 0x40 MLOAD PUSH2 0x1C6F SWAP2 SWAP1 PUSH2 0x3051 JUMP JUMPDEST PUSH1 0x40 MLOAD DUP1 SWAP2 SUB SWAP1 LOG2 PUSH0 DUP1 PUSH0 DUP6 PUSH20 0xFFFFFFFFFFFFFFFFFFFFFFFFFFFFFFFFFFFFFFFF AND PUSH20 0xFFFFFFFFFFFFFFFFFFFFFFFFFFFFFFFFFFFFFFFF AND DUP2 MSTORE PUSH1 0x20 ADD SWAP1 DUP2 MSTORE PUSH1 0x20 ADD PUSH0 KECCAK256 PUSH1 0x2 ADD DUP2 SWAP1 SSTORE POP POP POP PUSH2 0x1D17 JUMP JUMPDEST PUSH0 DUP1 DUP3 PUSH20 0xFFFFFFFFFFFFFFFFFFFFFFFFFFFFFFFFFFFFFFFF AND PUSH20 0xFFFFFFFFFFFFFFFFFFFFFFFFFFFFFFFFFFFFFFFF AND DUP2 MSTORE PUSH1 0x20 ADD SWAP1 DUP2 MSTORE PUSH1 0x20 ADD PUSH0 KECCAK256 PUSH1 0x2 ADD PUSH0 DUP2 SLOAD DUP1 SWAP3 SWAP2 SWAP1 PUSH2 0x1D11 SWAP1 PUSH2 0x36F0 JUMP JUMPDEST SWAP2 SWAP1 POP SSTORE POP JUMPDEST POP JUMPDEST SWAP2 SWAP1 POP JUMP JUMPDEST PUSH8 0x4563918244F40000 DUP2 JUMP JUMPDEST PUSH0 PUSH1 0x20 MSTORE DUP1 PUSH0 MSTORE PUSH1 0x40 PUSH0 KECCAK256 PUSH0 SWAP2 POP SWAP1 POP DUP1 PUSH0 ADD PUSH0 SWAP1 SLOAD SWAP1 PUSH2 0x100 EXP SWAP1 DIV PUSH20 0xFFFFFFFFFFFFFFFFFFFFFFFFFFFFFFFFFFFFFFFF AND SWAP1 DUP1 PUSH1 0x1 ADD SLOAD SWAP1 DUP1 PUSH1 0x2 ADD SLOAD SWAP1 DUP1 PUSH1 0x3 ADD SLOAD SWAP1 DUP1 PUSH1 0x4 ADD SLOAD SWAP1 DUP1 PUSH1 0x5 ADD PUSH0 SWAP1 SLOAD SWAP1 PUSH2 0x100 EXP SWAP1 DIV PUSH1 0xFF AND SWAP1 DUP1 PUSH1 0x7 ADD DUP1 SLOAD PUSH2 0x1D97 SWAP1 PUSH2 0x3427 JUMP JUMPDEST DUP1 PUSH1 0x1F ADD PUSH1 0x20 DUP1 SWAP2 DIV MUL PUSH1 0x20 ADD PUSH1 0x40 MLOAD SWAP1 DUP2 ADD PUSH1 0x40 MSTORE DUP1 SWAP3 SWAP2 SWAP1 DUP2 DUP2 MSTORE PUSH1 0x20 ADD DUP3 DUP1 SLOAD PUSH2 0x1DC3 SWAP1 PUSH2 0x3427 JUMP JUMPDEST DUP1 ISZERO PUSH2 0x1E0E JUMPI DUP1 PUSH1 0x1F LT PUSH2 0x1DE5 JUMPI PUSH2 0x100 DUP1 DUP4 SLOAD DIV MUL DUP4 MSTORE SWAP2 PUSH1 0x20 ADD SWAP2 PUSH2 0x1E0E JUMP JUMPDEST DUP3 ADD SWAP2 SWAP1 PUSH0 MSTORE PUSH1 0x20 PUSH0 KECCAK256 SWAP1 JUMPDEST DUP2 SLOAD DUP2 MSTORE SWAP1 PUSH1 0x1 ADD SWAP1 PUSH1 0x20 ADD DUP1 DUP4 GT PUSH2 0x1DF1 JUMPI DUP3 SWAP1 SUB PUSH1 0x1F AND DUP3 ADD SWAP2 JUMPDEST POP POP POP POP POP SWAP1 DUP1 PUSH1 0x8 ADD DUP1 SLOAD PUSH2 0x1E23 SWAP1 PUSH2 0x3427 JUMP JUMPDEST DUP1 PUSH1 0x1F ADD PUSH1 0x20 DUP1 SWAP2 DIV MUL PUSH1 0x20 ADD PUSH1 0x40 MLOAD SWAP1 DUP2 ADD PUSH1 0x40 MSTORE DUP1 SWAP3 SWAP2 SWAP1 DUP2 DUP2 MSTORE PUSH1 0x20 ADD DUP3 DUP1 SLOAD PUSH2 0x1E4F SWAP1 PUSH2 0x3427 JUMP JUMPDEST DUP1 ISZERO PUSH2 0x1E9A JUMPI DUP1 PUSH1 0x1F LT PUSH2 0x1E71 JUMPI PUSH2 0x100 DUP1 DUP4 SLOAD DIV MUL DUP4 MSTORE SWAP2 PUSH1 0x20 ADD SWAP2 PUSH2 0x1E9A JUMP JUMPDEST DUP3 ADD SWAP2 SWAP1 PUSH0 MSTORE PUSH1 0x20 PUSH0 KECCAK256 SWAP1 JUMPDEST DUP2 SLOAD DUP2 MSTORE SWAP1 PUSH1 0x1 ADD SWAP1 PUSH1 0x20 ADD DUP1 DUP4 GT PUSH2 0x1E7D JUMPI DUP3 SWAP1 SUB PUSH1 0x1F AND DUP3 ADD SWAP2 JUMPDEST POP POP POP POP POP SWAP1 DUP1 PUSH1 0x9 ADD DUP1 SLOAD PUSH2 0x1EAF SWAP1 PUSH2 0x3427 JUMP JUMPDEST DUP1 PUSH1 0x1F ADD PUSH1 0x20 DUP1 SWAP2 DIV MUL PUSH1 0x20 ADD PUSH1 0x40 MLOAD SWAP1 DUP2 ADD PUSH1 0x40 MSTORE DUP1 SWAP3 SWAP2 SWAP1 DUP2 DUP2 MSTORE PUSH1 0x20 ADD DUP3 DUP1 SLOAD PUSH2 0x1EDB SWAP1 PUSH2 0x3427 JUMP JUMPDEST DUP1 ISZERO PUSH2 0x1F26 JUMPI DUP1 PUSH1 0x1F LT PUSH2 0x1EFD JUMPI PUSH2 0x100 DUP1 DUP4 SLOAD DIV MUL DUP4 MSTORE SWAP2 PUSH1 0x20 ADD SWAP2 PUSH2 0x1F26 JUMP JUMPDEST DUP3 ADD SWAP2 SWAP1 PUSH0 MSTORE PUSH1 0x20 PUSH0 KECCAK256 SWAP1 JUMPDEST DUP2 SLOAD DUP2 MSTORE SWAP1 PUSH1 0x1 ADD SWAP1 PUSH1 0x20 ADD DUP1 DUP4 GT PUSH2 0x1F09 JUMPI DUP3 SWAP1 SUB PUSH1 0x1F AND DUP3 ADD SWAP2 JUMPDEST POP POP POP POP POP SWAP1 DUP1 PUSH1 0xA ADD DUP1 SLOAD PUSH2 0x1F3B SWAP1 PUSH2 0x3427 JUMP JUMPDEST DUP1 PUSH1 0x1F ADD PUSH1 0x20 DUP1 SWAP2 DIV MUL PUSH1 0x20 ADD PUSH1 0x40 MLOAD SWAP1 DUP2 ADD PUSH1 0x40 MSTORE DUP1 SWAP3 SWAP2 SWAP1 DUP2 DUP2 MSTORE PUSH1 0x20 ADD DUP3 DUP1 SLOAD PUSH2 0x1F67 SWAP1 PUSH2 0x3427 JUMP JUMPDEST DUP1 ISZERO PUSH2 0x1FB2 JUMPI DUP1 PUSH1 0x1F LT PUSH2 0x1F89 JUMPI PUSH2 0x100 DUP1 DUP4 SLOAD DIV MUL DUP4 MSTORE SWAP2 PUSH1 0x20 ADD SWAP2 PUSH2 0x1FB2 JUMP JUMPDEST DUP3 ADD SWAP2 SWAP1 PUSH0 MSTORE PUSH1 0x20 PUSH0 KECCAK256 SWAP1 JUMPDEST DUP2 SLOAD DUP2 MSTORE SWAP1 PUSH1 0x1 ADD SWAP1 PUSH1 0x20 ADD DUP1 DUP4 GT PUSH2 0x1F95 JUMPI DUP3 SWAP1 SUB PUSH1 0x1F AND DUP3 ADD SWAP2 JUMPDEST POP POP POP POP POP SWAP1 DUP1 PUSH1 0xB ADD SLOAD SWAP1 DUP1 PUSH1 0xC ADD PUSH0 SWAP1 SLOAD SWAP1 PUSH2 0x100 EXP SWAP1 DIV PUSH20 0xFFFFFFFFFFFFFFFFFFFFFFFFFFFFFFFFFFFFFFFF AND SWAP1 POP DUP13 JUMP JUMPDEST PUSH1 0x60 PUSH0 DUP1 PUSH0 DUP5 PUSH20 0xFFFFFFFFFFFFFFFFFFFFFFFFFFFFFFFFFFFFFFFF AND PUSH20 0xFFFFFFFFFFFFFFFFFFFFFFFFFFFFFFFFFFFFFFFF AND DUP2 MSTORE PUSH1 0x20 ADD SWAP1 DUP2 MSTORE PUSH1 0x20 ADD PUSH0 KECCAK256 PUSH1 0x1 ADD SLOAD SWAP1 POP PUSH2 0x2035 DUP2 PUSH2 0x28F0 JUMP JUMPDEST PUSH1 0x40 MLOAD PUSH1 0x20 ADD PUSH2 0x2045 SWAP2 SWAP1 PUSH2 0x3BC7 JUMP JUMPDEST PUSH1 0x40 MLOAD PUSH1 0x20 DUP2 DUP4 SUB SUB DUP2 MSTORE SWAP1 PUSH1 0x40 MSTORE SWAP2 POP POP SWAP2 SWAP1 POP JUMP JUMPDEST PUSH0 DUP1 PUSH0 DUP1 PUSH0 DUP6 PUSH20 0xFFFFFFFFFFFFFFFFFFFFFFFFFFFFFFFFFFFFFFFF AND PUSH20 0xFFFFFFFFFFFFFFFFFFFFFFFFFFFFFFFFFFFFFFFF AND DUP2 MSTORE PUSH1 0x20 ADD SWAP1 DUP2 MSTORE PUSH1 0x20 ADD PUSH0 KECCAK256 PUSH1 0x40 MLOAD DUP1 PUSH2 0x1A0 ADD PUSH1 0x40 MSTORE SWAP1 DUP2 PUSH0 DUP3 ADD PUSH0 SWAP1 SLOAD SWAP1 PUSH2 0x100 EXP SWAP1 DIV PUSH20 0xFFFFFFFFFFFFFFFFFFFFFFFFFFFFFFFFFFFFFFFF AND PUSH20 0xFFFFFFFFFFFFFFFFFFFFFFFFFFFFFFFFFFFFFFFF AND PUSH20 0xFFFFFFFFFFFFFFFFFFFFFFFFFFFFFFFFFFFFFFFF AND DUP2 MSTORE PUSH1 0x20 ADD PUSH1 0x1 DUP3 ADD SLOAD DUP2 MSTORE PUSH1 0x20 ADD PUSH1 0x2 DUP3 ADD SLOAD DUP2 MSTORE PUSH1 0x20 ADD PUSH1 0x3 DUP3 ADD SLOAD DUP2 MSTORE PUSH1 0x20 ADD PUSH1 0x4 DUP3 ADD SLOAD DUP2 MSTORE PUSH1 0x20 ADD PUSH1 0x5 DUP3 ADD PUSH0 SWAP1 SLOAD SWAP1 PUSH2 0x100 EXP SWAP1 DIV PUSH1 0xFF AND PUSH1 0xFF AND PUSH1 0xFF AND DUP2 MSTORE PUSH1 0x20 ADD PUSH1 0x6 DUP3 ADD DUP1 SLOAD DUP1 PUSH1 0x20 MUL PUSH1 0x20 ADD PUSH1 0x40 MLOAD SWAP1 DUP2 ADD PUSH1 0x40 MSTORE DUP1 SWAP3 SWAP2 SWAP1 DUP2 DUP2 MSTORE PUSH1 0x20 ADD DUP3 DUP1 SLOAD DUP1 ISZERO PUSH2 0x21C1 JUMPI PUSH1 0x20 MUL DUP3 ADD SWAP2 SWAP1 PUSH0 MSTORE PUSH1 0x20 PUSH0 KECCAK256 SWAP1 JUMPDEST DUP2 PUSH0 SWAP1 SLOAD SWAP1 PUSH2 0x100 EXP SWAP1 DIV PUSH20 0xFFFFFFFFFFFFFFFFFFFFFFFFFFFFFFFFFFFFFFFF AND PUSH20 0xFFFFFFFFFFFFFFFFFFFFFFFFFFFFFFFFFFFFFFFF AND DUP2 MSTORE PUSH1 0x20 ADD SWAP1 PUSH1 0x1 ADD SWAP1 DUP1 DUP4 GT PUSH2 0x2178 JUMPI JUMPDEST POP POP POP POP POP DUP2 MSTORE PUSH1 0x20 ADD PUSH1 0x7 DUP3 ADD DUP1 SLOAD PUSH2 0x21DA SWAP1 PUSH2 0x3427 JUMP JUMPDEST DUP1 PUSH1 0x1F ADD PUSH1 0x20 DUP1 SWAP2 DIV MUL PUSH1 0x20 ADD PUSH1 0x40 MLOAD SWAP1 DUP2 ADD PUSH1 0x40 MSTORE DUP1 SWAP3 SWAP2 SWAP1 DUP2 DUP2 MSTORE PUSH1 0x20 ADD DUP3 DUP1 SLOAD PUSH2 0x2206 SWAP1 PUSH2 0x3427 JUMP JUMPDEST DUP1 ISZERO PUSH2 0x2251 JUMPI DUP1 PUSH1 0x1F LT PUSH2 0x2228 JUMPI PUSH2 0x100 DUP1 DUP4 SLOAD DIV MUL DUP4 MSTORE SWAP2 PUSH1 0x20 ADD SWAP2 PUSH2 0x2251 JUMP JUMPDEST DUP3 ADD SWAP2 SWAP1 PUSH0 MSTORE PUSH1 0x20 PUSH0 KECCAK256 SWAP1 JUMPDEST DUP2 SLOAD DUP2 MSTORE SWAP1 PUSH1 0x1 ADD SWAP1 PUSH1 0x20 ADD DUP1 DUP4 GT PUSH2 0x2234 JUMPI DUP3 SWAP1 SUB PUSH1 0x1F AND DUP3 ADD SWAP2 JUMPDEST POP POP POP POP POP DUP2 MSTORE PUSH1 0x20 ADD PUSH1 0x8 DUP3 ADD DUP1 SLOAD PUSH2 0x226A SWAP1 PUSH2 0x3427 JUMP JUMPDEST DUP1 PUSH1 0x1F ADD PUSH1 0x20 DUP1 SWAP2 DIV MUL PUSH1 0x20 ADD PUSH1 0x40 MLOAD SWAP1 DUP2 ADD PUSH1 0x40 MSTORE DUP1 SWAP3 SWAP2 SWAP1 DUP2 DUP2 MSTORE PUSH1 0x20 ADD DUP3 DUP1 SLOAD PUSH2 0x2296 SWAP1 PUSH2 0x3427 JUMP JUMPDEST DUP1 ISZERO PUSH2 0x22E1 JUMPI DUP1 PUSH1 0x1F LT PUSH2 0x22B8 JUMPI PUSH2 0x100 DUP1 DUP4 SLOAD DIV MUL DUP4 MSTORE SWAP2 PUSH1 0x20 ADD SWAP2 PUSH2 0x22E1 JUMP JUMPDEST DUP3 ADD SWAP2 SWAP1 PUSH0 MSTORE PUSH1 0x20 PUSH0 KECCAK256 SWAP1 JUMPDEST DUP2 SLOAD DUP2 MSTORE SWAP1 PUSH1 0x1 ADD SWAP1 PUSH1 0x20 ADD DUP1 DUP4 GT PUSH2 0x22C4 JUMPI DUP3 SWAP1 SUB PUSH1 0x1F AND DUP3 ADD SWAP2 JUMPDEST POP POP POP POP POP DUP2 MSTORE PUSH1 0x20 ADD PUSH1 0x9 DUP3 ADD DUP1 SLOAD PUSH2 0x22FA SWAP1 PUSH2 0x3427 JUMP JUMPDEST DUP1 PUSH1 0x1F ADD PUSH1 0x20 DUP1 SWAP2 DIV MUL PUSH1 0x20 ADD PUSH1 0x40 MLOAD SWAP1 DUP2 ADD PUSH1 0x40 MSTORE DUP1 SWAP3 SWAP2 SWAP1 DUP2 DUP2 MSTORE PUSH1 0x20 ADD DUP3 DUP1 SLOAD PUSH2 0x2326 SWAP1 PUSH2 0x3427 JUMP JUMPDEST DUP1 ISZERO PUSH2 0x2371 JUMPI DUP1 PUSH1 0x1F LT PUSH2 0x2348 JUMPI PUSH2 0x100 DUP1 DUP4 SLOAD DIV MUL DUP4 MSTORE SWAP2 PUSH1 0x20 ADD SWAP2 PUSH2 0x2371 JUMP JUMPDEST DUP3 ADD SWAP2 SWAP1 PUSH0 MSTORE PUSH1 0x20 PUSH0 KECCAK256 SWAP1 JUMPDEST DUP2 SLOAD DUP2 MSTORE SWAP1 PUSH1 0x1 ADD SWAP1 PUSH1 0x20 ADD DUP1 DUP4 GT PUSH2 0x2354 JUMPI DUP3 SWAP1 SUB PUSH1 0x1F AND DUP3 ADD SWAP2 JUMPDEST POP POP POP POP POP DUP2 MSTORE PUSH1 0x20 ADD PUSH1 0xA DUP3 ADD DUP1 SLOAD PUSH2 0x238A SWAP1 PUSH2 0x3427 JUMP JUMPDEST DUP1 PUSH1 0x1F ADD PUSH1 0x20 DUP1 SWAP2 DIV MUL PUSH1 0x20 ADD PUSH1 0x40 MLOAD SWAP1 DUP2 ADD PUSH1 0x40 MSTORE DUP1 SWAP3 SWAP2 SWAP1 DUP2 DUP2 MSTORE PUSH1 0x20 ADD DUP3 DUP1 SLOAD PUSH2 0x23B6 SWAP1 PUSH2 0x3427 JUMP JUMPDEST DUP1 ISZERO PUSH2 0x2401 JUMPI DUP1 PUSH1 0x1F LT PUSH2 0x23D8 JUMPI PUSH2 0x100 DUP1 DUP4 SLOAD DIV MUL DUP4 MSTORE SWAP2 PUSH1 0x20 ADD SWAP2 PUSH2 0x2401 JUMP JUMPDEST DUP3 ADD SWAP2 SWAP1 PUSH0 MSTORE PUSH1 0x20 PUSH0 KECCAK256 SWAP1 JUMPDEST DUP2 SLOAD DUP2 MSTORE SWAP1 PUSH1 0x1 ADD SWAP1 PUSH1 0x20 ADD DUP1 DUP4 GT PUSH2 0x23E4 JUMPI DUP3 SWAP1 SUB PUSH1 0x1F AND DUP3 ADD SWAP2 JUMPDEST POP POP POP POP POP DUP2 MSTORE PUSH1 0x20 ADD PUSH1 0xB DUP3 ADD SLOAD DUP2 MSTORE PUSH1 0x20 ADD PUSH1 0xC DUP3 ADD PUSH0 SWAP1 SLOAD SWAP1 PUSH2 0x100 EXP SWAP1 DIV PUSH20 0xFFFFFFFFFFFFFFFFFFFFFFFFFFFFFFFFFFFFFFFF AND PUSH20 0xFFFFFFFFFFFFFFFFFFFFFFFFFFFFFFFFFFFFFFFF AND PUSH20 0xFFFFFFFFFFFFFFFFFFFFFFFFFFFFFFFFFFFFFFFF AND DUP2 MSTORE POP POP SWAP1 POP DUP1 PUSH1 0x60 ADD MLOAD DUP2 PUSH1 0x80 ADD MLOAD SWAP3 POP SWAP3 POP POP SWAP2 POP SWAP2 JUMP JUMPDEST PUSH1 0x2 PUSH1 0x20 MSTORE DUP1 PUSH0 MSTORE PUSH1 0x40 PUSH0 KECCAK256 PUSH0 SWAP2 POP SWAP1 POP SLOAD DUP2 JUMP JUMPDEST PUSH0 DUP1 PUSH0 DUP5 PUSH20 0xFFFFFFFFFFFFFFFFFFFFFFFFFFFFFFFFFFFFFFFF AND PUSH20 0xFFFFFFFFFFFFFFFFFFFFFFFFFFFFFFFFFFFFFFFF AND DUP2 MSTORE PUSH1 0x20 ADD SWAP1 DUP2 MSTORE PUSH1 0x20 ADD PUSH0 KECCAK256 PUSH0 ADD PUSH0 SWAP1 SLOAD SWAP1 PUSH2 0x100 EXP SWAP1 DIV PUSH20 0xFFFFFFFFFFFFFFFFFFFFFFFFFFFFFFFFFFFFFFFF AND SWAP1 POP PUSH1 0x3 PUSH0 DUP1 DUP5 PUSH20 0xFFFFFFFFFFFFFFFFFFFFFFFFFFFFFFFFFFFFFFFF AND PUSH20 0xFFFFFFFFFFFFFFFFFFFFFFFFFFFFFFFFFFFFFFFF AND DUP2 MSTORE PUSH1 0x20 ADD SWAP1 DUP2 MSTORE PUSH1 0x20 ADD PUSH0 KECCAK256 PUSH1 0x2 ADD SLOAD LT ISZERO PUSH2 0x25B3 JUMPI PUSH0 DUP1 PUSH0 DUP4 PUSH20 0xFFFFFFFFFFFFFFFFFFFFFFFFFFFFFFFFFFFFFFFF AND PUSH20 0xFFFFFFFFFFFFFFFFFFFFFFFFFFFFFFFFFFFFFFFF AND DUP2 MSTORE PUSH1 0x20 ADD SWAP1 DUP2 MSTORE PUSH1 0x20 ADD PUSH0 KECCAK256 PUSH1 0x5 ADD PUSH0 SWAP1 SLOAD SWAP1 PUSH2 0x100 EXP SWAP1 DIV PUSH1 0xFF AND SWAP1 POP PUSH2 0x25AD DUP4 PUSH1 0x2 PUSH0 DUP5 PUSH1 0xFF AND PUSH1 0xFF AND DUP2 MSTORE PUSH1 0x20 ADD SWAP1 DUP2 MSTORE PUSH1 0x20 ADD PUSH0 KECCAK256 SLOAD PUSH2 0x27E0 JUMP JUMPDEST POP PUSH2 0x278E JUMP JUMPDEST PUSH0 DUP1 PUSH0 DUP5 PUSH20 0xFFFFFFFFFFFFFFFFFFFFFFFFFFFFFFFFFFFFFFFF AND PUSH20 0xFFFFFFFFFFFFFFFFFFFFFFFFFFFFFFFFFFFFFFFF AND DUP2 MSTORE PUSH1 0x20 ADD SWAP1 DUP2 MSTORE PUSH1 0x20 ADD PUSH0 KECCAK256 PUSH0 ADD PUSH0 SWAP1 SLOAD SWAP1 PUSH2 0x100 EXP SWAP1 DIV PUSH20 0xFFFFFFFFFFFFFFFFFFFFFFFFFFFFFFFFFFFFFFFF AND SWAP1 POP PUSH0 PUSH20 0xFFFFFFFFFFFFFFFFFFFFFFFFFFFFFFFFFFFFFFFF AND DUP2 PUSH20 0xFFFFFFFFFFFFFFFFFFFFFFFFFFFFFFFFFFFFFFFF AND EQ PUSH2 0x2748 JUMPI PUSH2 0x2666 DUP2 PUSH1 0x2 PUSH0 PUSH1 0x1 PUSH1 0xFF AND DUP2 MSTORE PUSH1 0x20 ADD SWAP1 DUP2 MSTORE PUSH1 0x20 ADD PUSH0 KECCAK256 SLOAD PUSH2 0x27E0 JUMP JUMPDEST PUSH0 DUP1 DUP5 PUSH20 0xFFFFFFFFFFFFFFFFFFFFFFFFFFFFFFFFFFFFFFFF AND PUSH20 0xFFFFFFFFFFFFFFFFFFFFFFFFFFFFFFFFFFFFFFFF AND DUP2 MSTORE PUSH1 0x20 ADD SWAP1 DUP2 MSTORE PUSH1 0x20 ADD PUSH0 KECCAK256 PUSH1 0x3 ADD PUSH0 DUP2 SLOAD DUP1 SWAP3 SWAP2 SWAP1 PUSH2 0x26B5 SWAP1 PUSH2 0x36F0 JUMP JUMPDEST SWAP2 SWAP1 POP SSTORE POP DUP3 PUSH20 0xFFFFFFFFFFFFFFFFFFFFFFFFFFFFFFFFFFFFFFFF AND PUSH32 0x18C00B25130B4512B396A52C89756CB9A1177C6002FE34CBC071F88CF90812A1 PUSH0 DUP1 DUP7 PUSH20 0xFFFFFFFFFFFFFFFFFFFFFFFFFFFFFFFFFFFFFFFF AND PUSH20 0xFFFFFFFFFFFFFFFFFFFFFFFFFFFFFFFFFFFFFFFF AND DUP2 MSTORE PUSH1 0x20 ADD SWAP1 DUP2 MSTORE PUSH1 0x20 ADD PUSH0 KECCAK256 PUSH1 0x3 ADD SLOAD PUSH1 0x40 MLOAD PUSH2 0x273F SWAP2 SWAP1 PUSH2 0x3051 JUMP JUMPDEST PUSH1 0x40 MLOAD DUP1 SWAP2 SUB SWAP1 LOG2 JUMPDEST PUSH0 DUP1 PUSH0 DUP6 PUSH20 0xFFFFFFFFFFFFFFFFFFFFFFFFFFFFFFFFFFFFFFFF AND PUSH20 0xFFFFFFFFFFFFFFFFFFFFFFFFFFFFFFFFFFFFFFFF AND DUP2 MSTORE PUSH1 0x20 ADD SWAP1 DUP2 MSTORE PUSH1 0x20 ADD PUSH0 KECCAK256 PUSH1 0x2 ADD DUP2 SWAP1 SSTORE POP POP JUMPDEST POP POP POP JUMP JUMPDEST PUSH0 DUP1 PUSH0 DUP1 DUP5 PUSH20 0xFFFFFFFFFFFFFFFFFFFFFFFFFFFFFFFFFFFFFFFF AND PUSH20 0xFFFFFFFFFFFFFFFFFFFFFFFFFFFFFFFFFFFFFFFF AND DUP2 MSTORE PUSH1 0x20 ADD SWAP1 DUP2 MSTORE PUSH1 0x20 ADD PUSH0 KECCAK256 PUSH1 0x2 ADD SLOAD SWAP1 POP DUP1 SWAP2 POP POP SWAP2 SWAP1 POP JUMP JUMPDEST DUP1 PUSH0 DUP1 DUP5 PUSH20 0xFFFFFFFFFFFFFFFFFFFFFFFFFFFFFFFFFFFFFFFF AND PUSH20 0xFFFFFFFFFFFFFFFFFFFFFFFFFFFFFFFFFFFFFFFF AND DUP2 MSTORE PUSH1 0x20 ADD SWAP1 DUP2 MSTORE PUSH1 0x20 ADD PUSH0 KECCAK256 PUSH1 0x4 ADD PUSH0 DUP3 DUP3 SLOAD PUSH2 0x282E SWAP2 SWAP1 PUSH2 0x3B07 JUMP JUMPDEST SWAP3 POP POP DUP2 SWAP1 SSTORE POP PUSH0 DUP3 PUSH20 0xFFFFFFFFFFFFFFFFFFFFFFFFFFFFFFFFFFFFFFFF AND DUP3 PUSH1 0x40 MLOAD PUSH2 0x285A SWAP1 PUSH2 0x3A8B JUMP JUMPDEST PUSH0 PUSH1 0x40 MLOAD DUP1 DUP4 SUB DUP2 DUP6 DUP8 GAS CALL SWAP3 POP POP POP RETURNDATASIZE DUP1 PUSH0 DUP2 EQ PUSH2 0x2894 JUMPI PUSH1 0x40 MLOAD SWAP2 POP PUSH1 0x1F NOT PUSH1 0x3F RETURNDATASIZE ADD AND DUP3 ADD PUSH1 0x40 MSTORE RETURNDATASIZE DUP3 MSTORE RETURNDATASIZE PUSH0 PUSH1 0x20 DUP5 ADD RETURNDATACOPY PUSH2 0x2899 JUMP JUMPDEST PUSH1 0x60 SWAP2 POP JUMPDEST POP POP SWAP1 POP DUP3 PUSH20 0xFFFFFFFFFFFFFFFFFFFFFFFFFFFFFFFFFFFFFFFF AND PUSH32 0x92D81AB7E787D9A43BBB8F8CA7F0B2708DA03B86D5AEA53D5D20656FF8DAD1EE DUP4 PUSH1 0x40 MLOAD PUSH2 0x28E3 SWAP2 SWAP1 PUSH2 0x3051 JUMP JUMPDEST PUSH1 0x40 MLOAD DUP1 SWAP2 SUB SWAP1 LOG2 POP POP POP JUMP JUMPDEST PUSH1 0x60 PUSH0 DUP3 SUB PUSH2 0x2936 JUMPI PUSH1 0x40 MLOAD DUP1 PUSH1 0x40 ADD PUSH1 0x40 MSTORE DUP1 PUSH1 0x1 DUP2 MSTORE PUSH1 0x20 ADD PUSH32 0x3000000000000000000000000000000000000000000000000000000000000000 DUP2 MSTORE POP SWAP1 POP PUSH2 0x2AFC JUMP JUMPDEST PUSH0 PUSH1 0x4E SWAP1 POP PUSH0 DUP2 PUSH8 0xFFFFFFFFFFFFFFFF DUP2 GT ISZERO PUSH2 0x2956 JUMPI PUSH2 0x2955 PUSH2 0x2C26 JUMP JUMPDEST JUMPDEST PUSH1 0x40 MLOAD SWAP1 DUP1 DUP3 MSTORE DUP1 PUSH1 0x1F ADD PUSH1 0x1F NOT AND PUSH1 0x20 ADD DUP3 ADD PUSH1 0x40 MSTORE DUP1 ISZERO PUSH2 0x2988 JUMPI DUP2 PUSH1 0x20 ADD PUSH1 0x1 DUP3 MUL DUP1 CALLDATASIZE DUP4 CALLDATACOPY DUP1 DUP3 ADD SWAP2 POP POP SWAP1 POP JUMPDEST POP SWAP1 POP PUSH0 JUMPDEST PUSH0 DUP6 EQ PUSH2 0x2A16 JUMPI PUSH0 PUSH1 0xA DUP7 PUSH2 0x29A2 SWAP2 SWAP1 PUSH2 0x3BE8 JUMP JUMPDEST SWAP1 POP PUSH1 0xA DUP7 PUSH2 0x29B1 SWAP2 SWAP1 PUSH2 0x39FB JUMP JUMPDEST SWAP6 POP DUP1 PUSH1 0x30 PUSH2 0x29C0 SWAP2 SWAP1 PUSH2 0x3B07 JUMP JUMPDEST PUSH1 0xF8 SHL DUP4 DUP4 DUP1 PUSH2 0x29CF SWAP1 PUSH2 0x36F0 JUMP JUMPDEST SWAP5 POP DUP2 MLOAD DUP2 LT PUSH2 0x29E2 JUMPI PUSH2 0x29E1 PUSH2 0x3C18 JUMP JUMPDEST JUMPDEST PUSH1 0x20 ADD ADD SWAP1 PUSH31 0xFFFFFFFFFFFFFFFFFFFFFFFFFFFFFFFFFFFFFFFFFFFFFFFFFFFFFFFFFFFFFF NOT AND SWAP1 DUP2 PUSH0 BYTE SWAP1 MSTORE8 POP POP PUSH2 0x298D JUMP JUMPDEST PUSH0 DUP2 PUSH8 0xFFFFFFFFFFFFFFFF DUP2 GT ISZERO PUSH2 0x2A31 JUMPI PUSH2 0x2A30 PUSH2 0x2C26 JUMP JUMPDEST JUMPDEST PUSH1 0x40 MLOAD SWAP1 DUP1 DUP3 MSTORE DUP1 PUSH1 0x1F ADD PUSH1 0x1F NOT AND PUSH1 0x20 ADD DUP3 ADD PUSH1 0x40 MSTORE DUP1 ISZERO PUSH2 0x2A63 JUMPI DUP2 PUSH1 0x20 ADD PUSH1 0x1 DUP3 MUL DUP1 CALLDATASIZE DUP4 CALLDATACOPY DUP1 DUP3 ADD SWAP2 POP POP SWAP1 POP JUMPDEST POP SWAP1 POP PUSH0 JUMPDEST DUP3 DUP2 LT ISZERO PUSH2 0x2AF3 JUMPI DUP4 PUSH1 0x1 DUP3 DUP6 PUSH2 0x2A7F SWAP2 SWAP1 PUSH2 0x3A2B JUMP JUMPDEST PUSH2 0x2A89 SWAP2 SWAP1 PUSH2 0x3A2B JUMP JUMPDEST DUP2 MLOAD DUP2 LT PUSH2 0x2A9A JUMPI PUSH2 0x2A99 PUSH2 0x3C18 JUMP JUMPDEST JUMPDEST PUSH1 0x20 ADD ADD MLOAD PUSH1 0xF8 SHR PUSH1 0xF8 SHL DUP3 DUP3 DUP2 MLOAD DUP2 LT PUSH2 0x2AB8 JUMPI PUSH2 0x2AB7 PUSH2 0x3C18 JUMP JUMPDEST JUMPDEST PUSH1 0x20 ADD ADD SWAP1 PUSH31 0xFFFFFFFFFFFFFFFFFFFFFFFFFFFFFFFFFFFFFFFFFFFFFFFFFFFFFFFFFFFFFF NOT AND SWAP1 DUP2 PUSH0 BYTE SWAP1 MSTORE8 POP DUP1 DUP1 PUSH1 0x1 ADD SWAP2 POP POP PUSH2 0x2A68 JUMP JUMPDEST POP DUP1 SWAP5 POP POP POP POP POP JUMPDEST SWAP2 SWAP1 POP JUMP JUMPDEST DUP3 DUP1 SLOAD DUP3 DUP3 SSTORE SWAP1 PUSH0 MSTORE PUSH1 0x20 PUSH0 KECCAK256 SWAP1 DUP2 ADD SWAP3 DUP3 ISZERO PUSH2 0x2B77 JUMPI SWAP2 PUSH1 0x20 MUL DUP3 ADD JUMPDEST DUP3 DUP2 GT ISZERO PUSH2 0x2B76 JUMPI DUP3 MLOAD DUP3 PUSH0 PUSH2 0x100 EXP DUP2 SLOAD DUP2 PUSH20 0xFFFFFFFFFFFFFFFFFFFFFFFFFFFFFFFFFFFFFFFF MUL NOT AND SWAP1 DUP4 PUSH20 0xFFFFFFFFFFFFFFFFFFFFFFFFFFFFFFFFFFFFFFFF AND MUL OR SWAP1 SSTORE POP SWAP2 PUSH1 0x20 ADD SWAP2 SWAP1 PUSH1 0x1 ADD SWAP1 PUSH2 0x2B1F JUMP JUMPDEST JUMPDEST POP SWAP1 POP PUSH2 0x2B84 SWAP2 SWAP1 PUSH2 0x2B88 JUMP JUMPDEST POP SWAP1 JUMP JUMPDEST JUMPDEST DUP1 DUP3 GT ISZERO PUSH2 0x2B9F JUMPI PUSH0 DUP2 PUSH0 SWAP1 SSTORE POP PUSH1 0x1 ADD PUSH2 0x2B89 JUMP JUMPDEST POP SWAP1 JUMP JUMPDEST PUSH0 PUSH1 0x40 MLOAD SWAP1 POP SWAP1 JUMP JUMPDEST PUSH0 DUP1 REVERT JUMPDEST PUSH0 DUP1 REVERT JUMPDEST PUSH0 PUSH20 0xFFFFFFFFFFFFFFFFFFFFFFFFFFFFFFFFFFFFFFFF DUP3 AND SWAP1 POP SWAP2 SWAP1 POP JUMP JUMPDEST PUSH0 PUSH2 0x2BDD DUP3 PUSH2 0x2BB4 JUMP JUMPDEST SWAP1 POP SWAP2 SWAP1 POP JUMP JUMPDEST PUSH2 0x2BED DUP2 PUSH2 0x2BD3 JUMP JUMPDEST DUP2 EQ PUSH2 0x2BF7 JUMPI PUSH0 DUP1 REVERT JUMPDEST POP JUMP JUMPDEST PUSH0 DUP2 CALLDATALOAD SWAP1 POP PUSH2 0x2C08 DUP2 PUSH2 0x2BE4 JUMP JUMPDEST SWAP3 SWAP2 POP POP JUMP JUMPDEST PUSH0 DUP1 REVERT JUMPDEST PUSH0 DUP1 REVERT JUMPDEST PUSH0 PUSH1 0x1F NOT PUSH1 0x1F DUP4 ADD AND SWAP1 POP SWAP2 SWAP1 POP JUMP JUMPDEST PUSH32 0x4E487B7100000000000000000000000000000000000000000000000000000000 PUSH0 MSTORE PUSH1 0x41 PUSH1 0x4 MSTORE PUSH1 0x24 PUSH0 REVERT JUMPDEST PUSH2 0x2C5C DUP3 PUSH2 0x2C16 JUMP JUMPDEST DUP2 ADD DUP2 DUP2 LT PUSH8 0xFFFFFFFFFFFFFFFF DUP3 GT OR ISZERO PUSH2 0x2C7B JUMPI PUSH2 0x2C7A PUSH2 0x2C26 JUMP JUMPDEST JUMPDEST DUP1 PUSH1 0x40 MSTORE POP POP POP JUMP JUMPDEST PUSH0 PUSH2 0x2C8D PUSH2 0x2BA3 JUMP JUMPDEST SWAP1 POP PUSH2 0x2C99 DUP3 DUP3 PUSH2 0x2C53 JUMP JUMPDEST SWAP2 SWAP1 POP JUMP JUMPDEST PUSH0 PUSH8 0xFFFFFFFFFFFFFFFF DUP3 GT ISZERO PUSH2 0x2CB8 JUMPI PUSH2 0x2CB7 PUSH2 0x2C26 JUMP JUMPDEST JUMPDEST PUSH2 0x2CC1 DUP3 PUSH2 0x2C16 JUMP JUMPDEST SWAP1 POP PUSH1 0x20 DUP2 ADD SWAP1 POP SWAP2 SWAP1 POP JUMP JUMPDEST DUP3 DUP2 DUP4 CALLDATACOPY PUSH0 DUP4 DUP4 ADD MSTORE POP POP POP JUMP JUMPDEST PUSH0 PUSH2 0x2CEE PUSH2 0x2CE9 DUP5 PUSH2 0x2C9E JUMP JUMPDEST PUSH2 0x2C84 JUMP JUMPDEST SWAP1 POP DUP3 DUP2 MSTORE PUSH1 0x20 DUP2 ADD DUP5 DUP5 DUP5 ADD GT ISZERO PUSH2 0x2D0A JUMPI PUSH2 0x2D09 PUSH2 0x2C12 JUMP JUMPDEST JUMPDEST PUSH2 0x2D15 DUP5 DUP3 DUP6 PUSH2 0x2CCE JUMP JUMPDEST POP SWAP4 SWAP3 POP POP POP JUMP JUMPDEST PUSH0 DUP3 PUSH1 0x1F DUP4 ADD SLT PUSH2 0x2D31 JUMPI PUSH2 0x2D30 PUSH2 0x2C0E JUMP JUMPDEST JUMPDEST DUP2 CALLDATALOAD PUSH2 0x2D41 DUP5 DUP3 PUSH1 0x20 DUP7 ADD PUSH2 0x2CDC JUMP JUMPDEST SWAP2 POP POP SWAP3 SWAP2 POP POP JUMP JUMPDEST PUSH0 DUP1 PUSH0 DUP1 PUSH0 DUP1 PUSH1 0xC0 DUP8 DUP10 SUB SLT ISZERO PUSH2 0x2D64 JUMPI PUSH2 0x2D63 PUSH2 0x2BAC JUMP JUMPDEST JUMPDEST PUSH0 PUSH2 0x2D71 DUP10 DUP3 DUP11 ADD PUSH2 0x2BFA JUMP JUMPDEST SWAP7 POP POP PUSH1 0x20 DUP8 ADD CALLDATALOAD PUSH8 0xFFFFFFFFFFFFFFFF DUP2 GT ISZERO PUSH2 0x2D92 JUMPI PUSH2 0x2D91 PUSH2 0x2BB0 JUMP JUMPDEST JUMPDEST PUSH2 0x2D9E DUP10 DUP3 DUP11 ADD PUSH2 0x2D1D JUMP JUMPDEST SWAP6 POP POP PUSH1 0x40 DUP8 ADD CALLDATALOAD PUSH8 0xFFFFFFFFFFFFFFFF DUP2 GT ISZERO PUSH2 0x2DBF JUMPI PUSH2 0x2DBE PUSH2 0x2BB0 JUMP JUMPDEST JUMPDEST PUSH2 0x2DCB DUP10 DUP3 DUP11 ADD PUSH2 0x2D1D JUMP JUMPDEST SWAP5 POP POP PUSH1 0x60 DUP8 ADD CALLDATALOAD PUSH8 0xFFFFFFFFFFFFFFFF DUP2 GT ISZERO PUSH2 0x2DEC JUMPI PUSH2 0x2DEB PUSH2 0x2BB0 JUMP JUMPDEST JUMPDEST PUSH2 0x2DF8 DUP10 DUP3 DUP11 ADD PUSH2 0x2D1D JUMP JUMPDEST SWAP4 POP POP PUSH1 0x80 DUP8 ADD CALLDATALOAD PUSH8 0xFFFFFFFFFFFFFFFF DUP2 GT ISZERO PUSH2 0x2E19 JUMPI PUSH2 0x2E18 PUSH2 0x2BB0 JUMP JUMPDEST JUMPDEST PUSH2 0x2E25 DUP10 DUP3 DUP11 ADD PUSH2 0x2D1D JUMP JUMPDEST SWAP3 POP POP PUSH1 0xA0 DUP8 ADD CALLDATALOAD PUSH8 0xFFFFFFFFFFFFFFFF DUP2 GT ISZERO PUSH2 0x2E46 JUMPI PUSH2 0x2E45 PUSH2 0x2BB0 JUMP JUMPDEST JUMPDEST PUSH2 0x2E52 DUP10 DUP3 DUP11 ADD PUSH2 0x2D1D JUMP JUMPDEST SWAP2 POP POP SWAP3 SWAP6 POP SWAP3 SWAP6 POP SWAP3 SWAP6 JUMP JUMPDEST PUSH0 PUSH1 0xFF DUP3 AND SWAP1 POP SWAP2 SWAP1 POP JUMP JUMPDEST PUSH2 0x2E74 DUP2 PUSH2 0x2E5F JUMP JUMPDEST DUP3 MSTORE POP POP JUMP JUMPDEST PUSH0 PUSH1 0x20 DUP3 ADD SWAP1 POP PUSH2 0x2E8D PUSH0 DUP4 ADD DUP5 PUSH2 0x2E6B JUMP JUMPDEST SWAP3 SWAP2 POP POP JUMP JUMPDEST PUSH0 DUP2 SWAP1 POP SWAP2 SWAP1 POP JUMP JUMPDEST PUSH2 0x2EA5 DUP2 PUSH2 0x2E93 JUMP JUMPDEST DUP2 EQ PUSH2 0x2EAF JUMPI PUSH0 DUP1 REVERT JUMPDEST POP JUMP JUMPDEST PUSH0 DUP2 CALLDATALOAD SWAP1 POP PUSH2 0x2EC0 DUP2 PUSH2 0x2E9C JUMP JUMPDEST SWAP3 SWAP2 POP POP JUMP JUMPDEST PUSH0 PUSH1 0x20 DUP3 DUP5 SUB SLT ISZERO PUSH2 0x2EDB JUMPI PUSH2 0x2EDA PUSH2 0x2BAC JUMP JUMPDEST JUMPDEST PUSH0 PUSH2 0x2EE8 DUP5 DUP3 DUP6 ADD PUSH2 0x2EB2 JUMP JUMPDEST SWAP2 POP POP SWAP3 SWAP2 POP POP JUMP JUMPDEST PUSH2 0x2EFA DUP2 PUSH2 0x2BD3 JUMP JUMPDEST DUP3 MSTORE POP POP JUMP JUMPDEST PUSH0 PUSH1 0x20 DUP3 ADD SWAP1 POP PUSH2 0x2F13 PUSH0 DUP4 ADD DUP5 PUSH2 0x2EF1 JUMP JUMPDEST SWAP3 SWAP2 POP POP JUMP JUMPDEST PUSH0 DUP1 PUSH0 DUP1 PUSH0 DUP1 PUSH0 PUSH1 0xE0 DUP9 DUP11 SUB SLT ISZERO PUSH2 0x2F34 JUMPI PUSH2 0x2F33 PUSH2 0x2BAC JUMP JUMPDEST JUMPDEST PUSH0 PUSH2 0x2F41 DUP11 DUP3 DUP12 ADD PUSH2 0x2BFA JUMP JUMPDEST SWAP8 POP POP PUSH1 0x20 DUP9 ADD CALLDATALOAD PUSH8 0xFFFFFFFFFFFFFFFF DUP2 GT ISZERO PUSH2 0x2F62 JUMPI PUSH2 0x2F61 PUSH2 0x2BB0 JUMP JUMPDEST JUMPDEST PUSH2 0x2F6E DUP11 DUP3 DUP12 ADD PUSH2 0x2D1D JUMP JUMPDEST SWAP7 POP POP PUSH1 0x40 DUP9 ADD CALLDATALOAD PUSH8 0xFFFFFFFFFFFFFFFF DUP2 GT ISZERO PUSH2 0x2F8F JUMPI PUSH2 0x2F8E PUSH2 0x2BB0 JUMP JUMPDEST JUMPDEST PUSH2 0x2F9B DUP11 DUP3 DUP12 ADD PUSH2 0x2D1D JUMP JUMPDEST SWAP6 POP POP PUSH1 0x60 DUP9 ADD CALLDATALOAD PUSH8 0xFFFFFFFFFFFFFFFF DUP2 GT ISZERO PUSH2 0x2FBC JUMPI PUSH2 0x2FBB PUSH2 0x2BB0 JUMP JUMPDEST JUMPDEST PUSH2 0x2FC8 DUP11 DUP3 DUP12 ADD PUSH2 0x2D1D JUMP JUMPDEST SWAP5 POP POP PUSH1 0x80 DUP9 ADD CALLDATALOAD PUSH8 0xFFFFFFFFFFFFFFFF DUP2 GT ISZERO PUSH2 0x2FE9 JUMPI PUSH2 0x2FE8 PUSH2 0x2BB0 JUMP JUMPDEST JUMPDEST PUSH2 0x2FF5 DUP11 DUP3 DUP12 ADD PUSH2 0x2D1D JUMP JUMPDEST SWAP4 POP POP PUSH1 0xA0 DUP9 ADD CALLDATALOAD PUSH8 0xFFFFFFFFFFFFFFFF DUP2 GT ISZERO PUSH2 0x3016 JUMPI PUSH2 0x3015 PUSH2 0x2BB0 JUMP JUMPDEST JUMPDEST PUSH2 0x3022 DUP11 DUP3 DUP12 ADD PUSH2 0x2D1D JUMP JUMPDEST SWAP3 POP POP PUSH1 0xC0 PUSH2 0x3033 DUP11 DUP3 DUP12 ADD PUSH2 0x2BFA JUMP JUMPDEST SWAP2 POP POP SWAP3 SWAP6 SWAP9 SWAP2 SWAP5 SWAP8 POP SWAP3 SWAP6 POP JUMP JUMPDEST PUSH2 0x304B DUP2 PUSH2 0x2E93 JUMP JUMPDEST DUP3 MSTORE POP POP JUMP JUMPDEST PUSH0 PUSH1 0x20 DUP3 ADD SWAP1 POP PUSH2 0x3064 PUSH0 DUP4 ADD DUP5 PUSH2 0x3042 JUMP JUMPDEST SWAP3 SWAP2 POP POP JUMP JUMPDEST PUSH0 PUSH1 0x20 DUP3 DUP5 SUB SLT ISZERO PUSH2 0x307F JUMPI PUSH2 0x307E PUSH2 0x2BAC JUMP JUMPDEST JUMPDEST PUSH0 PUSH2 0x308C DUP5 DUP3 DUP6 ADD PUSH2 0x2BFA JUMP JUMPDEST SWAP2 POP POP SWAP3 SWAP2 POP POP JUMP JUMPDEST PUSH0 DUP2 MLOAD SWAP1 POP SWAP2 SWAP1 POP JUMP JUMPDEST PUSH0 DUP3 DUP3 MSTORE PUSH1 0x20 DUP3 ADD SWAP1 POP SWAP3 SWAP2 POP POP JUMP JUMPDEST DUP3 DUP2 DUP4 MCOPY PUSH0 DUP4 DUP4 ADD MSTORE POP POP POP JUMP JUMPDEST PUSH0 PUSH2 0x30C7 DUP3 PUSH2 0x3095 JUMP JUMPDEST PUSH2 0x30D1 DUP2 DUP6 PUSH2 0x309F JUMP JUMPDEST SWAP4 POP PUSH2 0x30E1 DUP2 DUP6 PUSH1 0x20 DUP7 ADD PUSH2 0x30AF JUMP JUMPDEST PUSH2 0x30EA DUP2 PUSH2 0x2C16 JUMP JUMPDEST DUP5 ADD SWAP2 POP POP SWAP3 SWAP2 POP POP JUMP JUMPDEST PUSH0 PUSH2 0x160 DUP3 ADD SWAP1 POP PUSH2 0x3109 PUSH0 DUP4 ADD DUP15 PUSH2 0x2EF1 JUMP JUMPDEST PUSH2 0x3116 PUSH1 0x20 DUP4 ADD DUP14 PUSH2 0x3042 JUMP JUMPDEST PUSH2 0x3123 PUSH1 0x40 DUP4 ADD DUP13 PUSH2 0x3042 JUMP JUMPDEST PUSH2 0x3130 PUSH1 0x60 DUP4 ADD DUP12 PUSH2 0x3042 JUMP JUMPDEST PUSH2 0x313D PUSH1 0x80 DUP4 ADD DUP11 PUSH2 0x3042 JUMP JUMPDEST PUSH2 0x314A PUSH1 0xA0 DUP4 ADD DUP10 PUSH2 0x3042 JUMP JUMPDEST DUP2 DUP2 SUB PUSH1 0xC0 DUP4 ADD MSTORE PUSH2 0x315C DUP2 DUP9 PUSH2 0x30BD JUMP JUMPDEST SWAP1 POP DUP2 DUP2 SUB PUSH1 0xE0 DUP4 ADD MSTORE PUSH2 0x3170 DUP2 DUP8 PUSH2 0x30BD JUMP JUMPDEST SWAP1 POP DUP2 DUP2 SUB PUSH2 0x100 DUP4 ADD MSTORE PUSH2 0x3185 DUP2 DUP7 PUSH2 0x30BD JUMP JUMPDEST SWAP1 POP DUP2 DUP2 SUB PUSH2 0x120 DUP4 ADD MSTORE PUSH2 0x319A DUP2 DUP6 PUSH2 0x30BD JUMP JUMPDEST SWAP1 POP PUSH2 0x31AA PUSH2 0x140 DUP4 ADD DUP5 PUSH2 0x2EF1 JUMP JUMPDEST SWAP13 SWAP12 POP POP POP POP POP POP POP POP POP POP POP POP JUMP JUMPDEST PUSH2 0x31C3 DUP2 PUSH2 0x2E5F JUMP JUMPDEST DUP2 EQ PUSH2 0x31CD JUMPI PUSH0 DUP1 REVERT JUMPDEST POP JUMP JUMPDEST PUSH0 DUP2 CALLDATALOAD SWAP1 POP PUSH2 0x31DE DUP2 PUSH2 0x31BA JUMP JUMPDEST SWAP3 SWAP2 POP POP JUMP JUMPDEST PUSH0 PUSH1 0x20 DUP3 DUP5 SUB SLT ISZERO PUSH2 0x31F9 JUMPI PUSH2 0x31F8 PUSH2 0x2BAC JUMP JUMPDEST JUMPDEST PUSH0 PUSH2 0x3206 DUP5 DUP3 DUP6 ADD PUSH2 0x31D0 JUMP JUMPDEST SWAP2 POP POP SWAP3 SWAP2 POP POP JUMP JUMPDEST PUSH0 DUP2 SWAP1 POP SWAP2 SWAP1 POP JUMP JUMPDEST PUSH2 0x3221 DUP2 PUSH2 0x320F JUMP JUMPDEST DUP3 MSTORE POP POP JUMP JUMPDEST PUSH0 PUSH2 0x180 DUP3 ADD SWAP1 POP PUSH2 0x323B PUSH0 DUP4 ADD DUP16 PUSH2 0x2EF1 JUMP JUMPDEST PUSH2 0x3248 PUSH1 0x20 DUP4 ADD DUP15 PUSH2 0x3042 JUMP JUMPDEST PUSH2 0x3255 PUSH1 0x40 DUP4 ADD DUP14 PUSH2 0x3042 JUMP JUMPDEST PUSH2 0x3262 PUSH1 0x60 DUP4 ADD DUP13 PUSH2 0x3042 JUMP JUMPDEST PUSH2 0x326F PUSH1 0x80 DUP4 ADD DUP12 PUSH2 0x3042 JUMP JUMPDEST PUSH2 0x327C PUSH1 0xA0 DUP4 ADD DUP11 PUSH2 0x2E6B JUMP JUMPDEST DUP2 DUP2 SUB PUSH1 0xC0 DUP4 ADD MSTORE PUSH2 0x328E DUP2 DUP10 PUSH2 0x30BD JUMP JUMPDEST SWAP1 POP DUP2 DUP2 SUB PUSH1 0xE0 DUP4 ADD MSTORE PUSH2 0x32A2 DUP2 DUP9 PUSH2 0x30BD JUMP JUMPDEST SWAP1 POP DUP2 DUP2 SUB PUSH2 0x100 DUP4 ADD MSTORE PUSH2 0x32B7 DUP2 DUP8 PUSH2 0x30BD JUMP JUMPDEST SWAP1 POP DUP2 DUP2 SUB PUSH2 0x120 DUP4 ADD MSTORE PUSH2 0x32CC DUP2 DUP7 PUSH2 0x30BD JUMP JUMPDEST SWAP1 POP PUSH2 0x32DC PUSH2 0x140 DUP4 ADD DUP6 PUSH2 0x3218 JUMP JUMPDEST PUSH2 0x32EA PUSH2 0x160 DUP4 ADD DUP5 PUSH2 0x2EF1 JUMP JUMPDEST SWAP14 SWAP13 POP POP POP POP POP POP POP POP POP POP POP POP POP JUMP JUMPDEST PUSH0 PUSH1 0x20 DUP3 ADD SWAP1 POP DUP2 DUP2 SUB PUSH0 DUP4 ADD MSTORE PUSH2 0x3313 DUP2 DUP5 PUSH2 0x30BD JUMP JUMPDEST SWAP1 POP SWAP3 SWAP2 POP POP JUMP JUMPDEST PUSH0 PUSH1 0x40 DUP3 ADD SWAP1 POP PUSH2 0x332E PUSH0 DUP4 ADD DUP6 PUSH2 0x3042 JUMP JUMPDEST PUSH2 0x333B PUSH1 0x20 DUP4 ADD DUP5 PUSH2 0x3042 JUMP JUMPDEST SWAP4 SWAP3 POP POP POP JUMP JUMPDEST PUSH32 0x55706C696E6520616C7265616479207265676973746572656400000000000000 PUSH0 DUP3 ADD MSTORE POP JUMP JUMPDEST PUSH0 PUSH2 0x3376 PUSH1 0x19 DUP4 PUSH2 0x309F JUMP JUMPDEST SWAP2 POP PUSH2 0x3381 DUP3 PUSH2 0x3342 JUMP JUMPDEST PUSH1 0x20 DUP3 ADD SWAP1 POP SWAP2 SWAP1 POP JUMP JUMPDEST PUSH0 PUSH1 0x20 DUP3 ADD SWAP1 POP DUP2 DUP2 SUB PUSH0 DUP4 ADD MSTORE PUSH2 0x33A3 DUP2 PUSH2 0x336A JUMP JUMPDEST SWAP1 POP SWAP2 SWAP1 POP JUMP JUMPDEST PUSH0 DUP2 SWAP1 POP SWAP3 SWAP2 POP POP JUMP JUMPDEST PUSH0 PUSH2 0x33BE DUP3 PUSH2 0x3095 JUMP JUMPDEST PUSH2 0x33C8 DUP2 DUP6 PUSH2 0x33AA JUMP JUMPDEST SWAP4 POP PUSH2 0x33D8 DUP2 DUP6 PUSH1 0x20 DUP7 ADD PUSH2 0x30AF JUMP JUMPDEST DUP1 DUP5 ADD SWAP2 POP POP SWAP3 SWAP2 POP POP JUMP JUMPDEST PUSH0 PUSH2 0x33EF DUP3 DUP5 PUSH2 0x33B4 JUMP JUMPDEST SWAP2 POP DUP2 SWAP1 POP SWAP3 SWAP2 POP POP JUMP JUMPDEST PUSH32 0x4E487B7100000000000000000000000000000000000000000000000000000000 PUSH0 MSTORE PUSH1 0x22 PUSH1 0x4 MSTORE PUSH1 0x24 PUSH0 REVERT JUMPDEST PUSH0 PUSH1 0x2 DUP3 DIV SWAP1 POP PUSH1 0x1 DUP3 AND DUP1 PUSH2 0x343E JUMPI PUSH1 0x7F DUP3 AND SWAP2 POP JUMPDEST PUSH1 0x20 DUP3 LT DUP2 SUB PUSH2 0x3451 JUMPI PUSH2 0x3450 PUSH2 0x33FA JUMP JUMPDEST JUMPDEST POP SWAP2 SWAP1 POP JUMP JUMPDEST PUSH0 DUP2 SWAP1 POP DUP2 PUSH0 MSTORE PUSH1 0x20 PUSH0 KECCAK256 SWAP1 POP SWAP2 SWAP1 POP JUMP JUMPDEST PUSH0 PUSH1 0x20 PUSH1 0x1F DUP4 ADD DIV SWAP1 POP SWAP2 SWAP1 POP JUMP JUMPDEST PUSH0 DUP3 DUP3 SHL SWAP1 POP SWAP3 SWAP2 POP POP JUMP JUMPDEST PUSH0 PUSH1 0x8 DUP4 MUL PUSH2 0x34B3 PUSH32 0xFFFFFFFFFFFFFFFFFFFFFFFFFFFFFFFFFFFFFFFFFFFFFFFFFFFFFFFFFFFFFFFF DUP3 PUSH2 0x3478 JUMP JUMPDEST PUSH2 0x34BD DUP7 DUP4 PUSH2 0x3478 JUMP JUMPDEST SWAP6 POP DUP1 NOT DUP5 AND SWAP4 POP DUP1 DUP7 AND DUP5 OR SWAP3 POP POP POP SWAP4 SWAP3 POP POP POP JUMP JUMPDEST PUSH0 DUP2 SWAP1 POP SWAP2 SWAP1 POP JUMP JUMPDEST PUSH0 PUSH2 0x34F8 PUSH2 0x34F3 PUSH2 0x34EE DUP5 PUSH2 0x2E93 JUMP JUMPDEST PUSH2 0x34D5 JUMP JUMPDEST PUSH2 0x2E93 JUMP JUMPDEST SWAP1 POP SWAP2 SWAP1 POP JUMP JUMPDEST PUSH0 DUP2 SWAP1 POP SWAP2 SWAP1 POP JUMP JUMPDEST PUSH2 0x3511 DUP4 PUSH2 0x34DE JUMP JUMPDEST PUSH2 0x3525 PUSH2 0x351D DUP3 PUSH2 0x34FF JUMP JUMPDEST DUP5 DUP5 SLOAD PUSH2 0x3484 JUMP JUMPDEST DUP3 SSTORE POP POP POP POP JUMP JUMPDEST PUSH0 SWAP1 JUMP JUMPDEST PUSH2 0x3539 PUSH2 0x352D JUMP JUMPDEST PUSH2 0x3544 DUP2 DUP5 DUP5 PUSH2 0x3508 JUMP JUMPDEST POP POP POP JUMP JUMPDEST JUMPDEST DUP2 DUP2 LT ISZERO PUSH2 0x3567 JUMPI PUSH2 0x355C PUSH0 DUP3 PUSH2 0x3531 JUMP JUMPDEST PUSH1 0x1 DUP2 ADD SWAP1 POP PUSH2 0x354A JUMP JUMPDEST POP POP JUMP JUMPDEST PUSH1 0x1F DUP3 GT ISZERO PUSH2 0x35AC JUMPI PUSH2 0x357D DUP2 PUSH2 0x3457 JUMP JUMPDEST PUSH2 0x3586 DUP5 PUSH2 0x3469 JUMP JUMPDEST DUP2 ADD PUSH1 0x20 DUP6 LT ISZERO PUSH2 0x3595 JUMPI DUP2 SWAP1 POP JUMPDEST PUSH2 0x35A9 PUSH2 0x35A1 DUP6 PUSH2 0x3469 JUMP JUMPDEST DUP4 ADD DUP3 PUSH2 0x3549 JUMP JUMPDEST POP POP JUMPDEST POP POP POP JUMP JUMPDEST PUSH0 DUP3 DUP3 SHR SWAP1 POP SWAP3 SWAP2 POP POP JUMP JUMPDEST PUSH0 PUSH2 0x35CC PUSH0 NOT DUP5 PUSH1 0x8 MUL PUSH2 0x35B1 JUMP JUMPDEST NOT DUP1 DUP4 AND SWAP2 POP POP SWAP3 SWAP2 POP POP JUMP JUMPDEST PUSH0 PUSH2 0x35E4 DUP4 DUP4 PUSH2 0x35BD JUMP JUMPDEST SWAP2 POP DUP3 PUSH1 0x2 MUL DUP3 OR SWAP1 POP SWAP3 SWAP2 POP POP JUMP JUMPDEST PUSH2 0x35FD DUP3 PUSH2 0x3095 JUMP JUMPDEST PUSH8 0xFFFFFFFFFFFFFFFF DUP2 GT ISZERO PUSH2 0x3616 JUMPI PUSH2 0x3615 PUSH2 0x2C26 JUMP JUMPDEST JUMPDEST PUSH2 0x3620 DUP3 SLOAD PUSH2 0x3427 JUMP JUMPDEST PUSH2 0x362B DUP3 DUP3 DUP6 PUSH2 0x356B JUMP JUMPDEST PUSH0 PUSH1 0x20 SWAP1 POP PUSH1 0x1F DUP4 GT PUSH1 0x1 DUP2 EQ PUSH2 0x365C JUMPI PUSH0 DUP5 ISZERO PUSH2 0x364A JUMPI DUP3 DUP8 ADD MLOAD SWAP1 POP JUMPDEST PUSH2 0x3654 DUP6 DUP3 PUSH2 0x35D9 JUMP JUMPDEST DUP7 SSTORE POP PUSH2 0x36BB JUMP JUMPDEST PUSH1 0x1F NOT DUP5 AND PUSH2 0x366A DUP7 PUSH2 0x3457 JUMP JUMPDEST PUSH0 JUMPDEST DUP3 DUP2 LT ISZERO PUSH2 0x3691 JUMPI DUP5 DUP10 ADD MLOAD DUP3 SSTORE PUSH1 0x1 DUP3 ADD SWAP2 POP PUSH1 0x20 DUP6 ADD SWAP5 POP PUSH1 0x20 DUP2 ADD SWAP1 POP PUSH2 0x366C JUMP JUMPDEST DUP7 DUP4 LT ISZERO PUSH2 0x36AE JUMPI DUP5 DUP10 ADD MLOAD PUSH2 0x36AA PUSH1 0x1F DUP10 AND DUP3 PUSH2 0x35BD JUMP JUMPDEST DUP4 SSTORE POP JUMPDEST PUSH1 0x1 PUSH1 0x2 DUP9 MUL ADD DUP9 SSTORE POP POP POP JUMPDEST POP POP POP POP POP POP JUMP JUMPDEST PUSH32 0x4E487B7100000000000000000000000000000000000000000000000000000000 PUSH0 MSTORE PUSH1 0x11 PUSH1 0x4 MSTORE PUSH1 0x24 PUSH0 REVERT JUMPDEST PUSH0 PUSH2 0x36FA DUP3 PUSH2 0x2E93 JUMP JUMPDEST SWAP2 POP PUSH32 0xFFFFFFFFFFFFFFFFFFFFFFFFFFFFFFFFFFFFFFFFFFFFFFFFFFFFFFFFFFFFFFFF DUP3 SUB PUSH2 0x372C JUMPI PUSH2 0x372B PUSH2 0x36C3 JUMP JUMPDEST JUMPDEST PUSH1 0x1 DUP3 ADD SWAP1 POP SWAP2 SWAP1 POP JUMP JUMPDEST PUSH0 DUP2 SWAP1 POP SWAP2 SWAP1 POP JUMP JUMPDEST PUSH0 PUSH2 0x375A PUSH2 0x3755 PUSH2 0x3750 DUP5 PUSH2 0x3737 JUMP JUMPDEST PUSH2 0x34D5 JUMP JUMPDEST PUSH2 0x2E93 JUMP JUMPDEST SWAP1 POP SWAP2 SWAP1 POP JUMP JUMPDEST PUSH2 0x376A DUP2 PUSH2 0x3740 JUMP JUMPDEST DUP3 MSTORE POP POP JUMP JUMPDEST PUSH0 DUP2 SWAP1 POP SWAP2 SWAP1 POP JUMP JUMPDEST PUSH0 PUSH2 0x3793 PUSH2 0x378E PUSH2 0x3789 DUP5 PUSH2 0x3770 JUMP JUMPDEST PUSH2 0x34D5 JUMP JUMPDEST PUSH2 0x2E5F JUMP JUMPDEST SWAP1 POP SWAP2 SWAP1 POP JUMP JUMPDEST PUSH2 0x37A3 DUP2 PUSH2 0x3779 JUMP JUMPDEST DUP3 MSTORE POP POP JUMP JUMPDEST PUSH0 PUSH1 0x80 DUP3 ADD SWAP1 POP PUSH2 0x37BC PUSH0 DUP4 ADD DUP8 PUSH2 0x3042 JUMP JUMPDEST PUSH2 0x37C9 PUSH1 0x20 DUP4 ADD DUP7 PUSH2 0x3761 JUMP JUMPDEST PUSH2 0x37D6 PUSH1 0x40 DUP4 ADD DUP6 PUSH2 0x3042 JUMP JUMPDEST PUSH2 0x37E3 PUSH1 0x60 DUP4 ADD DUP5 PUSH2 0x379A JUMP JUMPDEST SWAP6 SWAP5 POP POP POP POP POP JUMP JUMPDEST PUSH32 0x55706C696E6520646F6573206E6F742065786973740000000000000000000000 PUSH0 DUP3 ADD MSTORE POP JUMP JUMPDEST PUSH0 PUSH2 0x3820 PUSH1 0x15 DUP4 PUSH2 0x309F JUMP JUMPDEST SWAP2 POP PUSH2 0x382B DUP3 PUSH2 0x37EC JUMP JUMPDEST PUSH1 0x20 DUP3 ADD SWAP1 POP SWAP2 SWAP1 POP JUMP JUMPDEST PUSH0 PUSH1 0x20 DUP3 ADD SWAP1 POP DUP2 DUP2 SUB PUSH0 DUP4 ADD MSTORE PUSH2 0x384D DUP2 PUSH2 0x3814 JUMP JUMPDEST SWAP1 POP SWAP2 SWAP1 POP JUMP JUMPDEST PUSH0 PUSH1 0x80 DUP3 ADD SWAP1 POP PUSH2 0x3867 PUSH0 DUP4 ADD DUP8 PUSH2 0x3042 JUMP JUMPDEST PUSH2 0x3874 PUSH1 0x20 DUP4 ADD DUP7 PUSH2 0x3042 JUMP JUMPDEST PUSH2 0x3881 PUSH1 0x40 DUP4 ADD DUP6 PUSH2 0x3042 JUMP JUMPDEST PUSH2 0x388E PUSH1 0x60 DUP4 ADD DUP5 PUSH2 0x379A JUMP JUMPDEST SWAP6 SWAP5 POP POP POP POP POP JUMP JUMPDEST PUSH32 0x496E76616C6964206C6576656C00000000000000000000000000000000000000 PUSH0 DUP3 ADD MSTORE POP JUMP JUMPDEST PUSH0 PUSH2 0x38CB PUSH1 0xD DUP4 PUSH2 0x309F JUMP JUMPDEST SWAP2 POP PUSH2 0x38D6 DUP3 PUSH2 0x3897 JUMP JUMPDEST PUSH1 0x20 DUP3 ADD SWAP1 POP SWAP2 SWAP1 POP JUMP JUMPDEST PUSH0 PUSH1 0x20 DUP3 ADD SWAP1 POP DUP2 DUP2 SUB PUSH0 DUP4 ADD MSTORE PUSH2 0x38F8 DUP2 PUSH2 0x38BF JUMP JUMPDEST SWAP1 POP SWAP2 SWAP1 POP JUMP JUMPDEST PUSH32 0x43616E6E6F7420646F776E6772616465206F7220737461792061742074686520 PUSH0 DUP3 ADD MSTORE PUSH32 0x73616D65206C6576656C00000000000000000000000000000000000000000000 PUSH1 0x20 DUP3 ADD MSTORE POP JUMP JUMPDEST PUSH0 PUSH2 0x3959 PUSH1 0x2A DUP4 PUSH2 0x309F JUMP JUMPDEST SWAP2 POP PUSH2 0x3964 DUP3 PUSH2 0x38FF JUMP JUMPDEST PUSH1 0x40 DUP3 ADD SWAP1 POP SWAP2 SWAP1 POP JUMP JUMPDEST PUSH0 PUSH1 0x20 DUP3 ADD SWAP1 POP DUP2 DUP2 SUB PUSH0 DUP4 ADD MSTORE PUSH2 0x3986 DUP2 PUSH2 0x394D JUMP JUMPDEST SWAP1 POP SWAP2 SWAP1 POP JUMP JUMPDEST PUSH0 PUSH2 0x3997 DUP3 PUSH2 0x2E93 JUMP JUMPDEST SWAP2 POP PUSH2 0x39A2 DUP4 PUSH2 0x2E93 JUMP JUMPDEST SWAP3 POP DUP3 DUP3 MUL PUSH2 0x39B0 DUP2 PUSH2 0x2E93 JUMP JUMPDEST SWAP2 POP DUP3 DUP3 DIV DUP5 EQ DUP4 ISZERO OR PUSH2 0x39C7 JUMPI PUSH2 0x39C6 PUSH2 0x36C3 JUMP JUMPDEST JUMPDEST POP SWAP3 SWAP2 POP POP JUMP JUMPDEST PUSH32 0x4E487B7100000000000000000000000000000000000000000000000000000000 PUSH0 MSTORE PUSH1 0x12 PUSH1 0x4 MSTORE PUSH1 0x24 PUSH0 REVERT JUMPDEST PUSH0 PUSH2 0x3A05 DUP3 PUSH2 0x2E93 JUMP JUMPDEST SWAP2 POP PUSH2 0x3A10 DUP4 PUSH2 0x2E93 JUMP JUMPDEST SWAP3 POP DUP3 PUSH2 0x3A20 JUMPI PUSH2 0x3A1F PUSH2 0x39CE JUMP JUMPDEST JUMPDEST DUP3 DUP3 DIV SWAP1 POP SWAP3 SWAP2 POP POP JUMP JUMPDEST PUSH0 PUSH2 0x3A35 DUP3 PUSH2 0x2E93 JUMP JUMPDEST SWAP2 POP PUSH2 0x3A40 DUP4 PUSH2 0x2E93 JUMP JUMPDEST SWAP3 POP DUP3 DUP3 SUB SWAP1 POP DUP2 DUP2 GT ISZERO PUSH2 0x3A58 JUMPI PUSH2 0x3A57 PUSH2 0x36C3 JUMP JUMPDEST JUMPDEST SWAP3 SWAP2 POP POP JUMP JUMPDEST PUSH0 DUP2 SWAP1 POP SWAP3 SWAP2 POP POP JUMP JUMPDEST POP JUMP JUMPDEST PUSH0 PUSH2 0x3A76 PUSH0 DUP4 PUSH2 0x3A5E JUMP JUMPDEST SWAP2 POP PUSH2 0x3A81 DUP3 PUSH2 0x3A68 JUMP JUMPDEST PUSH0 DUP3 ADD SWAP1 POP SWAP2 SWAP1 POP JUMP JUMPDEST PUSH0 PUSH2 0x3A95 DUP3 PUSH2 0x3A6B JUMP JUMPDEST SWAP2 POP DUP2 SWAP1 POP SWAP2 SWAP1 POP JUMP JUMPDEST PUSH32 0x5472616E7366657220746F2075706C696E65206661696C656400000000000000 PUSH0 DUP3 ADD MSTORE POP JUMP JUMPDEST PUSH0 PUSH2 0x3AD3 PUSH1 0x19 DUP4 PUSH2 0x309F JUMP JUMPDEST SWAP2 POP PUSH2 0x3ADE DUP3 PUSH2 0x3A9F JUMP JUMPDEST PUSH1 0x20 DUP3 ADD SWAP1 POP SWAP2 SWAP1 POP JUMP JUMPDEST PUSH0 PUSH1 0x20 DUP3 ADD SWAP1 POP DUP2 DUP2 SUB PUSH0 DUP4 ADD MSTORE PUSH2 0x3B00 DUP2 PUSH2 0x3AC7 JUMP JUMPDEST SWAP1 POP SWAP2 SWAP1 POP JUMP JUMPDEST PUSH0 PUSH2 0x3B11 DUP3 PUSH2 0x2E93 JUMP JUMPDEST SWAP2 POP PUSH2 0x3B1C DUP4 PUSH2 0x2E93 JUMP JUMPDEST SWAP3 POP DUP3 DUP3 ADD SWAP1 POP DUP1 DUP3 GT ISZERO PUSH2 0x3B34 JUMPI PUSH2 0x3B33 PUSH2 0x36C3 JUMP JUMPDEST JUMPDEST SWAP3 SWAP2 POP POP JUMP JUMPDEST PUSH0 PUSH1 0x80 DUP3 ADD SWAP1 POP PUSH2 0x3B4D PUSH0 DUP4 ADD DUP8 PUSH2 0x2E6B JUMP JUMPDEST PUSH2 0x3B5A PUSH1 0x20 DUP4 ADD DUP7 PUSH2 0x3042 JUMP JUMPDEST PUSH2 0x3B67 PUSH1 0x40 DUP4 ADD DUP6 PUSH2 0x3042 JUMP JUMPDEST PUSH2 0x3B74 PUSH1 0x60 DUP4 ADD DUP5 PUSH2 0x3042 JUMP JUMPDEST SWAP6 SWAP5 POP POP POP POP POP JUMP JUMPDEST PUSH32 0x68747470733A2F2F6578616D706C652E636F6D2F726566657272616C2F000000 PUSH0 DUP3 ADD MSTORE POP JUMP JUMPDEST PUSH0 PUSH2 0x3BB1 PUSH1 0x1D DUP4 PUSH2 0x33AA JUMP JUMPDEST SWAP2 POP PUSH2 0x3BBC DUP3 PUSH2 0x3B7D JUMP JUMPDEST PUSH1 0x1D DUP3 ADD SWAP1 POP SWAP2 SWAP1 POP JUMP JUMPDEST PUSH0 PUSH2 0x3BD1 DUP3 PUSH2 0x3BA5 JUMP JUMPDEST SWAP2 POP PUSH2 0x3BDD DUP3 DUP5 PUSH2 0x33B4 JUMP JUMPDEST SWAP2 POP DUP2 SWAP1 POP SWAP3 SWAP2 POP POP JUMP JUMPDEST PUSH0 PUSH2 0x3BF2 DUP3 PUSH2 0x2E93 JUMP JUMPDEST SWAP2 POP PUSH2 0x3BFD DUP4 PUSH2 0x2E93 JUMP JUMPDEST SWAP3 POP DUP3 PUSH2 0x3C0D JUMPI PUSH2 0x3C0C PUSH2 0x39CE JUMP JUMPDEST JUMPDEST DUP3 DUP3 MOD SWAP1 POP SWAP3 SWAP2 POP POP JUMP JUMPDEST PUSH32 0x4E487B7100000000000000000000000000000000000000000000000000000000 PUSH0 MSTORE PUSH1 0x32 PUSH1 0x4 MSTORE PUSH1 0x24 PUSH0 REVERT INVALID LOG2 PUSH5 0x6970667358 0x22 SLT KECCAK256 0xB2 PUSH4 0xD72D815 PUSH0 0xA5 0x1F CALLVALUE SUB 0xE 0x2B 0xEA DUP12 0xB9 0xA9 SLOAD SWAP15 CALLER PUSH15 0xC0EC90C5479155A69C9E8E64736F6C PUSH4 0x4300081A STOP CALLER "
				},
				"gasEstimates": {
					"creation": {
						"codeDepositCost": "3096600",
						"executionCost": "infinite",
						"totalCost": "infinite"
					},
					"external": {
						"BASIC_PRICE()": "347",
						"LAST_LEVEL()": "377",
						"REGISTRATION_FEE()": "414",
						"buyLevel(uint8)": "infinite",
						"generateReferralLink(address)": "infinite",
						"getCurrentUplineLevel(address)": "5241",
						"getLevelPrice(uint8)": "2888",
						"getTotalReferralCount(address)": "2935",
						"getUserById(uint256)": "2963",
						"getUserInfo(address)": "infinite",
						"idToAddress(uint256)": "2895",
						"lastUserId()": "2448",
						"levelPrice(uint8)": "2870",
						"owner()": "2575",
						"payUpline(address)": "infinite",
						"registerUpline(address,string,string,string,string,string)": "infinite",
						"registerUser(address,string,string,string,string,string,address)": "infinite",
						"transactionHistory(address)": "infinite",
						"users(address)": "infinite"
					},
					"internal": {
						"_getTotalReferralCount(address)": "2240",
						"handleReferral(address,address)": "infinite",
						"rewardUser(address,uint256)": "infinite",
						"uintToString(uint256)": "infinite"
					}
				},
				"methodIdentifiers": {
					"BASIC_PRICE()": "9ac7e09e",
					"LAST_LEVEL()": "29c70400",
					"REGISTRATION_FEE()": "64b4f751",
					"buyLevel(uint8)": "8d17a4d0",
					"generateReferralLink(address)": "aed8a6a7",
					"getCurrentUplineLevel(address)": "90287318",
					"getLevelPrice(uint8)": "6f8e2516",
					"getTotalReferralCount(address)": "3ee3d186",
					"getUserById(uint256)": "6ed6da9e",
					"getUserInfo(address)": "6386c1c7",
					"idToAddress(uint256)": "2a2d0c47",
					"lastUserId()": "348d4487",
					"levelPrice(uint8)": "ecabdf79",
					"owner()": "8da5cb5b",
					"payUpline(address)": "90426274",
					"registerUpline(address,string,string,string,string,string)": "0bf424b4",
					"registerUser(address,string,string,string,string,string,address)": "3056deb8",
					"transactionHistory(address)": "de972b43",
					"users(address)": "a87430ba"
				}
			},
			"storageLayout": {
				"storage": [
					{
						"astId": 34,
						"contract": "checking.sol:checking",
						"label": "users",
						"offset": 0,
						"slot": "0",
						"type": "t_mapping(t_address,t_struct(User)29_storage)"
					},
					{
						"astId": 38,
						"contract": "checking.sol:checking",
						"label": "idToAddress",
						"offset": 0,
						"slot": "1",
						"type": "t_mapping(t_uint256,t_address)"
					},
					{
						"astId": 42,
						"contract": "checking.sol:checking",
						"label": "levelPrice",
						"offset": 0,
						"slot": "2",
						"type": "t_mapping(t_uint8,t_uint256)"
					},
					{
						"astId": 45,
						"contract": "checking.sol:checking",
						"label": "lastUserId",
						"offset": 0,
						"slot": "3",
						"type": "t_uint256"
					},
					{
						"astId": 56,
						"contract": "checking.sol:checking",
						"label": "owner",
						"offset": 0,
						"slot": "4",
						"type": "t_address"
					}
				],
				"types": {
					"t_address": {
						"encoding": "inplace",
						"label": "address",
						"numberOfBytes": "20"
					},
					"t_array(t_address)dyn_storage": {
						"base": "t_address",
						"encoding": "dynamic_array",
						"label": "address[]",
						"numberOfBytes": "32"
					},
					"t_bytes32": {
						"encoding": "inplace",
						"label": "bytes32",
						"numberOfBytes": "32"
					},
					"t_mapping(t_address,t_struct(User)29_storage)": {
						"encoding": "mapping",
						"key": "t_address",
						"label": "mapping(address => struct checking.User)",
						"numberOfBytes": "32",
						"value": "t_struct(User)29_storage"
					},
					"t_mapping(t_uint256,t_address)": {
						"encoding": "mapping",
						"key": "t_uint256",
						"label": "mapping(uint256 => address)",
						"numberOfBytes": "32",
						"value": "t_address"
					},
					"t_mapping(t_uint8,t_uint256)": {
						"encoding": "mapping",
						"key": "t_uint8",
						"label": "mapping(uint8 => uint256)",
						"numberOfBytes": "32",
						"value": "t_uint256"
					},
					"t_string_storage": {
						"encoding": "bytes",
						"label": "string",
						"numberOfBytes": "32"
					},
					"t_struct(User)29_storage": {
						"encoding": "inplace",
						"label": "struct checking.User",
						"members": [
							{
								"astId": 3,
								"contract": "checking.sol:checking",
								"label": "upline",
								"offset": 0,
								"slot": "0",
								"type": "t_address"
							},
							{
								"astId": 5,
								"contract": "checking.sol:checking",
								"label": "id",
								"offset": 0,
								"slot": "1",
								"type": "t_uint256"
							},
							{
								"astId": 7,
								"contract": "checking.sol:checking",
								"label": "referralCount",
								"offset": 0,
								"slot": "2",
								"type": "t_uint256"
							},
							{
								"astId": 9,
								"contract": "checking.sol:checking",
								"label": "cycleCount",
								"offset": 0,
								"slot": "3",
								"type": "t_uint256"
							},
							{
								"astId": 11,
								"contract": "checking.sol:checking",
								"label": "earnings",
								"offset": 0,
								"slot": "4",
								"type": "t_uint256"
							},
							{
								"astId": 13,
								"contract": "checking.sol:checking",
								"label": "partnerLevel",
								"offset": 0,
								"slot": "5",
								"type": "t_uint8"
							},
							{
								"astId": 16,
								"contract": "checking.sol:checking",
								"label": "referrals",
								"offset": 0,
								"slot": "6",
								"type": "t_array(t_address)dyn_storage"
							},
							{
								"astId": 18,
								"contract": "checking.sol:checking",
								"label": "firstName",
								"offset": 0,
								"slot": "7",
								"type": "t_string_storage"
							},
							{
								"astId": 20,
								"contract": "checking.sol:checking",
								"label": "lastName",
								"offset": 0,
								"slot": "8",
								"type": "t_string_storage"
							},
							{
								"astId": 22,
								"contract": "checking.sol:checking",
								"label": "profilePic",
								"offset": 0,
								"slot": "9",
								"type": "t_string_storage"
							},
							{
								"astId": 24,
								"contract": "checking.sol:checking",
								"label": "email",
								"offset": 0,
								"slot": "10",
								"type": "t_string_storage"
							},
							{
								"astId": 26,
								"contract": "checking.sol:checking",
								"label": "passwordHash",
								"offset": 0,
								"slot": "11",
								"type": "t_bytes32"
							},
							{
								"astId": 28,
								"contract": "checking.sol:checking",
								"label": "userAddress",
								"offset": 0,
								"slot": "12",
								"type": "t_address"
							}
						],
						"numberOfBytes": "416"
					},
					"t_uint256": {
						"encoding": "inplace",
						"label": "uint256",
						"numberOfBytes": "32"
					},
					"t_uint8": {
						"encoding": "inplace",
						"label": "uint8",
						"numberOfBytes": "1"
					}
				}
			},
			"userdoc": {
				"kind": "user",
				"methods": {},
				"version": 1
			}
		}
	}
}