{
	"Retails.sol": {
		"Retail": {
			"abi": [
				{
					"inputs": [],
					"stateMutability": "nonpayable",
					"type": "constructor"
				},
				{
					"inputs": [
						{
							"internalType": "string",
							"name": "name",
							"type": "string"
						},
						{
							"internalType": "uint256",
							"name": "price",
							"type": "uint256"
						},
						{
							"internalType": "uint256",
							"name": "stock",
							"type": "uint256"
						}
					],
					"name": "addprodcut",
					"outputs": [],
					"stateMutability": "nonpayable",
					"type": "function"
				},
				{
					"inputs": [],
					"name": "destroy",
					"outputs": [],
					"stateMutability": "nonpayable",
					"type": "function"
				},
				{
					"inputs": [
						{
							"internalType": "string",
							"name": "name",
							"type": "string"
						}
					],
					"name": "getproduct",
					"outputs": [
						{
							"internalType": "string",
							"name": "",
							"type": "string"
						},
						{
							"internalType": "uint256",
							"name": "",
							"type": "uint256"
						},
						{
							"internalType": "uint256",
							"name": "",
							"type": "uint256"
						}
					],
					"stateMutability": "view",
					"type": "function"
				},
				{
					"inputs": [
						{
							"internalType": "address payable",
							"name": "user",
							"type": "address"
						}
					],
					"name": "grantAccess",
					"outputs": [],
					"stateMutability": "nonpayable",
					"type": "function"
				},
				{
					"inputs": [
						{
							"internalType": "string",
							"name": "",
							"type": "string"
						}
					],
					"name": "products",
					"outputs": [
						{
							"internalType": "string",
							"name": "name",
							"type": "string"
						},
						{
							"internalType": "uint256",
							"name": "price",
							"type": "uint256"
						},
						{
							"internalType": "uint256",
							"name": "stock",
							"type": "uint256"
						}
					],
					"stateMutability": "view",
					"type": "function"
				},
				{
					"inputs": [
						{
							"internalType": "string",
							"name": "name",
							"type": "string"
						},
						{
							"internalType": "uint256",
							"name": "quantity",
							"type": "uint256"
						}
					],
					"name": "purchased",
					"outputs": [],
					"stateMutability": "payable",
					"type": "function"
				},
				{
					"inputs": [
						{
							"internalType": "address payable",
							"name": "user",
							"type": "address"
						}
					],
					"name": "revokeAccess",
					"outputs": [],
					"stateMutability": "nonpayable",
					"type": "function"
				},
				{
					"inputs": [
						{
							"internalType": "string",
							"name": "name",
							"type": "string"
						},
						{
							"internalType": "uint256",
							"name": "price",
							"type": "uint256"
						}
					],
					"name": "updateProductPrice",
					"outputs": [],
					"stateMutability": "nonpayable",
					"type": "function"
				},
				{
					"inputs": [
						{
							"internalType": "string",
							"name": "name",
							"type": "string"
						},
						{
							"internalType": "uint256",
							"name": "stock",
							"type": "uint256"
						}
					],
					"name": "updateProductstock",
					"outputs": [],
					"stateMutability": "nonpayable",
					"type": "function"
				}
			],
			"devdoc": {
				"kind": "dev",
				"methods": {},
				"version": 1
			},
			"evm": {
				"assembly": "    /* \"Retails.sol\":61:2137  contract Retail{... */\n  mstore(0x40, 0x80)\n    /* \"Retails.sol\":260:319  constructor(){... */\n  callvalue\n  dup1\n  iszero\n  tag_1\n  jumpi\n  0x00\n  dup1\n  revert\ntag_1:\n  pop\n    /* \"Retails.sol\":300:310  msg.sender */\n  caller\n    /* \"Retails.sol\":284:289  owner */\n  0x01\n  0x00\n    /* \"Retails.sol\":284:311  owner = payable(msg.sender) */\n  0x0100\n  exp\n  dup2\n  sload\n  dup2\n  0xffffffffffffffffffffffffffffffffffffffff\n  mul\n  not\n  and\n  swap1\n  dup4\n  0xffffffffffffffffffffffffffffffffffffffff\n  and\n  mul\n  or\n  swap1\n  sstore\n  pop\n    /* \"Retails.sol\":61:2137  contract Retail{... */\n  dataSize(sub_0)\n  dup1\n  dataOffset(sub_0)\n  0x00\n  codecopy\n  0x00\n  return\nstop\n\nsub_0: assembly {\n        /* \"Retails.sol\":61:2137  contract Retail{... */\n      mstore(0x40, 0x80)\n      jumpi(tag_1, lt(calldatasize, 0x04))\n      shr(0xe0, calldataload(0x00))\n      dup1\n      0x42763af1\n      gt\n      tag_11\n      jumpi\n      dup1\n      0x42763af1\n      eq\n      tag_6\n      jumpi\n      dup1\n      0x704402ae\n      eq\n      tag_7\n      jumpi\n      dup1\n      0x83197ef0\n      eq\n      tag_8\n      jumpi\n      dup1\n      0x85e68531\n      eq\n      tag_9\n      jumpi\n      dup1\n      0xdc319239\n      eq\n      tag_10\n      jumpi\n      jump(tag_1)\n    tag_11:\n      dup1\n      0x0186a423\n      eq\n      tag_2\n      jumpi\n      dup1\n      0x0ae5e739\n      eq\n      tag_3\n      jumpi\n      dup1\n      0x18e308be\n      eq\n      tag_4\n      jumpi\n      dup1\n      0x39575866\n      eq\n      tag_5\n      jumpi\n    tag_1:\n      0x00\n      dup1\n      revert\n        /* \"Retails.sol\":181:223  mapping(string => Product) public products */\n    tag_2:\n      callvalue\n      dup1\n      iszero\n      tag_12\n      jumpi\n      0x00\n      dup1\n      revert\n    tag_12:\n      pop\n      tag_13\n      0x04\n      dup1\n      calldatasize\n      sub\n      dup2\n      add\n      swap1\n      tag_14\n      swap2\n      swap1\n      tag_15\n      jump\t// in\n    tag_14:\n      tag_16\n      jump\t// in\n    tag_13:\n      mload(0x40)\n      tag_17\n      swap4\n      swap3\n      swap2\n      swap1\n      tag_18\n      jump\t// in\n    tag_17:\n      mload(0x40)\n      dup1\n      swap2\n      sub\n      swap1\n      return\n        /* \"Retails.sol\":1563:1718  function grantAccess(address payable user) public{... */\n    tag_3:\n      callvalue\n      dup1\n      iszero\n      tag_19\n      jumpi\n      0x00\n      dup1\n      revert\n    tag_19:\n      pop\n      tag_20\n      0x04\n      dup1\n      calldatasize\n      sub\n      dup2\n      add\n      swap1\n      tag_21\n      swap2\n      swap1\n      tag_22\n      jump\t// in\n    tag_21:\n      tag_23\n      jump\t// in\n    tag_20:\n      stop\n        /* \"Retails.sol\":547:810  function updateProductPrice(string memory name, uint256 price) public {... */\n    tag_4:\n      callvalue\n      dup1\n      iszero\n      tag_24\n      jumpi\n      0x00\n      dup1\n      revert\n    tag_24:\n      pop\n      tag_25\n      0x04\n      dup1\n      calldatasize\n      sub\n      dup2\n      add\n      swap1\n      tag_26\n      swap2\n      swap1\n      tag_27\n      jump\t// in\n    tag_26:\n      tag_28\n      jump\t// in\n    tag_25:\n      stop\n        /* \"Retails.sol\":1371:1555  function getproduct(string memory name) public view returns(string memory, uint256, uint256){... */\n    tag_5:\n      callvalue\n      dup1\n      iszero\n      tag_29\n      jumpi\n      0x00\n      dup1\n      revert\n    tag_29:\n      pop\n      tag_30\n      0x04\n      dup1\n      calldatasize\n      sub\n      dup2\n      add\n      swap1\n      tag_31\n      swap2\n      swap1\n      tag_15\n      jump\t// in\n    tag_31:\n      tag_32\n      jump\t// in\n    tag_30:\n      mload(0x40)\n      tag_33\n      swap4\n      swap3\n      swap2\n      swap1\n      tag_18\n      jump\t// in\n    tag_33:\n      mload(0x40)\n      dup1\n      swap2\n      sub\n      swap1\n      return\n        /* \"Retails.sol\":818:1074  function updateProductstock(string memory name, uint256 stock) public {... */\n    tag_6:\n      callvalue\n      dup1\n      iszero\n      tag_34\n      jumpi\n      0x00\n      dup1\n      revert\n    tag_34:\n      pop\n      tag_35\n      0x04\n      dup1\n      calldatasize\n      sub\n      dup2\n      add\n      swap1\n      tag_36\n      swap2\n      swap1\n      tag_27\n      jump\t// in\n    tag_36:\n      tag_37\n      jump\t// in\n    tag_35:\n      stop\n        /* \"Retails.sol\":1082:1363  function purchased(string memory name, uint256 quantity) public payable {... */\n    tag_7:\n      tag_38\n      0x04\n      dup1\n      calldatasize\n      sub\n      dup2\n      add\n      swap1\n      tag_39\n      swap2\n      swap1\n      tag_27\n      jump\t// in\n    tag_39:\n      tag_40\n      jump\t// in\n    tag_38:\n      stop\n        /* \"Retails.sol\":1988:2134  function destroy() public{... */\n    tag_8:\n      callvalue\n      dup1\n      iszero\n      tag_41\n      jumpi\n      0x00\n      dup1\n      revert\n    tag_41:\n      pop\n      tag_42\n      tag_43\n      jump\t// in\n    tag_42:\n      stop\n        /* \"Retails.sol\":1726:1980  function revokeAccess(address payable user) public{... */\n    tag_9:\n      callvalue\n      dup1\n      iszero\n      tag_44\n      jumpi\n      0x00\n      dup1\n      revert\n    tag_44:\n      pop\n      tag_45\n      0x04\n      dup1\n      calldatasize\n      sub\n      dup2\n      add\n      swap1\n      tag_46\n      swap2\n      swap1\n      tag_22\n      jump\t// in\n    tag_46:\n      tag_47\n      jump\t// in\n    tag_45:\n      stop\n        /* \"Retails.sol\":327:539  function addprodcut(string memory name, uint256 price, uint256 stock) public {... */\n    tag_10:\n      callvalue\n      dup1\n      iszero\n      tag_48\n      jumpi\n      0x00\n      dup1\n      revert\n    tag_48:\n      pop\n      tag_49\n      0x04\n      dup1\n      calldatasize\n      sub\n      dup2\n      add\n      swap1\n      tag_50\n      swap2\n      swap1\n      tag_51\n      jump\t// in\n    tag_50:\n      tag_52\n      jump\t// in\n    tag_49:\n      stop\n        /* \"Retails.sol\":181:223  mapping(string => Product) public products */\n    tag_16:\n      0x00\n      dup2\n      dup1\n      mload\n      0x20\n      dup2\n      add\n      dup3\n      add\n      dup1\n      mload\n      dup5\n      dup3\n      mstore\n      0x20\n      dup4\n      add\n      0x20\n      dup6\n      add\n      keccak256\n      dup2\n      dup4\n      mstore\n      dup1\n      swap6\n      pop\n      pop\n      pop\n      pop\n      pop\n      pop\n      0x00\n      swap2\n      pop\n      swap1\n      pop\n      dup1\n      0x00\n      add\n      dup1\n      sload\n      tag_53\n      swap1\n      tag_54\n      jump\t// in\n    tag_53:\n      dup1\n      0x1f\n      add\n      0x20\n      dup1\n      swap2\n      div\n      mul\n      0x20\n      add\n      mload(0x40)\n      swap1\n      dup2\n      add\n      0x40\n      mstore\n      dup1\n      swap3\n      swap2\n      swap1\n      dup2\n      dup2\n      mstore\n      0x20\n      add\n      dup3\n      dup1\n      sload\n      tag_55\n      swap1\n      tag_54\n      jump\t// in\n    tag_55:\n      dup1\n      iszero\n      tag_56\n      jumpi\n      dup1\n      0x1f\n      lt\n      tag_57\n      jumpi\n      0x0100\n      dup1\n      dup4\n      sload\n      div\n      mul\n      dup4\n      mstore\n      swap2\n      0x20\n      add\n      swap2\n      jump(tag_56)\n    tag_57:\n      dup3\n      add\n      swap2\n      swap1\n      0x00\n      mstore\n      keccak256(0x00, 0x20)\n      swap1\n    tag_58:\n      dup2\n      sload\n      dup2\n      mstore\n      swap1\n      0x01\n      add\n      swap1\n      0x20\n      add\n      dup1\n      dup4\n      gt\n      tag_58\n      jumpi\n      dup3\n      swap1\n      sub\n      0x1f\n      and\n      dup3\n      add\n      swap2\n    tag_56:\n      pop\n      pop\n      pop\n      pop\n      pop\n      swap1\n      dup1\n      0x01\n      add\n      sload\n      swap1\n      dup1\n      0x02\n      add\n      sload\n      swap1\n      pop\n      dup4\n      jump\t// out\n        /* \"Retails.sol\":1563:1718  function grantAccess(address payable user) public{... */\n    tag_23:\n        /* \"Retails.sol\":1647:1652  owner */\n      0x01\n      0x00\n      swap1\n      sload\n      swap1\n      0x0100\n      exp\n      swap1\n      div\n      0xffffffffffffffffffffffffffffffffffffffff\n      and\n        /* \"Retails.sol\":1633:1652  msg.sender == owner */\n      0xffffffffffffffffffffffffffffffffffffffff\n      and\n        /* \"Retails.sol\":1633:1643  msg.sender */\n      caller\n        /* \"Retails.sol\":1633:1652  msg.sender == owner */\n      0xffffffffffffffffffffffffffffffffffffffff\n      and\n      eq\n        /* \"Retails.sol\":1625:1685  require(msg.sender == owner, \"Only Onwer can grant access.\") */\n      tag_60\n      jumpi\n      mload(0x40)\n      0x08c379a000000000000000000000000000000000000000000000000000000000\n      dup2\n      mstore\n      0x04\n      add\n      tag_61\n      swap1\n      tag_62\n      jump\t// in\n    tag_61:\n      mload(0x40)\n      dup1\n      swap2\n      sub\n      swap1\n      revert\n    tag_60:\n        /* \"Retails.sol\":1706:1710  user */\n      dup1\n        /* \"Retails.sol\":1698:1703  owner */\n      0x01\n      0x00\n        /* \"Retails.sol\":1698:1710  owner = user */\n      0x0100\n      exp\n      dup2\n      sload\n      dup2\n      0xffffffffffffffffffffffffffffffffffffffff\n      mul\n      not\n      and\n      swap1\n      dup4\n      0xffffffffffffffffffffffffffffffffffffffff\n      and\n      mul\n      or\n      swap1\n      sstore\n      pop\n        /* \"Retails.sol\":1563:1718  function grantAccess(address payable user) public{... */\n      pop\n      jump\t// out\n        /* \"Retails.sol\":547:810  function updateProductPrice(string memory name, uint256 price) public {... */\n    tag_28:\n        /* \"Retails.sol\":645:655  msg.sender */\n      caller\n        /* \"Retails.sol\":636:655  owner == msg.sender */\n      0xffffffffffffffffffffffffffffffffffffffff\n      and\n        /* \"Retails.sol\":636:641  owner */\n      0x01\n      0x00\n      swap1\n      sload\n      swap1\n      0x0100\n      exp\n      swap1\n      div\n      0xffffffffffffffffffffffffffffffffffffffff\n      and\n        /* \"Retails.sol\":636:655  owner == msg.sender */\n      0xffffffffffffffffffffffffffffffffffffffff\n      and\n      eq\n        /* \"Retails.sol\":628:694  require(owner == msg.sender,\"only onwer can update the products.\") */\n      tag_64\n      jumpi\n      mload(0x40)\n      0x08c379a000000000000000000000000000000000000000000000000000000000\n      dup2\n      mstore\n      0x04\n      add\n      tag_65\n      swap1\n      tag_66\n      jump\t// in\n    tag_65:\n      mload(0x40)\n      dup1\n      swap2\n      sub\n      swap1\n      revert\n    tag_64:\n        /* \"Retails.sol\":736:737  0 */\n      0x00\n        /* \"Retails.sol\":713:721  products */\n      dup1\n        /* \"Retails.sol\":722:726  name */\n      dup4\n        /* \"Retails.sol\":713:727  products[name] */\n      mload(0x40)\n      tag_67\n      swap2\n      swap1\n      tag_68\n      jump\t// in\n    tag_67:\n      swap1\n      dup2\n      mstore\n      0x20\n      add\n      mload(0x40)\n      dup1\n      swap2\n      sub\n      swap1\n      keccak256\n        /* \"Retails.sol\":713:733  products[name].price */\n      0x01\n      add\n      sload\n        /* \"Retails.sol\":713:737  products[name].price > 0 */\n      gt\n        /* \"Retails.sol\":705:763  require(products[name].price > 0, \"Product does't exist.\") */\n      tag_69\n      jumpi\n      mload(0x40)\n      0x08c379a000000000000000000000000000000000000000000000000000000000\n      dup2\n      mstore\n      0x04\n      add\n      tag_70\n      swap1\n      tag_71\n      jump\t// in\n    tag_70:\n      mload(0x40)\n      dup1\n      swap2\n      sub\n      swap1\n      revert\n    tag_69:\n        /* \"Retails.sol\":797:802  price */\n      dup1\n        /* \"Retails.sol\":774:782  products */\n      0x00\n        /* \"Retails.sol\":783:787  name */\n      dup4\n        /* \"Retails.sol\":774:788  products[name] */\n      mload(0x40)\n      tag_72\n      swap2\n      swap1\n      tag_68\n      jump\t// in\n    tag_72:\n      swap1\n      dup2\n      mstore\n      0x20\n      add\n      mload(0x40)\n      dup1\n      swap2\n      sub\n      swap1\n      keccak256\n        /* \"Retails.sol\":774:794  products[name].price */\n      0x01\n      add\n        /* \"Retails.sol\":774:802  products[name].price = price */\n      dup2\n      swap1\n      sstore\n      pop\n        /* \"Retails.sol\":547:810  function updateProductPrice(string memory name, uint256 price) public {... */\n      pop\n      pop\n      jump\t// out\n        /* \"Retails.sol\":1371:1555  function getproduct(string memory name) public view returns(string memory, uint256, uint256){... */\n    tag_32:\n        /* \"Retails.sol\":1431:1444  string memory */\n      0x60\n        /* \"Retails.sol\":1446:1453  uint256 */\n      0x00\n        /* \"Retails.sol\":1455:1462  uint256 */\n      dup1\n        /* \"Retails.sol\":1482:1490  products */\n      0x00\n        /* \"Retails.sol\":1491:1495  name */\n      dup5\n        /* \"Retails.sol\":1482:1496  products[name] */\n      mload(0x40)\n      tag_74\n      swap2\n      swap1\n      tag_68\n      jump\t// in\n    tag_74:\n      swap1\n      dup2\n      mstore\n      0x20\n      add\n      mload(0x40)\n      dup1\n      swap2\n      sub\n      swap1\n      keccak256\n        /* \"Retails.sol\":1482:1501  products[name].name */\n      0x00\n      add\n        /* \"Retails.sol\":1503:1511  products */\n      0x00\n        /* \"Retails.sol\":1512:1516  name */\n      dup6\n        /* \"Retails.sol\":1503:1517  products[name] */\n      mload(0x40)\n      tag_75\n      swap2\n      swap1\n      tag_68\n      jump\t// in\n    tag_75:\n      swap1\n      dup2\n      mstore\n      0x20\n      add\n      mload(0x40)\n      dup1\n      swap2\n      sub\n      swap1\n      keccak256\n        /* \"Retails.sol\":1503:1523  products[name].price */\n      0x01\n      add\n      sload\n        /* \"Retails.sol\":1525:1533  products */\n      0x00\n        /* \"Retails.sol\":1534:1538  name */\n      dup7\n        /* \"Retails.sol\":1525:1539  products[name] */\n      mload(0x40)\n      tag_76\n      swap2\n      swap1\n      tag_68\n      jump\t// in\n    tag_76:\n      swap1\n      dup2\n      mstore\n      0x20\n      add\n      mload(0x40)\n      dup1\n      swap2\n      sub\n      swap1\n      keccak256\n        /* \"Retails.sol\":1525:1545  products[name].stock */\n      0x02\n      add\n      sload\n        /* \"Retails.sol\":1474:1546  return (products[name].name, products[name].price, products[name].stock) */\n      dup3\n      dup1\n      sload\n      tag_77\n      swap1\n      tag_54\n      jump\t// in\n    tag_77:\n      dup1\n      0x1f\n      add\n      0x20\n      dup1\n      swap2\n      div\n      mul\n      0x20\n      add\n      mload(0x40)\n      swap1\n      dup2\n      add\n      0x40\n      mstore\n      dup1\n      swap3\n      swap2\n      swap1\n      dup2\n      dup2\n      mstore\n      0x20\n      add\n      dup3\n      dup1\n      sload\n      tag_78\n      swap1\n      tag_54\n      jump\t// in\n    tag_78:\n      dup1\n      iszero\n      tag_79\n      jumpi\n      dup1\n      0x1f\n      lt\n      tag_80\n      jumpi\n      0x0100\n      dup1\n      dup4\n      sload\n      div\n      mul\n      dup4\n      mstore\n      swap2\n      0x20\n      add\n      swap2\n      jump(tag_79)\n    tag_80:\n      dup3\n      add\n      swap2\n      swap1\n      0x00\n      mstore\n      keccak256(0x00, 0x20)\n      swap1\n    tag_81:\n      dup2\n      sload\n      dup2\n      mstore\n      swap1\n      0x01\n      add\n      swap1\n      0x20\n      add\n      dup1\n      dup4\n      gt\n      tag_81\n      jumpi\n      dup3\n      swap1\n      sub\n      0x1f\n      and\n      dup3\n      add\n      swap2\n    tag_79:\n      pop\n      pop\n      pop\n      pop\n      pop\n      swap3\n      pop\n      swap3\n      pop\n      swap3\n      pop\n      swap3\n      pop\n        /* \"Retails.sol\":1371:1555  function getproduct(string memory name) public view returns(string memory, uint256, uint256){... */\n      swap2\n      swap4\n      swap1\n      swap3\n      pop\n      jump\t// out\n        /* \"Retails.sol\":818:1074  function updateProductstock(string memory name, uint256 stock) public {... */\n    tag_37:\n        /* \"Retails.sol\":921:926  owner */\n      0x01\n      0x00\n      swap1\n      sload\n      swap1\n      0x0100\n      exp\n      swap1\n      div\n      0xffffffffffffffffffffffffffffffffffffffff\n      and\n        /* \"Retails.sol\":907:926  msg.sender == owner */\n      0xffffffffffffffffffffffffffffffffffffffff\n      and\n        /* \"Retails.sol\":907:917  msg.sender */\n      caller\n        /* \"Retails.sol\":907:926  msg.sender == owner */\n      0xffffffffffffffffffffffffffffffffffffffff\n      and\n      eq\n        /* \"Retails.sol\":899:959  require(msg.sender == owner, \"Only Onwer can update stock.\") */\n      tag_83\n      jumpi\n      mload(0x40)\n      0x08c379a000000000000000000000000000000000000000000000000000000000\n      dup2\n      mstore\n      0x04\n      add\n      tag_84\n      swap1\n      tag_85\n      jump\t// in\n    tag_84:\n      mload(0x40)\n      dup1\n      swap2\n      sub\n      swap1\n      revert\n    tag_83:\n        /* \"Retails.sol\":1001:1002  0 */\n      0x00\n        /* \"Retails.sol\":978:986  products */\n      dup1\n        /* \"Retails.sol\":987:991  name */\n      dup4\n        /* \"Retails.sol\":978:992  products[name] */\n      mload(0x40)\n      tag_86\n      swap2\n      swap1\n      tag_68\n      jump\t// in\n    tag_86:\n      swap1\n      dup2\n      mstore\n      0x20\n      add\n      mload(0x40)\n      dup1\n      swap2\n      sub\n      swap1\n      keccak256\n        /* \"Retails.sol\":978:998  products[name].stock */\n      0x02\n      add\n      sload\n        /* \"Retails.sol\":978:1002  products[name].stock > 0 */\n      gt\n        /* \"Retails.sol\":970:1027  require(products[name].stock > 0,\"Product does't exist.\") */\n      tag_87\n      jumpi\n      mload(0x40)\n      0x08c379a000000000000000000000000000000000000000000000000000000000\n      dup2\n      mstore\n      0x04\n      add\n      tag_88\n      swap1\n      tag_71\n      jump\t// in\n    tag_88:\n      mload(0x40)\n      dup1\n      swap2\n      sub\n      swap1\n      revert\n    tag_87:\n        /* \"Retails.sol\":1061:1066  stock */\n      dup1\n        /* \"Retails.sol\":1038:1046  products */\n      0x00\n        /* \"Retails.sol\":1047:1051  name */\n      dup4\n        /* \"Retails.sol\":1038:1052  products[name] */\n      mload(0x40)\n      tag_89\n      swap2\n      swap1\n      tag_68\n      jump\t// in\n    tag_89:\n      swap1\n      dup2\n      mstore\n      0x20\n      add\n      mload(0x40)\n      dup1\n      swap2\n      sub\n      swap1\n      keccak256\n        /* \"Retails.sol\":1038:1058  products[name].stock */\n      0x02\n      add\n        /* \"Retails.sol\":1038:1066  products[name].stock = stock */\n      dup2\n      swap1\n      sstore\n      pop\n        /* \"Retails.sol\":818:1074  function updateProductstock(string memory name, uint256 stock) public {... */\n      pop\n      pop\n      jump\t// out\n        /* \"Retails.sol\":1082:1363  function purchased(string memory name, uint256 quantity) public payable {... */\n    tag_40:\n        /* \"Retails.sol\":1207:1215  quantity */\n      dup1\n        /* \"Retails.sol\":1186:1194  products */\n      0x00\n        /* \"Retails.sol\":1195:1199  name */\n      dup4\n        /* \"Retails.sol\":1186:1200  products[name] */\n      mload(0x40)\n      tag_91\n      swap2\n      swap1\n      tag_68\n      jump\t// in\n    tag_91:\n      swap1\n      dup2\n      mstore\n      0x20\n      add\n      mload(0x40)\n      dup1\n      swap2\n      sub\n      swap1\n      keccak256\n        /* \"Retails.sol\":1186:1206  products[name].price */\n      0x01\n      add\n      sload\n        /* \"Retails.sol\":1186:1215  products[name].price*quantity */\n      tag_92\n      swap2\n      swap1\n      tag_93\n      jump\t// in\n    tag_92:\n        /* \"Retails.sol\":1173:1182  msg.value */\n      callvalue\n        /* \"Retails.sol\":1173:1215  msg.value == products[name].price*quantity */\n      eq\n        /* \"Retails.sol\":1165:1237  require(msg.value == products[name].price*quantity, \"Incorrect payment\") */\n      tag_94\n      jumpi\n      mload(0x40)\n      0x08c379a000000000000000000000000000000000000000000000000000000000\n      dup2\n      mstore\n      0x04\n      add\n      tag_95\n      swap1\n      tag_96\n      jump\t// in\n    tag_95:\n      mload(0x40)\n      dup1\n      swap2\n      sub\n      swap1\n      revert\n    tag_94:\n        /* \"Retails.sol\":1268:1276  products */\n      0x00\n        /* \"Retails.sol\":1277:1281  name */\n      dup3\n        /* \"Retails.sol\":1268:1282  products[name] */\n      mload(0x40)\n      tag_97\n      swap2\n      swap1\n      tag_68\n      jump\t// in\n    tag_97:\n      swap1\n      dup2\n      mstore\n      0x20\n      add\n      mload(0x40)\n      dup1\n      swap2\n      sub\n      swap1\n      keccak256\n        /* \"Retails.sol\":1268:1288  products[name].stock */\n      0x02\n      add\n      sload\n        /* \"Retails.sol\":1256:1264  quantity */\n      dup2\n        /* \"Retails.sol\":1256:1288  quantity <= products[name].stock */\n      gt\n      iszero\n        /* \"Retails.sol\":1248:1311  require(quantity <= products[name].stock, \"Not enought Stock.\") */\n      tag_98\n      jumpi\n      mload(0x40)\n      0x08c379a000000000000000000000000000000000000000000000000000000000\n      dup2\n      mstore\n      0x04\n      add\n      tag_99\n      swap1\n      tag_100\n      jump\t// in\n    tag_99:\n      mload(0x40)\n      dup1\n      swap2\n      sub\n      swap1\n      revert\n    tag_98:\n        /* \"Retails.sol\":1346:1354  quantity */\n      dup1\n        /* \"Retails.sol\":1322:1330  products */\n      0x00\n        /* \"Retails.sol\":1331:1335  name */\n      dup4\n        /* \"Retails.sol\":1322:1336  products[name] */\n      mload(0x40)\n      tag_101\n      swap2\n      swap1\n      tag_68\n      jump\t// in\n    tag_101:\n      swap1\n      dup2\n      mstore\n      0x20\n      add\n      mload(0x40)\n      dup1\n      swap2\n      sub\n      swap1\n      keccak256\n        /* \"Retails.sol\":1322:1342  products[name].stock */\n      0x02\n      add\n      0x00\n        /* \"Retails.sol\":1322:1354  products[name].stock -= quantity */\n      dup3\n      dup3\n      sload\n      tag_102\n      swap2\n      swap1\n      tag_103\n      jump\t// in\n    tag_102:\n      swap3\n      pop\n      pop\n      dup2\n      swap1\n      sstore\n      pop\n        /* \"Retails.sol\":1082:1363  function purchased(string memory name, uint256 quantity) public payable {... */\n      pop\n      pop\n      jump\t// out\n        /* \"Retails.sol\":1988:2134  function destroy() public{... */\n    tag_43:\n        /* \"Retails.sol\":2046:2051  owner */\n      0x01\n      0x00\n      swap1\n      sload\n      swap1\n      0x0100\n      exp\n      swap1\n      div\n      0xffffffffffffffffffffffffffffffffffffffff\n      and\n        /* \"Retails.sol\":2032:2051  msg.sender == owner */\n      0xffffffffffffffffffffffffffffffffffffffff\n      and\n        /* \"Retails.sol\":2032:2042  msg.sender */\n      caller\n        /* \"Retails.sol\":2032:2051  msg.sender == owner */\n      0xffffffffffffffffffffffffffffffffffffffff\n      and\n      eq\n        /* \"Retails.sol\":2024:2096  require(msg.sender == owner, \"only the onwer can destroy the contract.\") */\n      tag_105\n      jumpi\n      mload(0x40)\n      0x08c379a000000000000000000000000000000000000000000000000000000000\n      dup2\n      mstore\n      0x04\n      add\n      tag_106\n      swap1\n      tag_107\n      jump\t// in\n    tag_106:\n      mload(0x40)\n      dup1\n      swap2\n      sub\n      swap1\n      revert\n    tag_105:\n        /* \"Retails.sol\":2120:2125  owner */\n      0x01\n      0x00\n      swap1\n      sload\n      swap1\n      0x0100\n      exp\n      swap1\n      div\n      0xffffffffffffffffffffffffffffffffffffffff\n      and\n        /* \"Retails.sol\":2107:2126  selfdestruct(owner) */\n      0xffffffffffffffffffffffffffffffffffffffff\n      and\n      selfdestruct\n        /* \"Retails.sol\":1726:1980  function revokeAccess(address payable user) public{... */\n    tag_47:\n        /* \"Retails.sol\":1811:1816  owner */\n      0x01\n      0x00\n      swap1\n      sload\n      swap1\n      0x0100\n      exp\n      swap1\n      div\n      0xffffffffffffffffffffffffffffffffffffffff\n      and\n        /* \"Retails.sol\":1797:1816  msg.sender == owner */\n      0xffffffffffffffffffffffffffffffffffffffff\n      and\n        /* \"Retails.sol\":1797:1807  msg.sender */\n      caller\n        /* \"Retails.sol\":1797:1816  msg.sender == owner */\n      0xffffffffffffffffffffffffffffffffffffffff\n      and\n      eq\n        /* \"Retails.sol\":1789:1850  require(msg.sender == owner, \"Only Onwer can revoke access.\") */\n      tag_109\n      jumpi\n      mload(0x40)\n      0x08c379a000000000000000000000000000000000000000000000000000000000\n      dup2\n      mstore\n      0x04\n      add\n      tag_110\n      swap1\n      tag_111\n      jump\t// in\n    tag_110:\n      mload(0x40)\n      dup1\n      swap2\n      sub\n      swap1\n      revert\n    tag_109:\n        /* \"Retails.sol\":1879:1884  owner */\n      0x01\n      0x00\n      swap1\n      sload\n      swap1\n      0x0100\n      exp\n      swap1\n      div\n      0xffffffffffffffffffffffffffffffffffffffff\n      and\n        /* \"Retails.sol\":1871:1884  user != owner */\n      0xffffffffffffffffffffffffffffffffffffffff\n      and\n        /* \"Retails.sol\":1871:1875  user */\n      dup2\n        /* \"Retails.sol\":1871:1884  user != owner */\n      0xffffffffffffffffffffffffffffffffffffffff\n      and\n      sub\n        /* \"Retails.sol\":1863:1932  require(user != owner, \"Cannot revoke access for the current owner.\") */\n      tag_112\n      jumpi\n      mload(0x40)\n      0x08c379a000000000000000000000000000000000000000000000000000000000\n      dup2\n      mstore\n      0x04\n      add\n      tag_113\n      swap1\n      tag_114\n      jump\t// in\n    tag_113:\n      mload(0x40)\n      dup1\n      swap2\n      sub\n      swap1\n      revert\n    tag_112:\n        /* \"Retails.sol\":1961:1971  msg.sender */\n      caller\n        /* \"Retails.sol\":1945:1950  owner */\n      0x01\n      0x00\n        /* \"Retails.sol\":1945:1972  owner = payable(msg.sender) */\n      0x0100\n      exp\n      dup2\n      sload\n      dup2\n      0xffffffffffffffffffffffffffffffffffffffff\n      mul\n      not\n      and\n      swap1\n      dup4\n      0xffffffffffffffffffffffffffffffffffffffff\n      and\n      mul\n      or\n      swap1\n      sstore\n      pop\n        /* \"Retails.sol\":1726:1980  function revokeAccess(address payable user) public{... */\n      pop\n      jump\t// out\n        /* \"Retails.sol\":327:539  function addprodcut(string memory name, uint256 price, uint256 stock) public {... */\n    tag_52:\n        /* \"Retails.sol\":437:442  owner */\n      0x01\n      0x00\n      swap1\n      sload\n      swap1\n      0x0100\n      exp\n      swap1\n      div\n      0xffffffffffffffffffffffffffffffffffffffff\n      and\n        /* \"Retails.sol\":423:442  msg.sender == owner */\n      0xffffffffffffffffffffffffffffffffffffffff\n      and\n        /* \"Retails.sol\":423:433  msg.sender */\n      caller\n        /* \"Retails.sol\":423:442  msg.sender == owner */\n      0xffffffffffffffffffffffffffffffffffffffff\n      and\n      eq\n        /* \"Retails.sol\":415:474  require(msg.sender == owner,\"Only owner can add products.\") */\n      tag_116\n      jumpi\n      mload(0x40)\n      0x08c379a000000000000000000000000000000000000000000000000000000000\n      dup2\n      mstore\n      0x04\n      add\n      tag_117\n      swap1\n      tag_118\n      jump\t// in\n    tag_117:\n      mload(0x40)\n      dup1\n      swap2\n      sub\n      swap1\n      revert\n    tag_116:\n        /* \"Retails.sol\":504:529  Product(name,price,stock) */\n      mload(0x40)\n      dup1\n      0x60\n      add\n      0x40\n      mstore\n      dup1\n        /* \"Retails.sol\":512:516  name */\n      dup5\n        /* \"Retails.sol\":504:529  Product(name,price,stock) */\n      dup2\n      mstore\n      0x20\n      add\n        /* \"Retails.sol\":517:522  price */\n      dup4\n        /* \"Retails.sol\":504:529  Product(name,price,stock) */\n      dup2\n      mstore\n      0x20\n      add\n        /* \"Retails.sol\":523:528  stock */\n      dup3\n        /* \"Retails.sol\":504:529  Product(name,price,stock) */\n      dup2\n      mstore\n      pop\n        /* \"Retails.sol\":487:495  products */\n      0x00\n        /* \"Retails.sol\":496:500  name */\n      dup5\n        /* \"Retails.sol\":487:501  products[name] */\n      mload(0x40)\n      tag_119\n      swap2\n      swap1\n      tag_68\n      jump\t// in\n    tag_119:\n      swap1\n      dup2\n      mstore\n      0x20\n      add\n      mload(0x40)\n      dup1\n      swap2\n      sub\n      swap1\n      keccak256\n        /* \"Retails.sol\":487:529  products[name] = Product(name,price,stock) */\n      0x00\n      dup3\n      add\n      mload\n      dup2\n      0x00\n      add\n      swap1\n      dup2\n      tag_120\n      swap2\n      swap1\n      tag_121\n      jump\t// in\n    tag_120:\n      pop\n      0x20\n      dup3\n      add\n      mload\n      dup2\n      0x01\n      add\n      sstore\n      0x40\n      dup3\n      add\n      mload\n      dup2\n      0x02\n      add\n      sstore\n      swap1\n      pop\n      pop\n        /* \"Retails.sol\":327:539  function addprodcut(string memory name, uint256 price, uint256 stock) public {... */\n      pop\n      pop\n      pop\n      jump\t// out\n        /* \"#utility.yul\":7:82   */\n    tag_122:\n        /* \"#utility.yul\":40:46   */\n      0x00\n        /* \"#utility.yul\":73:75   */\n      0x40\n        /* \"#utility.yul\":67:76   */\n      mload\n        /* \"#utility.yul\":57:76   */\n      swap1\n      pop\n        /* \"#utility.yul\":7:82   */\n      swap1\n      jump\t// out\n        /* \"#utility.yul\":88:205   */\n    tag_123:\n        /* \"#utility.yul\":197:198   */\n      0x00\n        /* \"#utility.yul\":194:195   */\n      dup1\n        /* \"#utility.yul\":187:199   */\n      revert\n        /* \"#utility.yul\":211:328   */\n    tag_124:\n        /* \"#utility.yul\":320:321   */\n      0x00\n        /* \"#utility.yul\":317:318   */\n      dup1\n        /* \"#utility.yul\":310:322   */\n      revert\n        /* \"#utility.yul\":334:451   */\n    tag_125:\n        /* \"#utility.yul\":443:444   */\n      0x00\n        /* \"#utility.yul\":440:441   */\n      dup1\n        /* \"#utility.yul\":433:445   */\n      revert\n        /* \"#utility.yul\":457:574   */\n    tag_126:\n        /* \"#utility.yul\":566:567   */\n      0x00\n        /* \"#utility.yul\":563:564   */\n      dup1\n        /* \"#utility.yul\":556:568   */\n      revert\n        /* \"#utility.yul\":580:682   */\n    tag_127:\n        /* \"#utility.yul\":621:627   */\n      0x00\n        /* \"#utility.yul\":672:674   */\n      0x1f\n        /* \"#utility.yul\":668:675   */\n      not\n        /* \"#utility.yul\":663:665   */\n      0x1f\n        /* \"#utility.yul\":656:661   */\n      dup4\n        /* \"#utility.yul\":652:666   */\n      add\n        /* \"#utility.yul\":648:676   */\n      and\n        /* \"#utility.yul\":638:676   */\n      swap1\n      pop\n        /* \"#utility.yul\":580:682   */\n      swap2\n      swap1\n      pop\n      jump\t// out\n        /* \"#utility.yul\":688:868   */\n    tag_128:\n        /* \"#utility.yul\":736:813   */\n      0x4e487b7100000000000000000000000000000000000000000000000000000000\n        /* \"#utility.yul\":733:734   */\n      0x00\n        /* \"#utility.yul\":726:814   */\n      mstore\n        /* \"#utility.yul\":833:837   */\n      0x41\n        /* \"#utility.yul\":830:831   */\n      0x04\n        /* \"#utility.yul\":823:838   */\n      mstore\n        /* \"#utility.yul\":857:861   */\n      0x24\n        /* \"#utility.yul\":854:855   */\n      0x00\n        /* \"#utility.yul\":847:862   */\n      revert\n        /* \"#utility.yul\":874:1155   */\n    tag_129:\n        /* \"#utility.yul\":957:984   */\n      tag_195\n        /* \"#utility.yul\":979:983   */\n      dup3\n        /* \"#utility.yul\":957:984   */\n      tag_127\n      jump\t// in\n    tag_195:\n        /* \"#utility.yul\":949:955   */\n      dup2\n        /* \"#utility.yul\":945:985   */\n      add\n        /* \"#utility.yul\":1087:1093   */\n      dup2\n        /* \"#utility.yul\":1075:1085   */\n      dup2\n        /* \"#utility.yul\":1072:1094   */\n      lt\n        /* \"#utility.yul\":1051:1069   */\n      0xffffffffffffffff\n        /* \"#utility.yul\":1039:1049   */\n      dup3\n        /* \"#utility.yul\":1036:1070   */\n      gt\n        /* \"#utility.yul\":1033:1095   */\n      or\n        /* \"#utility.yul\":1030:1118   */\n      iszero\n      tag_196\n      jumpi\n        /* \"#utility.yul\":1098:1116   */\n      tag_197\n      tag_128\n      jump\t// in\n    tag_197:\n        /* \"#utility.yul\":1030:1118   */\n    tag_196:\n        /* \"#utility.yul\":1138:1148   */\n      dup1\n        /* \"#utility.yul\":1134:1136   */\n      0x40\n        /* \"#utility.yul\":1127:1149   */\n      mstore\n        /* \"#utility.yul\":917:1155   */\n      pop\n        /* \"#utility.yul\":874:1155   */\n      pop\n      pop\n      jump\t// out\n        /* \"#utility.yul\":1161:1290   */\n    tag_130:\n        /* \"#utility.yul\":1195:1201   */\n      0x00\n        /* \"#utility.yul\":1222:1242   */\n      tag_199\n      tag_122\n      jump\t// in\n    tag_199:\n        /* \"#utility.yul\":1212:1242   */\n      swap1\n      pop\n        /* \"#utility.yul\":1251:1284   */\n      tag_200\n        /* \"#utility.yul\":1279:1283   */\n      dup3\n        /* \"#utility.yul\":1271:1277   */\n      dup3\n        /* \"#utility.yul\":1251:1284   */\n      tag_129\n      jump\t// in\n    tag_200:\n        /* \"#utility.yul\":1161:1290   */\n      swap2\n      swap1\n      pop\n      jump\t// out\n        /* \"#utility.yul\":1296:1604   */\n    tag_131:\n        /* \"#utility.yul\":1358:1362   */\n      0x00\n        /* \"#utility.yul\":1448:1466   */\n      0xffffffffffffffff\n        /* \"#utility.yul\":1440:1446   */\n      dup3\n        /* \"#utility.yul\":1437:1467   */\n      gt\n        /* \"#utility.yul\":1434:1490   */\n      iszero\n      tag_202\n      jumpi\n        /* \"#utility.yul\":1470:1488   */\n      tag_203\n      tag_128\n      jump\t// in\n    tag_203:\n        /* \"#utility.yul\":1434:1490   */\n    tag_202:\n        /* \"#utility.yul\":1508:1537   */\n      tag_204\n        /* \"#utility.yul\":1530:1536   */\n      dup3\n        /* \"#utility.yul\":1508:1537   */\n      tag_127\n      jump\t// in\n    tag_204:\n        /* \"#utility.yul\":1500:1537   */\n      swap1\n      pop\n        /* \"#utility.yul\":1592:1596   */\n      0x20\n        /* \"#utility.yul\":1586:1590   */\n      dup2\n        /* \"#utility.yul\":1582:1597   */\n      add\n        /* \"#utility.yul\":1574:1597   */\n      swap1\n      pop\n        /* \"#utility.yul\":1296:1604   */\n      swap2\n      swap1\n      pop\n      jump\t// out\n        /* \"#utility.yul\":1610:1758   */\n    tag_132:\n        /* \"#utility.yul\":1708:1714   */\n      dup3\n        /* \"#utility.yul\":1703:1706   */\n      dup2\n        /* \"#utility.yul\":1698:1701   */\n      dup4\n        /* \"#utility.yul\":1685:1715   */\n      calldatacopy\n        /* \"#utility.yul\":1749:1750   */\n      0x00\n        /* \"#utility.yul\":1740:1746   */\n      dup4\n        /* \"#utility.yul\":1735:1738   */\n      dup4\n        /* \"#utility.yul\":1731:1747   */\n      add\n        /* \"#utility.yul\":1724:1751   */\n      mstore\n        /* \"#utility.yul\":1610:1758   */\n      pop\n      pop\n      pop\n      jump\t// out\n        /* \"#utility.yul\":1764:2189   */\n    tag_133:\n        /* \"#utility.yul\":1842:1847   */\n      0x00\n        /* \"#utility.yul\":1867:1933   */\n      tag_207\n        /* \"#utility.yul\":1883:1932   */\n      tag_208\n        /* \"#utility.yul\":1925:1931   */\n      dup5\n        /* \"#utility.yul\":1883:1932   */\n      tag_131\n      jump\t// in\n    tag_208:\n        /* \"#utility.yul\":1867:1933   */\n      tag_130\n      jump\t// in\n    tag_207:\n        /* \"#utility.yul\":1858:1933   */\n      swap1\n      pop\n        /* \"#utility.yul\":1956:1962   */\n      dup3\n        /* \"#utility.yul\":1949:1954   */\n      dup2\n        /* \"#utility.yul\":1942:1963   */\n      mstore\n        /* \"#utility.yul\":1994:1998   */\n      0x20\n        /* \"#utility.yul\":1987:1992   */\n      dup2\n        /* \"#utility.yul\":1983:1999   */\n      add\n        /* \"#utility.yul\":2032:2035   */\n      dup5\n        /* \"#utility.yul\":2023:2029   */\n      dup5\n        /* \"#utility.yul\":2018:2021   */\n      dup5\n        /* \"#utility.yul\":2014:2030   */\n      add\n        /* \"#utility.yul\":2011:2036   */\n      gt\n        /* \"#utility.yul\":2008:2120   */\n      iszero\n      tag_209\n      jumpi\n        /* \"#utility.yul\":2039:2118   */\n      tag_210\n      tag_126\n      jump\t// in\n    tag_210:\n        /* \"#utility.yul\":2008:2120   */\n    tag_209:\n        /* \"#utility.yul\":2129:2183   */\n      tag_211\n        /* \"#utility.yul\":2176:2182   */\n      dup5\n        /* \"#utility.yul\":2171:2174   */\n      dup3\n        /* \"#utility.yul\":2166:2169   */\n      dup6\n        /* \"#utility.yul\":2129:2183   */\n      tag_132\n      jump\t// in\n    tag_211:\n        /* \"#utility.yul\":1848:2189   */\n      pop\n        /* \"#utility.yul\":1764:2189   */\n      swap4\n      swap3\n      pop\n      pop\n      pop\n      jump\t// out\n        /* \"#utility.yul\":2209:2549   */\n    tag_134:\n        /* \"#utility.yul\":2265:2270   */\n      0x00\n        /* \"#utility.yul\":2314:2317   */\n      dup3\n        /* \"#utility.yul\":2307:2311   */\n      0x1f\n        /* \"#utility.yul\":2299:2305   */\n      dup4\n        /* \"#utility.yul\":2295:2312   */\n      add\n        /* \"#utility.yul\":2291:2318   */\n      slt\n        /* \"#utility.yul\":2281:2403   */\n      tag_213\n      jumpi\n        /* \"#utility.yul\":2322:2401   */\n      tag_214\n      tag_125\n      jump\t// in\n    tag_214:\n        /* \"#utility.yul\":2281:2403   */\n    tag_213:\n        /* \"#utility.yul\":2439:2445   */\n      dup2\n        /* \"#utility.yul\":2426:2446   */\n      calldataload\n        /* \"#utility.yul\":2464:2543   */\n      tag_215\n        /* \"#utility.yul\":2539:2542   */\n      dup5\n        /* \"#utility.yul\":2531:2537   */\n      dup3\n        /* \"#utility.yul\":2524:2528   */\n      0x20\n        /* \"#utility.yul\":2516:2522   */\n      dup7\n        /* \"#utility.yul\":2512:2529   */\n      add\n        /* \"#utility.yul\":2464:2543   */\n      tag_133\n      jump\t// in\n    tag_215:\n        /* \"#utility.yul\":2455:2543   */\n      swap2\n      pop\n        /* \"#utility.yul\":2271:2549   */\n      pop\n        /* \"#utility.yul\":2209:2549   */\n      swap3\n      swap2\n      pop\n      pop\n      jump\t// out\n        /* \"#utility.yul\":2555:3064   */\n    tag_15:\n        /* \"#utility.yul\":2624:2630   */\n      0x00\n        /* \"#utility.yul\":2673:2675   */\n      0x20\n        /* \"#utility.yul\":2661:2670   */\n      dup3\n        /* \"#utility.yul\":2652:2659   */\n      dup5\n        /* \"#utility.yul\":2648:2671   */\n      sub\n        /* \"#utility.yul\":2644:2676   */\n      slt\n        /* \"#utility.yul\":2641:2760   */\n      iszero\n      tag_217\n      jumpi\n        /* \"#utility.yul\":2679:2758   */\n      tag_218\n      tag_123\n      jump\t// in\n    tag_218:\n        /* \"#utility.yul\":2641:2760   */\n    tag_217:\n        /* \"#utility.yul\":2827:2828   */\n      0x00\n        /* \"#utility.yul\":2816:2825   */\n      dup3\n        /* \"#utility.yul\":2812:2829   */\n      add\n        /* \"#utility.yul\":2799:2830   */\n      calldataload\n        /* \"#utility.yul\":2857:2875   */\n      0xffffffffffffffff\n        /* \"#utility.yul\":2849:2855   */\n      dup2\n        /* \"#utility.yul\":2846:2876   */\n      gt\n        /* \"#utility.yul\":2843:2960   */\n      iszero\n      tag_219\n      jumpi\n        /* \"#utility.yul\":2879:2958   */\n      tag_220\n      tag_124\n      jump\t// in\n    tag_220:\n        /* \"#utility.yul\":2843:2960   */\n    tag_219:\n        /* \"#utility.yul\":2984:3047   */\n      tag_221\n        /* \"#utility.yul\":3039:3046   */\n      dup5\n        /* \"#utility.yul\":3030:3036   */\n      dup3\n        /* \"#utility.yul\":3019:3028   */\n      dup6\n        /* \"#utility.yul\":3015:3037   */\n      add\n        /* \"#utility.yul\":2984:3047   */\n      tag_134\n      jump\t// in\n    tag_221:\n        /* \"#utility.yul\":2974:3047   */\n      swap2\n      pop\n        /* \"#utility.yul\":2770:3057   */\n      pop\n        /* \"#utility.yul\":2555:3064   */\n      swap3\n      swap2\n      pop\n      pop\n      jump\t// out\n        /* \"#utility.yul\":3070:3169   */\n    tag_135:\n        /* \"#utility.yul\":3122:3128   */\n      0x00\n        /* \"#utility.yul\":3156:3161   */\n      dup2\n        /* \"#utility.yul\":3150:3162   */\n      mload\n        /* \"#utility.yul\":3140:3162   */\n      swap1\n      pop\n        /* \"#utility.yul\":3070:3169   */\n      swap2\n      swap1\n      pop\n      jump\t// out\n        /* \"#utility.yul\":3175:3344   */\n    tag_136:\n        /* \"#utility.yul\":3259:3270   */\n      0x00\n        /* \"#utility.yul\":3293:3299   */\n      dup3\n        /* \"#utility.yul\":3288:3291   */\n      dup3\n        /* \"#utility.yul\":3281:3300   */\n      mstore\n        /* \"#utility.yul\":3333:3337   */\n      0x20\n        /* \"#utility.yul\":3328:3331   */\n      dup3\n        /* \"#utility.yul\":3324:3338   */\n      add\n        /* \"#utility.yul\":3309:3338   */\n      swap1\n      pop\n        /* \"#utility.yul\":3175:3344   */\n      swap3\n      swap2\n      pop\n      pop\n      jump\t// out\n        /* \"#utility.yul\":3350:3489   */\n    tag_137:\n        /* \"#utility.yul\":3439:3445   */\n      dup3\n        /* \"#utility.yul\":3434:3437   */\n      dup2\n        /* \"#utility.yul\":3429:3432   */\n      dup4\n        /* \"#utility.yul\":3423:3446   */\n      mcopy\n        /* \"#utility.yul\":3480:3481   */\n      0x00\n        /* \"#utility.yul\":3471:3477   */\n      dup4\n        /* \"#utility.yul\":3466:3469   */\n      dup4\n        /* \"#utility.yul\":3462:3478   */\n      add\n        /* \"#utility.yul\":3455:3482   */\n      mstore\n        /* \"#utility.yul\":3350:3489   */\n      pop\n      pop\n      pop\n      jump\t// out\n        /* \"#utility.yul\":3495:3872   */\n    tag_138:\n        /* \"#utility.yul\":3583:3586   */\n      0x00\n        /* \"#utility.yul\":3611:3650   */\n      tag_226\n        /* \"#utility.yul\":3644:3649   */\n      dup3\n        /* \"#utility.yul\":3611:3650   */\n      tag_135\n      jump\t// in\n    tag_226:\n        /* \"#utility.yul\":3666:3737   */\n      tag_227\n        /* \"#utility.yul\":3730:3736   */\n      dup2\n        /* \"#utility.yul\":3725:3728   */\n      dup6\n        /* \"#utility.yul\":3666:3737   */\n      tag_136\n      jump\t// in\n    tag_227:\n        /* \"#utility.yul\":3659:3737   */\n      swap4\n      pop\n        /* \"#utility.yul\":3746:3811   */\n      tag_228\n        /* \"#utility.yul\":3804:3810   */\n      dup2\n        /* \"#utility.yul\":3799:3802   */\n      dup6\n        /* \"#utility.yul\":3792:3796   */\n      0x20\n        /* \"#utility.yul\":3785:3790   */\n      dup7\n        /* \"#utility.yul\":3781:3797   */\n      add\n        /* \"#utility.yul\":3746:3811   */\n      tag_137\n      jump\t// in\n    tag_228:\n        /* \"#utility.yul\":3836:3865   */\n      tag_229\n        /* \"#utility.yul\":3858:3864   */\n      dup2\n        /* \"#utility.yul\":3836:3865   */\n      tag_127\n      jump\t// in\n    tag_229:\n        /* \"#utility.yul\":3831:3834   */\n      dup5\n        /* \"#utility.yul\":3827:3866   */\n      add\n        /* \"#utility.yul\":3820:3866   */\n      swap2\n      pop\n        /* \"#utility.yul\":3587:3872   */\n      pop\n        /* \"#utility.yul\":3495:3872   */\n      swap3\n      swap2\n      pop\n      pop\n      jump\t// out\n        /* \"#utility.yul\":3878:3955   */\n    tag_139:\n        /* \"#utility.yul\":3915:3922   */\n      0x00\n        /* \"#utility.yul\":3944:3949   */\n      dup2\n        /* \"#utility.yul\":3933:3949   */\n      swap1\n      pop\n        /* \"#utility.yul\":3878:3955   */\n      swap2\n      swap1\n      pop\n      jump\t// out\n        /* \"#utility.yul\":3961:4079   */\n    tag_140:\n        /* \"#utility.yul\":4048:4072   */\n      tag_232\n        /* \"#utility.yul\":4066:4071   */\n      dup2\n        /* \"#utility.yul\":4048:4072   */\n      tag_139\n      jump\t// in\n    tag_232:\n        /* \"#utility.yul\":4043:4046   */\n      dup3\n        /* \"#utility.yul\":4036:4073   */\n      mstore\n        /* \"#utility.yul\":3961:4079   */\n      pop\n      pop\n      jump\t// out\n        /* \"#utility.yul\":4085:4618   */\n    tag_18:\n        /* \"#utility.yul\":4254:4258   */\n      0x00\n        /* \"#utility.yul\":4292:4294   */\n      0x60\n        /* \"#utility.yul\":4281:4290   */\n      dup3\n        /* \"#utility.yul\":4277:4295   */\n      add\n        /* \"#utility.yul\":4269:4295   */\n      swap1\n      pop\n        /* \"#utility.yul\":4341:4350   */\n      dup2\n        /* \"#utility.yul\":4335:4339   */\n      dup2\n        /* \"#utility.yul\":4331:4351   */\n      sub\n        /* \"#utility.yul\":4327:4328   */\n      0x00\n        /* \"#utility.yul\":4316:4325   */\n      dup4\n        /* \"#utility.yul\":4312:4329   */\n      add\n        /* \"#utility.yul\":4305:4352   */\n      mstore\n        /* \"#utility.yul\":4369:4447   */\n      tag_234\n        /* \"#utility.yul\":4442:4446   */\n      dup2\n        /* \"#utility.yul\":4433:4439   */\n      dup7\n        /* \"#utility.yul\":4369:4447   */\n      tag_138\n      jump\t// in\n    tag_234:\n        /* \"#utility.yul\":4361:4447   */\n      swap1\n      pop\n        /* \"#utility.yul\":4457:4529   */\n      tag_235\n        /* \"#utility.yul\":4525:4527   */\n      0x20\n        /* \"#utility.yul\":4514:4523   */\n      dup4\n        /* \"#utility.yul\":4510:4528   */\n      add\n        /* \"#utility.yul\":4501:4507   */\n      dup6\n        /* \"#utility.yul\":4457:4529   */\n      tag_140\n      jump\t// in\n    tag_235:\n        /* \"#utility.yul\":4539:4611   */\n      tag_236\n        /* \"#utility.yul\":4607:4609   */\n      0x40\n        /* \"#utility.yul\":4596:4605   */\n      dup4\n        /* \"#utility.yul\":4592:4610   */\n      add\n        /* \"#utility.yul\":4583:4589   */\n      dup5\n        /* \"#utility.yul\":4539:4611   */\n      tag_140\n      jump\t// in\n    tag_236:\n        /* \"#utility.yul\":4085:4618   */\n      swap5\n      swap4\n      pop\n      pop\n      pop\n      pop\n      jump\t// out\n        /* \"#utility.yul\":4624:4750   */\n    tag_141:\n        /* \"#utility.yul\":4661:4668   */\n      0x00\n        /* \"#utility.yul\":4701:4743   */\n      0xffffffffffffffffffffffffffffffffffffffff\n        /* \"#utility.yul\":4694:4699   */\n      dup3\n        /* \"#utility.yul\":4690:4744   */\n      and\n        /* \"#utility.yul\":4679:4744   */\n      swap1\n      pop\n        /* \"#utility.yul\":4624:4750   */\n      swap2\n      swap1\n      pop\n      jump\t// out\n        /* \"#utility.yul\":4756:4860   */\n    tag_142:\n        /* \"#utility.yul\":4801:4808   */\n      0x00\n        /* \"#utility.yul\":4830:4854   */\n      tag_239\n        /* \"#utility.yul\":4848:4853   */\n      dup3\n        /* \"#utility.yul\":4830:4854   */\n      tag_141\n      jump\t// in\n    tag_239:\n        /* \"#utility.yul\":4819:4854   */\n      swap1\n      pop\n        /* \"#utility.yul\":4756:4860   */\n      swap2\n      swap1\n      pop\n      jump\t// out\n        /* \"#utility.yul\":4866:5004   */\n    tag_143:\n        /* \"#utility.yul\":4947:4979   */\n      tag_241\n        /* \"#utility.yul\":4973:4978   */\n      dup2\n        /* \"#utility.yul\":4947:4979   */\n      tag_142\n      jump\t// in\n    tag_241:\n        /* \"#utility.yul\":4940:4945   */\n      dup2\n        /* \"#utility.yul\":4937:4980   */\n      eq\n        /* \"#utility.yul\":4927:4998   */\n      tag_242\n      jumpi\n        /* \"#utility.yul\":4994:4995   */\n      0x00\n        /* \"#utility.yul\":4991:4992   */\n      dup1\n        /* \"#utility.yul\":4984:4996   */\n      revert\n        /* \"#utility.yul\":4927:4998   */\n    tag_242:\n        /* \"#utility.yul\":4866:5004   */\n      pop\n      jump\t// out\n        /* \"#utility.yul\":5010:5165   */\n    tag_144:\n        /* \"#utility.yul\":5064:5069   */\n      0x00\n        /* \"#utility.yul\":5102:5108   */\n      dup2\n        /* \"#utility.yul\":5089:5109   */\n      calldataload\n        /* \"#utility.yul\":5080:5109   */\n      swap1\n      pop\n        /* \"#utility.yul\":5118:5159   */\n      tag_244\n        /* \"#utility.yul\":5153:5158   */\n      dup2\n        /* \"#utility.yul\":5118:5159   */\n      tag_143\n      jump\t// in\n    tag_244:\n        /* \"#utility.yul\":5010:5165   */\n      swap3\n      swap2\n      pop\n      pop\n      jump\t// out\n        /* \"#utility.yul\":5171:5516   */\n    tag_22:\n        /* \"#utility.yul\":5238:5244   */\n      0x00\n        /* \"#utility.yul\":5287:5289   */\n      0x20\n        /* \"#utility.yul\":5275:5284   */\n      dup3\n        /* \"#utility.yul\":5266:5273   */\n      dup5\n        /* \"#utility.yul\":5262:5285   */\n      sub\n        /* \"#utility.yul\":5258:5290   */\n      slt\n        /* \"#utility.yul\":5255:5374   */\n      iszero\n      tag_246\n      jumpi\n        /* \"#utility.yul\":5293:5372   */\n      tag_247\n      tag_123\n      jump\t// in\n    tag_247:\n        /* \"#utility.yul\":5255:5374   */\n    tag_246:\n        /* \"#utility.yul\":5413:5414   */\n      0x00\n        /* \"#utility.yul\":5438:5499   */\n      tag_248\n        /* \"#utility.yul\":5491:5498   */\n      dup5\n        /* \"#utility.yul\":5482:5488   */\n      dup3\n        /* \"#utility.yul\":5471:5480   */\n      dup6\n        /* \"#utility.yul\":5467:5489   */\n      add\n        /* \"#utility.yul\":5438:5499   */\n      tag_144\n      jump\t// in\n    tag_248:\n        /* \"#utility.yul\":5428:5499   */\n      swap2\n      pop\n        /* \"#utility.yul\":5384:5509   */\n      pop\n        /* \"#utility.yul\":5171:5516   */\n      swap3\n      swap2\n      pop\n      pop\n      jump\t// out\n        /* \"#utility.yul\":5522:5644   */\n    tag_145:\n        /* \"#utility.yul\":5595:5619   */\n      tag_250\n        /* \"#utility.yul\":5613:5618   */\n      dup2\n        /* \"#utility.yul\":5595:5619   */\n      tag_139\n      jump\t// in\n    tag_250:\n        /* \"#utility.yul\":5588:5593   */\n      dup2\n        /* \"#utility.yul\":5585:5620   */\n      eq\n        /* \"#utility.yul\":5575:5638   */\n      tag_251\n      jumpi\n        /* \"#utility.yul\":5634:5635   */\n      0x00\n        /* \"#utility.yul\":5631:5632   */\n      dup1\n        /* \"#utility.yul\":5624:5636   */\n      revert\n        /* \"#utility.yul\":5575:5638   */\n    tag_251:\n        /* \"#utility.yul\":5522:5644   */\n      pop\n      jump\t// out\n        /* \"#utility.yul\":5650:5789   */\n    tag_146:\n        /* \"#utility.yul\":5696:5701   */\n      0x00\n        /* \"#utility.yul\":5734:5740   */\n      dup2\n        /* \"#utility.yul\":5721:5741   */\n      calldataload\n        /* \"#utility.yul\":5712:5741   */\n      swap1\n      pop\n        /* \"#utility.yul\":5750:5783   */\n      tag_253\n        /* \"#utility.yul\":5777:5782   */\n      dup2\n        /* \"#utility.yul\":5750:5783   */\n      tag_145\n      jump\t// in\n    tag_253:\n        /* \"#utility.yul\":5650:5789   */\n      swap3\n      swap2\n      pop\n      pop\n      jump\t// out\n        /* \"#utility.yul\":5795:6449   */\n    tag_27:\n        /* \"#utility.yul\":5873:5879   */\n      0x00\n        /* \"#utility.yul\":5881:5887   */\n      dup1\n        /* \"#utility.yul\":5930:5932   */\n      0x40\n        /* \"#utility.yul\":5918:5927   */\n      dup4\n        /* \"#utility.yul\":5909:5916   */\n      dup6\n        /* \"#utility.yul\":5905:5928   */\n      sub\n        /* \"#utility.yul\":5901:5933   */\n      slt\n        /* \"#utility.yul\":5898:6017   */\n      iszero\n      tag_255\n      jumpi\n        /* \"#utility.yul\":5936:6015   */\n      tag_256\n      tag_123\n      jump\t// in\n    tag_256:\n        /* \"#utility.yul\":5898:6017   */\n    tag_255:\n        /* \"#utility.yul\":6084:6085   */\n      0x00\n        /* \"#utility.yul\":6073:6082   */\n      dup4\n        /* \"#utility.yul\":6069:6086   */\n      add\n        /* \"#utility.yul\":6056:6087   */\n      calldataload\n        /* \"#utility.yul\":6114:6132   */\n      0xffffffffffffffff\n        /* \"#utility.yul\":6106:6112   */\n      dup2\n        /* \"#utility.yul\":6103:6133   */\n      gt\n        /* \"#utility.yul\":6100:6217   */\n      iszero\n      tag_257\n      jumpi\n        /* \"#utility.yul\":6136:6215   */\n      tag_258\n      tag_124\n      jump\t// in\n    tag_258:\n        /* \"#utility.yul\":6100:6217   */\n    tag_257:\n        /* \"#utility.yul\":6241:6304   */\n      tag_259\n        /* \"#utility.yul\":6296:6303   */\n      dup6\n        /* \"#utility.yul\":6287:6293   */\n      dup3\n        /* \"#utility.yul\":6276:6285   */\n      dup7\n        /* \"#utility.yul\":6272:6294   */\n      add\n        /* \"#utility.yul\":6241:6304   */\n      tag_134\n      jump\t// in\n    tag_259:\n        /* \"#utility.yul\":6231:6304   */\n      swap3\n      pop\n        /* \"#utility.yul\":6027:6314   */\n      pop\n        /* \"#utility.yul\":6353:6355   */\n      0x20\n        /* \"#utility.yul\":6379:6432   */\n      tag_260\n        /* \"#utility.yul\":6424:6431   */\n      dup6\n        /* \"#utility.yul\":6415:6421   */\n      dup3\n        /* \"#utility.yul\":6404:6413   */\n      dup7\n        /* \"#utility.yul\":6400:6422   */\n      add\n        /* \"#utility.yul\":6379:6432   */\n      tag_146\n      jump\t// in\n    tag_260:\n        /* \"#utility.yul\":6369:6432   */\n      swap2\n      pop\n        /* \"#utility.yul\":6324:6442   */\n      pop\n        /* \"#utility.yul\":5795:6449   */\n      swap3\n      pop\n      swap3\n      swap1\n      pop\n      jump\t// out\n        /* \"#utility.yul\":6455:7254   */\n    tag_51:\n        /* \"#utility.yul\":6542:6548   */\n      0x00\n        /* \"#utility.yul\":6550:6556   */\n      dup1\n        /* \"#utility.yul\":6558:6564   */\n      0x00\n        /* \"#utility.yul\":6607:6609   */\n      0x60\n        /* \"#utility.yul\":6595:6604   */\n      dup5\n        /* \"#utility.yul\":6586:6593   */\n      dup7\n        /* \"#utility.yul\":6582:6605   */\n      sub\n        /* \"#utility.yul\":6578:6610   */\n      slt\n        /* \"#utility.yul\":6575:6694   */\n      iszero\n      tag_262\n      jumpi\n        /* \"#utility.yul\":6613:6692   */\n      tag_263\n      tag_123\n      jump\t// in\n    tag_263:\n        /* \"#utility.yul\":6575:6694   */\n    tag_262:\n        /* \"#utility.yul\":6761:6762   */\n      0x00\n        /* \"#utility.yul\":6750:6759   */\n      dup5\n        /* \"#utility.yul\":6746:6763   */\n      add\n        /* \"#utility.yul\":6733:6764   */\n      calldataload\n        /* \"#utility.yul\":6791:6809   */\n      0xffffffffffffffff\n        /* \"#utility.yul\":6783:6789   */\n      dup2\n        /* \"#utility.yul\":6780:6810   */\n      gt\n        /* \"#utility.yul\":6777:6894   */\n      iszero\n      tag_264\n      jumpi\n        /* \"#utility.yul\":6813:6892   */\n      tag_265\n      tag_124\n      jump\t// in\n    tag_265:\n        /* \"#utility.yul\":6777:6894   */\n    tag_264:\n        /* \"#utility.yul\":6918:6981   */\n      tag_266\n        /* \"#utility.yul\":6973:6980   */\n      dup7\n        /* \"#utility.yul\":6964:6970   */\n      dup3\n        /* \"#utility.yul\":6953:6962   */\n      dup8\n        /* \"#utility.yul\":6949:6971   */\n      add\n        /* \"#utility.yul\":6918:6981   */\n      tag_134\n      jump\t// in\n    tag_266:\n        /* \"#utility.yul\":6908:6981   */\n      swap4\n      pop\n        /* \"#utility.yul\":6704:6991   */\n      pop\n        /* \"#utility.yul\":7030:7032   */\n      0x20\n        /* \"#utility.yul\":7056:7109   */\n      tag_267\n        /* \"#utility.yul\":7101:7108   */\n      dup7\n        /* \"#utility.yul\":7092:7098   */\n      dup3\n        /* \"#utility.yul\":7081:7090   */\n      dup8\n        /* \"#utility.yul\":7077:7099   */\n      add\n        /* \"#utility.yul\":7056:7109   */\n      tag_146\n      jump\t// in\n    tag_267:\n        /* \"#utility.yul\":7046:7109   */\n      swap3\n      pop\n        /* \"#utility.yul\":7001:7119   */\n      pop\n        /* \"#utility.yul\":7158:7160   */\n      0x40\n        /* \"#utility.yul\":7184:7237   */\n      tag_268\n        /* \"#utility.yul\":7229:7236   */\n      dup7\n        /* \"#utility.yul\":7220:7226   */\n      dup3\n        /* \"#utility.yul\":7209:7218   */\n      dup8\n        /* \"#utility.yul\":7205:7227   */\n      add\n        /* \"#utility.yul\":7184:7237   */\n      tag_146\n      jump\t// in\n    tag_268:\n        /* \"#utility.yul\":7174:7237   */\n      swap2\n      pop\n        /* \"#utility.yul\":7129:7247   */\n      pop\n        /* \"#utility.yul\":6455:7254   */\n      swap3\n      pop\n      swap3\n      pop\n      swap3\n      jump\t// out\n        /* \"#utility.yul\":7260:7440   */\n    tag_147:\n        /* \"#utility.yul\":7308:7385   */\n      0x4e487b7100000000000000000000000000000000000000000000000000000000\n        /* \"#utility.yul\":7305:7306   */\n      0x00\n        /* \"#utility.yul\":7298:7386   */\n      mstore\n        /* \"#utility.yul\":7405:7409   */\n      0x22\n        /* \"#utility.yul\":7402:7403   */\n      0x04\n        /* \"#utility.yul\":7395:7410   */\n      mstore\n        /* \"#utility.yul\":7429:7433   */\n      0x24\n        /* \"#utility.yul\":7426:7427   */\n      0x00\n        /* \"#utility.yul\":7419:7434   */\n      revert\n        /* \"#utility.yul\":7446:7766   */\n    tag_54:\n        /* \"#utility.yul\":7490:7496   */\n      0x00\n        /* \"#utility.yul\":7527:7528   */\n      0x02\n        /* \"#utility.yul\":7521:7525   */\n      dup3\n        /* \"#utility.yul\":7517:7529   */\n      div\n        /* \"#utility.yul\":7507:7529   */\n      swap1\n      pop\n        /* \"#utility.yul\":7574:7575   */\n      0x01\n        /* \"#utility.yul\":7568:7572   */\n      dup3\n        /* \"#utility.yul\":7564:7576   */\n      and\n        /* \"#utility.yul\":7595:7613   */\n      dup1\n        /* \"#utility.yul\":7585:7666   */\n      tag_271\n      jumpi\n        /* \"#utility.yul\":7651:7655   */\n      0x7f\n        /* \"#utility.yul\":7643:7649   */\n      dup3\n        /* \"#utility.yul\":7639:7656   */\n      and\n        /* \"#utility.yul\":7629:7656   */\n      swap2\n      pop\n        /* \"#utility.yul\":7585:7666   */\n    tag_271:\n        /* \"#utility.yul\":7713:7715   */\n      0x20\n        /* \"#utility.yul\":7705:7711   */\n      dup3\n        /* \"#utility.yul\":7702:7716   */\n      lt\n        /* \"#utility.yul\":7682:7700   */\n      dup2\n        /* \"#utility.yul\":7679:7717   */\n      sub\n        /* \"#utility.yul\":7676:7760   */\n      tag_272\n      jumpi\n        /* \"#utility.yul\":7732:7750   */\n      tag_273\n      tag_147\n      jump\t// in\n    tag_273:\n        /* \"#utility.yul\":7676:7760   */\n    tag_272:\n        /* \"#utility.yul\":7497:7766   */\n      pop\n        /* \"#utility.yul\":7446:7766   */\n      swap2\n      swap1\n      pop\n      jump\t// out\n        /* \"#utility.yul\":7772:7950   */\n    tag_148:\n        /* \"#utility.yul\":7912:7942   */\n      0x4f6e6c79204f6e7765722063616e206772616e74206163636573732e00000000\n        /* \"#utility.yul\":7908:7909   */\n      0x00\n        /* \"#utility.yul\":7900:7906   */\n      dup3\n        /* \"#utility.yul\":7896:7910   */\n      add\n        /* \"#utility.yul\":7889:7943   */\n      mstore\n        /* \"#utility.yul\":7772:7950   */\n      pop\n      jump\t// out\n        /* \"#utility.yul\":7956:8322   */\n    tag_149:\n        /* \"#utility.yul\":8098:8101   */\n      0x00\n        /* \"#utility.yul\":8119:8186   */\n      tag_276\n        /* \"#utility.yul\":8183:8185   */\n      0x1c\n        /* \"#utility.yul\":8178:8181   */\n      dup4\n        /* \"#utility.yul\":8119:8186   */\n      tag_136\n      jump\t// in\n    tag_276:\n        /* \"#utility.yul\":8112:8186   */\n      swap2\n      pop\n        /* \"#utility.yul\":8195:8288   */\n      tag_277\n        /* \"#utility.yul\":8284:8287   */\n      dup3\n        /* \"#utility.yul\":8195:8288   */\n      tag_148\n      jump\t// in\n    tag_277:\n        /* \"#utility.yul\":8313:8315   */\n      0x20\n        /* \"#utility.yul\":8308:8311   */\n      dup3\n        /* \"#utility.yul\":8304:8316   */\n      add\n        /* \"#utility.yul\":8297:8316   */\n      swap1\n      pop\n        /* \"#utility.yul\":7956:8322   */\n      swap2\n      swap1\n      pop\n      jump\t// out\n        /* \"#utility.yul\":8328:8747   */\n    tag_62:\n        /* \"#utility.yul\":8494:8498   */\n      0x00\n        /* \"#utility.yul\":8532:8534   */\n      0x20\n        /* \"#utility.yul\":8521:8530   */\n      dup3\n        /* \"#utility.yul\":8517:8535   */\n      add\n        /* \"#utility.yul\":8509:8535   */\n      swap1\n      pop\n        /* \"#utility.yul\":8581:8590   */\n      dup2\n        /* \"#utility.yul\":8575:8579   */\n      dup2\n        /* \"#utility.yul\":8571:8591   */\n      sub\n        /* \"#utility.yul\":8567:8568   */\n      0x00\n        /* \"#utility.yul\":8556:8565   */\n      dup4\n        /* \"#utility.yul\":8552:8569   */\n      add\n        /* \"#utility.yul\":8545:8592   */\n      mstore\n        /* \"#utility.yul\":8609:8740   */\n      tag_279\n        /* \"#utility.yul\":8735:8739   */\n      dup2\n        /* \"#utility.yul\":8609:8740   */\n      tag_149\n      jump\t// in\n    tag_279:\n        /* \"#utility.yul\":8601:8740   */\n      swap1\n      pop\n        /* \"#utility.yul\":8328:8747   */\n      swap2\n      swap1\n      pop\n      jump\t// out\n        /* \"#utility.yul\":8753:8975   */\n    tag_150:\n        /* \"#utility.yul\":8893:8927   */\n      0x6f6e6c79206f6e7765722063616e20757064617465207468652070726f647563\n        /* \"#utility.yul\":8889:8890   */\n      0x00\n        /* \"#utility.yul\":8881:8887   */\n      dup3\n        /* \"#utility.yul\":8877:8891   */\n      add\n        /* \"#utility.yul\":8870:8928   */\n      mstore\n        /* \"#utility.yul\":8962:8967   */\n      0x74732e0000000000000000000000000000000000000000000000000000000000\n        /* \"#utility.yul\":8957:8959   */\n      0x20\n        /* \"#utility.yul\":8949:8955   */\n      dup3\n        /* \"#utility.yul\":8945:8960   */\n      add\n        /* \"#utility.yul\":8938:8968   */\n      mstore\n        /* \"#utility.yul\":8753:8975   */\n      pop\n      jump\t// out\n        /* \"#utility.yul\":8981:9347   */\n    tag_151:\n        /* \"#utility.yul\":9123:9126   */\n      0x00\n        /* \"#utility.yul\":9144:9211   */\n      tag_282\n        /* \"#utility.yul\":9208:9210   */\n      0x23\n        /* \"#utility.yul\":9203:9206   */\n      dup4\n        /* \"#utility.yul\":9144:9211   */\n      tag_136\n      jump\t// in\n    tag_282:\n        /* \"#utility.yul\":9137:9211   */\n      swap2\n      pop\n        /* \"#utility.yul\":9220:9313   */\n      tag_283\n        /* \"#utility.yul\":9309:9312   */\n      dup3\n        /* \"#utility.yul\":9220:9313   */\n      tag_150\n      jump\t// in\n    tag_283:\n        /* \"#utility.yul\":9338:9340   */\n      0x40\n        /* \"#utility.yul\":9333:9336   */\n      dup3\n        /* \"#utility.yul\":9329:9341   */\n      add\n        /* \"#utility.yul\":9322:9341   */\n      swap1\n      pop\n        /* \"#utility.yul\":8981:9347   */\n      swap2\n      swap1\n      pop\n      jump\t// out\n        /* \"#utility.yul\":9353:9772   */\n    tag_66:\n        /* \"#utility.yul\":9519:9523   */\n      0x00\n        /* \"#utility.yul\":9557:9559   */\n      0x20\n        /* \"#utility.yul\":9546:9555   */\n      dup3\n        /* \"#utility.yul\":9542:9560   */\n      add\n        /* \"#utility.yul\":9534:9560   */\n      swap1\n      pop\n        /* \"#utility.yul\":9606:9615   */\n      dup2\n        /* \"#utility.yul\":9600:9604   */\n      dup2\n        /* \"#utility.yul\":9596:9616   */\n      sub\n        /* \"#utility.yul\":9592:9593   */\n      0x00\n        /* \"#utility.yul\":9581:9590   */\n      dup4\n        /* \"#utility.yul\":9577:9594   */\n      add\n        /* \"#utility.yul\":9570:9617   */\n      mstore\n        /* \"#utility.yul\":9634:9765   */\n      tag_285\n        /* \"#utility.yul\":9760:9764   */\n      dup2\n        /* \"#utility.yul\":9634:9765   */\n      tag_151\n      jump\t// in\n    tag_285:\n        /* \"#utility.yul\":9626:9765   */\n      swap1\n      pop\n        /* \"#utility.yul\":9353:9772   */\n      swap2\n      swap1\n      pop\n      jump\t// out\n        /* \"#utility.yul\":9778:9926   */\n    tag_152:\n        /* \"#utility.yul\":9880:9891   */\n      0x00\n        /* \"#utility.yul\":9917:9920   */\n      dup2\n        /* \"#utility.yul\":9902:9920   */\n      swap1\n      pop\n        /* \"#utility.yul\":9778:9926   */\n      swap3\n      swap2\n      pop\n      pop\n      jump\t// out\n        /* \"#utility.yul\":9932:10322   */\n    tag_153:\n        /* \"#utility.yul\":10038:10041   */\n      0x00\n        /* \"#utility.yul\":10066:10105   */\n      tag_288\n        /* \"#utility.yul\":10099:10104   */\n      dup3\n        /* \"#utility.yul\":10066:10105   */\n      tag_135\n      jump\t// in\n    tag_288:\n        /* \"#utility.yul\":10121:10210   */\n      tag_289\n        /* \"#utility.yul\":10203:10209   */\n      dup2\n        /* \"#utility.yul\":10198:10201   */\n      dup6\n        /* \"#utility.yul\":10121:10210   */\n      tag_152\n      jump\t// in\n    tag_289:\n        /* \"#utility.yul\":10114:10210   */\n      swap4\n      pop\n        /* \"#utility.yul\":10219:10284   */\n      tag_290\n        /* \"#utility.yul\":10277:10283   */\n      dup2\n        /* \"#utility.yul\":10272:10275   */\n      dup6\n        /* \"#utility.yul\":10265:10269   */\n      0x20\n        /* \"#utility.yul\":10258:10263   */\n      dup7\n        /* \"#utility.yul\":10254:10270   */\n      add\n        /* \"#utility.yul\":10219:10284   */\n      tag_137\n      jump\t// in\n    tag_290:\n        /* \"#utility.yul\":10309:10315   */\n      dup1\n        /* \"#utility.yul\":10304:10307   */\n      dup5\n        /* \"#utility.yul\":10300:10316   */\n      add\n        /* \"#utility.yul\":10293:10316   */\n      swap2\n      pop\n        /* \"#utility.yul\":10042:10322   */\n      pop\n        /* \"#utility.yul\":9932:10322   */\n      swap3\n      swap2\n      pop\n      pop\n      jump\t// out\n        /* \"#utility.yul\":10328:10603   */\n    tag_68:\n        /* \"#utility.yul\":10460:10463   */\n      0x00\n        /* \"#utility.yul\":10482:10577   */\n      tag_292\n        /* \"#utility.yul\":10573:10576   */\n      dup3\n        /* \"#utility.yul\":10564:10570   */\n      dup5\n        /* \"#utility.yul\":10482:10577   */\n      tag_153\n      jump\t// in\n    tag_292:\n        /* \"#utility.yul\":10475:10577   */\n      swap2\n      pop\n        /* \"#utility.yul\":10594:10597   */\n      dup2\n        /* \"#utility.yul\":10587:10597   */\n      swap1\n      pop\n        /* \"#utility.yul\":10328:10603   */\n      swap3\n      swap2\n      pop\n      pop\n      jump\t// out\n        /* \"#utility.yul\":10609:10780   */\n    tag_154:\n        /* \"#utility.yul\":10749:10772   */\n      0x50726f6475637420646f657327742065786973742e0000000000000000000000\n        /* \"#utility.yul\":10745:10746   */\n      0x00\n        /* \"#utility.yul\":10737:10743   */\n      dup3\n        /* \"#utility.yul\":10733:10747   */\n      add\n        /* \"#utility.yul\":10726:10773   */\n      mstore\n        /* \"#utility.yul\":10609:10780   */\n      pop\n      jump\t// out\n        /* \"#utility.yul\":10786:11152   */\n    tag_155:\n        /* \"#utility.yul\":10928:10931   */\n      0x00\n        /* \"#utility.yul\":10949:11016   */\n      tag_295\n        /* \"#utility.yul\":11013:11015   */\n      0x15\n        /* \"#utility.yul\":11008:11011   */\n      dup4\n        /* \"#utility.yul\":10949:11016   */\n      tag_136\n      jump\t// in\n    tag_295:\n        /* \"#utility.yul\":10942:11016   */\n      swap2\n      pop\n        /* \"#utility.yul\":11025:11118   */\n      tag_296\n        /* \"#utility.yul\":11114:11117   */\n      dup3\n        /* \"#utility.yul\":11025:11118   */\n      tag_154\n      jump\t// in\n    tag_296:\n        /* \"#utility.yul\":11143:11145   */\n      0x20\n        /* \"#utility.yul\":11138:11141   */\n      dup3\n        /* \"#utility.yul\":11134:11146   */\n      add\n        /* \"#utility.yul\":11127:11146   */\n      swap1\n      pop\n        /* \"#utility.yul\":10786:11152   */\n      swap2\n      swap1\n      pop\n      jump\t// out\n        /* \"#utility.yul\":11158:11577   */\n    tag_71:\n        /* \"#utility.yul\":11324:11328   */\n      0x00\n        /* \"#utility.yul\":11362:11364   */\n      0x20\n        /* \"#utility.yul\":11351:11360   */\n      dup3\n        /* \"#utility.yul\":11347:11365   */\n      add\n        /* \"#utility.yul\":11339:11365   */\n      swap1\n      pop\n        /* \"#utility.yul\":11411:11420   */\n      dup2\n        /* \"#utility.yul\":11405:11409   */\n      dup2\n        /* \"#utility.yul\":11401:11421   */\n      sub\n        /* \"#utility.yul\":11397:11398   */\n      0x00\n        /* \"#utility.yul\":11386:11395   */\n      dup4\n        /* \"#utility.yul\":11382:11399   */\n      add\n        /* \"#utility.yul\":11375:11422   */\n      mstore\n        /* \"#utility.yul\":11439:11570   */\n      tag_298\n        /* \"#utility.yul\":11565:11569   */\n      dup2\n        /* \"#utility.yul\":11439:11570   */\n      tag_155\n      jump\t// in\n    tag_298:\n        /* \"#utility.yul\":11431:11570   */\n      swap1\n      pop\n        /* \"#utility.yul\":11158:11577   */\n      swap2\n      swap1\n      pop\n      jump\t// out\n        /* \"#utility.yul\":11583:11761   */\n    tag_156:\n        /* \"#utility.yul\":11723:11753   */\n      0x4f6e6c79204f6e7765722063616e207570646174652073746f636b2e00000000\n        /* \"#utility.yul\":11719:11720   */\n      0x00\n        /* \"#utility.yul\":11711:11717   */\n      dup3\n        /* \"#utility.yul\":11707:11721   */\n      add\n        /* \"#utility.yul\":11700:11754   */\n      mstore\n        /* \"#utility.yul\":11583:11761   */\n      pop\n      jump\t// out\n        /* \"#utility.yul\":11767:12133   */\n    tag_157:\n        /* \"#utility.yul\":11909:11912   */\n      0x00\n        /* \"#utility.yul\":11930:11997   */\n      tag_301\n        /* \"#utility.yul\":11994:11996   */\n      0x1c\n        /* \"#utility.yul\":11989:11992   */\n      dup4\n        /* \"#utility.yul\":11930:11997   */\n      tag_136\n      jump\t// in\n    tag_301:\n        /* \"#utility.yul\":11923:11997   */\n      swap2\n      pop\n        /* \"#utility.yul\":12006:12099   */\n      tag_302\n        /* \"#utility.yul\":12095:12098   */\n      dup3\n        /* \"#utility.yul\":12006:12099   */\n      tag_156\n      jump\t// in\n    tag_302:\n        /* \"#utility.yul\":12124:12126   */\n      0x20\n        /* \"#utility.yul\":12119:12122   */\n      dup3\n        /* \"#utility.yul\":12115:12127   */\n      add\n        /* \"#utility.yul\":12108:12127   */\n      swap1\n      pop\n        /* \"#utility.yul\":11767:12133   */\n      swap2\n      swap1\n      pop\n      jump\t// out\n        /* \"#utility.yul\":12139:12558   */\n    tag_85:\n        /* \"#utility.yul\":12305:12309   */\n      0x00\n        /* \"#utility.yul\":12343:12345   */\n      0x20\n        /* \"#utility.yul\":12332:12341   */\n      dup3\n        /* \"#utility.yul\":12328:12346   */\n      add\n        /* \"#utility.yul\":12320:12346   */\n      swap1\n      pop\n        /* \"#utility.yul\":12392:12401   */\n      dup2\n        /* \"#utility.yul\":12386:12390   */\n      dup2\n        /* \"#utility.yul\":12382:12402   */\n      sub\n        /* \"#utility.yul\":12378:12379   */\n      0x00\n        /* \"#utility.yul\":12367:12376   */\n      dup4\n        /* \"#utility.yul\":12363:12380   */\n      add\n        /* \"#utility.yul\":12356:12403   */\n      mstore\n        /* \"#utility.yul\":12420:12551   */\n      tag_304\n        /* \"#utility.yul\":12546:12550   */\n      dup2\n        /* \"#utility.yul\":12420:12551   */\n      tag_157\n      jump\t// in\n    tag_304:\n        /* \"#utility.yul\":12412:12551   */\n      swap1\n      pop\n        /* \"#utility.yul\":12139:12558   */\n      swap2\n      swap1\n      pop\n      jump\t// out\n        /* \"#utility.yul\":12564:12744   */\n    tag_158:\n        /* \"#utility.yul\":12612:12689   */\n      0x4e487b7100000000000000000000000000000000000000000000000000000000\n        /* \"#utility.yul\":12609:12610   */\n      0x00\n        /* \"#utility.yul\":12602:12690   */\n      mstore\n        /* \"#utility.yul\":12709:12713   */\n      0x11\n        /* \"#utility.yul\":12706:12707   */\n      0x04\n        /* \"#utility.yul\":12699:12714   */\n      mstore\n        /* \"#utility.yul\":12733:12737   */\n      0x24\n        /* \"#utility.yul\":12730:12731   */\n      0x00\n        /* \"#utility.yul\":12723:12738   */\n      revert\n        /* \"#utility.yul\":12750:13160   */\n    tag_93:\n        /* \"#utility.yul\":12790:12797   */\n      0x00\n        /* \"#utility.yul\":12813:12833   */\n      tag_307\n        /* \"#utility.yul\":12831:12832   */\n      dup3\n        /* \"#utility.yul\":12813:12833   */\n      tag_139\n      jump\t// in\n    tag_307:\n        /* \"#utility.yul\":12808:12833   */\n      swap2\n      pop\n        /* \"#utility.yul\":12847:12867   */\n      tag_308\n        /* \"#utility.yul\":12865:12866   */\n      dup4\n        /* \"#utility.yul\":12847:12867   */\n      tag_139\n      jump\t// in\n    tag_308:\n        /* \"#utility.yul\":12842:12867   */\n      swap3\n      pop\n        /* \"#utility.yul\":12902:12903   */\n      dup3\n        /* \"#utility.yul\":12899:12900   */\n      dup3\n        /* \"#utility.yul\":12895:12904   */\n      mul\n        /* \"#utility.yul\":12924:12954   */\n      tag_309\n        /* \"#utility.yul\":12942:12953   */\n      dup2\n        /* \"#utility.yul\":12924:12954   */\n      tag_139\n      jump\t// in\n    tag_309:\n        /* \"#utility.yul\":12913:12954   */\n      swap2\n      pop\n        /* \"#utility.yul\":13103:13104   */\n      dup3\n        /* \"#utility.yul\":13094:13101   */\n      dup3\n        /* \"#utility.yul\":13090:13105   */\n      div\n        /* \"#utility.yul\":13087:13088   */\n      dup5\n        /* \"#utility.yul\":13084:13106   */\n      eq\n        /* \"#utility.yul\":13064:13065   */\n      dup4\n        /* \"#utility.yul\":13057:13066   */\n      iszero\n        /* \"#utility.yul\":13037:13120   */\n      or\n        /* \"#utility.yul\":13014:13153   */\n      tag_310\n      jumpi\n        /* \"#utility.yul\":13133:13151   */\n      tag_311\n      tag_158\n      jump\t// in\n    tag_311:\n        /* \"#utility.yul\":13014:13153   */\n    tag_310:\n        /* \"#utility.yul\":12798:13160   */\n      pop\n        /* \"#utility.yul\":12750:13160   */\n      swap3\n      swap2\n      pop\n      pop\n      jump\t// out\n        /* \"#utility.yul\":13166:13333   */\n    tag_159:\n        /* \"#utility.yul\":13306:13325   */\n      0x496e636f7272656374207061796d656e74000000000000000000000000000000\n        /* \"#utility.yul\":13302:13303   */\n      0x00\n        /* \"#utility.yul\":13294:13300   */\n      dup3\n        /* \"#utility.yul\":13290:13304   */\n      add\n        /* \"#utility.yul\":13283:13326   */\n      mstore\n        /* \"#utility.yul\":13166:13333   */\n      pop\n      jump\t// out\n        /* \"#utility.yul\":13339:13705   */\n    tag_160:\n        /* \"#utility.yul\":13481:13484   */\n      0x00\n        /* \"#utility.yul\":13502:13569   */\n      tag_314\n        /* \"#utility.yul\":13566:13568   */\n      0x11\n        /* \"#utility.yul\":13561:13564   */\n      dup4\n        /* \"#utility.yul\":13502:13569   */\n      tag_136\n      jump\t// in\n    tag_314:\n        /* \"#utility.yul\":13495:13569   */\n      swap2\n      pop\n        /* \"#utility.yul\":13578:13671   */\n      tag_315\n        /* \"#utility.yul\":13667:13670   */\n      dup3\n        /* \"#utility.yul\":13578:13671   */\n      tag_159\n      jump\t// in\n    tag_315:\n        /* \"#utility.yul\":13696:13698   */\n      0x20\n        /* \"#utility.yul\":13691:13694   */\n      dup3\n        /* \"#utility.yul\":13687:13699   */\n      add\n        /* \"#utility.yul\":13680:13699   */\n      swap1\n      pop\n        /* \"#utility.yul\":13339:13705   */\n      swap2\n      swap1\n      pop\n      jump\t// out\n        /* \"#utility.yul\":13711:14130   */\n    tag_96:\n        /* \"#utility.yul\":13877:13881   */\n      0x00\n        /* \"#utility.yul\":13915:13917   */\n      0x20\n        /* \"#utility.yul\":13904:13913   */\n      dup3\n        /* \"#utility.yul\":13900:13918   */\n      add\n        /* \"#utility.yul\":13892:13918   */\n      swap1\n      pop\n        /* \"#utility.yul\":13964:13973   */\n      dup2\n        /* \"#utility.yul\":13958:13962   */\n      dup2\n        /* \"#utility.yul\":13954:13974   */\n      sub\n        /* \"#utility.yul\":13950:13951   */\n      0x00\n        /* \"#utility.yul\":13939:13948   */\n      dup4\n        /* \"#utility.yul\":13935:13952   */\n      add\n        /* \"#utility.yul\":13928:13975   */\n      mstore\n        /* \"#utility.yul\":13992:14123   */\n      tag_317\n        /* \"#utility.yul\":14118:14122   */\n      dup2\n        /* \"#utility.yul\":13992:14123   */\n      tag_160\n      jump\t// in\n    tag_317:\n        /* \"#utility.yul\":13984:14123   */\n      swap1\n      pop\n        /* \"#utility.yul\":13711:14130   */\n      swap2\n      swap1\n      pop\n      jump\t// out\n        /* \"#utility.yul\":14136:14304   */\n    tag_161:\n        /* \"#utility.yul\":14276:14296   */\n      0x4e6f7420656e6f756768742053746f636b2e0000000000000000000000000000\n        /* \"#utility.yul\":14272:14273   */\n      0x00\n        /* \"#utility.yul\":14264:14270   */\n      dup3\n        /* \"#utility.yul\":14260:14274   */\n      add\n        /* \"#utility.yul\":14253:14297   */\n      mstore\n        /* \"#utility.yul\":14136:14304   */\n      pop\n      jump\t// out\n        /* \"#utility.yul\":14310:14676   */\n    tag_162:\n        /* \"#utility.yul\":14452:14455   */\n      0x00\n        /* \"#utility.yul\":14473:14540   */\n      tag_320\n        /* \"#utility.yul\":14537:14539   */\n      0x12\n        /* \"#utility.yul\":14532:14535   */\n      dup4\n        /* \"#utility.yul\":14473:14540   */\n      tag_136\n      jump\t// in\n    tag_320:\n        /* \"#utility.yul\":14466:14540   */\n      swap2\n      pop\n        /* \"#utility.yul\":14549:14642   */\n      tag_321\n        /* \"#utility.yul\":14638:14641   */\n      dup3\n        /* \"#utility.yul\":14549:14642   */\n      tag_161\n      jump\t// in\n    tag_321:\n        /* \"#utility.yul\":14667:14669   */\n      0x20\n        /* \"#utility.yul\":14662:14665   */\n      dup3\n        /* \"#utility.yul\":14658:14670   */\n      add\n        /* \"#utility.yul\":14651:14670   */\n      swap1\n      pop\n        /* \"#utility.yul\":14310:14676   */\n      swap2\n      swap1\n      pop\n      jump\t// out\n        /* \"#utility.yul\":14682:15101   */\n    tag_100:\n        /* \"#utility.yul\":14848:14852   */\n      0x00\n        /* \"#utility.yul\":14886:14888   */\n      0x20\n        /* \"#utility.yul\":14875:14884   */\n      dup3\n        /* \"#utility.yul\":14871:14889   */\n      add\n        /* \"#utility.yul\":14863:14889   */\n      swap1\n      pop\n        /* \"#utility.yul\":14935:14944   */\n      dup2\n        /* \"#utility.yul\":14929:14933   */\n      dup2\n        /* \"#utility.yul\":14925:14945   */\n      sub\n        /* \"#utility.yul\":14921:14922   */\n      0x00\n        /* \"#utility.yul\":14910:14919   */\n      dup4\n        /* \"#utility.yul\":14906:14923   */\n      add\n        /* \"#utility.yul\":14899:14946   */\n      mstore\n        /* \"#utility.yul\":14963:15094   */\n      tag_323\n        /* \"#utility.yul\":15089:15093   */\n      dup2\n        /* \"#utility.yul\":14963:15094   */\n      tag_162\n      jump\t// in\n    tag_323:\n        /* \"#utility.yul\":14955:15094   */\n      swap1\n      pop\n        /* \"#utility.yul\":14682:15101   */\n      swap2\n      swap1\n      pop\n      jump\t// out\n        /* \"#utility.yul\":15107:15301   */\n    tag_103:\n        /* \"#utility.yul\":15147:15151   */\n      0x00\n        /* \"#utility.yul\":15167:15187   */\n      tag_325\n        /* \"#utility.yul\":15185:15186   */\n      dup3\n        /* \"#utility.yul\":15167:15187   */\n      tag_139\n      jump\t// in\n    tag_325:\n        /* \"#utility.yul\":15162:15187   */\n      swap2\n      pop\n        /* \"#utility.yul\":15201:15221   */\n      tag_326\n        /* \"#utility.yul\":15219:15220   */\n      dup4\n        /* \"#utility.yul\":15201:15221   */\n      tag_139\n      jump\t// in\n    tag_326:\n        /* \"#utility.yul\":15196:15221   */\n      swap3\n      pop\n        /* \"#utility.yul\":15245:15246   */\n      dup3\n        /* \"#utility.yul\":15242:15243   */\n      dup3\n        /* \"#utility.yul\":15238:15247   */\n      sub\n        /* \"#utility.yul\":15230:15247   */\n      swap1\n      pop\n        /* \"#utility.yul\":15269:15270   */\n      dup2\n        /* \"#utility.yul\":15263:15267   */\n      dup2\n        /* \"#utility.yul\":15260:15271   */\n      gt\n        /* \"#utility.yul\":15257:15294   */\n      iszero\n      tag_327\n      jumpi\n        /* \"#utility.yul\":15274:15292   */\n      tag_328\n      tag_158\n      jump\t// in\n    tag_328:\n        /* \"#utility.yul\":15257:15294   */\n    tag_327:\n        /* \"#utility.yul\":15107:15301   */\n      swap3\n      swap2\n      pop\n      pop\n      jump\t// out\n        /* \"#utility.yul\":15307:15534   */\n    tag_163:\n        /* \"#utility.yul\":15447:15481   */\n      0x6f6e6c7920746865206f6e7765722063616e2064657374726f79207468652063\n        /* \"#utility.yul\":15443:15444   */\n      0x00\n        /* \"#utility.yul\":15435:15441   */\n      dup3\n        /* \"#utility.yul\":15431:15445   */\n      add\n        /* \"#utility.yul\":15424:15482   */\n      mstore\n        /* \"#utility.yul\":15516:15526   */\n      0x6f6e74726163742e000000000000000000000000000000000000000000000000\n        /* \"#utility.yul\":15511:15513   */\n      0x20\n        /* \"#utility.yul\":15503:15509   */\n      dup3\n        /* \"#utility.yul\":15499:15514   */\n      add\n        /* \"#utility.yul\":15492:15527   */\n      mstore\n        /* \"#utility.yul\":15307:15534   */\n      pop\n      jump\t// out\n        /* \"#utility.yul\":15540:15906   */\n    tag_164:\n        /* \"#utility.yul\":15682:15685   */\n      0x00\n        /* \"#utility.yul\":15703:15770   */\n      tag_331\n        /* \"#utility.yul\":15767:15769   */\n      0x28\n        /* \"#utility.yul\":15762:15765   */\n      dup4\n        /* \"#utility.yul\":15703:15770   */\n      tag_136\n      jump\t// in\n    tag_331:\n        /* \"#utility.yul\":15696:15770   */\n      swap2\n      pop\n        /* \"#utility.yul\":15779:15872   */\n      tag_332\n        /* \"#utility.yul\":15868:15871   */\n      dup3\n        /* \"#utility.yul\":15779:15872   */\n      tag_163\n      jump\t// in\n    tag_332:\n        /* \"#utility.yul\":15897:15899   */\n      0x40\n        /* \"#utility.yul\":15892:15895   */\n      dup3\n        /* \"#utility.yul\":15888:15900   */\n      add\n        /* \"#utility.yul\":15881:15900   */\n      swap1\n      pop\n        /* \"#utility.yul\":15540:15906   */\n      swap2\n      swap1\n      pop\n      jump\t// out\n        /* \"#utility.yul\":15912:16331   */\n    tag_107:\n        /* \"#utility.yul\":16078:16082   */\n      0x00\n        /* \"#utility.yul\":16116:16118   */\n      0x20\n        /* \"#utility.yul\":16105:16114   */\n      dup3\n        /* \"#utility.yul\":16101:16119   */\n      add\n        /* \"#utility.yul\":16093:16119   */\n      swap1\n      pop\n        /* \"#utility.yul\":16165:16174   */\n      dup2\n        /* \"#utility.yul\":16159:16163   */\n      dup2\n        /* \"#utility.yul\":16155:16175   */\n      sub\n        /* \"#utility.yul\":16151:16152   */\n      0x00\n        /* \"#utility.yul\":16140:16149   */\n      dup4\n        /* \"#utility.yul\":16136:16153   */\n      add\n        /* \"#utility.yul\":16129:16176   */\n      mstore\n        /* \"#utility.yul\":16193:16324   */\n      tag_334\n        /* \"#utility.yul\":16319:16323   */\n      dup2\n        /* \"#utility.yul\":16193:16324   */\n      tag_164\n      jump\t// in\n    tag_334:\n        /* \"#utility.yul\":16185:16324   */\n      swap1\n      pop\n        /* \"#utility.yul\":15912:16331   */\n      swap2\n      swap1\n      pop\n      jump\t// out\n        /* \"#utility.yul\":16337:16516   */\n    tag_165:\n        /* \"#utility.yul\":16477:16508   */\n      0x4f6e6c79204f6e7765722063616e207265766f6b65206163636573732e000000\n        /* \"#utility.yul\":16473:16474   */\n      0x00\n        /* \"#utility.yul\":16465:16471   */\n      dup3\n        /* \"#utility.yul\":16461:16475   */\n      add\n        /* \"#utility.yul\":16454:16509   */\n      mstore\n        /* \"#utility.yul\":16337:16516   */\n      pop\n      jump\t// out\n        /* \"#utility.yul\":16522:16888   */\n    tag_166:\n        /* \"#utility.yul\":16664:16667   */\n      0x00\n        /* \"#utility.yul\":16685:16752   */\n      tag_337\n        /* \"#utility.yul\":16749:16751   */\n      0x1d\n        /* \"#utility.yul\":16744:16747   */\n      dup4\n        /* \"#utility.yul\":16685:16752   */\n      tag_136\n      jump\t// in\n    tag_337:\n        /* \"#utility.yul\":16678:16752   */\n      swap2\n      pop\n        /* \"#utility.yul\":16761:16854   */\n      tag_338\n        /* \"#utility.yul\":16850:16853   */\n      dup3\n        /* \"#utility.yul\":16761:16854   */\n      tag_165\n      jump\t// in\n    tag_338:\n        /* \"#utility.yul\":16879:16881   */\n      0x20\n        /* \"#utility.yul\":16874:16877   */\n      dup3\n        /* \"#utility.yul\":16870:16882   */\n      add\n        /* \"#utility.yul\":16863:16882   */\n      swap1\n      pop\n        /* \"#utility.yul\":16522:16888   */\n      swap2\n      swap1\n      pop\n      jump\t// out\n        /* \"#utility.yul\":16894:17313   */\n    tag_111:\n        /* \"#utility.yul\":17060:17064   */\n      0x00\n        /* \"#utility.yul\":17098:17100   */\n      0x20\n        /* \"#utility.yul\":17087:17096   */\n      dup3\n        /* \"#utility.yul\":17083:17101   */\n      add\n        /* \"#utility.yul\":17075:17101   */\n      swap1\n      pop\n        /* \"#utility.yul\":17147:17156   */\n      dup2\n        /* \"#utility.yul\":17141:17145   */\n      dup2\n        /* \"#utility.yul\":17137:17157   */\n      sub\n        /* \"#utility.yul\":17133:17134   */\n      0x00\n        /* \"#utility.yul\":17122:17131   */\n      dup4\n        /* \"#utility.yul\":17118:17135   */\n      add\n        /* \"#utility.yul\":17111:17158   */\n      mstore\n        /* \"#utility.yul\":17175:17306   */\n      tag_340\n        /* \"#utility.yul\":17301:17305   */\n      dup2\n        /* \"#utility.yul\":17175:17306   */\n      tag_166\n      jump\t// in\n    tag_340:\n        /* \"#utility.yul\":17167:17306   */\n      swap1\n      pop\n        /* \"#utility.yul\":16894:17313   */\n      swap2\n      swap1\n      pop\n      jump\t// out\n        /* \"#utility.yul\":17319:17549   */\n    tag_167:\n        /* \"#utility.yul\":17459:17493   */\n      0x43616e6e6f74207265766f6b652061636365737320666f722074686520637572\n        /* \"#utility.yul\":17455:17456   */\n      0x00\n        /* \"#utility.yul\":17447:17453   */\n      dup3\n        /* \"#utility.yul\":17443:17457   */\n      add\n        /* \"#utility.yul\":17436:17494   */\n      mstore\n        /* \"#utility.yul\":17528:17541   */\n      0x72656e74206f776e65722e000000000000000000000000000000000000000000\n        /* \"#utility.yul\":17523:17525   */\n      0x20\n        /* \"#utility.yul\":17515:17521   */\n      dup3\n        /* \"#utility.yul\":17511:17526   */\n      add\n        /* \"#utility.yul\":17504:17542   */\n      mstore\n        /* \"#utility.yul\":17319:17549   */\n      pop\n      jump\t// out\n        /* \"#utility.yul\":17555:17921   */\n    tag_168:\n        /* \"#utility.yul\":17697:17700   */\n      0x00\n        /* \"#utility.yul\":17718:17785   */\n      tag_343\n        /* \"#utility.yul\":17782:17784   */\n      0x2b\n        /* \"#utility.yul\":17777:17780   */\n      dup4\n        /* \"#utility.yul\":17718:17785   */\n      tag_136\n      jump\t// in\n    tag_343:\n        /* \"#utility.yul\":17711:17785   */\n      swap2\n      pop\n        /* \"#utility.yul\":17794:17887   */\n      tag_344\n        /* \"#utility.yul\":17883:17886   */\n      dup3\n        /* \"#utility.yul\":17794:17887   */\n      tag_167\n      jump\t// in\n    tag_344:\n        /* \"#utility.yul\":17912:17914   */\n      0x40\n        /* \"#utility.yul\":17907:17910   */\n      dup3\n        /* \"#utility.yul\":17903:17915   */\n      add\n        /* \"#utility.yul\":17896:17915   */\n      swap1\n      pop\n        /* \"#utility.yul\":17555:17921   */\n      swap2\n      swap1\n      pop\n      jump\t// out\n        /* \"#utility.yul\":17927:18346   */\n    tag_114:\n        /* \"#utility.yul\":18093:18097   */\n      0x00\n        /* \"#utility.yul\":18131:18133   */\n      0x20\n        /* \"#utility.yul\":18120:18129   */\n      dup3\n        /* \"#utility.yul\":18116:18134   */\n      add\n        /* \"#utility.yul\":18108:18134   */\n      swap1\n      pop\n        /* \"#utility.yul\":18180:18189   */\n      dup2\n        /* \"#utility.yul\":18174:18178   */\n      dup2\n        /* \"#utility.yul\":18170:18190   */\n      sub\n        /* \"#utility.yul\":18166:18167   */\n      0x00\n        /* \"#utility.yul\":18155:18164   */\n      dup4\n        /* \"#utility.yul\":18151:18168   */\n      add\n        /* \"#utility.yul\":18144:18191   */\n      mstore\n        /* \"#utility.yul\":18208:18339   */\n      tag_346\n        /* \"#utility.yul\":18334:18338   */\n      dup2\n        /* \"#utility.yul\":18208:18339   */\n      tag_168\n      jump\t// in\n    tag_346:\n        /* \"#utility.yul\":18200:18339   */\n      swap1\n      pop\n        /* \"#utility.yul\":17927:18346   */\n      swap2\n      swap1\n      pop\n      jump\t// out\n        /* \"#utility.yul\":18352:18530   */\n    tag_169:\n        /* \"#utility.yul\":18492:18522   */\n      0x4f6e6c79206f776e65722063616e206164642070726f64756374732e00000000\n        /* \"#utility.yul\":18488:18489   */\n      0x00\n        /* \"#utility.yul\":18480:18486   */\n      dup3\n        /* \"#utility.yul\":18476:18490   */\n      add\n        /* \"#utility.yul\":18469:18523   */\n      mstore\n        /* \"#utility.yul\":18352:18530   */\n      pop\n      jump\t// out\n        /* \"#utility.yul\":18536:18902   */\n    tag_170:\n        /* \"#utility.yul\":18678:18681   */\n      0x00\n        /* \"#utility.yul\":18699:18766   */\n      tag_349\n        /* \"#utility.yul\":18763:18765   */\n      0x1c\n        /* \"#utility.yul\":18758:18761   */\n      dup4\n        /* \"#utility.yul\":18699:18766   */\n      tag_136\n      jump\t// in\n    tag_349:\n        /* \"#utility.yul\":18692:18766   */\n      swap2\n      pop\n        /* \"#utility.yul\":18775:18868   */\n      tag_350\n        /* \"#utility.yul\":18864:18867   */\n      dup3\n        /* \"#utility.yul\":18775:18868   */\n      tag_169\n      jump\t// in\n    tag_350:\n        /* \"#utility.yul\":18893:18895   */\n      0x20\n        /* \"#utility.yul\":18888:18891   */\n      dup3\n        /* \"#utility.yul\":18884:18896   */\n      add\n        /* \"#utility.yul\":18877:18896   */\n      swap1\n      pop\n        /* \"#utility.yul\":18536:18902   */\n      swap2\n      swap1\n      pop\n      jump\t// out\n        /* \"#utility.yul\":18908:19327   */\n    tag_118:\n        /* \"#utility.yul\":19074:19078   */\n      0x00\n        /* \"#utility.yul\":19112:19114   */\n      0x20\n        /* \"#utility.yul\":19101:19110   */\n      dup3\n        /* \"#utility.yul\":19097:19115   */\n      add\n        /* \"#utility.yul\":19089:19115   */\n      swap1\n      pop\n        /* \"#utility.yul\":19161:19170   */\n      dup2\n        /* \"#utility.yul\":19155:19159   */\n      dup2\n        /* \"#utility.yul\":19151:19171   */\n      sub\n        /* \"#utility.yul\":19147:19148   */\n      0x00\n        /* \"#utility.yul\":19136:19145   */\n      dup4\n        /* \"#utility.yul\":19132:19149   */\n      add\n        /* \"#utility.yul\":19125:19172   */\n      mstore\n        /* \"#utility.yul\":19189:19320   */\n      tag_352\n        /* \"#utility.yul\":19315:19319   */\n      dup2\n        /* \"#utility.yul\":19189:19320   */\n      tag_170\n      jump\t// in\n    tag_352:\n        /* \"#utility.yul\":19181:19320   */\n      swap1\n      pop\n        /* \"#utility.yul\":18908:19327   */\n      swap2\n      swap1\n      pop\n      jump\t// out\n        /* \"#utility.yul\":19333:19474   */\n    tag_171:\n        /* \"#utility.yul\":19382:19386   */\n      0x00\n        /* \"#utility.yul\":19405:19408   */\n      dup2\n        /* \"#utility.yul\":19397:19408   */\n      swap1\n      pop\n        /* \"#utility.yul\":19428:19431   */\n      dup2\n        /* \"#utility.yul\":19425:19426   */\n      0x00\n        /* \"#utility.yul\":19418:19432   */\n      mstore\n        /* \"#utility.yul\":19462:19466   */\n      0x20\n        /* \"#utility.yul\":19459:19460   */\n      0x00\n        /* \"#utility.yul\":19449:19467   */\n      keccak256\n        /* \"#utility.yul\":19441:19467   */\n      swap1\n      pop\n        /* \"#utility.yul\":19333:19474   */\n      swap2\n      swap1\n      pop\n      jump\t// out\n        /* \"#utility.yul\":19480:19573   */\n    tag_172:\n        /* \"#utility.yul\":19517:19523   */\n      0x00\n        /* \"#utility.yul\":19564:19566   */\n      0x20\n        /* \"#utility.yul\":19559:19561   */\n      0x1f\n        /* \"#utility.yul\":19552:19557   */\n      dup4\n        /* \"#utility.yul\":19548:19562   */\n      add\n        /* \"#utility.yul\":19544:19567   */\n      div\n        /* \"#utility.yul\":19534:19567   */\n      swap1\n      pop\n        /* \"#utility.yul\":19480:19573   */\n      swap2\n      swap1\n      pop\n      jump\t// out\n        /* \"#utility.yul\":19579:19686   */\n    tag_173:\n        /* \"#utility.yul\":19623:19631   */\n      0x00\n        /* \"#utility.yul\":19673:19678   */\n      dup3\n        /* \"#utility.yul\":19667:19671   */\n      dup3\n        /* \"#utility.yul\":19663:19679   */\n      shl\n        /* \"#utility.yul\":19642:19679   */\n      swap1\n      pop\n        /* \"#utility.yul\":19579:19686   */\n      swap3\n      swap2\n      pop\n      pop\n      jump\t// out\n        /* \"#utility.yul\":19692:20085   */\n    tag_174:\n        /* \"#utility.yul\":19761:19767   */\n      0x00\n        /* \"#utility.yul\":19811:19812   */\n      0x08\n        /* \"#utility.yul\":19799:19809   */\n      dup4\n        /* \"#utility.yul\":19795:19813   */\n      mul\n        /* \"#utility.yul\":19834:19931   */\n      tag_357\n        /* \"#utility.yul\":19864:19930   */\n      0xffffffffffffffffffffffffffffffffffffffffffffffffffffffffffffffff\n        /* \"#utility.yul\":19853:19862   */\n      dup3\n        /* \"#utility.yul\":19834:19931   */\n      tag_173\n      jump\t// in\n    tag_357:\n        /* \"#utility.yul\":19952:19991   */\n      tag_358\n        /* \"#utility.yul\":19982:19990   */\n      dup7\n        /* \"#utility.yul\":19971:19980   */\n      dup4\n        /* \"#utility.yul\":19952:19991   */\n      tag_173\n      jump\t// in\n    tag_358:\n        /* \"#utility.yul\":19940:19991   */\n      swap6\n      pop\n        /* \"#utility.yul\":20024:20028   */\n      dup1\n        /* \"#utility.yul\":20020:20029   */\n      not\n        /* \"#utility.yul\":20013:20018   */\n      dup5\n        /* \"#utility.yul\":20009:20030   */\n      and\n        /* \"#utility.yul\":20000:20030   */\n      swap4\n      pop\n        /* \"#utility.yul\":20073:20077   */\n      dup1\n        /* \"#utility.yul\":20063:20071   */\n      dup7\n        /* \"#utility.yul\":20059:20078   */\n      and\n        /* \"#utility.yul\":20052:20057   */\n      dup5\n        /* \"#utility.yul\":20049:20079   */\n      or\n        /* \"#utility.yul\":20039:20079   */\n      swap3\n      pop\n        /* \"#utility.yul\":19768:20085   */\n      pop\n      pop\n        /* \"#utility.yul\":19692:20085   */\n      swap4\n      swap3\n      pop\n      pop\n      pop\n      jump\t// out\n        /* \"#utility.yul\":20091:20151   */\n    tag_175:\n        /* \"#utility.yul\":20119:20122   */\n      0x00\n        /* \"#utility.yul\":20140:20145   */\n      dup2\n        /* \"#utility.yul\":20133:20145   */\n      swap1\n      pop\n        /* \"#utility.yul\":20091:20151   */\n      swap2\n      swap1\n      pop\n      jump\t// out\n        /* \"#utility.yul\":20157:20299   */\n    tag_176:\n        /* \"#utility.yul\":20207:20216   */\n      0x00\n        /* \"#utility.yul\":20240:20293   */\n      tag_361\n        /* \"#utility.yul\":20258:20292   */\n      tag_362\n        /* \"#utility.yul\":20267:20291   */\n      tag_363\n        /* \"#utility.yul\":20285:20290   */\n      dup5\n        /* \"#utility.yul\":20267:20291   */\n      tag_139\n      jump\t// in\n    tag_363:\n        /* \"#utility.yul\":20258:20292   */\n      tag_175\n      jump\t// in\n    tag_362:\n        /* \"#utility.yul\":20240:20293   */\n      tag_139\n      jump\t// in\n    tag_361:\n        /* \"#utility.yul\":20227:20293   */\n      swap1\n      pop\n        /* \"#utility.yul\":20157:20299   */\n      swap2\n      swap1\n      pop\n      jump\t// out\n        /* \"#utility.yul\":20305:20380   */\n    tag_177:\n        /* \"#utility.yul\":20348:20351   */\n      0x00\n        /* \"#utility.yul\":20369:20374   */\n      dup2\n        /* \"#utility.yul\":20362:20374   */\n      swap1\n      pop\n        /* \"#utility.yul\":20305:20380   */\n      swap2\n      swap1\n      pop\n      jump\t// out\n        /* \"#utility.yul\":20386:20655   */\n    tag_178:\n        /* \"#utility.yul\":20496:20535   */\n      tag_366\n        /* \"#utility.yul\":20527:20534   */\n      dup4\n        /* \"#utility.yul\":20496:20535   */\n      tag_176\n      jump\t// in\n    tag_366:\n        /* \"#utility.yul\":20557:20648   */\n      tag_367\n        /* \"#utility.yul\":20606:20647   */\n      tag_368\n        /* \"#utility.yul\":20630:20646   */\n      dup3\n        /* \"#utility.yul\":20606:20647   */\n      tag_177\n      jump\t// in\n    tag_368:\n        /* \"#utility.yul\":20598:20604   */\n      dup5\n        /* \"#utility.yul\":20591:20595   */\n      dup5\n        /* \"#utility.yul\":20585:20596   */\n      sload\n        /* \"#utility.yul\":20557:20648   */\n      tag_174\n      jump\t// in\n    tag_367:\n        /* \"#utility.yul\":20551:20555   */\n      dup3\n        /* \"#utility.yul\":20544:20649   */\n      sstore\n        /* \"#utility.yul\":20462:20655   */\n      pop\n        /* \"#utility.yul\":20386:20655   */\n      pop\n      pop\n      pop\n      jump\t// out\n        /* \"#utility.yul\":20661:20734   */\n    tag_179:\n        /* \"#utility.yul\":20706:20709   */\n      0x00\n        /* \"#utility.yul\":20661:20734   */\n      swap1\n      jump\t// out\n        /* \"#utility.yul\":20740:20929   */\n    tag_180:\n        /* \"#utility.yul\":20817:20849   */\n      tag_371\n      tag_179\n      jump\t// in\n    tag_371:\n        /* \"#utility.yul\":20858:20923   */\n      tag_372\n        /* \"#utility.yul\":20916:20922   */\n      dup2\n        /* \"#utility.yul\":20908:20914   */\n      dup5\n        /* \"#utility.yul\":20902:20906   */\n      dup5\n        /* \"#utility.yul\":20858:20923   */\n      tag_178\n      jump\t// in\n    tag_372:\n        /* \"#utility.yul\":20793:20929   */\n      pop\n        /* \"#utility.yul\":20740:20929   */\n      pop\n      pop\n      jump\t// out\n        /* \"#utility.yul\":20935:21121   */\n    tag_181:\n        /* \"#utility.yul\":20995:21115   */\n    tag_374:\n        /* \"#utility.yul\":21012:21015   */\n      dup2\n        /* \"#utility.yul\":21005:21010   */\n      dup2\n        /* \"#utility.yul\":21002:21016   */\n      lt\n        /* \"#utility.yul\":20995:21115   */\n      iszero\n      tag_376\n      jumpi\n        /* \"#utility.yul\":21066:21105   */\n      tag_377\n        /* \"#utility.yul\":21103:21104   */\n      0x00\n        /* \"#utility.yul\":21096:21101   */\n      dup3\n        /* \"#utility.yul\":21066:21105   */\n      tag_180\n      jump\t// in\n    tag_377:\n        /* \"#utility.yul\":21039:21040   */\n      0x01\n        /* \"#utility.yul\":21032:21037   */\n      dup2\n        /* \"#utility.yul\":21028:21041   */\n      add\n        /* \"#utility.yul\":21019:21041   */\n      swap1\n      pop\n        /* \"#utility.yul\":20995:21115   */\n      jump(tag_374)\n    tag_376:\n        /* \"#utility.yul\":20935:21121   */\n      pop\n      pop\n      jump\t// out\n        /* \"#utility.yul\":21127:21670   */\n    tag_182:\n        /* \"#utility.yul\":21228:21230   */\n      0x1f\n        /* \"#utility.yul\":21223:21226   */\n      dup3\n        /* \"#utility.yul\":21220:21231   */\n      gt\n        /* \"#utility.yul\":21217:21663   */\n      iszero\n      tag_379\n      jumpi\n        /* \"#utility.yul\":21262:21300   */\n      tag_380\n        /* \"#utility.yul\":21294:21299   */\n      dup2\n        /* \"#utility.yul\":21262:21300   */\n      tag_171\n      jump\t// in\n    tag_380:\n        /* \"#utility.yul\":21346:21375   */\n      tag_381\n        /* \"#utility.yul\":21364:21374   */\n      dup5\n        /* \"#utility.yul\":21346:21375   */\n      tag_172\n      jump\t// in\n    tag_381:\n        /* \"#utility.yul\":21336:21344   */\n      dup2\n        /* \"#utility.yul\":21332:21376   */\n      add\n        /* \"#utility.yul\":21529:21531   */\n      0x20\n        /* \"#utility.yul\":21517:21527   */\n      dup6\n        /* \"#utility.yul\":21514:21532   */\n      lt\n        /* \"#utility.yul\":21511:21560   */\n      iszero\n      tag_382\n      jumpi\n        /* \"#utility.yul\":21550:21558   */\n      dup2\n        /* \"#utility.yul\":21535:21558   */\n      swap1\n      pop\n        /* \"#utility.yul\":21511:21560   */\n    tag_382:\n        /* \"#utility.yul\":21573:21653   */\n      tag_383\n        /* \"#utility.yul\":21629:21651   */\n      tag_384\n        /* \"#utility.yul\":21647:21650   */\n      dup6\n        /* \"#utility.yul\":21629:21651   */\n      tag_172\n      jump\t// in\n    tag_384:\n        /* \"#utility.yul\":21619:21627   */\n      dup4\n        /* \"#utility.yul\":21615:21652   */\n      add\n        /* \"#utility.yul\":21602:21613   */\n      dup3\n        /* \"#utility.yul\":21573:21653   */\n      tag_181\n      jump\t// in\n    tag_383:\n        /* \"#utility.yul\":21232:21663   */\n      pop\n      pop\n        /* \"#utility.yul\":21217:21663   */\n    tag_379:\n        /* \"#utility.yul\":21127:21670   */\n      pop\n      pop\n      pop\n      jump\t// out\n        /* \"#utility.yul\":21676:21793   */\n    tag_183:\n        /* \"#utility.yul\":21730:21738   */\n      0x00\n        /* \"#utility.yul\":21780:21785   */\n      dup3\n        /* \"#utility.yul\":21774:21778   */\n      dup3\n        /* \"#utility.yul\":21770:21786   */\n      shr\n        /* \"#utility.yul\":21749:21786   */\n      swap1\n      pop\n        /* \"#utility.yul\":21676:21793   */\n      swap3\n      swap2\n      pop\n      pop\n      jump\t// out\n        /* \"#utility.yul\":21799:21968   */\n    tag_184:\n        /* \"#utility.yul\":21843:21849   */\n      0x00\n        /* \"#utility.yul\":21876:21927   */\n      tag_387\n        /* \"#utility.yul\":21924:21925   */\n      0x00\n        /* \"#utility.yul\":21920:21926   */\n      not\n        /* \"#utility.yul\":21912:21917   */\n      dup5\n        /* \"#utility.yul\":21909:21910   */\n      0x08\n        /* \"#utility.yul\":21905:21918   */\n      mul\n        /* \"#utility.yul\":21876:21927   */\n      tag_183\n      jump\t// in\n    tag_387:\n        /* \"#utility.yul\":21872:21928   */\n      not\n        /* \"#utility.yul\":21957:21961   */\n      dup1\n        /* \"#utility.yul\":21951:21955   */\n      dup4\n        /* \"#utility.yul\":21947:21962   */\n      and\n        /* \"#utility.yul\":21937:21962   */\n      swap2\n      pop\n        /* \"#utility.yul\":21850:21968   */\n      pop\n        /* \"#utility.yul\":21799:21968   */\n      swap3\n      swap2\n      pop\n      pop\n      jump\t// out\n        /* \"#utility.yul\":21973:22268   */\n    tag_185:\n        /* \"#utility.yul\":22049:22053   */\n      0x00\n        /* \"#utility.yul\":22195:22224   */\n      tag_389\n        /* \"#utility.yul\":22220:22223   */\n      dup4\n        /* \"#utility.yul\":22214:22218   */\n      dup4\n        /* \"#utility.yul\":22195:22224   */\n      tag_184\n      jump\t// in\n    tag_389:\n        /* \"#utility.yul\":22187:22224   */\n      swap2\n      pop\n        /* \"#utility.yul\":22257:22260   */\n      dup3\n        /* \"#utility.yul\":22254:22255   */\n      0x02\n        /* \"#utility.yul\":22250:22261   */\n      mul\n        /* \"#utility.yul\":22244:22248   */\n      dup3\n        /* \"#utility.yul\":22241:22262   */\n      or\n        /* \"#utility.yul\":22233:22262   */\n      swap1\n      pop\n        /* \"#utility.yul\":21973:22268   */\n      swap3\n      swap2\n      pop\n      pop\n      jump\t// out\n        /* \"#utility.yul\":22273:23668   */\n    tag_121:\n        /* \"#utility.yul\":22390:22427   */\n      tag_391\n        /* \"#utility.yul\":22423:22426   */\n      dup3\n        /* \"#utility.yul\":22390:22427   */\n      tag_135\n      jump\t// in\n    tag_391:\n        /* \"#utility.yul\":22492:22510   */\n      0xffffffffffffffff\n        /* \"#utility.yul\":22484:22490   */\n      dup2\n        /* \"#utility.yul\":22481:22511   */\n      gt\n        /* \"#utility.yul\":22478:22534   */\n      iszero\n      tag_392\n      jumpi\n        /* \"#utility.yul\":22514:22532   */\n      tag_393\n      tag_128\n      jump\t// in\n    tag_393:\n        /* \"#utility.yul\":22478:22534   */\n    tag_392:\n        /* \"#utility.yul\":22558:22596   */\n      tag_394\n        /* \"#utility.yul\":22590:22594   */\n      dup3\n        /* \"#utility.yul\":22584:22595   */\n      sload\n        /* \"#utility.yul\":22558:22596   */\n      tag_54\n      jump\t// in\n    tag_394:\n        /* \"#utility.yul\":22643:22710   */\n      tag_395\n        /* \"#utility.yul\":22703:22709   */\n      dup3\n        /* \"#utility.yul\":22695:22701   */\n      dup3\n        /* \"#utility.yul\":22689:22693   */\n      dup6\n        /* \"#utility.yul\":22643:22710   */\n      tag_182\n      jump\t// in\n    tag_395:\n        /* \"#utility.yul\":22737:22738   */\n      0x00\n        /* \"#utility.yul\":22761:22765   */\n      0x20\n        /* \"#utility.yul\":22748:22765   */\n      swap1\n      pop\n        /* \"#utility.yul\":22793:22795   */\n      0x1f\n        /* \"#utility.yul\":22785:22791   */\n      dup4\n        /* \"#utility.yul\":22782:22796   */\n      gt\n        /* \"#utility.yul\":22810:22811   */\n      0x01\n        /* \"#utility.yul\":22805:23423   */\n      dup2\n      eq\n      tag_397\n      jumpi\n        /* \"#utility.yul\":23467:23468   */\n      0x00\n        /* \"#utility.yul\":23484:23490   */\n      dup5\n        /* \"#utility.yul\":23481:23558   */\n      iszero\n      tag_398\n      jumpi\n        /* \"#utility.yul\":23533:23542   */\n      dup3\n        /* \"#utility.yul\":23528:23531   */\n      dup8\n        /* \"#utility.yul\":23524:23543   */\n      add\n        /* \"#utility.yul\":23518:23544   */\n      mload\n        /* \"#utility.yul\":23509:23544   */\n      swap1\n      pop\n        /* \"#utility.yul\":23481:23558   */\n    tag_398:\n        /* \"#utility.yul\":23584:23651   */\n      tag_399\n        /* \"#utility.yul\":23644:23650   */\n      dup6\n        /* \"#utility.yul\":23637:23642   */\n      dup3\n        /* \"#utility.yul\":23584:23651   */\n      tag_185\n      jump\t// in\n    tag_399:\n        /* \"#utility.yul\":23578:23582   */\n      dup7\n        /* \"#utility.yul\":23571:23652   */\n      sstore\n        /* \"#utility.yul\":23440:23662   */\n      pop\n        /* \"#utility.yul\":22775:23662   */\n      jump(tag_396)\n        /* \"#utility.yul\":22805:23423   */\n    tag_397:\n        /* \"#utility.yul\":22857:22861   */\n      0x1f\n        /* \"#utility.yul\":22853:22862   */\n      not\n        /* \"#utility.yul\":22845:22851   */\n      dup5\n        /* \"#utility.yul\":22841:22863   */\n      and\n        /* \"#utility.yul\":22891:22928   */\n      tag_400\n        /* \"#utility.yul\":22923:22927   */\n      dup7\n        /* \"#utility.yul\":22891:22928   */\n      tag_171\n      jump\t// in\n    tag_400:\n        /* \"#utility.yul\":22950:22951   */\n      0x00\n        /* \"#utility.yul\":22964:23172   */\n    tag_401:\n        /* \"#utility.yul\":22978:22985   */\n      dup3\n        /* \"#utility.yul\":22975:22976   */\n      dup2\n        /* \"#utility.yul\":22972:22986   */\n      lt\n        /* \"#utility.yul\":22964:23172   */\n      iszero\n      tag_403\n      jumpi\n        /* \"#utility.yul\":23057:23066   */\n      dup5\n        /* \"#utility.yul\":23052:23055   */\n      dup10\n        /* \"#utility.yul\":23048:23067   */\n      add\n        /* \"#utility.yul\":23042:23068   */\n      mload\n        /* \"#utility.yul\":23034:23040   */\n      dup3\n        /* \"#utility.yul\":23027:23069   */\n      sstore\n        /* \"#utility.yul\":23108:23109   */\n      0x01\n        /* \"#utility.yul\":23100:23106   */\n      dup3\n        /* \"#utility.yul\":23096:23110   */\n      add\n        /* \"#utility.yul\":23086:23110   */\n      swap2\n      pop\n        /* \"#utility.yul\":23155:23157   */\n      0x20\n        /* \"#utility.yul\":23144:23153   */\n      dup6\n        /* \"#utility.yul\":23140:23158   */\n      add\n        /* \"#utility.yul\":23127:23158   */\n      swap5\n      pop\n        /* \"#utility.yul\":23001:23005   */\n      0x20\n        /* \"#utility.yul\":22998:22999   */\n      dup2\n        /* \"#utility.yul\":22994:23006   */\n      add\n        /* \"#utility.yul\":22989:23006   */\n      swap1\n      pop\n        /* \"#utility.yul\":22964:23172   */\n      jump(tag_401)\n    tag_403:\n        /* \"#utility.yul\":23200:23206   */\n      dup7\n        /* \"#utility.yul\":23191:23198   */\n      dup4\n        /* \"#utility.yul\":23188:23207   */\n      lt\n        /* \"#utility.yul\":23185:23364   */\n      iszero\n      tag_404\n      jumpi\n        /* \"#utility.yul\":23258:23267   */\n      dup5\n        /* \"#utility.yul\":23253:23256   */\n      dup10\n        /* \"#utility.yul\":23249:23268   */\n      add\n        /* \"#utility.yul\":23243:23269   */\n      mload\n        /* \"#utility.yul\":23301:23349   */\n      tag_405\n        /* \"#utility.yul\":23343:23347   */\n      0x1f\n        /* \"#utility.yul\":23335:23341   */\n      dup10\n        /* \"#utility.yul\":23331:23348   */\n      and\n        /* \"#utility.yul\":23320:23329   */\n      dup3\n        /* \"#utility.yul\":23301:23349   */\n      tag_184\n      jump\t// in\n    tag_405:\n        /* \"#utility.yul\":23293:23299   */\n      dup4\n        /* \"#utility.yul\":23286:23350   */\n      sstore\n        /* \"#utility.yul\":23208:23364   */\n      pop\n        /* \"#utility.yul\":23185:23364   */\n    tag_404:\n        /* \"#utility.yul\":23410:23411   */\n      0x01\n        /* \"#utility.yul\":23406:23407   */\n      0x02\n        /* \"#utility.yul\":23398:23404   */\n      dup9\n        /* \"#utility.yul\":23394:23408   */\n      mul\n        /* \"#utility.yul\":23390:23412   */\n      add\n        /* \"#utility.yul\":23384:23388   */\n      dup9\n        /* \"#utility.yul\":23377:23413   */\n      sstore\n        /* \"#utility.yul\":22812:23423   */\n      pop\n      pop\n      pop\n        /* \"#utility.yul\":22775:23662   */\n    tag_396:\n      pop\n        /* \"#utility.yul\":22365:23668   */\n      pop\n      pop\n      pop\n        /* \"#utility.yul\":22273:23668   */\n      pop\n      pop\n      jump\t// out\n\n    auxdata: 0xa264697066735822122074badb20d9202453f0fbcbd8fbcadb73eebece6cedb79f3e006494c098ea871564736f6c634300081a0033\n}\n",
				"bytecode": {
					"linkReferences": {},
					"object": "6080604052348015600e575f80fd5b503360015f6101000a81548173ffffffffffffffffffffffffffffffffffffffff021916908373ffffffffffffffffffffffffffffffffffffffff16021790555061171e8061005c5f395ff3fe608060405260043610610085575f3560e01c806342763af11161005857806342763af114610155578063704402ae1461017d57806383197ef01461019957806385e68531146101af578063dc319239146101d757610085565b80630186a423146100895780630ae5e739146100c757806318e308be146100ef5780633957586614610117575b5f80fd5b348015610094575f80fd5b506100af60048036038101906100aa9190610c3c565b6101ff565b6040516100be93929190610cfb565b60405180910390f35b3480156100d2575f80fd5b506100ed60048036038101906100e89190610d91565b6102c2565b005b3480156100fa575f80fd5b5061011560048036038101906101109190610de6565b610394565b005b348015610122575f80fd5b5061013d60048036038101906101389190610c3c565b6104ae565b60405161014c93929190610cfb565b60405180910390f35b348015610160575f80fd5b5061017b60048036038101906101769190610de6565b6105aa565b005b61019760048036038101906101929190610de6565b6106c4565b005b3480156101a4575f80fd5b506101ad6107ce565b005b3480156101ba575f80fd5b506101d560048036038101906101d09190610d91565b610897565b005b3480156101e2575f80fd5b506101fd60048036038101906101f89190610e40565b6109f8565b005b5f818051602081018201805184825260208301602085012081835280955050505050505f91509050805f01805461023590610ed9565b80601f016020809104026020016040519081016040528092919081815260200182805461026190610ed9565b80156102ac5780601f10610283576101008083540402835291602001916102ac565b820191905f5260205f20905b81548152906001019060200180831161028f57829003601f168201915b5050505050908060010154908060020154905083565b60015f9054906101000a900473ffffffffffffffffffffffffffffffffffffffff1673ffffffffffffffffffffffffffffffffffffffff163373ffffffffffffffffffffffffffffffffffffffff1614610351576040517f08c379a000000000000000000000000000000000000000000000000000000000815260040161034890610f53565b60405180910390fd5b8060015f6101000a81548173ffffffffffffffffffffffffffffffffffffffff021916908373ffffffffffffffffffffffffffffffffffffffff16021790555050565b3373ffffffffffffffffffffffffffffffffffffffff1660015f9054906101000a900473ffffffffffffffffffffffffffffffffffffffff1673ffffffffffffffffffffffffffffffffffffffff1614610423576040517f08c379a000000000000000000000000000000000000000000000000000000000815260040161041a90610fe1565b60405180910390fd5b5f80836040516104339190611039565b90815260200160405180910390206001015411610485576040517f08c379a000000000000000000000000000000000000000000000000000000000815260040161047c90611099565b60405180910390fd5b805f836040516104959190611039565b9081526020016040518091039020600101819055505050565b60605f805f846040516104c19190611039565b90815260200160405180910390205f015f856040516104e09190611039565b9081526020016040518091039020600101545f866040516105019190611039565b90815260200160405180910390206002015482805461051f90610ed9565b80601f016020809104026020016040519081016040528092919081815260200182805461054b90610ed9565b80156105965780601f1061056d57610100808354040283529160200191610596565b820191905f5260205f20905b81548152906001019060200180831161057957829003601f168201915b505050505092509250925092509193909250565b60015f9054906101000a900473ffffffffffffffffffffffffffffffffffffffff1673ffffffffffffffffffffffffffffffffffffffff163373ffffffffffffffffffffffffffffffffffffffff1614610639576040517f08c379a000000000000000000000000000000000000000000000000000000000815260040161063090611101565b60405180910390fd5b5f80836040516106499190611039565b9081526020016040518091039020600201541161069b576040517f08c379a000000000000000000000000000000000000000000000000000000000815260040161069290611099565b60405180910390fd5b805f836040516106ab9190611039565b9081526020016040518091039020600201819055505050565b805f836040516106d49190611039565b9081526020016040518091039020600101546106f0919061114c565b3414610731576040517f08c379a0000000000000000000000000000000000000000000000000000000008152600401610728906111d7565b60405180910390fd5b5f826040516107409190611039565b908152602001604051809103902060020154811115610794576040517f08c379a000000000000000000000000000000000000000000000000000000000815260040161078b9061123f565b60405180910390fd5b805f836040516107a49190611039565b90815260200160405180910390206002015f8282546107c3919061125d565b925050819055505050565b60015f9054906101000a900473ffffffffffffffffffffffffffffffffffffffff1673ffffffffffffffffffffffffffffffffffffffff163373ffffffffffffffffffffffffffffffffffffffff161461085d576040517f08c379a000000000000000000000000000000000000000000000000000000000815260040161085490611300565b60405180910390fd5b60015f9054906101000a900473ffffffffffffffffffffffffffffffffffffffff1673ffffffffffffffffffffffffffffffffffffffff16ff5b60015f9054906101000a900473ffffffffffffffffffffffffffffffffffffffff1673ffffffffffffffffffffffffffffffffffffffff163373ffffffffffffffffffffffffffffffffffffffff1614610926576040517f08c379a000000000000000000000000000000000000000000000000000000000815260040161091d90611368565b60405180910390fd5b60015f9054906101000a900473ffffffffffffffffffffffffffffffffffffffff1673ffffffffffffffffffffffffffffffffffffffff168173ffffffffffffffffffffffffffffffffffffffff16036109b5576040517f08c379a00000000000000000000000000000000000000000000000000000000081526004016109ac906113f6565b60405180910390fd5b3360015f6101000a81548173ffffffffffffffffffffffffffffffffffffffff021916908373ffffffffffffffffffffffffffffffffffffffff16021790555050565b60015f9054906101000a900473ffffffffffffffffffffffffffffffffffffffff1673ffffffffffffffffffffffffffffffffffffffff163373ffffffffffffffffffffffffffffffffffffffff1614610a87576040517f08c379a0000000000000000000000000000000000000000000000000000000008152600401610a7e9061145e565b60405180910390fd5b6040518060600160405280848152602001838152602001828152505f84604051610ab19190611039565b90815260200160405180910390205f820151815f019081610ad29190611619565b506020820151816001015560408201518160020155905050505050565b5f604051905090565b5f80fd5b5f80fd5b5f80fd5b5f80fd5b5f601f19601f8301169050919050565b7f4e487b71000000000000000000000000000000000000000000000000000000005f52604160045260245ffd5b610b4e82610b08565b810181811067ffffffffffffffff82111715610b6d57610b6c610b18565b5b80604052505050565b5f610b7f610aef565b9050610b8b8282610b45565b919050565b5f67ffffffffffffffff821115610baa57610ba9610b18565b5b610bb382610b08565b9050602081019050919050565b828183375f83830152505050565b5f610be0610bdb84610b90565b610b76565b905082815260208101848484011115610bfc57610bfb610b04565b5b610c07848285610bc0565b509392505050565b5f82601f830112610c2357610c22610b00565b5b8135610c33848260208601610bce565b91505092915050565b5f60208284031215610c5157610c50610af8565b5b5f82013567ffffffffffffffff811115610c6e57610c6d610afc565b5b610c7a84828501610c0f565b91505092915050565b5f81519050919050565b5f82825260208201905092915050565b8281835e5f83830152505050565b5f610cb582610c83565b610cbf8185610c8d565b9350610ccf818560208601610c9d565b610cd881610b08565b840191505092915050565b5f819050919050565b610cf581610ce3565b82525050565b5f6060820190508181035f830152610d138186610cab565b9050610d226020830185610cec565b610d2f6040830184610cec565b949350505050565b5f73ffffffffffffffffffffffffffffffffffffffff82169050919050565b5f610d6082610d37565b9050919050565b610d7081610d56565b8114610d7a575f80fd5b50565b5f81359050610d8b81610d67565b92915050565b5f60208284031215610da657610da5610af8565b5b5f610db384828501610d7d565b91505092915050565b610dc581610ce3565b8114610dcf575f80fd5b50565b5f81359050610de081610dbc565b92915050565b5f8060408385031215610dfc57610dfb610af8565b5b5f83013567ffffffffffffffff811115610e1957610e18610afc565b5b610e2585828601610c0f565b9250506020610e3685828601610dd2565b9150509250929050565b5f805f60608486031215610e5757610e56610af8565b5b5f84013567ffffffffffffffff811115610e7457610e73610afc565b5b610e8086828701610c0f565b9350506020610e9186828701610dd2565b9250506040610ea286828701610dd2565b9150509250925092565b7f4e487b71000000000000000000000000000000000000000000000000000000005f52602260045260245ffd5b5f6002820490506001821680610ef057607f821691505b602082108103610f0357610f02610eac565b5b50919050565b7f4f6e6c79204f6e7765722063616e206772616e74206163636573732e000000005f82015250565b5f610f3d601c83610c8d565b9150610f4882610f09565b602082019050919050565b5f6020820190508181035f830152610f6a81610f31565b9050919050565b7f6f6e6c79206f6e7765722063616e20757064617465207468652070726f6475635f8201527f74732e0000000000000000000000000000000000000000000000000000000000602082015250565b5f610fcb602383610c8d565b9150610fd682610f71565b604082019050919050565b5f6020820190508181035f830152610ff881610fbf565b9050919050565b5f81905092915050565b5f61101382610c83565b61101d8185610fff565b935061102d818560208601610c9d565b80840191505092915050565b5f6110448284611009565b915081905092915050565b7f50726f6475637420646f657327742065786973742e00000000000000000000005f82015250565b5f611083601583610c8d565b915061108e8261104f565b602082019050919050565b5f6020820190508181035f8301526110b081611077565b9050919050565b7f4f6e6c79204f6e7765722063616e207570646174652073746f636b2e000000005f82015250565b5f6110eb601c83610c8d565b91506110f6826110b7565b602082019050919050565b5f6020820190508181035f830152611118816110df565b9050919050565b7f4e487b71000000000000000000000000000000000000000000000000000000005f52601160045260245ffd5b5f61115682610ce3565b915061116183610ce3565b925082820261116f81610ce3565b915082820484148315176111865761118561111f565b5b5092915050565b7f496e636f7272656374207061796d656e740000000000000000000000000000005f82015250565b5f6111c1601183610c8d565b91506111cc8261118d565b602082019050919050565b5f6020820190508181035f8301526111ee816111b5565b9050919050565b7f4e6f7420656e6f756768742053746f636b2e00000000000000000000000000005f82015250565b5f611229601283610c8d565b9150611234826111f5565b602082019050919050565b5f6020820190508181035f8301526112568161121d565b9050919050565b5f61126782610ce3565b915061127283610ce3565b925082820390508181111561128a5761128961111f565b5b92915050565b7f6f6e6c7920746865206f6e7765722063616e2064657374726f792074686520635f8201527f6f6e74726163742e000000000000000000000000000000000000000000000000602082015250565b5f6112ea602883610c8d565b91506112f582611290565b604082019050919050565b5f6020820190508181035f830152611317816112de565b9050919050565b7f4f6e6c79204f6e7765722063616e207265766f6b65206163636573732e0000005f82015250565b5f611352601d83610c8d565b915061135d8261131e565b602082019050919050565b5f6020820190508181035f83015261137f81611346565b9050919050565b7f43616e6e6f74207265766f6b652061636365737320666f7220746865206375725f8201527f72656e74206f776e65722e000000000000000000000000000000000000000000602082015250565b5f6113e0602b83610c8d565b91506113eb82611386565b604082019050919050565b5f6020820190508181035f83015261140d816113d4565b9050919050565b7f4f6e6c79206f776e65722063616e206164642070726f64756374732e000000005f82015250565b5f611448601c83610c8d565b915061145382611414565b602082019050919050565b5f6020820190508181035f8301526114758161143c565b9050919050565b5f819050815f5260205f209050919050565b5f6020601f8301049050919050565b5f82821b905092915050565b5f600883026114d87fffffffffffffffffffffffffffffffffffffffffffffffffffffffffffffffff8261149d565b6114e2868361149d565b95508019841693508086168417925050509392505050565b5f819050919050565b5f61151d61151861151384610ce3565b6114fa565b610ce3565b9050919050565b5f819050919050565b61153683611503565b61154a61154282611524565b8484546114a9565b825550505050565b5f90565b61155e611552565b61156981848461152d565b505050565b5b8181101561158c576115815f82611556565b60018101905061156f565b5050565b601f8211156115d1576115a28161147c565b6115ab8461148e565b810160208510156115ba578190505b6115ce6115c68561148e565b83018261156e565b50505b505050565b5f82821c905092915050565b5f6115f15f19846008026115d6565b1980831691505092915050565b5f61160983836115e2565b9150826002028217905092915050565b61162282610c83565b67ffffffffffffffff81111561163b5761163a610b18565b5b6116458254610ed9565b611650828285611590565b5f60209050601f831160018114611681575f841561166f578287015190505b61167985826115fe565b8655506116e0565b601f19841661168f8661147c565b5f5b828110156116b657848901518255600182019150602085019450602081019050611691565b868310156116d357848901516116cf601f8916826115e2565b8355505b6001600288020188555050505b50505050505056fea264697066735822122074badb20d9202453f0fbcbd8fbcadb73eebece6cedb79f3e006494c098ea871564736f6c634300081a0033",
					"opcodes": "PUSH1 0x80 PUSH1 0x40 MSTORE CALLVALUE DUP1 ISZERO PUSH1 0xE JUMPI PUSH0 DUP1 REVERT JUMPDEST POP CALLER PUSH1 0x1 PUSH0 PUSH2 0x100 EXP DUP2 SLOAD DUP2 PUSH20 0xFFFFFFFFFFFFFFFFFFFFFFFFFFFFFFFFFFFFFFFF MUL NOT AND SWAP1 DUP4 PUSH20 0xFFFFFFFFFFFFFFFFFFFFFFFFFFFFFFFFFFFFFFFF AND MUL OR SWAP1 SSTORE POP PUSH2 0x171E DUP1 PUSH2 0x5C PUSH0 CODECOPY PUSH0 RETURN INVALID PUSH1 0x80 PUSH1 0x40 MSTORE PUSH1 0x4 CALLDATASIZE LT PUSH2 0x85 JUMPI PUSH0 CALLDATALOAD PUSH1 0xE0 SHR DUP1 PUSH4 0x42763AF1 GT PUSH2 0x58 JUMPI DUP1 PUSH4 0x42763AF1 EQ PUSH2 0x155 JUMPI DUP1 PUSH4 0x704402AE EQ PUSH2 0x17D JUMPI DUP1 PUSH4 0x83197EF0 EQ PUSH2 0x199 JUMPI DUP1 PUSH4 0x85E68531 EQ PUSH2 0x1AF JUMPI DUP1 PUSH4 0xDC319239 EQ PUSH2 0x1D7 JUMPI PUSH2 0x85 JUMP JUMPDEST DUP1 PUSH4 0x186A423 EQ PUSH2 0x89 JUMPI DUP1 PUSH4 0xAE5E739 EQ PUSH2 0xC7 JUMPI DUP1 PUSH4 0x18E308BE EQ PUSH2 0xEF JUMPI DUP1 PUSH4 0x39575866 EQ PUSH2 0x117 JUMPI JUMPDEST PUSH0 DUP1 REVERT JUMPDEST CALLVALUE DUP1 ISZERO PUSH2 0x94 JUMPI PUSH0 DUP1 REVERT JUMPDEST POP PUSH2 0xAF PUSH1 0x4 DUP1 CALLDATASIZE SUB DUP2 ADD SWAP1 PUSH2 0xAA SWAP2 SWAP1 PUSH2 0xC3C JUMP JUMPDEST PUSH2 0x1FF JUMP JUMPDEST PUSH1 0x40 MLOAD PUSH2 0xBE SWAP4 SWAP3 SWAP2 SWAP1 PUSH2 0xCFB JUMP JUMPDEST PUSH1 0x40 MLOAD DUP1 SWAP2 SUB SWAP1 RETURN JUMPDEST CALLVALUE DUP1 ISZERO PUSH2 0xD2 JUMPI PUSH0 DUP1 REVERT JUMPDEST POP PUSH2 0xED PUSH1 0x4 DUP1 CALLDATASIZE SUB DUP2 ADD SWAP1 PUSH2 0xE8 SWAP2 SWAP1 PUSH2 0xD91 JUMP JUMPDEST PUSH2 0x2C2 JUMP JUMPDEST STOP JUMPDEST CALLVALUE DUP1 ISZERO PUSH2 0xFA JUMPI PUSH0 DUP1 REVERT JUMPDEST POP PUSH2 0x115 PUSH1 0x4 DUP1 CALLDATASIZE SUB DUP2 ADD SWAP1 PUSH2 0x110 SWAP2 SWAP1 PUSH2 0xDE6 JUMP JUMPDEST PUSH2 0x394 JUMP JUMPDEST STOP JUMPDEST CALLVALUE DUP1 ISZERO PUSH2 0x122 JUMPI PUSH0 DUP1 REVERT JUMPDEST POP PUSH2 0x13D PUSH1 0x4 DUP1 CALLDATASIZE SUB DUP2 ADD SWAP1 PUSH2 0x138 SWAP2 SWAP1 PUSH2 0xC3C JUMP JUMPDEST PUSH2 0x4AE JUMP JUMPDEST PUSH1 0x40 MLOAD PUSH2 0x14C SWAP4 SWAP3 SWAP2 SWAP1 PUSH2 0xCFB JUMP JUMPDEST PUSH1 0x40 MLOAD DUP1 SWAP2 SUB SWAP1 RETURN JUMPDEST CALLVALUE DUP1 ISZERO PUSH2 0x160 JUMPI PUSH0 DUP1 REVERT JUMPDEST POP PUSH2 0x17B PUSH1 0x4 DUP1 CALLDATASIZE SUB DUP2 ADD SWAP1 PUSH2 0x176 SWAP2 SWAP1 PUSH2 0xDE6 JUMP JUMPDEST PUSH2 0x5AA JUMP JUMPDEST STOP JUMPDEST PUSH2 0x197 PUSH1 0x4 DUP1 CALLDATASIZE SUB DUP2 ADD SWAP1 PUSH2 0x192 SWAP2 SWAP1 PUSH2 0xDE6 JUMP JUMPDEST PUSH2 0x6C4 JUMP JUMPDEST STOP JUMPDEST CALLVALUE DUP1 ISZERO PUSH2 0x1A4 JUMPI PUSH0 DUP1 REVERT JUMPDEST POP PUSH2 0x1AD PUSH2 0x7CE JUMP JUMPDEST STOP JUMPDEST CALLVALUE DUP1 ISZERO PUSH2 0x1BA JUMPI PUSH0 DUP1 REVERT JUMPDEST POP PUSH2 0x1D5 PUSH1 0x4 DUP1 CALLDATASIZE SUB DUP2 ADD SWAP1 PUSH2 0x1D0 SWAP2 SWAP1 PUSH2 0xD91 JUMP JUMPDEST PUSH2 0x897 JUMP JUMPDEST STOP JUMPDEST CALLVALUE DUP1 ISZERO PUSH2 0x1E2 JUMPI PUSH0 DUP1 REVERT JUMPDEST POP PUSH2 0x1FD PUSH1 0x4 DUP1 CALLDATASIZE SUB DUP2 ADD SWAP1 PUSH2 0x1F8 SWAP2 SWAP1 PUSH2 0xE40 JUMP JUMPDEST PUSH2 0x9F8 JUMP JUMPDEST STOP JUMPDEST PUSH0 DUP2 DUP1 MLOAD PUSH1 0x20 DUP2 ADD DUP3 ADD DUP1 MLOAD DUP5 DUP3 MSTORE PUSH1 0x20 DUP4 ADD PUSH1 0x20 DUP6 ADD KECCAK256 DUP2 DUP4 MSTORE DUP1 SWAP6 POP POP POP POP POP POP PUSH0 SWAP2 POP SWAP1 POP DUP1 PUSH0 ADD DUP1 SLOAD PUSH2 0x235 SWAP1 PUSH2 0xED9 JUMP JUMPDEST DUP1 PUSH1 0x1F ADD PUSH1 0x20 DUP1 SWAP2 DIV MUL PUSH1 0x20 ADD PUSH1 0x40 MLOAD SWAP1 DUP2 ADD PUSH1 0x40 MSTORE DUP1 SWAP3 SWAP2 SWAP1 DUP2 DUP2 MSTORE PUSH1 0x20 ADD DUP3 DUP1 SLOAD PUSH2 0x261 SWAP1 PUSH2 0xED9 JUMP JUMPDEST DUP1 ISZERO PUSH2 0x2AC JUMPI DUP1 PUSH1 0x1F LT PUSH2 0x283 JUMPI PUSH2 0x100 DUP1 DUP4 SLOAD DIV MUL DUP4 MSTORE SWAP2 PUSH1 0x20 ADD SWAP2 PUSH2 0x2AC JUMP JUMPDEST DUP3 ADD SWAP2 SWAP1 PUSH0 MSTORE PUSH1 0x20 PUSH0 KECCAK256 SWAP1 JUMPDEST DUP2 SLOAD DUP2 MSTORE SWAP1 PUSH1 0x1 ADD SWAP1 PUSH1 0x20 ADD DUP1 DUP4 GT PUSH2 0x28F JUMPI DUP3 SWAP1 SUB PUSH1 0x1F AND DUP3 ADD SWAP2 JUMPDEST POP POP POP POP POP SWAP1 DUP1 PUSH1 0x1 ADD SLOAD SWAP1 DUP1 PUSH1 0x2 ADD SLOAD SWAP1 POP DUP4 JUMP JUMPDEST PUSH1 0x1 PUSH0 SWAP1 SLOAD SWAP1 PUSH2 0x100 EXP SWAP1 DIV PUSH20 0xFFFFFFFFFFFFFFFFFFFFFFFFFFFFFFFFFFFFFFFF AND PUSH20 0xFFFFFFFFFFFFFFFFFFFFFFFFFFFFFFFFFFFFFFFF AND CALLER PUSH20 0xFFFFFFFFFFFFFFFFFFFFFFFFFFFFFFFFFFFFFFFF AND EQ PUSH2 0x351 JUMPI PUSH1 0x40 MLOAD PUSH32 0x8C379A000000000000000000000000000000000000000000000000000000000 DUP2 MSTORE PUSH1 0x4 ADD PUSH2 0x348 SWAP1 PUSH2 0xF53 JUMP JUMPDEST PUSH1 0x40 MLOAD DUP1 SWAP2 SUB SWAP1 REVERT JUMPDEST DUP1 PUSH1 0x1 PUSH0 PUSH2 0x100 EXP DUP2 SLOAD DUP2 PUSH20 0xFFFFFFFFFFFFFFFFFFFFFFFFFFFFFFFFFFFFFFFF MUL NOT AND SWAP1 DUP4 PUSH20 0xFFFFFFFFFFFFFFFFFFFFFFFFFFFFFFFFFFFFFFFF AND MUL OR SWAP1 SSTORE POP POP JUMP JUMPDEST CALLER PUSH20 0xFFFFFFFFFFFFFFFFFFFFFFFFFFFFFFFFFFFFFFFF AND PUSH1 0x1 PUSH0 SWAP1 SLOAD SWAP1 PUSH2 0x100 EXP SWAP1 DIV PUSH20 0xFFFFFFFFFFFFFFFFFFFFFFFFFFFFFFFFFFFFFFFF AND PUSH20 0xFFFFFFFFFFFFFFFFFFFFFFFFFFFFFFFFFFFFFFFF AND EQ PUSH2 0x423 JUMPI PUSH1 0x40 MLOAD PUSH32 0x8C379A000000000000000000000000000000000000000000000000000000000 DUP2 MSTORE PUSH1 0x4 ADD PUSH2 0x41A SWAP1 PUSH2 0xFE1 JUMP JUMPDEST PUSH1 0x40 MLOAD DUP1 SWAP2 SUB SWAP1 REVERT JUMPDEST PUSH0 DUP1 DUP4 PUSH1 0x40 MLOAD PUSH2 0x433 SWAP2 SWAP1 PUSH2 0x1039 JUMP JUMPDEST SWAP1 DUP2 MSTORE PUSH1 0x20 ADD PUSH1 0x40 MLOAD DUP1 SWAP2 SUB SWAP1 KECCAK256 PUSH1 0x1 ADD SLOAD GT PUSH2 0x485 JUMPI PUSH1 0x40 MLOAD PUSH32 0x8C379A000000000000000000000000000000000000000000000000000000000 DUP2 MSTORE PUSH1 0x4 ADD PUSH2 0x47C SWAP1 PUSH2 0x1099 JUMP JUMPDEST PUSH1 0x40 MLOAD DUP1 SWAP2 SUB SWAP1 REVERT JUMPDEST DUP1 PUSH0 DUP4 PUSH1 0x40 MLOAD PUSH2 0x495 SWAP2 SWAP1 PUSH2 0x1039 JUMP JUMPDEST SWAP1 DUP2 MSTORE PUSH1 0x20 ADD PUSH1 0x40 MLOAD DUP1 SWAP2 SUB SWAP1 KECCAK256 PUSH1 0x1 ADD DUP2 SWAP1 SSTORE POP POP POP JUMP JUMPDEST PUSH1 0x60 PUSH0 DUP1 PUSH0 DUP5 PUSH1 0x40 MLOAD PUSH2 0x4C1 SWAP2 SWAP1 PUSH2 0x1039 JUMP JUMPDEST SWAP1 DUP2 MSTORE PUSH1 0x20 ADD PUSH1 0x40 MLOAD DUP1 SWAP2 SUB SWAP1 KECCAK256 PUSH0 ADD PUSH0 DUP6 PUSH1 0x40 MLOAD PUSH2 0x4E0 SWAP2 SWAP1 PUSH2 0x1039 JUMP JUMPDEST SWAP1 DUP2 MSTORE PUSH1 0x20 ADD PUSH1 0x40 MLOAD DUP1 SWAP2 SUB SWAP1 KECCAK256 PUSH1 0x1 ADD SLOAD PUSH0 DUP7 PUSH1 0x40 MLOAD PUSH2 0x501 SWAP2 SWAP1 PUSH2 0x1039 JUMP JUMPDEST SWAP1 DUP2 MSTORE PUSH1 0x20 ADD PUSH1 0x40 MLOAD DUP1 SWAP2 SUB SWAP1 KECCAK256 PUSH1 0x2 ADD SLOAD DUP3 DUP1 SLOAD PUSH2 0x51F SWAP1 PUSH2 0xED9 JUMP JUMPDEST DUP1 PUSH1 0x1F ADD PUSH1 0x20 DUP1 SWAP2 DIV MUL PUSH1 0x20 ADD PUSH1 0x40 MLOAD SWAP1 DUP2 ADD PUSH1 0x40 MSTORE DUP1 SWAP3 SWAP2 SWAP1 DUP2 DUP2 MSTORE PUSH1 0x20 ADD DUP3 DUP1 SLOAD PUSH2 0x54B SWAP1 PUSH2 0xED9 JUMP JUMPDEST DUP1 ISZERO PUSH2 0x596 JUMPI DUP1 PUSH1 0x1F LT PUSH2 0x56D JUMPI PUSH2 0x100 DUP1 DUP4 SLOAD DIV MUL DUP4 MSTORE SWAP2 PUSH1 0x20 ADD SWAP2 PUSH2 0x596 JUMP JUMPDEST DUP3 ADD SWAP2 SWAP1 PUSH0 MSTORE PUSH1 0x20 PUSH0 KECCAK256 SWAP1 JUMPDEST DUP2 SLOAD DUP2 MSTORE SWAP1 PUSH1 0x1 ADD SWAP1 PUSH1 0x20 ADD DUP1 DUP4 GT PUSH2 0x579 JUMPI DUP3 SWAP1 SUB PUSH1 0x1F AND DUP3 ADD SWAP2 JUMPDEST POP POP POP POP POP SWAP3 POP SWAP3 POP SWAP3 POP SWAP3 POP SWAP2 SWAP4 SWAP1 SWAP3 POP JUMP JUMPDEST PUSH1 0x1 PUSH0 SWAP1 SLOAD SWAP1 PUSH2 0x100 EXP SWAP1 DIV PUSH20 0xFFFFFFFFFFFFFFFFFFFFFFFFFFFFFFFFFFFFFFFF AND PUSH20 0xFFFFFFFFFFFFFFFFFFFFFFFFFFFFFFFFFFFFFFFF AND CALLER PUSH20 0xFFFFFFFFFFFFFFFFFFFFFFFFFFFFFFFFFFFFFFFF AND EQ PUSH2 0x639 JUMPI PUSH1 0x40 MLOAD PUSH32 0x8C379A000000000000000000000000000000000000000000000000000000000 DUP2 MSTORE PUSH1 0x4 ADD PUSH2 0x630 SWAP1 PUSH2 0x1101 JUMP JUMPDEST PUSH1 0x40 MLOAD DUP1 SWAP2 SUB SWAP1 REVERT JUMPDEST PUSH0 DUP1 DUP4 PUSH1 0x40 MLOAD PUSH2 0x649 SWAP2 SWAP1 PUSH2 0x1039 JUMP JUMPDEST SWAP1 DUP2 MSTORE PUSH1 0x20 ADD PUSH1 0x40 MLOAD DUP1 SWAP2 SUB SWAP1 KECCAK256 PUSH1 0x2 ADD SLOAD GT PUSH2 0x69B JUMPI PUSH1 0x40 MLOAD PUSH32 0x8C379A000000000000000000000000000000000000000000000000000000000 DUP2 MSTORE PUSH1 0x4 ADD PUSH2 0x692 SWAP1 PUSH2 0x1099 JUMP JUMPDEST PUSH1 0x40 MLOAD DUP1 SWAP2 SUB SWAP1 REVERT JUMPDEST DUP1 PUSH0 DUP4 PUSH1 0x40 MLOAD PUSH2 0x6AB SWAP2 SWAP1 PUSH2 0x1039 JUMP JUMPDEST SWAP1 DUP2 MSTORE PUSH1 0x20 ADD PUSH1 0x40 MLOAD DUP1 SWAP2 SUB SWAP1 KECCAK256 PUSH1 0x2 ADD DUP2 SWAP1 SSTORE POP POP POP JUMP JUMPDEST DUP1 PUSH0 DUP4 PUSH1 0x40 MLOAD PUSH2 0x6D4 SWAP2 SWAP1 PUSH2 0x1039 JUMP JUMPDEST SWAP1 DUP2 MSTORE PUSH1 0x20 ADD PUSH1 0x40 MLOAD DUP1 SWAP2 SUB SWAP1 KECCAK256 PUSH1 0x1 ADD SLOAD PUSH2 0x6F0 SWAP2 SWAP1 PUSH2 0x114C JUMP JUMPDEST CALLVALUE EQ PUSH2 0x731 JUMPI PUSH1 0x40 MLOAD PUSH32 0x8C379A000000000000000000000000000000000000000000000000000000000 DUP2 MSTORE PUSH1 0x4 ADD PUSH2 0x728 SWAP1 PUSH2 0x11D7 JUMP JUMPDEST PUSH1 0x40 MLOAD DUP1 SWAP2 SUB SWAP1 REVERT JUMPDEST PUSH0 DUP3 PUSH1 0x40 MLOAD PUSH2 0x740 SWAP2 SWAP1 PUSH2 0x1039 JUMP JUMPDEST SWAP1 DUP2 MSTORE PUSH1 0x20 ADD PUSH1 0x40 MLOAD DUP1 SWAP2 SUB SWAP1 KECCAK256 PUSH1 0x2 ADD SLOAD DUP2 GT ISZERO PUSH2 0x794 JUMPI PUSH1 0x40 MLOAD PUSH32 0x8C379A000000000000000000000000000000000000000000000000000000000 DUP2 MSTORE PUSH1 0x4 ADD PUSH2 0x78B SWAP1 PUSH2 0x123F JUMP JUMPDEST PUSH1 0x40 MLOAD DUP1 SWAP2 SUB SWAP1 REVERT JUMPDEST DUP1 PUSH0 DUP4 PUSH1 0x40 MLOAD PUSH2 0x7A4 SWAP2 SWAP1 PUSH2 0x1039 JUMP JUMPDEST SWAP1 DUP2 MSTORE PUSH1 0x20 ADD PUSH1 0x40 MLOAD DUP1 SWAP2 SUB SWAP1 KECCAK256 PUSH1 0x2 ADD PUSH0 DUP3 DUP3 SLOAD PUSH2 0x7C3 SWAP2 SWAP1 PUSH2 0x125D JUMP JUMPDEST SWAP3 POP POP DUP2 SWAP1 SSTORE POP POP POP JUMP JUMPDEST PUSH1 0x1 PUSH0 SWAP1 SLOAD SWAP1 PUSH2 0x100 EXP SWAP1 DIV PUSH20 0xFFFFFFFFFFFFFFFFFFFFFFFFFFFFFFFFFFFFFFFF AND PUSH20 0xFFFFFFFFFFFFFFFFFFFFFFFFFFFFFFFFFFFFFFFF AND CALLER PUSH20 0xFFFFFFFFFFFFFFFFFFFFFFFFFFFFFFFFFFFFFFFF AND EQ PUSH2 0x85D JUMPI PUSH1 0x40 MLOAD PUSH32 0x8C379A000000000000000000000000000000000000000000000000000000000 DUP2 MSTORE PUSH1 0x4 ADD PUSH2 0x854 SWAP1 PUSH2 0x1300 JUMP JUMPDEST PUSH1 0x40 MLOAD DUP1 SWAP2 SUB SWAP1 REVERT JUMPDEST PUSH1 0x1 PUSH0 SWAP1 SLOAD SWAP1 PUSH2 0x100 EXP SWAP1 DIV PUSH20 0xFFFFFFFFFFFFFFFFFFFFFFFFFFFFFFFFFFFFFFFF AND PUSH20 0xFFFFFFFFFFFFFFFFFFFFFFFFFFFFFFFFFFFFFFFF AND SELFDESTRUCT JUMPDEST PUSH1 0x1 PUSH0 SWAP1 SLOAD SWAP1 PUSH2 0x100 EXP SWAP1 DIV PUSH20 0xFFFFFFFFFFFFFFFFFFFFFFFFFFFFFFFFFFFFFFFF AND PUSH20 0xFFFFFFFFFFFFFFFFFFFFFFFFFFFFFFFFFFFFFFFF AND CALLER PUSH20 0xFFFFFFFFFFFFFFFFFFFFFFFFFFFFFFFFFFFFFFFF AND EQ PUSH2 0x926 JUMPI PUSH1 0x40 MLOAD PUSH32 0x8C379A000000000000000000000000000000000000000000000000000000000 DUP2 MSTORE PUSH1 0x4 ADD PUSH2 0x91D SWAP1 PUSH2 0x1368 JUMP JUMPDEST PUSH1 0x40 MLOAD DUP1 SWAP2 SUB SWAP1 REVERT JUMPDEST PUSH1 0x1 PUSH0 SWAP1 SLOAD SWAP1 PUSH2 0x100 EXP SWAP1 DIV PUSH20 0xFFFFFFFFFFFFFFFFFFFFFFFFFFFFFFFFFFFFFFFF AND PUSH20 0xFFFFFFFFFFFFFFFFFFFFFFFFFFFFFFFFFFFFFFFF AND DUP2 PUSH20 0xFFFFFFFFFFFFFFFFFFFFFFFFFFFFFFFFFFFFFFFF AND SUB PUSH2 0x9B5 JUMPI PUSH1 0x40 MLOAD PUSH32 0x8C379A000000000000000000000000000000000000000000000000000000000 DUP2 MSTORE PUSH1 0x4 ADD PUSH2 0x9AC SWAP1 PUSH2 0x13F6 JUMP JUMPDEST PUSH1 0x40 MLOAD DUP1 SWAP2 SUB SWAP1 REVERT JUMPDEST CALLER PUSH1 0x1 PUSH0 PUSH2 0x100 EXP DUP2 SLOAD DUP2 PUSH20 0xFFFFFFFFFFFFFFFFFFFFFFFFFFFFFFFFFFFFFFFF MUL NOT AND SWAP1 DUP4 PUSH20 0xFFFFFFFFFFFFFFFFFFFFFFFFFFFFFFFFFFFFFFFF AND MUL OR SWAP1 SSTORE POP POP JUMP JUMPDEST PUSH1 0x1 PUSH0 SWAP1 SLOAD SWAP1 PUSH2 0x100 EXP SWAP1 DIV PUSH20 0xFFFFFFFFFFFFFFFFFFFFFFFFFFFFFFFFFFFFFFFF AND PUSH20 0xFFFFFFFFFFFFFFFFFFFFFFFFFFFFFFFFFFFFFFFF AND CALLER PUSH20 0xFFFFFFFFFFFFFFFFFFFFFFFFFFFFFFFFFFFFFFFF AND EQ PUSH2 0xA87 JUMPI PUSH1 0x40 MLOAD PUSH32 0x8C379A000000000000000000000000000000000000000000000000000000000 DUP2 MSTORE PUSH1 0x4 ADD PUSH2 0xA7E SWAP1 PUSH2 0x145E JUMP JUMPDEST PUSH1 0x40 MLOAD DUP1 SWAP2 SUB SWAP1 REVERT JUMPDEST PUSH1 0x40 MLOAD DUP1 PUSH1 0x60 ADD PUSH1 0x40 MSTORE DUP1 DUP5 DUP2 MSTORE PUSH1 0x20 ADD DUP4 DUP2 MSTORE PUSH1 0x20 ADD DUP3 DUP2 MSTORE POP PUSH0 DUP5 PUSH1 0x40 MLOAD PUSH2 0xAB1 SWAP2 SWAP1 PUSH2 0x1039 JUMP JUMPDEST SWAP1 DUP2 MSTORE PUSH1 0x20 ADD PUSH1 0x40 MLOAD DUP1 SWAP2 SUB SWAP1 KECCAK256 PUSH0 DUP3 ADD MLOAD DUP2 PUSH0 ADD SWAP1 DUP2 PUSH2 0xAD2 SWAP2 SWAP1 PUSH2 0x1619 JUMP JUMPDEST POP PUSH1 0x20 DUP3 ADD MLOAD DUP2 PUSH1 0x1 ADD SSTORE PUSH1 0x40 DUP3 ADD MLOAD DUP2 PUSH1 0x2 ADD SSTORE SWAP1 POP POP POP POP POP JUMP JUMPDEST PUSH0 PUSH1 0x40 MLOAD SWAP1 POP SWAP1 JUMP JUMPDEST PUSH0 DUP1 REVERT JUMPDEST PUSH0 DUP1 REVERT JUMPDEST PUSH0 DUP1 REVERT JUMPDEST PUSH0 DUP1 REVERT JUMPDEST PUSH0 PUSH1 0x1F NOT PUSH1 0x1F DUP4 ADD AND SWAP1 POP SWAP2 SWAP1 POP JUMP JUMPDEST PUSH32 0x4E487B7100000000000000000000000000000000000000000000000000000000 PUSH0 MSTORE PUSH1 0x41 PUSH1 0x4 MSTORE PUSH1 0x24 PUSH0 REVERT JUMPDEST PUSH2 0xB4E DUP3 PUSH2 0xB08 JUMP JUMPDEST DUP2 ADD DUP2 DUP2 LT PUSH8 0xFFFFFFFFFFFFFFFF DUP3 GT OR ISZERO PUSH2 0xB6D JUMPI PUSH2 0xB6C PUSH2 0xB18 JUMP JUMPDEST JUMPDEST DUP1 PUSH1 0x40 MSTORE POP POP POP JUMP JUMPDEST PUSH0 PUSH2 0xB7F PUSH2 0xAEF JUMP JUMPDEST SWAP1 POP PUSH2 0xB8B DUP3 DUP3 PUSH2 0xB45 JUMP JUMPDEST SWAP2 SWAP1 POP JUMP JUMPDEST PUSH0 PUSH8 0xFFFFFFFFFFFFFFFF DUP3 GT ISZERO PUSH2 0xBAA JUMPI PUSH2 0xBA9 PUSH2 0xB18 JUMP JUMPDEST JUMPDEST PUSH2 0xBB3 DUP3 PUSH2 0xB08 JUMP JUMPDEST SWAP1 POP PUSH1 0x20 DUP2 ADD SWAP1 POP SWAP2 SWAP1 POP JUMP JUMPDEST DUP3 DUP2 DUP4 CALLDATACOPY PUSH0 DUP4 DUP4 ADD MSTORE POP POP POP JUMP JUMPDEST PUSH0 PUSH2 0xBE0 PUSH2 0xBDB DUP5 PUSH2 0xB90 JUMP JUMPDEST PUSH2 0xB76 JUMP JUMPDEST SWAP1 POP DUP3 DUP2 MSTORE PUSH1 0x20 DUP2 ADD DUP5 DUP5 DUP5 ADD GT ISZERO PUSH2 0xBFC JUMPI PUSH2 0xBFB PUSH2 0xB04 JUMP JUMPDEST JUMPDEST PUSH2 0xC07 DUP5 DUP3 DUP6 PUSH2 0xBC0 JUMP JUMPDEST POP SWAP4 SWAP3 POP POP POP JUMP JUMPDEST PUSH0 DUP3 PUSH1 0x1F DUP4 ADD SLT PUSH2 0xC23 JUMPI PUSH2 0xC22 PUSH2 0xB00 JUMP JUMPDEST JUMPDEST DUP2 CALLDATALOAD PUSH2 0xC33 DUP5 DUP3 PUSH1 0x20 DUP7 ADD PUSH2 0xBCE JUMP JUMPDEST SWAP2 POP POP SWAP3 SWAP2 POP POP JUMP JUMPDEST PUSH0 PUSH1 0x20 DUP3 DUP5 SUB SLT ISZERO PUSH2 0xC51 JUMPI PUSH2 0xC50 PUSH2 0xAF8 JUMP JUMPDEST JUMPDEST PUSH0 DUP3 ADD CALLDATALOAD PUSH8 0xFFFFFFFFFFFFFFFF DUP2 GT ISZERO PUSH2 0xC6E JUMPI PUSH2 0xC6D PUSH2 0xAFC JUMP JUMPDEST JUMPDEST PUSH2 0xC7A DUP5 DUP3 DUP6 ADD PUSH2 0xC0F JUMP JUMPDEST SWAP2 POP POP SWAP3 SWAP2 POP POP JUMP JUMPDEST PUSH0 DUP2 MLOAD SWAP1 POP SWAP2 SWAP1 POP JUMP JUMPDEST PUSH0 DUP3 DUP3 MSTORE PUSH1 0x20 DUP3 ADD SWAP1 POP SWAP3 SWAP2 POP POP JUMP JUMPDEST DUP3 DUP2 DUP4 MCOPY PUSH0 DUP4 DUP4 ADD MSTORE POP POP POP JUMP JUMPDEST PUSH0 PUSH2 0xCB5 DUP3 PUSH2 0xC83 JUMP JUMPDEST PUSH2 0xCBF DUP2 DUP6 PUSH2 0xC8D JUMP JUMPDEST SWAP4 POP PUSH2 0xCCF DUP2 DUP6 PUSH1 0x20 DUP7 ADD PUSH2 0xC9D JUMP JUMPDEST PUSH2 0xCD8 DUP2 PUSH2 0xB08 JUMP JUMPDEST DUP5 ADD SWAP2 POP POP SWAP3 SWAP2 POP POP JUMP JUMPDEST PUSH0 DUP2 SWAP1 POP SWAP2 SWAP1 POP JUMP JUMPDEST PUSH2 0xCF5 DUP2 PUSH2 0xCE3 JUMP JUMPDEST DUP3 MSTORE POP POP JUMP JUMPDEST PUSH0 PUSH1 0x60 DUP3 ADD SWAP1 POP DUP2 DUP2 SUB PUSH0 DUP4 ADD MSTORE PUSH2 0xD13 DUP2 DUP7 PUSH2 0xCAB JUMP JUMPDEST SWAP1 POP PUSH2 0xD22 PUSH1 0x20 DUP4 ADD DUP6 PUSH2 0xCEC JUMP JUMPDEST PUSH2 0xD2F PUSH1 0x40 DUP4 ADD DUP5 PUSH2 0xCEC JUMP JUMPDEST SWAP5 SWAP4 POP POP POP POP JUMP JUMPDEST PUSH0 PUSH20 0xFFFFFFFFFFFFFFFFFFFFFFFFFFFFFFFFFFFFFFFF DUP3 AND SWAP1 POP SWAP2 SWAP1 POP JUMP JUMPDEST PUSH0 PUSH2 0xD60 DUP3 PUSH2 0xD37 JUMP JUMPDEST SWAP1 POP SWAP2 SWAP1 POP JUMP JUMPDEST PUSH2 0xD70 DUP2 PUSH2 0xD56 JUMP JUMPDEST DUP2 EQ PUSH2 0xD7A JUMPI PUSH0 DUP1 REVERT JUMPDEST POP JUMP JUMPDEST PUSH0 DUP2 CALLDATALOAD SWAP1 POP PUSH2 0xD8B DUP2 PUSH2 0xD67 JUMP JUMPDEST SWAP3 SWAP2 POP POP JUMP JUMPDEST PUSH0 PUSH1 0x20 DUP3 DUP5 SUB SLT ISZERO PUSH2 0xDA6 JUMPI PUSH2 0xDA5 PUSH2 0xAF8 JUMP JUMPDEST JUMPDEST PUSH0 PUSH2 0xDB3 DUP5 DUP3 DUP6 ADD PUSH2 0xD7D JUMP JUMPDEST SWAP2 POP POP SWAP3 SWAP2 POP POP JUMP JUMPDEST PUSH2 0xDC5 DUP2 PUSH2 0xCE3 JUMP JUMPDEST DUP2 EQ PUSH2 0xDCF JUMPI PUSH0 DUP1 REVERT JUMPDEST POP JUMP JUMPDEST PUSH0 DUP2 CALLDATALOAD SWAP1 POP PUSH2 0xDE0 DUP2 PUSH2 0xDBC JUMP JUMPDEST SWAP3 SWAP2 POP POP JUMP JUMPDEST PUSH0 DUP1 PUSH1 0x40 DUP4 DUP6 SUB SLT ISZERO PUSH2 0xDFC JUMPI PUSH2 0xDFB PUSH2 0xAF8 JUMP JUMPDEST JUMPDEST PUSH0 DUP4 ADD CALLDATALOAD PUSH8 0xFFFFFFFFFFFFFFFF DUP2 GT ISZERO PUSH2 0xE19 JUMPI PUSH2 0xE18 PUSH2 0xAFC JUMP JUMPDEST JUMPDEST PUSH2 0xE25 DUP6 DUP3 DUP7 ADD PUSH2 0xC0F JUMP JUMPDEST SWAP3 POP POP PUSH1 0x20 PUSH2 0xE36 DUP6 DUP3 DUP7 ADD PUSH2 0xDD2 JUMP JUMPDEST SWAP2 POP POP SWAP3 POP SWAP3 SWAP1 POP JUMP JUMPDEST PUSH0 DUP1 PUSH0 PUSH1 0x60 DUP5 DUP7 SUB SLT ISZERO PUSH2 0xE57 JUMPI PUSH2 0xE56 PUSH2 0xAF8 JUMP JUMPDEST JUMPDEST PUSH0 DUP5 ADD CALLDATALOAD PUSH8 0xFFFFFFFFFFFFFFFF DUP2 GT ISZERO PUSH2 0xE74 JUMPI PUSH2 0xE73 PUSH2 0xAFC JUMP JUMPDEST JUMPDEST PUSH2 0xE80 DUP7 DUP3 DUP8 ADD PUSH2 0xC0F JUMP JUMPDEST SWAP4 POP POP PUSH1 0x20 PUSH2 0xE91 DUP7 DUP3 DUP8 ADD PUSH2 0xDD2 JUMP JUMPDEST SWAP3 POP POP PUSH1 0x40 PUSH2 0xEA2 DUP7 DUP3 DUP8 ADD PUSH2 0xDD2 JUMP JUMPDEST SWAP2 POP POP SWAP3 POP SWAP3 POP SWAP3 JUMP JUMPDEST PUSH32 0x4E487B7100000000000000000000000000000000000000000000000000000000 PUSH0 MSTORE PUSH1 0x22 PUSH1 0x4 MSTORE PUSH1 0x24 PUSH0 REVERT JUMPDEST PUSH0 PUSH1 0x2 DUP3 DIV SWAP1 POP PUSH1 0x1 DUP3 AND DUP1 PUSH2 0xEF0 JUMPI PUSH1 0x7F DUP3 AND SWAP2 POP JUMPDEST PUSH1 0x20 DUP3 LT DUP2 SUB PUSH2 0xF03 JUMPI PUSH2 0xF02 PUSH2 0xEAC JUMP JUMPDEST JUMPDEST POP SWAP2 SWAP1 POP JUMP JUMPDEST PUSH32 0x4F6E6C79204F6E7765722063616E206772616E74206163636573732E00000000 PUSH0 DUP3 ADD MSTORE POP JUMP JUMPDEST PUSH0 PUSH2 0xF3D PUSH1 0x1C DUP4 PUSH2 0xC8D JUMP JUMPDEST SWAP2 POP PUSH2 0xF48 DUP3 PUSH2 0xF09 JUMP JUMPDEST PUSH1 0x20 DUP3 ADD SWAP1 POP SWAP2 SWAP1 POP JUMP JUMPDEST PUSH0 PUSH1 0x20 DUP3 ADD SWAP1 POP DUP2 DUP2 SUB PUSH0 DUP4 ADD MSTORE PUSH2 0xF6A DUP2 PUSH2 0xF31 JUMP JUMPDEST SWAP1 POP SWAP2 SWAP1 POP JUMP JUMPDEST PUSH32 0x6F6E6C79206F6E7765722063616E20757064617465207468652070726F647563 PUSH0 DUP3 ADD MSTORE PUSH32 0x74732E0000000000000000000000000000000000000000000000000000000000 PUSH1 0x20 DUP3 ADD MSTORE POP JUMP JUMPDEST PUSH0 PUSH2 0xFCB PUSH1 0x23 DUP4 PUSH2 0xC8D JUMP JUMPDEST SWAP2 POP PUSH2 0xFD6 DUP3 PUSH2 0xF71 JUMP JUMPDEST PUSH1 0x40 DUP3 ADD SWAP1 POP SWAP2 SWAP1 POP JUMP JUMPDEST PUSH0 PUSH1 0x20 DUP3 ADD SWAP1 POP DUP2 DUP2 SUB PUSH0 DUP4 ADD MSTORE PUSH2 0xFF8 DUP2 PUSH2 0xFBF JUMP JUMPDEST SWAP1 POP SWAP2 SWAP1 POP JUMP JUMPDEST PUSH0 DUP2 SWAP1 POP SWAP3 SWAP2 POP POP JUMP JUMPDEST PUSH0 PUSH2 0x1013 DUP3 PUSH2 0xC83 JUMP JUMPDEST PUSH2 0x101D DUP2 DUP6 PUSH2 0xFFF JUMP JUMPDEST SWAP4 POP PUSH2 0x102D DUP2 DUP6 PUSH1 0x20 DUP7 ADD PUSH2 0xC9D JUMP JUMPDEST DUP1 DUP5 ADD SWAP2 POP POP SWAP3 SWAP2 POP POP JUMP JUMPDEST PUSH0 PUSH2 0x1044 DUP3 DUP5 PUSH2 0x1009 JUMP JUMPDEST SWAP2 POP DUP2 SWAP1 POP SWAP3 SWAP2 POP POP JUMP JUMPDEST PUSH32 0x50726F6475637420646F657327742065786973742E0000000000000000000000 PUSH0 DUP3 ADD MSTORE POP JUMP JUMPDEST PUSH0 PUSH2 0x1083 PUSH1 0x15 DUP4 PUSH2 0xC8D JUMP JUMPDEST SWAP2 POP PUSH2 0x108E DUP3 PUSH2 0x104F JUMP JUMPDEST PUSH1 0x20 DUP3 ADD SWAP1 POP SWAP2 SWAP1 POP JUMP JUMPDEST PUSH0 PUSH1 0x20 DUP3 ADD SWAP1 POP DUP2 DUP2 SUB PUSH0 DUP4 ADD MSTORE PUSH2 0x10B0 DUP2 PUSH2 0x1077 JUMP JUMPDEST SWAP1 POP SWAP2 SWAP1 POP JUMP JUMPDEST PUSH32 0x4F6E6C79204F6E7765722063616E207570646174652073746F636B2E00000000 PUSH0 DUP3 ADD MSTORE POP JUMP JUMPDEST PUSH0 PUSH2 0x10EB PUSH1 0x1C DUP4 PUSH2 0xC8D JUMP JUMPDEST SWAP2 POP PUSH2 0x10F6 DUP3 PUSH2 0x10B7 JUMP JUMPDEST PUSH1 0x20 DUP3 ADD SWAP1 POP SWAP2 SWAP1 POP JUMP JUMPDEST PUSH0 PUSH1 0x20 DUP3 ADD SWAP1 POP DUP2 DUP2 SUB PUSH0 DUP4 ADD MSTORE PUSH2 0x1118 DUP2 PUSH2 0x10DF JUMP JUMPDEST SWAP1 POP SWAP2 SWAP1 POP JUMP JUMPDEST PUSH32 0x4E487B7100000000000000000000000000000000000000000000000000000000 PUSH0 MSTORE PUSH1 0x11 PUSH1 0x4 MSTORE PUSH1 0x24 PUSH0 REVERT JUMPDEST PUSH0 PUSH2 0x1156 DUP3 PUSH2 0xCE3 JUMP JUMPDEST SWAP2 POP PUSH2 0x1161 DUP4 PUSH2 0xCE3 JUMP JUMPDEST SWAP3 POP DUP3 DUP3 MUL PUSH2 0x116F DUP2 PUSH2 0xCE3 JUMP JUMPDEST SWAP2 POP DUP3 DUP3 DIV DUP5 EQ DUP4 ISZERO OR PUSH2 0x1186 JUMPI PUSH2 0x1185 PUSH2 0x111F JUMP JUMPDEST JUMPDEST POP SWAP3 SWAP2 POP POP JUMP JUMPDEST PUSH32 0x496E636F7272656374207061796D656E74000000000000000000000000000000 PUSH0 DUP3 ADD MSTORE POP JUMP JUMPDEST PUSH0 PUSH2 0x11C1 PUSH1 0x11 DUP4 PUSH2 0xC8D JUMP JUMPDEST SWAP2 POP PUSH2 0x11CC DUP3 PUSH2 0x118D JUMP JUMPDEST PUSH1 0x20 DUP3 ADD SWAP1 POP SWAP2 SWAP1 POP JUMP JUMPDEST PUSH0 PUSH1 0x20 DUP3 ADD SWAP1 POP DUP2 DUP2 SUB PUSH0 DUP4 ADD MSTORE PUSH2 0x11EE DUP2 PUSH2 0x11B5 JUMP JUMPDEST SWAP1 POP SWAP2 SWAP1 POP JUMP JUMPDEST PUSH32 0x4E6F7420656E6F756768742053746F636B2E0000000000000000000000000000 PUSH0 DUP3 ADD MSTORE POP JUMP JUMPDEST PUSH0 PUSH2 0x1229 PUSH1 0x12 DUP4 PUSH2 0xC8D JUMP JUMPDEST SWAP2 POP PUSH2 0x1234 DUP3 PUSH2 0x11F5 JUMP JUMPDEST PUSH1 0x20 DUP3 ADD SWAP1 POP SWAP2 SWAP1 POP JUMP JUMPDEST PUSH0 PUSH1 0x20 DUP3 ADD SWAP1 POP DUP2 DUP2 SUB PUSH0 DUP4 ADD MSTORE PUSH2 0x1256 DUP2 PUSH2 0x121D JUMP JUMPDEST SWAP1 POP SWAP2 SWAP1 POP JUMP JUMPDEST PUSH0 PUSH2 0x1267 DUP3 PUSH2 0xCE3 JUMP JUMPDEST SWAP2 POP PUSH2 0x1272 DUP4 PUSH2 0xCE3 JUMP JUMPDEST SWAP3 POP DUP3 DUP3 SUB SWAP1 POP DUP2 DUP2 GT ISZERO PUSH2 0x128A JUMPI PUSH2 0x1289 PUSH2 0x111F JUMP JUMPDEST JUMPDEST SWAP3 SWAP2 POP POP JUMP JUMPDEST PUSH32 0x6F6E6C7920746865206F6E7765722063616E2064657374726F79207468652063 PUSH0 DUP3 ADD MSTORE PUSH32 0x6F6E74726163742E000000000000000000000000000000000000000000000000 PUSH1 0x20 DUP3 ADD MSTORE POP JUMP JUMPDEST PUSH0 PUSH2 0x12EA PUSH1 0x28 DUP4 PUSH2 0xC8D JUMP JUMPDEST SWAP2 POP PUSH2 0x12F5 DUP3 PUSH2 0x1290 JUMP JUMPDEST PUSH1 0x40 DUP3 ADD SWAP1 POP SWAP2 SWAP1 POP JUMP JUMPDEST PUSH0 PUSH1 0x20 DUP3 ADD SWAP1 POP DUP2 DUP2 SUB PUSH0 DUP4 ADD MSTORE PUSH2 0x1317 DUP2 PUSH2 0x12DE JUMP JUMPDEST SWAP1 POP SWAP2 SWAP1 POP JUMP JUMPDEST PUSH32 0x4F6E6C79204F6E7765722063616E207265766F6B65206163636573732E000000 PUSH0 DUP3 ADD MSTORE POP JUMP JUMPDEST PUSH0 PUSH2 0x1352 PUSH1 0x1D DUP4 PUSH2 0xC8D JUMP JUMPDEST SWAP2 POP PUSH2 0x135D DUP3 PUSH2 0x131E JUMP JUMPDEST PUSH1 0x20 DUP3 ADD SWAP1 POP SWAP2 SWAP1 POP JUMP JUMPDEST PUSH0 PUSH1 0x20 DUP3 ADD SWAP1 POP DUP2 DUP2 SUB PUSH0 DUP4 ADD MSTORE PUSH2 0x137F DUP2 PUSH2 0x1346 JUMP JUMPDEST SWAP1 POP SWAP2 SWAP1 POP JUMP JUMPDEST PUSH32 0x43616E6E6F74207265766F6B652061636365737320666F722074686520637572 PUSH0 DUP3 ADD MSTORE PUSH32 0x72656E74206F776E65722E000000000000000000000000000000000000000000 PUSH1 0x20 DUP3 ADD MSTORE POP JUMP JUMPDEST PUSH0 PUSH2 0x13E0 PUSH1 0x2B DUP4 PUSH2 0xC8D JUMP JUMPDEST SWAP2 POP PUSH2 0x13EB DUP3 PUSH2 0x1386 JUMP JUMPDEST PUSH1 0x40 DUP3 ADD SWAP1 POP SWAP2 SWAP1 POP JUMP JUMPDEST PUSH0 PUSH1 0x20 DUP3 ADD SWAP1 POP DUP2 DUP2 SUB PUSH0 DUP4 ADD MSTORE PUSH2 0x140D DUP2 PUSH2 0x13D4 JUMP JUMPDEST SWAP1 POP SWAP2 SWAP1 POP JUMP JUMPDEST PUSH32 0x4F6E6C79206F776E65722063616E206164642070726F64756374732E00000000 PUSH0 DUP3 ADD MSTORE POP JUMP JUMPDEST PUSH0 PUSH2 0x1448 PUSH1 0x1C DUP4 PUSH2 0xC8D JUMP JUMPDEST SWAP2 POP PUSH2 0x1453 DUP3 PUSH2 0x1414 JUMP JUMPDEST PUSH1 0x20 DUP3 ADD SWAP1 POP SWAP2 SWAP1 POP JUMP JUMPDEST PUSH0 PUSH1 0x20 DUP3 ADD SWAP1 POP DUP2 DUP2 SUB PUSH0 DUP4 ADD MSTORE PUSH2 0x1475 DUP2 PUSH2 0x143C JUMP JUMPDEST SWAP1 POP SWAP2 SWAP1 POP JUMP JUMPDEST PUSH0 DUP2 SWAP1 POP DUP2 PUSH0 MSTORE PUSH1 0x20 PUSH0 KECCAK256 SWAP1 POP SWAP2 SWAP1 POP JUMP JUMPDEST PUSH0 PUSH1 0x20 PUSH1 0x1F DUP4 ADD DIV SWAP1 POP SWAP2 SWAP1 POP JUMP JUMPDEST PUSH0 DUP3 DUP3 SHL SWAP1 POP SWAP3 SWAP2 POP POP JUMP JUMPDEST PUSH0 PUSH1 0x8 DUP4 MUL PUSH2 0x14D8 PUSH32 0xFFFFFFFFFFFFFFFFFFFFFFFFFFFFFFFFFFFFFFFFFFFFFFFFFFFFFFFFFFFFFFFF DUP3 PUSH2 0x149D JUMP JUMPDEST PUSH2 0x14E2 DUP7 DUP4 PUSH2 0x149D JUMP JUMPDEST SWAP6 POP DUP1 NOT DUP5 AND SWAP4 POP DUP1 DUP7 AND DUP5 OR SWAP3 POP POP POP SWAP4 SWAP3 POP POP POP JUMP JUMPDEST PUSH0 DUP2 SWAP1 POP SWAP2 SWAP1 POP JUMP JUMPDEST PUSH0 PUSH2 0x151D PUSH2 0x1518 PUSH2 0x1513 DUP5 PUSH2 0xCE3 JUMP JUMPDEST PUSH2 0x14FA JUMP JUMPDEST PUSH2 0xCE3 JUMP JUMPDEST SWAP1 POP SWAP2 SWAP1 POP JUMP JUMPDEST PUSH0 DUP2 SWAP1 POP SWAP2 SWAP1 POP JUMP JUMPDEST PUSH2 0x1536 DUP4 PUSH2 0x1503 JUMP JUMPDEST PUSH2 0x154A PUSH2 0x1542 DUP3 PUSH2 0x1524 JUMP JUMPDEST DUP5 DUP5 SLOAD PUSH2 0x14A9 JUMP JUMPDEST DUP3 SSTORE POP POP POP POP JUMP JUMPDEST PUSH0 SWAP1 JUMP JUMPDEST PUSH2 0x155E PUSH2 0x1552 JUMP JUMPDEST PUSH2 0x1569 DUP2 DUP5 DUP5 PUSH2 0x152D JUMP JUMPDEST POP POP POP JUMP JUMPDEST JUMPDEST DUP2 DUP2 LT ISZERO PUSH2 0x158C JUMPI PUSH2 0x1581 PUSH0 DUP3 PUSH2 0x1556 JUMP JUMPDEST PUSH1 0x1 DUP2 ADD SWAP1 POP PUSH2 0x156F JUMP JUMPDEST POP POP JUMP JUMPDEST PUSH1 0x1F DUP3 GT ISZERO PUSH2 0x15D1 JUMPI PUSH2 0x15A2 DUP2 PUSH2 0x147C JUMP JUMPDEST PUSH2 0x15AB DUP5 PUSH2 0x148E JUMP JUMPDEST DUP2 ADD PUSH1 0x20 DUP6 LT ISZERO PUSH2 0x15BA JUMPI DUP2 SWAP1 POP JUMPDEST PUSH2 0x15CE PUSH2 0x15C6 DUP6 PUSH2 0x148E JUMP JUMPDEST DUP4 ADD DUP3 PUSH2 0x156E JUMP JUMPDEST POP POP JUMPDEST POP POP POP JUMP JUMPDEST PUSH0 DUP3 DUP3 SHR SWAP1 POP SWAP3 SWAP2 POP POP JUMP JUMPDEST PUSH0 PUSH2 0x15F1 PUSH0 NOT DUP5 PUSH1 0x8 MUL PUSH2 0x15D6 JUMP JUMPDEST NOT DUP1 DUP4 AND SWAP2 POP POP SWAP3 SWAP2 POP POP JUMP JUMPDEST PUSH0 PUSH2 0x1609 DUP4 DUP4 PUSH2 0x15E2 JUMP JUMPDEST SWAP2 POP DUP3 PUSH1 0x2 MUL DUP3 OR SWAP1 POP SWAP3 SWAP2 POP POP JUMP JUMPDEST PUSH2 0x1622 DUP3 PUSH2 0xC83 JUMP JUMPDEST PUSH8 0xFFFFFFFFFFFFFFFF DUP2 GT ISZERO PUSH2 0x163B JUMPI PUSH2 0x163A PUSH2 0xB18 JUMP JUMPDEST JUMPDEST PUSH2 0x1645 DUP3 SLOAD PUSH2 0xED9 JUMP JUMPDEST PUSH2 0x1650 DUP3 DUP3 DUP6 PUSH2 0x1590 JUMP JUMPDEST PUSH0 PUSH1 0x20 SWAP1 POP PUSH1 0x1F DUP4 GT PUSH1 0x1 DUP2 EQ PUSH2 0x1681 JUMPI PUSH0 DUP5 ISZERO PUSH2 0x166F JUMPI DUP3 DUP8 ADD MLOAD SWAP1 POP JUMPDEST PUSH2 0x1679 DUP6 DUP3 PUSH2 0x15FE JUMP JUMPDEST DUP7 SSTORE POP PUSH2 0x16E0 JUMP JUMPDEST PUSH1 0x1F NOT DUP5 AND PUSH2 0x168F DUP7 PUSH2 0x147C JUMP JUMPDEST PUSH0 JUMPDEST DUP3 DUP2 LT ISZERO PUSH2 0x16B6 JUMPI DUP5 DUP10 ADD MLOAD DUP3 SSTORE PUSH1 0x1 DUP3 ADD SWAP2 POP PUSH1 0x20 DUP6 ADD SWAP5 POP PUSH1 0x20 DUP2 ADD SWAP1 POP PUSH2 0x1691 JUMP JUMPDEST DUP7 DUP4 LT ISZERO PUSH2 0x16D3 JUMPI DUP5 DUP10 ADD MLOAD PUSH2 0x16CF PUSH1 0x1F DUP10 AND DUP3 PUSH2 0x15E2 JUMP JUMPDEST DUP4 SSTORE POP JUMPDEST PUSH1 0x1 PUSH1 0x2 DUP9 MUL ADD DUP9 SSTORE POP POP POP JUMPDEST POP POP POP POP POP POP JUMP INVALID LOG2 PUSH5 0x6970667358 0x22 SLT KECCAK256 PUSH21 0xBADB20D9202453F0FBCBD8FBCADB73EEBECE6CEDB7 SWAP16 RETURNDATACOPY STOP PUSH5 0x94C098EA87 ISZERO PUSH5 0x736F6C6343 STOP ADDMOD BYTE STOP CALLER "
				},
				"gasEstimates": {
					"creation": {
						"codeDepositCost": "1183600",
						"executionCost": "25490",
						"totalCost": "1209090"
					},
					"external": {
						"addprodcut(string,uint256,uint256)": "infinite",
						"destroy()": "32091",
						"getproduct(string)": "infinite",
						"grantAccess(address)": "26907",
						"products(string)": "infinite",
						"purchased(string,uint256)": "infinite",
						"revokeAccess(address)": "29119",
						"updateProductPrice(string,uint256)": "infinite",
						"updateProductstock(string,uint256)": "infinite"
					}
				},
				"methodIdentifiers": {
					"addprodcut(string,uint256,uint256)": "dc319239",
					"destroy()": "83197ef0",
					"getproduct(string)": "39575866",
					"grantAccess(address)": "0ae5e739",
					"products(string)": "0186a423",
					"purchased(string,uint256)": "704402ae",
					"revokeAccess(address)": "85e68531",
					"updateProductPrice(string,uint256)": "18e308be",
					"updateProductstock(string,uint256)": "42763af1"
				}
			},
			"storageLayout": {
				"storage": [
					{
						"astId": 13,
						"contract": "Retails.sol:Retail",
						"label": "products",
						"offset": 0,
						"slot": "0",
						"type": "t_mapping(t_string_memory_ptr,t_struct(Product)8_storage)"
					},
					{
						"astId": 15,
						"contract": "Retails.sol:Retail",
						"label": "owner",
						"offset": 0,
						"slot": "1",
						"type": "t_address_payable"
					}
				],
				"types": {
					"t_address_payable": {
						"encoding": "inplace",
						"label": "address payable",
						"numberOfBytes": "20"
					},
					"t_mapping(t_string_memory_ptr,t_struct(Product)8_storage)": {
						"encoding": "mapping",
						"key": "t_string_memory_ptr",
						"label": "mapping(string => struct Retail.Product)",
						"numberOfBytes": "32",
						"value": "t_struct(Product)8_storage"
					},
					"t_string_memory_ptr": {
						"encoding": "bytes",
						"label": "string",
						"numberOfBytes": "32"
					},
					"t_string_storage": {
						"encoding": "bytes",
						"label": "string",
						"numberOfBytes": "32"
					},
					"t_struct(Product)8_storage": {
						"encoding": "inplace",
						"label": "struct Retail.Product",
						"members": [
							{
								"astId": 3,
								"contract": "Retails.sol:Retail",
								"label": "name",
								"offset": 0,
								"slot": "0",
								"type": "t_string_storage"
							},
							{
								"astId": 5,
								"contract": "Retails.sol:Retail",
								"label": "price",
								"offset": 0,
								"slot": "1",
								"type": "t_uint256"
							},
							{
								"astId": 7,
								"contract": "Retails.sol:Retail",
								"label": "stock",
								"offset": 0,
								"slot": "2",
								"type": "t_uint256"
							}
						],
						"numberOfBytes": "96"
					},
					"t_uint256": {
						"encoding": "inplace",
						"label": "uint256",
						"numberOfBytes": "32"
					}
				}
			},
			"userdoc": {
				"kind": "user",
				"methods": {},
				"version": 1
			}
		}
	}
}