{
	"Contracts.sol": {
		"DBank": {
			"abi": [
				{
					"inputs": [],
					"stateMutability": "nonpayable",
					"type": "constructor"
				},
				{
					"inputs": [
						{
							"internalType": "address",
							"name": "recipient",
							"type": "address"
						},
						{
							"internalType": "uint256",
							"name": "amount",
							"type": "uint256"
						}
					],
					"name": "Transfer",
					"outputs": [],
					"stateMutability": "nonpayable",
					"type": "function"
				},
				{
					"inputs": [
						{
							"internalType": "uint256",
							"name": "amount",
							"type": "uint256"
						}
					],
					"name": "addBalance",
					"outputs": [
						{
							"internalType": "uint256",
							"name": "",
							"type": "uint256"
						}
					],
					"stateMutability": "nonpayable",
					"type": "function"
				},
				{
					"inputs": [],
					"name": "getBalance",
					"outputs": [
						{
							"internalType": "uint256",
							"name": "",
							"type": "uint256"
						}
					],
					"stateMutability": "view",
					"type": "function"
				}
			],
			"devdoc": {
				"kind": "dev",
				"methods": {},
				"version": 1
			},
			"evm": {
				"assembly": "    /* \"Contracts.sol\":68:1370  contract DBank... */\n  mstore(0x40, 0x80)\n    /* \"Contracts.sol\":265:309  constructor()... */\n  callvalue\n  dup1\n  iszero\n  tag_1\n  jumpi\n  0x00\n  dup1\n  revert\ntag_1:\n  pop\n    /* \"Contracts.sol\":294:304  msg.sender */\n  caller\n    /* \"Contracts.sol\":286:291  Owner */\n  0x00\n  dup1\n    /* \"Contracts.sol\":286:304  Owner = msg.sender */\n  0x0100\n  exp\n  dup2\n  sload\n  dup2\n  0xffffffffffffffffffffffffffffffffffffffff\n  mul\n  not\n  and\n  swap1\n  dup4\n  0xffffffffffffffffffffffffffffffffffffffff\n  and\n  mul\n  or\n  swap1\n  sstore\n  pop\n    /* \"Contracts.sol\":68:1370  contract DBank... */\n  dataSize(sub_0)\n  dup1\n  dataOffset(sub_0)\n  0x00\n  codecopy\n  0x00\n  return\nstop\n\nsub_0: assembly {\n        /* \"Contracts.sol\":68:1370  contract DBank... */\n      mstore(0x40, 0x80)\n      callvalue\n      dup1\n      iszero\n      tag_1\n      jumpi\n      0x00\n      dup1\n      revert\n    tag_1:\n      pop\n      jumpi(tag_2, lt(calldatasize, 0x04))\n      shr(0xe0, calldataload(0x00))\n      dup1\n      0x12065fe0\n      eq\n      tag_3\n      jumpi\n      dup1\n      0x69ca02dd\n      eq\n      tag_4\n      jumpi\n      dup1\n      0xd91921ed\n      eq\n      tag_5\n      jumpi\n    tag_2:\n      0x00\n      dup1\n      revert\n        /* \"Contracts.sol\":691:777  function getBalance() public view returns(uint)... */\n    tag_3:\n      tag_6\n      tag_7\n      jump\t// in\n    tag_6:\n      mload(0x40)\n      tag_8\n      swap2\n      swap1\n      tag_9\n      jump\t// in\n    tag_8:\n      mload(0x40)\n      dup1\n      swap2\n      sub\n      swap1\n      return\n        /* \"Contracts.sol\":834:1205  function Transfer(address recipient, uint amount) public... */\n    tag_4:\n      tag_10\n      0x04\n      dup1\n      calldatasize\n      sub\n      dup2\n      add\n      swap1\n      tag_11\n      swap2\n      swap1\n      tag_12\n      jump\t// in\n    tag_11:\n      tag_13\n      jump\t// in\n    tag_10:\n      stop\n        /* \"Contracts.sol\":363:636  function addBalance(uint amount) public returns(uint)... */\n    tag_5:\n      tag_14\n      0x04\n      dup1\n      calldatasize\n      sub\n      dup2\n      add\n      swap1\n      tag_15\n      swap2\n      swap1\n      tag_16\n      jump\t// in\n    tag_15:\n      tag_17\n      jump\t// in\n    tag_14:\n      mload(0x40)\n      tag_18\n      swap2\n      swap1\n      tag_9\n      jump\t// in\n    tag_18:\n      mload(0x40)\n      dup1\n      swap2\n      sub\n      swap1\n      return\n        /* \"Contracts.sol\":691:777  function getBalance() public view returns(uint)... */\n    tag_7:\n        /* \"Contracts.sol\":733:737  uint */\n      0x00\n        /* \"Contracts.sol\":753:760  Balance */\n      0x01\n        /* \"Contracts.sol\":753:772  Balance[msg.sender] */\n      0x00\n        /* \"Contracts.sol\":761:771  msg.sender */\n      caller\n        /* \"Contracts.sol\":753:772  Balance[msg.sender] */\n      0xffffffffffffffffffffffffffffffffffffffff\n      and\n      0xffffffffffffffffffffffffffffffffffffffff\n      and\n      dup2\n      mstore\n      0x20\n      add\n      swap1\n      dup2\n      mstore\n      0x20\n      add\n      0x00\n      keccak256\n      sload\n        /* \"Contracts.sol\":746:772  return Balance[msg.sender] */\n      swap1\n      pop\n        /* \"Contracts.sol\":691:777  function getBalance() public view returns(uint)... */\n      swap1\n      jump\t// out\n        /* \"Contracts.sol\":834:1205  function Transfer(address recipient, uint amount) public... */\n    tag_13:\n        /* \"Contracts.sol\":959:968  recipient */\n      dup2\n        /* \"Contracts.sol\":945:968  msg.sender != recipient */\n      0xffffffffffffffffffffffffffffffffffffffff\n      and\n        /* \"Contracts.sol\":945:955  msg.sender */\n      caller\n        /* \"Contracts.sol\":945:968  msg.sender != recipient */\n      0xffffffffffffffffffffffffffffffffffffffff\n      and\n      sub\n        /* \"Contracts.sol\":937:1004  require(msg.sender != recipient, \"Can't Transfer !! Self Account.\") */\n      tag_21\n      jumpi\n      mload(0x40)\n      0x08c379a000000000000000000000000000000000000000000000000000000000\n      dup2\n      mstore\n      0x04\n      add\n      tag_22\n      swap1\n      tag_23\n      jump\t// in\n    tag_22:\n      mload(0x40)\n      dup1\n      swap2\n      sub\n      swap1\n      revert\n    tag_21:\n        /* \"Contracts.sol\":1096:1102  amount */\n      dup1\n        /* \"Contracts.sol\":1073:1080  Balance */\n      0x01\n        /* \"Contracts.sol\":1073:1092  Balance[msg.sender] */\n      0x00\n        /* \"Contracts.sol\":1081:1091  msg.sender */\n      caller\n        /* \"Contracts.sol\":1073:1092  Balance[msg.sender] */\n      0xffffffffffffffffffffffffffffffffffffffff\n      and\n      0xffffffffffffffffffffffffffffffffffffffff\n      and\n      dup2\n      mstore\n      0x20\n      add\n      swap1\n      dup2\n      mstore\n      0x20\n      add\n      0x00\n      keccak256\n      sload\n        /* \"Contracts.sol\":1073:1102  Balance[msg.sender] >= amount */\n      lt\n      iszero\n        /* \"Contracts.sol\":1065:1153  require(Balance[msg.sender] >= amount, \"No, We Can't Transfer. Insufficient Balance !!\") */\n      tag_24\n      jumpi\n      mload(0x40)\n      0x08c379a000000000000000000000000000000000000000000000000000000000\n      dup2\n      mstore\n      0x04\n      add\n      tag_25\n      swap1\n      tag_26\n      jump\t// in\n    tag_25:\n      mload(0x40)\n      dup1\n      swap2\n      sub\n      swap1\n      revert\n    tag_24:\n        /* \"Contracts.sol\":1160:1200  _transfer(msg.sender, recipient, amount) */\n      tag_27\n        /* \"Contracts.sol\":1170:1180  msg.sender */\n      caller\n        /* \"Contracts.sol\":1182:1191  recipient */\n      dup4\n        /* \"Contracts.sol\":1193:1199  amount */\n      dup4\n        /* \"Contracts.sol\":1160:1169  _transfer */\n      tag_28\n        /* \"Contracts.sol\":1160:1200  _transfer(msg.sender, recipient, amount) */\n      jump\t// in\n    tag_27:\n        /* \"Contracts.sol\":834:1205  function Transfer(address recipient, uint amount) public... */\n      pop\n      pop\n      jump\t// out\n        /* \"Contracts.sol\":363:636  function addBalance(uint amount) public returns(uint)... */\n    tag_17:\n        /* \"Contracts.sol\":411:415  uint */\n      0x00\n        /* \"Contracts.sol\":507:512  Owner */\n      dup1\n      0x00\n      swap1\n      sload\n      swap1\n      0x0100\n      exp\n      swap1\n      div\n      0xffffffffffffffffffffffffffffffffffffffff\n      and\n        /* \"Contracts.sol\":493:512  msg.sender == Owner */\n      0xffffffffffffffffffffffffffffffffffffffff\n      and\n        /* \"Contracts.sol\":493:503  msg.sender */\n      caller\n        /* \"Contracts.sol\":493:512  msg.sender == Owner */\n      0xffffffffffffffffffffffffffffffffffffffff\n      and\n      eq\n        /* \"Contracts.sol\":485:543  require(msg.sender == Owner, \"Yes it is Owner Account !!\") */\n      tag_30\n      jumpi\n      mload(0x40)\n      0x08c379a000000000000000000000000000000000000000000000000000000000\n      dup2\n      mstore\n      0x04\n      add\n      tag_31\n      swap1\n      tag_32\n      jump\t// in\n    tag_31:\n      mload(0x40)\n      dup1\n      swap2\n      sub\n      swap1\n      revert\n    tag_30:\n        /* \"Contracts.sol\":592:598  amount */\n      dup2\n        /* \"Contracts.sol\":570:577  Balance */\n      0x01\n        /* \"Contracts.sol\":570:589  Balance[msg.sender] */\n      0x00\n        /* \"Contracts.sol\":578:588  msg.sender */\n      caller\n        /* \"Contracts.sol\":570:589  Balance[msg.sender] */\n      0xffffffffffffffffffffffffffffffffffffffff\n      and\n      0xffffffffffffffffffffffffffffffffffffffff\n      and\n      dup2\n      mstore\n      0x20\n      add\n      swap1\n      dup2\n      mstore\n      0x20\n      add\n      0x00\n      keccak256\n      sload\n        /* \"Contracts.sol\":570:598  Balance[msg.sender] + amount */\n      tag_33\n      swap2\n      swap1\n      tag_34\n      jump\t// in\n    tag_33:\n        /* \"Contracts.sol\":548:555  Balance */\n      0x01\n        /* \"Contracts.sol\":548:567  Balance[msg.sender] */\n      0x00\n        /* \"Contracts.sol\":556:566  msg.sender */\n      caller\n        /* \"Contracts.sol\":548:567  Balance[msg.sender] */\n      0xffffffffffffffffffffffffffffffffffffffff\n      and\n      0xffffffffffffffffffffffffffffffffffffffff\n      and\n      dup2\n      mstore\n      0x20\n      add\n      swap1\n      dup2\n      mstore\n      0x20\n      add\n      0x00\n      keccak256\n        /* \"Contracts.sol\":548:598  Balance[msg.sender] = Balance[msg.sender] + amount */\n      dup2\n      swap1\n      sstore\n      pop\n        /* \"Contracts.sol\":612:619  Balance */\n      0x01\n        /* \"Contracts.sol\":612:631  Balance[msg.sender] */\n      0x00\n        /* \"Contracts.sol\":620:630  msg.sender */\n      caller\n        /* \"Contracts.sol\":612:631  Balance[msg.sender] */\n      0xffffffffffffffffffffffffffffffffffffffff\n      and\n      0xffffffffffffffffffffffffffffffffffffffff\n      and\n      dup2\n      mstore\n      0x20\n      add\n      swap1\n      dup2\n      mstore\n      0x20\n      add\n      0x00\n      keccak256\n      sload\n        /* \"Contracts.sol\":605:631  return Balance[msg.sender] */\n      swap1\n      pop\n        /* \"Contracts.sol\":363:636  function addBalance(uint amount) public returns(uint)... */\n      swap2\n      swap1\n      pop\n      jump\t// out\n        /* \"Contracts.sol\":1210:1365  function _transfer(address From, address To, uint Amount) private... */\n    tag_28:\n        /* \"Contracts.sol\":1315:1321  Amount */\n      dup1\n        /* \"Contracts.sol\":1299:1306  Balance */\n      0x01\n        /* \"Contracts.sol\":1299:1312  Balance[From] */\n      0x00\n        /* \"Contracts.sol\":1307:1311  From */\n      dup6\n        /* \"Contracts.sol\":1299:1312  Balance[From] */\n      0xffffffffffffffffffffffffffffffffffffffff\n      and\n      0xffffffffffffffffffffffffffffffffffffffff\n      and\n      dup2\n      mstore\n      0x20\n      add\n      swap1\n      dup2\n      mstore\n      0x20\n      add\n      0x00\n      keccak256\n      sload\n        /* \"Contracts.sol\":1299:1321  Balance[From] - Amount */\n      tag_36\n      swap2\n      swap1\n      tag_37\n      jump\t// in\n    tag_36:\n        /* \"Contracts.sol\":1283:1290  Balance */\n      0x01\n        /* \"Contracts.sol\":1283:1296  Balance[From] */\n      0x00\n        /* \"Contracts.sol\":1291:1295  From */\n      dup6\n        /* \"Contracts.sol\":1283:1296  Balance[From] */\n      0xffffffffffffffffffffffffffffffffffffffff\n      and\n      0xffffffffffffffffffffffffffffffffffffffff\n      and\n      dup2\n      mstore\n      0x20\n      add\n      swap1\n      dup2\n      mstore\n      0x20\n      add\n      0x00\n      keccak256\n        /* \"Contracts.sol\":1283:1321  Balance[From] = Balance[From] - Amount */\n      dup2\n      swap1\n      sstore\n      pop\n        /* \"Contracts.sol\":1354:1360  Amount */\n      dup1\n        /* \"Contracts.sol\":1340:1347  Balance */\n      0x01\n        /* \"Contracts.sol\":1340:1351  Balance[To] */\n      0x00\n        /* \"Contracts.sol\":1348:1350  To */\n      dup5\n        /* \"Contracts.sol\":1340:1351  Balance[To] */\n      0xffffffffffffffffffffffffffffffffffffffff\n      and\n      0xffffffffffffffffffffffffffffffffffffffff\n      and\n      dup2\n      mstore\n      0x20\n      add\n      swap1\n      dup2\n      mstore\n      0x20\n      add\n      0x00\n      keccak256\n      sload\n        /* \"Contracts.sol\":1340:1360  Balance[To] + Amount */\n      tag_38\n      swap2\n      swap1\n      tag_34\n      jump\t// in\n    tag_38:\n        /* \"Contracts.sol\":1326:1333  Balance */\n      0x01\n        /* \"Contracts.sol\":1326:1337  Balance[To] */\n      0x00\n        /* \"Contracts.sol\":1334:1336  To */\n      dup5\n        /* \"Contracts.sol\":1326:1337  Balance[To] */\n      0xffffffffffffffffffffffffffffffffffffffff\n      and\n      0xffffffffffffffffffffffffffffffffffffffff\n      and\n      dup2\n      mstore\n      0x20\n      add\n      swap1\n      dup2\n      mstore\n      0x20\n      add\n      0x00\n      keccak256\n        /* \"Contracts.sol\":1326:1360  Balance[To] = Balance[To] + Amount */\n      dup2\n      swap1\n      sstore\n      pop\n        /* \"Contracts.sol\":1210:1365  function _transfer(address From, address To, uint Amount) private... */\n      pop\n      pop\n      pop\n      jump\t// out\n        /* \"#utility.yul\":7:84   */\n    tag_39:\n        /* \"#utility.yul\":44:51   */\n      0x00\n        /* \"#utility.yul\":73:78   */\n      dup2\n        /* \"#utility.yul\":62:78   */\n      swap1\n      pop\n        /* \"#utility.yul\":7:84   */\n      swap2\n      swap1\n      pop\n      jump\t// out\n        /* \"#utility.yul\":90:208   */\n    tag_40:\n        /* \"#utility.yul\":177:201   */\n      tag_61\n        /* \"#utility.yul\":195:200   */\n      dup2\n        /* \"#utility.yul\":177:201   */\n      tag_39\n      jump\t// in\n    tag_61:\n        /* \"#utility.yul\":172:175   */\n      dup3\n        /* \"#utility.yul\":165:202   */\n      mstore\n        /* \"#utility.yul\":90:208   */\n      pop\n      pop\n      jump\t// out\n        /* \"#utility.yul\":214:436   */\n    tag_9:\n        /* \"#utility.yul\":307:311   */\n      0x00\n        /* \"#utility.yul\":345:347   */\n      0x20\n        /* \"#utility.yul\":334:343   */\n      dup3\n        /* \"#utility.yul\":330:348   */\n      add\n        /* \"#utility.yul\":322:348   */\n      swap1\n      pop\n        /* \"#utility.yul\":358:429   */\n      tag_63\n        /* \"#utility.yul\":426:427   */\n      0x00\n        /* \"#utility.yul\":415:424   */\n      dup4\n        /* \"#utility.yul\":411:428   */\n      add\n        /* \"#utility.yul\":402:408   */\n      dup5\n        /* \"#utility.yul\":358:429   */\n      tag_40\n      jump\t// in\n    tag_63:\n        /* \"#utility.yul\":214:436   */\n      swap3\n      swap2\n      pop\n      pop\n      jump\t// out\n        /* \"#utility.yul\":523:640   */\n    tag_42:\n        /* \"#utility.yul\":632:633   */\n      0x00\n        /* \"#utility.yul\":629:630   */\n      dup1\n        /* \"#utility.yul\":622:634   */\n      revert\n        /* \"#utility.yul\":769:895   */\n    tag_44:\n        /* \"#utility.yul\":806:813   */\n      0x00\n        /* \"#utility.yul\":846:888   */\n      0xffffffffffffffffffffffffffffffffffffffff\n        /* \"#utility.yul\":839:844   */\n      dup3\n        /* \"#utility.yul\":835:889   */\n      and\n        /* \"#utility.yul\":824:889   */\n      swap1\n      pop\n        /* \"#utility.yul\":769:895   */\n      swap2\n      swap1\n      pop\n      jump\t// out\n        /* \"#utility.yul\":901:997   */\n    tag_45:\n        /* \"#utility.yul\":938:945   */\n      0x00\n        /* \"#utility.yul\":967:991   */\n      tag_69\n        /* \"#utility.yul\":985:990   */\n      dup3\n        /* \"#utility.yul\":967:991   */\n      tag_44\n      jump\t// in\n    tag_69:\n        /* \"#utility.yul\":956:991   */\n      swap1\n      pop\n        /* \"#utility.yul\":901:997   */\n      swap2\n      swap1\n      pop\n      jump\t// out\n        /* \"#utility.yul\":1003:1125   */\n    tag_46:\n        /* \"#utility.yul\":1076:1100   */\n      tag_71\n        /* \"#utility.yul\":1094:1099   */\n      dup2\n        /* \"#utility.yul\":1076:1100   */\n      tag_45\n      jump\t// in\n    tag_71:\n        /* \"#utility.yul\":1069:1074   */\n      dup2\n        /* \"#utility.yul\":1066:1101   */\n      eq\n        /* \"#utility.yul\":1056:1119   */\n      tag_72\n      jumpi\n        /* \"#utility.yul\":1115:1116   */\n      0x00\n        /* \"#utility.yul\":1112:1113   */\n      dup1\n        /* \"#utility.yul\":1105:1117   */\n      revert\n        /* \"#utility.yul\":1056:1119   */\n    tag_72:\n        /* \"#utility.yul\":1003:1125   */\n      pop\n      jump\t// out\n        /* \"#utility.yul\":1131:1270   */\n    tag_47:\n        /* \"#utility.yul\":1177:1182   */\n      0x00\n        /* \"#utility.yul\":1215:1221   */\n      dup2\n        /* \"#utility.yul\":1202:1222   */\n      calldataload\n        /* \"#utility.yul\":1193:1222   */\n      swap1\n      pop\n        /* \"#utility.yul\":1231:1264   */\n      tag_74\n        /* \"#utility.yul\":1258:1263   */\n      dup2\n        /* \"#utility.yul\":1231:1264   */\n      tag_46\n      jump\t// in\n    tag_74:\n        /* \"#utility.yul\":1131:1270   */\n      swap3\n      swap2\n      pop\n      pop\n      jump\t// out\n        /* \"#utility.yul\":1276:1398   */\n    tag_48:\n        /* \"#utility.yul\":1349:1373   */\n      tag_76\n        /* \"#utility.yul\":1367:1372   */\n      dup2\n        /* \"#utility.yul\":1349:1373   */\n      tag_39\n      jump\t// in\n    tag_76:\n        /* \"#utility.yul\":1342:1347   */\n      dup2\n        /* \"#utility.yul\":1339:1374   */\n      eq\n        /* \"#utility.yul\":1329:1392   */\n      tag_77\n      jumpi\n        /* \"#utility.yul\":1388:1389   */\n      0x00\n        /* \"#utility.yul\":1385:1386   */\n      dup1\n        /* \"#utility.yul\":1378:1390   */\n      revert\n        /* \"#utility.yul\":1329:1392   */\n    tag_77:\n        /* \"#utility.yul\":1276:1398   */\n      pop\n      jump\t// out\n        /* \"#utility.yul\":1404:1543   */\n    tag_49:\n        /* \"#utility.yul\":1450:1455   */\n      0x00\n        /* \"#utility.yul\":1488:1494   */\n      dup2\n        /* \"#utility.yul\":1475:1495   */\n      calldataload\n        /* \"#utility.yul\":1466:1495   */\n      swap1\n      pop\n        /* \"#utility.yul\":1504:1537   */\n      tag_79\n        /* \"#utility.yul\":1531:1536   */\n      dup2\n        /* \"#utility.yul\":1504:1537   */\n      tag_48\n      jump\t// in\n    tag_79:\n        /* \"#utility.yul\":1404:1543   */\n      swap3\n      swap2\n      pop\n      pop\n      jump\t// out\n        /* \"#utility.yul\":1549:2023   */\n    tag_12:\n        /* \"#utility.yul\":1617:1623   */\n      0x00\n        /* \"#utility.yul\":1625:1631   */\n      dup1\n        /* \"#utility.yul\":1674:1676   */\n      0x40\n        /* \"#utility.yul\":1662:1671   */\n      dup4\n        /* \"#utility.yul\":1653:1660   */\n      dup6\n        /* \"#utility.yul\":1649:1672   */\n      sub\n        /* \"#utility.yul\":1645:1677   */\n      slt\n        /* \"#utility.yul\":1642:1761   */\n      iszero\n      tag_81\n      jumpi\n        /* \"#utility.yul\":1680:1759   */\n      tag_82\n      tag_42\n      jump\t// in\n    tag_82:\n        /* \"#utility.yul\":1642:1761   */\n    tag_81:\n        /* \"#utility.yul\":1800:1801   */\n      0x00\n        /* \"#utility.yul\":1825:1878   */\n      tag_83\n        /* \"#utility.yul\":1870:1877   */\n      dup6\n        /* \"#utility.yul\":1861:1867   */\n      dup3\n        /* \"#utility.yul\":1850:1859   */\n      dup7\n        /* \"#utility.yul\":1846:1868   */\n      add\n        /* \"#utility.yul\":1825:1878   */\n      tag_47\n      jump\t// in\n    tag_83:\n        /* \"#utility.yul\":1815:1878   */\n      swap3\n      pop\n        /* \"#utility.yul\":1771:1888   */\n      pop\n        /* \"#utility.yul\":1927:1929   */\n      0x20\n        /* \"#utility.yul\":1953:2006   */\n      tag_84\n        /* \"#utility.yul\":1998:2005   */\n      dup6\n        /* \"#utility.yul\":1989:1995   */\n      dup3\n        /* \"#utility.yul\":1978:1987   */\n      dup7\n        /* \"#utility.yul\":1974:1996   */\n      add\n        /* \"#utility.yul\":1953:2006   */\n      tag_49\n      jump\t// in\n    tag_84:\n        /* \"#utility.yul\":1943:2006   */\n      swap2\n      pop\n        /* \"#utility.yul\":1898:2016   */\n      pop\n        /* \"#utility.yul\":1549:2023   */\n      swap3\n      pop\n      swap3\n      swap1\n      pop\n      jump\t// out\n        /* \"#utility.yul\":2029:2358   */\n    tag_16:\n        /* \"#utility.yul\":2088:2094   */\n      0x00\n        /* \"#utility.yul\":2137:2139   */\n      0x20\n        /* \"#utility.yul\":2125:2134   */\n      dup3\n        /* \"#utility.yul\":2116:2123   */\n      dup5\n        /* \"#utility.yul\":2112:2135   */\n      sub\n        /* \"#utility.yul\":2108:2140   */\n      slt\n        /* \"#utility.yul\":2105:2224   */\n      iszero\n      tag_86\n      jumpi\n        /* \"#utility.yul\":2143:2222   */\n      tag_87\n      tag_42\n      jump\t// in\n    tag_87:\n        /* \"#utility.yul\":2105:2224   */\n    tag_86:\n        /* \"#utility.yul\":2263:2264   */\n      0x00\n        /* \"#utility.yul\":2288:2341   */\n      tag_88\n        /* \"#utility.yul\":2333:2340   */\n      dup5\n        /* \"#utility.yul\":2324:2330   */\n      dup3\n        /* \"#utility.yul\":2313:2322   */\n      dup6\n        /* \"#utility.yul\":2309:2331   */\n      add\n        /* \"#utility.yul\":2288:2341   */\n      tag_49\n      jump\t// in\n    tag_88:\n        /* \"#utility.yul\":2278:2341   */\n      swap2\n      pop\n        /* \"#utility.yul\":2234:2351   */\n      pop\n        /* \"#utility.yul\":2029:2358   */\n      swap3\n      swap2\n      pop\n      pop\n      jump\t// out\n        /* \"#utility.yul\":2364:2533   */\n    tag_50:\n        /* \"#utility.yul\":2448:2459   */\n      0x00\n        /* \"#utility.yul\":2482:2488   */\n      dup3\n        /* \"#utility.yul\":2477:2480   */\n      dup3\n        /* \"#utility.yul\":2470:2489   */\n      mstore\n        /* \"#utility.yul\":2522:2526   */\n      0x20\n        /* \"#utility.yul\":2517:2520   */\n      dup3\n        /* \"#utility.yul\":2513:2527   */\n      add\n        /* \"#utility.yul\":2498:2527   */\n      swap1\n      pop\n        /* \"#utility.yul\":2364:2533   */\n      swap3\n      swap2\n      pop\n      pop\n      jump\t// out\n        /* \"#utility.yul\":2539:2720   */\n    tag_51:\n        /* \"#utility.yul\":2679:2712   */\n      0x43616e2774205472616e736665722021212053656c66204163636f756e742e00\n        /* \"#utility.yul\":2675:2676   */\n      0x00\n        /* \"#utility.yul\":2667:2673   */\n      dup3\n        /* \"#utility.yul\":2663:2677   */\n      add\n        /* \"#utility.yul\":2656:2713   */\n      mstore\n        /* \"#utility.yul\":2539:2720   */\n      pop\n      jump\t// out\n        /* \"#utility.yul\":2726:3092   */\n    tag_52:\n        /* \"#utility.yul\":2868:2871   */\n      0x00\n        /* \"#utility.yul\":2889:2956   */\n      tag_92\n        /* \"#utility.yul\":2953:2955   */\n      0x1f\n        /* \"#utility.yul\":2948:2951   */\n      dup4\n        /* \"#utility.yul\":2889:2956   */\n      tag_50\n      jump\t// in\n    tag_92:\n        /* \"#utility.yul\":2882:2956   */\n      swap2\n      pop\n        /* \"#utility.yul\":2965:3058   */\n      tag_93\n        /* \"#utility.yul\":3054:3057   */\n      dup3\n        /* \"#utility.yul\":2965:3058   */\n      tag_51\n      jump\t// in\n    tag_93:\n        /* \"#utility.yul\":3083:3085   */\n      0x20\n        /* \"#utility.yul\":3078:3081   */\n      dup3\n        /* \"#utility.yul\":3074:3086   */\n      add\n        /* \"#utility.yul\":3067:3086   */\n      swap1\n      pop\n        /* \"#utility.yul\":2726:3092   */\n      swap2\n      swap1\n      pop\n      jump\t// out\n        /* \"#utility.yul\":3098:3517   */\n    tag_23:\n        /* \"#utility.yul\":3264:3268   */\n      0x00\n        /* \"#utility.yul\":3302:3304   */\n      0x20\n        /* \"#utility.yul\":3291:3300   */\n      dup3\n        /* \"#utility.yul\":3287:3305   */\n      add\n        /* \"#utility.yul\":3279:3305   */\n      swap1\n      pop\n        /* \"#utility.yul\":3351:3360   */\n      dup2\n        /* \"#utility.yul\":3345:3349   */\n      dup2\n        /* \"#utility.yul\":3341:3361   */\n      sub\n        /* \"#utility.yul\":3337:3338   */\n      0x00\n        /* \"#utility.yul\":3326:3335   */\n      dup4\n        /* \"#utility.yul\":3322:3339   */\n      add\n        /* \"#utility.yul\":3315:3362   */\n      mstore\n        /* \"#utility.yul\":3379:3510   */\n      tag_95\n        /* \"#utility.yul\":3505:3509   */\n      dup2\n        /* \"#utility.yul\":3379:3510   */\n      tag_52\n      jump\t// in\n    tag_95:\n        /* \"#utility.yul\":3371:3510   */\n      swap1\n      pop\n        /* \"#utility.yul\":3098:3517   */\n      swap2\n      swap1\n      pop\n      jump\t// out\n        /* \"#utility.yul\":3523:3756   */\n    tag_53:\n        /* \"#utility.yul\":3663:3697   */\n      0x4e6f2c2057652043616e2774205472616e736665722e20496e73756666696369\n        /* \"#utility.yul\":3659:3660   */\n      0x00\n        /* \"#utility.yul\":3651:3657   */\n      dup3\n        /* \"#utility.yul\":3647:3661   */\n      add\n        /* \"#utility.yul\":3640:3698   */\n      mstore\n        /* \"#utility.yul\":3732:3748   */\n      0x656e742042616c616e6365202121000000000000000000000000000000000000\n        /* \"#utility.yul\":3727:3729   */\n      0x20\n        /* \"#utility.yul\":3719:3725   */\n      dup3\n        /* \"#utility.yul\":3715:3730   */\n      add\n        /* \"#utility.yul\":3708:3749   */\n      mstore\n        /* \"#utility.yul\":3523:3756   */\n      pop\n      jump\t// out\n        /* \"#utility.yul\":3762:4128   */\n    tag_54:\n        /* \"#utility.yul\":3904:3907   */\n      0x00\n        /* \"#utility.yul\":3925:3992   */\n      tag_98\n        /* \"#utility.yul\":3989:3991   */\n      0x2e\n        /* \"#utility.yul\":3984:3987   */\n      dup4\n        /* \"#utility.yul\":3925:3992   */\n      tag_50\n      jump\t// in\n    tag_98:\n        /* \"#utility.yul\":3918:3992   */\n      swap2\n      pop\n        /* \"#utility.yul\":4001:4094   */\n      tag_99\n        /* \"#utility.yul\":4090:4093   */\n      dup3\n        /* \"#utility.yul\":4001:4094   */\n      tag_53\n      jump\t// in\n    tag_99:\n        /* \"#utility.yul\":4119:4121   */\n      0x40\n        /* \"#utility.yul\":4114:4117   */\n      dup3\n        /* \"#utility.yul\":4110:4122   */\n      add\n        /* \"#utility.yul\":4103:4122   */\n      swap1\n      pop\n        /* \"#utility.yul\":3762:4128   */\n      swap2\n      swap1\n      pop\n      jump\t// out\n        /* \"#utility.yul\":4134:4553   */\n    tag_26:\n        /* \"#utility.yul\":4300:4304   */\n      0x00\n        /* \"#utility.yul\":4338:4340   */\n      0x20\n        /* \"#utility.yul\":4327:4336   */\n      dup3\n        /* \"#utility.yul\":4323:4341   */\n      add\n        /* \"#utility.yul\":4315:4341   */\n      swap1\n      pop\n        /* \"#utility.yul\":4387:4396   */\n      dup2\n        /* \"#utility.yul\":4381:4385   */\n      dup2\n        /* \"#utility.yul\":4377:4397   */\n      sub\n        /* \"#utility.yul\":4373:4374   */\n      0x00\n        /* \"#utility.yul\":4362:4371   */\n      dup4\n        /* \"#utility.yul\":4358:4375   */\n      add\n        /* \"#utility.yul\":4351:4398   */\n      mstore\n        /* \"#utility.yul\":4415:4546   */\n      tag_101\n        /* \"#utility.yul\":4541:4545   */\n      dup2\n        /* \"#utility.yul\":4415:4546   */\n      tag_54\n      jump\t// in\n    tag_101:\n        /* \"#utility.yul\":4407:4546   */\n      swap1\n      pop\n        /* \"#utility.yul\":4134:4553   */\n      swap2\n      swap1\n      pop\n      jump\t// out\n        /* \"#utility.yul\":4559:4735   */\n    tag_55:\n        /* \"#utility.yul\":4699:4727   */\n      0x596573206974206973204f776e6572204163636f756e74202121000000000000\n        /* \"#utility.yul\":4695:4696   */\n      0x00\n        /* \"#utility.yul\":4687:4693   */\n      dup3\n        /* \"#utility.yul\":4683:4697   */\n      add\n        /* \"#utility.yul\":4676:4728   */\n      mstore\n        /* \"#utility.yul\":4559:4735   */\n      pop\n      jump\t// out\n        /* \"#utility.yul\":4741:5107   */\n    tag_56:\n        /* \"#utility.yul\":4883:4886   */\n      0x00\n        /* \"#utility.yul\":4904:4971   */\n      tag_104\n        /* \"#utility.yul\":4968:4970   */\n      0x1a\n        /* \"#utility.yul\":4963:4966   */\n      dup4\n        /* \"#utility.yul\":4904:4971   */\n      tag_50\n      jump\t// in\n    tag_104:\n        /* \"#utility.yul\":4897:4971   */\n      swap2\n      pop\n        /* \"#utility.yul\":4980:5073   */\n      tag_105\n        /* \"#utility.yul\":5069:5072   */\n      dup3\n        /* \"#utility.yul\":4980:5073   */\n      tag_55\n      jump\t// in\n    tag_105:\n        /* \"#utility.yul\":5098:5100   */\n      0x20\n        /* \"#utility.yul\":5093:5096   */\n      dup3\n        /* \"#utility.yul\":5089:5101   */\n      add\n        /* \"#utility.yul\":5082:5101   */\n      swap1\n      pop\n        /* \"#utility.yul\":4741:5107   */\n      swap2\n      swap1\n      pop\n      jump\t// out\n        /* \"#utility.yul\":5113:5532   */\n    tag_32:\n        /* \"#utility.yul\":5279:5283   */\n      0x00\n        /* \"#utility.yul\":5317:5319   */\n      0x20\n        /* \"#utility.yul\":5306:5315   */\n      dup3\n        /* \"#utility.yul\":5302:5320   */\n      add\n        /* \"#utility.yul\":5294:5320   */\n      swap1\n      pop\n        /* \"#utility.yul\":5366:5375   */\n      dup2\n        /* \"#utility.yul\":5360:5364   */\n      dup2\n        /* \"#utility.yul\":5356:5376   */\n      sub\n        /* \"#utility.yul\":5352:5353   */\n      0x00\n        /* \"#utility.yul\":5341:5350   */\n      dup4\n        /* \"#utility.yul\":5337:5354   */\n      add\n        /* \"#utility.yul\":5330:5377   */\n      mstore\n        /* \"#utility.yul\":5394:5525   */\n      tag_107\n        /* \"#utility.yul\":5520:5524   */\n      dup2\n        /* \"#utility.yul\":5394:5525   */\n      tag_56\n      jump\t// in\n    tag_107:\n        /* \"#utility.yul\":5386:5525   */\n      swap1\n      pop\n        /* \"#utility.yul\":5113:5532   */\n      swap2\n      swap1\n      pop\n      jump\t// out\n        /* \"#utility.yul\":5538:5718   */\n    tag_57:\n        /* \"#utility.yul\":5586:5663   */\n      0x4e487b7100000000000000000000000000000000000000000000000000000000\n        /* \"#utility.yul\":5583:5584   */\n      0x00\n        /* \"#utility.yul\":5576:5664   */\n      mstore\n        /* \"#utility.yul\":5683:5687   */\n      0x11\n        /* \"#utility.yul\":5680:5681   */\n      0x04\n        /* \"#utility.yul\":5673:5688   */\n      mstore\n        /* \"#utility.yul\":5707:5711   */\n      0x24\n        /* \"#utility.yul\":5704:5705   */\n      0x00\n        /* \"#utility.yul\":5697:5712   */\n      revert\n        /* \"#utility.yul\":5724:5915   */\n    tag_34:\n        /* \"#utility.yul\":5764:5767   */\n      0x00\n        /* \"#utility.yul\":5783:5803   */\n      tag_110\n        /* \"#utility.yul\":5801:5802   */\n      dup3\n        /* \"#utility.yul\":5783:5803   */\n      tag_39\n      jump\t// in\n    tag_110:\n        /* \"#utility.yul\":5778:5803   */\n      swap2\n      pop\n        /* \"#utility.yul\":5817:5837   */\n      tag_111\n        /* \"#utility.yul\":5835:5836   */\n      dup4\n        /* \"#utility.yul\":5817:5837   */\n      tag_39\n      jump\t// in\n    tag_111:\n        /* \"#utility.yul\":5812:5837   */\n      swap3\n      pop\n        /* \"#utility.yul\":5860:5861   */\n      dup3\n        /* \"#utility.yul\":5857:5858   */\n      dup3\n        /* \"#utility.yul\":5853:5862   */\n      add\n        /* \"#utility.yul\":5846:5862   */\n      swap1\n      pop\n        /* \"#utility.yul\":5881:5884   */\n      dup1\n        /* \"#utility.yul\":5878:5879   */\n      dup3\n        /* \"#utility.yul\":5875:5885   */\n      gt\n        /* \"#utility.yul\":5872:5908   */\n      iszero\n      tag_112\n      jumpi\n        /* \"#utility.yul\":5888:5906   */\n      tag_113\n      tag_57\n      jump\t// in\n    tag_113:\n        /* \"#utility.yul\":5872:5908   */\n    tag_112:\n        /* \"#utility.yul\":5724:5915   */\n      swap3\n      swap2\n      pop\n      pop\n      jump\t// out\n        /* \"#utility.yul\":5921:6115   */\n    tag_37:\n        /* \"#utility.yul\":5961:5965   */\n      0x00\n        /* \"#utility.yul\":5981:6001   */\n      tag_115\n        /* \"#utility.yul\":5999:6000   */\n      dup3\n        /* \"#utility.yul\":5981:6001   */\n      tag_39\n      jump\t// in\n    tag_115:\n        /* \"#utility.yul\":5976:6001   */\n      swap2\n      pop\n        /* \"#utility.yul\":6015:6035   */\n      tag_116\n        /* \"#utility.yul\":6033:6034   */\n      dup4\n        /* \"#utility.yul\":6015:6035   */\n      tag_39\n      jump\t// in\n    tag_116:\n        /* \"#utility.yul\":6010:6035   */\n      swap3\n      pop\n        /* \"#utility.yul\":6059:6060   */\n      dup3\n        /* \"#utility.yul\":6056:6057   */\n      dup3\n        /* \"#utility.yul\":6052:6061   */\n      sub\n        /* \"#utility.yul\":6044:6061   */\n      swap1\n      pop\n        /* \"#utility.yul\":6083:6084   */\n      dup2\n        /* \"#utility.yul\":6077:6081   */\n      dup2\n        /* \"#utility.yul\":6074:6085   */\n      gt\n        /* \"#utility.yul\":6071:6108   */\n      iszero\n      tag_117\n      jumpi\n        /* \"#utility.yul\":6088:6106   */\n      tag_118\n      tag_57\n      jump\t// in\n    tag_118:\n        /* \"#utility.yul\":6071:6108   */\n    tag_117:\n        /* \"#utility.yul\":5921:6115   */\n      swap3\n      swap2\n      pop\n      pop\n      jump\t// out\n\n    auxdata: 0xa2646970667358221220a2b067d4947c45899ad0260ec95906db6a9905b19f86d8a93a7300e2c206dba564736f6c634300081a0033\n}\n",
				"bytecode": {
					"linkReferences": {},
					"object": "6080604052348015600e575f80fd5b50335f806101000a81548173ffffffffffffffffffffffffffffffffffffffff021916908373ffffffffffffffffffffffffffffffffffffffff1602179055506107be8061005b5f395ff3fe608060405234801561000f575f80fd5b506004361061003f575f3560e01c806312065fe01461004357806369ca02dd14610061578063d91921ed1461007d575b5f80fd5b61004b6100ad565b604051610058919061047d565b60405180910390f35b61007b6004803603810190610076919061051e565b6100f1565b005b6100976004803603810190610092919061055c565b6101ee565b6040516100a4919061047d565b60405180910390f35b5f60015f3373ffffffffffffffffffffffffffffffffffffffff1673ffffffffffffffffffffffffffffffffffffffff1681526020019081526020015f2054905090565b8173ffffffffffffffffffffffffffffffffffffffff163373ffffffffffffffffffffffffffffffffffffffff160361015f576040517f08c379a0000000000000000000000000000000000000000000000000000000008152600401610156906105e1565b60405180910390fd5b8060015f3373ffffffffffffffffffffffffffffffffffffffff1673ffffffffffffffffffffffffffffffffffffffff1681526020019081526020015f205410156101df576040517f08c379a00000000000000000000000000000000000000000000000000000000081526004016101d69061066f565b60405180910390fd5b6101ea33838361034c565b5050565b5f805f9054906101000a900473ffffffffffffffffffffffffffffffffffffffff1673ffffffffffffffffffffffffffffffffffffffff163373ffffffffffffffffffffffffffffffffffffffff161461027d576040517f08c379a0000000000000000000000000000000000000000000000000000000008152600401610274906106d7565b60405180910390fd5b8160015f3373ffffffffffffffffffffffffffffffffffffffff1673ffffffffffffffffffffffffffffffffffffffff1681526020019081526020015f20546102c69190610722565b60015f3373ffffffffffffffffffffffffffffffffffffffff1673ffffffffffffffffffffffffffffffffffffffff1681526020019081526020015f208190555060015f3373ffffffffffffffffffffffffffffffffffffffff1673ffffffffffffffffffffffffffffffffffffffff1681526020019081526020015f20549050919050565b8060015f8573ffffffffffffffffffffffffffffffffffffffff1673ffffffffffffffffffffffffffffffffffffffff1681526020019081526020015f20546103959190610755565b60015f8573ffffffffffffffffffffffffffffffffffffffff1673ffffffffffffffffffffffffffffffffffffffff1681526020019081526020015f20819055508060015f8473ffffffffffffffffffffffffffffffffffffffff1673ffffffffffffffffffffffffffffffffffffffff1681526020019081526020015f205461041f9190610722565b60015f8473ffffffffffffffffffffffffffffffffffffffff1673ffffffffffffffffffffffffffffffffffffffff1681526020019081526020015f2081905550505050565b5f819050919050565b61047781610465565b82525050565b5f6020820190506104905f83018461046e565b92915050565b5f80fd5b5f73ffffffffffffffffffffffffffffffffffffffff82169050919050565b5f6104c38261049a565b9050919050565b6104d3816104b9565b81146104dd575f80fd5b50565b5f813590506104ee816104ca565b92915050565b6104fd81610465565b8114610507575f80fd5b50565b5f81359050610518816104f4565b92915050565b5f806040838503121561053457610533610496565b5b5f610541858286016104e0565b92505060206105528582860161050a565b9150509250929050565b5f6020828403121561057157610570610496565b5b5f61057e8482850161050a565b91505092915050565b5f82825260208201905092915050565b7f43616e2774205472616e736665722021212053656c66204163636f756e742e005f82015250565b5f6105cb601f83610587565b91506105d682610597565b602082019050919050565b5f6020820190508181035f8301526105f8816105bf565b9050919050565b7f4e6f2c2057652043616e2774205472616e736665722e20496e737566666963695f8201527f656e742042616c616e6365202121000000000000000000000000000000000000602082015250565b5f610659602e83610587565b9150610664826105ff565b604082019050919050565b5f6020820190508181035f8301526106868161064d565b9050919050565b7f596573206974206973204f776e6572204163636f756e742021210000000000005f82015250565b5f6106c1601a83610587565b91506106cc8261068d565b602082019050919050565b5f6020820190508181035f8301526106ee816106b5565b9050919050565b7f4e487b71000000000000000000000000000000000000000000000000000000005f52601160045260245ffd5b5f61072c82610465565b915061073783610465565b925082820190508082111561074f5761074e6106f5565b5b92915050565b5f61075f82610465565b915061076a83610465565b9250828203905081811115610782576107816106f5565b5b9291505056fea2646970667358221220a2b067d4947c45899ad0260ec95906db6a9905b19f86d8a93a7300e2c206dba564736f6c634300081a0033",
					"opcodes": "PUSH1 0x80 PUSH1 0x40 MSTORE CALLVALUE DUP1 ISZERO PUSH1 0xE JUMPI PUSH0 DUP1 REVERT JUMPDEST POP CALLER PUSH0 DUP1 PUSH2 0x100 EXP DUP2 SLOAD DUP2 PUSH20 0xFFFFFFFFFFFFFFFFFFFFFFFFFFFFFFFFFFFFFFFF MUL NOT AND SWAP1 DUP4 PUSH20 0xFFFFFFFFFFFFFFFFFFFFFFFFFFFFFFFFFFFFFFFF AND MUL OR SWAP1 SSTORE POP PUSH2 0x7BE DUP1 PUSH2 0x5B PUSH0 CODECOPY PUSH0 RETURN INVALID PUSH1 0x80 PUSH1 0x40 MSTORE CALLVALUE DUP1 ISZERO PUSH2 0xF JUMPI PUSH0 DUP1 REVERT JUMPDEST POP PUSH1 0x4 CALLDATASIZE LT PUSH2 0x3F JUMPI PUSH0 CALLDATALOAD PUSH1 0xE0 SHR DUP1 PUSH4 0x12065FE0 EQ PUSH2 0x43 JUMPI DUP1 PUSH4 0x69CA02DD EQ PUSH2 0x61 JUMPI DUP1 PUSH4 0xD91921ED EQ PUSH2 0x7D JUMPI JUMPDEST PUSH0 DUP1 REVERT JUMPDEST PUSH2 0x4B PUSH2 0xAD JUMP JUMPDEST PUSH1 0x40 MLOAD PUSH2 0x58 SWAP2 SWAP1 PUSH2 0x47D JUMP JUMPDEST PUSH1 0x40 MLOAD DUP1 SWAP2 SUB SWAP1 RETURN JUMPDEST PUSH2 0x7B PUSH1 0x4 DUP1 CALLDATASIZE SUB DUP2 ADD SWAP1 PUSH2 0x76 SWAP2 SWAP1 PUSH2 0x51E JUMP JUMPDEST PUSH2 0xF1 JUMP JUMPDEST STOP JUMPDEST PUSH2 0x97 PUSH1 0x4 DUP1 CALLDATASIZE SUB DUP2 ADD SWAP1 PUSH2 0x92 SWAP2 SWAP1 PUSH2 0x55C JUMP JUMPDEST PUSH2 0x1EE JUMP JUMPDEST PUSH1 0x40 MLOAD PUSH2 0xA4 SWAP2 SWAP1 PUSH2 0x47D JUMP JUMPDEST PUSH1 0x40 MLOAD DUP1 SWAP2 SUB SWAP1 RETURN JUMPDEST PUSH0 PUSH1 0x1 PUSH0 CALLER PUSH20 0xFFFFFFFFFFFFFFFFFFFFFFFFFFFFFFFFFFFFFFFF AND PUSH20 0xFFFFFFFFFFFFFFFFFFFFFFFFFFFFFFFFFFFFFFFF AND DUP2 MSTORE PUSH1 0x20 ADD SWAP1 DUP2 MSTORE PUSH1 0x20 ADD PUSH0 KECCAK256 SLOAD SWAP1 POP SWAP1 JUMP JUMPDEST DUP2 PUSH20 0xFFFFFFFFFFFFFFFFFFFFFFFFFFFFFFFFFFFFFFFF AND CALLER PUSH20 0xFFFFFFFFFFFFFFFFFFFFFFFFFFFFFFFFFFFFFFFF AND SUB PUSH2 0x15F JUMPI PUSH1 0x40 MLOAD PUSH32 0x8C379A000000000000000000000000000000000000000000000000000000000 DUP2 MSTORE PUSH1 0x4 ADD PUSH2 0x156 SWAP1 PUSH2 0x5E1 JUMP JUMPDEST PUSH1 0x40 MLOAD DUP1 SWAP2 SUB SWAP1 REVERT JUMPDEST DUP1 PUSH1 0x1 PUSH0 CALLER PUSH20 0xFFFFFFFFFFFFFFFFFFFFFFFFFFFFFFFFFFFFFFFF AND PUSH20 0xFFFFFFFFFFFFFFFFFFFFFFFFFFFFFFFFFFFFFFFF AND DUP2 MSTORE PUSH1 0x20 ADD SWAP1 DUP2 MSTORE PUSH1 0x20 ADD PUSH0 KECCAK256 SLOAD LT ISZERO PUSH2 0x1DF JUMPI PUSH1 0x40 MLOAD PUSH32 0x8C379A000000000000000000000000000000000000000000000000000000000 DUP2 MSTORE PUSH1 0x4 ADD PUSH2 0x1D6 SWAP1 PUSH2 0x66F JUMP JUMPDEST PUSH1 0x40 MLOAD DUP1 SWAP2 SUB SWAP1 REVERT JUMPDEST PUSH2 0x1EA CALLER DUP4 DUP4 PUSH2 0x34C JUMP JUMPDEST POP POP JUMP JUMPDEST PUSH0 DUP1 PUSH0 SWAP1 SLOAD SWAP1 PUSH2 0x100 EXP SWAP1 DIV PUSH20 0xFFFFFFFFFFFFFFFFFFFFFFFFFFFFFFFFFFFFFFFF AND PUSH20 0xFFFFFFFFFFFFFFFFFFFFFFFFFFFFFFFFFFFFFFFF AND CALLER PUSH20 0xFFFFFFFFFFFFFFFFFFFFFFFFFFFFFFFFFFFFFFFF AND EQ PUSH2 0x27D JUMPI PUSH1 0x40 MLOAD PUSH32 0x8C379A000000000000000000000000000000000000000000000000000000000 DUP2 MSTORE PUSH1 0x4 ADD PUSH2 0x274 SWAP1 PUSH2 0x6D7 JUMP JUMPDEST PUSH1 0x40 MLOAD DUP1 SWAP2 SUB SWAP1 REVERT JUMPDEST DUP2 PUSH1 0x1 PUSH0 CALLER PUSH20 0xFFFFFFFFFFFFFFFFFFFFFFFFFFFFFFFFFFFFFFFF AND PUSH20 0xFFFFFFFFFFFFFFFFFFFFFFFFFFFFFFFFFFFFFFFF AND DUP2 MSTORE PUSH1 0x20 ADD SWAP1 DUP2 MSTORE PUSH1 0x20 ADD PUSH0 KECCAK256 SLOAD PUSH2 0x2C6 SWAP2 SWAP1 PUSH2 0x722 JUMP JUMPDEST PUSH1 0x1 PUSH0 CALLER PUSH20 0xFFFFFFFFFFFFFFFFFFFFFFFFFFFFFFFFFFFFFFFF AND PUSH20 0xFFFFFFFFFFFFFFFFFFFFFFFFFFFFFFFFFFFFFFFF AND DUP2 MSTORE PUSH1 0x20 ADD SWAP1 DUP2 MSTORE PUSH1 0x20 ADD PUSH0 KECCAK256 DUP2 SWAP1 SSTORE POP PUSH1 0x1 PUSH0 CALLER PUSH20 0xFFFFFFFFFFFFFFFFFFFFFFFFFFFFFFFFFFFFFFFF AND PUSH20 0xFFFFFFFFFFFFFFFFFFFFFFFFFFFFFFFFFFFFFFFF AND DUP2 MSTORE PUSH1 0x20 ADD SWAP1 DUP2 MSTORE PUSH1 0x20 ADD PUSH0 KECCAK256 SLOAD SWAP1 POP SWAP2 SWAP1 POP JUMP JUMPDEST DUP1 PUSH1 0x1 PUSH0 DUP6 PUSH20 0xFFFFFFFFFFFFFFFFFFFFFFFFFFFFFFFFFFFFFFFF AND PUSH20 0xFFFFFFFFFFFFFFFFFFFFFFFFFFFFFFFFFFFFFFFF AND DUP2 MSTORE PUSH1 0x20 ADD SWAP1 DUP2 MSTORE PUSH1 0x20 ADD PUSH0 KECCAK256 SLOAD PUSH2 0x395 SWAP2 SWAP1 PUSH2 0x755 JUMP JUMPDEST PUSH1 0x1 PUSH0 DUP6 PUSH20 0xFFFFFFFFFFFFFFFFFFFFFFFFFFFFFFFFFFFFFFFF AND PUSH20 0xFFFFFFFFFFFFFFFFFFFFFFFFFFFFFFFFFFFFFFFF AND DUP2 MSTORE PUSH1 0x20 ADD SWAP1 DUP2 MSTORE PUSH1 0x20 ADD PUSH0 KECCAK256 DUP2 SWAP1 SSTORE POP DUP1 PUSH1 0x1 PUSH0 DUP5 PUSH20 0xFFFFFFFFFFFFFFFFFFFFFFFFFFFFFFFFFFFFFFFF AND PUSH20 0xFFFFFFFFFFFFFFFFFFFFFFFFFFFFFFFFFFFFFFFF AND DUP2 MSTORE PUSH1 0x20 ADD SWAP1 DUP2 MSTORE PUSH1 0x20 ADD PUSH0 KECCAK256 SLOAD PUSH2 0x41F SWAP2 SWAP1 PUSH2 0x722 JUMP JUMPDEST PUSH1 0x1 PUSH0 DUP5 PUSH20 0xFFFFFFFFFFFFFFFFFFFFFFFFFFFFFFFFFFFFFFFF AND PUSH20 0xFFFFFFFFFFFFFFFFFFFFFFFFFFFFFFFFFFFFFFFF AND DUP2 MSTORE PUSH1 0x20 ADD SWAP1 DUP2 MSTORE PUSH1 0x20 ADD PUSH0 KECCAK256 DUP2 SWAP1 SSTORE POP POP POP POP JUMP JUMPDEST PUSH0 DUP2 SWAP1 POP SWAP2 SWAP1 POP JUMP JUMPDEST PUSH2 0x477 DUP2 PUSH2 0x465 JUMP JUMPDEST DUP3 MSTORE POP POP JUMP JUMPDEST PUSH0 PUSH1 0x20 DUP3 ADD SWAP1 POP PUSH2 0x490 PUSH0 DUP4 ADD DUP5 PUSH2 0x46E JUMP JUMPDEST SWAP3 SWAP2 POP POP JUMP JUMPDEST PUSH0 DUP1 REVERT JUMPDEST PUSH0 PUSH20 0xFFFFFFFFFFFFFFFFFFFFFFFFFFFFFFFFFFFFFFFF DUP3 AND SWAP1 POP SWAP2 SWAP1 POP JUMP JUMPDEST PUSH0 PUSH2 0x4C3 DUP3 PUSH2 0x49A JUMP JUMPDEST SWAP1 POP SWAP2 SWAP1 POP JUMP JUMPDEST PUSH2 0x4D3 DUP2 PUSH2 0x4B9 JUMP JUMPDEST DUP2 EQ PUSH2 0x4DD JUMPI PUSH0 DUP1 REVERT JUMPDEST POP JUMP JUMPDEST PUSH0 DUP2 CALLDATALOAD SWAP1 POP PUSH2 0x4EE DUP2 PUSH2 0x4CA JUMP JUMPDEST SWAP3 SWAP2 POP POP JUMP JUMPDEST PUSH2 0x4FD DUP2 PUSH2 0x465 JUMP JUMPDEST DUP2 EQ PUSH2 0x507 JUMPI PUSH0 DUP1 REVERT JUMPDEST POP JUMP JUMPDEST PUSH0 DUP2 CALLDATALOAD SWAP1 POP PUSH2 0x518 DUP2 PUSH2 0x4F4 JUMP JUMPDEST SWAP3 SWAP2 POP POP JUMP JUMPDEST PUSH0 DUP1 PUSH1 0x40 DUP4 DUP6 SUB SLT ISZERO PUSH2 0x534 JUMPI PUSH2 0x533 PUSH2 0x496 JUMP JUMPDEST JUMPDEST PUSH0 PUSH2 0x541 DUP6 DUP3 DUP7 ADD PUSH2 0x4E0 JUMP JUMPDEST SWAP3 POP POP PUSH1 0x20 PUSH2 0x552 DUP6 DUP3 DUP7 ADD PUSH2 0x50A JUMP JUMPDEST SWAP2 POP POP SWAP3 POP SWAP3 SWAP1 POP JUMP JUMPDEST PUSH0 PUSH1 0x20 DUP3 DUP5 SUB SLT ISZERO PUSH2 0x571 JUMPI PUSH2 0x570 PUSH2 0x496 JUMP JUMPDEST JUMPDEST PUSH0 PUSH2 0x57E DUP5 DUP3 DUP6 ADD PUSH2 0x50A JUMP JUMPDEST SWAP2 POP POP SWAP3 SWAP2 POP POP JUMP JUMPDEST PUSH0 DUP3 DUP3 MSTORE PUSH1 0x20 DUP3 ADD SWAP1 POP SWAP3 SWAP2 POP POP JUMP JUMPDEST PUSH32 0x43616E2774205472616E736665722021212053656C66204163636F756E742E00 PUSH0 DUP3 ADD MSTORE POP JUMP JUMPDEST PUSH0 PUSH2 0x5CB PUSH1 0x1F DUP4 PUSH2 0x587 JUMP JUMPDEST SWAP2 POP PUSH2 0x5D6 DUP3 PUSH2 0x597 JUMP JUMPDEST PUSH1 0x20 DUP3 ADD SWAP1 POP SWAP2 SWAP1 POP JUMP JUMPDEST PUSH0 PUSH1 0x20 DUP3 ADD SWAP1 POP DUP2 DUP2 SUB PUSH0 DUP4 ADD MSTORE PUSH2 0x5F8 DUP2 PUSH2 0x5BF JUMP JUMPDEST SWAP1 POP SWAP2 SWAP1 POP JUMP JUMPDEST PUSH32 0x4E6F2C2057652043616E2774205472616E736665722E20496E73756666696369 PUSH0 DUP3 ADD MSTORE PUSH32 0x656E742042616C616E6365202121000000000000000000000000000000000000 PUSH1 0x20 DUP3 ADD MSTORE POP JUMP JUMPDEST PUSH0 PUSH2 0x659 PUSH1 0x2E DUP4 PUSH2 0x587 JUMP JUMPDEST SWAP2 POP PUSH2 0x664 DUP3 PUSH2 0x5FF JUMP JUMPDEST PUSH1 0x40 DUP3 ADD SWAP1 POP SWAP2 SWAP1 POP JUMP JUMPDEST PUSH0 PUSH1 0x20 DUP3 ADD SWAP1 POP DUP2 DUP2 SUB PUSH0 DUP4 ADD MSTORE PUSH2 0x686 DUP2 PUSH2 0x64D JUMP JUMPDEST SWAP1 POP SWAP2 SWAP1 POP JUMP JUMPDEST PUSH32 0x596573206974206973204F776E6572204163636F756E74202121000000000000 PUSH0 DUP3 ADD MSTORE POP JUMP JUMPDEST PUSH0 PUSH2 0x6C1 PUSH1 0x1A DUP4 PUSH2 0x587 JUMP JUMPDEST SWAP2 POP PUSH2 0x6CC DUP3 PUSH2 0x68D JUMP JUMPDEST PUSH1 0x20 DUP3 ADD SWAP1 POP SWAP2 SWAP1 POP JUMP JUMPDEST PUSH0 PUSH1 0x20 DUP3 ADD SWAP1 POP DUP2 DUP2 SUB PUSH0 DUP4 ADD MSTORE PUSH2 0x6EE DUP2 PUSH2 0x6B5 JUMP JUMPDEST SWAP1 POP SWAP2 SWAP1 POP JUMP JUMPDEST PUSH32 0x4E487B7100000000000000000000000000000000000000000000000000000000 PUSH0 MSTORE PUSH1 0x11 PUSH1 0x4 MSTORE PUSH1 0x24 PUSH0 REVERT JUMPDEST PUSH0 PUSH2 0x72C DUP3 PUSH2 0x465 JUMP JUMPDEST SWAP2 POP PUSH2 0x737 DUP4 PUSH2 0x465 JUMP JUMPDEST SWAP3 POP DUP3 DUP3 ADD SWAP1 POP DUP1 DUP3 GT ISZERO PUSH2 0x74F JUMPI PUSH2 0x74E PUSH2 0x6F5 JUMP JUMPDEST JUMPDEST SWAP3 SWAP2 POP POP JUMP JUMPDEST PUSH0 PUSH2 0x75F DUP3 PUSH2 0x465 JUMP JUMPDEST SWAP2 POP PUSH2 0x76A DUP4 PUSH2 0x465 JUMP JUMPDEST SWAP3 POP DUP3 DUP3 SUB SWAP1 POP DUP2 DUP2 GT ISZERO PUSH2 0x782 JUMPI PUSH2 0x781 PUSH2 0x6F5 JUMP JUMPDEST JUMPDEST SWAP3 SWAP2 POP POP JUMP INVALID LOG2 PUSH5 0x6970667358 0x22 SLT KECCAK256 LOG2 0xB0 PUSH8 0xD4947C45899AD026 0xE 0xC9 MSIZE MOD 0xDB PUSH11 0x9905B19F86D8A93A7300E2 0xC2 MOD 0xDB 0xA5 PUSH5 0x736F6C6343 STOP ADDMOD BYTE STOP CALLER "
				},
				"gasEstimates": {
					"creation": {
						"codeDepositCost": "396400",
						"executionCost": "24693",
						"totalCost": "421093"
					},
					"external": {
						"Transfer(address,uint256)": "infinite",
						"addBalance(uint256)": "infinite",
						"getBalance()": "2497"
					},
					"internal": {
						"_transfer(address,address,uint256)": "infinite"
					}
				},
				"methodIdentifiers": {
					"Transfer(address,uint256)": "69ca02dd",
					"addBalance(uint256)": "d91921ed",
					"getBalance()": "12065fe0"
				}
			},
			"storageLayout": {
				"storage": [
					{
						"astId": 3,
						"contract": "Contracts.sol:DBank",
						"label": "Owner",
						"offset": 0,
						"slot": "0",
						"type": "t_address"
					},
					{
						"astId": 7,
						"contract": "Contracts.sol:DBank",
						"label": "Balance",
						"offset": 0,
						"slot": "1",
						"type": "t_mapping(t_address,t_uint256)"
					}
				],
				"types": {
					"t_address": {
						"encoding": "inplace",
						"label": "address",
						"numberOfBytes": "20"
					},
					"t_mapping(t_address,t_uint256)": {
						"encoding": "mapping",
						"key": "t_address",
						"label": "mapping(address => uint256)",
						"numberOfBytes": "32",
						"value": "t_uint256"
					},
					"t_uint256": {
						"encoding": "inplace",
						"label": "uint256",
						"numberOfBytes": "32"
					}
				}
			},
			"userdoc": {
				"kind": "user",
				"methods": {},
				"version": 1
			}
		}
	}
}