{
	"contracts/Practice.sol": {
		"SmartMatrixForsage": {
			"abi": [
				{
					"inputs": [
						{
							"internalType": "address",
							"name": "ownerAddress",
							"type": "address"
						}
					],
					"stateMutability": "nonpayable",
					"type": "constructor"
				},
				{
					"anonymous": false,
					"inputs": [
						{
							"indexed": true,
							"internalType": "address",
							"name": "receiver",
							"type": "address"
						},
						{
							"indexed": true,
							"internalType": "address",
							"name": "from",
							"type": "address"
						},
						{
							"indexed": false,
							"internalType": "uint8",
							"name": "matrix",
							"type": "uint8"
						},
						{
							"indexed": false,
							"internalType": "uint8",
							"name": "level",
							"type": "uint8"
						}
					],
					"name": "MissedEthReceive",
					"type": "event"
				},
				{
					"anonymous": false,
					"inputs": [
						{
							"indexed": true,
							"internalType": "address",
							"name": "user",
							"type": "address"
						},
						{
							"indexed": true,
							"internalType": "address",
							"name": "referrer",
							"type": "address"
						},
						{
							"indexed": false,
							"internalType": "uint8",
							"name": "matrix",
							"type": "uint8"
						},
						{
							"indexed": false,
							"internalType": "uint8",
							"name": "level",
							"type": "uint8"
						},
						{
							"indexed": false,
							"internalType": "uint8",
							"name": "place",
							"type": "uint8"
						}
					],
					"name": "NewUserPlace",
					"type": "event"
				},
				{
					"anonymous": false,
					"inputs": [
						{
							"indexed": true,
							"internalType": "address",
							"name": "user",
							"type": "address"
						},
						{
							"indexed": true,
							"internalType": "address",
							"name": "referrer",
							"type": "address"
						},
						{
							"indexed": true,
							"internalType": "uint256",
							"name": "userId",
							"type": "uint256"
						},
						{
							"indexed": false,
							"internalType": "uint256",
							"name": "referrerId",
							"type": "uint256"
						}
					],
					"name": "Registration",
					"type": "event"
				},
				{
					"anonymous": false,
					"inputs": [
						{
							"indexed": true,
							"internalType": "address",
							"name": "user",
							"type": "address"
						},
						{
							"indexed": true,
							"internalType": "address",
							"name": "currentReferrer",
							"type": "address"
						},
						{
							"indexed": true,
							"internalType": "address",
							"name": "caller",
							"type": "address"
						},
						{
							"indexed": false,
							"internalType": "uint8",
							"name": "matrix",
							"type": "uint8"
						},
						{
							"indexed": false,
							"internalType": "uint8",
							"name": "level",
							"type": "uint8"
						}
					],
					"name": "Reinvest",
					"type": "event"
				},
				{
					"anonymous": false,
					"inputs": [
						{
							"indexed": true,
							"internalType": "address",
							"name": "from",
							"type": "address"
						},
						{
							"indexed": true,
							"internalType": "address",
							"name": "receiver",
							"type": "address"
						},
						{
							"indexed": false,
							"internalType": "uint8",
							"name": "matrix",
							"type": "uint8"
						},
						{
							"indexed": false,
							"internalType": "uint8",
							"name": "level",
							"type": "uint8"
						}
					],
					"name": "SentExtraEthDividends",
					"type": "event"
				},
				{
					"anonymous": false,
					"inputs": [
						{
							"indexed": true,
							"internalType": "address",
							"name": "user",
							"type": "address"
						},
						{
							"indexed": true,
							"internalType": "address",
							"name": "referrer",
							"type": "address"
						},
						{
							"indexed": false,
							"internalType": "uint8",
							"name": "matrix",
							"type": "uint8"
						},
						{
							"indexed": false,
							"internalType": "uint8",
							"name": "level",
							"type": "uint8"
						}
					],
					"name": "Upgrade",
					"type": "event"
				},
				{
					"stateMutability": "payable",
					"type": "fallback"
				},
				{
					"inputs": [],
					"name": "LAST_LEVEL",
					"outputs": [
						{
							"internalType": "uint8",
							"name": "",
							"type": "uint8"
						}
					],
					"stateMutability": "view",
					"type": "function"
				},
				{
					"inputs": [
						{
							"internalType": "address",
							"name": "",
							"type": "address"
						}
					],
					"name": "balances",
					"outputs": [
						{
							"internalType": "uint256",
							"name": "",
							"type": "uint256"
						}
					],
					"stateMutability": "view",
					"type": "function"
				},
				{
					"inputs": [
						{
							"internalType": "uint8",
							"name": "matrix",
							"type": "uint8"
						},
						{
							"internalType": "uint8",
							"name": "level",
							"type": "uint8"
						}
					],
					"name": "buyNewLevel",
					"outputs": [],
					"stateMutability": "payable",
					"type": "function"
				},
				{
					"inputs": [
						{
							"internalType": "address",
							"name": "userAddress",
							"type": "address"
						},
						{
							"internalType": "uint8",
							"name": "level",
							"type": "uint8"
						}
					],
					"name": "findFreeX3Referrer",
					"outputs": [
						{
							"internalType": "address",
							"name": "",
							"type": "address"
						}
					],
					"stateMutability": "view",
					"type": "function"
				},
				{
					"inputs": [
						{
							"internalType": "address",
							"name": "userAddress",
							"type": "address"
						},
						{
							"internalType": "uint8",
							"name": "level",
							"type": "uint8"
						}
					],
					"name": "findFreeX6Referrer",
					"outputs": [
						{
							"internalType": "address",
							"name": "",
							"type": "address"
						}
					],
					"stateMutability": "view",
					"type": "function"
				},
				{
					"inputs": [
						{
							"internalType": "uint256",
							"name": "",
							"type": "uint256"
						}
					],
					"name": "idToAddress",
					"outputs": [
						{
							"internalType": "address",
							"name": "",
							"type": "address"
						}
					],
					"stateMutability": "view",
					"type": "function"
				},
				{
					"inputs": [
						{
							"internalType": "address",
							"name": "user",
							"type": "address"
						}
					],
					"name": "isUserExists",
					"outputs": [
						{
							"internalType": "bool",
							"name": "",
							"type": "bool"
						}
					],
					"stateMutability": "view",
					"type": "function"
				},
				{
					"inputs": [],
					"name": "lastUserId",
					"outputs": [
						{
							"internalType": "uint256",
							"name": "",
							"type": "uint256"
						}
					],
					"stateMutability": "view",
					"type": "function"
				},
				{
					"inputs": [
						{
							"internalType": "uint8",
							"name": "",
							"type": "uint8"
						}
					],
					"name": "levelPrice",
					"outputs": [
						{
							"internalType": "uint256",
							"name": "",
							"type": "uint256"
						}
					],
					"stateMutability": "view",
					"type": "function"
				},
				{
					"inputs": [],
					"name": "owner",
					"outputs": [
						{
							"internalType": "address",
							"name": "",
							"type": "address"
						}
					],
					"stateMutability": "view",
					"type": "function"
				},
				{
					"inputs": [
						{
							"internalType": "address",
							"name": "referrerAddress",
							"type": "address"
						}
					],
					"name": "registrationExt",
					"outputs": [],
					"stateMutability": "payable",
					"type": "function"
				},
				{
					"inputs": [
						{
							"internalType": "uint256",
							"name": "",
							"type": "uint256"
						}
					],
					"name": "userIds",
					"outputs": [
						{
							"internalType": "address",
							"name": "",
							"type": "address"
						}
					],
					"stateMutability": "view",
					"type": "function"
				},
				{
					"inputs": [
						{
							"internalType": "address",
							"name": "",
							"type": "address"
						}
					],
					"name": "users",
					"outputs": [
						{
							"internalType": "uint256",
							"name": "id",
							"type": "uint256"
						},
						{
							"internalType": "address",
							"name": "referrer",
							"type": "address"
						},
						{
							"internalType": "uint256",
							"name": "partnersCount",
							"type": "uint256"
						}
					],
					"stateMutability": "view",
					"type": "function"
				},
				{
					"inputs": [
						{
							"internalType": "address",
							"name": "userAddress",
							"type": "address"
						},
						{
							"internalType": "uint8",
							"name": "level",
							"type": "uint8"
						}
					],
					"name": "usersActiveX3Levels",
					"outputs": [
						{
							"internalType": "bool",
							"name": "",
							"type": "bool"
						}
					],
					"stateMutability": "view",
					"type": "function"
				},
				{
					"inputs": [
						{
							"internalType": "address",
							"name": "userAddress",
							"type": "address"
						},
						{
							"internalType": "uint8",
							"name": "level",
							"type": "uint8"
						}
					],
					"name": "usersActiveX6Levels",
					"outputs": [
						{
							"internalType": "bool",
							"name": "",
							"type": "bool"
						}
					],
					"stateMutability": "view",
					"type": "function"
				},
				{
					"inputs": [
						{
							"internalType": "address",
							"name": "userAddress",
							"type": "address"
						},
						{
							"internalType": "uint8",
							"name": "level",
							"type": "uint8"
						}
					],
					"name": "usersX3Matrix",
					"outputs": [
						{
							"internalType": "address",
							"name": "",
							"type": "address"
						},
						{
							"internalType": "address[]",
							"name": "",
							"type": "address[]"
						},
						{
							"internalType": "bool",
							"name": "",
							"type": "bool"
						},
						{
							"internalType": "uint256",
							"name": "",
							"type": "uint256"
						}
					],
					"stateMutability": "view",
					"type": "function"
				},
				{
					"inputs": [
						{
							"internalType": "address",
							"name": "userAddress",
							"type": "address"
						},
						{
							"internalType": "uint8",
							"name": "level",
							"type": "uint8"
						}
					],
					"name": "usersX6Matrix",
					"outputs": [
						{
							"internalType": "address",
							"name": "",
							"type": "address"
						},
						{
							"internalType": "address[]",
							"name": "",
							"type": "address[]"
						},
						{
							"internalType": "address[]",
							"name": "",
							"type": "address[]"
						},
						{
							"internalType": "bool",
							"name": "",
							"type": "bool"
						},
						{
							"internalType": "uint256",
							"name": "",
							"type": "uint256"
						},
						{
							"internalType": "address",
							"name": "",
							"type": "address"
						}
					],
					"stateMutability": "view",
					"type": "function"
				},
				{
					"stateMutability": "payable",
					"type": "receive"
				}
			],
			"devdoc": {
				"kind": "dev",
				"methods": {},
				"version": 1
			},
			"evm": {
				"assembly": "    /* \"contracts/Practice.sol\":57:16432  contract SmartMatrixForsage {... */\n  mstore(0x40, 0x80)\n    /* \"contracts/Practice.sol\":968:969  2 */\n  0x02\n    /* \"contracts/Practice.sol\":943:969  uint public lastUserId = 2 */\n  0x04\n  sstore\n    /* \"contracts/Practice.sol\":1706:2282  constructor(address ownerAddress) {... */\n  callvalue\n  dup1\n  iszero\n  tag_1\n  jumpi\n  0x00\n  dup1\n  revert\ntag_1:\n  pop\n  mload(0x40)\n  sub(codesize, bytecodeSize)\n  dup1\n  bytecodeSize\n  dup4\n  codecopy\n  dup2\n  dup2\n  add\n  0x40\n  mstore\n  dup2\n  add\n  swap1\n  tag_2\n  swap2\n  swap1\n  tag_3\n  jump\t// in\ntag_2:\n    /* \"contracts/Practice.sol\":1766:1777  0.025 ether */\n  0x58d15e17628000\n    /* \"contracts/Practice.sol\":1750:1760  levelPrice */\n  0x06\n    /* \"contracts/Practice.sol\":1750:1763  levelPrice[1] */\n  0x00\n    /* \"contracts/Practice.sol\":1761:1762  1 */\n  0x01\n    /* \"contracts/Practice.sol\":1750:1763  levelPrice[1] */\n  0xff\n  and\n  dup2\n  mstore\n  0x20\n  add\n  swap1\n  dup2\n  mstore\n  0x20\n  add\n  0x00\n  keccak256\n    /* \"contracts/Practice.sol\":1750:1777  levelPrice[1] = 0.025 ether */\n  dup2\n  swap1\n  sstore\n  pop\n    /* \"contracts/Practice.sol\":1792:1799  uint8 i */\n  0x00\n    /* \"contracts/Practice.sol\":1802:1803  2 */\n  0x02\n    /* \"contracts/Practice.sol\":1792:1803  uint8 i = 2 */\n  swap1\n  pop\n    /* \"contracts/Practice.sol\":1787:1887  for (uint8 i = 2; i <= LAST_LEVEL; i++) {... */\ntag_6:\n    /* \"contracts/Practice.sol\":751:753  12 */\n  0x0c\n    /* \"contracts/Practice.sol\":1805:1820  i <= LAST_LEVEL */\n  0xff\n  and\n    /* \"contracts/Practice.sol\":1805:1806  i */\n  dup2\n    /* \"contracts/Practice.sol\":1805:1820  i <= LAST_LEVEL */\n  0xff\n  and\n  gt\n    /* \"contracts/Practice.sol\":1787:1887  for (uint8 i = 2; i <= LAST_LEVEL; i++) {... */\n  tag_7\n  jumpi\n    /* \"contracts/Practice.sol\":1875:1876  2 */\n  0x02\n    /* \"contracts/Practice.sol\":1857:1867  levelPrice */\n  0x06\n    /* \"contracts/Practice.sol\":1857:1872  levelPrice[i-1] */\n  0x00\n    /* \"contracts/Practice.sol\":1870:1871  1 */\n  0x01\n    /* \"contracts/Practice.sol\":1868:1869  i */\n  dup5\n    /* \"contracts/Practice.sol\":1868:1871  i-1 */\n  tag_9\n  swap2\n  swap1\n  tag_10\n  jump\t// in\ntag_9:\n    /* \"contracts/Practice.sol\":1857:1872  levelPrice[i-1] */\n  0xff\n  and\n  0xff\n  and\n  dup2\n  mstore\n  0x20\n  add\n  swap1\n  dup2\n  mstore\n  0x20\n  add\n  0x00\n  keccak256\n  sload\n    /* \"contracts/Practice.sol\":1857:1876  levelPrice[i-1] * 2 */\n  tag_11\n  swap2\n  swap1\n  tag_12\n  jump\t// in\ntag_11:\n    /* \"contracts/Practice.sol\":1841:1851  levelPrice */\n  0x06\n    /* \"contracts/Practice.sol\":1841:1854  levelPrice[i] */\n  0x00\n    /* \"contracts/Practice.sol\":1852:1853  i */\n  dup4\n    /* \"contracts/Practice.sol\":1841:1854  levelPrice[i] */\n  0xff\n  and\n  0xff\n  and\n  dup2\n  mstore\n  0x20\n  add\n  swap1\n  dup2\n  mstore\n  0x20\n  add\n  0x00\n  keccak256\n    /* \"contracts/Practice.sol\":1841:1876  levelPrice[i] = levelPrice[i-1] * 2 */\n  dup2\n  swap1\n  sstore\n  pop\n    /* \"contracts/Practice.sol\":1822:1825  i++ */\n  dup1\n  dup1\n  tag_13\n  swap1\n  tag_14\n  jump\t// in\ntag_13:\n  swap2\n  pop\n  pop\n    /* \"contracts/Practice.sol\":1787:1887  for (uint8 i = 2; i <= LAST_LEVEL; i++) {... */\n  jump(tag_6)\ntag_7:\n  pop\n    /* \"contracts/Practice.sol\":1905:1917  ownerAddress */\n  dup1\n    /* \"contracts/Practice.sol\":1897:1902  owner */\n  0x05\n  0x00\n    /* \"contracts/Practice.sol\":1897:1917  owner = ownerAddress */\n  0x0100\n  exp\n  dup2\n  sload\n  dup2\n  0xffffffffffffffffffffffffffffffffffffffff\n  mul\n  not\n  and\n  swap1\n  dup4\n  0xffffffffffffffffffffffffffffffffffffffff\n  and\n  mul\n  or\n  swap1\n  sstore\n  pop\n    /* \"contracts/Practice.sol\":1927:1944  User storage user */\n  0x00\n    /* \"contracts/Practice.sol\":1947:1952  users */\n  dup1\n    /* \"contracts/Practice.sol\":1947:1966  users[ownerAddress] */\n  0x00\n    /* \"contracts/Practice.sol\":1953:1965  ownerAddress */\n  dup4\n    /* \"contracts/Practice.sol\":1947:1966  users[ownerAddress] */\n  0xffffffffffffffffffffffffffffffffffffffff\n  and\n  0xffffffffffffffffffffffffffffffffffffffff\n  and\n  dup2\n  mstore\n  0x20\n  add\n  swap1\n  dup2\n  mstore\n  0x20\n  add\n  0x00\n  keccak256\n    /* \"contracts/Practice.sol\":1927:1966  User storage user = users[ownerAddress] */\n  swap1\n  pop\n    /* \"contracts/Practice.sol\":1986:1987  1 */\n  0x01\n    /* \"contracts/Practice.sol\":1976:1980  user */\n  dup2\n    /* \"contracts/Practice.sol\":1976:1983  user.id */\n  0x00\n  add\n    /* \"contracts/Practice.sol\":1976:1987  user.id = 1 */\n  dup2\n  swap1\n  sstore\n  pop\n    /* \"contracts/Practice.sol\":2021:2022  0 */\n  0x00\n    /* \"contracts/Practice.sol\":1997:2001  user */\n  dup2\n    /* \"contracts/Practice.sol\":1997:2010  user.referrer */\n  0x01\n  add\n  0x00\n    /* \"contracts/Practice.sol\":1997:2023  user.referrer = address(0) */\n  0x0100\n  exp\n  dup2\n  sload\n  dup2\n  0xffffffffffffffffffffffffffffffffffffffff\n  mul\n  not\n  and\n  swap1\n  dup4\n  0xffffffffffffffffffffffffffffffffffffffff\n  and\n  mul\n  or\n  swap1\n  sstore\n  pop\n    /* \"contracts/Practice.sol\":2054:2055  0 */\n  0x00\n    /* \"contracts/Practice.sol\":2033:2037  user */\n  dup2\n    /* \"contracts/Practice.sol\":2033:2051  user.partnersCount */\n  0x02\n  add\n    /* \"contracts/Practice.sol\":2033:2055  user.partnersCount = 0 */\n  dup2\n  swap1\n  sstore\n  pop\n    /* \"contracts/Practice.sol\":2070:2077  uint8 i */\n  0x00\n    /* \"contracts/Practice.sol\":2080:2081  1 */\n  0x01\n    /* \"contracts/Practice.sol\":2070:2081  uint8 i = 1 */\n  swap1\n  pop\n    /* \"contracts/Practice.sol\":2065:2202  for (uint8 i = 1; i <= LAST_LEVEL; i++) {... */\ntag_15:\n    /* \"contracts/Practice.sol\":751:753  12 */\n  0x0c\n    /* \"contracts/Practice.sol\":2083:2098  i <= LAST_LEVEL */\n  0xff\n  and\n    /* \"contracts/Practice.sol\":2083:2084  i */\n  dup2\n    /* \"contracts/Practice.sol\":2083:2098  i <= LAST_LEVEL */\n  0xff\n  and\n  gt\n    /* \"contracts/Practice.sol\":2065:2202  for (uint8 i = 1; i <= LAST_LEVEL; i++) {... */\n  tag_16\n  jumpi\n    /* \"contracts/Practice.sol\":2144:2148  true */\n  0x01\n    /* \"contracts/Practice.sol\":2119:2123  user */\n  dup3\n    /* \"contracts/Practice.sol\":2119:2138  user.activeX3Levels */\n  0x03\n  add\n    /* \"contracts/Practice.sol\":2119:2141  user.activeX3Levels[i] */\n  0x00\n    /* \"contracts/Practice.sol\":2139:2140  i */\n  dup4\n    /* \"contracts/Practice.sol\":2119:2141  user.activeX3Levels[i] */\n  0xff\n  and\n  0xff\n  and\n  dup2\n  mstore\n  0x20\n  add\n  swap1\n  dup2\n  mstore\n  0x20\n  add\n  0x00\n  keccak256\n  0x00\n    /* \"contracts/Practice.sol\":2119:2148  user.activeX3Levels[i] = true */\n  0x0100\n  exp\n  dup2\n  sload\n  dup2\n  0xff\n  mul\n  not\n  and\n  swap1\n  dup4\n  iszero\n  iszero\n  mul\n  or\n  swap1\n  sstore\n  pop\n    /* \"contracts/Practice.sol\":2187:2191  true */\n  0x01\n    /* \"contracts/Practice.sol\":2162:2166  user */\n  dup3\n    /* \"contracts/Practice.sol\":2162:2181  user.activeX6Levels */\n  0x04\n  add\n    /* \"contracts/Practice.sol\":2162:2184  user.activeX6Levels[i] */\n  0x00\n    /* \"contracts/Practice.sol\":2182:2183  i */\n  dup4\n    /* \"contracts/Practice.sol\":2162:2184  user.activeX6Levels[i] */\n  0xff\n  and\n  0xff\n  and\n  dup2\n  mstore\n  0x20\n  add\n  swap1\n  dup2\n  mstore\n  0x20\n  add\n  0x00\n  keccak256\n  0x00\n    /* \"contracts/Practice.sol\":2162:2191  user.activeX6Levels[i] = true */\n  0x0100\n  exp\n  dup2\n  sload\n  dup2\n  0xff\n  mul\n  not\n  and\n  swap1\n  dup4\n  iszero\n  iszero\n  mul\n  or\n  swap1\n  sstore\n  pop\n    /* \"contracts/Practice.sol\":2100:2103  i++ */\n  dup1\n  dup1\n  tag_18\n  swap1\n  tag_14\n  jump\t// in\ntag_18:\n  swap2\n  pop\n  pop\n    /* \"contracts/Practice.sol\":2065:2202  for (uint8 i = 1; i <= LAST_LEVEL; i++) {... */\n  jump(tag_15)\ntag_16:\n  pop\n    /* \"contracts/Practice.sol\":2228:2240  ownerAddress */\n  dup2\n    /* \"contracts/Practice.sol\":2211:2222  idToAddress */\n  0x01\n    /* \"contracts/Practice.sol\":2211:2225  idToAddress[1] */\n  0x00\n    /* \"contracts/Practice.sol\":2223:2224  1 */\n  0x01\n    /* \"contracts/Practice.sol\":2211:2225  idToAddress[1] */\n  dup2\n  mstore\n  0x20\n  add\n  swap1\n  dup2\n  mstore\n  0x20\n  add\n  0x00\n  keccak256\n  0x00\n    /* \"contracts/Practice.sol\":2211:2240  idToAddress[1] = ownerAddress */\n  0x0100\n  exp\n  dup2\n  sload\n  dup2\n  0xffffffffffffffffffffffffffffffffffffffff\n  mul\n  not\n  and\n  swap1\n  dup4\n  0xffffffffffffffffffffffffffffffffffffffff\n  and\n  mul\n  or\n  swap1\n  sstore\n  pop\n    /* \"contracts/Practice.sol\":2263:2275  ownerAddress */\n  dup2\n    /* \"contracts/Practice.sol\":2250:2257  userIds */\n  0x02\n    /* \"contracts/Practice.sol\":2250:2260  userIds[1] */\n  0x00\n    /* \"contracts/Practice.sol\":2258:2259  1 */\n  0x01\n    /* \"contracts/Practice.sol\":2250:2260  userIds[1] */\n  dup2\n  mstore\n  0x20\n  add\n  swap1\n  dup2\n  mstore\n  0x20\n  add\n  0x00\n  keccak256\n  0x00\n    /* \"contracts/Practice.sol\":2250:2275  userIds[1] = ownerAddress */\n  0x0100\n  exp\n  dup2\n  sload\n  dup2\n  0xffffffffffffffffffffffffffffffffffffffff\n  mul\n  not\n  and\n  swap1\n  dup4\n  0xffffffffffffffffffffffffffffffffffffffff\n  and\n  mul\n  or\n  swap1\n  sstore\n  pop\n    /* \"contracts/Practice.sol\":1740:2282  {... */\n  pop\n    /* \"contracts/Practice.sol\":1706:2282  constructor(address ownerAddress) {... */\n  pop\n    /* \"contracts/Practice.sol\":57:16432  contract SmartMatrixForsage {... */\n  jump(tag_19)\n    /* \"#utility.yul\":88:205   */\ntag_21:\n    /* \"#utility.yul\":197:198   */\n  0x00\n    /* \"#utility.yul\":194:195   */\n  dup1\n    /* \"#utility.yul\":187:199   */\n  revert\n    /* \"#utility.yul\":334:460   */\ntag_23:\n    /* \"#utility.yul\":371:378   */\n  0x00\n    /* \"#utility.yul\":411:453   */\n  0xffffffffffffffffffffffffffffffffffffffff\n    /* \"#utility.yul\":404:409   */\n  dup3\n    /* \"#utility.yul\":400:454   */\n  and\n    /* \"#utility.yul\":389:454   */\n  swap1\n  pop\n    /* \"#utility.yul\":334:460   */\n  swap2\n  swap1\n  pop\n  jump\t// out\n    /* \"#utility.yul\":466:562   */\ntag_24:\n    /* \"#utility.yul\":503:510   */\n  0x00\n    /* \"#utility.yul\":532:556   */\n  tag_36\n    /* \"#utility.yul\":550:555   */\n  dup3\n    /* \"#utility.yul\":532:556   */\n  tag_23\n  jump\t// in\ntag_36:\n    /* \"#utility.yul\":521:556   */\n  swap1\n  pop\n    /* \"#utility.yul\":466:562   */\n  swap2\n  swap1\n  pop\n  jump\t// out\n    /* \"#utility.yul\":568:690   */\ntag_25:\n    /* \"#utility.yul\":641:665   */\n  tag_38\n    /* \"#utility.yul\":659:664   */\n  dup2\n    /* \"#utility.yul\":641:665   */\n  tag_24\n  jump\t// in\ntag_38:\n    /* \"#utility.yul\":634:639   */\n  dup2\n    /* \"#utility.yul\":631:666   */\n  eq\n    /* \"#utility.yul\":621:684   */\n  tag_39\n  jumpi\n    /* \"#utility.yul\":680:681   */\n  0x00\n    /* \"#utility.yul\":677:678   */\n  dup1\n    /* \"#utility.yul\":670:682   */\n  revert\n    /* \"#utility.yul\":621:684   */\ntag_39:\n    /* \"#utility.yul\":568:690   */\n  pop\n  jump\t// out\n    /* \"#utility.yul\":696:839   */\ntag_26:\n    /* \"#utility.yul\":753:758   */\n  0x00\n    /* \"#utility.yul\":784:790   */\n  dup2\n    /* \"#utility.yul\":778:791   */\n  mload\n    /* \"#utility.yul\":769:791   */\n  swap1\n  pop\n    /* \"#utility.yul\":800:833   */\n  tag_41\n    /* \"#utility.yul\":827:832   */\n  dup2\n    /* \"#utility.yul\":800:833   */\n  tag_25\n  jump\t// in\ntag_41:\n    /* \"#utility.yul\":696:839   */\n  swap3\n  swap2\n  pop\n  pop\n  jump\t// out\n    /* \"#utility.yul\":845:1196   */\ntag_3:\n    /* \"#utility.yul\":915:921   */\n  0x00\n    /* \"#utility.yul\":964:966   */\n  0x20\n    /* \"#utility.yul\":952:961   */\n  dup3\n    /* \"#utility.yul\":943:950   */\n  dup5\n    /* \"#utility.yul\":939:962   */\n  sub\n    /* \"#utility.yul\":935:967   */\n  slt\n    /* \"#utility.yul\":932:1051   */\n  iszero\n  tag_43\n  jumpi\n    /* \"#utility.yul\":970:1049   */\n  tag_44\n  tag_21\n  jump\t// in\ntag_44:\n    /* \"#utility.yul\":932:1051   */\ntag_43:\n    /* \"#utility.yul\":1090:1091   */\n  0x00\n    /* \"#utility.yul\":1115:1179   */\n  tag_45\n    /* \"#utility.yul\":1171:1178   */\n  dup5\n    /* \"#utility.yul\":1162:1168   */\n  dup3\n    /* \"#utility.yul\":1151:1160   */\n  dup6\n    /* \"#utility.yul\":1147:1169   */\n  add\n    /* \"#utility.yul\":1115:1179   */\n  tag_26\n  jump\t// in\ntag_45:\n    /* \"#utility.yul\":1105:1179   */\n  swap2\n  pop\n    /* \"#utility.yul\":1061:1189   */\n  pop\n    /* \"#utility.yul\":845:1196   */\n  swap3\n  swap2\n  pop\n  pop\n  jump\t// out\n    /* \"#utility.yul\":1202:1288   */\ntag_27:\n    /* \"#utility.yul\":1237:1244   */\n  0x00\n    /* \"#utility.yul\":1277:1281   */\n  0xff\n    /* \"#utility.yul\":1270:1275   */\n  dup3\n    /* \"#utility.yul\":1266:1282   */\n  and\n    /* \"#utility.yul\":1255:1282   */\n  swap1\n  pop\n    /* \"#utility.yul\":1202:1288   */\n  swap2\n  swap1\n  pop\n  jump\t// out\n    /* \"#utility.yul\":1294:1474   */\ntag_28:\n    /* \"#utility.yul\":1342:1419   */\n  0x4e487b7100000000000000000000000000000000000000000000000000000000\n    /* \"#utility.yul\":1339:1340   */\n  0x00\n    /* \"#utility.yul\":1332:1420   */\n  mstore\n    /* \"#utility.yul\":1439:1443   */\n  0x11\n    /* \"#utility.yul\":1436:1437   */\n  0x04\n    /* \"#utility.yul\":1429:1444   */\n  mstore\n    /* \"#utility.yul\":1463:1467   */\n  0x24\n    /* \"#utility.yul\":1460:1461   */\n  0x00\n    /* \"#utility.yul\":1453:1468   */\n  revert\n    /* \"#utility.yul\":1480:1671   */\ntag_10:\n    /* \"#utility.yul\":1518:1522   */\n  0x00\n    /* \"#utility.yul\":1538:1556   */\n  tag_49\n    /* \"#utility.yul\":1554:1555   */\n  dup3\n    /* \"#utility.yul\":1538:1556   */\n  tag_27\n  jump\t// in\ntag_49:\n    /* \"#utility.yul\":1533:1556   */\n  swap2\n  pop\n    /* \"#utility.yul\":1570:1588   */\n  tag_50\n    /* \"#utility.yul\":1586:1587   */\n  dup4\n    /* \"#utility.yul\":1570:1588   */\n  tag_27\n  jump\t// in\ntag_50:\n    /* \"#utility.yul\":1565:1588   */\n  swap3\n  pop\n    /* \"#utility.yul\":1612:1613   */\n  dup3\n    /* \"#utility.yul\":1609:1610   */\n  dup3\n    /* \"#utility.yul\":1605:1614   */\n  sub\n    /* \"#utility.yul\":1597:1614   */\n  swap1\n  pop\n    /* \"#utility.yul\":1636:1640   */\n  0xff\n    /* \"#utility.yul\":1630:1634   */\n  dup2\n    /* \"#utility.yul\":1627:1641   */\n  gt\n    /* \"#utility.yul\":1624:1664   */\n  iszero\n  tag_51\n  jumpi\n    /* \"#utility.yul\":1644:1662   */\n  tag_52\n  tag_28\n  jump\t// in\ntag_52:\n    /* \"#utility.yul\":1624:1664   */\ntag_51:\n    /* \"#utility.yul\":1480:1671   */\n  swap3\n  swap2\n  pop\n  pop\n  jump\t// out\n    /* \"#utility.yul\":1677:1754   */\ntag_29:\n    /* \"#utility.yul\":1714:1721   */\n  0x00\n    /* \"#utility.yul\":1743:1748   */\n  dup2\n    /* \"#utility.yul\":1732:1748   */\n  swap1\n  pop\n    /* \"#utility.yul\":1677:1754   */\n  swap2\n  swap1\n  pop\n  jump\t// out\n    /* \"#utility.yul\":1760:2170   */\ntag_12:\n    /* \"#utility.yul\":1800:1807   */\n  0x00\n    /* \"#utility.yul\":1823:1843   */\n  tag_55\n    /* \"#utility.yul\":1841:1842   */\n  dup3\n    /* \"#utility.yul\":1823:1843   */\n  tag_29\n  jump\t// in\ntag_55:\n    /* \"#utility.yul\":1818:1843   */\n  swap2\n  pop\n    /* \"#utility.yul\":1857:1877   */\n  tag_56\n    /* \"#utility.yul\":1875:1876   */\n  dup4\n    /* \"#utility.yul\":1857:1877   */\n  tag_29\n  jump\t// in\ntag_56:\n    /* \"#utility.yul\":1852:1877   */\n  swap3\n  pop\n    /* \"#utility.yul\":1912:1913   */\n  dup3\n    /* \"#utility.yul\":1909:1910   */\n  dup3\n    /* \"#utility.yul\":1905:1914   */\n  mul\n    /* \"#utility.yul\":1934:1964   */\n  tag_57\n    /* \"#utility.yul\":1952:1963   */\n  dup2\n    /* \"#utility.yul\":1934:1964   */\n  tag_29\n  jump\t// in\ntag_57:\n    /* \"#utility.yul\":1923:1964   */\n  swap2\n  pop\n    /* \"#utility.yul\":2113:2114   */\n  dup3\n    /* \"#utility.yul\":2104:2111   */\n  dup3\n    /* \"#utility.yul\":2100:2115   */\n  div\n    /* \"#utility.yul\":2097:2098   */\n  dup5\n    /* \"#utility.yul\":2094:2116   */\n  eq\n    /* \"#utility.yul\":2074:2075   */\n  dup4\n    /* \"#utility.yul\":2067:2076   */\n  iszero\n    /* \"#utility.yul\":2047:2130   */\n  or\n    /* \"#utility.yul\":2024:2163   */\n  tag_58\n  jumpi\n    /* \"#utility.yul\":2143:2161   */\n  tag_59\n  tag_28\n  jump\t// in\ntag_59:\n    /* \"#utility.yul\":2024:2163   */\ntag_58:\n    /* \"#utility.yul\":1808:2170   */\n  pop\n    /* \"#utility.yul\":1760:2170   */\n  swap3\n  swap2\n  pop\n  pop\n  jump\t// out\n    /* \"#utility.yul\":2176:2343   */\ntag_14:\n    /* \"#utility.yul\":2213:2216   */\n  0x00\n    /* \"#utility.yul\":2236:2258   */\n  tag_61\n    /* \"#utility.yul\":2252:2257   */\n  dup3\n    /* \"#utility.yul\":2236:2258   */\n  tag_27\n  jump\t// in\ntag_61:\n    /* \"#utility.yul\":2227:2258   */\n  swap2\n  pop\n    /* \"#utility.yul\":2280:2284   */\n  0xff\n    /* \"#utility.yul\":2273:2278   */\n  dup3\n    /* \"#utility.yul\":2270:2285   */\n  sub\n    /* \"#utility.yul\":2267:2308   */\n  tag_62\n  jumpi\n    /* \"#utility.yul\":2288:2306   */\n  tag_63\n  tag_28\n  jump\t// in\ntag_63:\n    /* \"#utility.yul\":2267:2308   */\ntag_62:\n    /* \"#utility.yul\":2335:2336   */\n  0x01\n    /* \"#utility.yul\":2328:2333   */\n  dup3\n    /* \"#utility.yul\":2324:2337   */\n  add\n    /* \"#utility.yul\":2317:2337   */\n  swap1\n  pop\n    /* \"#utility.yul\":2176:2343   */\n  swap2\n  swap1\n  pop\n  jump\t// out\n    /* \"contracts/Practice.sol\":57:16432  contract SmartMatrixForsage {... */\ntag_19:\n  dataSize(sub_0)\n  dup1\n  dataOffset(sub_0)\n  0x00\n  codecopy\n  0x00\n  return\nstop\n\nsub_0: assembly {\n        /* \"contracts/Practice.sol\":57:16432  contract SmartMatrixForsage {... */\n      mstore(0x40, 0x80)\n      jumpi(tag_1, lt(calldatasize, 0x04))\n      shr(0xe0, calldataload(0x00))\n      dup1\n      0x83ba31b2\n      gt\n      tag_20\n      jumpi\n      dup1\n      0xb2f7543a\n      gt\n      tag_21\n      jumpi\n      dup1\n      0xb2f7543a\n      eq\n      tag_15\n      jumpi\n      dup1\n      0xbe389d57\n      eq\n      tag_16\n      jumpi\n      dup1\n      0xe06e8dbd\n      eq\n      tag_17\n      jumpi\n      dup1\n      0xecabdf79\n      eq\n      tag_18\n      jumpi\n      dup1\n      0xfa45323d\n      eq\n      tag_19\n      jumpi\n      jump(tag_2)\n    tag_21:\n      dup1\n      0x83ba31b2\n      eq\n      tag_11\n      jumpi\n      dup1\n      0x8da5cb5b\n      eq\n      tag_12\n      jumpi\n      dup1\n      0x9cc102fc\n      eq\n      tag_13\n      jumpi\n      dup1\n      0xa87430ba\n      eq\n      tag_14\n      jumpi\n      jump(tag_2)\n    tag_20:\n      dup1\n      0x348d4487\n      gt\n      tag_22\n      jumpi\n      dup1\n      0x348d4487\n      eq\n      tag_7\n      jumpi\n      dup1\n      0x4635fd68\n      eq\n      tag_8\n      jumpi\n      dup1\n      0x509222cd\n      eq\n      tag_9\n      jumpi\n      dup1\n      0x797eee24\n      eq\n      tag_10\n      jumpi\n      jump(tag_2)\n    tag_22:\n      dup1\n      0x07279e2a\n      eq\n      tag_3\n      jumpi\n      dup1\n      0x27e235e3\n      eq\n      tag_4\n      jumpi\n      dup1\n      0x29c70400\n      eq\n      tag_5\n      jumpi\n      dup1\n      0x2a2d0c47\n      eq\n      tag_6\n      jumpi\n      jump(tag_2)\n    tag_1:\n      jumpi(tag_2, calldatasize)\n        /* \"contracts/Practice.sol\":2385:2416  registration(msg.sender, owner) */\n      tag_25\n        /* \"contracts/Practice.sol\":2398:2408  msg.sender */\n      caller\n        /* \"contracts/Practice.sol\":2410:2415  owner */\n      0x05\n      0x00\n      swap1\n      sload\n      swap1\n      0x0100\n      exp\n      swap1\n      div\n      0xffffffffffffffffffffffffffffffffffffffff\n      and\n        /* \"contracts/Practice.sol\":2385:2397  registration */\n      tag_26\n        /* \"contracts/Practice.sol\":2385:2416  registration(msg.sender, owner) */\n      jump\t// in\n    tag_25:\n        /* \"contracts/Practice.sol\":57:16432  contract SmartMatrixForsage {... */\n      stop\n    tag_2:\n        /* \"contracts/Practice.sol\":2550:2551  0 */\n      0x00\n        /* \"contracts/Practice.sol\":2531:2539  msg.data */\n      dup1\n      calldatasize\n        /* \"contracts/Practice.sol\":2531:2546  msg.data.length */\n      swap1\n      pop\n        /* \"contracts/Practice.sol\":2531:2551  msg.data.length == 0 */\n      sub\n        /* \"contracts/Practice.sol\":2527:2690  if (msg.data.length == 0) {... */\n      tag_29\n      jumpi\n        /* \"contracts/Practice.sol\":2567:2598  registration(msg.sender, owner) */\n      tag_30\n        /* \"contracts/Practice.sol\":2580:2590  msg.sender */\n      caller\n        /* \"contracts/Practice.sol\":2592:2597  owner */\n      0x05\n      0x00\n      swap1\n      sload\n      swap1\n      0x0100\n      exp\n      swap1\n      div\n      0xffffffffffffffffffffffffffffffffffffffff\n      and\n        /* \"contracts/Practice.sol\":2567:2579  registration */\n      tag_26\n        /* \"contracts/Practice.sol\":2567:2598  registration(msg.sender, owner) */\n      jump\t// in\n    tag_30:\n        /* \"contracts/Practice.sol\":2527:2690  if (msg.data.length == 0) {... */\n      jump(tag_31)\n    tag_29:\n        /* \"contracts/Practice.sol\":2629:2679  registration(msg.sender, bytesToAddress(msg.data)) */\n      tag_32\n        /* \"contracts/Practice.sol\":2642:2652  msg.sender */\n      caller\n        /* \"contracts/Practice.sol\":2654:2678  bytesToAddress(msg.data) */\n      tag_33\n        /* \"contracts/Practice.sol\":2669:2677  msg.data */\n      0x00\n      calldatasize\n        /* \"contracts/Practice.sol\":2654:2678  bytesToAddress(msg.data) */\n      dup1\n      dup1\n      0x1f\n      add\n      0x20\n      dup1\n      swap2\n      div\n      mul\n      0x20\n      add\n      mload(0x40)\n      swap1\n      dup2\n      add\n      0x40\n      mstore\n      dup1\n      swap4\n      swap3\n      swap2\n      swap1\n      dup2\n      dup2\n      mstore\n      0x20\n      add\n      dup4\n      dup4\n      dup1\n      dup3\n      dup5\n      calldatacopy\n      0x00\n      dup2\n      dup5\n      add\n      mstore\n      not(0x1f)\n      0x1f\n      dup3\n      add\n      and\n      swap1\n      pop\n      dup1\n      dup4\n      add\n      swap3\n      pop\n      pop\n      pop\n      pop\n      pop\n      pop\n      pop\n        /* \"contracts/Practice.sol\":2654:2668  bytesToAddress */\n      tag_34\n        /* \"contracts/Practice.sol\":2654:2678  bytesToAddress(msg.data) */\n      jump\t// in\n    tag_33:\n        /* \"contracts/Practice.sol\":2629:2641  registration */\n      tag_26\n        /* \"contracts/Practice.sol\":2629:2679  registration(msg.sender, bytesToAddress(msg.data)) */\n      jump\t// in\n    tag_32:\n        /* \"contracts/Practice.sol\":2527:2690  if (msg.data.length == 0) {... */\n    tag_31:\n        /* \"contracts/Practice.sol\":57:16432  contract SmartMatrixForsage {... */\n      stop\n        /* \"contracts/Practice.sol\":14578:14731  function usersActiveX3Levels(address userAddress, uint8 level) public view returns(bool) {... */\n    tag_3:\n      callvalue\n      dup1\n      iszero\n      tag_35\n      jumpi\n      0x00\n      dup1\n      revert\n    tag_35:\n      pop\n      tag_36\n      0x04\n      dup1\n      calldatasize\n      sub\n      dup2\n      add\n      swap1\n      tag_37\n      swap2\n      swap1\n      tag_38\n      jump\t// in\n    tag_37:\n      tag_39\n      jump\t// in\n    tag_36:\n      mload(0x40)\n      tag_40\n      swap2\n      swap1\n      tag_41\n      jump\t// in\n    tag_40:\n      mload(0x40)\n      dup1\n      swap2\n      sub\n      swap1\n      return\n        /* \"contracts/Practice.sol\":896:936  mapping(address => uint) public balances */\n    tag_4:\n      callvalue\n      dup1\n      iszero\n      tag_42\n      jumpi\n      0x00\n      dup1\n      revert\n    tag_42:\n      pop\n      tag_43\n      0x04\n      dup1\n      calldatasize\n      sub\n      dup2\n      add\n      swap1\n      tag_44\n      swap2\n      swap1\n      tag_45\n      jump\t// in\n    tag_44:\n      tag_46\n      jump\t// in\n    tag_43:\n      mload(0x40)\n      tag_47\n      swap2\n      swap1\n      tag_48\n      jump\t// in\n    tag_47:\n      mload(0x40)\n      dup1\n      swap2\n      sub\n      swap1\n      return\n        /* \"contracts/Practice.sol\":716:753  uint8 public constant LAST_LEVEL = 12 */\n    tag_5:\n      callvalue\n      dup1\n      iszero\n      tag_49\n      jumpi\n      0x00\n      dup1\n      revert\n    tag_49:\n      pop\n      tag_50\n      tag_51\n      jump\t// in\n    tag_50:\n      mload(0x40)\n      tag_52\n      swap2\n      swap1\n      tag_53\n      jump\t// in\n    tag_52:\n      mload(0x40)\n      dup1\n      swap2\n      sub\n      swap1\n      return\n        /* \"contracts/Practice.sol\":802:845  mapping(uint => address) public idToAddress */\n    tag_6:\n      callvalue\n      dup1\n      iszero\n      tag_54\n      jumpi\n      0x00\n      dup1\n      revert\n    tag_54:\n      pop\n      tag_55\n      0x04\n      dup1\n      calldatasize\n      sub\n      dup2\n      add\n      swap1\n      tag_56\n      swap2\n      swap1\n      tag_57\n      jump\t// in\n    tag_56:\n      tag_58\n      jump\t// in\n    tag_55:\n      mload(0x40)\n      tag_59\n      swap2\n      swap1\n      tag_60\n      jump\t// in\n    tag_59:\n      mload(0x40)\n      dup1\n      swap2\n      sub\n      swap1\n      return\n        /* \"contracts/Practice.sol\":943:969  uint public lastUserId = 2 */\n    tag_7:\n      callvalue\n      dup1\n      iszero\n      tag_61\n      jumpi\n      0x00\n      dup1\n      revert\n    tag_61:\n      pop\n      tag_62\n      tag_63\n      jump\t// in\n    tag_62:\n      mload(0x40)\n      tag_64\n      swap2\n      swap1\n      tag_48\n      jump\t// in\n    tag_64:\n      mload(0x40)\n      dup1\n      swap2\n      sub\n      swap1\n      return\n        /* \"contracts/Practice.sol\":851:890  mapping(uint => address) public userIds */\n    tag_8:\n      callvalue\n      dup1\n      iszero\n      tag_65\n      jumpi\n      0x00\n      dup1\n      revert\n    tag_65:\n      pop\n      tag_66\n      0x04\n      dup1\n      calldatasize\n      sub\n      dup2\n      add\n      swap1\n      tag_67\n      swap2\n      swap1\n      tag_57\n      jump\t// in\n    tag_67:\n      tag_68\n      jump\t// in\n    tag_66:\n      mload(0x40)\n      tag_69\n      swap2\n      swap1\n      tag_60\n      jump\t// in\n    tag_69:\n      mload(0x40)\n      dup1\n      swap2\n      sub\n      swap1\n      return\n        /* \"contracts/Practice.sol\":15845:15953  function isUserExists(address user) public view returns (bool) {... */\n    tag_9:\n      callvalue\n      dup1\n      iszero\n      tag_70\n      jumpi\n      0x00\n      dup1\n      revert\n    tag_70:\n      pop\n      tag_71\n      0x04\n      dup1\n      calldatasize\n      sub\n      dup2\n      add\n      swap1\n      tag_72\n      swap2\n      swap1\n      tag_45\n      jump\t// in\n    tag_72:\n      tag_73\n      jump\t// in\n    tag_71:\n      mload(0x40)\n      tag_74\n      swap2\n      swap1\n      tag_41\n      jump\t// in\n    tag_74:\n      mload(0x40)\n      dup1\n      swap2\n      sub\n      swap1\n      return\n        /* \"contracts/Practice.sol\":2702:2827  function registrationExt(address referrerAddress) external payable {... */\n    tag_10:\n      tag_75\n      0x04\n      dup1\n      calldatasize\n      sub\n      dup2\n      add\n      swap1\n      tag_76\n      swap2\n      swap1\n      tag_45\n      jump\t// in\n    tag_76:\n      tag_77\n      jump\t// in\n    tag_75:\n      stop\n        /* \"contracts/Practice.sol\":14896:15276  function usersX3Matrix(address userAddress, uint8 level) public view returns(address, address[] memory, bool, uint) {... */\n    tag_11:\n      callvalue\n      dup1\n      iszero\n      tag_78\n      jumpi\n      0x00\n      dup1\n      revert\n    tag_78:\n      pop\n      tag_79\n      0x04\n      dup1\n      calldatasize\n      sub\n      dup2\n      add\n      swap1\n      tag_80\n      swap2\n      swap1\n      tag_38\n      jump\t// in\n    tag_80:\n      tag_81\n      jump\t// in\n    tag_79:\n      mload(0x40)\n      tag_82\n      swap5\n      swap4\n      swap3\n      swap2\n      swap1\n      tag_83\n      jump\t// in\n    tag_82:\n      mload(0x40)\n      dup1\n      swap2\n      sub\n      swap1\n      return\n        /* \"contracts/Practice.sol\":975:995  address public owner */\n    tag_12:\n      callvalue\n      dup1\n      iszero\n      tag_84\n      jumpi\n      0x00\n      dup1\n      revert\n    tag_84:\n      pop\n      tag_85\n      tag_86\n      jump\t// in\n    tag_85:\n      mload(0x40)\n      tag_87\n      swap2\n      swap1\n      tag_60\n      jump\t// in\n    tag_87:\n      mload(0x40)\n      dup1\n      swap2\n      sub\n      swap1\n      return\n        /* \"contracts/Practice.sol\":15286:15839  function usersX6Matrix(address userAddress, uint8 level) public view returns(address, address[] memory, address[] memory, bool, uint, address) {... */\n    tag_13:\n      callvalue\n      dup1\n      iszero\n      tag_88\n      jumpi\n      0x00\n      dup1\n      revert\n    tag_88:\n      pop\n      tag_89\n      0x04\n      dup1\n      calldatasize\n      sub\n      dup2\n      add\n      swap1\n      tag_90\n      swap2\n      swap1\n      tag_38\n      jump\t// in\n    tag_90:\n      tag_91\n      jump\t// in\n    tag_89:\n      mload(0x40)\n      tag_92\n      swap7\n      swap6\n      swap5\n      swap4\n      swap3\n      swap2\n      swap1\n      tag_93\n      jump\t// in\n    tag_92:\n      mload(0x40)\n      dup1\n      swap2\n      sub\n      swap1\n      return\n        /* \"contracts/Practice.sol\":759:796  mapping(address => User) public users */\n    tag_14:\n      callvalue\n      dup1\n      iszero\n      tag_94\n      jumpi\n      0x00\n      dup1\n      revert\n    tag_94:\n      pop\n      tag_95\n      0x04\n      dup1\n      calldatasize\n      sub\n      dup2\n      add\n      swap1\n      tag_96\n      swap2\n      swap1\n      tag_45\n      jump\t// in\n    tag_96:\n      tag_97\n      jump\t// in\n    tag_95:\n      mload(0x40)\n      tag_98\n      swap4\n      swap3\n      swap2\n      swap1\n      tag_99\n      jump\t// in\n    tag_98:\n      mload(0x40)\n      dup1\n      swap2\n      sub\n      swap1\n      return\n        /* \"contracts/Practice.sol\":14737:14890  function usersActiveX6Levels(address userAddress, uint8 level) public view returns(bool) {... */\n    tag_15:\n      callvalue\n      dup1\n      iszero\n      tag_100\n      jumpi\n      0x00\n      dup1\n      revert\n    tag_100:\n      pop\n      tag_101\n      0x04\n      dup1\n      calldatasize\n      sub\n      dup2\n      add\n      swap1\n      tag_102\n      swap2\n      swap1\n      tag_38\n      jump\t// in\n    tag_102:\n      tag_103\n      jump\t// in\n    tag_101:\n      mload(0x40)\n      tag_104\n      swap2\n      swap1\n      tag_41\n      jump\t// in\n    tag_104:\n      mload(0x40)\n      dup1\n      swap2\n      sub\n      swap1\n      return\n        /* \"contracts/Practice.sol\":2837:4386  function buyNewLevel(uint8 matrix, uint8 level) external payable {... */\n    tag_16:\n      tag_105\n      0x04\n      dup1\n      calldatasize\n      sub\n      dup2\n      add\n      swap1\n      tag_106\n      swap2\n      swap1\n      tag_107\n      jump\t// in\n    tag_106:\n      tag_108\n      jump\t// in\n    tag_105:\n      stop\n        /* \"contracts/Practice.sol\":14240:14568  function findFreeX6Referrer(address userAddress, uint8 level) public view returns(address) {... */\n    tag_17:\n      callvalue\n      dup1\n      iszero\n      tag_109\n      jumpi\n      0x00\n      dup1\n      revert\n    tag_109:\n      pop\n      tag_110\n      0x04\n      dup1\n      calldatasize\n      sub\n      dup2\n      add\n      swap1\n      tag_111\n      swap2\n      swap1\n      tag_38\n      jump\t// in\n    tag_111:\n      tag_112\n      jump\t// in\n    tag_110:\n      mload(0x40)\n      tag_113\n      swap2\n      swap1\n      tag_60\n      jump\t// in\n    tag_113:\n      mload(0x40)\n      dup1\n      swap2\n      sub\n      swap1\n      return\n        /* \"contracts/Practice.sol\":1001:1041  mapping(uint8 => uint) public levelPrice */\n    tag_18:\n      callvalue\n      dup1\n      iszero\n      tag_114\n      jumpi\n      0x00\n      dup1\n      revert\n    tag_114:\n      pop\n      tag_115\n      0x04\n      dup1\n      calldatasize\n      sub\n      dup2\n      add\n      swap1\n      tag_116\n      swap2\n      swap1\n      tag_117\n      jump\t// in\n    tag_116:\n      tag_118\n      jump\t// in\n    tag_115:\n      mload(0x40)\n      tag_119\n      swap2\n      swap1\n      tag_48\n      jump\t// in\n    tag_119:\n      mload(0x40)\n      dup1\n      swap2\n      sub\n      swap1\n      return\n        /* \"contracts/Practice.sol\":13902:14230  function findFreeX3Referrer(address userAddress, uint8 level) public view returns(address) {... */\n    tag_19:\n      callvalue\n      dup1\n      iszero\n      tag_120\n      jumpi\n      0x00\n      dup1\n      revert\n    tag_120:\n      pop\n      tag_121\n      0x04\n      dup1\n      calldatasize\n      sub\n      dup2\n      add\n      swap1\n      tag_122\n      swap2\n      swap1\n      tag_38\n      jump\t// in\n    tag_122:\n      tag_123\n      jump\t// in\n    tag_121:\n      mload(0x40)\n      tag_124\n      swap2\n      swap1\n      tag_60\n      jump\t// in\n    tag_124:\n      mload(0x40)\n      dup1\n      swap2\n      sub\n      swap1\n      return\n        /* \"contracts/Practice.sol\":4400:5647  function registration(address userAddress, address referrerAddress) private {... */\n    tag_26:\n        /* \"contracts/Practice.sol\":4507:4517  0.05 ether */\n      0xb1a2bc2ec50000\n        /* \"contracts/Practice.sol\":4494:4503  msg.value */\n      callvalue\n        /* \"contracts/Practice.sol\":4494:4517  msg.value == 0.05 ether */\n      eq\n        /* \"contracts/Practice.sol\":4486:4548  require(msg.value == 0.05 ether, \"Registration cost 0.05 ETH\") */\n      tag_126\n      jumpi\n      mload(0x40)\n      0x08c379a000000000000000000000000000000000000000000000000000000000\n      dup2\n      mstore\n      0x04\n      add\n      tag_127\n      swap1\n      tag_128\n      jump\t// in\n    tag_127:\n      mload(0x40)\n      dup1\n      swap2\n      sub\n      swap1\n      revert\n    tag_126:\n        /* \"contracts/Practice.sol\":4567:4592  isUserExists(userAddress) */\n      tag_129\n        /* \"contracts/Practice.sol\":4580:4591  userAddress */\n      dup3\n        /* \"contracts/Practice.sol\":4567:4579  isUserExists */\n      tag_73\n        /* \"contracts/Practice.sol\":4567:4592  isUserExists(userAddress) */\n      jump\t// in\n    tag_129:\n        /* \"contracts/Practice.sol\":4566:4592  !isUserExists(userAddress) */\n      iszero\n        /* \"contracts/Practice.sol\":4558:4616  require(!isUserExists(userAddress), \"User already exists\") */\n      tag_130\n      jumpi\n      mload(0x40)\n      0x08c379a000000000000000000000000000000000000000000000000000000000\n      dup2\n      mstore\n      0x04\n      add\n      tag_131\n      swap1\n      tag_132\n      jump\t// in\n    tag_131:\n      mload(0x40)\n      dup1\n      swap2\n      sub\n      swap1\n      revert\n    tag_130:\n        /* \"contracts/Practice.sol\":4634:4663  isUserExists(referrerAddress) */\n      tag_133\n        /* \"contracts/Practice.sol\":4647:4662  referrerAddress */\n      dup2\n        /* \"contracts/Practice.sol\":4634:4646  isUserExists */\n      tag_73\n        /* \"contracts/Practice.sol\":4634:4663  isUserExists(referrerAddress) */\n      jump\t// in\n    tag_133:\n        /* \"contracts/Practice.sol\":4626:4691  require(isUserExists(referrerAddress), \"Referrer does not exist\") */\n      tag_134\n      jumpi\n      mload(0x40)\n      0x08c379a000000000000000000000000000000000000000000000000000000000\n      dup2\n      mstore\n      0x04\n      add\n      tag_135\n      swap1\n      tag_136\n      jump\t// in\n    tag_135:\n      mload(0x40)\n      dup1\n      swap2\n      sub\n      swap1\n      revert\n    tag_134:\n        /* \"contracts/Practice.sol\":4710:4721  uint32 size */\n      0x00\n        /* \"contracts/Practice.sol\":4774:4785  userAddress */\n      dup3\n        /* \"contracts/Practice.sol\":4762:4786  extcodesize(userAddress) */\n      extcodesize\n        /* \"contracts/Practice.sol\":4754:4786  size := extcodesize(userAddress) */\n      swap1\n      pop\n        /* \"contracts/Practice.sol\":4821:4822  0 */\n      0x00\n        /* \"contracts/Practice.sol\":4813:4817  size */\n      dup2\n        /* \"contracts/Practice.sol\":4813:4822  size == 0 */\n      0xffffffff\n      and\n      eq\n        /* \"contracts/Practice.sol\":4805:4847  require(size == 0, \"Cannot be a contract\") */\n      tag_137\n      jumpi\n      mload(0x40)\n      0x08c379a000000000000000000000000000000000000000000000000000000000\n      dup2\n      mstore\n      0x04\n      add\n      tag_138\n      swap1\n      tag_139\n      jump\t// in\n    tag_138:\n      mload(0x40)\n      dup1\n      swap2\n      sub\n      swap1\n      revert\n    tag_137:\n        /* \"contracts/Practice.sol\":4866:4883  User storage user */\n      0x00\n        /* \"contracts/Practice.sol\":4886:4891  users */\n      dup1\n        /* \"contracts/Practice.sol\":4886:4904  users[userAddress] */\n      0x00\n        /* \"contracts/Practice.sol\":4892:4903  userAddress */\n      dup6\n        /* \"contracts/Practice.sol\":4886:4904  users[userAddress] */\n      0xffffffffffffffffffffffffffffffffffffffff\n      and\n      0xffffffffffffffffffffffffffffffffffffffff\n      and\n      dup2\n      mstore\n      0x20\n      add\n      swap1\n      dup2\n      mstore\n      0x20\n      add\n      0x00\n      keccak256\n        /* \"contracts/Practice.sol\":4866:4904  User storage user = users[userAddress] */\n      swap1\n      pop\n        /* \"contracts/Practice.sol\":4924:4934  lastUserId */\n      sload(0x04)\n        /* \"contracts/Practice.sol\":4914:4918  user */\n      dup2\n        /* \"contracts/Practice.sol\":4914:4921  user.id */\n      0x00\n      add\n        /* \"contracts/Practice.sol\":4914:4934  user.id = lastUserId */\n      dup2\n      swap1\n      sstore\n      pop\n        /* \"contracts/Practice.sol\":4960:4975  referrerAddress */\n      dup3\n        /* \"contracts/Practice.sol\":4944:4948  user */\n      dup2\n        /* \"contracts/Practice.sol\":4944:4957  user.referrer */\n      0x01\n      add\n      0x00\n        /* \"contracts/Practice.sol\":4944:4975  user.referrer = referrerAddress */\n      0x0100\n      exp\n      dup2\n      sload\n      dup2\n      0xffffffffffffffffffffffffffffffffffffffff\n      mul\n      not\n      and\n      swap1\n      dup4\n      0xffffffffffffffffffffffffffffffffffffffff\n      and\n      mul\n      or\n      swap1\n      sstore\n      pop\n        /* \"contracts/Practice.sol\":5006:5007  0 */\n      0x00\n        /* \"contracts/Practice.sol\":4985:4989  user */\n      dup2\n        /* \"contracts/Practice.sol\":4985:5003  user.partnersCount */\n      0x02\n      add\n        /* \"contracts/Practice.sol\":4985:5007  user.partnersCount = 0 */\n      dup2\n      swap1\n      sstore\n      pop\n        /* \"contracts/Practice.sol\":5026:5031  users */\n      0x00\n        /* \"contracts/Practice.sol\":5026:5048  users[referrerAddress] */\n      dup1\n        /* \"contracts/Practice.sol\":5032:5047  referrerAddress */\n      dup5\n        /* \"contracts/Practice.sol\":5026:5048  users[referrerAddress] */\n      0xffffffffffffffffffffffffffffffffffffffff\n      and\n      0xffffffffffffffffffffffffffffffffffffffff\n      and\n      dup2\n      mstore\n      0x20\n      add\n      swap1\n      dup2\n      mstore\n      0x20\n      add\n      0x00\n      keccak256\n        /* \"contracts/Practice.sol\":5026:5062  users[referrerAddress].partnersCount */\n      0x02\n      add\n      0x00\n        /* \"contracts/Practice.sol\":5026:5064  users[referrerAddress].partnersCount++ */\n      dup2\n      sload\n      dup1\n      swap3\n      swap2\n      swap1\n      tag_140\n      swap1\n      tag_141\n      jump\t// in\n    tag_140:\n      swap2\n      swap1\n      pop\n      sstore\n      pop\n        /* \"contracts/Practice.sol\":5100:5111  userAddress */\n      dup4\n        /* \"contracts/Practice.sol\":5074:5085  idToAddress */\n      0x01\n        /* \"contracts/Practice.sol\":5074:5097  idToAddress[lastUserId] */\n      0x00\n        /* \"contracts/Practice.sol\":5086:5096  lastUserId */\n      sload(0x04)\n        /* \"contracts/Practice.sol\":5074:5097  idToAddress[lastUserId] */\n      dup2\n      mstore\n      0x20\n      add\n      swap1\n      dup2\n      mstore\n      0x20\n      add\n      0x00\n      keccak256\n      0x00\n        /* \"contracts/Practice.sol\":5074:5111  idToAddress[lastUserId] = userAddress */\n      0x0100\n      exp\n      dup2\n      sload\n      dup2\n      0xffffffffffffffffffffffffffffffffffffffff\n      mul\n      not\n      and\n      swap1\n      dup4\n      0xffffffffffffffffffffffffffffffffffffffff\n      and\n      mul\n      or\n      swap1\n      sstore\n      pop\n        /* \"contracts/Practice.sol\":5143:5154  userAddress */\n      dup4\n        /* \"contracts/Practice.sol\":5121:5128  userIds */\n      0x02\n        /* \"contracts/Practice.sol\":5121:5140  userIds[lastUserId] */\n      0x00\n        /* \"contracts/Practice.sol\":5129:5139  lastUserId */\n      sload(0x04)\n        /* \"contracts/Practice.sol\":5121:5140  userIds[lastUserId] */\n      dup2\n      mstore\n      0x20\n      add\n      swap1\n      dup2\n      mstore\n      0x20\n      add\n      0x00\n      keccak256\n      0x00\n        /* \"contracts/Practice.sol\":5121:5154  userIds[lastUserId] = userAddress */\n      0x0100\n      exp\n      dup2\n      sload\n      dup2\n      0xffffffffffffffffffffffffffffffffffffffff\n      mul\n      not\n      and\n      swap1\n      dup4\n      0xffffffffffffffffffffffffffffffffffffffff\n      and\n      mul\n      or\n      swap1\n      sstore\n      pop\n        /* \"contracts/Practice.sol\":5164:5174  lastUserId */\n      0x04\n      0x00\n        /* \"contracts/Practice.sol\":5164:5176  lastUserId++ */\n      dup2\n      sload\n      dup1\n      swap3\n      swap2\n      swap1\n      tag_142\n      swap1\n      tag_141\n      jump\t// in\n    tag_142:\n      swap2\n      swap1\n      pop\n      sstore\n      pop\n        /* \"contracts/Practice.sol\":5220:5224  true */\n      0x01\n        /* \"contracts/Practice.sol\":5195:5199  user */\n      dup2\n        /* \"contracts/Practice.sol\":5195:5214  user.activeX3Levels */\n      0x03\n      add\n        /* \"contracts/Practice.sol\":5195:5217  user.activeX3Levels[1] */\n      0x00\n        /* \"contracts/Practice.sol\":5215:5216  1 */\n      0x01\n        /* \"contracts/Practice.sol\":5195:5217  user.activeX3Levels[1] */\n      0xff\n      and\n      dup2\n      mstore\n      0x20\n      add\n      swap1\n      dup2\n      mstore\n      0x20\n      add\n      0x00\n      keccak256\n      0x00\n        /* \"contracts/Practice.sol\":5195:5224  user.activeX3Levels[1] = true */\n      0x0100\n      exp\n      dup2\n      sload\n      dup2\n      0xff\n      mul\n      not\n      and\n      swap1\n      dup4\n      iszero\n      iszero\n      mul\n      or\n      swap1\n      sstore\n      pop\n        /* \"contracts/Practice.sol\":5260:5264  true */\n      0x01\n        /* \"contracts/Practice.sol\":5235:5239  user */\n      dup2\n        /* \"contracts/Practice.sol\":5235:5254  user.activeX6Levels */\n      0x04\n      add\n        /* \"contracts/Practice.sol\":5235:5257  user.activeX6Levels[1] */\n      0x00\n        /* \"contracts/Practice.sol\":5255:5256  1 */\n      0x01\n        /* \"contracts/Practice.sol\":5235:5257  user.activeX6Levels[1] */\n      0xff\n      and\n      dup2\n      mstore\n      0x20\n      add\n      swap1\n      dup2\n      mstore\n      0x20\n      add\n      0x00\n      keccak256\n      0x00\n        /* \"contracts/Practice.sol\":5235:5264  user.activeX6Levels[1] = true */\n      0x0100\n      exp\n      dup2\n      sload\n      dup2\n      0xff\n      mul\n      not\n      and\n      swap1\n      dup4\n      iszero\n      iszero\n      mul\n      or\n      swap1\n      sstore\n      pop\n        /* \"contracts/Practice.sol\":5283:5305  address freeX3Referrer */\n      0x00\n        /* \"contracts/Practice.sol\":5308:5342  findFreeX3Referrer(userAddress, 1) */\n      tag_143\n        /* \"contracts/Practice.sol\":5327:5338  userAddress */\n      dup6\n        /* \"contracts/Practice.sol\":5340:5341  1 */\n      0x01\n        /* \"contracts/Practice.sol\":5308:5326  findFreeX3Referrer */\n      tag_123\n        /* \"contracts/Practice.sol\":5308:5342  findFreeX3Referrer(userAddress, 1) */\n      jump\t// in\n    tag_143:\n        /* \"contracts/Practice.sol\":5283:5342  address freeX3Referrer = findFreeX3Referrer(userAddress, 1) */\n      swap1\n      pop\n        /* \"contracts/Practice.sol\":5387:5401  freeX3Referrer */\n      dup1\n        /* \"contracts/Practice.sol\":5352:5356  user */\n      dup3\n        /* \"contracts/Practice.sol\":5352:5365  user.x3Matrix */\n      0x05\n      add\n        /* \"contracts/Practice.sol\":5352:5368  user.x3Matrix[1] */\n      0x00\n        /* \"contracts/Practice.sol\":5366:5367  1 */\n      0x01\n        /* \"contracts/Practice.sol\":5352:5368  user.x3Matrix[1] */\n      0xff\n      and\n      dup2\n      mstore\n      0x20\n      add\n      swap1\n      dup2\n      mstore\n      0x20\n      add\n      0x00\n      keccak256\n        /* \"contracts/Practice.sol\":5352:5384  user.x3Matrix[1].currentReferrer */\n      0x00\n      add\n      0x00\n        /* \"contracts/Practice.sol\":5352:5401  user.x3Matrix[1].currentReferrer = freeX3Referrer */\n      0x0100\n      exp\n      dup2\n      sload\n      dup2\n      0xffffffffffffffffffffffffffffffffffffffff\n      mul\n      not\n      and\n      swap1\n      dup4\n      0xffffffffffffffffffffffffffffffffffffffff\n      and\n      mul\n      or\n      swap1\n      sstore\n      pop\n        /* \"contracts/Practice.sol\":5411:5459  updateX3Referrer(userAddress, freeX3Referrer, 1) */\n      tag_144\n        /* \"contracts/Practice.sol\":5428:5439  userAddress */\n      dup6\n        /* \"contracts/Practice.sol\":5441:5455  freeX3Referrer */\n      dup3\n        /* \"contracts/Practice.sol\":5457:5458  1 */\n      0x01\n        /* \"contracts/Practice.sol\":5411:5427  updateX3Referrer */\n      tag_145\n        /* \"contracts/Practice.sol\":5411:5459  updateX3Referrer(userAddress, freeX3Referrer, 1) */\n      jump\t// in\n    tag_144:\n        /* \"contracts/Practice.sol\":5470:5538  updateX6Referrer(userAddress, findFreeX6Referrer(userAddress, 1), 1) */\n      tag_146\n        /* \"contracts/Practice.sol\":5487:5498  userAddress */\n      dup6\n        /* \"contracts/Practice.sol\":5500:5534  findFreeX6Referrer(userAddress, 1) */\n      tag_147\n        /* \"contracts/Practice.sol\":5519:5530  userAddress */\n      dup8\n        /* \"contracts/Practice.sol\":5532:5533  1 */\n      0x01\n        /* \"contracts/Practice.sol\":5500:5518  findFreeX6Referrer */\n      tag_112\n        /* \"contracts/Practice.sol\":5500:5534  findFreeX6Referrer(userAddress, 1) */\n      jump\t// in\n    tag_147:\n        /* \"contracts/Practice.sol\":5536:5537  1 */\n      0x01\n        /* \"contracts/Practice.sol\":5470:5486  updateX6Referrer */\n      tag_148\n        /* \"contracts/Practice.sol\":5470:5538  updateX6Referrer(userAddress, findFreeX6Referrer(userAddress, 1), 1) */\n      jump\t// in\n    tag_146:\n        /* \"contracts/Practice.sol\":5605:5609  user */\n      dup2\n        /* \"contracts/Practice.sol\":5605:5612  user.id */\n      0x00\n      add\n      sload\n        /* \"contracts/Practice.sol\":5588:5603  referrerAddress */\n      dup5\n        /* \"contracts/Practice.sol\":5562:5640  Registration(userAddress, referrerAddress, user.id, users[referrerAddress].id) */\n      0xffffffffffffffffffffffffffffffffffffffff\n      and\n        /* \"contracts/Practice.sol\":5575:5586  userAddress */\n      dup7\n        /* \"contracts/Practice.sol\":5562:5640  Registration(userAddress, referrerAddress, user.id, users[referrerAddress].id) */\n      0xffffffffffffffffffffffffffffffffffffffff\n      and\n      0x309bb360e8b69c23937ccc5fb01f9aeeead1c95a99604e175113ff82f2b1723a\n        /* \"contracts/Practice.sol\":5614:5619  users */\n      0x00\n        /* \"contracts/Practice.sol\":5614:5636  users[referrerAddress] */\n      dup1\n        /* \"contracts/Practice.sol\":5620:5635  referrerAddress */\n      dup10\n        /* \"contracts/Practice.sol\":5614:5636  users[referrerAddress] */\n      0xffffffffffffffffffffffffffffffffffffffff\n      and\n      0xffffffffffffffffffffffffffffffffffffffff\n      and\n      dup2\n      mstore\n      0x20\n      add\n      swap1\n      dup2\n      mstore\n      0x20\n      add\n      0x00\n      keccak256\n        /* \"contracts/Practice.sol\":5614:5639  users[referrerAddress].id */\n      0x00\n      add\n      sload\n        /* \"contracts/Practice.sol\":5562:5640  Registration(userAddress, referrerAddress, user.id, users[referrerAddress].id) */\n      mload(0x40)\n      tag_149\n      swap2\n      swap1\n      tag_48\n      jump\t// in\n    tag_149:\n      mload(0x40)\n      dup1\n      swap2\n      sub\n      swap1\n      log4\n        /* \"contracts/Practice.sol\":4476:5647  {... */\n      pop\n      pop\n      pop\n        /* \"contracts/Practice.sol\":4400:5647  function registration(address userAddress, address referrerAddress) private {... */\n      pop\n      pop\n      jump\t// out\n        /* \"contracts/Practice.sol\":15963:16117  function bytesToAddress(bytes memory bys) private pure returns (address addr) {... */\n    tag_34:\n        /* \"contracts/Practice.sol\":16027:16039  address addr */\n      0x00\n        /* \"contracts/Practice.sol\":16097:16099  20 */\n      0x14\n        /* \"contracts/Practice.sol\":16092:16095  bys */\n      dup3\n        /* \"contracts/Practice.sol\":16088:16100  add(bys, 20) */\n      add\n        /* \"contracts/Practice.sol\":16082:16101  mload(add(bys, 20)) */\n      mload\n        /* \"contracts/Practice.sol\":16074:16101  addr := mload(add(bys, 20)) */\n      swap1\n      pop\n        /* \"contracts/Practice.sol\":15963:16117  function bytesToAddress(bytes memory bys) private pure returns (address addr) {... */\n      swap2\n      swap1\n      pop\n      jump\t// out\n        /* \"contracts/Practice.sol\":14578:14731  function usersActiveX3Levels(address userAddress, uint8 level) public view returns(bool) {... */\n    tag_39:\n        /* \"contracts/Practice.sol\":14661:14665  bool */\n      0x00\n        /* \"contracts/Practice.sol\":14684:14689  users */\n      dup1\n        /* \"contracts/Practice.sol\":14684:14702  users[userAddress] */\n      0x00\n        /* \"contracts/Practice.sol\":14690:14701  userAddress */\n      dup5\n        /* \"contracts/Practice.sol\":14684:14702  users[userAddress] */\n      0xffffffffffffffffffffffffffffffffffffffff\n      and\n      0xffffffffffffffffffffffffffffffffffffffff\n      and\n      dup2\n      mstore\n      0x20\n      add\n      swap1\n      dup2\n      mstore\n      0x20\n      add\n      0x00\n      keccak256\n        /* \"contracts/Practice.sol\":14684:14717  users[userAddress].activeX3Levels */\n      0x03\n      add\n        /* \"contracts/Practice.sol\":14684:14724  users[userAddress].activeX3Levels[level] */\n      0x00\n        /* \"contracts/Practice.sol\":14718:14723  level */\n      dup4\n        /* \"contracts/Practice.sol\":14684:14724  users[userAddress].activeX3Levels[level] */\n      0xff\n      and\n      0xff\n      and\n      dup2\n      mstore\n      0x20\n      add\n      swap1\n      dup2\n      mstore\n      0x20\n      add\n      0x00\n      keccak256\n      0x00\n      swap1\n      sload\n      swap1\n      0x0100\n      exp\n      swap1\n      div\n      0xff\n      and\n        /* \"contracts/Practice.sol\":14677:14724  return users[userAddress].activeX3Levels[level] */\n      swap1\n      pop\n        /* \"contracts/Practice.sol\":14578:14731  function usersActiveX3Levels(address userAddress, uint8 level) public view returns(bool) {... */\n      swap3\n      swap2\n      pop\n      pop\n      jump\t// out\n        /* \"contracts/Practice.sol\":896:936  mapping(address => uint) public balances */\n    tag_46:\n      mstore(0x20, 0x03)\n      dup1\n      0x00\n      mstore\n      keccak256(0x00, 0x40)\n      0x00\n      swap2\n      pop\n      swap1\n      pop\n      sload\n      dup2\n      jump\t// out\n        /* \"contracts/Practice.sol\":716:753  uint8 public constant LAST_LEVEL = 12 */\n    tag_51:\n        /* \"contracts/Practice.sol\":751:753  12 */\n      0x0c\n        /* \"contracts/Practice.sol\":716:753  uint8 public constant LAST_LEVEL = 12 */\n      dup2\n      jump\t// out\n        /* \"contracts/Practice.sol\":802:845  mapping(uint => address) public idToAddress */\n    tag_58:\n      mstore(0x20, 0x01)\n      dup1\n      0x00\n      mstore\n      keccak256(0x00, 0x40)\n      0x00\n      swap2\n      pop\n      sload\n      swap1\n      0x0100\n      exp\n      swap1\n      div\n      0xffffffffffffffffffffffffffffffffffffffff\n      and\n      dup2\n      jump\t// out\n        /* \"contracts/Practice.sol\":943:969  uint public lastUserId = 2 */\n    tag_63:\n      sload(0x04)\n      dup2\n      jump\t// out\n        /* \"contracts/Practice.sol\":851:890  mapping(uint => address) public userIds */\n    tag_68:\n      mstore(0x20, 0x02)\n      dup1\n      0x00\n      mstore\n      keccak256(0x00, 0x40)\n      0x00\n      swap2\n      pop\n      sload\n      swap1\n      0x0100\n      exp\n      swap1\n      div\n      0xffffffffffffffffffffffffffffffffffffffff\n      and\n      dup2\n      jump\t// out\n        /* \"contracts/Practice.sol\":15845:15953  function isUserExists(address user) public view returns (bool) {... */\n    tag_73:\n        /* \"contracts/Practice.sol\":15902:15906  bool */\n      0x00\n        /* \"contracts/Practice.sol\":15944:15945  0 */\n      dup1\n        /* \"contracts/Practice.sol\":15926:15931  users */\n      0x00\n        /* \"contracts/Practice.sol\":15926:15937  users[user] */\n      dup1\n        /* \"contracts/Practice.sol\":15932:15936  user */\n      dup5\n        /* \"contracts/Practice.sol\":15926:15937  users[user] */\n      0xffffffffffffffffffffffffffffffffffffffff\n      and\n      0xffffffffffffffffffffffffffffffffffffffff\n      and\n      dup2\n      mstore\n      0x20\n      add\n      swap1\n      dup2\n      mstore\n      0x20\n      add\n      0x00\n      keccak256\n        /* \"contracts/Practice.sol\":15926:15940  users[user].id */\n      0x00\n      add\n      sload\n        /* \"contracts/Practice.sol\":15926:15945  users[user].id != 0 */\n      eq\n      iszero\n        /* \"contracts/Practice.sol\":15918:15946  return (users[user].id != 0) */\n      swap1\n      pop\n        /* \"contracts/Practice.sol\":15845:15953  function isUserExists(address user) public view returns (bool) {... */\n      swap2\n      swap1\n      pop\n      jump\t// out\n        /* \"contracts/Practice.sol\":2702:2827  function registrationExt(address referrerAddress) external payable {... */\n    tag_77:\n        /* \"contracts/Practice.sol\":2779:2820  registration(msg.sender, referrerAddress) */\n      tag_154\n        /* \"contracts/Practice.sol\":2792:2802  msg.sender */\n      caller\n        /* \"contracts/Practice.sol\":2804:2819  referrerAddress */\n      dup3\n        /* \"contracts/Practice.sol\":2779:2791  registration */\n      tag_26\n        /* \"contracts/Practice.sol\":2779:2820  registration(msg.sender, referrerAddress) */\n      jump\t// in\n    tag_154:\n        /* \"contracts/Practice.sol\":2702:2827  function registrationExt(address referrerAddress) external payable {... */\n      pop\n      jump\t// out\n        /* \"contracts/Practice.sol\":14896:15276  function usersX3Matrix(address userAddress, uint8 level) public view returns(address, address[] memory, bool, uint) {... */\n    tag_81:\n        /* \"contracts/Practice.sol\":14973:14980  address */\n      0x00\n        /* \"contracts/Practice.sol\":14982:14998  address[] memory */\n      0x60\n        /* \"contracts/Practice.sol\":15000:15004  bool */\n      0x00\n        /* \"contracts/Practice.sol\":15006:15010  uint */\n      dup1\n        /* \"contracts/Practice.sol\":15030:15035  users */\n      0x00\n        /* \"contracts/Practice.sol\":15030:15048  users[userAddress] */\n      dup1\n        /* \"contracts/Practice.sol\":15036:15047  userAddress */\n      dup8\n        /* \"contracts/Practice.sol\":15030:15048  users[userAddress] */\n      0xffffffffffffffffffffffffffffffffffffffff\n      and\n      0xffffffffffffffffffffffffffffffffffffffff\n      and\n      dup2\n      mstore\n      0x20\n      add\n      swap1\n      dup2\n      mstore\n      0x20\n      add\n      0x00\n      keccak256\n        /* \"contracts/Practice.sol\":15030:15057  users[userAddress].x3Matrix */\n      0x05\n      add\n        /* \"contracts/Practice.sol\":15030:15064  users[userAddress].x3Matrix[level] */\n      0x00\n        /* \"contracts/Practice.sol\":15058:15063  level */\n      dup7\n        /* \"contracts/Practice.sol\":15030:15064  users[userAddress].x3Matrix[level] */\n      0xff\n      and\n      0xff\n      and\n      dup2\n      mstore\n      0x20\n      add\n      swap1\n      dup2\n      mstore\n      0x20\n      add\n      0x00\n      keccak256\n        /* \"contracts/Practice.sol\":15030:15080  users[userAddress].x3Matrix[level].currentReferrer */\n      0x00\n      add\n      0x00\n      swap1\n      sload\n      swap1\n      0x0100\n      exp\n      swap1\n      div\n      0xffffffffffffffffffffffffffffffffffffffff\n      and\n        /* \"contracts/Practice.sol\":15098:15103  users */\n      0x00\n        /* \"contracts/Practice.sol\":15098:15116  users[userAddress] */\n      dup1\n        /* \"contracts/Practice.sol\":15104:15115  userAddress */\n      dup9\n        /* \"contracts/Practice.sol\":15098:15116  users[userAddress] */\n      0xffffffffffffffffffffffffffffffffffffffff\n      and\n      0xffffffffffffffffffffffffffffffffffffffff\n      and\n      dup2\n      mstore\n      0x20\n      add\n      swap1\n      dup2\n      mstore\n      0x20\n      add\n      0x00\n      keccak256\n        /* \"contracts/Practice.sol\":15098:15125  users[userAddress].x3Matrix */\n      0x05\n      add\n        /* \"contracts/Practice.sol\":15098:15132  users[userAddress].x3Matrix[level] */\n      0x00\n        /* \"contracts/Practice.sol\":15126:15131  level */\n      dup8\n        /* \"contracts/Practice.sol\":15098:15132  users[userAddress].x3Matrix[level] */\n      0xff\n      and\n      0xff\n      and\n      dup2\n      mstore\n      0x20\n      add\n      swap1\n      dup2\n      mstore\n      0x20\n      add\n      0x00\n      keccak256\n        /* \"contracts/Practice.sol\":15098:15142  users[userAddress].x3Matrix[level].referrals */\n      0x01\n      add\n        /* \"contracts/Practice.sol\":15160:15165  users */\n      0x00\n        /* \"contracts/Practice.sol\":15160:15178  users[userAddress] */\n      dup1\n        /* \"contracts/Practice.sol\":15166:15177  userAddress */\n      dup10\n        /* \"contracts/Practice.sol\":15160:15178  users[userAddress] */\n      0xffffffffffffffffffffffffffffffffffffffff\n      and\n      0xffffffffffffffffffffffffffffffffffffffff\n      and\n      dup2\n      mstore\n      0x20\n      add\n      swap1\n      dup2\n      mstore\n      0x20\n      add\n      0x00\n      keccak256\n        /* \"contracts/Practice.sol\":15160:15187  users[userAddress].x3Matrix */\n      0x05\n      add\n        /* \"contracts/Practice.sol\":15160:15194  users[userAddress].x3Matrix[level] */\n      0x00\n        /* \"contracts/Practice.sol\":15188:15193  level */\n      dup9\n        /* \"contracts/Practice.sol\":15160:15194  users[userAddress].x3Matrix[level] */\n      0xff\n      and\n      0xff\n      and\n      dup2\n      mstore\n      0x20\n      add\n      swap1\n      dup2\n      mstore\n      0x20\n      add\n      0x00\n      keccak256\n        /* \"contracts/Practice.sol\":15160:15202  users[userAddress].x3Matrix[level].blocked */\n      0x02\n      add\n      0x00\n      swap1\n      sload\n      swap1\n      0x0100\n      exp\n      swap1\n      div\n      0xff\n      and\n        /* \"contracts/Practice.sol\":15220:15225  users */\n      0x00\n        /* \"contracts/Practice.sol\":15220:15238  users[userAddress] */\n      dup1\n        /* \"contracts/Practice.sol\":15226:15237  userAddress */\n      dup11\n        /* \"contracts/Practice.sol\":15220:15238  users[userAddress] */\n      0xffffffffffffffffffffffffffffffffffffffff\n      and\n      0xffffffffffffffffffffffffffffffffffffffff\n      and\n      dup2\n      mstore\n      0x20\n      add\n      swap1\n      dup2\n      mstore\n      0x20\n      add\n      0x00\n      keccak256\n        /* \"contracts/Practice.sol\":15220:15247  users[userAddress].x3Matrix */\n      0x05\n      add\n        /* \"contracts/Practice.sol\":15220:15254  users[userAddress].x3Matrix[level] */\n      0x00\n        /* \"contracts/Practice.sol\":15248:15253  level */\n      dup10\n        /* \"contracts/Practice.sol\":15220:15254  users[userAddress].x3Matrix[level] */\n      0xff\n      and\n      0xff\n      and\n      dup2\n      mstore\n      0x20\n      add\n      swap1\n      dup2\n      mstore\n      0x20\n      add\n      0x00\n      keccak256\n        /* \"contracts/Practice.sol\":15220:15268  users[userAddress].x3Matrix[level].reinvestCount */\n      0x03\n      add\n      sload\n        /* \"contracts/Practice.sol\":15022:15269  return (users[userAddress].x3Matrix[level].currentReferrer,... */\n      dup3\n      dup1\n      sload\n      dup1\n      0x20\n      mul\n      0x20\n      add\n      mload(0x40)\n      swap1\n      dup2\n      add\n      0x40\n      mstore\n      dup1\n      swap3\n      swap2\n      swap1\n      dup2\n      dup2\n      mstore\n      0x20\n      add\n      dup3\n      dup1\n      sload\n      dup1\n      iszero\n      tag_156\n      jumpi\n      0x20\n      mul\n      dup3\n      add\n      swap2\n      swap1\n      0x00\n      mstore\n      keccak256(0x00, 0x20)\n      swap1\n    tag_157:\n      dup2\n      0x00\n      swap1\n      sload\n      swap1\n      0x0100\n      exp\n      swap1\n      div\n      0xffffffffffffffffffffffffffffffffffffffff\n      and\n      0xffffffffffffffffffffffffffffffffffffffff\n      and\n      dup2\n      mstore\n      0x20\n      add\n      swap1\n      0x01\n      add\n      swap1\n      dup1\n      dup4\n      gt\n      tag_157\n      jumpi\n    tag_156:\n      pop\n      pop\n      pop\n      pop\n      pop\n      swap3\n      pop\n      swap4\n      pop\n      swap4\n      pop\n      swap4\n      pop\n      swap4\n      pop\n        /* \"contracts/Practice.sol\":14896:15276  function usersX3Matrix(address userAddress, uint8 level) public view returns(address, address[] memory, bool, uint) {... */\n      swap3\n      swap6\n      swap2\n      swap5\n      pop\n      swap3\n      pop\n      jump\t// out\n        /* \"contracts/Practice.sol\":975:995  address public owner */\n    tag_86:\n      0x05\n      0x00\n      swap1\n      sload\n      swap1\n      0x0100\n      exp\n      swap1\n      div\n      0xffffffffffffffffffffffffffffffffffffffff\n      and\n      dup2\n      jump\t// out\n        /* \"contracts/Practice.sol\":15286:15839  function usersX6Matrix(address userAddress, uint8 level) public view returns(address, address[] memory, address[] memory, bool, uint, address) {... */\n    tag_91:\n        /* \"contracts/Practice.sol\":15363:15370  address */\n      0x00\n        /* \"contracts/Practice.sol\":15372:15388  address[] memory */\n      0x60\n        /* \"contracts/Practice.sol\":15390:15406  address[] memory */\n      dup1\n        /* \"contracts/Practice.sol\":15408:15412  bool */\n      0x00\n        /* \"contracts/Practice.sol\":15414:15418  uint */\n      dup1\n        /* \"contracts/Practice.sol\":15420:15427  address */\n      0x00\n        /* \"contracts/Practice.sol\":15447:15452  users */\n      dup1\n        /* \"contracts/Practice.sol\":15447:15465  users[userAddress] */\n      0x00\n        /* \"contracts/Practice.sol\":15453:15464  userAddress */\n      dup10\n        /* \"contracts/Practice.sol\":15447:15465  users[userAddress] */\n      0xffffffffffffffffffffffffffffffffffffffff\n      and\n      0xffffffffffffffffffffffffffffffffffffffff\n      and\n      dup2\n      mstore\n      0x20\n      add\n      swap1\n      dup2\n      mstore\n      0x20\n      add\n      0x00\n      keccak256\n        /* \"contracts/Practice.sol\":15447:15474  users[userAddress].x6Matrix */\n      0x06\n      add\n        /* \"contracts/Practice.sol\":15447:15481  users[userAddress].x6Matrix[level] */\n      0x00\n        /* \"contracts/Practice.sol\":15475:15480  level */\n      dup9\n        /* \"contracts/Practice.sol\":15447:15481  users[userAddress].x6Matrix[level] */\n      0xff\n      and\n      0xff\n      and\n      dup2\n      mstore\n      0x20\n      add\n      swap1\n      dup2\n      mstore\n      0x20\n      add\n      0x00\n      keccak256\n        /* \"contracts/Practice.sol\":15447:15497  users[userAddress].x6Matrix[level].currentReferrer */\n      0x00\n      add\n      0x00\n      swap1\n      sload\n      swap1\n      0x0100\n      exp\n      swap1\n      div\n      0xffffffffffffffffffffffffffffffffffffffff\n      and\n        /* \"contracts/Practice.sol\":15515:15520  users */\n      0x00\n        /* \"contracts/Practice.sol\":15515:15533  users[userAddress] */\n      dup1\n        /* \"contracts/Practice.sol\":15521:15532  userAddress */\n      dup11\n        /* \"contracts/Practice.sol\":15515:15533  users[userAddress] */\n      0xffffffffffffffffffffffffffffffffffffffff\n      and\n      0xffffffffffffffffffffffffffffffffffffffff\n      and\n      dup2\n      mstore\n      0x20\n      add\n      swap1\n      dup2\n      mstore\n      0x20\n      add\n      0x00\n      keccak256\n        /* \"contracts/Practice.sol\":15515:15542  users[userAddress].x6Matrix */\n      0x06\n      add\n        /* \"contracts/Practice.sol\":15515:15549  users[userAddress].x6Matrix[level] */\n      0x00\n        /* \"contracts/Practice.sol\":15543:15548  level */\n      dup10\n        /* \"contracts/Practice.sol\":15515:15549  users[userAddress].x6Matrix[level] */\n      0xff\n      and\n      0xff\n      and\n      dup2\n      mstore\n      0x20\n      add\n      swap1\n      dup2\n      mstore\n      0x20\n      add\n      0x00\n      keccak256\n        /* \"contracts/Practice.sol\":15515:15569  users[userAddress].x6Matrix[level].firstLevelReferrals */\n      0x01\n      add\n        /* \"contracts/Practice.sol\":15587:15592  users */\n      0x00\n        /* \"contracts/Practice.sol\":15587:15605  users[userAddress] */\n      dup1\n        /* \"contracts/Practice.sol\":15593:15604  userAddress */\n      dup12\n        /* \"contracts/Practice.sol\":15587:15605  users[userAddress] */\n      0xffffffffffffffffffffffffffffffffffffffff\n      and\n      0xffffffffffffffffffffffffffffffffffffffff\n      and\n      dup2\n      mstore\n      0x20\n      add\n      swap1\n      dup2\n      mstore\n      0x20\n      add\n      0x00\n      keccak256\n        /* \"contracts/Practice.sol\":15587:15614  users[userAddress].x6Matrix */\n      0x06\n      add\n        /* \"contracts/Practice.sol\":15587:15621  users[userAddress].x6Matrix[level] */\n      0x00\n        /* \"contracts/Practice.sol\":15615:15620  level */\n      dup11\n        /* \"contracts/Practice.sol\":15587:15621  users[userAddress].x6Matrix[level] */\n      0xff\n      and\n      0xff\n      and\n      dup2\n      mstore\n      0x20\n      add\n      swap1\n      dup2\n      mstore\n      0x20\n      add\n      0x00\n      keccak256\n        /* \"contracts/Practice.sol\":15587:15642  users[userAddress].x6Matrix[level].secondLevelReferrals */\n      0x02\n      add\n        /* \"contracts/Practice.sol\":15660:15665  users */\n      0x00\n        /* \"contracts/Practice.sol\":15660:15678  users[userAddress] */\n      dup1\n        /* \"contracts/Practice.sol\":15666:15677  userAddress */\n      dup13\n        /* \"contracts/Practice.sol\":15660:15678  users[userAddress] */\n      0xffffffffffffffffffffffffffffffffffffffff\n      and\n      0xffffffffffffffffffffffffffffffffffffffff\n      and\n      dup2\n      mstore\n      0x20\n      add\n      swap1\n      dup2\n      mstore\n      0x20\n      add\n      0x00\n      keccak256\n        /* \"contracts/Practice.sol\":15660:15687  users[userAddress].x6Matrix */\n      0x06\n      add\n        /* \"contracts/Practice.sol\":15660:15694  users[userAddress].x6Matrix[level] */\n      0x00\n        /* \"contracts/Practice.sol\":15688:15693  level */\n      dup12\n        /* \"contracts/Practice.sol\":15660:15694  users[userAddress].x6Matrix[level] */\n      0xff\n      and\n      0xff\n      and\n      dup2\n      mstore\n      0x20\n      add\n      swap1\n      dup2\n      mstore\n      0x20\n      add\n      0x00\n      keccak256\n        /* \"contracts/Practice.sol\":15660:15702  users[userAddress].x6Matrix[level].blocked */\n      0x03\n      add\n      0x00\n      swap1\n      sload\n      swap1\n      0x0100\n      exp\n      swap1\n      div\n      0xff\n      and\n        /* \"contracts/Practice.sol\":15720:15725  users */\n      0x00\n        /* \"contracts/Practice.sol\":15720:15738  users[userAddress] */\n      dup1\n        /* \"contracts/Practice.sol\":15726:15737  userAddress */\n      dup14\n        /* \"contracts/Practice.sol\":15720:15738  users[userAddress] */\n      0xffffffffffffffffffffffffffffffffffffffff\n      and\n      0xffffffffffffffffffffffffffffffffffffffff\n      and\n      dup2\n      mstore\n      0x20\n      add\n      swap1\n      dup2\n      mstore\n      0x20\n      add\n      0x00\n      keccak256\n        /* \"contracts/Practice.sol\":15720:15747  users[userAddress].x6Matrix */\n      0x06\n      add\n        /* \"contracts/Practice.sol\":15720:15754  users[userAddress].x6Matrix[level] */\n      0x00\n        /* \"contracts/Practice.sol\":15748:15753  level */\n      dup13\n        /* \"contracts/Practice.sol\":15720:15754  users[userAddress].x6Matrix[level] */\n      0xff\n      and\n      0xff\n      and\n      dup2\n      mstore\n      0x20\n      add\n      swap1\n      dup2\n      mstore\n      0x20\n      add\n      0x00\n      keccak256\n        /* \"contracts/Practice.sol\":15720:15768  users[userAddress].x6Matrix[level].reinvestCount */\n      0x04\n      add\n      sload\n        /* \"contracts/Practice.sol\":15786:15791  users */\n      0x00\n        /* \"contracts/Practice.sol\":15786:15804  users[userAddress] */\n      dup1\n        /* \"contracts/Practice.sol\":15792:15803  userAddress */\n      dup15\n        /* \"contracts/Practice.sol\":15786:15804  users[userAddress] */\n      0xffffffffffffffffffffffffffffffffffffffff\n      and\n      0xffffffffffffffffffffffffffffffffffffffff\n      and\n      dup2\n      mstore\n      0x20\n      add\n      swap1\n      dup2\n      mstore\n      0x20\n      add\n      0x00\n      keccak256\n        /* \"contracts/Practice.sol\":15786:15813  users[userAddress].x6Matrix */\n      0x06\n      add\n        /* \"contracts/Practice.sol\":15786:15820  users[userAddress].x6Matrix[level] */\n      0x00\n        /* \"contracts/Practice.sol\":15814:15819  level */\n      dup14\n        /* \"contracts/Practice.sol\":15786:15820  users[userAddress].x6Matrix[level] */\n      0xff\n      and\n      0xff\n      and\n      dup2\n      mstore\n      0x20\n      add\n      swap1\n      dup2\n      mstore\n      0x20\n      add\n      0x00\n      keccak256\n        /* \"contracts/Practice.sol\":15786:15831  users[userAddress].x6Matrix[level].closedPart */\n      0x05\n      add\n      0x00\n      swap1\n      sload\n      swap1\n      0x0100\n      exp\n      swap1\n      div\n      0xffffffffffffffffffffffffffffffffffffffff\n      and\n        /* \"contracts/Practice.sol\":15439:15832  return (users[userAddress].x6Matrix[level].currentReferrer,... */\n      dup5\n      dup1\n      sload\n      dup1\n      0x20\n      mul\n      0x20\n      add\n      mload(0x40)\n      swap1\n      dup2\n      add\n      0x40\n      mstore\n      dup1\n      swap3\n      swap2\n      swap1\n      dup2\n      dup2\n      mstore\n      0x20\n      add\n      dup3\n      dup1\n      sload\n      dup1\n      iszero\n      tag_159\n      jumpi\n      0x20\n      mul\n      dup3\n      add\n      swap2\n      swap1\n      0x00\n      mstore\n      keccak256(0x00, 0x20)\n      swap1\n    tag_160:\n      dup2\n      0x00\n      swap1\n      sload\n      swap1\n      0x0100\n      exp\n      swap1\n      div\n      0xffffffffffffffffffffffffffffffffffffffff\n      and\n      0xffffffffffffffffffffffffffffffffffffffff\n      and\n      dup2\n      mstore\n      0x20\n      add\n      swap1\n      0x01\n      add\n      swap1\n      dup1\n      dup4\n      gt\n      tag_160\n      jumpi\n    tag_159:\n      pop\n      pop\n      pop\n      pop\n      pop\n      swap5\n      pop\n      dup4\n      dup1\n      sload\n      dup1\n      0x20\n      mul\n      0x20\n      add\n      mload(0x40)\n      swap1\n      dup2\n      add\n      0x40\n      mstore\n      dup1\n      swap3\n      swap2\n      swap1\n      dup2\n      dup2\n      mstore\n      0x20\n      add\n      dup3\n      dup1\n      sload\n      dup1\n      iszero\n      tag_161\n      jumpi\n      0x20\n      mul\n      dup3\n      add\n      swap2\n      swap1\n      0x00\n      mstore\n      keccak256(0x00, 0x20)\n      swap1\n    tag_162:\n      dup2\n      0x00\n      swap1\n      sload\n      swap1\n      0x0100\n      exp\n      swap1\n      div\n      0xffffffffffffffffffffffffffffffffffffffff\n      and\n      0xffffffffffffffffffffffffffffffffffffffff\n      and\n      dup2\n      mstore\n      0x20\n      add\n      swap1\n      0x01\n      add\n      swap1\n      dup1\n      dup4\n      gt\n      tag_162\n      jumpi\n    tag_161:\n      pop\n      pop\n      pop\n      pop\n      pop\n      swap4\n      pop\n      swap6\n      pop\n      swap6\n      pop\n      swap6\n      pop\n      swap6\n      pop\n      swap6\n      pop\n      swap6\n      pop\n        /* \"contracts/Practice.sol\":15286:15839  function usersX6Matrix(address userAddress, uint8 level) public view returns(address, address[] memory, address[] memory, bool, uint, address) {... */\n      swap3\n      swap6\n      pop\n      swap3\n      swap6\n      pop\n      swap3\n      swap6\n      jump\t// out\n        /* \"contracts/Practice.sol\":759:796  mapping(address => User) public users */\n    tag_97:\n      mstore(0x20, 0x00)\n      dup1\n      0x00\n      mstore\n      keccak256(0x00, 0x40)\n      0x00\n      swap2\n      pop\n      swap1\n      pop\n      dup1\n      0x00\n      add\n      sload\n      swap1\n      dup1\n      0x01\n      add\n      0x00\n      swap1\n      sload\n      swap1\n      0x0100\n      exp\n      swap1\n      div\n      0xffffffffffffffffffffffffffffffffffffffff\n      and\n      swap1\n      dup1\n      0x02\n      add\n      sload\n      swap1\n      pop\n      dup4\n      jump\t// out\n        /* \"contracts/Practice.sol\":14737:14890  function usersActiveX6Levels(address userAddress, uint8 level) public view returns(bool) {... */\n    tag_103:\n        /* \"contracts/Practice.sol\":14820:14824  bool */\n      0x00\n        /* \"contracts/Practice.sol\":14843:14848  users */\n      dup1\n        /* \"contracts/Practice.sol\":14843:14861  users[userAddress] */\n      0x00\n        /* \"contracts/Practice.sol\":14849:14860  userAddress */\n      dup5\n        /* \"contracts/Practice.sol\":14843:14861  users[userAddress] */\n      0xffffffffffffffffffffffffffffffffffffffff\n      and\n      0xffffffffffffffffffffffffffffffffffffffff\n      and\n      dup2\n      mstore\n      0x20\n      add\n      swap1\n      dup2\n      mstore\n      0x20\n      add\n      0x00\n      keccak256\n        /* \"contracts/Practice.sol\":14843:14876  users[userAddress].activeX6Levels */\n      0x04\n      add\n        /* \"contracts/Practice.sol\":14843:14883  users[userAddress].activeX6Levels[level] */\n      0x00\n        /* \"contracts/Practice.sol\":14877:14882  level */\n      dup4\n        /* \"contracts/Practice.sol\":14843:14883  users[userAddress].activeX6Levels[level] */\n      0xff\n      and\n      0xff\n      and\n      dup2\n      mstore\n      0x20\n      add\n      swap1\n      dup2\n      mstore\n      0x20\n      add\n      0x00\n      keccak256\n      0x00\n      swap1\n      sload\n      swap1\n      0x0100\n      exp\n      swap1\n      div\n      0xff\n      and\n        /* \"contracts/Practice.sol\":14836:14883  return users[userAddress].activeX6Levels[level] */\n      swap1\n      pop\n        /* \"contracts/Practice.sol\":14737:14890  function usersActiveX6Levels(address userAddress, uint8 level) public view returns(bool) {... */\n      swap3\n      swap2\n      pop\n      pop\n      jump\t// out\n        /* \"contracts/Practice.sol\":2837:4386  function buyNewLevel(uint8 matrix, uint8 level) external payable {... */\n    tag_108:\n        /* \"contracts/Practice.sol\":2920:2944  isUserExists(msg.sender) */\n      tag_165\n        /* \"contracts/Practice.sol\":2933:2943  msg.sender */\n      caller\n        /* \"contracts/Practice.sol\":2920:2932  isUserExists */\n      tag_73\n        /* \"contracts/Practice.sol\":2920:2944  isUserExists(msg.sender) */\n      jump\t// in\n    tag_165:\n        /* \"contracts/Practice.sol\":2912:2985  require(isUserExists(msg.sender), \"User does not exist. Register first.\") */\n      tag_166\n      jumpi\n      mload(0x40)\n      0x08c379a000000000000000000000000000000000000000000000000000000000\n      dup2\n      mstore\n      0x04\n      add\n      tag_167\n      swap1\n      tag_168\n      jump\t// in\n    tag_167:\n      mload(0x40)\n      dup1\n      swap2\n      sub\n      swap1\n      revert\n    tag_166:\n        /* \"contracts/Practice.sol\":3013:3014  1 */\n      0x01\n        /* \"contracts/Practice.sol\":3003:3009  matrix */\n      dup3\n        /* \"contracts/Practice.sol\":3003:3014  matrix == 1 */\n      0xff\n      and\n      eq\n        /* \"contracts/Practice.sol\":3003:3029  matrix == 1 || matrix == 2 */\n      dup1\n      tag_169\n      jumpi\n      pop\n        /* \"contracts/Practice.sol\":3028:3029  2 */\n      0x02\n        /* \"contracts/Practice.sol\":3018:3024  matrix */\n      dup3\n        /* \"contracts/Practice.sol\":3018:3029  matrix == 2 */\n      0xff\n      and\n      eq\n        /* \"contracts/Practice.sol\":3003:3029  matrix == 1 || matrix == 2 */\n    tag_169:\n        /* \"contracts/Practice.sol\":2995:3048  require(matrix == 1 || matrix == 2, \"Invalid matrix\") */\n      tag_170\n      jumpi\n      mload(0x40)\n      0x08c379a000000000000000000000000000000000000000000000000000000000\n      dup2\n      mstore\n      0x04\n      add\n      tag_171\n      swap1\n      tag_172\n      jump\t// in\n    tag_171:\n      mload(0x40)\n      dup1\n      swap2\n      sub\n      swap1\n      revert\n    tag_170:\n        /* \"contracts/Practice.sol\":3079:3089  levelPrice */\n      0x06\n        /* \"contracts/Practice.sol\":3079:3096  levelPrice[level] */\n      0x00\n        /* \"contracts/Practice.sol\":3090:3095  level */\n      dup3\n        /* \"contracts/Practice.sol\":3079:3096  levelPrice[level] */\n      0xff\n      and\n      0xff\n      and\n      dup2\n      mstore\n      0x20\n      add\n      swap1\n      dup2\n      mstore\n      0x20\n      add\n      0x00\n      keccak256\n      sload\n        /* \"contracts/Practice.sol\":3066:3075  msg.value */\n      callvalue\n        /* \"contracts/Practice.sol\":3066:3096  msg.value == levelPrice[level] */\n      eq\n        /* \"contracts/Practice.sol\":3058:3114  require(msg.value == levelPrice[level], \"Invalid price\") */\n      tag_173\n      jumpi\n      mload(0x40)\n      0x08c379a000000000000000000000000000000000000000000000000000000000\n      dup2\n      mstore\n      0x04\n      add\n      tag_174\n      swap1\n      tag_175\n      jump\t// in\n    tag_174:\n      mload(0x40)\n      dup1\n      swap2\n      sub\n      swap1\n      revert\n    tag_173:\n        /* \"contracts/Practice.sol\":3140:3141  1 */\n      0x01\n        /* \"contracts/Practice.sol\":3132:3137  level */\n      dup2\n        /* \"contracts/Practice.sol\":3132:3141  level > 1 */\n      0xff\n      and\n      gt\n        /* \"contracts/Practice.sol\":3132:3164  level > 1 && level <= LAST_LEVEL */\n      dup1\n      iszero\n      tag_176\n      jumpi\n      pop\n        /* \"contracts/Practice.sol\":751:753  12 */\n      0x0c\n        /* \"contracts/Practice.sol\":3145:3164  level <= LAST_LEVEL */\n      0xff\n      and\n        /* \"contracts/Practice.sol\":3145:3150  level */\n      dup2\n        /* \"contracts/Practice.sol\":3145:3164  level <= LAST_LEVEL */\n      0xff\n      and\n      gt\n      iszero\n        /* \"contracts/Practice.sol\":3132:3164  level > 1 && level <= LAST_LEVEL */\n    tag_176:\n        /* \"contracts/Practice.sol\":3124:3182  require(level > 1 && level <= LAST_LEVEL, \"Invalid level\") */\n      tag_177\n      jumpi\n      mload(0x40)\n      0x08c379a000000000000000000000000000000000000000000000000000000000\n      dup2\n      mstore\n      0x04\n      add\n      tag_178\n      swap1\n      tag_179\n      jump\t// in\n    tag_178:\n      mload(0x40)\n      dup1\n      swap2\n      sub\n      swap1\n      revert\n    tag_177:\n        /* \"contracts/Practice.sol\":3207:3208  1 */\n      0x01\n        /* \"contracts/Practice.sol\":3197:3203  matrix */\n      dup3\n        /* \"contracts/Practice.sol\":3197:3208  matrix == 1 */\n      0xff\n      and\n      sub\n        /* \"contracts/Practice.sol\":3193:4380  if (matrix == 1) {... */\n      tag_180\n      jumpi\n        /* \"contracts/Practice.sol\":3233:3238  users */\n      0x00\n        /* \"contracts/Practice.sol\":3233:3250  users[msg.sender] */\n      dup1\n        /* \"contracts/Practice.sol\":3239:3249  msg.sender */\n      caller\n        /* \"contracts/Practice.sol\":3233:3250  users[msg.sender] */\n      0xffffffffffffffffffffffffffffffffffffffff\n      and\n      0xffffffffffffffffffffffffffffffffffffffff\n      and\n      dup2\n      mstore\n      0x20\n      add\n      swap1\n      dup2\n      mstore\n      0x20\n      add\n      0x00\n      keccak256\n        /* \"contracts/Practice.sol\":3233:3265  users[msg.sender].activeX3Levels */\n      0x03\n      add\n        /* \"contracts/Practice.sol\":3233:3272  users[msg.sender].activeX3Levels[level] */\n      0x00\n        /* \"contracts/Practice.sol\":3266:3271  level */\n      dup3\n        /* \"contracts/Practice.sol\":3233:3272  users[msg.sender].activeX3Levels[level] */\n      0xff\n      and\n      0xff\n      and\n      dup2\n      mstore\n      0x20\n      add\n      swap1\n      dup2\n      mstore\n      0x20\n      add\n      0x00\n      keccak256\n      0x00\n      swap1\n      sload\n      swap1\n      0x0100\n      exp\n      swap1\n      div\n      0xff\n      and\n        /* \"contracts/Practice.sol\":3232:3272  !users[msg.sender].activeX3Levels[level] */\n      iszero\n        /* \"contracts/Practice.sol\":3224:3300  require(!users[msg.sender].activeX3Levels[level], \"Level already activated\") */\n      tag_181\n      jumpi\n      mload(0x40)\n      0x08c379a000000000000000000000000000000000000000000000000000000000\n      dup2\n      mstore\n      0x04\n      add\n      tag_182\n      swap1\n      tag_183\n      jump\t// in\n    tag_182:\n      mload(0x40)\n      dup1\n      swap2\n      sub\n      swap1\n      revert\n    tag_181:\n        /* \"contracts/Practice.sol\":3319:3324  users */\n      0x00\n        /* \"contracts/Practice.sol\":3319:3336  users[msg.sender] */\n      dup1\n        /* \"contracts/Practice.sol\":3325:3335  msg.sender */\n      caller\n        /* \"contracts/Practice.sol\":3319:3336  users[msg.sender] */\n      0xffffffffffffffffffffffffffffffffffffffff\n      and\n      0xffffffffffffffffffffffffffffffffffffffff\n      and\n      dup2\n      mstore\n      0x20\n      add\n      swap1\n      dup2\n      mstore\n      0x20\n      add\n      0x00\n      keccak256\n        /* \"contracts/Practice.sol\":3319:3345  users[msg.sender].x3Matrix */\n      0x05\n      add\n        /* \"contracts/Practice.sol\":3319:3354  users[msg.sender].x3Matrix[level-1] */\n      0x00\n        /* \"contracts/Practice.sol\":3352:3353  1 */\n      0x01\n        /* \"contracts/Practice.sol\":3346:3351  level */\n      dup4\n        /* \"contracts/Practice.sol\":3346:3353  level-1 */\n      tag_184\n      swap2\n      swap1\n      tag_185\n      jump\t// in\n    tag_184:\n        /* \"contracts/Practice.sol\":3319:3354  users[msg.sender].x3Matrix[level-1] */\n      0xff\n      and\n      0xff\n      and\n      dup2\n      mstore\n      0x20\n      add\n      swap1\n      dup2\n      mstore\n      0x20\n      add\n      0x00\n      keccak256\n        /* \"contracts/Practice.sol\":3319:3362  users[msg.sender].x3Matrix[level-1].blocked */\n      0x02\n      add\n      0x00\n      swap1\n      sload\n      swap1\n      0x0100\n      exp\n      swap1\n      div\n      0xff\n      and\n        /* \"contracts/Practice.sol\":3315:3448  if (users[msg.sender].x3Matrix[level-1].blocked) {... */\n      iszero\n      tag_186\n      jumpi\n        /* \"contracts/Practice.sol\":3428:3433  false */\n      0x00\n        /* \"contracts/Practice.sol\":3382:3387  users */\n      dup1\n        /* \"contracts/Practice.sol\":3382:3399  users[msg.sender] */\n      0x00\n        /* \"contracts/Practice.sol\":3388:3398  msg.sender */\n      caller\n        /* \"contracts/Practice.sol\":3382:3399  users[msg.sender] */\n      0xffffffffffffffffffffffffffffffffffffffff\n      and\n      0xffffffffffffffffffffffffffffffffffffffff\n      and\n      dup2\n      mstore\n      0x20\n      add\n      swap1\n      dup2\n      mstore\n      0x20\n      add\n      0x00\n      keccak256\n        /* \"contracts/Practice.sol\":3382:3408  users[msg.sender].x3Matrix */\n      0x05\n      add\n        /* \"contracts/Practice.sol\":3382:3417  users[msg.sender].x3Matrix[level-1] */\n      0x00\n        /* \"contracts/Practice.sol\":3415:3416  1 */\n      0x01\n        /* \"contracts/Practice.sol\":3409:3414  level */\n      dup5\n        /* \"contracts/Practice.sol\":3409:3416  level-1 */\n      tag_187\n      swap2\n      swap1\n      tag_185\n      jump\t// in\n    tag_187:\n        /* \"contracts/Practice.sol\":3382:3417  users[msg.sender].x3Matrix[level-1] */\n      0xff\n      and\n      0xff\n      and\n      dup2\n      mstore\n      0x20\n      add\n      swap1\n      dup2\n      mstore\n      0x20\n      add\n      0x00\n      keccak256\n        /* \"contracts/Practice.sol\":3382:3425  users[msg.sender].x3Matrix[level-1].blocked */\n      0x02\n      add\n      0x00\n        /* \"contracts/Practice.sol\":3382:3433  users[msg.sender].x3Matrix[level-1].blocked = false */\n      0x0100\n      exp\n      dup2\n      sload\n      dup2\n      0xff\n      mul\n      not\n      and\n      swap1\n      dup4\n      iszero\n      iszero\n      mul\n      or\n      swap1\n      sstore\n      pop\n        /* \"contracts/Practice.sol\":3315:3448  if (users[msg.sender].x3Matrix[level-1].blocked) {... */\n    tag_186:\n        /* \"contracts/Practice.sol\":3477:3499  address freeX3Referrer */\n      0x00\n        /* \"contracts/Practice.sol\":3502:3539  findFreeX3Referrer(msg.sender, level) */\n      tag_188\n        /* \"contracts/Practice.sol\":3521:3531  msg.sender */\n      caller\n        /* \"contracts/Practice.sol\":3533:3538  level */\n      dup4\n        /* \"contracts/Practice.sol\":3502:3520  findFreeX3Referrer */\n      tag_123\n        /* \"contracts/Practice.sol\":3502:3539  findFreeX3Referrer(msg.sender, level) */\n      jump\t// in\n    tag_188:\n        /* \"contracts/Practice.sol\":3477:3539  address freeX3Referrer = findFreeX3Referrer(msg.sender, level) */\n      swap1\n      pop\n        /* \"contracts/Practice.sol\":3605:3619  freeX3Referrer */\n      dup1\n        /* \"contracts/Practice.sol\":3553:3558  users */\n      0x00\n        /* \"contracts/Practice.sol\":3553:3570  users[msg.sender] */\n      dup1\n        /* \"contracts/Practice.sol\":3559:3569  msg.sender */\n      caller\n        /* \"contracts/Practice.sol\":3553:3570  users[msg.sender] */\n      0xffffffffffffffffffffffffffffffffffffffff\n      and\n      0xffffffffffffffffffffffffffffffffffffffff\n      and\n      dup2\n      mstore\n      0x20\n      add\n      swap1\n      dup2\n      mstore\n      0x20\n      add\n      0x00\n      keccak256\n        /* \"contracts/Practice.sol\":3553:3579  users[msg.sender].x3Matrix */\n      0x05\n      add\n        /* \"contracts/Practice.sol\":3553:3586  users[msg.sender].x3Matrix[level] */\n      0x00\n        /* \"contracts/Practice.sol\":3580:3585  level */\n      dup5\n        /* \"contracts/Practice.sol\":3553:3586  users[msg.sender].x3Matrix[level] */\n      0xff\n      and\n      0xff\n      and\n      dup2\n      mstore\n      0x20\n      add\n      swap1\n      dup2\n      mstore\n      0x20\n      add\n      0x00\n      keccak256\n        /* \"contracts/Practice.sol\":3553:3602  users[msg.sender].x3Matrix[level].currentReferrer */\n      0x00\n      add\n      0x00\n        /* \"contracts/Practice.sol\":3553:3619  users[msg.sender].x3Matrix[level].currentReferrer = freeX3Referrer */\n      0x0100\n      exp\n      dup2\n      sload\n      dup2\n      0xffffffffffffffffffffffffffffffffffffffff\n      mul\n      not\n      and\n      swap1\n      dup4\n      0xffffffffffffffffffffffffffffffffffffffff\n      and\n      mul\n      or\n      swap1\n      sstore\n      pop\n        /* \"contracts/Practice.sol\":3675:3679  true */\n      0x01\n        /* \"contracts/Practice.sol\":3633:3638  users */\n      0x00\n        /* \"contracts/Practice.sol\":3633:3650  users[msg.sender] */\n      dup1\n        /* \"contracts/Practice.sol\":3639:3649  msg.sender */\n      caller\n        /* \"contracts/Practice.sol\":3633:3650  users[msg.sender] */\n      0xffffffffffffffffffffffffffffffffffffffff\n      and\n      0xffffffffffffffffffffffffffffffffffffffff\n      and\n      dup2\n      mstore\n      0x20\n      add\n      swap1\n      dup2\n      mstore\n      0x20\n      add\n      0x00\n      keccak256\n        /* \"contracts/Practice.sol\":3633:3665  users[msg.sender].activeX3Levels */\n      0x03\n      add\n        /* \"contracts/Practice.sol\":3633:3672  users[msg.sender].activeX3Levels[level] */\n      0x00\n        /* \"contracts/Practice.sol\":3666:3671  level */\n      dup5\n        /* \"contracts/Practice.sol\":3633:3672  users[msg.sender].activeX3Levels[level] */\n      0xff\n      and\n      0xff\n      and\n      dup2\n      mstore\n      0x20\n      add\n      swap1\n      dup2\n      mstore\n      0x20\n      add\n      0x00\n      keccak256\n      0x00\n        /* \"contracts/Practice.sol\":3633:3679  users[msg.sender].activeX3Levels[level] = true */\n      0x0100\n      exp\n      dup2\n      sload\n      dup2\n      0xff\n      mul\n      not\n      and\n      swap1\n      dup4\n      iszero\n      iszero\n      mul\n      or\n      swap1\n      sstore\n      pop\n        /* \"contracts/Practice.sol\":3693:3744  updateX3Referrer(msg.sender, freeX3Referrer, level) */\n      tag_189\n        /* \"contracts/Practice.sol\":3710:3720  msg.sender */\n      caller\n        /* \"contracts/Practice.sol\":3722:3736  freeX3Referrer */\n      dup3\n        /* \"contracts/Practice.sol\":3738:3743  level */\n      dup5\n        /* \"contracts/Practice.sol\":3693:3709  updateX3Referrer */\n      tag_145\n        /* \"contracts/Practice.sol\":3693:3744  updateX3Referrer(msg.sender, freeX3Referrer, level) */\n      jump\t// in\n    tag_189:\n        /* \"contracts/Practice.sol\":3796:3810  freeX3Referrer */\n      dup1\n        /* \"contracts/Practice.sol\":3776:3821  Upgrade(msg.sender, freeX3Referrer, 1, level) */\n      0xffffffffffffffffffffffffffffffffffffffff\n      and\n        /* \"contracts/Practice.sol\":3784:3794  msg.sender */\n      caller\n        /* \"contracts/Practice.sol\":3776:3821  Upgrade(msg.sender, freeX3Referrer, 1, level) */\n      0xffffffffffffffffffffffffffffffffffffffff\n      and\n      0x18a92df19fd94d6cfff209966673a5ca05a1c8e2bb68e097fce2bdc2ed811119\n        /* \"contracts/Practice.sol\":3812:3813  1 */\n      0x01\n        /* \"contracts/Practice.sol\":3815:3820  level */\n      dup6\n        /* \"contracts/Practice.sol\":3776:3821  Upgrade(msg.sender, freeX3Referrer, 1, level) */\n      mload(0x40)\n      tag_190\n      swap3\n      swap2\n      swap1\n      tag_191\n      jump\t// in\n    tag_190:\n      mload(0x40)\n      dup1\n      swap2\n      sub\n      swap1\n      log3\n        /* \"contracts/Practice.sol\":3210:3833  {... */\n      pop\n        /* \"contracts/Practice.sol\":3193:4380  if (matrix == 1) {... */\n      jump(tag_192)\n    tag_180:\n        /* \"contracts/Practice.sol\":3862:3867  users */\n      0x00\n        /* \"contracts/Practice.sol\":3862:3879  users[msg.sender] */\n      dup1\n        /* \"contracts/Practice.sol\":3868:3878  msg.sender */\n      caller\n        /* \"contracts/Practice.sol\":3862:3879  users[msg.sender] */\n      0xffffffffffffffffffffffffffffffffffffffff\n      and\n      0xffffffffffffffffffffffffffffffffffffffff\n      and\n      dup2\n      mstore\n      0x20\n      add\n      swap1\n      dup2\n      mstore\n      0x20\n      add\n      0x00\n      keccak256\n        /* \"contracts/Practice.sol\":3862:3894  users[msg.sender].activeX6Levels */\n      0x04\n      add\n        /* \"contracts/Practice.sol\":3862:3901  users[msg.sender].activeX6Levels[level] */\n      0x00\n        /* \"contracts/Practice.sol\":3895:3900  level */\n      dup3\n        /* \"contracts/Practice.sol\":3862:3901  users[msg.sender].activeX6Levels[level] */\n      0xff\n      and\n      0xff\n      and\n      dup2\n      mstore\n      0x20\n      add\n      swap1\n      dup2\n      mstore\n      0x20\n      add\n      0x00\n      keccak256\n      0x00\n      swap1\n      sload\n      swap1\n      0x0100\n      exp\n      swap1\n      div\n      0xff\n      and\n        /* \"contracts/Practice.sol\":3861:3901  !users[msg.sender].activeX6Levels[level] */\n      iszero\n        /* \"contracts/Practice.sol\":3853:3929  require(!users[msg.sender].activeX6Levels[level], \"Level already activated\") */\n      tag_193\n      jumpi\n      mload(0x40)\n      0x08c379a000000000000000000000000000000000000000000000000000000000\n      dup2\n      mstore\n      0x04\n      add\n      tag_194\n      swap1\n      tag_183\n      jump\t// in\n    tag_194:\n      mload(0x40)\n      dup1\n      swap2\n      sub\n      swap1\n      revert\n    tag_193:\n        /* \"contracts/Practice.sol\":3949:3954  users */\n      0x00\n        /* \"contracts/Practice.sol\":3949:3966  users[msg.sender] */\n      dup1\n        /* \"contracts/Practice.sol\":3955:3965  msg.sender */\n      caller\n        /* \"contracts/Practice.sol\":3949:3966  users[msg.sender] */\n      0xffffffffffffffffffffffffffffffffffffffff\n      and\n      0xffffffffffffffffffffffffffffffffffffffff\n      and\n      dup2\n      mstore\n      0x20\n      add\n      swap1\n      dup2\n      mstore\n      0x20\n      add\n      0x00\n      keccak256\n        /* \"contracts/Practice.sol\":3949:3975  users[msg.sender].x6Matrix */\n      0x06\n      add\n        /* \"contracts/Practice.sol\":3949:3984  users[msg.sender].x6Matrix[level-1] */\n      0x00\n        /* \"contracts/Practice.sol\":3982:3983  1 */\n      0x01\n        /* \"contracts/Practice.sol\":3976:3981  level */\n      dup4\n        /* \"contracts/Practice.sol\":3976:3983  level-1 */\n      tag_195\n      swap2\n      swap1\n      tag_185\n      jump\t// in\n    tag_195:\n        /* \"contracts/Practice.sol\":3949:3984  users[msg.sender].x6Matrix[level-1] */\n      0xff\n      and\n      0xff\n      and\n      dup2\n      mstore\n      0x20\n      add\n      swap1\n      dup2\n      mstore\n      0x20\n      add\n      0x00\n      keccak256\n        /* \"contracts/Practice.sol\":3949:3992  users[msg.sender].x6Matrix[level-1].blocked */\n      0x03\n      add\n      0x00\n      swap1\n      sload\n      swap1\n      0x0100\n      exp\n      swap1\n      div\n      0xff\n      and\n        /* \"contracts/Practice.sol\":3945:4078  if (users[msg.sender].x6Matrix[level-1].blocked) {... */\n      iszero\n      tag_196\n      jumpi\n        /* \"contracts/Practice.sol\":4058:4063  false */\n      0x00\n        /* \"contracts/Practice.sol\":4012:4017  users */\n      dup1\n        /* \"contracts/Practice.sol\":4012:4029  users[msg.sender] */\n      0x00\n        /* \"contracts/Practice.sol\":4018:4028  msg.sender */\n      caller\n        /* \"contracts/Practice.sol\":4012:4029  users[msg.sender] */\n      0xffffffffffffffffffffffffffffffffffffffff\n      and\n      0xffffffffffffffffffffffffffffffffffffffff\n      and\n      dup2\n      mstore\n      0x20\n      add\n      swap1\n      dup2\n      mstore\n      0x20\n      add\n      0x00\n      keccak256\n        /* \"contracts/Practice.sol\":4012:4038  users[msg.sender].x6Matrix */\n      0x06\n      add\n        /* \"contracts/Practice.sol\":4012:4047  users[msg.sender].x6Matrix[level-1] */\n      0x00\n        /* \"contracts/Practice.sol\":4045:4046  1 */\n      0x01\n        /* \"contracts/Practice.sol\":4039:4044  level */\n      dup5\n        /* \"contracts/Practice.sol\":4039:4046  level-1 */\n      tag_197\n      swap2\n      swap1\n      tag_185\n      jump\t// in\n    tag_197:\n        /* \"contracts/Practice.sol\":4012:4047  users[msg.sender].x6Matrix[level-1] */\n      0xff\n      and\n      0xff\n      and\n      dup2\n      mstore\n      0x20\n      add\n      swap1\n      dup2\n      mstore\n      0x20\n      add\n      0x00\n      keccak256\n        /* \"contracts/Practice.sol\":4012:4055  users[msg.sender].x6Matrix[level-1].blocked */\n      0x03\n      add\n      0x00\n        /* \"contracts/Practice.sol\":4012:4063  users[msg.sender].x6Matrix[level-1].blocked = false */\n      0x0100\n      exp\n      dup2\n      sload\n      dup2\n      0xff\n      mul\n      not\n      and\n      swap1\n      dup4\n      iszero\n      iszero\n      mul\n      or\n      swap1\n      sstore\n      pop\n        /* \"contracts/Practice.sol\":3945:4078  if (users[msg.sender].x6Matrix[level-1].blocked) {... */\n    tag_196:\n        /* \"contracts/Practice.sol\":4092:4114  address freeX6Referrer */\n      0x00\n        /* \"contracts/Practice.sol\":4117:4154  findFreeX6Referrer(msg.sender, level) */\n      tag_198\n        /* \"contracts/Practice.sol\":4136:4146  msg.sender */\n      caller\n        /* \"contracts/Practice.sol\":4148:4153  level */\n      dup4\n        /* \"contracts/Practice.sol\":4117:4135  findFreeX6Referrer */\n      tag_112\n        /* \"contracts/Practice.sol\":4117:4154  findFreeX6Referrer(msg.sender, level) */\n      jump\t// in\n    tag_198:\n        /* \"contracts/Practice.sol\":4092:4154  address freeX6Referrer = findFreeX6Referrer(msg.sender, level) */\n      swap1\n      pop\n        /* \"contracts/Practice.sol\":4223:4227  true */\n      0x01\n        /* \"contracts/Practice.sol\":4181:4186  users */\n      0x00\n        /* \"contracts/Practice.sol\":4181:4198  users[msg.sender] */\n      dup1\n        /* \"contracts/Practice.sol\":4187:4197  msg.sender */\n      caller\n        /* \"contracts/Practice.sol\":4181:4198  users[msg.sender] */\n      0xffffffffffffffffffffffffffffffffffffffff\n      and\n      0xffffffffffffffffffffffffffffffffffffffff\n      and\n      dup2\n      mstore\n      0x20\n      add\n      swap1\n      dup2\n      mstore\n      0x20\n      add\n      0x00\n      keccak256\n        /* \"contracts/Practice.sol\":4181:4213  users[msg.sender].activeX6Levels */\n      0x04\n      add\n        /* \"contracts/Practice.sol\":4181:4220  users[msg.sender].activeX6Levels[level] */\n      0x00\n        /* \"contracts/Practice.sol\":4214:4219  level */\n      dup5\n        /* \"contracts/Practice.sol\":4181:4220  users[msg.sender].activeX6Levels[level] */\n      0xff\n      and\n      0xff\n      and\n      dup2\n      mstore\n      0x20\n      add\n      swap1\n      dup2\n      mstore\n      0x20\n      add\n      0x00\n      keccak256\n      0x00\n        /* \"contracts/Practice.sol\":4181:4227  users[msg.sender].activeX6Levels[level] = true */\n      0x0100\n      exp\n      dup2\n      sload\n      dup2\n      0xff\n      mul\n      not\n      and\n      swap1\n      dup4\n      iszero\n      iszero\n      mul\n      or\n      swap1\n      sstore\n      pop\n        /* \"contracts/Practice.sol\":4241:4292  updateX6Referrer(msg.sender, freeX6Referrer, level) */\n      tag_199\n        /* \"contracts/Practice.sol\":4258:4268  msg.sender */\n      caller\n        /* \"contracts/Practice.sol\":4270:4284  freeX6Referrer */\n      dup3\n        /* \"contracts/Practice.sol\":4286:4291  level */\n      dup5\n        /* \"contracts/Practice.sol\":4241:4257  updateX6Referrer */\n      tag_148\n        /* \"contracts/Practice.sol\":4241:4292  updateX6Referrer(msg.sender, freeX6Referrer, level) */\n      jump\t// in\n    tag_199:\n        /* \"contracts/Practice.sol\":4344:4358  freeX6Referrer */\n      dup1\n        /* \"contracts/Practice.sol\":4324:4369  Upgrade(msg.sender, freeX6Referrer, 2, level) */\n      0xffffffffffffffffffffffffffffffffffffffff\n      and\n        /* \"contracts/Practice.sol\":4332:4342  msg.sender */\n      caller\n        /* \"contracts/Practice.sol\":4324:4369  Upgrade(msg.sender, freeX6Referrer, 2, level) */\n      0xffffffffffffffffffffffffffffffffffffffff\n      and\n      0x18a92df19fd94d6cfff209966673a5ca05a1c8e2bb68e097fce2bdc2ed811119\n        /* \"contracts/Practice.sol\":4360:4361  2 */\n      0x02\n        /* \"contracts/Practice.sol\":4363:4368  level */\n      dup6\n        /* \"contracts/Practice.sol\":4324:4369  Upgrade(msg.sender, freeX6Referrer, 2, level) */\n      mload(0x40)\n      tag_200\n      swap3\n      swap2\n      swap1\n      tag_201\n      jump\t// in\n    tag_200:\n      mload(0x40)\n      dup1\n      swap2\n      sub\n      swap1\n      log3\n        /* \"contracts/Practice.sol\":3839:4380  {... */\n      pop\n        /* \"contracts/Practice.sol\":3193:4380  if (matrix == 1) {... */\n    tag_192:\n        /* \"contracts/Practice.sol\":2837:4386  function buyNewLevel(uint8 matrix, uint8 level) external payable {... */\n      pop\n      pop\n      jump\t// out\n        /* \"contracts/Practice.sol\":14240:14568  function findFreeX6Referrer(address userAddress, uint8 level) public view returns(address) {... */\n    tag_112:\n        /* \"contracts/Practice.sol\":14322:14329  address */\n      0x00\n        /* \"contracts/Practice.sol\":14341:14562  while (true) {... */\n    tag_203:\n        /* \"contracts/Practice.sol\":14348:14352  true */\n      0x01\n        /* \"contracts/Practice.sol\":14341:14562  while (true) {... */\n      iszero\n      tag_204\n      jumpi\n        /* \"contracts/Practice.sol\":14372:14377  users */\n      0x00\n        /* \"contracts/Practice.sol\":14372:14406  users[users[userAddress].referrer] */\n      dup1\n        /* \"contracts/Practice.sol\":14378:14383  users */\n      dup1\n        /* \"contracts/Practice.sol\":14378:14396  users[userAddress] */\n      0x00\n        /* \"contracts/Practice.sol\":14384:14395  userAddress */\n      dup7\n        /* \"contracts/Practice.sol\":14378:14396  users[userAddress] */\n      0xffffffffffffffffffffffffffffffffffffffff\n      and\n      0xffffffffffffffffffffffffffffffffffffffff\n      and\n      dup2\n      mstore\n      0x20\n      add\n      swap1\n      dup2\n      mstore\n      0x20\n      add\n      0x00\n      keccak256\n        /* \"contracts/Practice.sol\":14378:14405  users[userAddress].referrer */\n      0x01\n      add\n      0x00\n      swap1\n      sload\n      swap1\n      0x0100\n      exp\n      swap1\n      div\n      0xffffffffffffffffffffffffffffffffffffffff\n      and\n        /* \"contracts/Practice.sol\":14372:14406  users[users[userAddress].referrer] */\n      0xffffffffffffffffffffffffffffffffffffffff\n      and\n      0xffffffffffffffffffffffffffffffffffffffff\n      and\n      dup2\n      mstore\n      0x20\n      add\n      swap1\n      dup2\n      mstore\n      0x20\n      add\n      0x00\n      keccak256\n        /* \"contracts/Practice.sol\":14372:14421  users[users[userAddress].referrer].activeX6Levels */\n      0x04\n      add\n        /* \"contracts/Practice.sol\":14372:14428  users[users[userAddress].referrer].activeX6Levels[level] */\n      0x00\n        /* \"contracts/Practice.sol\":14422:14427  level */\n      dup4\n        /* \"contracts/Practice.sol\":14372:14428  users[users[userAddress].referrer].activeX6Levels[level] */\n      0xff\n      and\n      0xff\n      and\n      dup2\n      mstore\n      0x20\n      add\n      swap1\n      dup2\n      mstore\n      0x20\n      add\n      0x00\n      keccak256\n      0x00\n      swap1\n      sload\n      swap1\n      0x0100\n      exp\n      swap1\n      div\n      0xff\n      and\n        /* \"contracts/Practice.sol\":14368:14497  if (users[users[userAddress].referrer].activeX6Levels[level]) {... */\n      iszero\n      tag_205\n      jumpi\n        /* \"contracts/Practice.sol\":14455:14460  users */\n      0x00\n        /* \"contracts/Practice.sol\":14455:14473  users[userAddress] */\n      dup1\n        /* \"contracts/Practice.sol\":14461:14472  userAddress */\n      dup5\n        /* \"contracts/Practice.sol\":14455:14473  users[userAddress] */\n      0xffffffffffffffffffffffffffffffffffffffff\n      and\n      0xffffffffffffffffffffffffffffffffffffffff\n      and\n      dup2\n      mstore\n      0x20\n      add\n      swap1\n      dup2\n      mstore\n      0x20\n      add\n      0x00\n      keccak256\n        /* \"contracts/Practice.sol\":14455:14482  users[userAddress].referrer */\n      0x01\n      add\n      0x00\n      swap1\n      sload\n      swap1\n      0x0100\n      exp\n      swap1\n      div\n      0xffffffffffffffffffffffffffffffffffffffff\n      and\n        /* \"contracts/Practice.sol\":14448:14482  return users[userAddress].referrer */\n      swap1\n      pop\n      jump(tag_202)\n        /* \"contracts/Practice.sol\":14368:14497  if (users[users[userAddress].referrer].activeX6Levels[level]) {... */\n    tag_205:\n        /* \"contracts/Practice.sol\":14524:14529  users */\n      0x00\n        /* \"contracts/Practice.sol\":14524:14542  users[userAddress] */\n      dup1\n        /* \"contracts/Practice.sol\":14530:14541  userAddress */\n      dup5\n        /* \"contracts/Practice.sol\":14524:14542  users[userAddress] */\n      0xffffffffffffffffffffffffffffffffffffffff\n      and\n      0xffffffffffffffffffffffffffffffffffffffff\n      and\n      dup2\n      mstore\n      0x20\n      add\n      swap1\n      dup2\n      mstore\n      0x20\n      add\n      0x00\n      keccak256\n        /* \"contracts/Practice.sol\":14524:14551  users[userAddress].referrer */\n      0x01\n      add\n      0x00\n      swap1\n      sload\n      swap1\n      0x0100\n      exp\n      swap1\n      div\n      0xffffffffffffffffffffffffffffffffffffffff\n      and\n        /* \"contracts/Practice.sol\":14510:14551  userAddress = users[userAddress].referrer */\n      swap3\n      pop\n        /* \"contracts/Practice.sol\":14341:14562  while (true) {... */\n      jump(tag_203)\n    tag_204:\n        /* \"contracts/Practice.sol\":14240:14568  function findFreeX6Referrer(address userAddress, uint8 level) public view returns(address) {... */\n    tag_202:\n      swap3\n      swap2\n      pop\n      pop\n      jump\t// out\n        /* \"contracts/Practice.sol\":1001:1041  mapping(uint8 => uint) public levelPrice */\n    tag_118:\n      mstore(0x20, 0x06)\n      dup1\n      0x00\n      mstore\n      keccak256(0x00, 0x40)\n      0x00\n      swap2\n      pop\n      swap1\n      pop\n      sload\n      dup2\n      jump\t// out\n        /* \"contracts/Practice.sol\":13902:14230  function findFreeX3Referrer(address userAddress, uint8 level) public view returns(address) {... */\n    tag_123:\n        /* \"contracts/Practice.sol\":13984:13991  address */\n      0x00\n        /* \"contracts/Practice.sol\":14003:14224  while (true) {... */\n    tag_207:\n        /* \"contracts/Practice.sol\":14010:14014  true */\n      0x01\n        /* \"contracts/Practice.sol\":14003:14224  while (true) {... */\n      iszero\n      tag_208\n      jumpi\n        /* \"contracts/Practice.sol\":14034:14039  users */\n      0x00\n        /* \"contracts/Practice.sol\":14034:14068  users[users[userAddress].referrer] */\n      dup1\n        /* \"contracts/Practice.sol\":14040:14045  users */\n      dup1\n        /* \"contracts/Practice.sol\":14040:14058  users[userAddress] */\n      0x00\n        /* \"contracts/Practice.sol\":14046:14057  userAddress */\n      dup7\n        /* \"contracts/Practice.sol\":14040:14058  users[userAddress] */\n      0xffffffffffffffffffffffffffffffffffffffff\n      and\n      0xffffffffffffffffffffffffffffffffffffffff\n      and\n      dup2\n      mstore\n      0x20\n      add\n      swap1\n      dup2\n      mstore\n      0x20\n      add\n      0x00\n      keccak256\n        /* \"contracts/Practice.sol\":14040:14067  users[userAddress].referrer */\n      0x01\n      add\n      0x00\n      swap1\n      sload\n      swap1\n      0x0100\n      exp\n      swap1\n      div\n      0xffffffffffffffffffffffffffffffffffffffff\n      and\n        /* \"contracts/Practice.sol\":14034:14068  users[users[userAddress].referrer] */\n      0xffffffffffffffffffffffffffffffffffffffff\n      and\n      0xffffffffffffffffffffffffffffffffffffffff\n      and\n      dup2\n      mstore\n      0x20\n      add\n      swap1\n      dup2\n      mstore\n      0x20\n      add\n      0x00\n      keccak256\n        /* \"contracts/Practice.sol\":14034:14083  users[users[userAddress].referrer].activeX3Levels */\n      0x03\n      add\n        /* \"contracts/Practice.sol\":14034:14090  users[users[userAddress].referrer].activeX3Levels[level] */\n      0x00\n        /* \"contracts/Practice.sol\":14084:14089  level */\n      dup4\n        /* \"contracts/Practice.sol\":14034:14090  users[users[userAddress].referrer].activeX3Levels[level] */\n      0xff\n      and\n      0xff\n      and\n      dup2\n      mstore\n      0x20\n      add\n      swap1\n      dup2\n      mstore\n      0x20\n      add\n      0x00\n      keccak256\n      0x00\n      swap1\n      sload\n      swap1\n      0x0100\n      exp\n      swap1\n      div\n      0xff\n      and\n        /* \"contracts/Practice.sol\":14030:14159  if (users[users[userAddress].referrer].activeX3Levels[level]) {... */\n      iszero\n      tag_209\n      jumpi\n        /* \"contracts/Practice.sol\":14117:14122  users */\n      0x00\n        /* \"contracts/Practice.sol\":14117:14135  users[userAddress] */\n      dup1\n        /* \"contracts/Practice.sol\":14123:14134  userAddress */\n      dup5\n        /* \"contracts/Practice.sol\":14117:14135  users[userAddress] */\n      0xffffffffffffffffffffffffffffffffffffffff\n      and\n      0xffffffffffffffffffffffffffffffffffffffff\n      and\n      dup2\n      mstore\n      0x20\n      add\n      swap1\n      dup2\n      mstore\n      0x20\n      add\n      0x00\n      keccak256\n        /* \"contracts/Practice.sol\":14117:14144  users[userAddress].referrer */\n      0x01\n      add\n      0x00\n      swap1\n      sload\n      swap1\n      0x0100\n      exp\n      swap1\n      div\n      0xffffffffffffffffffffffffffffffffffffffff\n      and\n        /* \"contracts/Practice.sol\":14110:14144  return users[userAddress].referrer */\n      swap1\n      pop\n      jump(tag_206)\n        /* \"contracts/Practice.sol\":14030:14159  if (users[users[userAddress].referrer].activeX3Levels[level]) {... */\n    tag_209:\n        /* \"contracts/Practice.sol\":14186:14191  users */\n      0x00\n        /* \"contracts/Practice.sol\":14186:14204  users[userAddress] */\n      dup1\n        /* \"contracts/Practice.sol\":14192:14203  userAddress */\n      dup5\n        /* \"contracts/Practice.sol\":14186:14204  users[userAddress] */\n      0xffffffffffffffffffffffffffffffffffffffff\n      and\n      0xffffffffffffffffffffffffffffffffffffffff\n      and\n      dup2\n      mstore\n      0x20\n      add\n      swap1\n      dup2\n      mstore\n      0x20\n      add\n      0x00\n      keccak256\n        /* \"contracts/Practice.sol\":14186:14213  users[userAddress].referrer */\n      0x01\n      add\n      0x00\n      swap1\n      sload\n      swap1\n      0x0100\n      exp\n      swap1\n      div\n      0xffffffffffffffffffffffffffffffffffffffff\n      and\n        /* \"contracts/Practice.sol\":14172:14213  userAddress = users[userAddress].referrer */\n      swap3\n      pop\n        /* \"contracts/Practice.sol\":14003:14224  while (true) {... */\n      jump(tag_207)\n    tag_208:\n        /* \"contracts/Practice.sol\":13902:14230  function findFreeX3Referrer(address userAddress, uint8 level) public view returns(address) {... */\n    tag_206:\n      swap3\n      swap2\n      pop\n      pop\n      jump\t// out\n        /* \"contracts/Practice.sol\":5657:7346  function updateX3Referrer(address userAddress, address referrerAddress, uint8 level) private {... */\n    tag_145:\n        /* \"contracts/Practice.sol\":5760:5765  users */\n      0x00\n        /* \"contracts/Practice.sol\":5760:5782  users[referrerAddress] */\n      dup1\n        /* \"contracts/Practice.sol\":5766:5781  referrerAddress */\n      dup4\n        /* \"contracts/Practice.sol\":5760:5782  users[referrerAddress] */\n      0xffffffffffffffffffffffffffffffffffffffff\n      and\n      0xffffffffffffffffffffffffffffffffffffffff\n      and\n      dup2\n      mstore\n      0x20\n      add\n      swap1\n      dup2\n      mstore\n      0x20\n      add\n      0x00\n      keccak256\n        /* \"contracts/Practice.sol\":5760:5791  users[referrerAddress].x3Matrix */\n      0x05\n      add\n        /* \"contracts/Practice.sol\":5760:5798  users[referrerAddress].x3Matrix[level] */\n      0x00\n        /* \"contracts/Practice.sol\":5792:5797  level */\n      dup3\n        /* \"contracts/Practice.sol\":5760:5798  users[referrerAddress].x3Matrix[level] */\n      0xff\n      and\n      0xff\n      and\n      dup2\n      mstore\n      0x20\n      add\n      swap1\n      dup2\n      mstore\n      0x20\n      add\n      0x00\n      keccak256\n        /* \"contracts/Practice.sol\":5760:5808  users[referrerAddress].x3Matrix[level].referrals */\n      0x01\n      add\n        /* \"contracts/Practice.sol\":5814:5825  userAddress */\n      dup4\n        /* \"contracts/Practice.sol\":5760:5826  users[referrerAddress].x3Matrix[level].referrals.push(userAddress) */\n      swap1\n      dup1\n      0x01\n      dup2\n      sload\n      add\n      dup1\n      dup3\n      sstore\n      dup1\n      swap2\n      pop\n      pop\n      0x01\n      swap1\n      sub\n      swap1\n      0x00\n      mstore\n      keccak256(0x00, 0x20)\n      add\n      0x00\n      swap1\n      swap2\n      swap1\n      swap2\n      swap1\n      swap2\n      0x0100\n      exp\n      dup2\n      sload\n      dup2\n      0xffffffffffffffffffffffffffffffffffffffff\n      mul\n      not\n      and\n      swap1\n      dup4\n      0xffffffffffffffffffffffffffffffffffffffff\n      and\n      mul\n      or\n      swap1\n      sstore\n      pop\n        /* \"contracts/Practice.sol\":5899:5900  3 */\n      0x03\n        /* \"contracts/Practice.sol\":5841:5846  users */\n      0x00\n        /* \"contracts/Practice.sol\":5841:5863  users[referrerAddress] */\n      dup1\n        /* \"contracts/Practice.sol\":5847:5862  referrerAddress */\n      dup5\n        /* \"contracts/Practice.sol\":5841:5863  users[referrerAddress] */\n      0xffffffffffffffffffffffffffffffffffffffff\n      and\n      0xffffffffffffffffffffffffffffffffffffffff\n      and\n      dup2\n      mstore\n      0x20\n      add\n      swap1\n      dup2\n      mstore\n      0x20\n      add\n      0x00\n      keccak256\n        /* \"contracts/Practice.sol\":5841:5872  users[referrerAddress].x3Matrix */\n      0x05\n      add\n        /* \"contracts/Practice.sol\":5841:5879  users[referrerAddress].x3Matrix[level] */\n      0x00\n        /* \"contracts/Practice.sol\":5873:5878  level */\n      dup4\n        /* \"contracts/Practice.sol\":5841:5879  users[referrerAddress].x3Matrix[level] */\n      0xff\n      and\n      0xff\n      and\n      dup2\n      mstore\n      0x20\n      add\n      swap1\n      dup2\n      mstore\n      0x20\n      add\n      0x00\n      keccak256\n        /* \"contracts/Practice.sol\":5841:5889  users[referrerAddress].x3Matrix[level].referrals */\n      0x01\n      add\n        /* \"contracts/Practice.sol\":5841:5896  users[referrerAddress].x3Matrix[level].referrals.length */\n      dup1\n      sload\n      swap1\n      pop\n        /* \"contracts/Practice.sol\":5841:5900  users[referrerAddress].x3Matrix[level].referrals.length < 3 */\n      lt\n        /* \"contracts/Practice.sol\":5837:6125  if (users[referrerAddress].x3Matrix[level].referrals.length < 3) {... */\n      iszero\n      tag_212\n      jumpi\n        /* \"contracts/Practice.sol\":5947:5962  referrerAddress */\n      dup2\n        /* \"contracts/Practice.sol\":5921:6037  NewUserPlace(userAddress, referrerAddress, 1, level, uint8(users[referrerAddress].x3Matrix[level].referrals.length)) */\n      0xffffffffffffffffffffffffffffffffffffffff\n      and\n        /* \"contracts/Practice.sol\":5934:5945  userAddress */\n      dup4\n        /* \"contracts/Practice.sol\":5921:6037  NewUserPlace(userAddress, referrerAddress, 1, level, uint8(users[referrerAddress].x3Matrix[level].referrals.length)) */\n      0xffffffffffffffffffffffffffffffffffffffff\n      and\n      0x68062c5925c4317adf3a7095478d28b33fd8b41458bc7620b61bc46bf1b24d82\n        /* \"contracts/Practice.sol\":5964:5965  1 */\n      0x01\n        /* \"contracts/Practice.sol\":5967:5972  level */\n      dup5\n        /* \"contracts/Practice.sol\":5980:5985  users */\n      0x00\n        /* \"contracts/Practice.sol\":5980:6002  users[referrerAddress] */\n      dup1\n        /* \"contracts/Practice.sol\":5986:6001  referrerAddress */\n      dup9\n        /* \"contracts/Practice.sol\":5980:6002  users[referrerAddress] */\n      0xffffffffffffffffffffffffffffffffffffffff\n      and\n      0xffffffffffffffffffffffffffffffffffffffff\n      and\n      dup2\n      mstore\n      0x20\n      add\n      swap1\n      dup2\n      mstore\n      0x20\n      add\n      0x00\n      keccak256\n        /* \"contracts/Practice.sol\":5980:6011  users[referrerAddress].x3Matrix */\n      0x05\n      add\n        /* \"contracts/Practice.sol\":5980:6018  users[referrerAddress].x3Matrix[level] */\n      0x00\n        /* \"contracts/Practice.sol\":6012:6017  level */\n      dup8\n        /* \"contracts/Practice.sol\":5980:6018  users[referrerAddress].x3Matrix[level] */\n      0xff\n      and\n      0xff\n      and\n      dup2\n      mstore\n      0x20\n      add\n      swap1\n      dup2\n      mstore\n      0x20\n      add\n      0x00\n      keccak256\n        /* \"contracts/Practice.sol\":5980:6028  users[referrerAddress].x3Matrix[level].referrals */\n      0x01\n      add\n        /* \"contracts/Practice.sol\":5980:6035  users[referrerAddress].x3Matrix[level].referrals.length */\n      dup1\n      sload\n      swap1\n      pop\n        /* \"contracts/Practice.sol\":5921:6037  NewUserPlace(userAddress, referrerAddress, 1, level, uint8(users[referrerAddress].x3Matrix[level].referrals.length)) */\n      mload(0x40)\n      tag_213\n      swap4\n      swap3\n      swap2\n      swap1\n      tag_214\n      jump\t// in\n    tag_213:\n      mload(0x40)\n      dup1\n      swap2\n      sub\n      swap1\n      log3\n        /* \"contracts/Practice.sol\":6058:6114  sendETHDividends(referrerAddress, userAddress, 1, level) */\n      tag_215\n        /* \"contracts/Practice.sol\":6075:6090  referrerAddress */\n      dup3\n        /* \"contracts/Practice.sol\":6092:6103  userAddress */\n      dup5\n        /* \"contracts/Practice.sol\":6105:6106  1 */\n      0x01\n        /* \"contracts/Practice.sol\":6108:6113  level */\n      dup5\n        /* \"contracts/Practice.sol\":6058:6074  sendETHDividends */\n      tag_216\n        /* \"contracts/Practice.sol\":6058:6114  sendETHDividends(referrerAddress, userAddress, 1, level) */\n      jump\t// in\n    tag_215:\n        /* \"contracts/Practice.sol\":6051:6114  return sendETHDividends(referrerAddress, userAddress, 1, level) */\n      jump(tag_210)\n        /* \"contracts/Practice.sol\":5837:6125  if (users[referrerAddress].x3Matrix[level].referrals.length < 3) {... */\n    tag_212:\n        /* \"contracts/Practice.sol\":6174:6189  referrerAddress */\n      dup2\n        /* \"contracts/Practice.sol\":6148:6203  NewUserPlace(userAddress, referrerAddress, 1, level, 3) */\n      0xffffffffffffffffffffffffffffffffffffffff\n      and\n        /* \"contracts/Practice.sol\":6161:6172  userAddress */\n      dup4\n        /* \"contracts/Practice.sol\":6148:6203  NewUserPlace(userAddress, referrerAddress, 1, level, 3) */\n      0xffffffffffffffffffffffffffffffffffffffff\n      and\n      0x68062c5925c4317adf3a7095478d28b33fd8b41458bc7620b61bc46bf1b24d82\n        /* \"contracts/Practice.sol\":6191:6192  1 */\n      0x01\n        /* \"contracts/Practice.sol\":6194:6199  level */\n      dup5\n        /* \"contracts/Practice.sol\":6201:6202  3 */\n      0x03\n        /* \"contracts/Practice.sol\":6148:6203  NewUserPlace(userAddress, referrerAddress, 1, level, 3) */\n      mload(0x40)\n      tag_217\n      swap4\n      swap3\n      swap2\n      swap1\n      tag_218\n      jump\t// in\n    tag_217:\n      mload(0x40)\n      dup1\n      swap2\n      sub\n      swap1\n      log3\n        /* \"contracts/Practice.sol\":6302:6303  0 */\n      0x00\n        /* \"contracts/Practice.sol\":6288:6304  new address[](0) */\n      0xffffffffffffffff\n      dup2\n      gt\n      iszero\n      tag_219\n      jumpi\n      tag_220\n      tag_221\n      jump\t// in\n    tag_220:\n    tag_219:\n      mload(0x40)\n      swap1\n      dup1\n      dup3\n      mstore\n      dup1\n      0x20\n      mul\n      0x20\n      add\n      dup3\n      add\n      0x40\n      mstore\n      dup1\n      iszero\n      tag_222\n      jumpi\n      dup2\n      0x20\n      add\n      0x20\n      dup3\n      mul\n      dup1\n      calldatasize\n      dup4\n      calldatacopy\n      dup1\n      dup3\n      add\n      swap2\n      pop\n      pop\n      swap1\n      pop\n    tag_222:\n      pop\n        /* \"contracts/Practice.sol\":6237:6242  users */\n      0x00\n        /* \"contracts/Practice.sol\":6237:6259  users[referrerAddress] */\n      dup1\n        /* \"contracts/Practice.sol\":6243:6258  referrerAddress */\n      dup5\n        /* \"contracts/Practice.sol\":6237:6259  users[referrerAddress] */\n      0xffffffffffffffffffffffffffffffffffffffff\n      and\n      0xffffffffffffffffffffffffffffffffffffffff\n      and\n      dup2\n      mstore\n      0x20\n      add\n      swap1\n      dup2\n      mstore\n      0x20\n      add\n      0x00\n      keccak256\n        /* \"contracts/Practice.sol\":6237:6268  users[referrerAddress].x3Matrix */\n      0x05\n      add\n        /* \"contracts/Practice.sol\":6237:6275  users[referrerAddress].x3Matrix[level] */\n      0x00\n        /* \"contracts/Practice.sol\":6269:6274  level */\n      dup4\n        /* \"contracts/Practice.sol\":6237:6275  users[referrerAddress].x3Matrix[level] */\n      0xff\n      and\n      0xff\n      and\n      dup2\n      mstore\n      0x20\n      add\n      swap1\n      dup2\n      mstore\n      0x20\n      add\n      0x00\n      keccak256\n        /* \"contracts/Practice.sol\":6237:6285  users[referrerAddress].x3Matrix[level].referrals */\n      0x01\n      add\n        /* \"contracts/Practice.sol\":6237:6304  users[referrerAddress].x3Matrix[level].referrals = new address[](0) */\n      swap1\n      dup1\n      mload\n      swap1\n      0x20\n      add\n      swap1\n      tag_223\n      swap3\n      swap2\n      swap1\n      tag_224\n      jump\t// in\n    tag_223:\n      pop\n        /* \"contracts/Practice.sol\":6319:6324  users */\n      0x00\n        /* \"contracts/Practice.sol\":6319:6341  users[referrerAddress] */\n      dup1\n        /* \"contracts/Practice.sol\":6325:6340  referrerAddress */\n      dup4\n        /* \"contracts/Practice.sol\":6319:6341  users[referrerAddress] */\n      0xffffffffffffffffffffffffffffffffffffffff\n      and\n      0xffffffffffffffffffffffffffffffffffffffff\n      and\n      dup2\n      mstore\n      0x20\n      add\n      swap1\n      dup2\n      mstore\n      0x20\n      add\n      0x00\n      keccak256\n        /* \"contracts/Practice.sol\":6319:6356  users[referrerAddress].activeX3Levels */\n      0x03\n      add\n        /* \"contracts/Practice.sol\":6319:6365  users[referrerAddress].activeX3Levels[level+1] */\n      0x00\n        /* \"contracts/Practice.sol\":6363:6364  1 */\n      0x01\n        /* \"contracts/Practice.sol\":6357:6362  level */\n      dup4\n        /* \"contracts/Practice.sol\":6357:6364  level+1 */\n      tag_225\n      swap2\n      swap1\n      tag_226\n      jump\t// in\n    tag_225:\n        /* \"contracts/Practice.sol\":6319:6365  users[referrerAddress].activeX3Levels[level+1] */\n      0xff\n      and\n      0xff\n      and\n      dup2\n      mstore\n      0x20\n      add\n      swap1\n      dup2\n      mstore\n      0x20\n      add\n      0x00\n      keccak256\n      0x00\n      swap1\n      sload\n      swap1\n      0x0100\n      exp\n      swap1\n      div\n      0xff\n      and\n        /* \"contracts/Practice.sol\":6318:6365  !users[referrerAddress].activeX3Levels[level+1] */\n      iszero\n        /* \"contracts/Practice.sol\":6318:6388  !users[referrerAddress].activeX3Levels[level+1] && level != LAST_LEVEL */\n      dup1\n      iszero\n      tag_227\n      jumpi\n      pop\n        /* \"contracts/Practice.sol\":751:753  12 */\n      0x0c\n        /* \"contracts/Practice.sol\":6369:6388  level != LAST_LEVEL */\n      0xff\n      and\n        /* \"contracts/Practice.sol\":6369:6374  level */\n      dup2\n        /* \"contracts/Practice.sol\":6369:6388  level != LAST_LEVEL */\n      0xff\n      and\n      eq\n      iszero\n        /* \"contracts/Practice.sol\":6318:6388  !users[referrerAddress].activeX3Levels[level+1] && level != LAST_LEVEL */\n    tag_227:\n        /* \"contracts/Practice.sol\":6314:6468  if (!users[referrerAddress].activeX3Levels[level+1] && level != LAST_LEVEL) {... */\n      iszero\n      tag_228\n      jumpi\n        /* \"contracts/Practice.sol\":6453:6457  true */\n      0x01\n        /* \"contracts/Practice.sol\":6404:6409  users */\n      0x00\n        /* \"contracts/Practice.sol\":6404:6426  users[referrerAddress] */\n      dup1\n        /* \"contracts/Practice.sol\":6410:6425  referrerAddress */\n      dup5\n        /* \"contracts/Practice.sol\":6404:6426  users[referrerAddress] */\n      0xffffffffffffffffffffffffffffffffffffffff\n      and\n      0xffffffffffffffffffffffffffffffffffffffff\n      and\n      dup2\n      mstore\n      0x20\n      add\n      swap1\n      dup2\n      mstore\n      0x20\n      add\n      0x00\n      keccak256\n        /* \"contracts/Practice.sol\":6404:6435  users[referrerAddress].x3Matrix */\n      0x05\n      add\n        /* \"contracts/Practice.sol\":6404:6442  users[referrerAddress].x3Matrix[level] */\n      0x00\n        /* \"contracts/Practice.sol\":6436:6441  level */\n      dup4\n        /* \"contracts/Practice.sol\":6404:6442  users[referrerAddress].x3Matrix[level] */\n      0xff\n      and\n      0xff\n      and\n      dup2\n      mstore\n      0x20\n      add\n      swap1\n      dup2\n      mstore\n      0x20\n      add\n      0x00\n      keccak256\n        /* \"contracts/Practice.sol\":6404:6450  users[referrerAddress].x3Matrix[level].blocked */\n      0x02\n      add\n      0x00\n        /* \"contracts/Practice.sol\":6404:6457  users[referrerAddress].x3Matrix[level].blocked = true */\n      0x0100\n      exp\n      dup2\n      sload\n      dup2\n      0xff\n      mul\n      not\n      and\n      swap1\n      dup4\n      iszero\n      iszero\n      mul\n      or\n      swap1\n      sstore\n      pop\n        /* \"contracts/Practice.sol\":6314:6468  if (!users[referrerAddress].activeX3Levels[level+1] && level != LAST_LEVEL) {... */\n    tag_228:\n        /* \"contracts/Practice.sol\":6540:6545  owner */\n      0x05\n      0x00\n      swap1\n      sload\n      swap1\n      0x0100\n      exp\n      swap1\n      div\n      0xffffffffffffffffffffffffffffffffffffffff\n      and\n        /* \"contracts/Practice.sol\":6521:6545  referrerAddress != owner */\n      0xffffffffffffffffffffffffffffffffffffffff\n      and\n        /* \"contracts/Practice.sol\":6521:6536  referrerAddress */\n      dup3\n        /* \"contracts/Practice.sol\":6521:6545  referrerAddress != owner */\n      0xffffffffffffffffffffffffffffffffffffffff\n      and\n      eq\n        /* \"contracts/Practice.sol\":6517:7340  if (referrerAddress != owner) {... */\n      tag_229\n      jumpi\n        /* \"contracts/Practice.sol\":6604:6631  address freeReferrerAddress */\n      0x00\n        /* \"contracts/Practice.sol\":6634:6676  findFreeX3Referrer(referrerAddress, level) */\n      tag_230\n        /* \"contracts/Practice.sol\":6653:6668  referrerAddress */\n      dup4\n        /* \"contracts/Practice.sol\":6670:6675  level */\n      dup4\n        /* \"contracts/Practice.sol\":6634:6652  findFreeX3Referrer */\n      tag_123\n        /* \"contracts/Practice.sol\":6634:6676  findFreeX3Referrer(referrerAddress, level) */\n      jump\t// in\n    tag_230:\n        /* \"contracts/Practice.sol\":6604:6676  address freeReferrerAddress = findFreeX3Referrer(referrerAddress, level) */\n      swap1\n      pop\n        /* \"contracts/Practice.sol\":6752:6771  freeReferrerAddress */\n      dup1\n        /* \"contracts/Practice.sol\":6694:6771  users[referrerAddress].x3Matrix[level].currentReferrer != freeReferrerAddress */\n      0xffffffffffffffffffffffffffffffffffffffff\n      and\n        /* \"contracts/Practice.sol\":6694:6699  users */\n      0x00\n        /* \"contracts/Practice.sol\":6694:6716  users[referrerAddress] */\n      dup1\n        /* \"contracts/Practice.sol\":6700:6715  referrerAddress */\n      dup6\n        /* \"contracts/Practice.sol\":6694:6716  users[referrerAddress] */\n      0xffffffffffffffffffffffffffffffffffffffff\n      and\n      0xffffffffffffffffffffffffffffffffffffffff\n      and\n      dup2\n      mstore\n      0x20\n      add\n      swap1\n      dup2\n      mstore\n      0x20\n      add\n      0x00\n      keccak256\n        /* \"contracts/Practice.sol\":6694:6725  users[referrerAddress].x3Matrix */\n      0x05\n      add\n        /* \"contracts/Practice.sol\":6694:6732  users[referrerAddress].x3Matrix[level] */\n      0x00\n        /* \"contracts/Practice.sol\":6726:6731  level */\n      dup5\n        /* \"contracts/Practice.sol\":6694:6732  users[referrerAddress].x3Matrix[level] */\n      0xff\n      and\n      0xff\n      and\n      dup2\n      mstore\n      0x20\n      add\n      swap1\n      dup2\n      mstore\n      0x20\n      add\n      0x00\n      keccak256\n        /* \"contracts/Practice.sol\":6694:6748  users[referrerAddress].x3Matrix[level].currentReferrer */\n      0x00\n      add\n      0x00\n      swap1\n      sload\n      swap1\n      0x0100\n      exp\n      swap1\n      div\n      0xffffffffffffffffffffffffffffffffffffffff\n      and\n        /* \"contracts/Practice.sol\":6694:6771  users[referrerAddress].x3Matrix[level].currentReferrer != freeReferrerAddress */\n      0xffffffffffffffffffffffffffffffffffffffff\n      and\n      eq\n        /* \"contracts/Practice.sol\":6690:6882  if (users[referrerAddress].x3Matrix[level].currentReferrer != freeReferrerAddress) {... */\n      tag_231\n      jumpi\n        /* \"contracts/Practice.sol\":6848:6867  freeReferrerAddress */\n      dup1\n        /* \"contracts/Practice.sol\":6791:6796  users */\n      0x00\n        /* \"contracts/Practice.sol\":6791:6813  users[referrerAddress] */\n      dup1\n        /* \"contracts/Practice.sol\":6797:6812  referrerAddress */\n      dup6\n        /* \"contracts/Practice.sol\":6791:6813  users[referrerAddress] */\n      0xffffffffffffffffffffffffffffffffffffffff\n      and\n      0xffffffffffffffffffffffffffffffffffffffff\n      and\n      dup2\n      mstore\n      0x20\n      add\n      swap1\n      dup2\n      mstore\n      0x20\n      add\n      0x00\n      keccak256\n        /* \"contracts/Practice.sol\":6791:6822  users[referrerAddress].x3Matrix */\n      0x05\n      add\n        /* \"contracts/Practice.sol\":6791:6829  users[referrerAddress].x3Matrix[level] */\n      0x00\n        /* \"contracts/Practice.sol\":6823:6828  level */\n      dup5\n        /* \"contracts/Practice.sol\":6791:6829  users[referrerAddress].x3Matrix[level] */\n      0xff\n      and\n      0xff\n      and\n      dup2\n      mstore\n      0x20\n      add\n      swap1\n      dup2\n      mstore\n      0x20\n      add\n      0x00\n      keccak256\n        /* \"contracts/Practice.sol\":6791:6845  users[referrerAddress].x3Matrix[level].currentReferrer */\n      0x00\n      add\n      0x00\n        /* \"contracts/Practice.sol\":6791:6867  users[referrerAddress].x3Matrix[level].currentReferrer = freeReferrerAddress */\n      0x0100\n      exp\n      dup2\n      sload\n      dup2\n      0xffffffffffffffffffffffffffffffffffffffff\n      mul\n      not\n      and\n      swap1\n      dup4\n      0xffffffffffffffffffffffffffffffffffffffff\n      and\n      mul\n      or\n      swap1\n      sstore\n      pop\n        /* \"contracts/Practice.sol\":6690:6882  if (users[referrerAddress].x3Matrix[level].currentReferrer != freeReferrerAddress) {... */\n    tag_231:\n        /* \"contracts/Practice.sol\":6908:6913  users */\n      0x00\n        /* \"contracts/Practice.sol\":6908:6930  users[referrerAddress] */\n      dup1\n        /* \"contracts/Practice.sol\":6914:6929  referrerAddress */\n      dup5\n        /* \"contracts/Practice.sol\":6908:6930  users[referrerAddress] */\n      0xffffffffffffffffffffffffffffffffffffffff\n      and\n      0xffffffffffffffffffffffffffffffffffffffff\n      and\n      dup2\n      mstore\n      0x20\n      add\n      swap1\n      dup2\n      mstore\n      0x20\n      add\n      0x00\n      keccak256\n        /* \"contracts/Practice.sol\":6908:6939  users[referrerAddress].x3Matrix */\n      0x05\n      add\n        /* \"contracts/Practice.sol\":6908:6946  users[referrerAddress].x3Matrix[level] */\n      0x00\n        /* \"contracts/Practice.sol\":6940:6945  level */\n      dup4\n        /* \"contracts/Practice.sol\":6908:6946  users[referrerAddress].x3Matrix[level] */\n      0xff\n      and\n      0xff\n      and\n      dup2\n      mstore\n      0x20\n      add\n      swap1\n      dup2\n      mstore\n      0x20\n      add\n      0x00\n      keccak256\n        /* \"contracts/Practice.sol\":6908:6960  users[referrerAddress].x3Matrix[level].reinvestCount */\n      0x03\n      add\n      0x00\n        /* \"contracts/Practice.sol\":6908:6962  users[referrerAddress].x3Matrix[level].reinvestCount++ */\n      dup2\n      sload\n      dup1\n      swap3\n      swap2\n      swap1\n      tag_232\n      swap1\n      tag_141\n      jump\t// in\n    tag_232:\n      swap2\n      swap1\n      pop\n      sstore\n      pop\n        /* \"contracts/Practice.sol\":7028:7039  userAddress */\n      dup4\n        /* \"contracts/Practice.sol\":6981:7050  Reinvest(referrerAddress, freeReferrerAddress, userAddress, 1, level) */\n      0xffffffffffffffffffffffffffffffffffffffff\n      and\n        /* \"contracts/Practice.sol\":7007:7026  freeReferrerAddress */\n      dup2\n        /* \"contracts/Practice.sol\":6981:7050  Reinvest(referrerAddress, freeReferrerAddress, userAddress, 1, level) */\n      0xffffffffffffffffffffffffffffffffffffffff\n      and\n        /* \"contracts/Practice.sol\":6990:7005  referrerAddress */\n      dup5\n        /* \"contracts/Practice.sol\":6981:7050  Reinvest(referrerAddress, freeReferrerAddress, userAddress, 1, level) */\n      0xffffffffffffffffffffffffffffffffffffffff\n      and\n      0xa00c953eff38ec1b71e7fe060b2ab8df0bbe5354319fbdde4fbdafd6324386a6\n        /* \"contracts/Practice.sol\":7041:7042  1 */\n      0x01\n        /* \"contracts/Practice.sol\":7044:7049  level */\n      dup7\n        /* \"contracts/Practice.sol\":6981:7050  Reinvest(referrerAddress, freeReferrerAddress, userAddress, 1, level) */\n      mload(0x40)\n      tag_233\n      swap3\n      swap2\n      swap1\n      tag_191\n      jump\t// in\n    tag_233:\n      mload(0x40)\n      dup1\n      swap2\n      sub\n      swap1\n      log4\n        /* \"contracts/Practice.sol\":7064:7125  updateX3Referrer(referrerAddress, freeReferrerAddress, level) */\n      tag_234\n        /* \"contracts/Practice.sol\":7081:7096  referrerAddress */\n      dup4\n        /* \"contracts/Practice.sol\":7098:7117  freeReferrerAddress */\n      dup3\n        /* \"contracts/Practice.sol\":7119:7124  level */\n      dup5\n        /* \"contracts/Practice.sol\":7064:7080  updateX3Referrer */\n      tag_145\n        /* \"contracts/Practice.sol\":7064:7125  updateX3Referrer(referrerAddress, freeReferrerAddress, level) */\n      jump\t// in\n    tag_234:\n        /* \"contracts/Practice.sol\":6547:7136  {... */\n      pop\n        /* \"contracts/Practice.sol\":6517:7340  if (referrerAddress != owner) {... */\n      jump(tag_235)\n    tag_229:\n        /* \"contracts/Practice.sol\":7156:7202  sendETHDividends(owner, userAddress, 1, level) */\n      tag_236\n        /* \"contracts/Practice.sol\":7173:7178  owner */\n      0x05\n      0x00\n      swap1\n      sload\n      swap1\n      0x0100\n      exp\n      swap1\n      div\n      0xffffffffffffffffffffffffffffffffffffffff\n      and\n        /* \"contracts/Practice.sol\":7180:7191  userAddress */\n      dup5\n        /* \"contracts/Practice.sol\":7193:7194  1 */\n      0x01\n        /* \"contracts/Practice.sol\":7196:7201  level */\n      dup5\n        /* \"contracts/Practice.sol\":7156:7172  sendETHDividends */\n      tag_216\n        /* \"contracts/Practice.sol\":7156:7202  sendETHDividends(owner, userAddress, 1, level) */\n      jump\t// in\n    tag_236:\n        /* \"contracts/Practice.sol\":7216:7221  users */\n      0x00\n        /* \"contracts/Practice.sol\":7216:7228  users[owner] */\n      dup1\n        /* \"contracts/Practice.sol\":7222:7227  owner */\n      0x05\n      0x00\n      swap1\n      sload\n      swap1\n      0x0100\n      exp\n      swap1\n      div\n      0xffffffffffffffffffffffffffffffffffffffff\n      and\n        /* \"contracts/Practice.sol\":7216:7228  users[owner] */\n      0xffffffffffffffffffffffffffffffffffffffff\n      and\n      0xffffffffffffffffffffffffffffffffffffffff\n      and\n      dup2\n      mstore\n      0x20\n      add\n      swap1\n      dup2\n      mstore\n      0x20\n      add\n      0x00\n      keccak256\n        /* \"contracts/Practice.sol\":7216:7237  users[owner].x3Matrix */\n      0x05\n      add\n        /* \"contracts/Practice.sol\":7216:7244  users[owner].x3Matrix[level] */\n      0x00\n        /* \"contracts/Practice.sol\":7238:7243  level */\n      dup3\n        /* \"contracts/Practice.sol\":7216:7244  users[owner].x3Matrix[level] */\n      0xff\n      and\n      0xff\n      and\n      dup2\n      mstore\n      0x20\n      add\n      swap1\n      dup2\n      mstore\n      0x20\n      add\n      0x00\n      keccak256\n        /* \"contracts/Practice.sol\":7216:7258  users[owner].x3Matrix[level].reinvestCount */\n      0x03\n      add\n      0x00\n        /* \"contracts/Practice.sol\":7216:7260  users[owner].x3Matrix[level].reinvestCount++ */\n      dup2\n      sload\n      dup1\n      swap3\n      swap2\n      swap1\n      tag_237\n      swap1\n      tag_141\n      jump\t// in\n    tag_237:\n      swap2\n      swap1\n      pop\n      sstore\n      pop\n        /* \"contracts/Practice.sol\":7307:7318  userAddress */\n      dup3\n        /* \"contracts/Practice.sol\":7279:7329  Reinvest(owner, address(0), userAddress, 1, level) */\n      0xffffffffffffffffffffffffffffffffffffffff\n      and\n        /* \"contracts/Practice.sol\":7303:7304  0 */\n      0x00\n        /* \"contracts/Practice.sol\":7279:7329  Reinvest(owner, address(0), userAddress, 1, level) */\n      0xffffffffffffffffffffffffffffffffffffffff\n      and\n        /* \"contracts/Practice.sol\":7288:7293  owner */\n      0x05\n      0x00\n      swap1\n      sload\n      swap1\n      0x0100\n      exp\n      swap1\n      div\n      0xffffffffffffffffffffffffffffffffffffffff\n      and\n        /* \"contracts/Practice.sol\":7279:7329  Reinvest(owner, address(0), userAddress, 1, level) */\n      0xffffffffffffffffffffffffffffffffffffffff\n      and\n      0xa00c953eff38ec1b71e7fe060b2ab8df0bbe5354319fbdde4fbdafd6324386a6\n        /* \"contracts/Practice.sol\":7320:7321  1 */\n      0x01\n        /* \"contracts/Practice.sol\":7323:7328  level */\n      dup6\n        /* \"contracts/Practice.sol\":7279:7329  Reinvest(owner, address(0), userAddress, 1, level) */\n      mload(0x40)\n      tag_238\n      swap3\n      swap2\n      swap1\n      tag_191\n      jump\t// in\n    tag_238:\n      mload(0x40)\n      dup1\n      swap2\n      sub\n      swap1\n      log4\n        /* \"contracts/Practice.sol\":6517:7340  if (referrerAddress != owner) {... */\n    tag_235:\n        /* \"contracts/Practice.sol\":5657:7346  function updateX3Referrer(address userAddress, address referrerAddress, uint8 level) private {... */\n    tag_210:\n      pop\n      pop\n      pop\n      jump\t// out\n        /* \"contracts/Practice.sol\":7352:11429  function updateX6Referrer(address userAddress, address referrerAddress, uint8 level) private {... */\n    tag_148:\n        /* \"contracts/Practice.sol\":7463:7468  users */\n      0x00\n        /* \"contracts/Practice.sol\":7463:7485  users[referrerAddress] */\n      dup1\n        /* \"contracts/Practice.sol\":7469:7484  referrerAddress */\n      dup4\n        /* \"contracts/Practice.sol\":7463:7485  users[referrerAddress] */\n      0xffffffffffffffffffffffffffffffffffffffff\n      and\n      0xffffffffffffffffffffffffffffffffffffffff\n      and\n      dup2\n      mstore\n      0x20\n      add\n      swap1\n      dup2\n      mstore\n      0x20\n      add\n      0x00\n      keccak256\n        /* \"contracts/Practice.sol\":7463:7500  users[referrerAddress].activeX6Levels */\n      0x04\n      add\n        /* \"contracts/Practice.sol\":7463:7507  users[referrerAddress].activeX6Levels[level] */\n      0x00\n        /* \"contracts/Practice.sol\":7501:7506  level */\n      dup3\n        /* \"contracts/Practice.sol\":7463:7507  users[referrerAddress].activeX6Levels[level] */\n      0xff\n      and\n      0xff\n      and\n      dup2\n      mstore\n      0x20\n      add\n      swap1\n      dup2\n      mstore\n      0x20\n      add\n      0x00\n      keccak256\n      0x00\n      swap1\n      sload\n      swap1\n      0x0100\n      exp\n      swap1\n      div\n      0xff\n      and\n        /* \"contracts/Practice.sol\":7455:7538  require(users[referrerAddress].activeX6Levels[level], \"Referrer level is inactive\") */\n      tag_240\n      jumpi\n      mload(0x40)\n      0x08c379a000000000000000000000000000000000000000000000000000000000\n      dup2\n      mstore\n      0x04\n      add\n      tag_241\n      swap1\n      tag_242\n      jump\t// in\n    tag_241:\n      mload(0x40)\n      dup1\n      swap2\n      sub\n      swap1\n      revert\n    tag_240:\n        /* \"contracts/Practice.sol\":7629:7630  2 */\n      0x02\n        /* \"contracts/Practice.sol\":7561:7566  users */\n      0x00\n        /* \"contracts/Practice.sol\":7561:7583  users[referrerAddress] */\n      dup1\n        /* \"contracts/Practice.sol\":7567:7582  referrerAddress */\n      dup5\n        /* \"contracts/Practice.sol\":7561:7583  users[referrerAddress] */\n      0xffffffffffffffffffffffffffffffffffffffff\n      and\n      0xffffffffffffffffffffffffffffffffffffffff\n      and\n      dup2\n      mstore\n      0x20\n      add\n      swap1\n      dup2\n      mstore\n      0x20\n      add\n      0x00\n      keccak256\n        /* \"contracts/Practice.sol\":7561:7592  users[referrerAddress].x6Matrix */\n      0x06\n      add\n        /* \"contracts/Practice.sol\":7561:7599  users[referrerAddress].x6Matrix[level] */\n      0x00\n        /* \"contracts/Practice.sol\":7593:7598  level */\n      dup4\n        /* \"contracts/Practice.sol\":7561:7599  users[referrerAddress].x6Matrix[level] */\n      0xff\n      and\n      0xff\n      and\n      dup2\n      mstore\n      0x20\n      add\n      swap1\n      dup2\n      mstore\n      0x20\n      add\n      0x00\n      keccak256\n        /* \"contracts/Practice.sol\":7561:7619  users[referrerAddress].x6Matrix[level].firstLevelReferrals */\n      0x01\n      add\n        /* \"contracts/Practice.sol\":7561:7626  users[referrerAddress].x6Matrix[level].firstLevelReferrals.length */\n      dup1\n      sload\n      swap1\n      pop\n        /* \"contracts/Practice.sol\":7561:7630  users[referrerAddress].x6Matrix[level].firstLevelReferrals.length < 2 */\n      lt\n        /* \"contracts/Practice.sol\":7557:8696  if (users[referrerAddress].x6Matrix[level].firstLevelReferrals.length < 2) {... */\n      iszero\n      tag_243\n      jumpi\n        /* \"contracts/Practice.sol\":7646:7651  users */\n      0x00\n        /* \"contracts/Practice.sol\":7646:7668  users[referrerAddress] */\n      dup1\n        /* \"contracts/Practice.sol\":7652:7667  referrerAddress */\n      dup4\n        /* \"contracts/Practice.sol\":7646:7668  users[referrerAddress] */\n      0xffffffffffffffffffffffffffffffffffffffff\n      and\n      0xffffffffffffffffffffffffffffffffffffffff\n      and\n      dup2\n      mstore\n      0x20\n      add\n      swap1\n      dup2\n      mstore\n      0x20\n      add\n      0x00\n      keccak256\n        /* \"contracts/Practice.sol\":7646:7677  users[referrerAddress].x6Matrix */\n      0x06\n      add\n        /* \"contracts/Practice.sol\":7646:7684  users[referrerAddress].x6Matrix[level] */\n      0x00\n        /* \"contracts/Practice.sol\":7678:7683  level */\n      dup3\n        /* \"contracts/Practice.sol\":7646:7684  users[referrerAddress].x6Matrix[level] */\n      0xff\n      and\n      0xff\n      and\n      dup2\n      mstore\n      0x20\n      add\n      swap1\n      dup2\n      mstore\n      0x20\n      add\n      0x00\n      keccak256\n        /* \"contracts/Practice.sol\":7646:7704  users[referrerAddress].x6Matrix[level].firstLevelReferrals */\n      0x01\n      add\n        /* \"contracts/Practice.sol\":7710:7721  userAddress */\n      dup4\n        /* \"contracts/Practice.sol\":7646:7722  users[referrerAddress].x6Matrix[level].firstLevelReferrals.push(userAddress) */\n      swap1\n      dup1\n      0x01\n      dup2\n      sload\n      add\n      dup1\n      dup3\n      sstore\n      dup1\n      swap2\n      pop\n      pop\n      0x01\n      swap1\n      sub\n      swap1\n      0x00\n      mstore\n      keccak256(0x00, 0x20)\n      add\n      0x00\n      swap1\n      swap2\n      swap1\n      swap2\n      swap1\n      swap2\n      0x0100\n      exp\n      dup2\n      sload\n      dup2\n      0xffffffffffffffffffffffffffffffffffffffff\n      mul\n      not\n      and\n      swap1\n      dup4\n      0xffffffffffffffffffffffffffffffffffffffff\n      and\n      mul\n      or\n      swap1\n      sstore\n      pop\n        /* \"contracts/Practice.sol\":7767:7782  referrerAddress */\n      dup2\n        /* \"contracts/Practice.sol\":7741:7867  NewUserPlace(userAddress, referrerAddress, 2, level, uint8(users[referrerAddress].x6Matrix[level].firstLevelReferrals.length)) */\n      0xffffffffffffffffffffffffffffffffffffffff\n      and\n        /* \"contracts/Practice.sol\":7754:7765  userAddress */\n      dup4\n        /* \"contracts/Practice.sol\":7741:7867  NewUserPlace(userAddress, referrerAddress, 2, level, uint8(users[referrerAddress].x6Matrix[level].firstLevelReferrals.length)) */\n      0xffffffffffffffffffffffffffffffffffffffff\n      and\n      0x68062c5925c4317adf3a7095478d28b33fd8b41458bc7620b61bc46bf1b24d82\n        /* \"contracts/Practice.sol\":7784:7785  2 */\n      0x02\n        /* \"contracts/Practice.sol\":7787:7792  level */\n      dup5\n        /* \"contracts/Practice.sol\":7800:7805  users */\n      0x00\n        /* \"contracts/Practice.sol\":7800:7822  users[referrerAddress] */\n      dup1\n        /* \"contracts/Practice.sol\":7806:7821  referrerAddress */\n      dup9\n        /* \"contracts/Practice.sol\":7800:7822  users[referrerAddress] */\n      0xffffffffffffffffffffffffffffffffffffffff\n      and\n      0xffffffffffffffffffffffffffffffffffffffff\n      and\n      dup2\n      mstore\n      0x20\n      add\n      swap1\n      dup2\n      mstore\n      0x20\n      add\n      0x00\n      keccak256\n        /* \"contracts/Practice.sol\":7800:7831  users[referrerAddress].x6Matrix */\n      0x06\n      add\n        /* \"contracts/Practice.sol\":7800:7838  users[referrerAddress].x6Matrix[level] */\n      0x00\n        /* \"contracts/Practice.sol\":7832:7837  level */\n      dup8\n        /* \"contracts/Practice.sol\":7800:7838  users[referrerAddress].x6Matrix[level] */\n      0xff\n      and\n      0xff\n      and\n      dup2\n      mstore\n      0x20\n      add\n      swap1\n      dup2\n      mstore\n      0x20\n      add\n      0x00\n      keccak256\n        /* \"contracts/Practice.sol\":7800:7858  users[referrerAddress].x6Matrix[level].firstLevelReferrals */\n      0x01\n      add\n        /* \"contracts/Practice.sol\":7800:7865  users[referrerAddress].x6Matrix[level].firstLevelReferrals.length */\n      dup1\n      sload\n      swap1\n      pop\n        /* \"contracts/Practice.sol\":7741:7867  NewUserPlace(userAddress, referrerAddress, 2, level, uint8(users[referrerAddress].x6Matrix[level].firstLevelReferrals.length)) */\n      mload(0x40)\n      tag_245\n      swap4\n      swap3\n      swap2\n      swap1\n      tag_246\n      jump\t// in\n    tag_245:\n      mload(0x40)\n      dup1\n      swap2\n      sub\n      swap1\n      log3\n        /* \"contracts/Practice.sol\":7980:7995  referrerAddress */\n      dup2\n        /* \"contracts/Practice.sol\":7927:7932  users */\n      0x00\n        /* \"contracts/Practice.sol\":7927:7945  users[userAddress] */\n      dup1\n        /* \"contracts/Practice.sol\":7933:7944  userAddress */\n      dup6\n        /* \"contracts/Practice.sol\":7927:7945  users[userAddress] */\n      0xffffffffffffffffffffffffffffffffffffffff\n      and\n      0xffffffffffffffffffffffffffffffffffffffff\n      and\n      dup2\n      mstore\n      0x20\n      add\n      swap1\n      dup2\n      mstore\n      0x20\n      add\n      0x00\n      keccak256\n        /* \"contracts/Practice.sol\":7927:7954  users[userAddress].x6Matrix */\n      0x06\n      add\n        /* \"contracts/Practice.sol\":7927:7961  users[userAddress].x6Matrix[level] */\n      0x00\n        /* \"contracts/Practice.sol\":7955:7960  level */\n      dup4\n        /* \"contracts/Practice.sol\":7927:7961  users[userAddress].x6Matrix[level] */\n      0xff\n      and\n      0xff\n      and\n      dup2\n      mstore\n      0x20\n      add\n      swap1\n      dup2\n      mstore\n      0x20\n      add\n      0x00\n      keccak256\n        /* \"contracts/Practice.sol\":7927:7977  users[userAddress].x6Matrix[level].currentReferrer */\n      0x00\n      add\n      0x00\n        /* \"contracts/Practice.sol\":7927:7995  users[userAddress].x6Matrix[level].currentReferrer = referrerAddress */\n      0x0100\n      exp\n      dup2\n      sload\n      dup2\n      0xffffffffffffffffffffffffffffffffffffffff\n      mul\n      not\n      and\n      swap1\n      dup4\n      0xffffffffffffffffffffffffffffffffffffffff\n      and\n      mul\n      or\n      swap1\n      sstore\n      pop\n        /* \"contracts/Practice.sol\":8033:8038  owner */\n      0x05\n      0x00\n      swap1\n      sload\n      swap1\n      0x0100\n      exp\n      swap1\n      div\n      0xffffffffffffffffffffffffffffffffffffffff\n      and\n        /* \"contracts/Practice.sol\":8014:8038  referrerAddress == owner */\n      0xffffffffffffffffffffffffffffffffffffffff\n      and\n        /* \"contracts/Practice.sol\":8014:8029  referrerAddress */\n      dup3\n        /* \"contracts/Practice.sol\":8014:8038  referrerAddress == owner */\n      0xffffffffffffffffffffffffffffffffffffffff\n      and\n      sub\n        /* \"contracts/Practice.sol\":8010:8136  if (referrerAddress == owner) {... */\n      tag_247\n      jumpi\n        /* \"contracts/Practice.sol\":8065:8121  sendETHDividends(referrerAddress, userAddress, 2, level) */\n      tag_248\n        /* \"contracts/Practice.sol\":8082:8097  referrerAddress */\n      dup3\n        /* \"contracts/Practice.sol\":8099:8110  userAddress */\n      dup5\n        /* \"contracts/Practice.sol\":8112:8113  2 */\n      0x02\n        /* \"contracts/Practice.sol\":8115:8120  level */\n      dup5\n        /* \"contracts/Practice.sol\":8065:8081  sendETHDividends */\n      tag_216\n        /* \"contracts/Practice.sol\":8065:8121  sendETHDividends(referrerAddress, userAddress, 2, level) */\n      jump\t// in\n    tag_248:\n        /* \"contracts/Practice.sol\":8058:8121  return sendETHDividends(referrerAddress, userAddress, 2, level) */\n      jump(tag_239)\n        /* \"contracts/Practice.sol\":8010:8136  if (referrerAddress == owner) {... */\n    tag_247:\n        /* \"contracts/Practice.sol\":8162:8173  address ref */\n      0x00\n        /* \"contracts/Practice.sol\":8176:8181  users */\n      dup1\n        /* \"contracts/Practice.sol\":8176:8198  users[referrerAddress] */\n      0x00\n        /* \"contracts/Practice.sol\":8182:8197  referrerAddress */\n      dup5\n        /* \"contracts/Practice.sol\":8176:8198  users[referrerAddress] */\n      0xffffffffffffffffffffffffffffffffffffffff\n      and\n      0xffffffffffffffffffffffffffffffffffffffff\n      and\n      dup2\n      mstore\n      0x20\n      add\n      swap1\n      dup2\n      mstore\n      0x20\n      add\n      0x00\n      keccak256\n        /* \"contracts/Practice.sol\":8176:8207  users[referrerAddress].x6Matrix */\n      0x06\n      add\n        /* \"contracts/Practice.sol\":8176:8214  users[referrerAddress].x6Matrix[level] */\n      0x00\n        /* \"contracts/Practice.sol\":8208:8213  level */\n      dup4\n        /* \"contracts/Practice.sol\":8176:8214  users[referrerAddress].x6Matrix[level] */\n      0xff\n      and\n      0xff\n      and\n      dup2\n      mstore\n      0x20\n      add\n      swap1\n      dup2\n      mstore\n      0x20\n      add\n      0x00\n      keccak256\n        /* \"contracts/Practice.sol\":8176:8234  users[referrerAddress].x6Matrix[level].firstLevelReferrals */\n      0x01\n      add\n        /* \"contracts/Practice.sol\":8235:8236  0 */\n      0x00\n        /* \"contracts/Practice.sol\":8176:8237  users[referrerAddress].x6Matrix[level].firstLevelReferrals[0] */\n      dup2\n      sload\n      dup2\n      lt\n      tag_249\n      jumpi\n      tag_250\n      tag_251\n      jump\t// in\n    tag_250:\n    tag_249:\n      swap1\n      0x00\n      mstore\n      keccak256(0x00, 0x20)\n      add\n      0x00\n      swap1\n      sload\n      swap1\n      0x0100\n      exp\n      swap1\n      div\n      0xffffffffffffffffffffffffffffffffffffffff\n      and\n        /* \"contracts/Practice.sol\":8162:8237  address ref = users[referrerAddress].x6Matrix[level].firstLevelReferrals[0] */\n      swap1\n      pop\n        /* \"contracts/Practice.sol\":8312:8313  4 */\n      0x04\n        /* \"contracts/Practice.sol\":8255:8260  users */\n      0x00\n        /* \"contracts/Practice.sol\":8255:8265  users[ref] */\n      dup1\n        /* \"contracts/Practice.sol\":8261:8264  ref */\n      dup4\n        /* \"contracts/Practice.sol\":8255:8265  users[ref] */\n      0xffffffffffffffffffffffffffffffffffffffff\n      and\n      0xffffffffffffffffffffffffffffffffffffffff\n      and\n      dup2\n      mstore\n      0x20\n      add\n      swap1\n      dup2\n      mstore\n      0x20\n      add\n      0x00\n      keccak256\n        /* \"contracts/Practice.sol\":8255:8274  users[ref].x6Matrix */\n      0x06\n      add\n        /* \"contracts/Practice.sol\":8255:8281  users[ref].x6Matrix[level] */\n      0x00\n        /* \"contracts/Practice.sol\":8275:8280  level */\n      dup5\n        /* \"contracts/Practice.sol\":8255:8281  users[ref].x6Matrix[level] */\n      0xff\n      and\n      0xff\n      and\n      dup2\n      mstore\n      0x20\n      add\n      swap1\n      dup2\n      mstore\n      0x20\n      add\n      0x00\n      keccak256\n        /* \"contracts/Practice.sol\":8255:8302  users[ref].x6Matrix[level].secondLevelReferrals */\n      0x02\n      add\n        /* \"contracts/Practice.sol\":8255:8309  users[ref].x6Matrix[level].secondLevelReferrals.length */\n      dup1\n      sload\n      swap1\n      pop\n        /* \"contracts/Practice.sol\":8255:8313  users[ref].x6Matrix[level].secondLevelReferrals.length < 4 */\n      lt\n        /* \"contracts/Practice.sol\":8251:8612  if (users[ref].x6Matrix[level].secondLevelReferrals.length < 4) {... */\n      iszero\n      tag_253\n      jumpi\n        /* \"contracts/Practice.sol\":8333:8338  users */\n      0x00\n        /* \"contracts/Practice.sol\":8333:8343  users[ref] */\n      dup1\n        /* \"contracts/Practice.sol\":8339:8342  ref */\n      dup3\n        /* \"contracts/Practice.sol\":8333:8343  users[ref] */\n      0xffffffffffffffffffffffffffffffffffffffff\n      and\n      0xffffffffffffffffffffffffffffffffffffffff\n      and\n      dup2\n      mstore\n      0x20\n      add\n      swap1\n      dup2\n      mstore\n      0x20\n      add\n      0x00\n      keccak256\n        /* \"contracts/Practice.sol\":8333:8352  users[ref].x6Matrix */\n      0x06\n      add\n        /* \"contracts/Practice.sol\":8333:8359  users[ref].x6Matrix[level] */\n      0x00\n        /* \"contracts/Practice.sol\":8353:8358  level */\n      dup4\n        /* \"contracts/Practice.sol\":8333:8359  users[ref].x6Matrix[level] */\n      0xff\n      and\n      0xff\n      and\n      dup2\n      mstore\n      0x20\n      add\n      swap1\n      dup2\n      mstore\n      0x20\n      add\n      0x00\n      keccak256\n        /* \"contracts/Practice.sol\":8333:8380  users[ref].x6Matrix[level].secondLevelReferrals */\n      0x02\n      add\n        /* \"contracts/Practice.sol\":8386:8397  userAddress */\n      dup5\n        /* \"contracts/Practice.sol\":8333:8398  users[ref].x6Matrix[level].secondLevelReferrals.push(userAddress) */\n      swap1\n      dup1\n      0x01\n      dup2\n      sload\n      add\n      dup1\n      dup3\n      sstore\n      dup1\n      swap2\n      pop\n      pop\n      0x01\n      swap1\n      sub\n      swap1\n      0x00\n      mstore\n      keccak256(0x00, 0x20)\n      add\n      0x00\n      swap1\n      swap2\n      swap1\n      swap2\n      swap1\n      swap2\n      0x0100\n      exp\n      dup2\n      sload\n      dup2\n      0xffffffffffffffffffffffffffffffffffffffff\n      mul\n      not\n      and\n      swap1\n      dup4\n      0xffffffffffffffffffffffffffffffffffffffff\n      and\n      mul\n      or\n      swap1\n      sstore\n      pop\n        /* \"contracts/Practice.sol\":8447:8450  ref */\n      dup1\n        /* \"contracts/Practice.sol\":8421:8528  NewUserPlace(userAddress, ref, 2, level, uint8(users[ref].x6Matrix[level].secondLevelReferrals.length + 2)) */\n      0xffffffffffffffffffffffffffffffffffffffff\n      and\n        /* \"contracts/Practice.sol\":8434:8445  userAddress */\n      dup5\n        /* \"contracts/Practice.sol\":8421:8528  NewUserPlace(userAddress, ref, 2, level, uint8(users[ref].x6Matrix[level].secondLevelReferrals.length + 2)) */\n      0xffffffffffffffffffffffffffffffffffffffff\n      and\n      0x68062c5925c4317adf3a7095478d28b33fd8b41458bc7620b61bc46bf1b24d82\n        /* \"contracts/Practice.sol\":8452:8453  2 */\n      0x02\n        /* \"contracts/Practice.sol\":8455:8460  level */\n      dup6\n        /* \"contracts/Practice.sol\":8525:8526  2 */\n      0x02\n        /* \"contracts/Practice.sol\":8468:8473  users */\n      0x00\n        /* \"contracts/Practice.sol\":8468:8478  users[ref] */\n      dup1\n        /* \"contracts/Practice.sol\":8474:8477  ref */\n      dup9\n        /* \"contracts/Practice.sol\":8468:8478  users[ref] */\n      0xffffffffffffffffffffffffffffffffffffffff\n      and\n      0xffffffffffffffffffffffffffffffffffffffff\n      and\n      dup2\n      mstore\n      0x20\n      add\n      swap1\n      dup2\n      mstore\n      0x20\n      add\n      0x00\n      keccak256\n        /* \"contracts/Practice.sol\":8468:8487  users[ref].x6Matrix */\n      0x06\n      add\n        /* \"contracts/Practice.sol\":8468:8494  users[ref].x6Matrix[level] */\n      0x00\n        /* \"contracts/Practice.sol\":8488:8493  level */\n      dup10\n        /* \"contracts/Practice.sol\":8468:8494  users[ref].x6Matrix[level] */\n      0xff\n      and\n      0xff\n      and\n      dup2\n      mstore\n      0x20\n      add\n      swap1\n      dup2\n      mstore\n      0x20\n      add\n      0x00\n      keccak256\n        /* \"contracts/Practice.sol\":8468:8515  users[ref].x6Matrix[level].secondLevelReferrals */\n      0x02\n      add\n        /* \"contracts/Practice.sol\":8468:8522  users[ref].x6Matrix[level].secondLevelReferrals.length */\n      dup1\n      sload\n      swap1\n      pop\n        /* \"contracts/Practice.sol\":8468:8526  users[ref].x6Matrix[level].secondLevelReferrals.length + 2 */\n      tag_255\n      swap2\n      swap1\n      tag_256\n      jump\t// in\n    tag_255:\n        /* \"contracts/Practice.sol\":8421:8528  NewUserPlace(userAddress, ref, 2, level, uint8(users[ref].x6Matrix[level].secondLevelReferrals.length + 2)) */\n      mload(0x40)\n      tag_257\n      swap4\n      swap3\n      swap2\n      swap1\n      tag_246\n      jump\t// in\n    tag_257:\n      mload(0x40)\n      dup1\n      swap2\n      sub\n      swap1\n      log3\n        /* \"contracts/Practice.sol\":8553:8597  sendETHDividends(ref, userAddress, 2, level) */\n      tag_258\n        /* \"contracts/Practice.sol\":8570:8573  ref */\n      dup2\n        /* \"contracts/Practice.sol\":8575:8586  userAddress */\n      dup6\n        /* \"contracts/Practice.sol\":8588:8589  2 */\n      0x02\n        /* \"contracts/Practice.sol\":8591:8596  level */\n      dup6\n        /* \"contracts/Practice.sol\":8553:8569  sendETHDividends */\n      tag_216\n        /* \"contracts/Practice.sol\":8553:8597  sendETHDividends(ref, userAddress, 2, level) */\n      jump\t// in\n    tag_258:\n        /* \"contracts/Practice.sol\":8546:8597  return sendETHDividends(ref, userAddress, 2, level) */\n      pop\n      jump(tag_239)\n        /* \"contracts/Practice.sol\":8251:8612  if (users[ref].x6Matrix[level].secondLevelReferrals.length < 4) {... */\n    tag_253:\n        /* \"contracts/Practice.sol\":8633:8685  updateX6ReferrerSecondLevel(userAddress, ref, level) */\n      tag_259\n        /* \"contracts/Practice.sol\":8661:8672  userAddress */\n      dup5\n        /* \"contracts/Practice.sol\":8674:8677  ref */\n      dup3\n        /* \"contracts/Practice.sol\":8679:8684  level */\n      dup5\n        /* \"contracts/Practice.sol\":8633:8660  updateX6ReferrerSecondLevel */\n      tag_260\n        /* \"contracts/Practice.sol\":8633:8685  updateX6ReferrerSecondLevel(userAddress, ref, level) */\n      jump\t// in\n    tag_259:\n        /* \"contracts/Practice.sol\":8626:8685  return updateX6ReferrerSecondLevel(userAddress, ref, level) */\n      pop\n      jump(tag_239)\n        /* \"contracts/Practice.sol\":7557:8696  if (users[referrerAddress].x6Matrix[level].firstLevelReferrals.length < 2) {... */\n    tag_243:\n        /* \"contracts/Practice.sol\":8714:8719  users */\n      0x00\n        /* \"contracts/Practice.sol\":8714:8736  users[referrerAddress] */\n      dup1\n        /* \"contracts/Practice.sol\":8720:8735  referrerAddress */\n      dup4\n        /* \"contracts/Practice.sol\":8714:8736  users[referrerAddress] */\n      0xffffffffffffffffffffffffffffffffffffffff\n      and\n      0xffffffffffffffffffffffffffffffffffffffff\n      and\n      dup2\n      mstore\n      0x20\n      add\n      swap1\n      dup2\n      mstore\n      0x20\n      add\n      0x00\n      keccak256\n        /* \"contracts/Practice.sol\":8714:8745  users[referrerAddress].x6Matrix */\n      0x06\n      add\n        /* \"contracts/Practice.sol\":8714:8752  users[referrerAddress].x6Matrix[level] */\n      0x00\n        /* \"contracts/Practice.sol\":8746:8751  level */\n      dup3\n        /* \"contracts/Practice.sol\":8714:8752  users[referrerAddress].x6Matrix[level] */\n      0xff\n      and\n      0xff\n      and\n      dup2\n      mstore\n      0x20\n      add\n      swap1\n      dup2\n      mstore\n      0x20\n      add\n      0x00\n      keccak256\n        /* \"contracts/Practice.sol\":8714:8773  users[referrerAddress].x6Matrix[level].secondLevelReferrals */\n      0x02\n      add\n        /* \"contracts/Practice.sol\":8779:8790  userAddress */\n      dup4\n        /* \"contracts/Practice.sol\":8714:8791  users[referrerAddress].x6Matrix[level].secondLevelReferrals.push(userAddress) */\n      swap1\n      dup1\n      0x01\n      dup2\n      sload\n      add\n      dup1\n      dup3\n      sstore\n      dup1\n      swap2\n      pop\n      pop\n      0x01\n      swap1\n      sub\n      swap1\n      0x00\n      mstore\n      keccak256(0x00, 0x20)\n      add\n      0x00\n      swap1\n      swap2\n      swap1\n      swap2\n      swap1\n      swap2\n      0x0100\n      exp\n      dup2\n      sload\n      dup2\n      0xffffffffffffffffffffffffffffffffffffffff\n      mul\n      not\n      and\n      swap1\n      dup4\n      0xffffffffffffffffffffffffffffffffffffffff\n      and\n      mul\n      or\n      swap1\n      sstore\n      pop\n        /* \"contracts/Practice.sol\":8867:8868  0 */\n      0x00\n        /* \"contracts/Practice.sol\":8806:8869  users[referrerAddress].x6Matrix[level].closedPart != address(0) */\n      0xffffffffffffffffffffffffffffffffffffffff\n      and\n        /* \"contracts/Practice.sol\":8806:8811  users */\n      0x00\n        /* \"contracts/Practice.sol\":8806:8828  users[referrerAddress] */\n      dup1\n        /* \"contracts/Practice.sol\":8812:8827  referrerAddress */\n      dup5\n        /* \"contracts/Practice.sol\":8806:8828  users[referrerAddress] */\n      0xffffffffffffffffffffffffffffffffffffffff\n      and\n      0xffffffffffffffffffffffffffffffffffffffff\n      and\n      dup2\n      mstore\n      0x20\n      add\n      swap1\n      dup2\n      mstore\n      0x20\n      add\n      0x00\n      keccak256\n        /* \"contracts/Practice.sol\":8806:8837  users[referrerAddress].x6Matrix */\n      0x06\n      add\n        /* \"contracts/Practice.sol\":8806:8844  users[referrerAddress].x6Matrix[level] */\n      0x00\n        /* \"contracts/Practice.sol\":8838:8843  level */\n      dup4\n        /* \"contracts/Practice.sol\":8806:8844  users[referrerAddress].x6Matrix[level] */\n      0xff\n      and\n      0xff\n      and\n      dup2\n      mstore\n      0x20\n      add\n      swap1\n      dup2\n      mstore\n      0x20\n      add\n      0x00\n      keccak256\n        /* \"contracts/Practice.sol\":8806:8855  users[referrerAddress].x6Matrix[level].closedPart */\n      0x05\n      add\n      0x00\n      swap1\n      sload\n      swap1\n      0x0100\n      exp\n      swap1\n      div\n      0xffffffffffffffffffffffffffffffffffffffff\n      and\n        /* \"contracts/Practice.sol\":8806:8869  users[referrerAddress].x6Matrix[level].closedPart != address(0) */\n      0xffffffffffffffffffffffffffffffffffffffff\n      and\n      eq\n        /* \"contracts/Practice.sol\":8802:9868  if (users[referrerAddress].x6Matrix[level].closedPart != address(0)) {... */\n      tag_262\n      jumpi\n        /* \"contracts/Practice.sol\":8972:8977  users */\n      0x00\n        /* \"contracts/Practice.sol\":8972:8994  users[referrerAddress] */\n      dup1\n        /* \"contracts/Practice.sol\":8978:8993  referrerAddress */\n      dup4\n        /* \"contracts/Practice.sol\":8972:8994  users[referrerAddress] */\n      0xffffffffffffffffffffffffffffffffffffffff\n      and\n      0xffffffffffffffffffffffffffffffffffffffff\n      and\n      dup2\n      mstore\n      0x20\n      add\n      swap1\n      dup2\n      mstore\n      0x20\n      add\n      0x00\n      keccak256\n        /* \"contracts/Practice.sol\":8972:9003  users[referrerAddress].x6Matrix */\n      0x06\n      add\n        /* \"contracts/Practice.sol\":8972:9010  users[referrerAddress].x6Matrix[level] */\n      0x00\n        /* \"contracts/Practice.sol\":9004:9009  level */\n      dup3\n        /* \"contracts/Practice.sol\":8972:9010  users[referrerAddress].x6Matrix[level] */\n      0xff\n      and\n      0xff\n      and\n      dup2\n      mstore\n      0x20\n      add\n      swap1\n      dup2\n      mstore\n      0x20\n      add\n      0x00\n      keccak256\n        /* \"contracts/Practice.sol\":8972:9030  users[referrerAddress].x6Matrix[level].firstLevelReferrals */\n      0x01\n      add\n        /* \"contracts/Practice.sol\":9031:9032  1 */\n      0x01\n        /* \"contracts/Practice.sol\":8972:9033  users[referrerAddress].x6Matrix[level].firstLevelReferrals[1] */\n      dup2\n      sload\n      dup2\n      lt\n      tag_263\n      jumpi\n      tag_264\n      tag_251\n      jump\t// in\n    tag_264:\n    tag_263:\n      swap1\n      0x00\n      mstore\n      keccak256(0x00, 0x20)\n      add\n      0x00\n      swap1\n      sload\n      swap1\n      0x0100\n      exp\n      swap1\n      div\n      0xffffffffffffffffffffffffffffffffffffffff\n      and\n        /* \"contracts/Practice.sol\":8890:9033  users[referrerAddress].x6Matrix[level].firstLevelReferrals[0] == ... */\n      0xffffffffffffffffffffffffffffffffffffffff\n      and\n        /* \"contracts/Practice.sol\":8890:8895  users */\n      0x00\n        /* \"contracts/Practice.sol\":8890:8912  users[referrerAddress] */\n      dup1\n        /* \"contracts/Practice.sol\":8896:8911  referrerAddress */\n      dup5\n        /* \"contracts/Practice.sol\":8890:8912  users[referrerAddress] */\n      0xffffffffffffffffffffffffffffffffffffffff\n      and\n      0xffffffffffffffffffffffffffffffffffffffff\n      and\n      dup2\n      mstore\n      0x20\n      add\n      swap1\n      dup2\n      mstore\n      0x20\n      add\n      0x00\n      keccak256\n        /* \"contracts/Practice.sol\":8890:8921  users[referrerAddress].x6Matrix */\n      0x06\n      add\n        /* \"contracts/Practice.sol\":8890:8928  users[referrerAddress].x6Matrix[level] */\n      0x00\n        /* \"contracts/Practice.sol\":8922:8927  level */\n      dup4\n        /* \"contracts/Practice.sol\":8890:8928  users[referrerAddress].x6Matrix[level] */\n      0xff\n      and\n      0xff\n      and\n      dup2\n      mstore\n      0x20\n      add\n      swap1\n      dup2\n      mstore\n      0x20\n      add\n      0x00\n      keccak256\n        /* \"contracts/Practice.sol\":8890:8948  users[referrerAddress].x6Matrix[level].firstLevelReferrals */\n      0x01\n      add\n        /* \"contracts/Practice.sol\":8949:8950  0 */\n      0x00\n        /* \"contracts/Practice.sol\":8890:8951  users[referrerAddress].x6Matrix[level].firstLevelReferrals[0] */\n      dup2\n      sload\n      dup2\n      lt\n      tag_266\n      jumpi\n      tag_267\n      tag_251\n      jump\t// in\n    tag_267:\n    tag_266:\n      swap1\n      0x00\n      mstore\n      keccak256(0x00, 0x20)\n      add\n      0x00\n      swap1\n      sload\n      swap1\n      0x0100\n      exp\n      swap1\n      div\n      0xffffffffffffffffffffffffffffffffffffffff\n      and\n        /* \"contracts/Practice.sol\":8890:9033  users[referrerAddress].x6Matrix[level].firstLevelReferrals[0] == ... */\n      0xffffffffffffffffffffffffffffffffffffffff\n      and\n      eq\n        /* \"contracts/Practice.sol\":8889:9186  (users[referrerAddress].x6Matrix[level].firstLevelReferrals[0] == ... */\n      dup1\n      iszero\n      tag_269\n      jumpi\n      pop\n        /* \"contracts/Practice.sol\":9136:9141  users */\n      0x00\n        /* \"contracts/Practice.sol\":9136:9158  users[referrerAddress] */\n      dup1\n        /* \"contracts/Practice.sol\":9142:9157  referrerAddress */\n      dup4\n        /* \"contracts/Practice.sol\":9136:9158  users[referrerAddress] */\n      0xffffffffffffffffffffffffffffffffffffffff\n      and\n      0xffffffffffffffffffffffffffffffffffffffff\n      and\n      dup2\n      mstore\n      0x20\n      add\n      swap1\n      dup2\n      mstore\n      0x20\n      add\n      0x00\n      keccak256\n        /* \"contracts/Practice.sol\":9136:9167  users[referrerAddress].x6Matrix */\n      0x06\n      add\n        /* \"contracts/Practice.sol\":9136:9174  users[referrerAddress].x6Matrix[level] */\n      0x00\n        /* \"contracts/Practice.sol\":9168:9173  level */\n      dup3\n        /* \"contracts/Practice.sol\":9136:9174  users[referrerAddress].x6Matrix[level] */\n      0xff\n      and\n      0xff\n      and\n      dup2\n      mstore\n      0x20\n      add\n      swap1\n      dup2\n      mstore\n      0x20\n      add\n      0x00\n      keccak256\n        /* \"contracts/Practice.sol\":9136:9185  users[referrerAddress].x6Matrix[level].closedPart */\n      0x05\n      add\n      0x00\n      swap1\n      sload\n      swap1\n      0x0100\n      exp\n      swap1\n      div\n      0xffffffffffffffffffffffffffffffffffffffff\n      and\n        /* \"contracts/Practice.sol\":9055:9185  users[referrerAddress].x6Matrix[level].firstLevelReferrals[0] ==... */\n      0xffffffffffffffffffffffffffffffffffffffff\n      and\n        /* \"contracts/Practice.sol\":9055:9060  users */\n      0x00\n        /* \"contracts/Practice.sol\":9055:9077  users[referrerAddress] */\n      dup1\n        /* \"contracts/Practice.sol\":9061:9076  referrerAddress */\n      dup5\n        /* \"contracts/Practice.sol\":9055:9077  users[referrerAddress] */\n      0xffffffffffffffffffffffffffffffffffffffff\n      and\n      0xffffffffffffffffffffffffffffffffffffffff\n      and\n      dup2\n      mstore\n      0x20\n      add\n      swap1\n      dup2\n      mstore\n      0x20\n      add\n      0x00\n      keccak256\n        /* \"contracts/Practice.sol\":9055:9086  users[referrerAddress].x6Matrix */\n      0x06\n      add\n        /* \"contracts/Practice.sol\":9055:9093  users[referrerAddress].x6Matrix[level] */\n      0x00\n        /* \"contracts/Practice.sol\":9087:9092  level */\n      dup4\n        /* \"contracts/Practice.sol\":9055:9093  users[referrerAddress].x6Matrix[level] */\n      0xff\n      and\n      0xff\n      and\n      dup2\n      mstore\n      0x20\n      add\n      swap1\n      dup2\n      mstore\n      0x20\n      add\n      0x00\n      keccak256\n        /* \"contracts/Practice.sol\":9055:9113  users[referrerAddress].x6Matrix[level].firstLevelReferrals */\n      0x01\n      add\n        /* \"contracts/Practice.sol\":9114:9115  0 */\n      0x00\n        /* \"contracts/Practice.sol\":9055:9116  users[referrerAddress].x6Matrix[level].firstLevelReferrals[0] */\n      dup2\n      sload\n      dup2\n      lt\n      tag_270\n      jumpi\n      tag_271\n      tag_251\n      jump\t// in\n    tag_271:\n    tag_270:\n      swap1\n      0x00\n      mstore\n      keccak256(0x00, 0x20)\n      add\n      0x00\n      swap1\n      sload\n      swap1\n      0x0100\n      exp\n      swap1\n      div\n      0xffffffffffffffffffffffffffffffffffffffff\n      and\n        /* \"contracts/Practice.sol\":9055:9185  users[referrerAddress].x6Matrix[level].firstLevelReferrals[0] ==... */\n      0xffffffffffffffffffffffffffffffffffffffff\n      and\n      eq\n        /* \"contracts/Practice.sol\":8889:9186  (users[referrerAddress].x6Matrix[level].firstLevelReferrals[0] == ... */\n    tag_269:\n        /* \"contracts/Practice.sol\":8885:9858  if ((users[referrerAddress].x6Matrix[level].firstLevelReferrals[0] == ... */\n      iszero\n      tag_273\n      jumpi\n        /* \"contracts/Practice.sol\":9207:9258  updateX6(userAddress, referrerAddress, level, true) */\n      tag_274\n        /* \"contracts/Practice.sol\":9216:9227  userAddress */\n      dup4\n        /* \"contracts/Practice.sol\":9229:9244  referrerAddress */\n      dup4\n        /* \"contracts/Practice.sol\":9246:9251  level */\n      dup4\n        /* \"contracts/Practice.sol\":9253:9257  true */\n      0x01\n        /* \"contracts/Practice.sol\":9207:9215  updateX6 */\n      tag_275\n        /* \"contracts/Practice.sol\":9207:9258  updateX6(userAddress, referrerAddress, level, true) */\n      jump\t// in\n    tag_274:\n        /* \"contracts/Practice.sol\":9283:9347  updateX6ReferrerSecondLevel(userAddress, referrerAddress, level) */\n      tag_276\n        /* \"contracts/Practice.sol\":9311:9322  userAddress */\n      dup4\n        /* \"contracts/Practice.sol\":9324:9339  referrerAddress */\n      dup4\n        /* \"contracts/Practice.sol\":9341:9346  level */\n      dup4\n        /* \"contracts/Practice.sol\":9283:9310  updateX6ReferrerSecondLevel */\n      tag_260\n        /* \"contracts/Practice.sol\":9283:9347  updateX6ReferrerSecondLevel(userAddress, referrerAddress, level) */\n      jump\t// in\n    tag_276:\n        /* \"contracts/Practice.sol\":9276:9347  return updateX6ReferrerSecondLevel(userAddress, referrerAddress, level) */\n      jump(tag_239)\n        /* \"contracts/Practice.sol\":8885:9858  if ((users[referrerAddress].x6Matrix[level].firstLevelReferrals[0] == ... */\n    tag_273:\n        /* \"contracts/Practice.sol\":9454:9459  users */\n      0x00\n        /* \"contracts/Practice.sol\":9454:9476  users[referrerAddress] */\n      dup1\n        /* \"contracts/Practice.sol\":9460:9475  referrerAddress */\n      dup4\n        /* \"contracts/Practice.sol\":9454:9476  users[referrerAddress] */\n      0xffffffffffffffffffffffffffffffffffffffff\n      and\n      0xffffffffffffffffffffffffffffffffffffffff\n      and\n      dup2\n      mstore\n      0x20\n      add\n      swap1\n      dup2\n      mstore\n      0x20\n      add\n      0x00\n      keccak256\n        /* \"contracts/Practice.sol\":9454:9485  users[referrerAddress].x6Matrix */\n      0x06\n      add\n        /* \"contracts/Practice.sol\":9454:9492  users[referrerAddress].x6Matrix[level] */\n      0x00\n        /* \"contracts/Practice.sol\":9486:9491  level */\n      dup3\n        /* \"contracts/Practice.sol\":9454:9492  users[referrerAddress].x6Matrix[level] */\n      0xff\n      and\n      0xff\n      and\n      dup2\n      mstore\n      0x20\n      add\n      swap1\n      dup2\n      mstore\n      0x20\n      add\n      0x00\n      keccak256\n        /* \"contracts/Practice.sol\":9454:9503  users[referrerAddress].x6Matrix[level].closedPart */\n      0x05\n      add\n      0x00\n      swap1\n      sload\n      swap1\n      0x0100\n      exp\n      swap1\n      div\n      0xffffffffffffffffffffffffffffffffffffffff\n      and\n        /* \"contracts/Practice.sol\":9372:9503  users[referrerAddress].x6Matrix[level].firstLevelReferrals[0] == ... */\n      0xffffffffffffffffffffffffffffffffffffffff\n      and\n        /* \"contracts/Practice.sol\":9372:9377  users */\n      0x00\n        /* \"contracts/Practice.sol\":9372:9394  users[referrerAddress] */\n      dup1\n        /* \"contracts/Practice.sol\":9378:9393  referrerAddress */\n      dup5\n        /* \"contracts/Practice.sol\":9372:9394  users[referrerAddress] */\n      0xffffffffffffffffffffffffffffffffffffffff\n      and\n      0xffffffffffffffffffffffffffffffffffffffff\n      and\n      dup2\n      mstore\n      0x20\n      add\n      swap1\n      dup2\n      mstore\n      0x20\n      add\n      0x00\n      keccak256\n        /* \"contracts/Practice.sol\":9372:9403  users[referrerAddress].x6Matrix */\n      0x06\n      add\n        /* \"contracts/Practice.sol\":9372:9410  users[referrerAddress].x6Matrix[level] */\n      0x00\n        /* \"contracts/Practice.sol\":9404:9409  level */\n      dup4\n        /* \"contracts/Practice.sol\":9372:9410  users[referrerAddress].x6Matrix[level] */\n      0xff\n      and\n      0xff\n      and\n      dup2\n      mstore\n      0x20\n      add\n      swap1\n      dup2\n      mstore\n      0x20\n      add\n      0x00\n      keccak256\n        /* \"contracts/Practice.sol\":9372:9430  users[referrerAddress].x6Matrix[level].firstLevelReferrals */\n      0x01\n      add\n        /* \"contracts/Practice.sol\":9431:9432  0 */\n      0x00\n        /* \"contracts/Practice.sol\":9372:9433  users[referrerAddress].x6Matrix[level].firstLevelReferrals[0] */\n      dup2\n      sload\n      dup2\n      lt\n      tag_278\n      jumpi\n      tag_279\n      tag_251\n      jump\t// in\n    tag_279:\n    tag_278:\n      swap1\n      0x00\n      mstore\n      keccak256(0x00, 0x20)\n      add\n      0x00\n      swap1\n      sload\n      swap1\n      0x0100\n      exp\n      swap1\n      div\n      0xffffffffffffffffffffffffffffffffffffffff\n      and\n        /* \"contracts/Practice.sol\":9372:9503  users[referrerAddress].x6Matrix[level].firstLevelReferrals[0] == ... */\n      0xffffffffffffffffffffffffffffffffffffffff\n      and\n      sub\n        /* \"contracts/Practice.sol\":9368:9858  if (users[referrerAddress].x6Matrix[level].firstLevelReferrals[0] == ... */\n      tag_281\n      jumpi\n        /* \"contracts/Practice.sol\":9523:9574  updateX6(userAddress, referrerAddress, level, true) */\n      tag_282\n        /* \"contracts/Practice.sol\":9532:9543  userAddress */\n      dup4\n        /* \"contracts/Practice.sol\":9545:9560  referrerAddress */\n      dup4\n        /* \"contracts/Practice.sol\":9562:9567  level */\n      dup4\n        /* \"contracts/Practice.sol\":9569:9573  true */\n      0x01\n        /* \"contracts/Practice.sol\":9523:9531  updateX6 */\n      tag_275\n        /* \"contracts/Practice.sol\":9523:9574  updateX6(userAddress, referrerAddress, level, true) */\n      jump\t// in\n    tag_282:\n        /* \"contracts/Practice.sol\":9599:9663  updateX6ReferrerSecondLevel(userAddress, referrerAddress, level) */\n      tag_283\n        /* \"contracts/Practice.sol\":9627:9638  userAddress */\n      dup4\n        /* \"contracts/Practice.sol\":9640:9655  referrerAddress */\n      dup4\n        /* \"contracts/Practice.sol\":9657:9662  level */\n      dup4\n        /* \"contracts/Practice.sol\":9599:9626  updateX6ReferrerSecondLevel */\n      tag_260\n        /* \"contracts/Practice.sol\":9599:9663  updateX6ReferrerSecondLevel(userAddress, referrerAddress, level) */\n      jump\t// in\n    tag_283:\n        /* \"contracts/Practice.sol\":9592:9663  return updateX6ReferrerSecondLevel(userAddress, referrerAddress, level) */\n      jump(tag_239)\n        /* \"contracts/Practice.sol\":9368:9858  if (users[referrerAddress].x6Matrix[level].firstLevelReferrals[0] == ... */\n    tag_281:\n        /* \"contracts/Practice.sol\":9702:9754  updateX6(userAddress, referrerAddress, level, false) */\n      tag_285\n        /* \"contracts/Practice.sol\":9711:9722  userAddress */\n      dup4\n        /* \"contracts/Practice.sol\":9724:9739  referrerAddress */\n      dup4\n        /* \"contracts/Practice.sol\":9741:9746  level */\n      dup4\n        /* \"contracts/Practice.sol\":9748:9753  false */\n      0x00\n        /* \"contracts/Practice.sol\":9702:9710  updateX6 */\n      tag_275\n        /* \"contracts/Practice.sol\":9702:9754  updateX6(userAddress, referrerAddress, level, false) */\n      jump\t// in\n    tag_285:\n        /* \"contracts/Practice.sol\":9779:9843  updateX6ReferrerSecondLevel(userAddress, referrerAddress, level) */\n      tag_286\n        /* \"contracts/Practice.sol\":9807:9818  userAddress */\n      dup4\n        /* \"contracts/Practice.sol\":9820:9835  referrerAddress */\n      dup4\n        /* \"contracts/Practice.sol\":9837:9842  level */\n      dup4\n        /* \"contracts/Practice.sol\":9779:9806  updateX6ReferrerSecondLevel */\n      tag_260\n        /* \"contracts/Practice.sol\":9779:9843  updateX6ReferrerSecondLevel(userAddress, referrerAddress, level) */\n      jump\t// in\n    tag_286:\n        /* \"contracts/Practice.sol\":9772:9843  return updateX6ReferrerSecondLevel(userAddress, referrerAddress, level) */\n      jump(tag_239)\n        /* \"contracts/Practice.sol\":8802:9868  if (users[referrerAddress].x6Matrix[level].closedPart != address(0)) {... */\n    tag_262:\n        /* \"contracts/Practice.sol\":9947:9958  userAddress */\n      dup3\n        /* \"contracts/Practice.sol\":9882:9958  users[referrerAddress].x6Matrix[level].firstLevelReferrals[1] == userAddress */\n      0xffffffffffffffffffffffffffffffffffffffff\n      and\n        /* \"contracts/Practice.sol\":9882:9887  users */\n      0x00\n        /* \"contracts/Practice.sol\":9882:9904  users[referrerAddress] */\n      dup1\n        /* \"contracts/Practice.sol\":9888:9903  referrerAddress */\n      dup5\n        /* \"contracts/Practice.sol\":9882:9904  users[referrerAddress] */\n      0xffffffffffffffffffffffffffffffffffffffff\n      and\n      0xffffffffffffffffffffffffffffffffffffffff\n      and\n      dup2\n      mstore\n      0x20\n      add\n      swap1\n      dup2\n      mstore\n      0x20\n      add\n      0x00\n      keccak256\n        /* \"contracts/Practice.sol\":9882:9913  users[referrerAddress].x6Matrix */\n      0x06\n      add\n        /* \"contracts/Practice.sol\":9882:9920  users[referrerAddress].x6Matrix[level] */\n      0x00\n        /* \"contracts/Practice.sol\":9914:9919  level */\n      dup4\n        /* \"contracts/Practice.sol\":9882:9920  users[referrerAddress].x6Matrix[level] */\n      0xff\n      and\n      0xff\n      and\n      dup2\n      mstore\n      0x20\n      add\n      swap1\n      dup2\n      mstore\n      0x20\n      add\n      0x00\n      keccak256\n        /* \"contracts/Practice.sol\":9882:9940  users[referrerAddress].x6Matrix[level].firstLevelReferrals */\n      0x01\n      add\n        /* \"contracts/Practice.sol\":9941:9942  1 */\n      0x01\n        /* \"contracts/Practice.sol\":9882:9943  users[referrerAddress].x6Matrix[level].firstLevelReferrals[1] */\n      dup2\n      sload\n      dup2\n      lt\n      tag_287\n      jumpi\n      tag_288\n      tag_251\n      jump\t// in\n    tag_288:\n    tag_287:\n      swap1\n      0x00\n      mstore\n      keccak256(0x00, 0x20)\n      add\n      0x00\n      swap1\n      sload\n      swap1\n      0x0100\n      exp\n      swap1\n      div\n      0xffffffffffffffffffffffffffffffffffffffff\n      and\n        /* \"contracts/Practice.sol\":9882:9958  users[referrerAddress].x6Matrix[level].firstLevelReferrals[1] == userAddress */\n      0xffffffffffffffffffffffffffffffffffffffff\n      and\n      sub\n        /* \"contracts/Practice.sol\":9878:10371  if (users[referrerAddress].x6Matrix[level].firstLevelReferrals[1] == userAddress) {... */\n      tag_290\n      jumpi\n        /* \"contracts/Practice.sol\":9974:10026  updateX6(userAddress, referrerAddress, level, false) */\n      tag_291\n        /* \"contracts/Practice.sol\":9983:9994  userAddress */\n      dup4\n        /* \"contracts/Practice.sol\":9996:10011  referrerAddress */\n      dup4\n        /* \"contracts/Practice.sol\":10013:10018  level */\n      dup4\n        /* \"contracts/Practice.sol\":10020:10025  false */\n      0x00\n        /* \"contracts/Practice.sol\":9974:9982  updateX6 */\n      tag_275\n        /* \"contracts/Practice.sol\":9974:10026  updateX6(userAddress, referrerAddress, level, false) */\n      jump\t// in\n    tag_291:\n        /* \"contracts/Practice.sol\":10047:10111  updateX6ReferrerSecondLevel(userAddress, referrerAddress, level) */\n      tag_292\n        /* \"contracts/Practice.sol\":10075:10086  userAddress */\n      dup4\n        /* \"contracts/Practice.sol\":10088:10103  referrerAddress */\n      dup4\n        /* \"contracts/Practice.sol\":10105:10110  level */\n      dup4\n        /* \"contracts/Practice.sol\":10047:10074  updateX6ReferrerSecondLevel */\n      tag_260\n        /* \"contracts/Practice.sol\":10047:10111  updateX6ReferrerSecondLevel(userAddress, referrerAddress, level) */\n      jump\t// in\n    tag_292:\n        /* \"contracts/Practice.sol\":10040:10111  return updateX6ReferrerSecondLevel(userAddress, referrerAddress, level) */\n      jump(tag_239)\n        /* \"contracts/Practice.sol\":9878:10371  if (users[referrerAddress].x6Matrix[level].firstLevelReferrals[1] == userAddress) {... */\n    tag_290:\n        /* \"contracts/Practice.sol\":10197:10208  userAddress */\n      dup3\n        /* \"contracts/Practice.sol\":10132:10208  users[referrerAddress].x6Matrix[level].firstLevelReferrals[0] == userAddress */\n      0xffffffffffffffffffffffffffffffffffffffff\n      and\n        /* \"contracts/Practice.sol\":10132:10137  users */\n      0x00\n        /* \"contracts/Practice.sol\":10132:10154  users[referrerAddress] */\n      dup1\n        /* \"contracts/Practice.sol\":10138:10153  referrerAddress */\n      dup5\n        /* \"contracts/Practice.sol\":10132:10154  users[referrerAddress] */\n      0xffffffffffffffffffffffffffffffffffffffff\n      and\n      0xffffffffffffffffffffffffffffffffffffffff\n      and\n      dup2\n      mstore\n      0x20\n      add\n      swap1\n      dup2\n      mstore\n      0x20\n      add\n      0x00\n      keccak256\n        /* \"contracts/Practice.sol\":10132:10163  users[referrerAddress].x6Matrix */\n      0x06\n      add\n        /* \"contracts/Practice.sol\":10132:10170  users[referrerAddress].x6Matrix[level] */\n      0x00\n        /* \"contracts/Practice.sol\":10164:10169  level */\n      dup4\n        /* \"contracts/Practice.sol\":10132:10170  users[referrerAddress].x6Matrix[level] */\n      0xff\n      and\n      0xff\n      and\n      dup2\n      mstore\n      0x20\n      add\n      swap1\n      dup2\n      mstore\n      0x20\n      add\n      0x00\n      keccak256\n        /* \"contracts/Practice.sol\":10132:10190  users[referrerAddress].x6Matrix[level].firstLevelReferrals */\n      0x01\n      add\n        /* \"contracts/Practice.sol\":10191:10192  0 */\n      0x00\n        /* \"contracts/Practice.sol\":10132:10193  users[referrerAddress].x6Matrix[level].firstLevelReferrals[0] */\n      dup2\n      sload\n      dup2\n      lt\n      tag_294\n      jumpi\n      tag_295\n      tag_251\n      jump\t// in\n    tag_295:\n    tag_294:\n      swap1\n      0x00\n      mstore\n      keccak256(0x00, 0x20)\n      add\n      0x00\n      swap1\n      sload\n      swap1\n      0x0100\n      exp\n      swap1\n      div\n      0xffffffffffffffffffffffffffffffffffffffff\n      and\n        /* \"contracts/Practice.sol\":10132:10208  users[referrerAddress].x6Matrix[level].firstLevelReferrals[0] == userAddress */\n      0xffffffffffffffffffffffffffffffffffffffff\n      and\n      sub\n        /* \"contracts/Practice.sol\":10128:10371  if (users[referrerAddress].x6Matrix[level].firstLevelReferrals[0] == userAddress) {... */\n      tag_297\n      jumpi\n        /* \"contracts/Practice.sol\":10224:10275  updateX6(userAddress, referrerAddress, level, true) */\n      tag_298\n        /* \"contracts/Practice.sol\":10233:10244  userAddress */\n      dup4\n        /* \"contracts/Practice.sol\":10246:10261  referrerAddress */\n      dup4\n        /* \"contracts/Practice.sol\":10263:10268  level */\n      dup4\n        /* \"contracts/Practice.sol\":10270:10274  true */\n      0x01\n        /* \"contracts/Practice.sol\":10224:10232  updateX6 */\n      tag_275\n        /* \"contracts/Practice.sol\":10224:10275  updateX6(userAddress, referrerAddress, level, true) */\n      jump\t// in\n    tag_298:\n        /* \"contracts/Practice.sol\":10296:10360  updateX6ReferrerSecondLevel(userAddress, referrerAddress, level) */\n      tag_299\n        /* \"contracts/Practice.sol\":10324:10335  userAddress */\n      dup4\n        /* \"contracts/Practice.sol\":10337:10352  referrerAddress */\n      dup4\n        /* \"contracts/Practice.sol\":10354:10359  level */\n      dup4\n        /* \"contracts/Practice.sol\":10296:10323  updateX6ReferrerSecondLevel */\n      tag_260\n        /* \"contracts/Practice.sol\":10296:10360  updateX6ReferrerSecondLevel(userAddress, referrerAddress, level) */\n      jump\t// in\n    tag_299:\n        /* \"contracts/Practice.sol\":10289:10360  return updateX6ReferrerSecondLevel(userAddress, referrerAddress, level) */\n      jump(tag_239)\n        /* \"contracts/Practice.sol\":10128:10371  if (users[referrerAddress].x6Matrix[level].firstLevelReferrals[0] == userAddress) {... */\n    tag_297:\n        /* \"contracts/Practice.sol\":10462:10463  2 */\n      0x02\n        /* \"contracts/Practice.sol\":10393:10398  users */\n      0x00\n        /* \"contracts/Practice.sol\":10393:10415  users[referrerAddress] */\n      dup1\n        /* \"contracts/Practice.sol\":10399:10414  referrerAddress */\n      dup5\n        /* \"contracts/Practice.sol\":10393:10415  users[referrerAddress] */\n      0xffffffffffffffffffffffffffffffffffffffff\n      and\n      0xffffffffffffffffffffffffffffffffffffffff\n      and\n      dup2\n      mstore\n      0x20\n      add\n      swap1\n      dup2\n      mstore\n      0x20\n      add\n      0x00\n      keccak256\n        /* \"contracts/Practice.sol\":10393:10424  users[referrerAddress].x6Matrix */\n      0x06\n      add\n        /* \"contracts/Practice.sol\":10393:10431  users[referrerAddress].x6Matrix[level] */\n      0x00\n        /* \"contracts/Practice.sol\":10425:10430  level */\n      dup4\n        /* \"contracts/Practice.sol\":10393:10431  users[referrerAddress].x6Matrix[level] */\n      0xff\n      and\n      0xff\n      and\n      dup2\n      mstore\n      0x20\n      add\n      swap1\n      dup2\n      mstore\n      0x20\n      add\n      0x00\n      keccak256\n        /* \"contracts/Practice.sol\":10393:10451  users[referrerAddress].x6Matrix[level].firstLevelReferrals */\n      0x01\n      add\n        /* \"contracts/Practice.sol\":10393:10458  users[referrerAddress].x6Matrix[level].firstLevelReferrals.length */\n      dup1\n      sload\n      swap1\n      pop\n        /* \"contracts/Practice.sol\":10393:10463  users[referrerAddress].x6Matrix[level].firstLevelReferrals.length == 2 */\n      sub\n        /* \"contracts/Practice.sol\":10389:11348  if (users[referrerAddress].x6Matrix[level].firstLevelReferrals.length == 2) {... */\n      tag_300\n      jumpi\n        /* \"contracts/Practice.sol\":10565:10570  users */\n      0x00\n        /* \"contracts/Practice.sol\":10565:10587  users[referrerAddress] */\n      dup1\n        /* \"contracts/Practice.sol\":10571:10586  referrerAddress */\n      dup4\n        /* \"contracts/Practice.sol\":10565:10587  users[referrerAddress] */\n      0xffffffffffffffffffffffffffffffffffffffff\n      and\n      0xffffffffffffffffffffffffffffffffffffffff\n      and\n      dup2\n      mstore\n      0x20\n      add\n      swap1\n      dup2\n      mstore\n      0x20\n      add\n      0x00\n      keccak256\n        /* \"contracts/Practice.sol\":10565:10596  users[referrerAddress].x6Matrix */\n      0x06\n      add\n        /* \"contracts/Practice.sol\":10565:10603  users[referrerAddress].x6Matrix[level] */\n      0x00\n        /* \"contracts/Practice.sol\":10597:10602  level */\n      dup3\n        /* \"contracts/Practice.sol\":10565:10603  users[referrerAddress].x6Matrix[level] */\n      0xff\n      and\n      0xff\n      and\n      dup2\n      mstore\n      0x20\n      add\n      swap1\n      dup2\n      mstore\n      0x20\n      add\n      0x00\n      keccak256\n        /* \"contracts/Practice.sol\":10565:10623  users[referrerAddress].x6Matrix[level].firstLevelReferrals */\n      0x01\n      add\n        /* \"contracts/Practice.sol\":10624:10625  1 */\n      0x01\n        /* \"contracts/Practice.sol\":10565:10626  users[referrerAddress].x6Matrix[level].firstLevelReferrals[1] */\n      dup2\n      sload\n      dup2\n      lt\n      tag_301\n      jumpi\n      tag_302\n      tag_251\n      jump\t// in\n    tag_302:\n    tag_301:\n      swap1\n      0x00\n      mstore\n      keccak256(0x00, 0x20)\n      add\n      0x00\n      swap1\n      sload\n      swap1\n      0x0100\n      exp\n      swap1\n      div\n      0xffffffffffffffffffffffffffffffffffffffff\n      and\n        /* \"contracts/Practice.sol\":10483:10626  users[referrerAddress].x6Matrix[level].firstLevelReferrals[0] == ... */\n      0xffffffffffffffffffffffffffffffffffffffff\n      and\n        /* \"contracts/Practice.sol\":10483:10488  users */\n      0x00\n        /* \"contracts/Practice.sol\":10483:10505  users[referrerAddress] */\n      dup1\n        /* \"contracts/Practice.sol\":10489:10504  referrerAddress */\n      dup5\n        /* \"contracts/Practice.sol\":10483:10505  users[referrerAddress] */\n      0xffffffffffffffffffffffffffffffffffffffff\n      and\n      0xffffffffffffffffffffffffffffffffffffffff\n      and\n      dup2\n      mstore\n      0x20\n      add\n      swap1\n      dup2\n      mstore\n      0x20\n      add\n      0x00\n      keccak256\n        /* \"contracts/Practice.sol\":10483:10514  users[referrerAddress].x6Matrix */\n      0x06\n      add\n        /* \"contracts/Practice.sol\":10483:10521  users[referrerAddress].x6Matrix[level] */\n      0x00\n        /* \"contracts/Practice.sol\":10515:10520  level */\n      dup4\n        /* \"contracts/Practice.sol\":10483:10521  users[referrerAddress].x6Matrix[level] */\n      0xff\n      and\n      0xff\n      and\n      dup2\n      mstore\n      0x20\n      add\n      swap1\n      dup2\n      mstore\n      0x20\n      add\n      0x00\n      keccak256\n        /* \"contracts/Practice.sol\":10483:10541  users[referrerAddress].x6Matrix[level].firstLevelReferrals */\n      0x01\n      add\n        /* \"contracts/Practice.sol\":10542:10543  0 */\n      0x00\n        /* \"contracts/Practice.sol\":10483:10544  users[referrerAddress].x6Matrix[level].firstLevelReferrals[0] */\n      dup2\n      sload\n      dup2\n      lt\n      tag_304\n      jumpi\n      tag_305\n      tag_251\n      jump\t// in\n    tag_305:\n    tag_304:\n      swap1\n      0x00\n      mstore\n      keccak256(0x00, 0x20)\n      add\n      0x00\n      swap1\n      sload\n      swap1\n      0x0100\n      exp\n      swap1\n      div\n      0xffffffffffffffffffffffffffffffffffffffff\n      and\n        /* \"contracts/Practice.sol\":10483:10626  users[referrerAddress].x6Matrix[level].firstLevelReferrals[0] == ... */\n      0xffffffffffffffffffffffffffffffffffffffff\n      and\n      sub\n        /* \"contracts/Practice.sol\":10479:10975  if (users[referrerAddress].x6Matrix[level].firstLevelReferrals[0] == ... */\n      tag_307\n      jumpi\n        /* \"contracts/Practice.sol\":10646:10697  updateX6(userAddress, referrerAddress, level, true) */\n      tag_308\n        /* \"contracts/Practice.sol\":10655:10666  userAddress */\n      dup4\n        /* \"contracts/Practice.sol\":10668:10683  referrerAddress */\n      dup4\n        /* \"contracts/Practice.sol\":10685:10690  level */\n      dup4\n        /* \"contracts/Practice.sol\":10692:10696  true */\n      0x01\n        /* \"contracts/Practice.sol\":10646:10654  updateX6 */\n      tag_275\n        /* \"contracts/Practice.sol\":10646:10697  updateX6(userAddress, referrerAddress, level, true) */\n      jump\t// in\n    tag_308:\n        /* \"contracts/Practice.sol\":10479:10975  if (users[referrerAddress].x6Matrix[level].firstLevelReferrals[0] == ... */\n      jump(tag_309)\n    tag_307:\n        /* \"contracts/Practice.sol\":10787:10798  userAddress */\n      dup3\n        /* \"contracts/Practice.sol\":10722:10798  users[referrerAddress].x6Matrix[level].firstLevelReferrals[0] == userAddress */\n      0xffffffffffffffffffffffffffffffffffffffff\n      and\n        /* \"contracts/Practice.sol\":10722:10727  users */\n      0x00\n        /* \"contracts/Practice.sol\":10722:10744  users[referrerAddress] */\n      dup1\n        /* \"contracts/Practice.sol\":10728:10743  referrerAddress */\n      dup5\n        /* \"contracts/Practice.sol\":10722:10744  users[referrerAddress] */\n      0xffffffffffffffffffffffffffffffffffffffff\n      and\n      0xffffffffffffffffffffffffffffffffffffffff\n      and\n      dup2\n      mstore\n      0x20\n      add\n      swap1\n      dup2\n      mstore\n      0x20\n      add\n      0x00\n      keccak256\n        /* \"contracts/Practice.sol\":10722:10753  users[referrerAddress].x6Matrix */\n      0x06\n      add\n        /* \"contracts/Practice.sol\":10722:10760  users[referrerAddress].x6Matrix[level] */\n      0x00\n        /* \"contracts/Practice.sol\":10754:10759  level */\n      dup4\n        /* \"contracts/Practice.sol\":10722:10760  users[referrerAddress].x6Matrix[level] */\n      0xff\n      and\n      0xff\n      and\n      dup2\n      mstore\n      0x20\n      add\n      swap1\n      dup2\n      mstore\n      0x20\n      add\n      0x00\n      keccak256\n        /* \"contracts/Practice.sol\":10722:10780  users[referrerAddress].x6Matrix[level].firstLevelReferrals */\n      0x01\n      add\n        /* \"contracts/Practice.sol\":10781:10782  0 */\n      0x00\n        /* \"contracts/Practice.sol\":10722:10783  users[referrerAddress].x6Matrix[level].firstLevelReferrals[0] */\n      dup2\n      sload\n      dup2\n      lt\n      tag_310\n      jumpi\n      tag_311\n      tag_251\n      jump\t// in\n    tag_311:\n    tag_310:\n      swap1\n      0x00\n      mstore\n      keccak256(0x00, 0x20)\n      add\n      0x00\n      swap1\n      sload\n      swap1\n      0x0100\n      exp\n      swap1\n      div\n      0xffffffffffffffffffffffffffffffffffffffff\n      and\n        /* \"contracts/Practice.sol\":10722:10798  users[referrerAddress].x6Matrix[level].firstLevelReferrals[0] == userAddress */\n      0xffffffffffffffffffffffffffffffffffffffff\n      and\n      sub\n        /* \"contracts/Practice.sol\":10718:10975  if (users[referrerAddress].x6Matrix[level].firstLevelReferrals[0] == userAddress) {... */\n      tag_313\n      jumpi\n        /* \"contracts/Practice.sol\":10818:10869  updateX6(userAddress, referrerAddress, level, true) */\n      tag_314\n        /* \"contracts/Practice.sol\":10827:10838  userAddress */\n      dup4\n        /* \"contracts/Practice.sol\":10840:10855  referrerAddress */\n      dup4\n        /* \"contracts/Practice.sol\":10857:10862  level */\n      dup4\n        /* \"contracts/Practice.sol\":10864:10868  true */\n      0x01\n        /* \"contracts/Practice.sol\":10818:10826  updateX6 */\n      tag_275\n        /* \"contracts/Practice.sol\":10818:10869  updateX6(userAddress, referrerAddress, level, true) */\n      jump\t// in\n    tag_314:\n        /* \"contracts/Practice.sol\":10718:10975  if (users[referrerAddress].x6Matrix[level].firstLevelReferrals[0] == userAddress) {... */\n      jump(tag_315)\n    tag_313:\n        /* \"contracts/Practice.sol\":10908:10960  updateX6(userAddress, referrerAddress, level, false) */\n      tag_316\n        /* \"contracts/Practice.sol\":10917:10928  userAddress */\n      dup4\n        /* \"contracts/Practice.sol\":10930:10945  referrerAddress */\n      dup4\n        /* \"contracts/Practice.sol\":10947:10952  level */\n      dup4\n        /* \"contracts/Practice.sol\":10954:10959  false */\n      0x00\n        /* \"contracts/Practice.sol\":10908:10916  updateX6 */\n      tag_275\n        /* \"contracts/Practice.sol\":10908:10960  updateX6(userAddress, referrerAddress, level, false) */\n      jump\t// in\n    tag_316:\n        /* \"contracts/Practice.sol\":10718:10975  if (users[referrerAddress].x6Matrix[level].firstLevelReferrals[0] == userAddress) {... */\n    tag_315:\n        /* \"contracts/Practice.sol\":10479:10975  if (users[referrerAddress].x6Matrix[level].firstLevelReferrals[0] == ... */\n    tag_309:\n        /* \"contracts/Practice.sol\":10389:11348  if (users[referrerAddress].x6Matrix[level].firstLevelReferrals.length == 2) {... */\n      jump(tag_317)\n    tag_300:\n        /* \"contracts/Practice.sol\":11064:11065  1 */\n      0x01\n        /* \"contracts/Practice.sol\":10995:11000  users */\n      0x00\n        /* \"contracts/Practice.sol\":10995:11017  users[referrerAddress] */\n      dup1\n        /* \"contracts/Practice.sol\":11001:11016  referrerAddress */\n      dup5\n        /* \"contracts/Practice.sol\":10995:11017  users[referrerAddress] */\n      0xffffffffffffffffffffffffffffffffffffffff\n      and\n      0xffffffffffffffffffffffffffffffffffffffff\n      and\n      dup2\n      mstore\n      0x20\n      add\n      swap1\n      dup2\n      mstore\n      0x20\n      add\n      0x00\n      keccak256\n        /* \"contracts/Practice.sol\":10995:11026  users[referrerAddress].x6Matrix */\n      0x06\n      add\n        /* \"contracts/Practice.sol\":10995:11033  users[referrerAddress].x6Matrix[level] */\n      0x00\n        /* \"contracts/Practice.sol\":11027:11032  level */\n      dup4\n        /* \"contracts/Practice.sol\":10995:11033  users[referrerAddress].x6Matrix[level] */\n      0xff\n      and\n      0xff\n      and\n      dup2\n      mstore\n      0x20\n      add\n      swap1\n      dup2\n      mstore\n      0x20\n      add\n      0x00\n      keccak256\n        /* \"contracts/Practice.sol\":10995:11053  users[referrerAddress].x6Matrix[level].firstLevelReferrals */\n      0x01\n      add\n        /* \"contracts/Practice.sol\":10995:11060  users[referrerAddress].x6Matrix[level].firstLevelReferrals.length */\n      dup1\n      sload\n      swap1\n      pop\n        /* \"contracts/Practice.sol\":10995:11065  users[referrerAddress].x6Matrix[level].firstLevelReferrals.length == 1 */\n      sub\n        /* \"contracts/Practice.sol\":10991:11348  if (users[referrerAddress].x6Matrix[level].firstLevelReferrals.length == 1) {... */\n      tag_318\n      jumpi\n        /* \"contracts/Practice.sol\":11150:11161  userAddress */\n      dup3\n        /* \"contracts/Practice.sol\":11085:11161  users[referrerAddress].x6Matrix[level].firstLevelReferrals[0] == userAddress */\n      0xffffffffffffffffffffffffffffffffffffffff\n      and\n        /* \"contracts/Practice.sol\":11085:11090  users */\n      0x00\n        /* \"contracts/Practice.sol\":11085:11107  users[referrerAddress] */\n      dup1\n        /* \"contracts/Practice.sol\":11091:11106  referrerAddress */\n      dup5\n        /* \"contracts/Practice.sol\":11085:11107  users[referrerAddress] */\n      0xffffffffffffffffffffffffffffffffffffffff\n      and\n      0xffffffffffffffffffffffffffffffffffffffff\n      and\n      dup2\n      mstore\n      0x20\n      add\n      swap1\n      dup2\n      mstore\n      0x20\n      add\n      0x00\n      keccak256\n        /* \"contracts/Practice.sol\":11085:11116  users[referrerAddress].x6Matrix */\n      0x06\n      add\n        /* \"contracts/Practice.sol\":11085:11123  users[referrerAddress].x6Matrix[level] */\n      0x00\n        /* \"contracts/Practice.sol\":11117:11122  level */\n      dup4\n        /* \"contracts/Practice.sol\":11085:11123  users[referrerAddress].x6Matrix[level] */\n      0xff\n      and\n      0xff\n      and\n      dup2\n      mstore\n      0x20\n      add\n      swap1\n      dup2\n      mstore\n      0x20\n      add\n      0x00\n      keccak256\n        /* \"contracts/Practice.sol\":11085:11143  users[referrerAddress].x6Matrix[level].firstLevelReferrals */\n      0x01\n      add\n        /* \"contracts/Practice.sol\":11144:11145  0 */\n      0x00\n        /* \"contracts/Practice.sol\":11085:11146  users[referrerAddress].x6Matrix[level].firstLevelReferrals[0] */\n      dup2\n      sload\n      dup2\n      lt\n      tag_319\n      jumpi\n      tag_320\n      tag_251\n      jump\t// in\n    tag_320:\n    tag_319:\n      swap1\n      0x00\n      mstore\n      keccak256(0x00, 0x20)\n      add\n      0x00\n      swap1\n      sload\n      swap1\n      0x0100\n      exp\n      swap1\n      div\n      0xffffffffffffffffffffffffffffffffffffffff\n      and\n        /* \"contracts/Practice.sol\":11085:11161  users[referrerAddress].x6Matrix[level].firstLevelReferrals[0] == userAddress */\n      0xffffffffffffffffffffffffffffffffffffffff\n      and\n      sub\n        /* \"contracts/Practice.sol\":11081:11338  if (users[referrerAddress].x6Matrix[level].firstLevelReferrals[0] == userAddress) {... */\n      tag_322\n      jumpi\n        /* \"contracts/Practice.sol\":11181:11232  updateX6(userAddress, referrerAddress, level, true) */\n      tag_323\n        /* \"contracts/Practice.sol\":11190:11201  userAddress */\n      dup4\n        /* \"contracts/Practice.sol\":11203:11218  referrerAddress */\n      dup4\n        /* \"contracts/Practice.sol\":11220:11225  level */\n      dup4\n        /* \"contracts/Practice.sol\":11227:11231  true */\n      0x01\n        /* \"contracts/Practice.sol\":11181:11189  updateX6 */\n      tag_275\n        /* \"contracts/Practice.sol\":11181:11232  updateX6(userAddress, referrerAddress, level, true) */\n      jump\t// in\n    tag_323:\n        /* \"contracts/Practice.sol\":11081:11338  if (users[referrerAddress].x6Matrix[level].firstLevelReferrals[0] == userAddress) {... */\n      jump(tag_324)\n    tag_322:\n        /* \"contracts/Practice.sol\":11271:11323  updateX6(userAddress, referrerAddress, level, false) */\n      tag_325\n        /* \"contracts/Practice.sol\":11280:11291  userAddress */\n      dup4\n        /* \"contracts/Practice.sol\":11293:11308  referrerAddress */\n      dup4\n        /* \"contracts/Practice.sol\":11310:11315  level */\n      dup4\n        /* \"contracts/Practice.sol\":11317:11322  false */\n      0x00\n        /* \"contracts/Practice.sol\":11271:11279  updateX6 */\n      tag_275\n        /* \"contracts/Practice.sol\":11271:11323  updateX6(userAddress, referrerAddress, level, false) */\n      jump\t// in\n    tag_325:\n        /* \"contracts/Practice.sol\":11081:11338  if (users[referrerAddress].x6Matrix[level].firstLevelReferrals[0] == userAddress) {... */\n    tag_324:\n        /* \"contracts/Practice.sol\":10991:11348  if (users[referrerAddress].x6Matrix[level].firstLevelReferrals.length == 1) {... */\n    tag_318:\n        /* \"contracts/Practice.sol\":10389:11348  if (users[referrerAddress].x6Matrix[level].firstLevelReferrals.length == 2) {... */\n    tag_317:\n        /* \"contracts/Practice.sol\":11358:11422  updateX6ReferrerSecondLevel(userAddress, referrerAddress, level) */\n      tag_326\n        /* \"contracts/Practice.sol\":11386:11397  userAddress */\n      dup4\n        /* \"contracts/Practice.sol\":11399:11414  referrerAddress */\n      dup4\n        /* \"contracts/Practice.sol\":11416:11421  level */\n      dup4\n        /* \"contracts/Practice.sol\":11358:11385  updateX6ReferrerSecondLevel */\n      tag_260\n        /* \"contracts/Practice.sol\":11358:11422  updateX6ReferrerSecondLevel(userAddress, referrerAddress, level) */\n      jump\t// in\n    tag_326:\n        /* \"contracts/Practice.sol\":7352:11429  function updateX6Referrer(address userAddress, address referrerAddress, uint8 level) private {... */\n    tag_239:\n      pop\n      pop\n      pop\n      jump\t// out\n        /* \"contracts/Practice.sol\":16123:16430  function sendETHDividends(address userAddress, address _from, uint8 matrix, uint8 level) private {... */\n    tag_216:\n        /* \"contracts/Practice.sol\":16231:16243  bool success */\n      0x00\n        /* \"contracts/Practice.sol\":16257:16268  userAddress */\n      dup5\n        /* \"contracts/Practice.sol\":16249:16274  payable(userAddress).call */\n      0xffffffffffffffffffffffffffffffffffffffff\n      and\n        /* \"contracts/Practice.sol\":16282:16292  levelPrice */\n      0x06\n        /* \"contracts/Practice.sol\":16282:16299  levelPrice[level] */\n      0x00\n        /* \"contracts/Practice.sol\":16293:16298  level */\n      dup5\n        /* \"contracts/Practice.sol\":16282:16299  levelPrice[level] */\n      0xff\n      and\n      0xff\n      and\n      dup2\n      mstore\n      0x20\n      add\n      swap1\n      dup2\n      mstore\n      0x20\n      add\n      0x00\n      keccak256\n      sload\n        /* \"contracts/Practice.sol\":16249:16304  payable(userAddress).call{value: levelPrice[level]}(\"\") */\n      mload(0x40)\n      tag_328\n      swap1\n      tag_329\n      jump\t// in\n    tag_328:\n      0x00\n      mload(0x40)\n      dup1\n      dup4\n      sub\n      dup2\n      dup6\n      dup8\n      gas\n      call\n      swap3\n      pop\n      pop\n      pop\n      returndatasize\n      dup1\n      0x00\n      dup2\n      eq\n      tag_332\n      jumpi\n      mload(0x40)\n      swap2\n      pop\n      and(add(returndatasize, 0x3f), not(0x1f))\n      dup3\n      add\n      0x40\n      mstore\n      returndatasize\n      dup3\n      mstore\n      returndatasize\n      0x00\n      0x20\n      dup5\n      add\n      returndatacopy\n      jump(tag_331)\n    tag_332:\n      0x60\n      swap2\n      pop\n    tag_331:\n      pop\n        /* \"contracts/Practice.sol\":16230:16304  (bool success, ) = payable(userAddress).call{value: levelPrice[level]}(\"\") */\n      pop\n      swap1\n      pop\n        /* \"contracts/Practice.sol\":16318:16325  success */\n      dup1\n        /* \"contracts/Practice.sol\":16314:16358  if (success) {... */\n      iszero\n      tag_333\n      jumpi\n        /* \"contracts/Practice.sol\":16341:16348  return; */\n      pop\n      jump(tag_327)\n        /* \"contracts/Practice.sol\":16314:16358  if (success) {... */\n    tag_333:\n        /* \"contracts/Practice.sol\":16402:16407  _from */\n      dup4\n        /* \"contracts/Practice.sol\":16372:16423  MissedEthReceive(userAddress, _from, matrix, level) */\n      0xffffffffffffffffffffffffffffffffffffffff\n      and\n        /* \"contracts/Practice.sol\":16389:16400  userAddress */\n      dup6\n        /* \"contracts/Practice.sol\":16372:16423  MissedEthReceive(userAddress, _from, matrix, level) */\n      0xffffffffffffffffffffffffffffffffffffffff\n      and\n      0xfc0cb63f8dbd6b20ceb84a3c5358a41576a1479e6ecd040b4b985525dc09a709\n        /* \"contracts/Practice.sol\":16409:16415  matrix */\n      dup6\n        /* \"contracts/Practice.sol\":16417:16422  level */\n      dup6\n        /* \"contracts/Practice.sol\":16372:16423  MissedEthReceive(userAddress, _from, matrix, level) */\n      mload(0x40)\n      tag_334\n      swap3\n      swap2\n      swap1\n      tag_335\n      jump\t// in\n    tag_334:\n      mload(0x40)\n      dup1\n      swap2\n      sub\n      swap1\n      log3\n        /* \"contracts/Practice.sol\":16220:16430  {... */\n      pop\n        /* \"contracts/Practice.sol\":16123:16430  function sendETHDividends(address userAddress, address _from, uint8 matrix, uint8 level) private {... */\n    tag_327:\n      pop\n      pop\n      pop\n      pop\n      jump\t// out\n        /* \"contracts/Practice.sol\":12905:13896  function updateX6ReferrerSecondLevel(address userAddress, address referrerAddress, uint8 level) private {... */\n    tag_260:\n        /* \"contracts/Practice.sol\":13092:13093  4 */\n      0x04\n        /* \"contracts/Practice.sol\":13023:13028  users */\n      0x00\n        /* \"contracts/Practice.sol\":13023:13045  users[referrerAddress] */\n      dup1\n        /* \"contracts/Practice.sol\":13029:13044  referrerAddress */\n      dup5\n        /* \"contracts/Practice.sol\":13023:13045  users[referrerAddress] */\n      0xffffffffffffffffffffffffffffffffffffffff\n      and\n      0xffffffffffffffffffffffffffffffffffffffff\n      and\n      dup2\n      mstore\n      0x20\n      add\n      swap1\n      dup2\n      mstore\n      0x20\n      add\n      0x00\n      keccak256\n        /* \"contracts/Practice.sol\":13023:13054  users[referrerAddress].x6Matrix */\n      0x06\n      add\n        /* \"contracts/Practice.sol\":13023:13061  users[referrerAddress].x6Matrix[level] */\n      0x00\n        /* \"contracts/Practice.sol\":13055:13060  level */\n      dup4\n        /* \"contracts/Practice.sol\":13023:13061  users[referrerAddress].x6Matrix[level] */\n      0xff\n      and\n      0xff\n      and\n      dup2\n      mstore\n      0x20\n      add\n      swap1\n      dup2\n      mstore\n      0x20\n      add\n      0x00\n      keccak256\n        /* \"contracts/Practice.sol\":13023:13082  users[referrerAddress].x6Matrix[level].secondLevelReferrals */\n      0x02\n      add\n        /* \"contracts/Practice.sol\":13023:13089  users[referrerAddress].x6Matrix[level].secondLevelReferrals.length */\n      dup1\n      sload\n      swap1\n      pop\n        /* \"contracts/Practice.sol\":13023:13093  users[referrerAddress].x6Matrix[level].secondLevelReferrals.length < 4 */\n      lt\n        /* \"contracts/Practice.sol\":13019:13183  if (users[referrerAddress].x6Matrix[level].secondLevelReferrals.length < 4) {... */\n      iszero\n      tag_337\n      jumpi\n        /* \"contracts/Practice.sol\":13116:13172  sendETHDividends(referrerAddress, userAddress, 2, level) */\n      tag_338\n        /* \"contracts/Practice.sol\":13133:13148  referrerAddress */\n      dup3\n        /* \"contracts/Practice.sol\":13150:13161  userAddress */\n      dup5\n        /* \"contracts/Practice.sol\":13163:13164  2 */\n      0x02\n        /* \"contracts/Practice.sol\":13166:13171  level */\n      dup5\n        /* \"contracts/Practice.sol\":13116:13132  sendETHDividends */\n      tag_216\n        /* \"contracts/Practice.sol\":13116:13172  sendETHDividends(referrerAddress, userAddress, 2, level) */\n      jump\t// in\n    tag_338:\n        /* \"contracts/Practice.sol\":13109:13172  return sendETHDividends(referrerAddress, userAddress, 2, level) */\n      jump(tag_336)\n        /* \"contracts/Practice.sol\":13019:13183  if (users[referrerAddress].x6Matrix[level].secondLevelReferrals.length < 4) {... */\n    tag_337:\n        /* \"contracts/Practice.sol\":13193:13212  address[] memory x6 */\n      0x00\n        /* \"contracts/Practice.sol\":13215:13220  users */\n      dup1\n        /* \"contracts/Practice.sol\":13215:13237  users[referrerAddress] */\n      0x00\n        /* \"contracts/Practice.sol\":13221:13236  referrerAddress */\n      dup5\n        /* \"contracts/Practice.sol\":13215:13237  users[referrerAddress] */\n      0xffffffffffffffffffffffffffffffffffffffff\n      and\n      0xffffffffffffffffffffffffffffffffffffffff\n      and\n      dup2\n      mstore\n      0x20\n      add\n      swap1\n      dup2\n      mstore\n      0x20\n      add\n      0x00\n      keccak256\n        /* \"contracts/Practice.sol\":13215:13246  users[referrerAddress].x6Matrix */\n      0x06\n      add\n        /* \"contracts/Practice.sol\":13215:13253  users[referrerAddress].x6Matrix[level] */\n      0x00\n        /* \"contracts/Practice.sol\":13247:13252  level */\n      dup4\n        /* \"contracts/Practice.sol\":13215:13253  users[referrerAddress].x6Matrix[level] */\n      0xff\n      and\n      0xff\n      and\n      dup2\n      mstore\n      0x20\n      add\n      swap1\n      dup2\n      mstore\n      0x20\n      add\n      0x00\n      keccak256\n        /* \"contracts/Practice.sol\":13215:13273  users[referrerAddress].x6Matrix[level].firstLevelReferrals */\n      0x01\n      add\n        /* \"contracts/Practice.sol\":13193:13273  address[] memory x6 = users[referrerAddress].x6Matrix[level].firstLevelReferrals */\n      dup1\n      sload\n      dup1\n      0x20\n      mul\n      0x20\n      add\n      mload(0x40)\n      swap1\n      dup2\n      add\n      0x40\n      mstore\n      dup1\n      swap3\n      swap2\n      swap1\n      dup2\n      dup2\n      mstore\n      0x20\n      add\n      dup3\n      dup1\n      sload\n      dup1\n      iszero\n      tag_339\n      jumpi\n      0x20\n      mul\n      dup3\n      add\n      swap2\n      swap1\n      0x00\n      mstore\n      keccak256(0x00, 0x20)\n      swap1\n    tag_340:\n      dup2\n      0x00\n      swap1\n      sload\n      swap1\n      0x0100\n      exp\n      swap1\n      div\n      0xffffffffffffffffffffffffffffffffffffffff\n      and\n      0xffffffffffffffffffffffffffffffffffffffff\n      and\n      dup2\n      mstore\n      0x20\n      add\n      swap1\n      0x01\n      add\n      swap1\n      dup1\n      dup4\n      gt\n      tag_340\n      jumpi\n    tag_339:\n      pop\n      pop\n      pop\n      pop\n      pop\n      swap1\n      pop\n        /* \"contracts/Practice.sol\":13301:13302  2 */\n      0x02\n        /* \"contracts/Practice.sol\":13288:13290  x6 */\n      dup2\n        /* \"contracts/Practice.sol\":13288:13297  x6.length */\n      mload\n        /* \"contracts/Practice.sol\":13288:13302  x6.length == 2 */\n      sub\n        /* \"contracts/Practice.sol\":13284:13890  if (x6.length == 2) {... */\n      tag_341\n      jumpi\n        /* \"contracts/Practice.sol\":13331:13333  x6 */\n      dup1\n        /* \"contracts/Practice.sol\":13334:13335  1 */\n      0x01\n        /* \"contracts/Practice.sol\":13331:13336  x6[1] */\n      dup2\n      mload\n      dup2\n      lt\n      tag_342\n      jumpi\n      tag_343\n      tag_251\n      jump\t// in\n    tag_343:\n    tag_342:\n      0x20\n      mul\n      0x20\n      add\n      add\n      mload\n        /* \"contracts/Practice.sol\":13322:13336  x6[0] == x6[1] */\n      0xffffffffffffffffffffffffffffffffffffffff\n      and\n        /* \"contracts/Practice.sol\":13322:13324  x6 */\n      dup2\n        /* \"contracts/Practice.sol\":13325:13326  0 */\n      0x00\n        /* \"contracts/Practice.sol\":13322:13327  x6[0] */\n      dup2\n      mload\n      dup2\n      lt\n      tag_344\n      jumpi\n      tag_345\n      tag_251\n      jump\t// in\n    tag_345:\n    tag_344:\n      0x20\n      mul\n      0x20\n      add\n      add\n      mload\n        /* \"contracts/Practice.sol\":13322:13336  x6[0] == x6[1] */\n      0xffffffffffffffffffffffffffffffffffffffff\n      and\n      sub\n        /* \"contracts/Practice.sol\":13318:13629  if (x6[0] == x6[1]) {... */\n      tag_346\n      jumpi\n        /* \"contracts/Practice.sol\":13356:13407  updateX6(userAddress, referrerAddress, level, true) */\n      tag_347\n        /* \"contracts/Practice.sol\":13365:13376  userAddress */\n      dup5\n        /* \"contracts/Practice.sol\":13378:13393  referrerAddress */\n      dup5\n        /* \"contracts/Practice.sol\":13395:13400  level */\n      dup5\n        /* \"contracts/Practice.sol\":13402:13406  true */\n      0x01\n        /* \"contracts/Practice.sol\":13356:13364  updateX6 */\n      tag_275\n        /* \"contracts/Practice.sol\":13356:13407  updateX6(userAddress, referrerAddress, level, true) */\n      jump\t// in\n    tag_347:\n        /* \"contracts/Practice.sol\":13318:13629  if (x6[0] == x6[1]) {... */\n      jump(tag_348)\n    tag_346:\n        /* \"contracts/Practice.sol\":13441:13452  userAddress */\n      dup4\n        /* \"contracts/Practice.sol\":13432:13452  x6[0] == userAddress */\n      0xffffffffffffffffffffffffffffffffffffffff\n      and\n        /* \"contracts/Practice.sol\":13432:13434  x6 */\n      dup2\n        /* \"contracts/Practice.sol\":13435:13436  0 */\n      0x00\n        /* \"contracts/Practice.sol\":13432:13437  x6[0] */\n      dup2\n      mload\n      dup2\n      lt\n      tag_349\n      jumpi\n      tag_350\n      tag_251\n      jump\t// in\n    tag_350:\n    tag_349:\n      0x20\n      mul\n      0x20\n      add\n      add\n      mload\n        /* \"contracts/Practice.sol\":13432:13452  x6[0] == userAddress */\n      0xffffffffffffffffffffffffffffffffffffffff\n      and\n      sub\n        /* \"contracts/Practice.sol\":13428:13629  if (x6[0] == userAddress) {... */\n      tag_351\n      jumpi\n        /* \"contracts/Practice.sol\":13472:13523  updateX6(userAddress, referrerAddress, level, true) */\n      tag_352\n        /* \"contracts/Practice.sol\":13481:13492  userAddress */\n      dup5\n        /* \"contracts/Practice.sol\":13494:13509  referrerAddress */\n      dup5\n        /* \"contracts/Practice.sol\":13511:13516  level */\n      dup5\n        /* \"contracts/Practice.sol\":13518:13522  true */\n      0x01\n        /* \"contracts/Practice.sol\":13472:13480  updateX6 */\n      tag_275\n        /* \"contracts/Practice.sol\":13472:13523  updateX6(userAddress, referrerAddress, level, true) */\n      jump\t// in\n    tag_352:\n        /* \"contracts/Practice.sol\":13428:13629  if (x6[0] == userAddress) {... */\n      jump(tag_353)\n    tag_351:\n        /* \"contracts/Practice.sol\":13562:13614  updateX6(userAddress, referrerAddress, level, false) */\n      tag_354\n        /* \"contracts/Practice.sol\":13571:13582  userAddress */\n      dup5\n        /* \"contracts/Practice.sol\":13584:13599  referrerAddress */\n      dup5\n        /* \"contracts/Practice.sol\":13601:13606  level */\n      dup5\n        /* \"contracts/Practice.sol\":13608:13613  false */\n      0x00\n        /* \"contracts/Practice.sol\":13562:13570  updateX6 */\n      tag_275\n        /* \"contracts/Practice.sol\":13562:13614  updateX6(userAddress, referrerAddress, level, false) */\n      jump\t// in\n    tag_354:\n        /* \"contracts/Practice.sol\":13428:13629  if (x6[0] == userAddress) {... */\n    tag_353:\n        /* \"contracts/Practice.sol\":13318:13629  if (x6[0] == x6[1]) {... */\n    tag_348:\n        /* \"contracts/Practice.sol\":13284:13890  if (x6.length == 2) {... */\n      jump(tag_355)\n    tag_341:\n        /* \"contracts/Practice.sol\":13662:13663  1 */\n      0x01\n        /* \"contracts/Practice.sol\":13649:13651  x6 */\n      dup2\n        /* \"contracts/Practice.sol\":13649:13658  x6.length */\n      mload\n        /* \"contracts/Practice.sol\":13649:13663  x6.length == 1 */\n      sub\n        /* \"contracts/Practice.sol\":13645:13890  if (x6.length == 1) {... */\n      tag_356\n      jumpi\n        /* \"contracts/Practice.sol\":13692:13703  userAddress */\n      dup4\n        /* \"contracts/Practice.sol\":13683:13703  x6[0] == userAddress */\n      0xffffffffffffffffffffffffffffffffffffffff\n      and\n        /* \"contracts/Practice.sol\":13683:13685  x6 */\n      dup2\n        /* \"contracts/Practice.sol\":13686:13687  0 */\n      0x00\n        /* \"contracts/Practice.sol\":13683:13688  x6[0] */\n      dup2\n      mload\n      dup2\n      lt\n      tag_357\n      jumpi\n      tag_358\n      tag_251\n      jump\t// in\n    tag_358:\n    tag_357:\n      0x20\n      mul\n      0x20\n      add\n      add\n      mload\n        /* \"contracts/Practice.sol\":13683:13703  x6[0] == userAddress */\n      0xffffffffffffffffffffffffffffffffffffffff\n      and\n      sub\n        /* \"contracts/Practice.sol\":13679:13880  if (x6[0] == userAddress) {... */\n      tag_359\n      jumpi\n        /* \"contracts/Practice.sol\":13723:13774  updateX6(userAddress, referrerAddress, level, true) */\n      tag_360\n        /* \"contracts/Practice.sol\":13732:13743  userAddress */\n      dup5\n        /* \"contracts/Practice.sol\":13745:13760  referrerAddress */\n      dup5\n        /* \"contracts/Practice.sol\":13762:13767  level */\n      dup5\n        /* \"contracts/Practice.sol\":13769:13773  true */\n      0x01\n        /* \"contracts/Practice.sol\":13723:13731  updateX6 */\n      tag_275\n        /* \"contracts/Practice.sol\":13723:13774  updateX6(userAddress, referrerAddress, level, true) */\n      jump\t// in\n    tag_360:\n        /* \"contracts/Practice.sol\":13679:13880  if (x6[0] == userAddress) {... */\n      jump(tag_361)\n    tag_359:\n        /* \"contracts/Practice.sol\":13813:13865  updateX6(userAddress, referrerAddress, level, false) */\n      tag_362\n        /* \"contracts/Practice.sol\":13822:13833  userAddress */\n      dup5\n        /* \"contracts/Practice.sol\":13835:13850  referrerAddress */\n      dup5\n        /* \"contracts/Practice.sol\":13852:13857  level */\n      dup5\n        /* \"contracts/Practice.sol\":13859:13864  false */\n      0x00\n        /* \"contracts/Practice.sol\":13813:13821  updateX6 */\n      tag_275\n        /* \"contracts/Practice.sol\":13813:13865  updateX6(userAddress, referrerAddress, level, false) */\n      jump\t// in\n    tag_362:\n        /* \"contracts/Practice.sol\":13679:13880  if (x6[0] == userAddress) {... */\n    tag_361:\n        /* \"contracts/Practice.sol\":13645:13890  if (x6.length == 1) {... */\n    tag_356:\n        /* \"contracts/Practice.sol\":13284:13890  if (x6.length == 2) {... */\n    tag_355:\n        /* \"contracts/Practice.sol\":13009:13896  {... */\n      pop\n        /* \"contracts/Practice.sol\":12905:13896  function updateX6ReferrerSecondLevel(address userAddress, address referrerAddress, uint8 level) private {... */\n    tag_336:\n      pop\n      pop\n      pop\n      jump\t// out\n        /* \"contracts/Practice.sol\":11439:12899  function updateX6(address userAddress, address referrerAddress, uint8 level, bool x6) private {... */\n    tag_275:\n        /* \"contracts/Practice.sol\":11548:11550  x6 */\n      dup1\n        /* \"contracts/Practice.sol\":11543:11640  if (!x6) {... */\n      tag_364\n      jumpi\n        /* \"contracts/Practice.sol\":11618:11629  userAddress */\n      dup4\n        /* \"contracts/Practice.sol\":11566:11571  users */\n      0x00\n        /* \"contracts/Practice.sol\":11566:11588  users[referrerAddress] */\n      dup1\n        /* \"contracts/Practice.sol\":11572:11587  referrerAddress */\n      dup6\n        /* \"contracts/Practice.sol\":11566:11588  users[referrerAddress] */\n      0xffffffffffffffffffffffffffffffffffffffff\n      and\n      0xffffffffffffffffffffffffffffffffffffffff\n      and\n      dup2\n      mstore\n      0x20\n      add\n      swap1\n      dup2\n      mstore\n      0x20\n      add\n      0x00\n      keccak256\n        /* \"contracts/Practice.sol\":11566:11597  users[referrerAddress].x6Matrix */\n      0x06\n      add\n        /* \"contracts/Practice.sol\":11566:11604  users[referrerAddress].x6Matrix[level] */\n      0x00\n        /* \"contracts/Practice.sol\":11598:11603  level */\n      dup5\n        /* \"contracts/Practice.sol\":11566:11604  users[referrerAddress].x6Matrix[level] */\n      0xff\n      and\n      0xff\n      and\n      dup2\n      mstore\n      0x20\n      add\n      swap1\n      dup2\n      mstore\n      0x20\n      add\n      0x00\n      keccak256\n        /* \"contracts/Practice.sol\":11566:11615  users[referrerAddress].x6Matrix[level].closedPart */\n      0x05\n      add\n      0x00\n        /* \"contracts/Practice.sol\":11566:11629  users[referrerAddress].x6Matrix[level].closedPart = userAddress */\n      0x0100\n      exp\n      dup2\n      sload\n      dup2\n      0xffffffffffffffffffffffffffffffffffffffff\n      mul\n      not\n      and\n      swap1\n      dup4\n      0xffffffffffffffffffffffffffffffffffffffff\n      and\n      mul\n      or\n      swap1\n      sstore\n      pop\n        /* \"contracts/Practice.sol\":11543:11640  if (!x6) {... */\n    tag_364:\n        /* \"contracts/Practice.sol\":11649:11654  users */\n      0x00\n        /* \"contracts/Practice.sol\":11649:11671  users[referrerAddress] */\n      dup1\n        /* \"contracts/Practice.sol\":11655:11670  referrerAddress */\n      dup5\n        /* \"contracts/Practice.sol\":11649:11671  users[referrerAddress] */\n      0xffffffffffffffffffffffffffffffffffffffff\n      and\n      0xffffffffffffffffffffffffffffffffffffffff\n      and\n      dup2\n      mstore\n      0x20\n      add\n      swap1\n      dup2\n      mstore\n      0x20\n      add\n      0x00\n      keccak256\n        /* \"contracts/Practice.sol\":11649:11680  users[referrerAddress].x6Matrix */\n      0x06\n      add\n        /* \"contracts/Practice.sol\":11649:11687  users[referrerAddress].x6Matrix[level] */\n      0x00\n        /* \"contracts/Practice.sol\":11681:11686  level */\n      dup4\n        /* \"contracts/Practice.sol\":11649:11687  users[referrerAddress].x6Matrix[level] */\n      0xff\n      and\n      0xff\n      and\n      dup2\n      mstore\n      0x20\n      add\n      swap1\n      dup2\n      mstore\n      0x20\n      add\n      0x00\n      keccak256\n        /* \"contracts/Practice.sol\":11649:11708  users[referrerAddress].x6Matrix[level].secondLevelReferrals */\n      0x02\n      add\n        /* \"contracts/Practice.sol\":11714:11725  userAddress */\n      dup5\n        /* \"contracts/Practice.sol\":11649:11726  users[referrerAddress].x6Matrix[level].secondLevelReferrals.push(userAddress) */\n      swap1\n      dup1\n      0x01\n      dup2\n      sload\n      add\n      dup1\n      dup3\n      sstore\n      dup1\n      swap2\n      pop\n      pop\n      0x01\n      swap1\n      sub\n      swap1\n      0x00\n      mstore\n      keccak256(0x00, 0x20)\n      add\n      0x00\n      swap1\n      swap2\n      swap1\n      swap2\n      swap1\n      swap2\n      0x0100\n      exp\n      dup2\n      sload\n      dup2\n      0xffffffffffffffffffffffffffffffffffffffff\n      mul\n      not\n      and\n      swap1\n      dup4\n      0xffffffffffffffffffffffffffffffffffffffff\n      and\n      mul\n      or\n      swap1\n      sstore\n      pop\n        /* \"contracts/Practice.sol\":11818:11819  4 */\n      0x04\n        /* \"contracts/Practice.sol\":11749:11754  users */\n      0x00\n        /* \"contracts/Practice.sol\":11749:11771  users[referrerAddress] */\n      dup1\n        /* \"contracts/Practice.sol\":11755:11770  referrerAddress */\n      dup6\n        /* \"contracts/Practice.sol\":11749:11771  users[referrerAddress] */\n      0xffffffffffffffffffffffffffffffffffffffff\n      and\n      0xffffffffffffffffffffffffffffffffffffffff\n      and\n      dup2\n      mstore\n      0x20\n      add\n      swap1\n      dup2\n      mstore\n      0x20\n      add\n      0x00\n      keccak256\n        /* \"contracts/Practice.sol\":11749:11780  users[referrerAddress].x6Matrix */\n      0x06\n      add\n        /* \"contracts/Practice.sol\":11749:11787  users[referrerAddress].x6Matrix[level] */\n      0x00\n        /* \"contracts/Practice.sol\":11781:11786  level */\n      dup5\n        /* \"contracts/Practice.sol\":11749:11787  users[referrerAddress].x6Matrix[level] */\n      0xff\n      and\n      0xff\n      and\n      dup2\n      mstore\n      0x20\n      add\n      swap1\n      dup2\n      mstore\n      0x20\n      add\n      0x00\n      keccak256\n        /* \"contracts/Practice.sol\":11749:11808  users[referrerAddress].x6Matrix[level].secondLevelReferrals */\n      0x02\n      add\n        /* \"contracts/Practice.sol\":11749:11815  users[referrerAddress].x6Matrix[level].secondLevelReferrals.length */\n      dup1\n      sload\n      swap1\n      pop\n        /* \"contracts/Practice.sol\":11749:11819  users[referrerAddress].x6Matrix[level].secondLevelReferrals.length < 4 */\n      lt\n        /* \"contracts/Practice.sol\":11745:12059  if (users[referrerAddress].x6Matrix[level].secondLevelReferrals.length < 4) {... */\n      iszero\n      tag_366\n      jumpi\n        /* \"contracts/Practice.sol\":11866:11881  referrerAddress */\n      dup3\n        /* \"contracts/Practice.sol\":11840:11971  NewUserPlace(userAddress, referrerAddress, 2, level, uint8(users[referrerAddress].x6Matrix[level].secondLevelReferrals.length + 2)) */\n      0xffffffffffffffffffffffffffffffffffffffff\n      and\n        /* \"contracts/Practice.sol\":11853:11864  userAddress */\n      dup5\n        /* \"contracts/Practice.sol\":11840:11971  NewUserPlace(userAddress, referrerAddress, 2, level, uint8(users[referrerAddress].x6Matrix[level].secondLevelReferrals.length + 2)) */\n      0xffffffffffffffffffffffffffffffffffffffff\n      and\n      0x68062c5925c4317adf3a7095478d28b33fd8b41458bc7620b61bc46bf1b24d82\n        /* \"contracts/Practice.sol\":11883:11884  2 */\n      0x02\n        /* \"contracts/Practice.sol\":11886:11891  level */\n      dup6\n        /* \"contracts/Practice.sol\":11968:11969  2 */\n      0x02\n        /* \"contracts/Practice.sol\":11899:11904  users */\n      0x00\n        /* \"contracts/Practice.sol\":11899:11921  users[referrerAddress] */\n      dup1\n        /* \"contracts/Practice.sol\":11905:11920  referrerAddress */\n      dup11\n        /* \"contracts/Practice.sol\":11899:11921  users[referrerAddress] */\n      0xffffffffffffffffffffffffffffffffffffffff\n      and\n      0xffffffffffffffffffffffffffffffffffffffff\n      and\n      dup2\n      mstore\n      0x20\n      add\n      swap1\n      dup2\n      mstore\n      0x20\n      add\n      0x00\n      keccak256\n        /* \"contracts/Practice.sol\":11899:11930  users[referrerAddress].x6Matrix */\n      0x06\n      add\n        /* \"contracts/Practice.sol\":11899:11937  users[referrerAddress].x6Matrix[level] */\n      0x00\n        /* \"contracts/Practice.sol\":11931:11936  level */\n      dup10\n        /* \"contracts/Practice.sol\":11899:11937  users[referrerAddress].x6Matrix[level] */\n      0xff\n      and\n      0xff\n      and\n      dup2\n      mstore\n      0x20\n      add\n      swap1\n      dup2\n      mstore\n      0x20\n      add\n      0x00\n      keccak256\n        /* \"contracts/Practice.sol\":11899:11958  users[referrerAddress].x6Matrix[level].secondLevelReferrals */\n      0x02\n      add\n        /* \"contracts/Practice.sol\":11899:11965  users[referrerAddress].x6Matrix[level].secondLevelReferrals.length */\n      dup1\n      sload\n      swap1\n      pop\n        /* \"contracts/Practice.sol\":11899:11969  users[referrerAddress].x6Matrix[level].secondLevelReferrals.length + 2 */\n      tag_367\n      swap2\n      swap1\n      tag_256\n      jump\t// in\n    tag_367:\n        /* \"contracts/Practice.sol\":11840:11971  NewUserPlace(userAddress, referrerAddress, 2, level, uint8(users[referrerAddress].x6Matrix[level].secondLevelReferrals.length + 2)) */\n      mload(0x40)\n      tag_368\n      swap4\n      swap3\n      swap2\n      swap1\n      tag_246\n      jump\t// in\n    tag_368:\n      mload(0x40)\n      dup1\n      swap2\n      sub\n      swap1\n      log3\n        /* \"contracts/Practice.sol\":11992:12048  sendETHDividends(referrerAddress, userAddress, 2, level) */\n      tag_369\n        /* \"contracts/Practice.sol\":12009:12024  referrerAddress */\n      dup4\n        /* \"contracts/Practice.sol\":12026:12037  userAddress */\n      dup6\n        /* \"contracts/Practice.sol\":12039:12040  2 */\n      0x02\n        /* \"contracts/Practice.sol\":12042:12047  level */\n      dup6\n        /* \"contracts/Practice.sol\":11992:12008  sendETHDividends */\n      tag_216\n        /* \"contracts/Practice.sol\":11992:12048  sendETHDividends(referrerAddress, userAddress, 2, level) */\n      jump\t// in\n    tag_369:\n        /* \"contracts/Practice.sol\":11985:12048  return sendETHDividends(referrerAddress, userAddress, 2, level) */\n      jump(tag_363)\n        /* \"contracts/Practice.sol\":11745:12059  if (users[referrerAddress].x6Matrix[level].secondLevelReferrals.length < 4) {... */\n    tag_366:\n        /* \"contracts/Practice.sol\":12100:12115  referrerAddress */\n      dup3\n        /* \"contracts/Practice.sol\":12074:12129  NewUserPlace(userAddress, referrerAddress, 2, level, 6) */\n      0xffffffffffffffffffffffffffffffffffffffff\n      and\n        /* \"contracts/Practice.sol\":12087:12098  userAddress */\n      dup5\n        /* \"contracts/Practice.sol\":12074:12129  NewUserPlace(userAddress, referrerAddress, 2, level, 6) */\n      0xffffffffffffffffffffffffffffffffffffffff\n      and\n      0x68062c5925c4317adf3a7095478d28b33fd8b41458bc7620b61bc46bf1b24d82\n        /* \"contracts/Practice.sol\":12117:12118  2 */\n      0x02\n        /* \"contracts/Practice.sol\":12120:12125  level */\n      dup6\n        /* \"contracts/Practice.sol\":12127:12128  6 */\n      0x06\n        /* \"contracts/Practice.sol\":12074:12129  NewUserPlace(userAddress, referrerAddress, 2, level, 6) */\n      mload(0x40)\n      tag_370\n      swap4\n      swap3\n      swap2\n      swap1\n      tag_371\n      jump\t// in\n    tag_370:\n      mload(0x40)\n      dup1\n      swap2\n      sub\n      swap1\n      log3\n        /* \"contracts/Practice.sol\":12215:12216  0 */\n      0x00\n        /* \"contracts/Practice.sol\":12201:12217  new address[](0) */\n      0xffffffffffffffff\n      dup2\n      gt\n      iszero\n      tag_372\n      jumpi\n      tag_373\n      tag_221\n      jump\t// in\n    tag_373:\n    tag_372:\n      mload(0x40)\n      swap1\n      dup1\n      dup3\n      mstore\n      dup1\n      0x20\n      mul\n      0x20\n      add\n      dup3\n      add\n      0x40\n      mstore\n      dup1\n      iszero\n      tag_374\n      jumpi\n      dup2\n      0x20\n      add\n      0x20\n      dup3\n      mul\n      dup1\n      calldatasize\n      dup4\n      calldatacopy\n      dup1\n      dup3\n      add\n      swap2\n      pop\n      pop\n      swap1\n      pop\n    tag_374:\n      pop\n        /* \"contracts/Practice.sol\":12139:12144  users */\n      0x00\n        /* \"contracts/Practice.sol\":12139:12161  users[referrerAddress] */\n      dup1\n        /* \"contracts/Practice.sol\":12145:12160  referrerAddress */\n      dup6\n        /* \"contracts/Practice.sol\":12139:12161  users[referrerAddress] */\n      0xffffffffffffffffffffffffffffffffffffffff\n      and\n      0xffffffffffffffffffffffffffffffffffffffff\n      and\n      dup2\n      mstore\n      0x20\n      add\n      swap1\n      dup2\n      mstore\n      0x20\n      add\n      0x00\n      keccak256\n        /* \"contracts/Practice.sol\":12139:12170  users[referrerAddress].x6Matrix */\n      0x06\n      add\n        /* \"contracts/Practice.sol\":12139:12177  users[referrerAddress].x6Matrix[level] */\n      0x00\n        /* \"contracts/Practice.sol\":12171:12176  level */\n      dup5\n        /* \"contracts/Practice.sol\":12139:12177  users[referrerAddress].x6Matrix[level] */\n      0xff\n      and\n      0xff\n      and\n      dup2\n      mstore\n      0x20\n      add\n      swap1\n      dup2\n      mstore\n      0x20\n      add\n      0x00\n      keccak256\n        /* \"contracts/Practice.sol\":12139:12198  users[referrerAddress].x6Matrix[level].secondLevelReferrals */\n      0x02\n      add\n        /* \"contracts/Practice.sol\":12139:12217  users[referrerAddress].x6Matrix[level].secondLevelReferrals = new address[](0) */\n      swap1\n      dup1\n      mload\n      swap1\n      0x20\n      add\n      swap1\n      tag_375\n      swap3\n      swap2\n      swap1\n      tag_224\n      jump\t// in\n    tag_375:\n      pop\n        /* \"contracts/Practice.sol\":12232:12237  users */\n      0x00\n        /* \"contracts/Practice.sol\":12232:12254  users[referrerAddress] */\n      dup1\n        /* \"contracts/Practice.sol\":12238:12253  referrerAddress */\n      dup5\n        /* \"contracts/Practice.sol\":12232:12254  users[referrerAddress] */\n      0xffffffffffffffffffffffffffffffffffffffff\n      and\n      0xffffffffffffffffffffffffffffffffffffffff\n      and\n      dup2\n      mstore\n      0x20\n      add\n      swap1\n      dup2\n      mstore\n      0x20\n      add\n      0x00\n      keccak256\n        /* \"contracts/Practice.sol\":12232:12269  users[referrerAddress].activeX6Levels */\n      0x04\n      add\n        /* \"contracts/Practice.sol\":12232:12278  users[referrerAddress].activeX6Levels[level+1] */\n      0x00\n        /* \"contracts/Practice.sol\":12276:12277  1 */\n      0x01\n        /* \"contracts/Practice.sol\":12270:12275  level */\n      dup5\n        /* \"contracts/Practice.sol\":12270:12277  level+1 */\n      tag_376\n      swap2\n      swap1\n      tag_226\n      jump\t// in\n    tag_376:\n        /* \"contracts/Practice.sol\":12232:12278  users[referrerAddress].activeX6Levels[level+1] */\n      0xff\n      and\n      0xff\n      and\n      dup2\n      mstore\n      0x20\n      add\n      swap1\n      dup2\n      mstore\n      0x20\n      add\n      0x00\n      keccak256\n      0x00\n      swap1\n      sload\n      swap1\n      0x0100\n      exp\n      swap1\n      div\n      0xff\n      and\n        /* \"contracts/Practice.sol\":12231:12278  !users[referrerAddress].activeX6Levels[level+1] */\n      iszero\n        /* \"contracts/Practice.sol\":12231:12301  !users[referrerAddress].activeX6Levels[level+1] && level != LAST_LEVEL */\n      dup1\n      iszero\n      tag_377\n      jumpi\n      pop\n        /* \"contracts/Practice.sol\":751:753  12 */\n      0x0c\n        /* \"contracts/Practice.sol\":12282:12301  level != LAST_LEVEL */\n      0xff\n      and\n        /* \"contracts/Practice.sol\":12282:12287  level */\n      dup3\n        /* \"contracts/Practice.sol\":12282:12301  level != LAST_LEVEL */\n      0xff\n      and\n      eq\n      iszero\n        /* \"contracts/Practice.sol\":12231:12301  !users[referrerAddress].activeX6Levels[level+1] && level != LAST_LEVEL */\n    tag_377:\n        /* \"contracts/Practice.sol\":12227:12381  if (!users[referrerAddress].activeX6Levels[level+1] && level != LAST_LEVEL) {... */\n      iszero\n      tag_378\n      jumpi\n        /* \"contracts/Practice.sol\":12366:12370  true */\n      0x01\n        /* \"contracts/Practice.sol\":12317:12322  users */\n      0x00\n        /* \"contracts/Practice.sol\":12317:12339  users[referrerAddress] */\n      dup1\n        /* \"contracts/Practice.sol\":12323:12338  referrerAddress */\n      dup6\n        /* \"contracts/Practice.sol\":12317:12339  users[referrerAddress] */\n      0xffffffffffffffffffffffffffffffffffffffff\n      and\n      0xffffffffffffffffffffffffffffffffffffffff\n      and\n      dup2\n      mstore\n      0x20\n      add\n      swap1\n      dup2\n      mstore\n      0x20\n      add\n      0x00\n      keccak256\n        /* \"contracts/Practice.sol\":12317:12348  users[referrerAddress].x6Matrix */\n      0x06\n      add\n        /* \"contracts/Practice.sol\":12317:12355  users[referrerAddress].x6Matrix[level] */\n      0x00\n        /* \"contracts/Practice.sol\":12349:12354  level */\n      dup5\n        /* \"contracts/Practice.sol\":12317:12355  users[referrerAddress].x6Matrix[level] */\n      0xff\n      and\n      0xff\n      and\n      dup2\n      mstore\n      0x20\n      add\n      swap1\n      dup2\n      mstore\n      0x20\n      add\n      0x00\n      keccak256\n        /* \"contracts/Practice.sol\":12317:12363  users[referrerAddress].x6Matrix[level].blocked */\n      0x03\n      add\n      0x00\n        /* \"contracts/Practice.sol\":12317:12370  users[referrerAddress].x6Matrix[level].blocked = true */\n      0x0100\n      exp\n      dup2\n      sload\n      dup2\n      0xff\n      mul\n      not\n      and\n      swap1\n      dup4\n      iszero\n      iszero\n      mul\n      or\n      swap1\n      sstore\n      pop\n        /* \"contracts/Practice.sol\":12227:12381  if (!users[referrerAddress].activeX6Levels[level+1] && level != LAST_LEVEL) {... */\n    tag_378:\n        /* \"contracts/Practice.sol\":12391:12396  users */\n      0x00\n        /* \"contracts/Practice.sol\":12391:12413  users[referrerAddress] */\n      dup1\n        /* \"contracts/Practice.sol\":12397:12412  referrerAddress */\n      dup5\n        /* \"contracts/Practice.sol\":12391:12413  users[referrerAddress] */\n      0xffffffffffffffffffffffffffffffffffffffff\n      and\n      0xffffffffffffffffffffffffffffffffffffffff\n      and\n      dup2\n      mstore\n      0x20\n      add\n      swap1\n      dup2\n      mstore\n      0x20\n      add\n      0x00\n      keccak256\n        /* \"contracts/Practice.sol\":12391:12422  users[referrerAddress].x6Matrix */\n      0x06\n      add\n        /* \"contracts/Practice.sol\":12391:12429  users[referrerAddress].x6Matrix[level] */\n      0x00\n        /* \"contracts/Practice.sol\":12423:12428  level */\n      dup4\n        /* \"contracts/Practice.sol\":12391:12429  users[referrerAddress].x6Matrix[level] */\n      0xff\n      and\n      0xff\n      and\n      dup2\n      mstore\n      0x20\n      add\n      swap1\n      dup2\n      mstore\n      0x20\n      add\n      0x00\n      keccak256\n        /* \"contracts/Practice.sol\":12391:12443  users[referrerAddress].x6Matrix[level].reinvestCount */\n      0x04\n      add\n      0x00\n        /* \"contracts/Practice.sol\":12391:12445  users[referrerAddress].x6Matrix[level].reinvestCount++ */\n      dup2\n      sload\n      dup1\n      swap3\n      swap2\n      swap1\n      tag_379\n      swap1\n      tag_141\n      jump\t// in\n    tag_379:\n      swap2\n      swap1\n      pop\n      sstore\n      pop\n        /* \"contracts/Practice.sol\":12479:12484  owner */\n      0x05\n      0x00\n      swap1\n      sload\n      swap1\n      0x0100\n      exp\n      swap1\n      div\n      0xffffffffffffffffffffffffffffffffffffffff\n      and\n        /* \"contracts/Practice.sol\":12460:12484  referrerAddress != owner */\n      0xffffffffffffffffffffffffffffffffffffffff\n      and\n        /* \"contracts/Practice.sol\":12460:12475  referrerAddress */\n      dup4\n        /* \"contracts/Practice.sol\":12460:12484  referrerAddress != owner */\n      0xffffffffffffffffffffffffffffffffffffffff\n      and\n      eq\n        /* \"contracts/Practice.sol\":12456:12893  if (referrerAddress != owner) {... */\n      tag_380\n      jumpi\n        /* \"contracts/Practice.sol\":12500:12527  address freeReferrerAddress */\n      0x00\n        /* \"contracts/Practice.sol\":12530:12572  findFreeX6Referrer(referrerAddress, level) */\n      tag_381\n        /* \"contracts/Practice.sol\":12549:12564  referrerAddress */\n      dup5\n        /* \"contracts/Practice.sol\":12566:12571  level */\n      dup5\n        /* \"contracts/Practice.sol\":12530:12548  findFreeX6Referrer */\n      tag_112\n        /* \"contracts/Practice.sol\":12530:12572  findFreeX6Referrer(referrerAddress, level) */\n      jump\t// in\n    tag_381:\n        /* \"contracts/Practice.sol\":12500:12572  address freeReferrerAddress = findFreeX6Referrer(referrerAddress, level) */\n      swap1\n      pop\n        /* \"contracts/Practice.sol\":12639:12650  userAddress */\n      dup5\n        /* \"contracts/Practice.sol\":12592:12661  Reinvest(referrerAddress, freeReferrerAddress, userAddress, 2, level) */\n      0xffffffffffffffffffffffffffffffffffffffff\n      and\n        /* \"contracts/Practice.sol\":12618:12637  freeReferrerAddress */\n      dup2\n        /* \"contracts/Practice.sol\":12592:12661  Reinvest(referrerAddress, freeReferrerAddress, userAddress, 2, level) */\n      0xffffffffffffffffffffffffffffffffffffffff\n      and\n        /* \"contracts/Practice.sol\":12601:12616  referrerAddress */\n      dup6\n        /* \"contracts/Practice.sol\":12592:12661  Reinvest(referrerAddress, freeReferrerAddress, userAddress, 2, level) */\n      0xffffffffffffffffffffffffffffffffffffffff\n      and\n      0xa00c953eff38ec1b71e7fe060b2ab8df0bbe5354319fbdde4fbdafd6324386a6\n        /* \"contracts/Practice.sol\":12652:12653  2 */\n      0x02\n        /* \"contracts/Practice.sol\":12655:12660  level */\n      dup8\n        /* \"contracts/Practice.sol\":12592:12661  Reinvest(referrerAddress, freeReferrerAddress, userAddress, 2, level) */\n      mload(0x40)\n      tag_382\n      swap3\n      swap2\n      swap1\n      tag_201\n      jump\t// in\n    tag_382:\n      mload(0x40)\n      dup1\n      swap2\n      sub\n      swap1\n      log4\n        /* \"contracts/Practice.sol\":12675:12736  updateX6Referrer(referrerAddress, freeReferrerAddress, level) */\n      tag_383\n        /* \"contracts/Practice.sol\":12692:12707  referrerAddress */\n      dup5\n        /* \"contracts/Practice.sol\":12709:12728  freeReferrerAddress */\n      dup3\n        /* \"contracts/Practice.sol\":12730:12735  level */\n      dup6\n        /* \"contracts/Practice.sol\":12675:12691  updateX6Referrer */\n      tag_148\n        /* \"contracts/Practice.sol\":12675:12736  updateX6Referrer(referrerAddress, freeReferrerAddress, level) */\n      jump\t// in\n    tag_383:\n        /* \"contracts/Practice.sol\":12486:12747  {... */\n      pop\n        /* \"contracts/Practice.sol\":12456:12893  if (referrerAddress != owner) {... */\n      jump(tag_384)\n    tag_380:\n        /* \"contracts/Practice.sol\":12767:12813  sendETHDividends(owner, userAddress, 2, level) */\n      tag_385\n        /* \"contracts/Practice.sol\":12784:12789  owner */\n      0x05\n      0x00\n      swap1\n      sload\n      swap1\n      0x0100\n      exp\n      swap1\n      div\n      0xffffffffffffffffffffffffffffffffffffffff\n      and\n        /* \"contracts/Practice.sol\":12791:12802  userAddress */\n      dup6\n        /* \"contracts/Practice.sol\":12804:12805  2 */\n      0x02\n        /* \"contracts/Practice.sol\":12807:12812  level */\n      dup6\n        /* \"contracts/Practice.sol\":12767:12783  sendETHDividends */\n      tag_216\n        /* \"contracts/Practice.sol\":12767:12813  sendETHDividends(owner, userAddress, 2, level) */\n      jump\t// in\n    tag_385:\n        /* \"contracts/Practice.sol\":12860:12871  userAddress */\n      dup4\n        /* \"contracts/Practice.sol\":12832:12882  Reinvest(owner, address(0), userAddress, 2, level) */\n      0xffffffffffffffffffffffffffffffffffffffff\n      and\n        /* \"contracts/Practice.sol\":12856:12857  0 */\n      0x00\n        /* \"contracts/Practice.sol\":12832:12882  Reinvest(owner, address(0), userAddress, 2, level) */\n      0xffffffffffffffffffffffffffffffffffffffff\n      and\n        /* \"contracts/Practice.sol\":12841:12846  owner */\n      0x05\n      0x00\n      swap1\n      sload\n      swap1\n      0x0100\n      exp\n      swap1\n      div\n      0xffffffffffffffffffffffffffffffffffffffff\n      and\n        /* \"contracts/Practice.sol\":12832:12882  Reinvest(owner, address(0), userAddress, 2, level) */\n      0xffffffffffffffffffffffffffffffffffffffff\n      and\n      0xa00c953eff38ec1b71e7fe060b2ab8df0bbe5354319fbdde4fbdafd6324386a6\n        /* \"contracts/Practice.sol\":12873:12874  2 */\n      0x02\n        /* \"contracts/Practice.sol\":12876:12881  level */\n      dup7\n        /* \"contracts/Practice.sol\":12832:12882  Reinvest(owner, address(0), userAddress, 2, level) */\n      mload(0x40)\n      tag_386\n      swap3\n      swap2\n      swap1\n      tag_201\n      jump\t// in\n    tag_386:\n      mload(0x40)\n      dup1\n      swap2\n      sub\n      swap1\n      log4\n        /* \"contracts/Practice.sol\":12456:12893  if (referrerAddress != owner) {... */\n    tag_384:\n        /* \"contracts/Practice.sol\":11439:12899  function updateX6(address userAddress, address referrerAddress, uint8 level, bool x6) private {... */\n    tag_363:\n      pop\n      pop\n      pop\n      pop\n      jump\t// out\n    tag_224:\n      dup3\n      dup1\n      sload\n      dup3\n      dup3\n      sstore\n      swap1\n      0x00\n      mstore\n      keccak256(0x00, 0x20)\n      swap1\n      dup2\n      add\n      swap3\n      dup3\n      iszero\n      tag_387\n      jumpi\n      swap2\n      0x20\n      mul\n      dup3\n      add\n    tag_388:\n      dup3\n      dup2\n      gt\n      iszero\n      tag_389\n      jumpi\n      dup3\n      mload\n      dup3\n      exp(0x0100, 0x00)\n      dup2\n      sload\n      dup2\n      0xffffffffffffffffffffffffffffffffffffffff\n      mul\n      not\n      and\n      swap1\n      dup4\n      0xffffffffffffffffffffffffffffffffffffffff\n      and\n      mul\n      or\n      swap1\n      sstore\n      pop\n      swap2\n      0x20\n      add\n      swap2\n      swap1\n      0x01\n      add\n      swap1\n      jump(tag_388)\n    tag_389:\n    tag_387:\n      pop\n      swap1\n      pop\n      tag_390\n      swap2\n      swap1\n      tag_391\n      jump\t// in\n    tag_390:\n      pop\n      swap1\n      jump\t// out\n    tag_391:\n    tag_392:\n      dup1\n      dup3\n      gt\n      iszero\n      tag_393\n      jumpi\n      0x00\n      dup2\n      0x00\n      swap1\n      sstore\n      pop\n      0x01\n      add\n      jump(tag_392)\n    tag_393:\n      pop\n      swap1\n      jump\t// out\n        /* \"#utility.yul\":88:205   */\n    tag_395:\n        /* \"#utility.yul\":197:198   */\n      0x00\n        /* \"#utility.yul\":194:195   */\n      dup1\n        /* \"#utility.yul\":187:199   */\n      revert\n        /* \"#utility.yul\":334:460   */\n    tag_397:\n        /* \"#utility.yul\":371:378   */\n      0x00\n        /* \"#utility.yul\":411:453   */\n      0xffffffffffffffffffffffffffffffffffffffff\n        /* \"#utility.yul\":404:409   */\n      dup3\n        /* \"#utility.yul\":400:454   */\n      and\n        /* \"#utility.yul\":389:454   */\n      swap1\n      pop\n        /* \"#utility.yul\":334:460   */\n      swap2\n      swap1\n      pop\n      jump\t// out\n        /* \"#utility.yul\":466:562   */\n    tag_398:\n        /* \"#utility.yul\":503:510   */\n      0x00\n        /* \"#utility.yul\":532:556   */\n      tag_463\n        /* \"#utility.yul\":550:555   */\n      dup3\n        /* \"#utility.yul\":532:556   */\n      tag_397\n      jump\t// in\n    tag_463:\n        /* \"#utility.yul\":521:556   */\n      swap1\n      pop\n        /* \"#utility.yul\":466:562   */\n      swap2\n      swap1\n      pop\n      jump\t// out\n        /* \"#utility.yul\":568:690   */\n    tag_399:\n        /* \"#utility.yul\":641:665   */\n      tag_465\n        /* \"#utility.yul\":659:664   */\n      dup2\n        /* \"#utility.yul\":641:665   */\n      tag_398\n      jump\t// in\n    tag_465:\n        /* \"#utility.yul\":634:639   */\n      dup2\n        /* \"#utility.yul\":631:666   */\n      eq\n        /* \"#utility.yul\":621:684   */\n      tag_466\n      jumpi\n        /* \"#utility.yul\":680:681   */\n      0x00\n        /* \"#utility.yul\":677:678   */\n      dup1\n        /* \"#utility.yul\":670:682   */\n      revert\n        /* \"#utility.yul\":621:684   */\n    tag_466:\n        /* \"#utility.yul\":568:690   */\n      pop\n      jump\t// out\n        /* \"#utility.yul\":696:835   */\n    tag_400:\n        /* \"#utility.yul\":742:747   */\n      0x00\n        /* \"#utility.yul\":780:786   */\n      dup2\n        /* \"#utility.yul\":767:787   */\n      calldataload\n        /* \"#utility.yul\":758:787   */\n      swap1\n      pop\n        /* \"#utility.yul\":796:829   */\n      tag_468\n        /* \"#utility.yul\":823:828   */\n      dup2\n        /* \"#utility.yul\":796:829   */\n      tag_399\n      jump\t// in\n    tag_468:\n        /* \"#utility.yul\":696:835   */\n      swap3\n      swap2\n      pop\n      pop\n      jump\t// out\n        /* \"#utility.yul\":841:927   */\n    tag_401:\n        /* \"#utility.yul\":876:883   */\n      0x00\n        /* \"#utility.yul\":916:920   */\n      0xff\n        /* \"#utility.yul\":909:914   */\n      dup3\n        /* \"#utility.yul\":905:921   */\n      and\n        /* \"#utility.yul\":894:921   */\n      swap1\n      pop\n        /* \"#utility.yul\":841:927   */\n      swap2\n      swap1\n      pop\n      jump\t// out\n        /* \"#utility.yul\":933:1051   */\n    tag_402:\n        /* \"#utility.yul\":1004:1026   */\n      tag_471\n        /* \"#utility.yul\":1020:1025   */\n      dup2\n        /* \"#utility.yul\":1004:1026   */\n      tag_401\n      jump\t// in\n    tag_471:\n        /* \"#utility.yul\":997:1002   */\n      dup2\n        /* \"#utility.yul\":994:1027   */\n      eq\n        /* \"#utility.yul\":984:1045   */\n      tag_472\n      jumpi\n        /* \"#utility.yul\":1041:1042   */\n      0x00\n        /* \"#utility.yul\":1038:1039   */\n      dup1\n        /* \"#utility.yul\":1031:1043   */\n      revert\n        /* \"#utility.yul\":984:1045   */\n    tag_472:\n        /* \"#utility.yul\":933:1051   */\n      pop\n      jump\t// out\n        /* \"#utility.yul\":1057:1192   */\n    tag_403:\n        /* \"#utility.yul\":1101:1106   */\n      0x00\n        /* \"#utility.yul\":1139:1145   */\n      dup2\n        /* \"#utility.yul\":1126:1146   */\n      calldataload\n        /* \"#utility.yul\":1117:1146   */\n      swap1\n      pop\n        /* \"#utility.yul\":1155:1186   */\n      tag_474\n        /* \"#utility.yul\":1180:1185   */\n      dup2\n        /* \"#utility.yul\":1155:1186   */\n      tag_402\n      jump\t// in\n    tag_474:\n        /* \"#utility.yul\":1057:1192   */\n      swap3\n      swap2\n      pop\n      pop\n      jump\t// out\n        /* \"#utility.yul\":1198:1668   */\n    tag_38:\n        /* \"#utility.yul\":1264:1270   */\n      0x00\n        /* \"#utility.yul\":1272:1278   */\n      dup1\n        /* \"#utility.yul\":1321:1323   */\n      0x40\n        /* \"#utility.yul\":1309:1318   */\n      dup4\n        /* \"#utility.yul\":1300:1307   */\n      dup6\n        /* \"#utility.yul\":1296:1319   */\n      sub\n        /* \"#utility.yul\":1292:1324   */\n      slt\n        /* \"#utility.yul\":1289:1408   */\n      iszero\n      tag_476\n      jumpi\n        /* \"#utility.yul\":1327:1406   */\n      tag_477\n      tag_395\n      jump\t// in\n    tag_477:\n        /* \"#utility.yul\":1289:1408   */\n    tag_476:\n        /* \"#utility.yul\":1447:1448   */\n      0x00\n        /* \"#utility.yul\":1472:1525   */\n      tag_478\n        /* \"#utility.yul\":1517:1524   */\n      dup6\n        /* \"#utility.yul\":1508:1514   */\n      dup3\n        /* \"#utility.yul\":1497:1506   */\n      dup7\n        /* \"#utility.yul\":1493:1515   */\n      add\n        /* \"#utility.yul\":1472:1525   */\n      tag_400\n      jump\t// in\n    tag_478:\n        /* \"#utility.yul\":1462:1525   */\n      swap3\n      pop\n        /* \"#utility.yul\":1418:1535   */\n      pop\n        /* \"#utility.yul\":1574:1576   */\n      0x20\n        /* \"#utility.yul\":1600:1651   */\n      tag_479\n        /* \"#utility.yul\":1643:1650   */\n      dup6\n        /* \"#utility.yul\":1634:1640   */\n      dup3\n        /* \"#utility.yul\":1623:1632   */\n      dup7\n        /* \"#utility.yul\":1619:1641   */\n      add\n        /* \"#utility.yul\":1600:1651   */\n      tag_403\n      jump\t// in\n    tag_479:\n        /* \"#utility.yul\":1590:1651   */\n      swap2\n      pop\n        /* \"#utility.yul\":1545:1661   */\n      pop\n        /* \"#utility.yul\":1198:1668   */\n      swap3\n      pop\n      swap3\n      swap1\n      pop\n      jump\t// out\n        /* \"#utility.yul\":1674:1764   */\n    tag_404:\n        /* \"#utility.yul\":1708:1715   */\n      0x00\n        /* \"#utility.yul\":1751:1756   */\n      dup2\n        /* \"#utility.yul\":1744:1757   */\n      iszero\n        /* \"#utility.yul\":1737:1758   */\n      iszero\n        /* \"#utility.yul\":1726:1758   */\n      swap1\n      pop\n        /* \"#utility.yul\":1674:1764   */\n      swap2\n      swap1\n      pop\n      jump\t// out\n        /* \"#utility.yul\":1770:1879   */\n    tag_405:\n        /* \"#utility.yul\":1851:1872   */\n      tag_482\n        /* \"#utility.yul\":1866:1871   */\n      dup2\n        /* \"#utility.yul\":1851:1872   */\n      tag_404\n      jump\t// in\n    tag_482:\n        /* \"#utility.yul\":1846:1849   */\n      dup3\n        /* \"#utility.yul\":1839:1873   */\n      mstore\n        /* \"#utility.yul\":1770:1879   */\n      pop\n      pop\n      jump\t// out\n        /* \"#utility.yul\":1885:2095   */\n    tag_41:\n        /* \"#utility.yul\":1972:1976   */\n      0x00\n        /* \"#utility.yul\":2010:2012   */\n      0x20\n        /* \"#utility.yul\":1999:2008   */\n      dup3\n        /* \"#utility.yul\":1995:2013   */\n      add\n        /* \"#utility.yul\":1987:2013   */\n      swap1\n      pop\n        /* \"#utility.yul\":2023:2088   */\n      tag_484\n        /* \"#utility.yul\":2085:2086   */\n      0x00\n        /* \"#utility.yul\":2074:2083   */\n      dup4\n        /* \"#utility.yul\":2070:2087   */\n      add\n        /* \"#utility.yul\":2061:2067   */\n      dup5\n        /* \"#utility.yul\":2023:2088   */\n      tag_405\n      jump\t// in\n    tag_484:\n        /* \"#utility.yul\":1885:2095   */\n      swap3\n      swap2\n      pop\n      pop\n      jump\t// out\n        /* \"#utility.yul\":2101:2430   */\n    tag_45:\n        /* \"#utility.yul\":2160:2166   */\n      0x00\n        /* \"#utility.yul\":2209:2211   */\n      0x20\n        /* \"#utility.yul\":2197:2206   */\n      dup3\n        /* \"#utility.yul\":2188:2195   */\n      dup5\n        /* \"#utility.yul\":2184:2207   */\n      sub\n        /* \"#utility.yul\":2180:2212   */\n      slt\n        /* \"#utility.yul\":2177:2296   */\n      iszero\n      tag_486\n      jumpi\n        /* \"#utility.yul\":2215:2294   */\n      tag_487\n      tag_395\n      jump\t// in\n    tag_487:\n        /* \"#utility.yul\":2177:2296   */\n    tag_486:\n        /* \"#utility.yul\":2335:2336   */\n      0x00\n        /* \"#utility.yul\":2360:2413   */\n      tag_488\n        /* \"#utility.yul\":2405:2412   */\n      dup5\n        /* \"#utility.yul\":2396:2402   */\n      dup3\n        /* \"#utility.yul\":2385:2394   */\n      dup6\n        /* \"#utility.yul\":2381:2403   */\n      add\n        /* \"#utility.yul\":2360:2413   */\n      tag_400\n      jump\t// in\n    tag_488:\n        /* \"#utility.yul\":2350:2413   */\n      swap2\n      pop\n        /* \"#utility.yul\":2306:2423   */\n      pop\n        /* \"#utility.yul\":2101:2430   */\n      swap3\n      swap2\n      pop\n      pop\n      jump\t// out\n        /* \"#utility.yul\":2436:2513   */\n    tag_406:\n        /* \"#utility.yul\":2473:2480   */\n      0x00\n        /* \"#utility.yul\":2502:2507   */\n      dup2\n        /* \"#utility.yul\":2491:2507   */\n      swap1\n      pop\n        /* \"#utility.yul\":2436:2513   */\n      swap2\n      swap1\n      pop\n      jump\t// out\n        /* \"#utility.yul\":2519:2637   */\n    tag_407:\n        /* \"#utility.yul\":2606:2630   */\n      tag_491\n        /* \"#utility.yul\":2624:2629   */\n      dup2\n        /* \"#utility.yul\":2606:2630   */\n      tag_406\n      jump\t// in\n    tag_491:\n        /* \"#utility.yul\":2601:2604   */\n      dup3\n        /* \"#utility.yul\":2594:2631   */\n      mstore\n        /* \"#utility.yul\":2519:2637   */\n      pop\n      pop\n      jump\t// out\n        /* \"#utility.yul\":2643:2865   */\n    tag_48:\n        /* \"#utility.yul\":2736:2740   */\n      0x00\n        /* \"#utility.yul\":2774:2776   */\n      0x20\n        /* \"#utility.yul\":2763:2772   */\n      dup3\n        /* \"#utility.yul\":2759:2777   */\n      add\n        /* \"#utility.yul\":2751:2777   */\n      swap1\n      pop\n        /* \"#utility.yul\":2787:2858   */\n      tag_493\n        /* \"#utility.yul\":2855:2856   */\n      0x00\n        /* \"#utility.yul\":2844:2853   */\n      dup4\n        /* \"#utility.yul\":2840:2857   */\n      add\n        /* \"#utility.yul\":2831:2837   */\n      dup5\n        /* \"#utility.yul\":2787:2858   */\n      tag_407\n      jump\t// in\n    tag_493:\n        /* \"#utility.yul\":2643:2865   */\n      swap3\n      swap2\n      pop\n      pop\n      jump\t// out\n        /* \"#utility.yul\":2871:2983   */\n    tag_408:\n        /* \"#utility.yul\":2954:2976   */\n      tag_495\n        /* \"#utility.yul\":2970:2975   */\n      dup2\n        /* \"#utility.yul\":2954:2976   */\n      tag_401\n      jump\t// in\n    tag_495:\n        /* \"#utility.yul\":2949:2952   */\n      dup3\n        /* \"#utility.yul\":2942:2977   */\n      mstore\n        /* \"#utility.yul\":2871:2983   */\n      pop\n      pop\n      jump\t// out\n        /* \"#utility.yul\":2989:3203   */\n    tag_53:\n        /* \"#utility.yul\":3078:3082   */\n      0x00\n        /* \"#utility.yul\":3116:3118   */\n      0x20\n        /* \"#utility.yul\":3105:3114   */\n      dup3\n        /* \"#utility.yul\":3101:3119   */\n      add\n        /* \"#utility.yul\":3093:3119   */\n      swap1\n      pop\n        /* \"#utility.yul\":3129:3196   */\n      tag_497\n        /* \"#utility.yul\":3193:3194   */\n      0x00\n        /* \"#utility.yul\":3182:3191   */\n      dup4\n        /* \"#utility.yul\":3178:3195   */\n      add\n        /* \"#utility.yul\":3169:3175   */\n      dup5\n        /* \"#utility.yul\":3129:3196   */\n      tag_408\n      jump\t// in\n    tag_497:\n        /* \"#utility.yul\":2989:3203   */\n      swap3\n      swap2\n      pop\n      pop\n      jump\t// out\n        /* \"#utility.yul\":3209:3331   */\n    tag_409:\n        /* \"#utility.yul\":3282:3306   */\n      tag_499\n        /* \"#utility.yul\":3300:3305   */\n      dup2\n        /* \"#utility.yul\":3282:3306   */\n      tag_406\n      jump\t// in\n    tag_499:\n        /* \"#utility.yul\":3275:3280   */\n      dup2\n        /* \"#utility.yul\":3272:3307   */\n      eq\n        /* \"#utility.yul\":3262:3325   */\n      tag_500\n      jumpi\n        /* \"#utility.yul\":3321:3322   */\n      0x00\n        /* \"#utility.yul\":3318:3319   */\n      dup1\n        /* \"#utility.yul\":3311:3323   */\n      revert\n        /* \"#utility.yul\":3262:3325   */\n    tag_500:\n        /* \"#utility.yul\":3209:3331   */\n      pop\n      jump\t// out\n        /* \"#utility.yul\":3337:3476   */\n    tag_410:\n        /* \"#utility.yul\":3383:3388   */\n      0x00\n        /* \"#utility.yul\":3421:3427   */\n      dup2\n        /* \"#utility.yul\":3408:3428   */\n      calldataload\n        /* \"#utility.yul\":3399:3428   */\n      swap1\n      pop\n        /* \"#utility.yul\":3437:3470   */\n      tag_502\n        /* \"#utility.yul\":3464:3469   */\n      dup2\n        /* \"#utility.yul\":3437:3470   */\n      tag_409\n      jump\t// in\n    tag_502:\n        /* \"#utility.yul\":3337:3476   */\n      swap3\n      swap2\n      pop\n      pop\n      jump\t// out\n        /* \"#utility.yul\":3482:3811   */\n    tag_57:\n        /* \"#utility.yul\":3541:3547   */\n      0x00\n        /* \"#utility.yul\":3590:3592   */\n      0x20\n        /* \"#utility.yul\":3578:3587   */\n      dup3\n        /* \"#utility.yul\":3569:3576   */\n      dup5\n        /* \"#utility.yul\":3565:3588   */\n      sub\n        /* \"#utility.yul\":3561:3593   */\n      slt\n        /* \"#utility.yul\":3558:3677   */\n      iszero\n      tag_504\n      jumpi\n        /* \"#utility.yul\":3596:3675   */\n      tag_505\n      tag_395\n      jump\t// in\n    tag_505:\n        /* \"#utility.yul\":3558:3677   */\n    tag_504:\n        /* \"#utility.yul\":3716:3717   */\n      0x00\n        /* \"#utility.yul\":3741:3794   */\n      tag_506\n        /* \"#utility.yul\":3786:3793   */\n      dup5\n        /* \"#utility.yul\":3777:3783   */\n      dup3\n        /* \"#utility.yul\":3766:3775   */\n      dup6\n        /* \"#utility.yul\":3762:3784   */\n      add\n        /* \"#utility.yul\":3741:3794   */\n      tag_410\n      jump\t// in\n    tag_506:\n        /* \"#utility.yul\":3731:3794   */\n      swap2\n      pop\n        /* \"#utility.yul\":3687:3804   */\n      pop\n        /* \"#utility.yul\":3482:3811   */\n      swap3\n      swap2\n      pop\n      pop\n      jump\t// out\n        /* \"#utility.yul\":3817:3935   */\n    tag_411:\n        /* \"#utility.yul\":3904:3928   */\n      tag_508\n        /* \"#utility.yul\":3922:3927   */\n      dup2\n        /* \"#utility.yul\":3904:3928   */\n      tag_398\n      jump\t// in\n    tag_508:\n        /* \"#utility.yul\":3899:3902   */\n      dup3\n        /* \"#utility.yul\":3892:3929   */\n      mstore\n        /* \"#utility.yul\":3817:3935   */\n      pop\n      pop\n      jump\t// out\n        /* \"#utility.yul\":3941:4163   */\n    tag_60:\n        /* \"#utility.yul\":4034:4038   */\n      0x00\n        /* \"#utility.yul\":4072:4074   */\n      0x20\n        /* \"#utility.yul\":4061:4070   */\n      dup3\n        /* \"#utility.yul\":4057:4075   */\n      add\n        /* \"#utility.yul\":4049:4075   */\n      swap1\n      pop\n        /* \"#utility.yul\":4085:4156   */\n      tag_510\n        /* \"#utility.yul\":4153:4154   */\n      0x00\n        /* \"#utility.yul\":4142:4151   */\n      dup4\n        /* \"#utility.yul\":4138:4155   */\n      add\n        /* \"#utility.yul\":4129:4135   */\n      dup5\n        /* \"#utility.yul\":4085:4156   */\n      tag_411\n      jump\t// in\n    tag_510:\n        /* \"#utility.yul\":3941:4163   */\n      swap3\n      swap2\n      pop\n      pop\n      jump\t// out\n        /* \"#utility.yul\":4169:4283   */\n    tag_412:\n        /* \"#utility.yul\":4236:4242   */\n      0x00\n        /* \"#utility.yul\":4270:4275   */\n      dup2\n        /* \"#utility.yul\":4264:4276   */\n      mload\n        /* \"#utility.yul\":4254:4276   */\n      swap1\n      pop\n        /* \"#utility.yul\":4169:4283   */\n      swap2\n      swap1\n      pop\n      jump\t// out\n        /* \"#utility.yul\":4289:4473   */\n    tag_413:\n        /* \"#utility.yul\":4388:4399   */\n      0x00\n        /* \"#utility.yul\":4422:4428   */\n      dup3\n        /* \"#utility.yul\":4417:4420   */\n      dup3\n        /* \"#utility.yul\":4410:4429   */\n      mstore\n        /* \"#utility.yul\":4462:4466   */\n      0x20\n        /* \"#utility.yul\":4457:4460   */\n      dup3\n        /* \"#utility.yul\":4453:4467   */\n      add\n        /* \"#utility.yul\":4438:4467   */\n      swap1\n      pop\n        /* \"#utility.yul\":4289:4473   */\n      swap3\n      swap2\n      pop\n      pop\n      jump\t// out\n        /* \"#utility.yul\":4479:4611   */\n    tag_414:\n        /* \"#utility.yul\":4546:4550   */\n      0x00\n        /* \"#utility.yul\":4569:4572   */\n      dup2\n        /* \"#utility.yul\":4561:4572   */\n      swap1\n      pop\n        /* \"#utility.yul\":4599:4603   */\n      0x20\n        /* \"#utility.yul\":4594:4597   */\n      dup3\n        /* \"#utility.yul\":4590:4604   */\n      add\n        /* \"#utility.yul\":4582:4604   */\n      swap1\n      pop\n        /* \"#utility.yul\":4479:4611   */\n      swap2\n      swap1\n      pop\n      jump\t// out\n        /* \"#utility.yul\":4617:4725   */\n    tag_415:\n        /* \"#utility.yul\":4694:4718   */\n      tag_515\n        /* \"#utility.yul\":4712:4717   */\n      dup2\n        /* \"#utility.yul\":4694:4718   */\n      tag_398\n      jump\t// in\n    tag_515:\n        /* \"#utility.yul\":4689:4692   */\n      dup3\n        /* \"#utility.yul\":4682:4719   */\n      mstore\n        /* \"#utility.yul\":4617:4725   */\n      pop\n      pop\n      jump\t// out\n        /* \"#utility.yul\":4731:4910   */\n    tag_416:\n        /* \"#utility.yul\":4800:4810   */\n      0x00\n        /* \"#utility.yul\":4821:4867   */\n      tag_517\n        /* \"#utility.yul\":4863:4866   */\n      dup4\n        /* \"#utility.yul\":4855:4861   */\n      dup4\n        /* \"#utility.yul\":4821:4867   */\n      tag_415\n      jump\t// in\n    tag_517:\n        /* \"#utility.yul\":4899:4903   */\n      0x20\n        /* \"#utility.yul\":4894:4897   */\n      dup4\n        /* \"#utility.yul\":4890:4904   */\n      add\n        /* \"#utility.yul\":4876:4904   */\n      swap1\n      pop\n        /* \"#utility.yul\":4731:4910   */\n      swap3\n      swap2\n      pop\n      pop\n      jump\t// out\n        /* \"#utility.yul\":4916:5029   */\n    tag_417:\n        /* \"#utility.yul\":4986:4990   */\n      0x00\n        /* \"#utility.yul\":5018:5022   */\n      0x20\n        /* \"#utility.yul\":5013:5016   */\n      dup3\n        /* \"#utility.yul\":5009:5023   */\n      add\n        /* \"#utility.yul\":5001:5023   */\n      swap1\n      pop\n        /* \"#utility.yul\":4916:5029   */\n      swap2\n      swap1\n      pop\n      jump\t// out\n        /* \"#utility.yul\":5065:5797   */\n    tag_418:\n        /* \"#utility.yul\":5184:5187   */\n      0x00\n        /* \"#utility.yul\":5213:5267   */\n      tag_520\n        /* \"#utility.yul\":5261:5266   */\n      dup3\n        /* \"#utility.yul\":5213:5267   */\n      tag_412\n      jump\t// in\n    tag_520:\n        /* \"#utility.yul\":5283:5369   */\n      tag_521\n        /* \"#utility.yul\":5362:5368   */\n      dup2\n        /* \"#utility.yul\":5357:5360   */\n      dup6\n        /* \"#utility.yul\":5283:5369   */\n      tag_413\n      jump\t// in\n    tag_521:\n        /* \"#utility.yul\":5276:5369   */\n      swap4\n      pop\n        /* \"#utility.yul\":5393:5449   */\n      tag_522\n        /* \"#utility.yul\":5443:5448   */\n      dup4\n        /* \"#utility.yul\":5393:5449   */\n      tag_414\n      jump\t// in\n    tag_522:\n        /* \"#utility.yul\":5472:5479   */\n      dup1\n        /* \"#utility.yul\":5503:5504   */\n      0x00\n        /* \"#utility.yul\":5488:5772   */\n    tag_523:\n        /* \"#utility.yul\":5513:5519   */\n      dup4\n        /* \"#utility.yul\":5510:5511   */\n      dup2\n        /* \"#utility.yul\":5507:5520   */\n      lt\n        /* \"#utility.yul\":5488:5772   */\n      iszero\n      tag_525\n      jumpi\n        /* \"#utility.yul\":5589:5595   */\n      dup2\n        /* \"#utility.yul\":5583:5596   */\n      mload\n        /* \"#utility.yul\":5616:5679   */\n      tag_526\n        /* \"#utility.yul\":5675:5678   */\n      dup9\n        /* \"#utility.yul\":5660:5673   */\n      dup3\n        /* \"#utility.yul\":5616:5679   */\n      tag_416\n      jump\t// in\n    tag_526:\n        /* \"#utility.yul\":5609:5679   */\n      swap8\n      pop\n        /* \"#utility.yul\":5702:5762   */\n      tag_527\n        /* \"#utility.yul\":5755:5761   */\n      dup4\n        /* \"#utility.yul\":5702:5762   */\n      tag_417\n      jump\t// in\n    tag_527:\n        /* \"#utility.yul\":5692:5762   */\n      swap3\n      pop\n        /* \"#utility.yul\":5548:5772   */\n      pop\n        /* \"#utility.yul\":5535:5536   */\n      0x01\n        /* \"#utility.yul\":5532:5533   */\n      dup2\n        /* \"#utility.yul\":5528:5537   */\n      add\n        /* \"#utility.yul\":5523:5537   */\n      swap1\n      pop\n        /* \"#utility.yul\":5488:5772   */\n      jump(tag_523)\n    tag_525:\n        /* \"#utility.yul\":5492:5506   */\n      pop\n        /* \"#utility.yul\":5788:5791   */\n      dup6\n        /* \"#utility.yul\":5781:5791   */\n      swap4\n      pop\n        /* \"#utility.yul\":5189:5797   */\n      pop\n      pop\n      pop\n        /* \"#utility.yul\":5065:5797   */\n      swap3\n      swap2\n      pop\n      pop\n      jump\t// out\n        /* \"#utility.yul\":5803:6495   */\n    tag_83:\n        /* \"#utility.yul\":6024:6028   */\n      0x00\n        /* \"#utility.yul\":6062:6065   */\n      0x80\n        /* \"#utility.yul\":6051:6060   */\n      dup3\n        /* \"#utility.yul\":6047:6066   */\n      add\n        /* \"#utility.yul\":6039:6066   */\n      swap1\n      pop\n        /* \"#utility.yul\":6076:6147   */\n      tag_529\n        /* \"#utility.yul\":6144:6145   */\n      0x00\n        /* \"#utility.yul\":6133:6142   */\n      dup4\n        /* \"#utility.yul\":6129:6146   */\n      add\n        /* \"#utility.yul\":6120:6126   */\n      dup8\n        /* \"#utility.yul\":6076:6147   */\n      tag_411\n      jump\t// in\n    tag_529:\n        /* \"#utility.yul\":6194:6203   */\n      dup2\n        /* \"#utility.yul\":6188:6192   */\n      dup2\n        /* \"#utility.yul\":6184:6204   */\n      sub\n        /* \"#utility.yul\":6179:6181   */\n      0x20\n        /* \"#utility.yul\":6168:6177   */\n      dup4\n        /* \"#utility.yul\":6164:6182   */\n      add\n        /* \"#utility.yul\":6157:6205   */\n      mstore\n        /* \"#utility.yul\":6222:6330   */\n      tag_530\n        /* \"#utility.yul\":6325:6329   */\n      dup2\n        /* \"#utility.yul\":6316:6322   */\n      dup7\n        /* \"#utility.yul\":6222:6330   */\n      tag_418\n      jump\t// in\n    tag_530:\n        /* \"#utility.yul\":6214:6330   */\n      swap1\n      pop\n        /* \"#utility.yul\":6340:6406   */\n      tag_531\n        /* \"#utility.yul\":6402:6404   */\n      0x40\n        /* \"#utility.yul\":6391:6400   */\n      dup4\n        /* \"#utility.yul\":6387:6405   */\n      add\n        /* \"#utility.yul\":6378:6384   */\n      dup6\n        /* \"#utility.yul\":6340:6406   */\n      tag_405\n      jump\t// in\n    tag_531:\n        /* \"#utility.yul\":6416:6488   */\n      tag_532\n        /* \"#utility.yul\":6484:6486   */\n      0x60\n        /* \"#utility.yul\":6473:6482   */\n      dup4\n        /* \"#utility.yul\":6469:6487   */\n      add\n        /* \"#utility.yul\":6460:6466   */\n      dup5\n        /* \"#utility.yul\":6416:6488   */\n      tag_407\n      jump\t// in\n    tag_532:\n        /* \"#utility.yul\":5803:6495   */\n      swap6\n      swap5\n      pop\n      pop\n      pop\n      pop\n      pop\n      jump\t// out\n        /* \"#utility.yul\":6501:7566   */\n    tag_93:\n        /* \"#utility.yul\":6828:6832   */\n      0x00\n        /* \"#utility.yul\":6866:6869   */\n      0xc0\n        /* \"#utility.yul\":6855:6864   */\n      dup3\n        /* \"#utility.yul\":6851:6870   */\n      add\n        /* \"#utility.yul\":6843:6870   */\n      swap1\n      pop\n        /* \"#utility.yul\":6880:6951   */\n      tag_534\n        /* \"#utility.yul\":6948:6949   */\n      0x00\n        /* \"#utility.yul\":6937:6946   */\n      dup4\n        /* \"#utility.yul\":6933:6950   */\n      add\n        /* \"#utility.yul\":6924:6930   */\n      dup10\n        /* \"#utility.yul\":6880:6951   */\n      tag_411\n      jump\t// in\n    tag_534:\n        /* \"#utility.yul\":6998:7007   */\n      dup2\n        /* \"#utility.yul\":6992:6996   */\n      dup2\n        /* \"#utility.yul\":6988:7008   */\n      sub\n        /* \"#utility.yul\":6983:6985   */\n      0x20\n        /* \"#utility.yul\":6972:6981   */\n      dup4\n        /* \"#utility.yul\":6968:6986   */\n      add\n        /* \"#utility.yul\":6961:7009   */\n      mstore\n        /* \"#utility.yul\":7026:7134   */\n      tag_535\n        /* \"#utility.yul\":7129:7133   */\n      dup2\n        /* \"#utility.yul\":7120:7126   */\n      dup9\n        /* \"#utility.yul\":7026:7134   */\n      tag_418\n      jump\t// in\n    tag_535:\n        /* \"#utility.yul\":7018:7134   */\n      swap1\n      pop\n        /* \"#utility.yul\":7181:7190   */\n      dup2\n        /* \"#utility.yul\":7175:7179   */\n      dup2\n        /* \"#utility.yul\":7171:7191   */\n      sub\n        /* \"#utility.yul\":7166:7168   */\n      0x40\n        /* \"#utility.yul\":7155:7164   */\n      dup4\n        /* \"#utility.yul\":7151:7169   */\n      add\n        /* \"#utility.yul\":7144:7192   */\n      mstore\n        /* \"#utility.yul\":7209:7317   */\n      tag_536\n        /* \"#utility.yul\":7312:7316   */\n      dup2\n        /* \"#utility.yul\":7303:7309   */\n      dup8\n        /* \"#utility.yul\":7209:7317   */\n      tag_418\n      jump\t// in\n    tag_536:\n        /* \"#utility.yul\":7201:7317   */\n      swap1\n      pop\n        /* \"#utility.yul\":7327:7393   */\n      tag_537\n        /* \"#utility.yul\":7389:7391   */\n      0x60\n        /* \"#utility.yul\":7378:7387   */\n      dup4\n        /* \"#utility.yul\":7374:7392   */\n      add\n        /* \"#utility.yul\":7365:7371   */\n      dup7\n        /* \"#utility.yul\":7327:7393   */\n      tag_405\n      jump\t// in\n    tag_537:\n        /* \"#utility.yul\":7403:7476   */\n      tag_538\n        /* \"#utility.yul\":7471:7474   */\n      0x80\n        /* \"#utility.yul\":7460:7469   */\n      dup4\n        /* \"#utility.yul\":7456:7475   */\n      add\n        /* \"#utility.yul\":7447:7453   */\n      dup6\n        /* \"#utility.yul\":7403:7476   */\n      tag_407\n      jump\t// in\n    tag_538:\n        /* \"#utility.yul\":7486:7559   */\n      tag_539\n        /* \"#utility.yul\":7554:7557   */\n      0xa0\n        /* \"#utility.yul\":7543:7552   */\n      dup4\n        /* \"#utility.yul\":7539:7558   */\n      add\n        /* \"#utility.yul\":7530:7536   */\n      dup5\n        /* \"#utility.yul\":7486:7559   */\n      tag_411\n      jump\t// in\n    tag_539:\n        /* \"#utility.yul\":6501:7566   */\n      swap8\n      swap7\n      pop\n      pop\n      pop\n      pop\n      pop\n      pop\n      pop\n      jump\t// out\n        /* \"#utility.yul\":7572:8014   */\n    tag_99:\n        /* \"#utility.yul\":7721:7725   */\n      0x00\n        /* \"#utility.yul\":7759:7761   */\n      0x60\n        /* \"#utility.yul\":7748:7757   */\n      dup3\n        /* \"#utility.yul\":7744:7762   */\n      add\n        /* \"#utility.yul\":7736:7762   */\n      swap1\n      pop\n        /* \"#utility.yul\":7772:7843   */\n      tag_541\n        /* \"#utility.yul\":7840:7841   */\n      0x00\n        /* \"#utility.yul\":7829:7838   */\n      dup4\n        /* \"#utility.yul\":7825:7842   */\n      add\n        /* \"#utility.yul\":7816:7822   */\n      dup7\n        /* \"#utility.yul\":7772:7843   */\n      tag_407\n      jump\t// in\n    tag_541:\n        /* \"#utility.yul\":7853:7925   */\n      tag_542\n        /* \"#utility.yul\":7921:7923   */\n      0x20\n        /* \"#utility.yul\":7910:7919   */\n      dup4\n        /* \"#utility.yul\":7906:7924   */\n      add\n        /* \"#utility.yul\":7897:7903   */\n      dup6\n        /* \"#utility.yul\":7853:7925   */\n      tag_411\n      jump\t// in\n    tag_542:\n        /* \"#utility.yul\":7935:8007   */\n      tag_543\n        /* \"#utility.yul\":8003:8005   */\n      0x40\n        /* \"#utility.yul\":7992:8001   */\n      dup4\n        /* \"#utility.yul\":7988:8006   */\n      add\n        /* \"#utility.yul\":7979:7985   */\n      dup5\n        /* \"#utility.yul\":7935:8007   */\n      tag_407\n      jump\t// in\n    tag_543:\n        /* \"#utility.yul\":7572:8014   */\n      swap5\n      swap4\n      pop\n      pop\n      pop\n      pop\n      jump\t// out\n        /* \"#utility.yul\":8020:8486   */\n    tag_107:\n        /* \"#utility.yul\":8084:8090   */\n      0x00\n        /* \"#utility.yul\":8092:8098   */\n      dup1\n        /* \"#utility.yul\":8141:8143   */\n      0x40\n        /* \"#utility.yul\":8129:8138   */\n      dup4\n        /* \"#utility.yul\":8120:8127   */\n      dup6\n        /* \"#utility.yul\":8116:8139   */\n      sub\n        /* \"#utility.yul\":8112:8144   */\n      slt\n        /* \"#utility.yul\":8109:8228   */\n      iszero\n      tag_545\n      jumpi\n        /* \"#utility.yul\":8147:8226   */\n      tag_546\n      tag_395\n      jump\t// in\n    tag_546:\n        /* \"#utility.yul\":8109:8228   */\n    tag_545:\n        /* \"#utility.yul\":8267:8268   */\n      0x00\n        /* \"#utility.yul\":8292:8343   */\n      tag_547\n        /* \"#utility.yul\":8335:8342   */\n      dup6\n        /* \"#utility.yul\":8326:8332   */\n      dup3\n        /* \"#utility.yul\":8315:8324   */\n      dup7\n        /* \"#utility.yul\":8311:8333   */\n      add\n        /* \"#utility.yul\":8292:8343   */\n      tag_403\n      jump\t// in\n    tag_547:\n        /* \"#utility.yul\":8282:8343   */\n      swap3\n      pop\n        /* \"#utility.yul\":8238:8353   */\n      pop\n        /* \"#utility.yul\":8392:8394   */\n      0x20\n        /* \"#utility.yul\":8418:8469   */\n      tag_548\n        /* \"#utility.yul\":8461:8468   */\n      dup6\n        /* \"#utility.yul\":8452:8458   */\n      dup3\n        /* \"#utility.yul\":8441:8450   */\n      dup7\n        /* \"#utility.yul\":8437:8459   */\n      add\n        /* \"#utility.yul\":8418:8469   */\n      tag_403\n      jump\t// in\n    tag_548:\n        /* \"#utility.yul\":8408:8469   */\n      swap2\n      pop\n        /* \"#utility.yul\":8363:8479   */\n      pop\n        /* \"#utility.yul\":8020:8486   */\n      swap3\n      pop\n      swap3\n      swap1\n      pop\n      jump\t// out\n        /* \"#utility.yul\":8492:8817   */\n    tag_117:\n        /* \"#utility.yul\":8549:8555   */\n      0x00\n        /* \"#utility.yul\":8598:8600   */\n      0x20\n        /* \"#utility.yul\":8586:8595   */\n      dup3\n        /* \"#utility.yul\":8577:8584   */\n      dup5\n        /* \"#utility.yul\":8573:8596   */\n      sub\n        /* \"#utility.yul\":8569:8601   */\n      slt\n        /* \"#utility.yul\":8566:8685   */\n      iszero\n      tag_550\n      jumpi\n        /* \"#utility.yul\":8604:8683   */\n      tag_551\n      tag_395\n      jump\t// in\n    tag_551:\n        /* \"#utility.yul\":8566:8685   */\n    tag_550:\n        /* \"#utility.yul\":8724:8725   */\n      0x00\n        /* \"#utility.yul\":8749:8800   */\n      tag_552\n        /* \"#utility.yul\":8792:8799   */\n      dup5\n        /* \"#utility.yul\":8783:8789   */\n      dup3\n        /* \"#utility.yul\":8772:8781   */\n      dup6\n        /* \"#utility.yul\":8768:8790   */\n      add\n        /* \"#utility.yul\":8749:8800   */\n      tag_403\n      jump\t// in\n    tag_552:\n        /* \"#utility.yul\":8739:8800   */\n      swap2\n      pop\n        /* \"#utility.yul\":8695:8810   */\n      pop\n        /* \"#utility.yul\":8492:8817   */\n      swap3\n      swap2\n      pop\n      pop\n      jump\t// out\n        /* \"#utility.yul\":8823:8992   */\n    tag_419:\n        /* \"#utility.yul\":8907:8918   */\n      0x00\n        /* \"#utility.yul\":8941:8947   */\n      dup3\n        /* \"#utility.yul\":8936:8939   */\n      dup3\n        /* \"#utility.yul\":8929:8948   */\n      mstore\n        /* \"#utility.yul\":8981:8985   */\n      0x20\n        /* \"#utility.yul\":8976:8979   */\n      dup3\n        /* \"#utility.yul\":8972:8986   */\n      add\n        /* \"#utility.yul\":8957:8986   */\n      swap1\n      pop\n        /* \"#utility.yul\":8823:8992   */\n      swap3\n      swap2\n      pop\n      pop\n      jump\t// out\n        /* \"#utility.yul\":8998:9174   */\n    tag_420:\n        /* \"#utility.yul\":9138:9166   */\n      0x526567697374726174696f6e20636f737420302e303520455448000000000000\n        /* \"#utility.yul\":9134:9135   */\n      0x00\n        /* \"#utility.yul\":9126:9132   */\n      dup3\n        /* \"#utility.yul\":9122:9136   */\n      add\n        /* \"#utility.yul\":9115:9167   */\n      mstore\n        /* \"#utility.yul\":8998:9174   */\n      pop\n      jump\t// out\n        /* \"#utility.yul\":9180:9546   */\n    tag_421:\n        /* \"#utility.yul\":9322:9325   */\n      0x00\n        /* \"#utility.yul\":9343:9410   */\n      tag_556\n        /* \"#utility.yul\":9407:9409   */\n      0x1a\n        /* \"#utility.yul\":9402:9405   */\n      dup4\n        /* \"#utility.yul\":9343:9410   */\n      tag_419\n      jump\t// in\n    tag_556:\n        /* \"#utility.yul\":9336:9410   */\n      swap2\n      pop\n        /* \"#utility.yul\":9419:9512   */\n      tag_557\n        /* \"#utility.yul\":9508:9511   */\n      dup3\n        /* \"#utility.yul\":9419:9512   */\n      tag_420\n      jump\t// in\n    tag_557:\n        /* \"#utility.yul\":9537:9539   */\n      0x20\n        /* \"#utility.yul\":9532:9535   */\n      dup3\n        /* \"#utility.yul\":9528:9540   */\n      add\n        /* \"#utility.yul\":9521:9540   */\n      swap1\n      pop\n        /* \"#utility.yul\":9180:9546   */\n      swap2\n      swap1\n      pop\n      jump\t// out\n        /* \"#utility.yul\":9552:9971   */\n    tag_128:\n        /* \"#utility.yul\":9718:9722   */\n      0x00\n        /* \"#utility.yul\":9756:9758   */\n      0x20\n        /* \"#utility.yul\":9745:9754   */\n      dup3\n        /* \"#utility.yul\":9741:9759   */\n      add\n        /* \"#utility.yul\":9733:9759   */\n      swap1\n      pop\n        /* \"#utility.yul\":9805:9814   */\n      dup2\n        /* \"#utility.yul\":9799:9803   */\n      dup2\n        /* \"#utility.yul\":9795:9815   */\n      sub\n        /* \"#utility.yul\":9791:9792   */\n      0x00\n        /* \"#utility.yul\":9780:9789   */\n      dup4\n        /* \"#utility.yul\":9776:9793   */\n      add\n        /* \"#utility.yul\":9769:9816   */\n      mstore\n        /* \"#utility.yul\":9833:9964   */\n      tag_559\n        /* \"#utility.yul\":9959:9963   */\n      dup2\n        /* \"#utility.yul\":9833:9964   */\n      tag_421\n      jump\t// in\n    tag_559:\n        /* \"#utility.yul\":9825:9964   */\n      swap1\n      pop\n        /* \"#utility.yul\":9552:9971   */\n      swap2\n      swap1\n      pop\n      jump\t// out\n        /* \"#utility.yul\":9977:10146   */\n    tag_422:\n        /* \"#utility.yul\":10117:10138   */\n      0x5573657220616c72656164792065786973747300000000000000000000000000\n        /* \"#utility.yul\":10113:10114   */\n      0x00\n        /* \"#utility.yul\":10105:10111   */\n      dup3\n        /* \"#utility.yul\":10101:10115   */\n      add\n        /* \"#utility.yul\":10094:10139   */\n      mstore\n        /* \"#utility.yul\":9977:10146   */\n      pop\n      jump\t// out\n        /* \"#utility.yul\":10152:10518   */\n    tag_423:\n        /* \"#utility.yul\":10294:10297   */\n      0x00\n        /* \"#utility.yul\":10315:10382   */\n      tag_562\n        /* \"#utility.yul\":10379:10381   */\n      0x13\n        /* \"#utility.yul\":10374:10377   */\n      dup4\n        /* \"#utility.yul\":10315:10382   */\n      tag_419\n      jump\t// in\n    tag_562:\n        /* \"#utility.yul\":10308:10382   */\n      swap2\n      pop\n        /* \"#utility.yul\":10391:10484   */\n      tag_563\n        /* \"#utility.yul\":10480:10483   */\n      dup3\n        /* \"#utility.yul\":10391:10484   */\n      tag_422\n      jump\t// in\n    tag_563:\n        /* \"#utility.yul\":10509:10511   */\n      0x20\n        /* \"#utility.yul\":10504:10507   */\n      dup3\n        /* \"#utility.yul\":10500:10512   */\n      add\n        /* \"#utility.yul\":10493:10512   */\n      swap1\n      pop\n        /* \"#utility.yul\":10152:10518   */\n      swap2\n      swap1\n      pop\n      jump\t// out\n        /* \"#utility.yul\":10524:10943   */\n    tag_132:\n        /* \"#utility.yul\":10690:10694   */\n      0x00\n        /* \"#utility.yul\":10728:10730   */\n      0x20\n        /* \"#utility.yul\":10717:10726   */\n      dup3\n        /* \"#utility.yul\":10713:10731   */\n      add\n        /* \"#utility.yul\":10705:10731   */\n      swap1\n      pop\n        /* \"#utility.yul\":10777:10786   */\n      dup2\n        /* \"#utility.yul\":10771:10775   */\n      dup2\n        /* \"#utility.yul\":10767:10787   */\n      sub\n        /* \"#utility.yul\":10763:10764   */\n      0x00\n        /* \"#utility.yul\":10752:10761   */\n      dup4\n        /* \"#utility.yul\":10748:10765   */\n      add\n        /* \"#utility.yul\":10741:10788   */\n      mstore\n        /* \"#utility.yul\":10805:10936   */\n      tag_565\n        /* \"#utility.yul\":10931:10935   */\n      dup2\n        /* \"#utility.yul\":10805:10936   */\n      tag_423\n      jump\t// in\n    tag_565:\n        /* \"#utility.yul\":10797:10936   */\n      swap1\n      pop\n        /* \"#utility.yul\":10524:10943   */\n      swap2\n      swap1\n      pop\n      jump\t// out\n        /* \"#utility.yul\":10949:11122   */\n    tag_424:\n        /* \"#utility.yul\":11089:11114   */\n      0x526566657272657220646f6573206e6f74206578697374000000000000000000\n        /* \"#utility.yul\":11085:11086   */\n      0x00\n        /* \"#utility.yul\":11077:11083   */\n      dup3\n        /* \"#utility.yul\":11073:11087   */\n      add\n        /* \"#utility.yul\":11066:11115   */\n      mstore\n        /* \"#utility.yul\":10949:11122   */\n      pop\n      jump\t// out\n        /* \"#utility.yul\":11128:11494   */\n    tag_425:\n        /* \"#utility.yul\":11270:11273   */\n      0x00\n        /* \"#utility.yul\":11291:11358   */\n      tag_568\n        /* \"#utility.yul\":11355:11357   */\n      0x17\n        /* \"#utility.yul\":11350:11353   */\n      dup4\n        /* \"#utility.yul\":11291:11358   */\n      tag_419\n      jump\t// in\n    tag_568:\n        /* \"#utility.yul\":11284:11358   */\n      swap2\n      pop\n        /* \"#utility.yul\":11367:11460   */\n      tag_569\n        /* \"#utility.yul\":11456:11459   */\n      dup3\n        /* \"#utility.yul\":11367:11460   */\n      tag_424\n      jump\t// in\n    tag_569:\n        /* \"#utility.yul\":11485:11487   */\n      0x20\n        /* \"#utility.yul\":11480:11483   */\n      dup3\n        /* \"#utility.yul\":11476:11488   */\n      add\n        /* \"#utility.yul\":11469:11488   */\n      swap1\n      pop\n        /* \"#utility.yul\":11128:11494   */\n      swap2\n      swap1\n      pop\n      jump\t// out\n        /* \"#utility.yul\":11500:11919   */\n    tag_136:\n        /* \"#utility.yul\":11666:11670   */\n      0x00\n        /* \"#utility.yul\":11704:11706   */\n      0x20\n        /* \"#utility.yul\":11693:11702   */\n      dup3\n        /* \"#utility.yul\":11689:11707   */\n      add\n        /* \"#utility.yul\":11681:11707   */\n      swap1\n      pop\n        /* \"#utility.yul\":11753:11762   */\n      dup2\n        /* \"#utility.yul\":11747:11751   */\n      dup2\n        /* \"#utility.yul\":11743:11763   */\n      sub\n        /* \"#utility.yul\":11739:11740   */\n      0x00\n        /* \"#utility.yul\":11728:11737   */\n      dup4\n        /* \"#utility.yul\":11724:11741   */\n      add\n        /* \"#utility.yul\":11717:11764   */\n      mstore\n        /* \"#utility.yul\":11781:11912   */\n      tag_571\n        /* \"#utility.yul\":11907:11911   */\n      dup2\n        /* \"#utility.yul\":11781:11912   */\n      tag_425\n      jump\t// in\n    tag_571:\n        /* \"#utility.yul\":11773:11912   */\n      swap1\n      pop\n        /* \"#utility.yul\":11500:11919   */\n      swap2\n      swap1\n      pop\n      jump\t// out\n        /* \"#utility.yul\":11925:12095   */\n    tag_426:\n        /* \"#utility.yul\":12065:12087   */\n      0x43616e6e6f74206265206120636f6e7472616374000000000000000000000000\n        /* \"#utility.yul\":12061:12062   */\n      0x00\n        /* \"#utility.yul\":12053:12059   */\n      dup3\n        /* \"#utility.yul\":12049:12063   */\n      add\n        /* \"#utility.yul\":12042:12088   */\n      mstore\n        /* \"#utility.yul\":11925:12095   */\n      pop\n      jump\t// out\n        /* \"#utility.yul\":12101:12467   */\n    tag_427:\n        /* \"#utility.yul\":12243:12246   */\n      0x00\n        /* \"#utility.yul\":12264:12331   */\n      tag_574\n        /* \"#utility.yul\":12328:12330   */\n      0x14\n        /* \"#utility.yul\":12323:12326   */\n      dup4\n        /* \"#utility.yul\":12264:12331   */\n      tag_419\n      jump\t// in\n    tag_574:\n        /* \"#utility.yul\":12257:12331   */\n      swap2\n      pop\n        /* \"#utility.yul\":12340:12433   */\n      tag_575\n        /* \"#utility.yul\":12429:12432   */\n      dup3\n        /* \"#utility.yul\":12340:12433   */\n      tag_426\n      jump\t// in\n    tag_575:\n        /* \"#utility.yul\":12458:12460   */\n      0x20\n        /* \"#utility.yul\":12453:12456   */\n      dup3\n        /* \"#utility.yul\":12449:12461   */\n      add\n        /* \"#utility.yul\":12442:12461   */\n      swap1\n      pop\n        /* \"#utility.yul\":12101:12467   */\n      swap2\n      swap1\n      pop\n      jump\t// out\n        /* \"#utility.yul\":12473:12892   */\n    tag_139:\n        /* \"#utility.yul\":12639:12643   */\n      0x00\n        /* \"#utility.yul\":12677:12679   */\n      0x20\n        /* \"#utility.yul\":12666:12675   */\n      dup3\n        /* \"#utility.yul\":12662:12680   */\n      add\n        /* \"#utility.yul\":12654:12680   */\n      swap1\n      pop\n        /* \"#utility.yul\":12726:12735   */\n      dup2\n        /* \"#utility.yul\":12720:12724   */\n      dup2\n        /* \"#utility.yul\":12716:12736   */\n      sub\n        /* \"#utility.yul\":12712:12713   */\n      0x00\n        /* \"#utility.yul\":12701:12710   */\n      dup4\n        /* \"#utility.yul\":12697:12714   */\n      add\n        /* \"#utility.yul\":12690:12737   */\n      mstore\n        /* \"#utility.yul\":12754:12885   */\n      tag_577\n        /* \"#utility.yul\":12880:12884   */\n      dup2\n        /* \"#utility.yul\":12754:12885   */\n      tag_427\n      jump\t// in\n    tag_577:\n        /* \"#utility.yul\":12746:12885   */\n      swap1\n      pop\n        /* \"#utility.yul\":12473:12892   */\n      swap2\n      swap1\n      pop\n      jump\t// out\n        /* \"#utility.yul\":12898:13078   */\n    tag_428:\n        /* \"#utility.yul\":12946:13023   */\n      0x4e487b7100000000000000000000000000000000000000000000000000000000\n        /* \"#utility.yul\":12943:12944   */\n      0x00\n        /* \"#utility.yul\":12936:13024   */\n      mstore\n        /* \"#utility.yul\":13043:13047   */\n      0x11\n        /* \"#utility.yul\":13040:13041   */\n      0x04\n        /* \"#utility.yul\":13033:13048   */\n      mstore\n        /* \"#utility.yul\":13067:13071   */\n      0x24\n        /* \"#utility.yul\":13064:13065   */\n      0x00\n        /* \"#utility.yul\":13057:13072   */\n      revert\n        /* \"#utility.yul\":13084:13317   */\n    tag_141:\n        /* \"#utility.yul\":13123:13126   */\n      0x00\n        /* \"#utility.yul\":13146:13170   */\n      tag_580\n        /* \"#utility.yul\":13164:13169   */\n      dup3\n        /* \"#utility.yul\":13146:13170   */\n      tag_406\n      jump\t// in\n    tag_580:\n        /* \"#utility.yul\":13137:13170   */\n      swap2\n      pop\n        /* \"#utility.yul\":13192:13258   */\n      0xffffffffffffffffffffffffffffffffffffffffffffffffffffffffffffffff\n        /* \"#utility.yul\":13185:13190   */\n      dup3\n        /* \"#utility.yul\":13182:13259   */\n      sub\n        /* \"#utility.yul\":13179:13282   */\n      tag_581\n      jumpi\n        /* \"#utility.yul\":13262:13280   */\n      tag_582\n      tag_428\n      jump\t// in\n    tag_582:\n        /* \"#utility.yul\":13179:13282   */\n    tag_581:\n        /* \"#utility.yul\":13309:13310   */\n      0x01\n        /* \"#utility.yul\":13302:13307   */\n      dup3\n        /* \"#utility.yul\":13298:13311   */\n      add\n        /* \"#utility.yul\":13291:13311   */\n      swap1\n      pop\n        /* \"#utility.yul\":13084:13317   */\n      swap2\n      swap1\n      pop\n      jump\t// out\n        /* \"#utility.yul\":13323:13546   */\n    tag_429:\n        /* \"#utility.yul\":13463:13497   */\n      0x5573657220646f6573206e6f742065786973742e205265676973746572206669\n        /* \"#utility.yul\":13459:13460   */\n      0x00\n        /* \"#utility.yul\":13451:13457   */\n      dup3\n        /* \"#utility.yul\":13447:13461   */\n      add\n        /* \"#utility.yul\":13440:13498   */\n      mstore\n        /* \"#utility.yul\":13532:13538   */\n      0x7273742e00000000000000000000000000000000000000000000000000000000\n        /* \"#utility.yul\":13527:13529   */\n      0x20\n        /* \"#utility.yul\":13519:13525   */\n      dup3\n        /* \"#utility.yul\":13515:13530   */\n      add\n        /* \"#utility.yul\":13508:13539   */\n      mstore\n        /* \"#utility.yul\":13323:13546   */\n      pop\n      jump\t// out\n        /* \"#utility.yul\":13552:13918   */\n    tag_430:\n        /* \"#utility.yul\":13694:13697   */\n      0x00\n        /* \"#utility.yul\":13715:13782   */\n      tag_585\n        /* \"#utility.yul\":13779:13781   */\n      0x24\n        /* \"#utility.yul\":13774:13777   */\n      dup4\n        /* \"#utility.yul\":13715:13782   */\n      tag_419\n      jump\t// in\n    tag_585:\n        /* \"#utility.yul\":13708:13782   */\n      swap2\n      pop\n        /* \"#utility.yul\":13791:13884   */\n      tag_586\n        /* \"#utility.yul\":13880:13883   */\n      dup3\n        /* \"#utility.yul\":13791:13884   */\n      tag_429\n      jump\t// in\n    tag_586:\n        /* \"#utility.yul\":13909:13911   */\n      0x40\n        /* \"#utility.yul\":13904:13907   */\n      dup3\n        /* \"#utility.yul\":13900:13912   */\n      add\n        /* \"#utility.yul\":13893:13912   */\n      swap1\n      pop\n        /* \"#utility.yul\":13552:13918   */\n      swap2\n      swap1\n      pop\n      jump\t// out\n        /* \"#utility.yul\":13924:14343   */\n    tag_168:\n        /* \"#utility.yul\":14090:14094   */\n      0x00\n        /* \"#utility.yul\":14128:14130   */\n      0x20\n        /* \"#utility.yul\":14117:14126   */\n      dup3\n        /* \"#utility.yul\":14113:14131   */\n      add\n        /* \"#utility.yul\":14105:14131   */\n      swap1\n      pop\n        /* \"#utility.yul\":14177:14186   */\n      dup2\n        /* \"#utility.yul\":14171:14175   */\n      dup2\n        /* \"#utility.yul\":14167:14187   */\n      sub\n        /* \"#utility.yul\":14163:14164   */\n      0x00\n        /* \"#utility.yul\":14152:14161   */\n      dup4\n        /* \"#utility.yul\":14148:14165   */\n      add\n        /* \"#utility.yul\":14141:14188   */\n      mstore\n        /* \"#utility.yul\":14205:14336   */\n      tag_588\n        /* \"#utility.yul\":14331:14335   */\n      dup2\n        /* \"#utility.yul\":14205:14336   */\n      tag_430\n      jump\t// in\n    tag_588:\n        /* \"#utility.yul\":14197:14336   */\n      swap1\n      pop\n        /* \"#utility.yul\":13924:14343   */\n      swap2\n      swap1\n      pop\n      jump\t// out\n        /* \"#utility.yul\":14349:14513   */\n    tag_431:\n        /* \"#utility.yul\":14489:14505   */\n      0x496e76616c6964206d6174726978000000000000000000000000000000000000\n        /* \"#utility.yul\":14485:14486   */\n      0x00\n        /* \"#utility.yul\":14477:14483   */\n      dup3\n        /* \"#utility.yul\":14473:14487   */\n      add\n        /* \"#utility.yul\":14466:14506   */\n      mstore\n        /* \"#utility.yul\":14349:14513   */\n      pop\n      jump\t// out\n        /* \"#utility.yul\":14519:14885   */\n    tag_432:\n        /* \"#utility.yul\":14661:14664   */\n      0x00\n        /* \"#utility.yul\":14682:14749   */\n      tag_591\n        /* \"#utility.yul\":14746:14748   */\n      0x0e\n        /* \"#utility.yul\":14741:14744   */\n      dup4\n        /* \"#utility.yul\":14682:14749   */\n      tag_419\n      jump\t// in\n    tag_591:\n        /* \"#utility.yul\":14675:14749   */\n      swap2\n      pop\n        /* \"#utility.yul\":14758:14851   */\n      tag_592\n        /* \"#utility.yul\":14847:14850   */\n      dup3\n        /* \"#utility.yul\":14758:14851   */\n      tag_431\n      jump\t// in\n    tag_592:\n        /* \"#utility.yul\":14876:14878   */\n      0x20\n        /* \"#utility.yul\":14871:14874   */\n      dup3\n        /* \"#utility.yul\":14867:14879   */\n      add\n        /* \"#utility.yul\":14860:14879   */\n      swap1\n      pop\n        /* \"#utility.yul\":14519:14885   */\n      swap2\n      swap1\n      pop\n      jump\t// out\n        /* \"#utility.yul\":14891:15310   */\n    tag_172:\n        /* \"#utility.yul\":15057:15061   */\n      0x00\n        /* \"#utility.yul\":15095:15097   */\n      0x20\n        /* \"#utility.yul\":15084:15093   */\n      dup3\n        /* \"#utility.yul\":15080:15098   */\n      add\n        /* \"#utility.yul\":15072:15098   */\n      swap1\n      pop\n        /* \"#utility.yul\":15144:15153   */\n      dup2\n        /* \"#utility.yul\":15138:15142   */\n      dup2\n        /* \"#utility.yul\":15134:15154   */\n      sub\n        /* \"#utility.yul\":15130:15131   */\n      0x00\n        /* \"#utility.yul\":15119:15128   */\n      dup4\n        /* \"#utility.yul\":15115:15132   */\n      add\n        /* \"#utility.yul\":15108:15155   */\n      mstore\n        /* \"#utility.yul\":15172:15303   */\n      tag_594\n        /* \"#utility.yul\":15298:15302   */\n      dup2\n        /* \"#utility.yul\":15172:15303   */\n      tag_432\n      jump\t// in\n    tag_594:\n        /* \"#utility.yul\":15164:15303   */\n      swap1\n      pop\n        /* \"#utility.yul\":14891:15310   */\n      swap2\n      swap1\n      pop\n      jump\t// out\n        /* \"#utility.yul\":15316:15479   */\n    tag_433:\n        /* \"#utility.yul\":15456:15471   */\n      0x496e76616c696420707269636500000000000000000000000000000000000000\n        /* \"#utility.yul\":15452:15453   */\n      0x00\n        /* \"#utility.yul\":15444:15450   */\n      dup3\n        /* \"#utility.yul\":15440:15454   */\n      add\n        /* \"#utility.yul\":15433:15472   */\n      mstore\n        /* \"#utility.yul\":15316:15479   */\n      pop\n      jump\t// out\n        /* \"#utility.yul\":15485:15851   */\n    tag_434:\n        /* \"#utility.yul\":15627:15630   */\n      0x00\n        /* \"#utility.yul\":15648:15715   */\n      tag_597\n        /* \"#utility.yul\":15712:15714   */\n      0x0d\n        /* \"#utility.yul\":15707:15710   */\n      dup4\n        /* \"#utility.yul\":15648:15715   */\n      tag_419\n      jump\t// in\n    tag_597:\n        /* \"#utility.yul\":15641:15715   */\n      swap2\n      pop\n        /* \"#utility.yul\":15724:15817   */\n      tag_598\n        /* \"#utility.yul\":15813:15816   */\n      dup3\n        /* \"#utility.yul\":15724:15817   */\n      tag_433\n      jump\t// in\n    tag_598:\n        /* \"#utility.yul\":15842:15844   */\n      0x20\n        /* \"#utility.yul\":15837:15840   */\n      dup3\n        /* \"#utility.yul\":15833:15845   */\n      add\n        /* \"#utility.yul\":15826:15845   */\n      swap1\n      pop\n        /* \"#utility.yul\":15485:15851   */\n      swap2\n      swap1\n      pop\n      jump\t// out\n        /* \"#utility.yul\":15857:16276   */\n    tag_175:\n        /* \"#utility.yul\":16023:16027   */\n      0x00\n        /* \"#utility.yul\":16061:16063   */\n      0x20\n        /* \"#utility.yul\":16050:16059   */\n      dup3\n        /* \"#utility.yul\":16046:16064   */\n      add\n        /* \"#utility.yul\":16038:16064   */\n      swap1\n      pop\n        /* \"#utility.yul\":16110:16119   */\n      dup2\n        /* \"#utility.yul\":16104:16108   */\n      dup2\n        /* \"#utility.yul\":16100:16120   */\n      sub\n        /* \"#utility.yul\":16096:16097   */\n      0x00\n        /* \"#utility.yul\":16085:16094   */\n      dup4\n        /* \"#utility.yul\":16081:16098   */\n      add\n        /* \"#utility.yul\":16074:16121   */\n      mstore\n        /* \"#utility.yul\":16138:16269   */\n      tag_600\n        /* \"#utility.yul\":16264:16268   */\n      dup2\n        /* \"#utility.yul\":16138:16269   */\n      tag_434\n      jump\t// in\n    tag_600:\n        /* \"#utility.yul\":16130:16269   */\n      swap1\n      pop\n        /* \"#utility.yul\":15857:16276   */\n      swap2\n      swap1\n      pop\n      jump\t// out\n        /* \"#utility.yul\":16282:16445   */\n    tag_435:\n        /* \"#utility.yul\":16422:16437   */\n      0x496e76616c6964206c6576656c00000000000000000000000000000000000000\n        /* \"#utility.yul\":16418:16419   */\n      0x00\n        /* \"#utility.yul\":16410:16416   */\n      dup3\n        /* \"#utility.yul\":16406:16420   */\n      add\n        /* \"#utility.yul\":16399:16438   */\n      mstore\n        /* \"#utility.yul\":16282:16445   */\n      pop\n      jump\t// out\n        /* \"#utility.yul\":16451:16817   */\n    tag_436:\n        /* \"#utility.yul\":16593:16596   */\n      0x00\n        /* \"#utility.yul\":16614:16681   */\n      tag_603\n        /* \"#utility.yul\":16678:16680   */\n      0x0d\n        /* \"#utility.yul\":16673:16676   */\n      dup4\n        /* \"#utility.yul\":16614:16681   */\n      tag_419\n      jump\t// in\n    tag_603:\n        /* \"#utility.yul\":16607:16681   */\n      swap2\n      pop\n        /* \"#utility.yul\":16690:16783   */\n      tag_604\n        /* \"#utility.yul\":16779:16782   */\n      dup3\n        /* \"#utility.yul\":16690:16783   */\n      tag_435\n      jump\t// in\n    tag_604:\n        /* \"#utility.yul\":16808:16810   */\n      0x20\n        /* \"#utility.yul\":16803:16806   */\n      dup3\n        /* \"#utility.yul\":16799:16811   */\n      add\n        /* \"#utility.yul\":16792:16811   */\n      swap1\n      pop\n        /* \"#utility.yul\":16451:16817   */\n      swap2\n      swap1\n      pop\n      jump\t// out\n        /* \"#utility.yul\":16823:17242   */\n    tag_179:\n        /* \"#utility.yul\":16989:16993   */\n      0x00\n        /* \"#utility.yul\":17027:17029   */\n      0x20\n        /* \"#utility.yul\":17016:17025   */\n      dup3\n        /* \"#utility.yul\":17012:17030   */\n      add\n        /* \"#utility.yul\":17004:17030   */\n      swap1\n      pop\n        /* \"#utility.yul\":17076:17085   */\n      dup2\n        /* \"#utility.yul\":17070:17074   */\n      dup2\n        /* \"#utility.yul\":17066:17086   */\n      sub\n        /* \"#utility.yul\":17062:17063   */\n      0x00\n        /* \"#utility.yul\":17051:17060   */\n      dup4\n        /* \"#utility.yul\":17047:17064   */\n      add\n        /* \"#utility.yul\":17040:17087   */\n      mstore\n        /* \"#utility.yul\":17104:17235   */\n      tag_606\n        /* \"#utility.yul\":17230:17234   */\n      dup2\n        /* \"#utility.yul\":17104:17235   */\n      tag_436\n      jump\t// in\n    tag_606:\n        /* \"#utility.yul\":17096:17235   */\n      swap1\n      pop\n        /* \"#utility.yul\":16823:17242   */\n      swap2\n      swap1\n      pop\n      jump\t// out\n        /* \"#utility.yul\":17248:17421   */\n    tag_437:\n        /* \"#utility.yul\":17388:17413   */\n      0x4c6576656c20616c726561647920616374697661746564000000000000000000\n        /* \"#utility.yul\":17384:17385   */\n      0x00\n        /* \"#utility.yul\":17376:17382   */\n      dup3\n        /* \"#utility.yul\":17372:17386   */\n      add\n        /* \"#utility.yul\":17365:17414   */\n      mstore\n        /* \"#utility.yul\":17248:17421   */\n      pop\n      jump\t// out\n        /* \"#utility.yul\":17427:17793   */\n    tag_438:\n        /* \"#utility.yul\":17569:17572   */\n      0x00\n        /* \"#utility.yul\":17590:17657   */\n      tag_609\n        /* \"#utility.yul\":17654:17656   */\n      0x17\n        /* \"#utility.yul\":17649:17652   */\n      dup4\n        /* \"#utility.yul\":17590:17657   */\n      tag_419\n      jump\t// in\n    tag_609:\n        /* \"#utility.yul\":17583:17657   */\n      swap2\n      pop\n        /* \"#utility.yul\":17666:17759   */\n      tag_610\n        /* \"#utility.yul\":17755:17758   */\n      dup3\n        /* \"#utility.yul\":17666:17759   */\n      tag_437\n      jump\t// in\n    tag_610:\n        /* \"#utility.yul\":17784:17786   */\n      0x20\n        /* \"#utility.yul\":17779:17782   */\n      dup3\n        /* \"#utility.yul\":17775:17787   */\n      add\n        /* \"#utility.yul\":17768:17787   */\n      swap1\n      pop\n        /* \"#utility.yul\":17427:17793   */\n      swap2\n      swap1\n      pop\n      jump\t// out\n        /* \"#utility.yul\":17799:18218   */\n    tag_183:\n        /* \"#utility.yul\":17965:17969   */\n      0x00\n        /* \"#utility.yul\":18003:18005   */\n      0x20\n        /* \"#utility.yul\":17992:18001   */\n      dup3\n        /* \"#utility.yul\":17988:18006   */\n      add\n        /* \"#utility.yul\":17980:18006   */\n      swap1\n      pop\n        /* \"#utility.yul\":18052:18061   */\n      dup2\n        /* \"#utility.yul\":18046:18050   */\n      dup2\n        /* \"#utility.yul\":18042:18062   */\n      sub\n        /* \"#utility.yul\":18038:18039   */\n      0x00\n        /* \"#utility.yul\":18027:18036   */\n      dup4\n        /* \"#utility.yul\":18023:18040   */\n      add\n        /* \"#utility.yul\":18016:18063   */\n      mstore\n        /* \"#utility.yul\":18080:18211   */\n      tag_612\n        /* \"#utility.yul\":18206:18210   */\n      dup2\n        /* \"#utility.yul\":18080:18211   */\n      tag_438\n      jump\t// in\n    tag_612:\n        /* \"#utility.yul\":18072:18211   */\n      swap1\n      pop\n        /* \"#utility.yul\":17799:18218   */\n      swap2\n      swap1\n      pop\n      jump\t// out\n        /* \"#utility.yul\":18224:18415   */\n    tag_185:\n        /* \"#utility.yul\":18262:18266   */\n      0x00\n        /* \"#utility.yul\":18282:18300   */\n      tag_614\n        /* \"#utility.yul\":18298:18299   */\n      dup3\n        /* \"#utility.yul\":18282:18300   */\n      tag_401\n      jump\t// in\n    tag_614:\n        /* \"#utility.yul\":18277:18300   */\n      swap2\n      pop\n        /* \"#utility.yul\":18314:18332   */\n      tag_615\n        /* \"#utility.yul\":18330:18331   */\n      dup4\n        /* \"#utility.yul\":18314:18332   */\n      tag_401\n      jump\t// in\n    tag_615:\n        /* \"#utility.yul\":18309:18332   */\n      swap3\n      pop\n        /* \"#utility.yul\":18356:18357   */\n      dup3\n        /* \"#utility.yul\":18353:18354   */\n      dup3\n        /* \"#utility.yul\":18349:18358   */\n      sub\n        /* \"#utility.yul\":18341:18358   */\n      swap1\n      pop\n        /* \"#utility.yul\":18380:18384   */\n      0xff\n        /* \"#utility.yul\":18374:18378   */\n      dup2\n        /* \"#utility.yul\":18371:18385   */\n      gt\n        /* \"#utility.yul\":18368:18408   */\n      iszero\n      tag_616\n      jumpi\n        /* \"#utility.yul\":18388:18406   */\n      tag_617\n      tag_428\n      jump\t// in\n    tag_617:\n        /* \"#utility.yul\":18368:18408   */\n    tag_616:\n        /* \"#utility.yul\":18224:18415   */\n      swap3\n      swap2\n      pop\n      pop\n      jump\t// out\n        /* \"#utility.yul\":18421:18506   */\n    tag_439:\n        /* \"#utility.yul\":18466:18473   */\n      0x00\n        /* \"#utility.yul\":18495:18500   */\n      dup2\n        /* \"#utility.yul\":18484:18500   */\n      swap1\n      pop\n        /* \"#utility.yul\":18421:18506   */\n      swap2\n      swap1\n      pop\n      jump\t// out\n        /* \"#utility.yul\":18512:18572   */\n    tag_440:\n        /* \"#utility.yul\":18540:18543   */\n      0x00\n        /* \"#utility.yul\":18561:18566   */\n      dup2\n        /* \"#utility.yul\":18554:18566   */\n      swap1\n      pop\n        /* \"#utility.yul\":18512:18572   */\n      swap2\n      swap1\n      pop\n      jump\t// out\n        /* \"#utility.yul\":18578:18732   */\n    tag_441:\n        /* \"#utility.yul\":18634:18643   */\n      0x00\n        /* \"#utility.yul\":18667:18726   */\n      tag_621\n        /* \"#utility.yul\":18683:18725   */\n      tag_622\n        /* \"#utility.yul\":18692:18724   */\n      tag_623\n        /* \"#utility.yul\":18718:18723   */\n      dup5\n        /* \"#utility.yul\":18692:18724   */\n      tag_439\n      jump\t// in\n    tag_623:\n        /* \"#utility.yul\":18683:18725   */\n      tag_440\n      jump\t// in\n    tag_622:\n        /* \"#utility.yul\":18667:18726   */\n      tag_401\n      jump\t// in\n    tag_621:\n        /* \"#utility.yul\":18654:18726   */\n      swap1\n      pop\n        /* \"#utility.yul\":18578:18732   */\n      swap2\n      swap1\n      pop\n      jump\t// out\n        /* \"#utility.yul\":18738:18881   */\n    tag_442:\n        /* \"#utility.yul\":18831:18874   */\n      tag_625\n        /* \"#utility.yul\":18868:18873   */\n      dup2\n        /* \"#utility.yul\":18831:18874   */\n      tag_441\n      jump\t// in\n    tag_625:\n        /* \"#utility.yul\":18826:18829   */\n      dup3\n        /* \"#utility.yul\":18819:18875   */\n      mstore\n        /* \"#utility.yul\":18738:18881   */\n      pop\n      pop\n      jump\t// out\n        /* \"#utility.yul\":18887:19223   */\n    tag_191:\n        /* \"#utility.yul\":19010:19014   */\n      0x00\n        /* \"#utility.yul\":19048:19050   */\n      0x40\n        /* \"#utility.yul\":19037:19046   */\n      dup3\n        /* \"#utility.yul\":19033:19051   */\n      add\n        /* \"#utility.yul\":19025:19051   */\n      swap1\n      pop\n        /* \"#utility.yul\":19061:19138   */\n      tag_627\n        /* \"#utility.yul\":19135:19136   */\n      0x00\n        /* \"#utility.yul\":19124:19133   */\n      dup4\n        /* \"#utility.yul\":19120:19137   */\n      add\n        /* \"#utility.yul\":19111:19117   */\n      dup6\n        /* \"#utility.yul\":19061:19138   */\n      tag_442\n      jump\t// in\n    tag_627:\n        /* \"#utility.yul\":19148:19216   */\n      tag_628\n        /* \"#utility.yul\":19212:19214   */\n      0x20\n        /* \"#utility.yul\":19201:19210   */\n      dup4\n        /* \"#utility.yul\":19197:19215   */\n      add\n        /* \"#utility.yul\":19188:19194   */\n      dup5\n        /* \"#utility.yul\":19148:19216   */\n      tag_408\n      jump\t// in\n    tag_628:\n        /* \"#utility.yul\":18887:19223   */\n      swap4\n      swap3\n      pop\n      pop\n      pop\n      jump\t// out\n        /* \"#utility.yul\":19229:19314   */\n    tag_443:\n        /* \"#utility.yul\":19274:19281   */\n      0x00\n        /* \"#utility.yul\":19303:19308   */\n      dup2\n        /* \"#utility.yul\":19292:19308   */\n      swap1\n      pop\n        /* \"#utility.yul\":19229:19314   */\n      swap2\n      swap1\n      pop\n      jump\t// out\n        /* \"#utility.yul\":19320:19474   */\n    tag_444:\n        /* \"#utility.yul\":19376:19385   */\n      0x00\n        /* \"#utility.yul\":19409:19468   */\n      tag_631\n        /* \"#utility.yul\":19425:19467   */\n      tag_632\n        /* \"#utility.yul\":19434:19466   */\n      tag_633\n        /* \"#utility.yul\":19460:19465   */\n      dup5\n        /* \"#utility.yul\":19434:19466   */\n      tag_443\n      jump\t// in\n    tag_633:\n        /* \"#utility.yul\":19425:19467   */\n      tag_440\n      jump\t// in\n    tag_632:\n        /* \"#utility.yul\":19409:19468   */\n      tag_401\n      jump\t// in\n    tag_631:\n        /* \"#utility.yul\":19396:19468   */\n      swap1\n      pop\n        /* \"#utility.yul\":19320:19474   */\n      swap2\n      swap1\n      pop\n      jump\t// out\n        /* \"#utility.yul\":19480:19623   */\n    tag_445:\n        /* \"#utility.yul\":19573:19616   */\n      tag_635\n        /* \"#utility.yul\":19610:19615   */\n      dup2\n        /* \"#utility.yul\":19573:19616   */\n      tag_444\n      jump\t// in\n    tag_635:\n        /* \"#utility.yul\":19568:19571   */\n      dup3\n        /* \"#utility.yul\":19561:19617   */\n      mstore\n        /* \"#utility.yul\":19480:19623   */\n      pop\n      pop\n      jump\t// out\n        /* \"#utility.yul\":19629:19965   */\n    tag_201:\n        /* \"#utility.yul\":19752:19756   */\n      0x00\n        /* \"#utility.yul\":19790:19792   */\n      0x40\n        /* \"#utility.yul\":19779:19788   */\n      dup3\n        /* \"#utility.yul\":19775:19793   */\n      add\n        /* \"#utility.yul\":19767:19793   */\n      swap1\n      pop\n        /* \"#utility.yul\":19803:19880   */\n      tag_637\n        /* \"#utility.yul\":19877:19878   */\n      0x00\n        /* \"#utility.yul\":19866:19875   */\n      dup4\n        /* \"#utility.yul\":19862:19879   */\n      add\n        /* \"#utility.yul\":19853:19859   */\n      dup6\n        /* \"#utility.yul\":19803:19880   */\n      tag_445\n      jump\t// in\n    tag_637:\n        /* \"#utility.yul\":19890:19958   */\n      tag_638\n        /* \"#utility.yul\":19954:19956   */\n      0x20\n        /* \"#utility.yul\":19943:19952   */\n      dup4\n        /* \"#utility.yul\":19939:19957   */\n      add\n        /* \"#utility.yul\":19930:19936   */\n      dup5\n        /* \"#utility.yul\":19890:19958   */\n      tag_408\n      jump\t// in\n    tag_638:\n        /* \"#utility.yul\":19629:19965   */\n      swap4\n      swap3\n      pop\n      pop\n      pop\n      jump\t// out\n        /* \"#utility.yul\":19971:20409   */\n    tag_214:\n        /* \"#utility.yul\":20118:20122   */\n      0x00\n        /* \"#utility.yul\":20156:20158   */\n      0x60\n        /* \"#utility.yul\":20145:20154   */\n      dup3\n        /* \"#utility.yul\":20141:20159   */\n      add\n        /* \"#utility.yul\":20133:20159   */\n      swap1\n      pop\n        /* \"#utility.yul\":20169:20246   */\n      tag_640\n        /* \"#utility.yul\":20243:20244   */\n      0x00\n        /* \"#utility.yul\":20232:20241   */\n      dup4\n        /* \"#utility.yul\":20228:20245   */\n      add\n        /* \"#utility.yul\":20219:20225   */\n      dup7\n        /* \"#utility.yul\":20169:20246   */\n      tag_442\n      jump\t// in\n    tag_640:\n        /* \"#utility.yul\":20256:20324   */\n      tag_641\n        /* \"#utility.yul\":20320:20322   */\n      0x20\n        /* \"#utility.yul\":20309:20318   */\n      dup4\n        /* \"#utility.yul\":20305:20323   */\n      add\n        /* \"#utility.yul\":20296:20302   */\n      dup6\n        /* \"#utility.yul\":20256:20324   */\n      tag_408\n      jump\t// in\n    tag_641:\n        /* \"#utility.yul\":20334:20402   */\n      tag_642\n        /* \"#utility.yul\":20398:20400   */\n      0x40\n        /* \"#utility.yul\":20387:20396   */\n      dup4\n        /* \"#utility.yul\":20383:20401   */\n      add\n        /* \"#utility.yul\":20374:20380   */\n      dup5\n        /* \"#utility.yul\":20334:20402   */\n      tag_408\n      jump\t// in\n    tag_642:\n        /* \"#utility.yul\":19971:20409   */\n      swap5\n      swap4\n      pop\n      pop\n      pop\n      pop\n      jump\t// out\n        /* \"#utility.yul\":20415:20500   */\n    tag_446:\n        /* \"#utility.yul\":20460:20467   */\n      0x00\n        /* \"#utility.yul\":20489:20494   */\n      dup2\n        /* \"#utility.yul\":20478:20494   */\n      swap1\n      pop\n        /* \"#utility.yul\":20415:20500   */\n      swap2\n      swap1\n      pop\n      jump\t// out\n        /* \"#utility.yul\":20506:20660   */\n    tag_447:\n        /* \"#utility.yul\":20562:20571   */\n      0x00\n        /* \"#utility.yul\":20595:20654   */\n      tag_645\n        /* \"#utility.yul\":20611:20653   */\n      tag_646\n        /* \"#utility.yul\":20620:20652   */\n      tag_647\n        /* \"#utility.yul\":20646:20651   */\n      dup5\n        /* \"#utility.yul\":20620:20652   */\n      tag_446\n      jump\t// in\n    tag_647:\n        /* \"#utility.yul\":20611:20653   */\n      tag_440\n      jump\t// in\n    tag_646:\n        /* \"#utility.yul\":20595:20654   */\n      tag_401\n      jump\t// in\n    tag_645:\n        /* \"#utility.yul\":20582:20654   */\n      swap1\n      pop\n        /* \"#utility.yul\":20506:20660   */\n      swap2\n      swap1\n      pop\n      jump\t// out\n        /* \"#utility.yul\":20666:20809   */\n    tag_448:\n        /* \"#utility.yul\":20759:20802   */\n      tag_649\n        /* \"#utility.yul\":20796:20801   */\n      dup2\n        /* \"#utility.yul\":20759:20802   */\n      tag_447\n      jump\t// in\n    tag_649:\n        /* \"#utility.yul\":20754:20757   */\n      dup3\n        /* \"#utility.yul\":20747:20803   */\n      mstore\n        /* \"#utility.yul\":20666:20809   */\n      pop\n      pop\n      jump\t// out\n        /* \"#utility.yul\":20815:21273   */\n    tag_218:\n        /* \"#utility.yul\":20972:20976   */\n      0x00\n        /* \"#utility.yul\":21010:21012   */\n      0x60\n        /* \"#utility.yul\":20999:21008   */\n      dup3\n        /* \"#utility.yul\":20995:21013   */\n      add\n        /* \"#utility.yul\":20987:21013   */\n      swap1\n      pop\n        /* \"#utility.yul\":21023:21100   */\n      tag_651\n        /* \"#utility.yul\":21097:21098   */\n      0x00\n        /* \"#utility.yul\":21086:21095   */\n      dup4\n        /* \"#utility.yul\":21082:21099   */\n      add\n        /* \"#utility.yul\":21073:21079   */\n      dup7\n        /* \"#utility.yul\":21023:21100   */\n      tag_442\n      jump\t// in\n    tag_651:\n        /* \"#utility.yul\":21110:21178   */\n      tag_652\n        /* \"#utility.yul\":21174:21176   */\n      0x20\n        /* \"#utility.yul\":21163:21172   */\n      dup4\n        /* \"#utility.yul\":21159:21177   */\n      add\n        /* \"#utility.yul\":21150:21156   */\n      dup6\n        /* \"#utility.yul\":21110:21178   */\n      tag_408\n      jump\t// in\n    tag_652:\n        /* \"#utility.yul\":21188:21266   */\n      tag_653\n        /* \"#utility.yul\":21262:21264   */\n      0x40\n        /* \"#utility.yul\":21251:21260   */\n      dup4\n        /* \"#utility.yul\":21247:21265   */\n      add\n        /* \"#utility.yul\":21238:21244   */\n      dup5\n        /* \"#utility.yul\":21188:21266   */\n      tag_448\n      jump\t// in\n    tag_653:\n        /* \"#utility.yul\":20815:21273   */\n      swap5\n      swap4\n      pop\n      pop\n      pop\n      pop\n      jump\t// out\n        /* \"#utility.yul\":21279:21459   */\n    tag_221:\n        /* \"#utility.yul\":21327:21404   */\n      0x4e487b7100000000000000000000000000000000000000000000000000000000\n        /* \"#utility.yul\":21324:21325   */\n      0x00\n        /* \"#utility.yul\":21317:21405   */\n      mstore\n        /* \"#utility.yul\":21424:21428   */\n      0x41\n        /* \"#utility.yul\":21421:21422   */\n      0x04\n        /* \"#utility.yul\":21414:21429   */\n      mstore\n        /* \"#utility.yul\":21448:21452   */\n      0x24\n        /* \"#utility.yul\":21445:21446   */\n      0x00\n        /* \"#utility.yul\":21438:21453   */\n      revert\n        /* \"#utility.yul\":21465:21653   */\n    tag_226:\n        /* \"#utility.yul\":21503:21506   */\n      0x00\n        /* \"#utility.yul\":21522:21540   */\n      tag_656\n        /* \"#utility.yul\":21538:21539   */\n      dup3\n        /* \"#utility.yul\":21522:21540   */\n      tag_401\n      jump\t// in\n    tag_656:\n        /* \"#utility.yul\":21517:21540   */\n      swap2\n      pop\n        /* \"#utility.yul\":21554:21572   */\n      tag_657\n        /* \"#utility.yul\":21570:21571   */\n      dup4\n        /* \"#utility.yul\":21554:21572   */\n      tag_401\n      jump\t// in\n    tag_657:\n        /* \"#utility.yul\":21549:21572   */\n      swap3\n      pop\n        /* \"#utility.yul\":21595:21596   */\n      dup3\n        /* \"#utility.yul\":21592:21593   */\n      dup3\n        /* \"#utility.yul\":21588:21597   */\n      add\n        /* \"#utility.yul\":21581:21597   */\n      swap1\n      pop\n        /* \"#utility.yul\":21618:21622   */\n      0xff\n        /* \"#utility.yul\":21613:21616   */\n      dup2\n        /* \"#utility.yul\":21610:21623   */\n      gt\n        /* \"#utility.yul\":21607:21646   */\n      iszero\n      tag_658\n      jumpi\n        /* \"#utility.yul\":21626:21644   */\n      tag_659\n      tag_428\n      jump\t// in\n    tag_659:\n        /* \"#utility.yul\":21607:21646   */\n    tag_658:\n        /* \"#utility.yul\":21465:21653   */\n      swap3\n      swap2\n      pop\n      pop\n      jump\t// out\n        /* \"#utility.yul\":21659:21835   */\n    tag_449:\n        /* \"#utility.yul\":21799:21827   */\n      0x5265666572726572206c6576656c20697320696e616374697665000000000000\n        /* \"#utility.yul\":21795:21796   */\n      0x00\n        /* \"#utility.yul\":21787:21793   */\n      dup3\n        /* \"#utility.yul\":21783:21797   */\n      add\n        /* \"#utility.yul\":21776:21828   */\n      mstore\n        /* \"#utility.yul\":21659:21835   */\n      pop\n      jump\t// out\n        /* \"#utility.yul\":21841:22207   */\n    tag_450:\n        /* \"#utility.yul\":21983:21986   */\n      0x00\n        /* \"#utility.yul\":22004:22071   */\n      tag_662\n        /* \"#utility.yul\":22068:22070   */\n      0x1a\n        /* \"#utility.yul\":22063:22066   */\n      dup4\n        /* \"#utility.yul\":22004:22071   */\n      tag_419\n      jump\t// in\n    tag_662:\n        /* \"#utility.yul\":21997:22071   */\n      swap2\n      pop\n        /* \"#utility.yul\":22080:22173   */\n      tag_663\n        /* \"#utility.yul\":22169:22172   */\n      dup3\n        /* \"#utility.yul\":22080:22173   */\n      tag_449\n      jump\t// in\n    tag_663:\n        /* \"#utility.yul\":22198:22200   */\n      0x20\n        /* \"#utility.yul\":22193:22196   */\n      dup3\n        /* \"#utility.yul\":22189:22201   */\n      add\n        /* \"#utility.yul\":22182:22201   */\n      swap1\n      pop\n        /* \"#utility.yul\":21841:22207   */\n      swap2\n      swap1\n      pop\n      jump\t// out\n        /* \"#utility.yul\":22213:22632   */\n    tag_242:\n        /* \"#utility.yul\":22379:22383   */\n      0x00\n        /* \"#utility.yul\":22417:22419   */\n      0x20\n        /* \"#utility.yul\":22406:22415   */\n      dup3\n        /* \"#utility.yul\":22402:22420   */\n      add\n        /* \"#utility.yul\":22394:22420   */\n      swap1\n      pop\n        /* \"#utility.yul\":22466:22475   */\n      dup2\n        /* \"#utility.yul\":22460:22464   */\n      dup2\n        /* \"#utility.yul\":22456:22476   */\n      sub\n        /* \"#utility.yul\":22452:22453   */\n      0x00\n        /* \"#utility.yul\":22441:22450   */\n      dup4\n        /* \"#utility.yul\":22437:22454   */\n      add\n        /* \"#utility.yul\":22430:22477   */\n      mstore\n        /* \"#utility.yul\":22494:22625   */\n      tag_665\n        /* \"#utility.yul\":22620:22624   */\n      dup2\n        /* \"#utility.yul\":22494:22625   */\n      tag_450\n      jump\t// in\n    tag_665:\n        /* \"#utility.yul\":22486:22625   */\n      swap1\n      pop\n        /* \"#utility.yul\":22213:22632   */\n      swap2\n      swap1\n      pop\n      jump\t// out\n        /* \"#utility.yul\":22638:23076   */\n    tag_246:\n        /* \"#utility.yul\":22785:22789   */\n      0x00\n        /* \"#utility.yul\":22823:22825   */\n      0x60\n        /* \"#utility.yul\":22812:22821   */\n      dup3\n        /* \"#utility.yul\":22808:22826   */\n      add\n        /* \"#utility.yul\":22800:22826   */\n      swap1\n      pop\n        /* \"#utility.yul\":22836:22913   */\n      tag_667\n        /* \"#utility.yul\":22910:22911   */\n      0x00\n        /* \"#utility.yul\":22899:22908   */\n      dup4\n        /* \"#utility.yul\":22895:22912   */\n      add\n        /* \"#utility.yul\":22886:22892   */\n      dup7\n        /* \"#utility.yul\":22836:22913   */\n      tag_445\n      jump\t// in\n    tag_667:\n        /* \"#utility.yul\":22923:22991   */\n      tag_668\n        /* \"#utility.yul\":22987:22989   */\n      0x20\n        /* \"#utility.yul\":22976:22985   */\n      dup4\n        /* \"#utility.yul\":22972:22990   */\n      add\n        /* \"#utility.yul\":22963:22969   */\n      dup6\n        /* \"#utility.yul\":22923:22991   */\n      tag_408\n      jump\t// in\n    tag_668:\n        /* \"#utility.yul\":23001:23069   */\n      tag_669\n        /* \"#utility.yul\":23065:23067   */\n      0x40\n        /* \"#utility.yul\":23054:23063   */\n      dup4\n        /* \"#utility.yul\":23050:23068   */\n      add\n        /* \"#utility.yul\":23041:23047   */\n      dup5\n        /* \"#utility.yul\":23001:23069   */\n      tag_408\n      jump\t// in\n    tag_669:\n        /* \"#utility.yul\":22638:23076   */\n      swap5\n      swap4\n      pop\n      pop\n      pop\n      pop\n      jump\t// out\n        /* \"#utility.yul\":23082:23262   */\n    tag_251:\n        /* \"#utility.yul\":23130:23207   */\n      0x4e487b7100000000000000000000000000000000000000000000000000000000\n        /* \"#utility.yul\":23127:23128   */\n      0x00\n        /* \"#utility.yul\":23120:23208   */\n      mstore\n        /* \"#utility.yul\":23227:23231   */\n      0x32\n        /* \"#utility.yul\":23224:23225   */\n      0x04\n        /* \"#utility.yul\":23217:23232   */\n      mstore\n        /* \"#utility.yul\":23251:23255   */\n      0x24\n        /* \"#utility.yul\":23248:23249   */\n      0x00\n        /* \"#utility.yul\":23241:23256   */\n      revert\n        /* \"#utility.yul\":23268:23459   */\n    tag_256:\n        /* \"#utility.yul\":23308:23311   */\n      0x00\n        /* \"#utility.yul\":23327:23347   */\n      tag_672\n        /* \"#utility.yul\":23345:23346   */\n      dup3\n        /* \"#utility.yul\":23327:23347   */\n      tag_406\n      jump\t// in\n    tag_672:\n        /* \"#utility.yul\":23322:23347   */\n      swap2\n      pop\n        /* \"#utility.yul\":23361:23381   */\n      tag_673\n        /* \"#utility.yul\":23379:23380   */\n      dup4\n        /* \"#utility.yul\":23361:23381   */\n      tag_406\n      jump\t// in\n    tag_673:\n        /* \"#utility.yul\":23356:23381   */\n      swap3\n      pop\n        /* \"#utility.yul\":23404:23405   */\n      dup3\n        /* \"#utility.yul\":23401:23402   */\n      dup3\n        /* \"#utility.yul\":23397:23406   */\n      add\n        /* \"#utility.yul\":23390:23406   */\n      swap1\n      pop\n        /* \"#utility.yul\":23425:23428   */\n      dup1\n        /* \"#utility.yul\":23422:23423   */\n      dup3\n        /* \"#utility.yul\":23419:23429   */\n      gt\n        /* \"#utility.yul\":23416:23452   */\n      iszero\n      tag_674\n      jumpi\n        /* \"#utility.yul\":23432:23450   */\n      tag_675\n      tag_428\n      jump\t// in\n    tag_675:\n        /* \"#utility.yul\":23416:23452   */\n    tag_674:\n        /* \"#utility.yul\":23268:23459   */\n      swap3\n      swap2\n      pop\n      pop\n      jump\t// out\n        /* \"#utility.yul\":23465:23612   */\n    tag_451:\n        /* \"#utility.yul\":23566:23577   */\n      0x00\n        /* \"#utility.yul\":23603:23606   */\n      dup2\n        /* \"#utility.yul\":23588:23606   */\n      swap1\n      pop\n        /* \"#utility.yul\":23465:23612   */\n      swap3\n      swap2\n      pop\n      pop\n      jump\t// out\n        /* \"#utility.yul\":23618:23732   */\n    tag_452:\n      pop\n      jump\t// out\n        /* \"#utility.yul\":23738:24136   */\n    tag_453:\n        /* \"#utility.yul\":23897:23900   */\n      0x00\n        /* \"#utility.yul\":23918:24001   */\n      tag_679\n        /* \"#utility.yul\":23999:24000   */\n      0x00\n        /* \"#utility.yul\":23994:23997   */\n      dup4\n        /* \"#utility.yul\":23918:24001   */\n      tag_451\n      jump\t// in\n    tag_679:\n        /* \"#utility.yul\":23911:24001   */\n      swap2\n      pop\n        /* \"#utility.yul\":24010:24103   */\n      tag_680\n        /* \"#utility.yul\":24099:24102   */\n      dup3\n        /* \"#utility.yul\":24010:24103   */\n      tag_452\n      jump\t// in\n    tag_680:\n        /* \"#utility.yul\":24128:24129   */\n      0x00\n        /* \"#utility.yul\":24123:24126   */\n      dup3\n        /* \"#utility.yul\":24119:24130   */\n      add\n        /* \"#utility.yul\":24112:24130   */\n      swap1\n      pop\n        /* \"#utility.yul\":23738:24136   */\n      swap2\n      swap1\n      pop\n      jump\t// out\n        /* \"#utility.yul\":24142:24521   */\n    tag_329:\n        /* \"#utility.yul\":24326:24329   */\n      0x00\n        /* \"#utility.yul\":24348:24495   */\n      tag_682\n        /* \"#utility.yul\":24491:24494   */\n      dup3\n        /* \"#utility.yul\":24348:24495   */\n      tag_453\n      jump\t// in\n    tag_682:\n        /* \"#utility.yul\":24341:24495   */\n      swap2\n      pop\n        /* \"#utility.yul\":24512:24515   */\n      dup2\n        /* \"#utility.yul\":24505:24515   */\n      swap1\n      pop\n        /* \"#utility.yul\":24142:24521   */\n      swap2\n      swap1\n      pop\n      jump\t// out\n        /* \"#utility.yul\":24527:24843   */\n    tag_335:\n        /* \"#utility.yul\":24640:24644   */\n      0x00\n        /* \"#utility.yul\":24678:24680   */\n      0x40\n        /* \"#utility.yul\":24667:24676   */\n      dup3\n        /* \"#utility.yul\":24663:24681   */\n      add\n        /* \"#utility.yul\":24655:24681   */\n      swap1\n      pop\n        /* \"#utility.yul\":24691:24758   */\n      tag_684\n        /* \"#utility.yul\":24755:24756   */\n      0x00\n        /* \"#utility.yul\":24744:24753   */\n      dup4\n        /* \"#utility.yul\":24740:24757   */\n      add\n        /* \"#utility.yul\":24731:24737   */\n      dup6\n        /* \"#utility.yul\":24691:24758   */\n      tag_408\n      jump\t// in\n    tag_684:\n        /* \"#utility.yul\":24768:24836   */\n      tag_685\n        /* \"#utility.yul\":24832:24834   */\n      0x20\n        /* \"#utility.yul\":24821:24830   */\n      dup4\n        /* \"#utility.yul\":24817:24835   */\n      add\n        /* \"#utility.yul\":24808:24814   */\n      dup5\n        /* \"#utility.yul\":24768:24836   */\n      tag_408\n      jump\t// in\n    tag_685:\n        /* \"#utility.yul\":24527:24843   */\n      swap4\n      swap3\n      pop\n      pop\n      pop\n      jump\t// out\n        /* \"#utility.yul\":24849:24934   */\n    tag_454:\n        /* \"#utility.yul\":24894:24901   */\n      0x00\n        /* \"#utility.yul\":24923:24928   */\n      dup2\n        /* \"#utility.yul\":24912:24928   */\n      swap1\n      pop\n        /* \"#utility.yul\":24849:24934   */\n      swap2\n      swap1\n      pop\n      jump\t// out\n        /* \"#utility.yul\":24940:25094   */\n    tag_455:\n        /* \"#utility.yul\":24996:25005   */\n      0x00\n        /* \"#utility.yul\":25029:25088   */\n      tag_688\n        /* \"#utility.yul\":25045:25087   */\n      tag_689\n        /* \"#utility.yul\":25054:25086   */\n      tag_690\n        /* \"#utility.yul\":25080:25085   */\n      dup5\n        /* \"#utility.yul\":25054:25086   */\n      tag_454\n      jump\t// in\n    tag_690:\n        /* \"#utility.yul\":25045:25087   */\n      tag_440\n      jump\t// in\n    tag_689:\n        /* \"#utility.yul\":25029:25088   */\n      tag_401\n      jump\t// in\n    tag_688:\n        /* \"#utility.yul\":25016:25088   */\n      swap1\n      pop\n        /* \"#utility.yul\":24940:25094   */\n      swap2\n      swap1\n      pop\n      jump\t// out\n        /* \"#utility.yul\":25100:25243   */\n    tag_456:\n        /* \"#utility.yul\":25193:25236   */\n      tag_692\n        /* \"#utility.yul\":25230:25235   */\n      dup2\n        /* \"#utility.yul\":25193:25236   */\n      tag_455\n      jump\t// in\n    tag_692:\n        /* \"#utility.yul\":25188:25191   */\n      dup3\n        /* \"#utility.yul\":25181:25237   */\n      mstore\n        /* \"#utility.yul\":25100:25243   */\n      pop\n      pop\n      jump\t// out\n        /* \"#utility.yul\":25249:25707   */\n    tag_371:\n        /* \"#utility.yul\":25406:25410   */\n      0x00\n        /* \"#utility.yul\":25444:25446   */\n      0x60\n        /* \"#utility.yul\":25433:25442   */\n      dup3\n        /* \"#utility.yul\":25429:25447   */\n      add\n        /* \"#utility.yul\":25421:25447   */\n      swap1\n      pop\n        /* \"#utility.yul\":25457:25534   */\n      tag_694\n        /* \"#utility.yul\":25531:25532   */\n      0x00\n        /* \"#utility.yul\":25520:25529   */\n      dup4\n        /* \"#utility.yul\":25516:25533   */\n      add\n        /* \"#utility.yul\":25507:25513   */\n      dup7\n        /* \"#utility.yul\":25457:25534   */\n      tag_445\n      jump\t// in\n    tag_694:\n        /* \"#utility.yul\":25544:25612   */\n      tag_695\n        /* \"#utility.yul\":25608:25610   */\n      0x20\n        /* \"#utility.yul\":25597:25606   */\n      dup4\n        /* \"#utility.yul\":25593:25611   */\n      add\n        /* \"#utility.yul\":25584:25590   */\n      dup6\n        /* \"#utility.yul\":25544:25612   */\n      tag_408\n      jump\t// in\n    tag_695:\n        /* \"#utility.yul\":25622:25700   */\n      tag_696\n        /* \"#utility.yul\":25696:25698   */\n      0x40\n        /* \"#utility.yul\":25685:25694   */\n      dup4\n        /* \"#utility.yul\":25681:25699   */\n      add\n        /* \"#utility.yul\":25672:25678   */\n      dup5\n        /* \"#utility.yul\":25622:25700   */\n      tag_456\n      jump\t// in\n    tag_696:\n        /* \"#utility.yul\":25249:25707   */\n      swap5\n      swap4\n      pop\n      pop\n      pop\n      pop\n      jump\t// out\n\n    auxdata: 0xa264697066735822122015456407efad9e9dc2799729ab2acdcdcc2cb0280fcd580b7f19b4f00b94bc6364736f6c634300081a0033\n}\n",
				"bytecode": {
					"linkReferences": {},
					"object": "60806040526002600455348015610014575f80fd5b506040516151043803806151048339818101604052810190610036919061032c565b6658d15e1762800060065f600160ff1681526020019081526020015f20819055505f600290505b600c60ff168160ff16116100c957600260065f60018461007d9190610390565b60ff1660ff1681526020019081526020015f205461009b91906103cd565b60065f8360ff1660ff1681526020019081526020015f208190555080806100c19061040e565b91505061005d565b508060055f6101000a81548173ffffffffffffffffffffffffffffffffffffffff021916908373ffffffffffffffffffffffffffffffffffffffff1602179055505f805f8373ffffffffffffffffffffffffffffffffffffffff1673ffffffffffffffffffffffffffffffffffffffff1681526020019081526020015f2090506001815f01819055505f816001015f6101000a81548173ffffffffffffffffffffffffffffffffffffffff021916908373ffffffffffffffffffffffffffffffffffffffff1602179055505f81600201819055505f600190505b600c60ff168160ff1611610226576001826003015f8360ff1660ff1681526020019081526020015f205f6101000a81548160ff0219169083151502179055506001826004015f8360ff1660ff1681526020019081526020015f205f6101000a81548160ff021916908315150217905550808061021e9061040e565b9150506101a3565b508160015f600181526020019081526020015f205f6101000a81548173ffffffffffffffffffffffffffffffffffffffff021916908373ffffffffffffffffffffffffffffffffffffffff1602179055508160025f600181526020019081526020015f205f6101000a81548173ffffffffffffffffffffffffffffffffffffffff021916908373ffffffffffffffffffffffffffffffffffffffff1602179055505050610436565b5f80fd5b5f73ffffffffffffffffffffffffffffffffffffffff82169050919050565b5f6102fb826102d2565b9050919050565b61030b816102f1565b8114610315575f80fd5b50565b5f8151905061032681610302565b92915050565b5f60208284031215610341576103406102ce565b5b5f61034e84828501610318565b91505092915050565b5f60ff82169050919050565b7f4e487b71000000000000000000000000000000000000000000000000000000005f52601160045260245ffd5b5f61039a82610357565b91506103a583610357565b9250828203905060ff8111156103be576103bd610363565b5b92915050565b5f819050919050565b5f6103d7826103c4565b91506103e2836103c4565b92508282026103f0816103c4565b9150828204841483151761040757610406610363565b5b5092915050565b5f61041882610357565b915060ff820361042b5761042a610363565b5b600182019050919050565b614cc1806104435f395ff3fe608060405260043610610101575f3560e01c806383ba31b211610094578063b2f7543a11610063578063b2f7543a14610449578063be389d5714610485578063e06e8dbd146104a1578063ecabdf79146104dd578063fa45323d1461051957610133565b806383ba31b2146103615780638da5cb5b146103a05780639cc102fc146103ca578063a87430ba1461040b57610133565b8063348d4487116100d0578063348d4487146102a35780634635fd68146102cd578063509222cd14610309578063797eee241461034557610133565b806307279e2a146101c557806327e235e31461020157806329c704001461023d5780632a2d0c471461026757610133565b36610133576101313360055f9054906101000a900473ffffffffffffffffffffffffffffffffffffffff16610555565b005b5f803690500361016d576101683360055f9054906101000a900473ffffffffffffffffffffffffffffffffffffffff16610555565b6101c3565b6101c2336101bd5f368080601f0160208091040260200160405190810160405280939291908181526020018383808284375f81840152601f19601f820116905080830192505050505050506109b0565b610555565b5b005b3480156101d0575f80fd5b506101eb60048036038101906101e691906140e7565b6109bd565b6040516101f8919061413f565b60405180910390f35b34801561020c575f80fd5b5061022760048036038101906102229190614158565b610a27565b604051610234919061419b565b60405180910390f35b348015610248575f80fd5b50610251610a3c565b60405161025e91906141c3565b60405180910390f35b348015610272575f80fd5b5061028d60048036038101906102889190614206565b610a41565b60405161029a9190614240565b60405180910390f35b3480156102ae575f80fd5b506102b7610a71565b6040516102c4919061419b565b60405180910390f35b3480156102d8575f80fd5b506102f360048036038101906102ee9190614206565b610a77565b6040516103009190614240565b60405180910390f35b348015610314575f80fd5b5061032f600480360381019061032a9190614158565b610aa7565b60405161033c919061413f565b60405180910390f35b61035f600480360381019061035a9190614158565b610af1565b005b34801561036c575f80fd5b50610387600480360381019061038291906140e7565b610afe565b6040516103979493929190614310565b60405180910390f35b3480156103ab575f80fd5b506103b4610d22565b6040516103c19190614240565b60405180910390f35b3480156103d5575f80fd5b506103f060048036038101906103eb91906140e7565b610d47565b6040516104029695949392919061435a565b60405180910390f35b348015610416575f80fd5b50610431600480360381019061042c9190614158565b6110c5565b604051610440939291906143c7565b60405180910390f35b348015610454575f80fd5b5061046f600480360381019061046a91906140e7565b611109565b60405161047c919061413f565b60405180910390f35b61049f600480360381019061049a91906143fc565b611173565b005b3480156104ac575f80fd5b506104c760048036038101906104c291906140e7565b611866565b6040516104d49190614240565b60405180910390f35b3480156104e8575f80fd5b5061050360048036038101906104fe919061443a565b611a06565b604051610510919061419b565b60405180910390f35b348015610524575f80fd5b5061053f600480360381019061053a91906140e7565b611a1b565b60405161054c9190614240565b60405180910390f35b66b1a2bc2ec50000341461059e576040517f08c379a0000000000000000000000000000000000000000000000000000000008152600401610595906144bf565b60405180910390fd5b6105a782610aa7565b156105e7576040517f08c379a00000000000000000000000000000000000000000000000000000000081526004016105de90614527565b60405180910390fd5b6105f081610aa7565b61062f576040517f08c379a00000000000000000000000000000000000000000000000000000000081526004016106269061458f565b60405180910390fd5b5f823b90505f8163ffffffff161461067c576040517f08c379a0000000000000000000000000000000000000000000000000000000008152600401610673906145f7565b60405180910390fd5b5f805f8573ffffffffffffffffffffffffffffffffffffffff1673ffffffffffffffffffffffffffffffffffffffff1681526020019081526020015f209050600454815f018190555082816001015f6101000a81548173ffffffffffffffffffffffffffffffffffffffff021916908373ffffffffffffffffffffffffffffffffffffffff1602179055505f81600201819055505f808473ffffffffffffffffffffffffffffffffffffffff1673ffffffffffffffffffffffffffffffffffffffff1681526020019081526020015f206002015f81548092919061075f90614642565b91905055508360015f60045481526020019081526020015f205f6101000a81548173ffffffffffffffffffffffffffffffffffffffff021916908373ffffffffffffffffffffffffffffffffffffffff1602179055508360025f60045481526020019081526020015f205f6101000a81548173ffffffffffffffffffffffffffffffffffffffff021916908373ffffffffffffffffffffffffffffffffffffffff16021790555060045f81548092919061081890614642565b91905055506001816003015f600160ff1681526020019081526020015f205f6101000a81548160ff0219169083151502179055506001816004015f600160ff1681526020019081526020015f205f6101000a81548160ff0219169083151502179055505f610887856001611a1b565b905080826005015f600160ff1681526020019081526020015f205f015f6101000a81548173ffffffffffffffffffffffffffffffffffffffff021916908373ffffffffffffffffffffffffffffffffffffffff1602179055506108ec85826001611bbb565b610902856108fb876001611866565b60016123ba565b815f01548473ffffffffffffffffffffffffffffffffffffffff168673ffffffffffffffffffffffffffffffffffffffff167f309bb360e8b69c23937ccc5fb01f9aeeead1c95a99604e175113ff82f2b1723a5f808973ffffffffffffffffffffffffffffffffffffffff1673ffffffffffffffffffffffffffffffffffffffff1681526020019081526020015f205f01546040516109a1919061419b565b60405180910390a45050505050565b5f60148201519050919050565b5f805f8473ffffffffffffffffffffffffffffffffffffffff1673ffffffffffffffffffffffffffffffffffffffff1681526020019081526020015f206003015f8360ff1660ff1681526020019081526020015f205f9054906101000a900460ff16905092915050565b6003602052805f5260405f205f915090505481565b600c81565b6001602052805f5260405f205f915054906101000a900473ffffffffffffffffffffffffffffffffffffffff1681565b60045481565b6002602052805f5260405f205f915054906101000a900473ffffffffffffffffffffffffffffffffffffffff1681565b5f805f808473ffffffffffffffffffffffffffffffffffffffff1673ffffffffffffffffffffffffffffffffffffffff1681526020019081526020015f205f015414159050919050565b610afb3382610555565b50565b5f60605f805f808773ffffffffffffffffffffffffffffffffffffffff1673ffffffffffffffffffffffffffffffffffffffff1681526020019081526020015f206005015f8660ff1660ff1681526020019081526020015f205f015f9054906101000a900473ffffffffffffffffffffffffffffffffffffffff165f808873ffffffffffffffffffffffffffffffffffffffff1673ffffffffffffffffffffffffffffffffffffffff1681526020019081526020015f206005015f8760ff1660ff1681526020019081526020015f206001015f808973ffffffffffffffffffffffffffffffffffffffff1673ffffffffffffffffffffffffffffffffffffffff1681526020019081526020015f206005015f8860ff1660ff1681526020019081526020015f206002015f9054906101000a900460ff165f808a73ffffffffffffffffffffffffffffffffffffffff1673ffffffffffffffffffffffffffffffffffffffff1681526020019081526020015f206005015f8960ff1660ff1681526020019081526020015f206003015482805480602002602001604051908101604052809291908181526020018280548015610d0a57602002820191905f5260205f20905b815f9054906101000a900473ffffffffffffffffffffffffffffffffffffffff1673ffffffffffffffffffffffffffffffffffffffff1681526020019060010190808311610cc1575b50505050509250935093509350935092959194509250565b60055f9054906101000a900473ffffffffffffffffffffffffffffffffffffffff1681565b5f6060805f805f805f8973ffffffffffffffffffffffffffffffffffffffff1673ffffffffffffffffffffffffffffffffffffffff1681526020019081526020015f206006015f8860ff1660ff1681526020019081526020015f205f015f9054906101000a900473ffffffffffffffffffffffffffffffffffffffff165f808a73ffffffffffffffffffffffffffffffffffffffff1673ffffffffffffffffffffffffffffffffffffffff1681526020019081526020015f206006015f8960ff1660ff1681526020019081526020015f206001015f808b73ffffffffffffffffffffffffffffffffffffffff1673ffffffffffffffffffffffffffffffffffffffff1681526020019081526020015f206006015f8a60ff1660ff1681526020019081526020015f206002015f808c73ffffffffffffffffffffffffffffffffffffffff1673ffffffffffffffffffffffffffffffffffffffff1681526020019081526020015f206006015f8b60ff1660ff1681526020019081526020015f206003015f9054906101000a900460ff165f808d73ffffffffffffffffffffffffffffffffffffffff1673ffffffffffffffffffffffffffffffffffffffff1681526020019081526020015f206006015f8c60ff1660ff1681526020019081526020015f20600401545f808e73ffffffffffffffffffffffffffffffffffffffff1673ffffffffffffffffffffffffffffffffffffffff1681526020019081526020015f206006015f8d60ff1660ff1681526020019081526020015f206005015f9054906101000a900473ffffffffffffffffffffffffffffffffffffffff168480548060200260200160405190810160405280929190818152602001828054801561102357602002820191905f5260205f20905b815f9054906101000a900473ffffffffffffffffffffffffffffffffffffffff1673ffffffffffffffffffffffffffffffffffffffff1681526020019060010190808311610fda575b50505050509450838054806020026020016040519081016040528092919081815260200182805480156110a857602002820191905f5260205f20905b815f9054906101000a900473ffffffffffffffffffffffffffffffffffffffff1673ffffffffffffffffffffffffffffffffffffffff168152602001906001019080831161105f575b505050505093509550955095509550955095509295509295509295565b5f602052805f5260405f205f91509050805f015490806001015f9054906101000a900473ffffffffffffffffffffffffffffffffffffffff16908060020154905083565b5f805f8473ffffffffffffffffffffffffffffffffffffffff1673ffffffffffffffffffffffffffffffffffffffff1681526020019081526020015f206004015f8360ff1660ff1681526020019081526020015f205f9054906101000a900460ff16905092915050565b61117c33610aa7565b6111bb576040517f08c379a00000000000000000000000000000000000000000000000000000000081526004016111b2906146f9565b60405180910390fd5b60018260ff1614806111d0575060028260ff16145b61120f576040517f08c379a000000000000000000000000000000000000000000000000000000000815260040161120690614761565b60405180910390fd5b60065f8260ff1660ff1681526020019081526020015f20543414611268576040517f08c379a000000000000000000000000000000000000000000000000000000000815260040161125f906147c9565b60405180910390fd5b60018160ff161180156112825750600c60ff168160ff1611155b6112c1576040517f08c379a00000000000000000000000000000000000000000000000000000000081526004016112b890614831565b60405180910390fd5b60018260ff16036115e3575f803373ffffffffffffffffffffffffffffffffffffffff1673ffffffffffffffffffffffffffffffffffffffff1681526020019081526020015f206003015f8260ff1660ff1681526020019081526020015f205f9054906101000a900460ff161561136d576040517f08c379a000000000000000000000000000000000000000000000000000000000815260040161136490614899565b60405180910390fd5b5f803373ffffffffffffffffffffffffffffffffffffffff1673ffffffffffffffffffffffffffffffffffffffff1681526020019081526020015f206005015f6001836113ba91906148b7565b60ff1660ff1681526020019081526020015f206002015f9054906101000a900460ff161561145d575f805f3373ffffffffffffffffffffffffffffffffffffffff1673ffffffffffffffffffffffffffffffffffffffff1681526020019081526020015f206005015f60018461143091906148b7565b60ff1660ff1681526020019081526020015f206002015f6101000a81548160ff0219169083151502179055505b5f6114683383611a1b565b9050805f803373ffffffffffffffffffffffffffffffffffffffff1673ffffffffffffffffffffffffffffffffffffffff1681526020019081526020015f206005015f8460ff1660ff1681526020019081526020015f205f015f6101000a81548173ffffffffffffffffffffffffffffffffffffffff021916908373ffffffffffffffffffffffffffffffffffffffff16021790555060015f803373ffffffffffffffffffffffffffffffffffffffff1673ffffffffffffffffffffffffffffffffffffffff1681526020019081526020015f206003015f8460ff1660ff1681526020019081526020015f205f6101000a81548160ff021916908315150217905550611575338284611bbb565b8073ffffffffffffffffffffffffffffffffffffffff163373ffffffffffffffffffffffffffffffffffffffff167f18a92df19fd94d6cfff209966673a5ca05a1c8e2bb68e097fce2bdc2ed8111196001856040516115d592919061492d565b60405180910390a350611862565b5f803373ffffffffffffffffffffffffffffffffffffffff1673ffffffffffffffffffffffffffffffffffffffff1681526020019081526020015f206004015f8260ff1660ff1681526020019081526020015f205f9054906101000a900460ff1615611684576040517f08c379a000000000000000000000000000000000000000000000000000000000815260040161167b90614899565b60405180910390fd5b5f803373ffffffffffffffffffffffffffffffffffffffff1673ffffffffffffffffffffffffffffffffffffffff1681526020019081526020015f206006015f6001836116d191906148b7565b60ff1660ff1681526020019081526020015f206003015f9054906101000a900460ff1615611774575f805f3373ffffffffffffffffffffffffffffffffffffffff1673ffffffffffffffffffffffffffffffffffffffff1681526020019081526020015f206006015f60018461174791906148b7565b60ff1660ff1681526020019081526020015f206003015f6101000a81548160ff0219169083151502179055505b5f61177f3383611866565b905060015f803373ffffffffffffffffffffffffffffffffffffffff1673ffffffffffffffffffffffffffffffffffffffff1681526020019081526020015f206004015f8460ff1660ff1681526020019081526020015f205f6101000a81548160ff0219169083151502179055506117f83382846123ba565b8073ffffffffffffffffffffffffffffffffffffffff163373ffffffffffffffffffffffffffffffffffffffff167f18a92df19fd94d6cfff209966673a5ca05a1c8e2bb68e097fce2bdc2ed81111960028560405161185892919061498d565b60405180910390a3505b5050565b5f5b6001156119ff575f80805f8673ffffffffffffffffffffffffffffffffffffffff1673ffffffffffffffffffffffffffffffffffffffff1681526020019081526020015f206001015f9054906101000a900473ffffffffffffffffffffffffffffffffffffffff1673ffffffffffffffffffffffffffffffffffffffff1673ffffffffffffffffffffffffffffffffffffffff1681526020019081526020015f206004015f8360ff1660ff1681526020019081526020015f205f9054906101000a900460ff1615611999575f808473ffffffffffffffffffffffffffffffffffffffff1673ffffffffffffffffffffffffffffffffffffffff1681526020019081526020015f206001015f9054906101000a900473ffffffffffffffffffffffffffffffffffffffff169050611a00565b5f808473ffffffffffffffffffffffffffffffffffffffff1673ffffffffffffffffffffffffffffffffffffffff1681526020019081526020015f206001015f9054906101000a900473ffffffffffffffffffffffffffffffffffffffff169250611868565b5b92915050565b6006602052805f5260405f205f915090505481565b5f5b600115611bb4575f80805f8673ffffffffffffffffffffffffffffffffffffffff1673ffffffffffffffffffffffffffffffffffffffff1681526020019081526020015f206001015f9054906101000a900473ffffffffffffffffffffffffffffffffffffffff1673ffffffffffffffffffffffffffffffffffffffff1673ffffffffffffffffffffffffffffffffffffffff1681526020019081526020015f206003015f8360ff1660ff1681526020019081526020015f205f9054906101000a900460ff1615611b4e575f808473ffffffffffffffffffffffffffffffffffffffff1673ffffffffffffffffffffffffffffffffffffffff1681526020019081526020015f206001015f9054906101000a900473ffffffffffffffffffffffffffffffffffffffff169050611bb5565b5f808473ffffffffffffffffffffffffffffffffffffffff1673ffffffffffffffffffffffffffffffffffffffff1681526020019081526020015f206001015f9054906101000a900473ffffffffffffffffffffffffffffffffffffffff169250611a1d565b5b92915050565b5f808373ffffffffffffffffffffffffffffffffffffffff1673ffffffffffffffffffffffffffffffffffffffff1681526020019081526020015f206005015f8260ff1660ff1681526020019081526020015f2060010183908060018154018082558091505060019003905f5260205f20015f9091909190916101000a81548173ffffffffffffffffffffffffffffffffffffffff021916908373ffffffffffffffffffffffffffffffffffffffff16021790555060035f808473ffffffffffffffffffffffffffffffffffffffff1673ffffffffffffffffffffffffffffffffffffffff1681526020019081526020015f206005015f8360ff1660ff1681526020019081526020015f20600101805490501015611da9578173ffffffffffffffffffffffffffffffffffffffff168373ffffffffffffffffffffffffffffffffffffffff167f68062c5925c4317adf3a7095478d28b33fd8b41458bc7620b61bc46bf1b24d826001845f808873ffffffffffffffffffffffffffffffffffffffff1673ffffffffffffffffffffffffffffffffffffffff1681526020019081526020015f206005015f8760ff1660ff1681526020019081526020015f2060010180549050604051611d8f939291906149b4565b60405180910390a3611da48284600184613516565b6123b5565b8173ffffffffffffffffffffffffffffffffffffffff168373ffffffffffffffffffffffffffffffffffffffff167f68062c5925c4317adf3a7095478d28b33fd8b41458bc7620b61bc46bf1b24d826001846003604051611e0c93929190614a22565b60405180910390a35f67ffffffffffffffff811115611e2e57611e2d614a57565b5b604051908082528060200260200182016040528015611e5c5781602001602082028036833780820191505090505b505f808473ffffffffffffffffffffffffffffffffffffffff1673ffffffffffffffffffffffffffffffffffffffff1681526020019081526020015f206005015f8360ff1660ff1681526020019081526020015f206001019080519060200190611ec7929190613fb1565b505f808373ffffffffffffffffffffffffffffffffffffffff1673ffffffffffffffffffffffffffffffffffffffff1681526020019081526020015f206003015f600183611f159190614a84565b60ff1660ff1681526020019081526020015f205f9054906101000a900460ff16158015611f495750600c60ff168160ff1614155b15611fbe5760015f808473ffffffffffffffffffffffffffffffffffffffff1673ffffffffffffffffffffffffffffffffffffffff1681526020019081526020015f206005015f8360ff1660ff1681526020019081526020015f206002015f6101000a81548160ff0219169083151502179055505b60055f9054906101000a900473ffffffffffffffffffffffffffffffffffffffff1673ffffffffffffffffffffffffffffffffffffffff168273ffffffffffffffffffffffffffffffffffffffff1614612258575f61201d8383611a1b565b90508073ffffffffffffffffffffffffffffffffffffffff165f808573ffffffffffffffffffffffffffffffffffffffff1673ffffffffffffffffffffffffffffffffffffffff1681526020019081526020015f206005015f8460ff1660ff1681526020019081526020015f205f015f9054906101000a900473ffffffffffffffffffffffffffffffffffffffff1673ffffffffffffffffffffffffffffffffffffffff161461215c57805f808573ffffffffffffffffffffffffffffffffffffffff1673ffffffffffffffffffffffffffffffffffffffff1681526020019081526020015f206005015f8460ff1660ff1681526020019081526020015f205f015f6101000a81548173ffffffffffffffffffffffffffffffffffffffff021916908373ffffffffffffffffffffffffffffffffffffffff1602179055505b5f808473ffffffffffffffffffffffffffffffffffffffff1673ffffffffffffffffffffffffffffffffffffffff1681526020019081526020015f206005015f8360ff1660ff1681526020019081526020015f206003015f8154809291906121c390614642565b91905055508373ffffffffffffffffffffffffffffffffffffffff168173ffffffffffffffffffffffffffffffffffffffff168473ffffffffffffffffffffffffffffffffffffffff167fa00c953eff38ec1b71e7fe060b2ab8df0bbe5354319fbdde4fbdafd6324386a660018660405161223f92919061492d565b60405180910390a4612252838284611bbb565b506123b4565b61228660055f9054906101000a900473ffffffffffffffffffffffffffffffffffffffff1684600184613516565b5f8060055f9054906101000a900473ffffffffffffffffffffffffffffffffffffffff1673ffffffffffffffffffffffffffffffffffffffff1673ffffffffffffffffffffffffffffffffffffffff1681526020019081526020015f206005015f8260ff1660ff1681526020019081526020015f206003015f81548092919061230e90614642565b91905055508273ffffffffffffffffffffffffffffffffffffffff165f73ffffffffffffffffffffffffffffffffffffffff1660055f9054906101000a900473ffffffffffffffffffffffffffffffffffffffff1673ffffffffffffffffffffffffffffffffffffffff167fa00c953eff38ec1b71e7fe060b2ab8df0bbe5354319fbdde4fbdafd6324386a66001856040516123ab92919061492d565b60405180910390a45b5b505050565b5f808373ffffffffffffffffffffffffffffffffffffffff1673ffffffffffffffffffffffffffffffffffffffff1681526020019081526020015f206004015f8260ff1660ff1681526020019081526020015f205f9054906101000a900460ff1661245a576040517f08c379a000000000000000000000000000000000000000000000000000000000815260040161245190614b02565b60405180910390fd5b60025f808473ffffffffffffffffffffffffffffffffffffffff1673ffffffffffffffffffffffffffffffffffffffff1681526020019081526020015f206006015f8360ff1660ff1681526020019081526020015f206001018054905010156129d0575f808373ffffffffffffffffffffffffffffffffffffffff1673ffffffffffffffffffffffffffffffffffffffff1681526020019081526020015f206006015f8260ff1660ff1681526020019081526020015f2060010183908060018154018082558091505060019003905f5260205f20015f9091909190916101000a81548173ffffffffffffffffffffffffffffffffffffffff021916908373ffffffffffffffffffffffffffffffffffffffff1602179055508173ffffffffffffffffffffffffffffffffffffffff168373ffffffffffffffffffffffffffffffffffffffff167f68062c5925c4317adf3a7095478d28b33fd8b41458bc7620b61bc46bf1b24d826002845f808873ffffffffffffffffffffffffffffffffffffffff1673ffffffffffffffffffffffffffffffffffffffff1681526020019081526020015f206006015f8760ff1660ff1681526020019081526020015f206001018054905060405161262e93929190614b20565b60405180910390a3815f808573ffffffffffffffffffffffffffffffffffffffff1673ffffffffffffffffffffffffffffffffffffffff1681526020019081526020015f206006015f8360ff1660ff1681526020019081526020015f205f015f6101000a81548173ffffffffffffffffffffffffffffffffffffffff021916908373ffffffffffffffffffffffffffffffffffffffff16021790555060055f9054906101000a900473ffffffffffffffffffffffffffffffffffffffff1673ffffffffffffffffffffffffffffffffffffffff168273ffffffffffffffffffffffffffffffffffffffff16036127305761272b8284600284613516565b613511565b5f805f8473ffffffffffffffffffffffffffffffffffffffff1673ffffffffffffffffffffffffffffffffffffffff1681526020019081526020015f206006015f8360ff1660ff1681526020019081526020015f206001015f8154811061279a57612799614b55565b5b905f5260205f20015f9054906101000a900473ffffffffffffffffffffffffffffffffffffffff16905060045f808373ffffffffffffffffffffffffffffffffffffffff1673ffffffffffffffffffffffffffffffffffffffff1681526020019081526020015f206006015f8460ff1660ff1681526020019081526020015f206002018054905010156129bf575f808273ffffffffffffffffffffffffffffffffffffffff1673ffffffffffffffffffffffffffffffffffffffff1681526020019081526020015f206006015f8360ff1660ff1681526020019081526020015f2060020184908060018154018082558091505060019003905f5260205f20015f9091909190916101000a81548173ffffffffffffffffffffffffffffffffffffffff021916908373ffffffffffffffffffffffffffffffffffffffff1602179055508073ffffffffffffffffffffffffffffffffffffffff168473ffffffffffffffffffffffffffffffffffffffff167f68062c5925c4317adf3a7095478d28b33fd8b41458bc7620b61bc46bf1b24d8260028560025f808873ffffffffffffffffffffffffffffffffffffffff1673ffffffffffffffffffffffffffffffffffffffff1681526020019081526020015f206006015f8960ff1660ff1681526020019081526020015f20600201805490506129959190614b82565b6040516129a493929190614b20565b60405180910390a36129b98185600285613516565b50613511565b6129ca848284613610565b50613511565b5f808373ffffffffffffffffffffffffffffffffffffffff1673ffffffffffffffffffffffffffffffffffffffff1681526020019081526020015f206006015f8260ff1660ff1681526020019081526020015f2060020183908060018154018082558091505060019003905f5260205f20015f9091909190916101000a81548173ffffffffffffffffffffffffffffffffffffffff021916908373ffffffffffffffffffffffffffffffffffffffff1602179055505f73ffffffffffffffffffffffffffffffffffffffff165f808473ffffffffffffffffffffffffffffffffffffffff1673ffffffffffffffffffffffffffffffffffffffff1681526020019081526020015f206006015f8360ff1660ff1681526020019081526020015f206005015f9054906101000a900473ffffffffffffffffffffffffffffffffffffffff1673ffffffffffffffffffffffffffffffffffffffff1614612f4f575f808373ffffffffffffffffffffffffffffffffffffffff1673ffffffffffffffffffffffffffffffffffffffff1681526020019081526020015f206006015f8260ff1660ff1681526020019081526020015f20600101600181548110612b9857612b97614b55565b5b905f5260205f20015f9054906101000a900473ffffffffffffffffffffffffffffffffffffffff1673ffffffffffffffffffffffffffffffffffffffff165f808473ffffffffffffffffffffffffffffffffffffffff1673ffffffffffffffffffffffffffffffffffffffff1681526020019081526020015f206006015f8360ff1660ff1681526020019081526020015f206001015f81548110612c3f57612c3e614b55565b5b905f5260205f20015f9054906101000a900473ffffffffffffffffffffffffffffffffffffffff1673ffffffffffffffffffffffffffffffffffffffff16148015612dbb57505f808373ffffffffffffffffffffffffffffffffffffffff1673ffffffffffffffffffffffffffffffffffffffff1681526020019081526020015f206006015f8260ff1660ff1681526020019081526020015f206005015f9054906101000a900473ffffffffffffffffffffffffffffffffffffffff1673ffffffffffffffffffffffffffffffffffffffff165f808473ffffffffffffffffffffffffffffffffffffffff1673ffffffffffffffffffffffffffffffffffffffff1681526020019081526020015f206006015f8360ff1660ff1681526020019081526020015f206001015f81548110612d7b57612d7a614b55565b5b905f5260205f20015f9054906101000a900473ffffffffffffffffffffffffffffffffffffffff1673ffffffffffffffffffffffffffffffffffffffff16145b15612ddd57612dcd83838360016138d4565b612dd8838383613610565b613511565b5f808373ffffffffffffffffffffffffffffffffffffffff1673ffffffffffffffffffffffffffffffffffffffff1681526020019081526020015f206006015f8260ff1660ff1681526020019081526020015f206005015f9054906101000a900473ffffffffffffffffffffffffffffffffffffffff1673ffffffffffffffffffffffffffffffffffffffff165f808473ffffffffffffffffffffffffffffffffffffffff1673ffffffffffffffffffffffffffffffffffffffff1681526020019081526020015f206006015f8360ff1660ff1681526020019081526020015f206001015f81548110612ed357612ed2614b55565b5b905f5260205f20015f9054906101000a900473ffffffffffffffffffffffffffffffffffffffff1673ffffffffffffffffffffffffffffffffffffffff1603612f3357612f2383838360016138d4565b612f2e838383613610565b613511565b612f3f8383835f6138d4565b612f4a838383613610565b613511565b8273ffffffffffffffffffffffffffffffffffffffff165f808473ffffffffffffffffffffffffffffffffffffffff1673ffffffffffffffffffffffffffffffffffffffff1681526020019081526020015f206006015f8360ff1660ff1681526020019081526020015f20600101600181548110612fd057612fcf614b55565b5b905f5260205f20015f9054906101000a900473ffffffffffffffffffffffffffffffffffffffff1673ffffffffffffffffffffffffffffffffffffffff160361302f5761301f8383835f6138d4565b61302a838383613610565b613511565b8273ffffffffffffffffffffffffffffffffffffffff165f808473ffffffffffffffffffffffffffffffffffffffff1673ffffffffffffffffffffffffffffffffffffffff1681526020019081526020015f206006015f8360ff1660ff1681526020019081526020015f206001015f815481106130af576130ae614b55565b5b905f5260205f20015f9054906101000a900473ffffffffffffffffffffffffffffffffffffffff1673ffffffffffffffffffffffffffffffffffffffff160361310f576130ff83838360016138d4565b61310a838383613610565b613511565b60025f808473ffffffffffffffffffffffffffffffffffffffff1673ffffffffffffffffffffffffffffffffffffffff1681526020019081526020015f206006015f8360ff1660ff1681526020019081526020015f2060010180549050036133bf575f808373ffffffffffffffffffffffffffffffffffffffff1673ffffffffffffffffffffffffffffffffffffffff1681526020019081526020015f206006015f8260ff1660ff1681526020019081526020015f206001016001815481106131db576131da614b55565b5b905f5260205f20015f9054906101000a900473ffffffffffffffffffffffffffffffffffffffff1673ffffffffffffffffffffffffffffffffffffffff165f808473ffffffffffffffffffffffffffffffffffffffff1673ffffffffffffffffffffffffffffffffffffffff1681526020019081526020015f206006015f8360ff1660ff1681526020019081526020015f206001015f8154811061328257613281614b55565b5b905f5260205f20015f9054906101000a900473ffffffffffffffffffffffffffffffffffffffff1673ffffffffffffffffffffffffffffffffffffffff16036132d7576132d283838360016138d4565b6133ba565b8273ffffffffffffffffffffffffffffffffffffffff165f808473ffffffffffffffffffffffffffffffffffffffff1673ffffffffffffffffffffffffffffffffffffffff1681526020019081526020015f206006015f8360ff1660ff1681526020019081526020015f206001015f8154811061335757613356614b55565b5b905f5260205f20015f9054906101000a900473ffffffffffffffffffffffffffffffffffffffff1673ffffffffffffffffffffffffffffffffffffffff16036133ac576133a783838360016138d4565b6133b9565b6133b88383835f6138d4565b5b5b613505565b60015f808473ffffffffffffffffffffffffffffffffffffffff1673ffffffffffffffffffffffffffffffffffffffff1681526020019081526020015f206006015f8360ff1660ff1681526020019081526020015f206001018054905003613504578273ffffffffffffffffffffffffffffffffffffffff165f808473ffffffffffffffffffffffffffffffffffffffff1673ffffffffffffffffffffffffffffffffffffffff1681526020019081526020015f206006015f8360ff1660ff1681526020019081526020015f206001015f815481106134a1576134a0614b55565b5b905f5260205f20015f9054906101000a900473ffffffffffffffffffffffffffffffffffffffff1673ffffffffffffffffffffffffffffffffffffffff16036134f6576134f183838360016138d4565b613503565b6135028383835f6138d4565b5b5b5b613510838383613610565b5b505050565b5f8473ffffffffffffffffffffffffffffffffffffffff1660065f8460ff1660ff1681526020019081526020015f205460405161355290614be2565b5f6040518083038185875af1925050503d805f811461358c576040519150601f19603f3d011682016040523d82523d5f602084013e613591565b606091505b5050905080156135a1575061360a565b8373ffffffffffffffffffffffffffffffffffffffff168573ffffffffffffffffffffffffffffffffffffffff167ffc0cb63f8dbd6b20ceb84a3c5358a41576a1479e6ecd040b4b985525dc09a7098585604051613600929190614bf6565b60405180910390a3505b50505050565b60045f808473ffffffffffffffffffffffffffffffffffffffff1673ffffffffffffffffffffffffffffffffffffffff1681526020019081526020015f206006015f8360ff1660ff1681526020019081526020015f20600201805490501015613685576136808284600284613516565b6138cf565b5f805f8473ffffffffffffffffffffffffffffffffffffffff1673ffffffffffffffffffffffffffffffffffffffff1681526020019081526020015f206006015f8360ff1660ff1681526020019081526020015f2060010180548060200260200160405190810160405280929190818152602001828054801561375a57602002820191905f5260205f20905b815f9054906101000a900473ffffffffffffffffffffffffffffffffffffffff1673ffffffffffffffffffffffffffffffffffffffff1681526020019060010190808311613711575b505050505090506002815103613856578060018151811061377e5761377d614b55565b5b602002602001015173ffffffffffffffffffffffffffffffffffffffff16815f815181106137af576137ae614b55565b5b602002602001015173ffffffffffffffffffffffffffffffffffffffff16036137e4576137df84848460016138d4565b613851565b8373ffffffffffffffffffffffffffffffffffffffff16815f8151811061380e5761380d614b55565b5b602002602001015173ffffffffffffffffffffffffffffffffffffffff16036138435761383e84848460016138d4565b613850565b61384f8484845f6138d4565b5b5b6138cd565b60018151036138cc578373ffffffffffffffffffffffffffffffffffffffff16815f8151811061388957613888614b55565b5b602002602001015173ffffffffffffffffffffffffffffffffffffffff16036138be576138b984848460016138d4565b6138cb565b6138ca8484845f6138d4565b5b5b5b505b505050565b8061396f57835f808573ffffffffffffffffffffffffffffffffffffffff1673ffffffffffffffffffffffffffffffffffffffff1681526020019081526020015f206006015f8460ff1660ff1681526020019081526020015f206005015f6101000a81548173ffffffffffffffffffffffffffffffffffffffff021916908373ffffffffffffffffffffffffffffffffffffffff1602179055505b5f808473ffffffffffffffffffffffffffffffffffffffff1673ffffffffffffffffffffffffffffffffffffffff1681526020019081526020015f206006015f8360ff1660ff1681526020019081526020015f2060020184908060018154018082558091505060019003905f5260205f20015f9091909190916101000a81548173ffffffffffffffffffffffffffffffffffffffff021916908373ffffffffffffffffffffffffffffffffffffffff16021790555060045f808573ffffffffffffffffffffffffffffffffffffffff1673ffffffffffffffffffffffffffffffffffffffff1681526020019081526020015f206006015f8460ff1660ff1681526020019081526020015f20600201805490501015613b69578273ffffffffffffffffffffffffffffffffffffffff168473ffffffffffffffffffffffffffffffffffffffff167f68062c5925c4317adf3a7095478d28b33fd8b41458bc7620b61bc46bf1b24d8260028560025f808a73ffffffffffffffffffffffffffffffffffffffff1673ffffffffffffffffffffffffffffffffffffffff1681526020019081526020015f206006015f8960ff1660ff1681526020019081526020015f2060020180549050613b409190614b82565b604051613b4f93929190614b20565b60405180910390a3613b648385600285613516565b613fab565b8273ffffffffffffffffffffffffffffffffffffffff168473ffffffffffffffffffffffffffffffffffffffff167f68062c5925c4317adf3a7095478d28b33fd8b41458bc7620b61bc46bf1b24d826002856006604051613bcc93929190614c56565b60405180910390a35f67ffffffffffffffff811115613bee57613bed614a57565b5b604051908082528060200260200182016040528015613c1c5781602001602082028036833780820191505090505b505f808573ffffffffffffffffffffffffffffffffffffffff1673ffffffffffffffffffffffffffffffffffffffff1681526020019081526020015f206006015f8460ff1660ff1681526020019081526020015f206002019080519060200190613c87929190613fb1565b505f808473ffffffffffffffffffffffffffffffffffffffff1673ffffffffffffffffffffffffffffffffffffffff1681526020019081526020015f206004015f600184613cd59190614a84565b60ff1660ff1681526020019081526020015f205f9054906101000a900460ff16158015613d095750600c60ff168260ff1614155b15613d7e5760015f808573ffffffffffffffffffffffffffffffffffffffff1673ffffffffffffffffffffffffffffffffffffffff1681526020019081526020015f206006015f8460ff1660ff1681526020019081526020015f206003015f6101000a81548160ff0219169083151502179055505b5f808473ffffffffffffffffffffffffffffffffffffffff1673ffffffffffffffffffffffffffffffffffffffff1681526020019081526020015f206006015f8360ff1660ff1681526020019081526020015f206004015f815480929190613de590614642565b919050555060055f9054906101000a900473ffffffffffffffffffffffffffffffffffffffff1673ffffffffffffffffffffffffffffffffffffffff168373ffffffffffffffffffffffffffffffffffffffff1614613edb575f613e498484611866565b90508473ffffffffffffffffffffffffffffffffffffffff168173ffffffffffffffffffffffffffffffffffffffff168573ffffffffffffffffffffffffffffffffffffffff167fa00c953eff38ec1b71e7fe060b2ab8df0bbe5354319fbdde4fbdafd6324386a6600287604051613ec292919061498d565b60405180910390a4613ed58482856123ba565b50613faa565b613f0960055f9054906101000a900473ffffffffffffffffffffffffffffffffffffffff1685600285613516565b8373ffffffffffffffffffffffffffffffffffffffff165f73ffffffffffffffffffffffffffffffffffffffff1660055f9054906101000a900473ffffffffffffffffffffffffffffffffffffffff1673ffffffffffffffffffffffffffffffffffffffff167fa00c953eff38ec1b71e7fe060b2ab8df0bbe5354319fbdde4fbdafd6324386a6600286604051613fa192919061498d565b60405180910390a45b5b50505050565b828054828255905f5260205f20908101928215614027579160200282015b82811115614026578251825f6101000a81548173ffffffffffffffffffffffffffffffffffffffff021916908373ffffffffffffffffffffffffffffffffffffffff16021790555091602001919060010190613fcf565b5b5090506140349190614038565b5090565b5b8082111561404f575f815f905550600101614039565b5090565b5f80fd5b5f73ffffffffffffffffffffffffffffffffffffffff82169050919050565b5f61408082614057565b9050919050565b61409081614076565b811461409a575f80fd5b50565b5f813590506140ab81614087565b92915050565b5f60ff82169050919050565b6140c6816140b1565b81146140d0575f80fd5b50565b5f813590506140e1816140bd565b92915050565b5f80604083850312156140fd576140fc614053565b5b5f61410a8582860161409d565b925050602061411b858286016140d3565b9150509250929050565b5f8115159050919050565b61413981614125565b82525050565b5f6020820190506141525f830184614130565b92915050565b5f6020828403121561416d5761416c614053565b5b5f61417a8482850161409d565b91505092915050565b5f819050919050565b61419581614183565b82525050565b5f6020820190506141ae5f83018461418c565b92915050565b6141bd816140b1565b82525050565b5f6020820190506141d65f8301846141b4565b92915050565b6141e581614183565b81146141ef575f80fd5b50565b5f81359050614200816141dc565b92915050565b5f6020828403121561421b5761421a614053565b5b5f614228848285016141f2565b91505092915050565b61423a81614076565b82525050565b5f6020820190506142535f830184614231565b92915050565b5f81519050919050565b5f82825260208201905092915050565b5f819050602082019050919050565b61428b81614076565b82525050565b5f61429c8383614282565b60208301905092915050565b5f602082019050919050565b5f6142be82614259565b6142c88185614263565b93506142d383614273565b805f5b838110156143035781516142ea8882614291565b97506142f5836142a8565b9250506001810190506142d6565b5085935050505092915050565b5f6080820190506143235f830187614231565b818103602083015261433581866142b4565b90506143446040830185614130565b614351606083018461418c565b95945050505050565b5f60c08201905061436d5f830189614231565b818103602083015261437f81886142b4565b9050818103604083015261439381876142b4565b90506143a26060830186614130565b6143af608083018561418c565b6143bc60a0830184614231565b979650505050505050565b5f6060820190506143da5f83018661418c565b6143e76020830185614231565b6143f4604083018461418c565b949350505050565b5f806040838503121561441257614411614053565b5b5f61441f858286016140d3565b9250506020614430858286016140d3565b9150509250929050565b5f6020828403121561444f5761444e614053565b5b5f61445c848285016140d3565b91505092915050565b5f82825260208201905092915050565b7f526567697374726174696f6e20636f737420302e3035204554480000000000005f82015250565b5f6144a9601a83614465565b91506144b482614475565b602082019050919050565b5f6020820190508181035f8301526144d68161449d565b9050919050565b7f5573657220616c726561647920657869737473000000000000000000000000005f82015250565b5f614511601383614465565b915061451c826144dd565b602082019050919050565b5f6020820190508181035f83015261453e81614505565b9050919050565b7f526566657272657220646f6573206e6f742065786973740000000000000000005f82015250565b5f614579601783614465565b915061458482614545565b602082019050919050565b5f6020820190508181035f8301526145a68161456d565b9050919050565b7f43616e6e6f74206265206120636f6e74726163740000000000000000000000005f82015250565b5f6145e1601483614465565b91506145ec826145ad565b602082019050919050565b5f6020820190508181035f83015261460e816145d5565b9050919050565b7f4e487b71000000000000000000000000000000000000000000000000000000005f52601160045260245ffd5b5f61464c82614183565b91507fffffffffffffffffffffffffffffffffffffffffffffffffffffffffffffffff820361467e5761467d614615565b5b600182019050919050565b7f5573657220646f6573206e6f742065786973742e2052656769737465722066695f8201527f7273742e00000000000000000000000000000000000000000000000000000000602082015250565b5f6146e3602483614465565b91506146ee82614689565b604082019050919050565b5f6020820190508181035f830152614710816146d7565b9050919050565b7f496e76616c6964206d61747269780000000000000000000000000000000000005f82015250565b5f61474b600e83614465565b915061475682614717565b602082019050919050565b5f6020820190508181035f8301526147788161473f565b9050919050565b7f496e76616c6964207072696365000000000000000000000000000000000000005f82015250565b5f6147b3600d83614465565b91506147be8261477f565b602082019050919050565b5f6020820190508181035f8301526147e0816147a7565b9050919050565b7f496e76616c6964206c6576656c000000000000000000000000000000000000005f82015250565b5f61481b600d83614465565b9150614826826147e7565b602082019050919050565b5f6020820190508181035f8301526148488161480f565b9050919050565b7f4c6576656c20616c7265616479206163746976617465640000000000000000005f82015250565b5f614883601783614465565b915061488e8261484f565b602082019050919050565b5f6020820190508181035f8301526148b081614877565b9050919050565b5f6148c1826140b1565b91506148cc836140b1565b9250828203905060ff8111156148e5576148e4614615565b5b92915050565b5f819050919050565b5f819050919050565b5f61491761491261490d846148eb565b6148f4565b6140b1565b9050919050565b614927816148fd565b82525050565b5f6040820190506149405f83018561491e565b61494d60208301846141b4565b9392505050565b5f819050919050565b5f61497761497261496d84614954565b6148f4565b6140b1565b9050919050565b6149878161495d565b82525050565b5f6040820190506149a05f83018561497e565b6149ad60208301846141b4565b9392505050565b5f6060820190506149c75f83018661491e565b6149d460208301856141b4565b6149e160408301846141b4565b949350505050565b5f819050919050565b5f614a0c614a07614a02846149e9565b6148f4565b6140b1565b9050919050565b614a1c816149f2565b82525050565b5f606082019050614a355f83018661491e565b614a4260208301856141b4565b614a4f6040830184614a13565b949350505050565b7f4e487b71000000000000000000000000000000000000000000000000000000005f52604160045260245ffd5b5f614a8e826140b1565b9150614a99836140b1565b9250828201905060ff811115614ab257614ab1614615565b5b92915050565b7f5265666572726572206c6576656c20697320696e6163746976650000000000005f82015250565b5f614aec601a83614465565b9150614af782614ab8565b602082019050919050565b5f6020820190508181035f830152614b1981614ae0565b9050919050565b5f606082019050614b335f83018661497e565b614b4060208301856141b4565b614b4d60408301846141b4565b949350505050565b7f4e487b71000000000000000000000000000000000000000000000000000000005f52603260045260245ffd5b5f614b8c82614183565b9150614b9783614183565b9250828201905080821115614baf57614bae614615565b5b92915050565b5f81905092915050565b50565b5f614bcd5f83614bb5565b9150614bd882614bbf565b5f82019050919050565b5f614bec82614bc2565b9150819050919050565b5f604082019050614c095f8301856141b4565b614c1660208301846141b4565b9392505050565b5f819050919050565b5f614c40614c3b614c3684614c1d565b6148f4565b6140b1565b9050919050565b614c5081614c26565b82525050565b5f606082019050614c695f83018661497e565b614c7660208301856141b4565b614c836040830184614c47565b94935050505056fea264697066735822122015456407efad9e9dc2799729ab2acdcdcc2cb0280fcd580b7f19b4f00b94bc6364736f6c634300081a0033",
					"opcodes": "PUSH1 0x80 PUSH1 0x40 MSTORE PUSH1 0x2 PUSH1 0x4 SSTORE CALLVALUE DUP1 ISZERO PUSH2 0x14 JUMPI PUSH0 DUP1 REVERT JUMPDEST POP PUSH1 0x40 MLOAD PUSH2 0x5104 CODESIZE SUB DUP1 PUSH2 0x5104 DUP4 CODECOPY DUP2 DUP2 ADD PUSH1 0x40 MSTORE DUP2 ADD SWAP1 PUSH2 0x36 SWAP2 SWAP1 PUSH2 0x32C JUMP JUMPDEST PUSH7 0x58D15E17628000 PUSH1 0x6 PUSH0 PUSH1 0x1 PUSH1 0xFF AND DUP2 MSTORE PUSH1 0x20 ADD SWAP1 DUP2 MSTORE PUSH1 0x20 ADD PUSH0 KECCAK256 DUP2 SWAP1 SSTORE POP PUSH0 PUSH1 0x2 SWAP1 POP JUMPDEST PUSH1 0xC PUSH1 0xFF AND DUP2 PUSH1 0xFF AND GT PUSH2 0xC9 JUMPI PUSH1 0x2 PUSH1 0x6 PUSH0 PUSH1 0x1 DUP5 PUSH2 0x7D SWAP2 SWAP1 PUSH2 0x390 JUMP JUMPDEST PUSH1 0xFF AND PUSH1 0xFF AND DUP2 MSTORE PUSH1 0x20 ADD SWAP1 DUP2 MSTORE PUSH1 0x20 ADD PUSH0 KECCAK256 SLOAD PUSH2 0x9B SWAP2 SWAP1 PUSH2 0x3CD JUMP JUMPDEST PUSH1 0x6 PUSH0 DUP4 PUSH1 0xFF AND PUSH1 0xFF AND DUP2 MSTORE PUSH1 0x20 ADD SWAP1 DUP2 MSTORE PUSH1 0x20 ADD PUSH0 KECCAK256 DUP2 SWAP1 SSTORE POP DUP1 DUP1 PUSH2 0xC1 SWAP1 PUSH2 0x40E JUMP JUMPDEST SWAP2 POP POP PUSH2 0x5D JUMP JUMPDEST POP DUP1 PUSH1 0x5 PUSH0 PUSH2 0x100 EXP DUP2 SLOAD DUP2 PUSH20 0xFFFFFFFFFFFFFFFFFFFFFFFFFFFFFFFFFFFFFFFF MUL NOT AND SWAP1 DUP4 PUSH20 0xFFFFFFFFFFFFFFFFFFFFFFFFFFFFFFFFFFFFFFFF AND MUL OR SWAP1 SSTORE POP PUSH0 DUP1 PUSH0 DUP4 PUSH20 0xFFFFFFFFFFFFFFFFFFFFFFFFFFFFFFFFFFFFFFFF AND PUSH20 0xFFFFFFFFFFFFFFFFFFFFFFFFFFFFFFFFFFFFFFFF AND DUP2 MSTORE PUSH1 0x20 ADD SWAP1 DUP2 MSTORE PUSH1 0x20 ADD PUSH0 KECCAK256 SWAP1 POP PUSH1 0x1 DUP2 PUSH0 ADD DUP2 SWAP1 SSTORE POP PUSH0 DUP2 PUSH1 0x1 ADD PUSH0 PUSH2 0x100 EXP DUP2 SLOAD DUP2 PUSH20 0xFFFFFFFFFFFFFFFFFFFFFFFFFFFFFFFFFFFFFFFF MUL NOT AND SWAP1 DUP4 PUSH20 0xFFFFFFFFFFFFFFFFFFFFFFFFFFFFFFFFFFFFFFFF AND MUL OR SWAP1 SSTORE POP PUSH0 DUP2 PUSH1 0x2 ADD DUP2 SWAP1 SSTORE POP PUSH0 PUSH1 0x1 SWAP1 POP JUMPDEST PUSH1 0xC PUSH1 0xFF AND DUP2 PUSH1 0xFF AND GT PUSH2 0x226 JUMPI PUSH1 0x1 DUP3 PUSH1 0x3 ADD PUSH0 DUP4 PUSH1 0xFF AND PUSH1 0xFF AND DUP2 MSTORE PUSH1 0x20 ADD SWAP1 DUP2 MSTORE PUSH1 0x20 ADD PUSH0 KECCAK256 PUSH0 PUSH2 0x100 EXP DUP2 SLOAD DUP2 PUSH1 0xFF MUL NOT AND SWAP1 DUP4 ISZERO ISZERO MUL OR SWAP1 SSTORE POP PUSH1 0x1 DUP3 PUSH1 0x4 ADD PUSH0 DUP4 PUSH1 0xFF AND PUSH1 0xFF AND DUP2 MSTORE PUSH1 0x20 ADD SWAP1 DUP2 MSTORE PUSH1 0x20 ADD PUSH0 KECCAK256 PUSH0 PUSH2 0x100 EXP DUP2 SLOAD DUP2 PUSH1 0xFF MUL NOT AND SWAP1 DUP4 ISZERO ISZERO MUL OR SWAP1 SSTORE POP DUP1 DUP1 PUSH2 0x21E SWAP1 PUSH2 0x40E JUMP JUMPDEST SWAP2 POP POP PUSH2 0x1A3 JUMP JUMPDEST POP DUP2 PUSH1 0x1 PUSH0 PUSH1 0x1 DUP2 MSTORE PUSH1 0x20 ADD SWAP1 DUP2 MSTORE PUSH1 0x20 ADD PUSH0 KECCAK256 PUSH0 PUSH2 0x100 EXP DUP2 SLOAD DUP2 PUSH20 0xFFFFFFFFFFFFFFFFFFFFFFFFFFFFFFFFFFFFFFFF MUL NOT AND SWAP1 DUP4 PUSH20 0xFFFFFFFFFFFFFFFFFFFFFFFFFFFFFFFFFFFFFFFF AND MUL OR SWAP1 SSTORE POP DUP2 PUSH1 0x2 PUSH0 PUSH1 0x1 DUP2 MSTORE PUSH1 0x20 ADD SWAP1 DUP2 MSTORE PUSH1 0x20 ADD PUSH0 KECCAK256 PUSH0 PUSH2 0x100 EXP DUP2 SLOAD DUP2 PUSH20 0xFFFFFFFFFFFFFFFFFFFFFFFFFFFFFFFFFFFFFFFF MUL NOT AND SWAP1 DUP4 PUSH20 0xFFFFFFFFFFFFFFFFFFFFFFFFFFFFFFFFFFFFFFFF AND MUL OR SWAP1 SSTORE POP POP POP PUSH2 0x436 JUMP JUMPDEST PUSH0 DUP1 REVERT JUMPDEST PUSH0 PUSH20 0xFFFFFFFFFFFFFFFFFFFFFFFFFFFFFFFFFFFFFFFF DUP3 AND SWAP1 POP SWAP2 SWAP1 POP JUMP JUMPDEST PUSH0 PUSH2 0x2FB DUP3 PUSH2 0x2D2 JUMP JUMPDEST SWAP1 POP SWAP2 SWAP1 POP JUMP JUMPDEST PUSH2 0x30B DUP2 PUSH2 0x2F1 JUMP JUMPDEST DUP2 EQ PUSH2 0x315 JUMPI PUSH0 DUP1 REVERT JUMPDEST POP JUMP JUMPDEST PUSH0 DUP2 MLOAD SWAP1 POP PUSH2 0x326 DUP2 PUSH2 0x302 JUMP JUMPDEST SWAP3 SWAP2 POP POP JUMP JUMPDEST PUSH0 PUSH1 0x20 DUP3 DUP5 SUB SLT ISZERO PUSH2 0x341 JUMPI PUSH2 0x340 PUSH2 0x2CE JUMP JUMPDEST JUMPDEST PUSH0 PUSH2 0x34E DUP5 DUP3 DUP6 ADD PUSH2 0x318 JUMP JUMPDEST SWAP2 POP POP SWAP3 SWAP2 POP POP JUMP JUMPDEST PUSH0 PUSH1 0xFF DUP3 AND SWAP1 POP SWAP2 SWAP1 POP JUMP JUMPDEST PUSH32 0x4E487B7100000000000000000000000000000000000000000000000000000000 PUSH0 MSTORE PUSH1 0x11 PUSH1 0x4 MSTORE PUSH1 0x24 PUSH0 REVERT JUMPDEST PUSH0 PUSH2 0x39A DUP3 PUSH2 0x357 JUMP JUMPDEST SWAP2 POP PUSH2 0x3A5 DUP4 PUSH2 0x357 JUMP JUMPDEST SWAP3 POP DUP3 DUP3 SUB SWAP1 POP PUSH1 0xFF DUP2 GT ISZERO PUSH2 0x3BE JUMPI PUSH2 0x3BD PUSH2 0x363 JUMP JUMPDEST JUMPDEST SWAP3 SWAP2 POP POP JUMP JUMPDEST PUSH0 DUP2 SWAP1 POP SWAP2 SWAP1 POP JUMP JUMPDEST PUSH0 PUSH2 0x3D7 DUP3 PUSH2 0x3C4 JUMP JUMPDEST SWAP2 POP PUSH2 0x3E2 DUP4 PUSH2 0x3C4 JUMP JUMPDEST SWAP3 POP DUP3 DUP3 MUL PUSH2 0x3F0 DUP2 PUSH2 0x3C4 JUMP JUMPDEST SWAP2 POP DUP3 DUP3 DIV DUP5 EQ DUP4 ISZERO OR PUSH2 0x407 JUMPI PUSH2 0x406 PUSH2 0x363 JUMP JUMPDEST JUMPDEST POP SWAP3 SWAP2 POP POP JUMP JUMPDEST PUSH0 PUSH2 0x418 DUP3 PUSH2 0x357 JUMP JUMPDEST SWAP2 POP PUSH1 0xFF DUP3 SUB PUSH2 0x42B JUMPI PUSH2 0x42A PUSH2 0x363 JUMP JUMPDEST JUMPDEST PUSH1 0x1 DUP3 ADD SWAP1 POP SWAP2 SWAP1 POP JUMP JUMPDEST PUSH2 0x4CC1 DUP1 PUSH2 0x443 PUSH0 CODECOPY PUSH0 RETURN INVALID PUSH1 0x80 PUSH1 0x40 MSTORE PUSH1 0x4 CALLDATASIZE LT PUSH2 0x101 JUMPI PUSH0 CALLDATALOAD PUSH1 0xE0 SHR DUP1 PUSH4 0x83BA31B2 GT PUSH2 0x94 JUMPI DUP1 PUSH4 0xB2F7543A GT PUSH2 0x63 JUMPI DUP1 PUSH4 0xB2F7543A EQ PUSH2 0x449 JUMPI DUP1 PUSH4 0xBE389D57 EQ PUSH2 0x485 JUMPI DUP1 PUSH4 0xE06E8DBD EQ PUSH2 0x4A1 JUMPI DUP1 PUSH4 0xECABDF79 EQ PUSH2 0x4DD JUMPI DUP1 PUSH4 0xFA45323D EQ PUSH2 0x519 JUMPI PUSH2 0x133 JUMP JUMPDEST DUP1 PUSH4 0x83BA31B2 EQ PUSH2 0x361 JUMPI DUP1 PUSH4 0x8DA5CB5B EQ PUSH2 0x3A0 JUMPI DUP1 PUSH4 0x9CC102FC EQ PUSH2 0x3CA JUMPI DUP1 PUSH4 0xA87430BA EQ PUSH2 0x40B JUMPI PUSH2 0x133 JUMP JUMPDEST DUP1 PUSH4 0x348D4487 GT PUSH2 0xD0 JUMPI DUP1 PUSH4 0x348D4487 EQ PUSH2 0x2A3 JUMPI DUP1 PUSH4 0x4635FD68 EQ PUSH2 0x2CD JUMPI DUP1 PUSH4 0x509222CD EQ PUSH2 0x309 JUMPI DUP1 PUSH4 0x797EEE24 EQ PUSH2 0x345 JUMPI PUSH2 0x133 JUMP JUMPDEST DUP1 PUSH4 0x7279E2A EQ PUSH2 0x1C5 JUMPI DUP1 PUSH4 0x27E235E3 EQ PUSH2 0x201 JUMPI DUP1 PUSH4 0x29C70400 EQ PUSH2 0x23D JUMPI DUP1 PUSH4 0x2A2D0C47 EQ PUSH2 0x267 JUMPI PUSH2 0x133 JUMP JUMPDEST CALLDATASIZE PUSH2 0x133 JUMPI PUSH2 0x131 CALLER PUSH1 0x5 PUSH0 SWAP1 SLOAD SWAP1 PUSH2 0x100 EXP SWAP1 DIV PUSH20 0xFFFFFFFFFFFFFFFFFFFFFFFFFFFFFFFFFFFFFFFF AND PUSH2 0x555 JUMP JUMPDEST STOP JUMPDEST PUSH0 DUP1 CALLDATASIZE SWAP1 POP SUB PUSH2 0x16D JUMPI PUSH2 0x168 CALLER PUSH1 0x5 PUSH0 SWAP1 SLOAD SWAP1 PUSH2 0x100 EXP SWAP1 DIV PUSH20 0xFFFFFFFFFFFFFFFFFFFFFFFFFFFFFFFFFFFFFFFF AND PUSH2 0x555 JUMP JUMPDEST PUSH2 0x1C3 JUMP JUMPDEST PUSH2 0x1C2 CALLER PUSH2 0x1BD PUSH0 CALLDATASIZE DUP1 DUP1 PUSH1 0x1F ADD PUSH1 0x20 DUP1 SWAP2 DIV MUL PUSH1 0x20 ADD PUSH1 0x40 MLOAD SWAP1 DUP2 ADD PUSH1 0x40 MSTORE DUP1 SWAP4 SWAP3 SWAP2 SWAP1 DUP2 DUP2 MSTORE PUSH1 0x20 ADD DUP4 DUP4 DUP1 DUP3 DUP5 CALLDATACOPY PUSH0 DUP2 DUP5 ADD MSTORE PUSH1 0x1F NOT PUSH1 0x1F DUP3 ADD AND SWAP1 POP DUP1 DUP4 ADD SWAP3 POP POP POP POP POP POP POP PUSH2 0x9B0 JUMP JUMPDEST PUSH2 0x555 JUMP JUMPDEST JUMPDEST STOP JUMPDEST CALLVALUE DUP1 ISZERO PUSH2 0x1D0 JUMPI PUSH0 DUP1 REVERT JUMPDEST POP PUSH2 0x1EB PUSH1 0x4 DUP1 CALLDATASIZE SUB DUP2 ADD SWAP1 PUSH2 0x1E6 SWAP2 SWAP1 PUSH2 0x40E7 JUMP JUMPDEST PUSH2 0x9BD JUMP JUMPDEST PUSH1 0x40 MLOAD PUSH2 0x1F8 SWAP2 SWAP1 PUSH2 0x413F JUMP JUMPDEST PUSH1 0x40 MLOAD DUP1 SWAP2 SUB SWAP1 RETURN JUMPDEST CALLVALUE DUP1 ISZERO PUSH2 0x20C JUMPI PUSH0 DUP1 REVERT JUMPDEST POP PUSH2 0x227 PUSH1 0x4 DUP1 CALLDATASIZE SUB DUP2 ADD SWAP1 PUSH2 0x222 SWAP2 SWAP1 PUSH2 0x4158 JUMP JUMPDEST PUSH2 0xA27 JUMP JUMPDEST PUSH1 0x40 MLOAD PUSH2 0x234 SWAP2 SWAP1 PUSH2 0x419B JUMP JUMPDEST PUSH1 0x40 MLOAD DUP1 SWAP2 SUB SWAP1 RETURN JUMPDEST CALLVALUE DUP1 ISZERO PUSH2 0x248 JUMPI PUSH0 DUP1 REVERT JUMPDEST POP PUSH2 0x251 PUSH2 0xA3C JUMP JUMPDEST PUSH1 0x40 MLOAD PUSH2 0x25E SWAP2 SWAP1 PUSH2 0x41C3 JUMP JUMPDEST PUSH1 0x40 MLOAD DUP1 SWAP2 SUB SWAP1 RETURN JUMPDEST CALLVALUE DUP1 ISZERO PUSH2 0x272 JUMPI PUSH0 DUP1 REVERT JUMPDEST POP PUSH2 0x28D PUSH1 0x4 DUP1 CALLDATASIZE SUB DUP2 ADD SWAP1 PUSH2 0x288 SWAP2 SWAP1 PUSH2 0x4206 JUMP JUMPDEST PUSH2 0xA41 JUMP JUMPDEST PUSH1 0x40 MLOAD PUSH2 0x29A SWAP2 SWAP1 PUSH2 0x4240 JUMP JUMPDEST PUSH1 0x40 MLOAD DUP1 SWAP2 SUB SWAP1 RETURN JUMPDEST CALLVALUE DUP1 ISZERO PUSH2 0x2AE JUMPI PUSH0 DUP1 REVERT JUMPDEST POP PUSH2 0x2B7 PUSH2 0xA71 JUMP JUMPDEST PUSH1 0x40 MLOAD PUSH2 0x2C4 SWAP2 SWAP1 PUSH2 0x419B JUMP JUMPDEST PUSH1 0x40 MLOAD DUP1 SWAP2 SUB SWAP1 RETURN JUMPDEST CALLVALUE DUP1 ISZERO PUSH2 0x2D8 JUMPI PUSH0 DUP1 REVERT JUMPDEST POP PUSH2 0x2F3 PUSH1 0x4 DUP1 CALLDATASIZE SUB DUP2 ADD SWAP1 PUSH2 0x2EE SWAP2 SWAP1 PUSH2 0x4206 JUMP JUMPDEST PUSH2 0xA77 JUMP JUMPDEST PUSH1 0x40 MLOAD PUSH2 0x300 SWAP2 SWAP1 PUSH2 0x4240 JUMP JUMPDEST PUSH1 0x40 MLOAD DUP1 SWAP2 SUB SWAP1 RETURN JUMPDEST CALLVALUE DUP1 ISZERO PUSH2 0x314 JUMPI PUSH0 DUP1 REVERT JUMPDEST POP PUSH2 0x32F PUSH1 0x4 DUP1 CALLDATASIZE SUB DUP2 ADD SWAP1 PUSH2 0x32A SWAP2 SWAP1 PUSH2 0x4158 JUMP JUMPDEST PUSH2 0xAA7 JUMP JUMPDEST PUSH1 0x40 MLOAD PUSH2 0x33C SWAP2 SWAP1 PUSH2 0x413F JUMP JUMPDEST PUSH1 0x40 MLOAD DUP1 SWAP2 SUB SWAP1 RETURN JUMPDEST PUSH2 0x35F PUSH1 0x4 DUP1 CALLDATASIZE SUB DUP2 ADD SWAP1 PUSH2 0x35A SWAP2 SWAP1 PUSH2 0x4158 JUMP JUMPDEST PUSH2 0xAF1 JUMP JUMPDEST STOP JUMPDEST CALLVALUE DUP1 ISZERO PUSH2 0x36C JUMPI PUSH0 DUP1 REVERT JUMPDEST POP PUSH2 0x387 PUSH1 0x4 DUP1 CALLDATASIZE SUB DUP2 ADD SWAP1 PUSH2 0x382 SWAP2 SWAP1 PUSH2 0x40E7 JUMP JUMPDEST PUSH2 0xAFE JUMP JUMPDEST PUSH1 0x40 MLOAD PUSH2 0x397 SWAP5 SWAP4 SWAP3 SWAP2 SWAP1 PUSH2 0x4310 JUMP JUMPDEST PUSH1 0x40 MLOAD DUP1 SWAP2 SUB SWAP1 RETURN JUMPDEST CALLVALUE DUP1 ISZERO PUSH2 0x3AB JUMPI PUSH0 DUP1 REVERT JUMPDEST POP PUSH2 0x3B4 PUSH2 0xD22 JUMP JUMPDEST PUSH1 0x40 MLOAD PUSH2 0x3C1 SWAP2 SWAP1 PUSH2 0x4240 JUMP JUMPDEST PUSH1 0x40 MLOAD DUP1 SWAP2 SUB SWAP1 RETURN JUMPDEST CALLVALUE DUP1 ISZERO PUSH2 0x3D5 JUMPI PUSH0 DUP1 REVERT JUMPDEST POP PUSH2 0x3F0 PUSH1 0x4 DUP1 CALLDATASIZE SUB DUP2 ADD SWAP1 PUSH2 0x3EB SWAP2 SWAP1 PUSH2 0x40E7 JUMP JUMPDEST PUSH2 0xD47 JUMP JUMPDEST PUSH1 0x40 MLOAD PUSH2 0x402 SWAP7 SWAP6 SWAP5 SWAP4 SWAP3 SWAP2 SWAP1 PUSH2 0x435A JUMP JUMPDEST PUSH1 0x40 MLOAD DUP1 SWAP2 SUB SWAP1 RETURN JUMPDEST CALLVALUE DUP1 ISZERO PUSH2 0x416 JUMPI PUSH0 DUP1 REVERT JUMPDEST POP PUSH2 0x431 PUSH1 0x4 DUP1 CALLDATASIZE SUB DUP2 ADD SWAP1 PUSH2 0x42C SWAP2 SWAP1 PUSH2 0x4158 JUMP JUMPDEST PUSH2 0x10C5 JUMP JUMPDEST PUSH1 0x40 MLOAD PUSH2 0x440 SWAP4 SWAP3 SWAP2 SWAP1 PUSH2 0x43C7 JUMP JUMPDEST PUSH1 0x40 MLOAD DUP1 SWAP2 SUB SWAP1 RETURN JUMPDEST CALLVALUE DUP1 ISZERO PUSH2 0x454 JUMPI PUSH0 DUP1 REVERT JUMPDEST POP PUSH2 0x46F PUSH1 0x4 DUP1 CALLDATASIZE SUB DUP2 ADD SWAP1 PUSH2 0x46A SWAP2 SWAP1 PUSH2 0x40E7 JUMP JUMPDEST PUSH2 0x1109 JUMP JUMPDEST PUSH1 0x40 MLOAD PUSH2 0x47C SWAP2 SWAP1 PUSH2 0x413F JUMP JUMPDEST PUSH1 0x40 MLOAD DUP1 SWAP2 SUB SWAP1 RETURN JUMPDEST PUSH2 0x49F PUSH1 0x4 DUP1 CALLDATASIZE SUB DUP2 ADD SWAP1 PUSH2 0x49A SWAP2 SWAP1 PUSH2 0x43FC JUMP JUMPDEST PUSH2 0x1173 JUMP JUMPDEST STOP JUMPDEST CALLVALUE DUP1 ISZERO PUSH2 0x4AC JUMPI PUSH0 DUP1 REVERT JUMPDEST POP PUSH2 0x4C7 PUSH1 0x4 DUP1 CALLDATASIZE SUB DUP2 ADD SWAP1 PUSH2 0x4C2 SWAP2 SWAP1 PUSH2 0x40E7 JUMP JUMPDEST PUSH2 0x1866 JUMP JUMPDEST PUSH1 0x40 MLOAD PUSH2 0x4D4 SWAP2 SWAP1 PUSH2 0x4240 JUMP JUMPDEST PUSH1 0x40 MLOAD DUP1 SWAP2 SUB SWAP1 RETURN JUMPDEST CALLVALUE DUP1 ISZERO PUSH2 0x4E8 JUMPI PUSH0 DUP1 REVERT JUMPDEST POP PUSH2 0x503 PUSH1 0x4 DUP1 CALLDATASIZE SUB DUP2 ADD SWAP1 PUSH2 0x4FE SWAP2 SWAP1 PUSH2 0x443A JUMP JUMPDEST PUSH2 0x1A06 JUMP JUMPDEST PUSH1 0x40 MLOAD PUSH2 0x510 SWAP2 SWAP1 PUSH2 0x419B JUMP JUMPDEST PUSH1 0x40 MLOAD DUP1 SWAP2 SUB SWAP1 RETURN JUMPDEST CALLVALUE DUP1 ISZERO PUSH2 0x524 JUMPI PUSH0 DUP1 REVERT JUMPDEST POP PUSH2 0x53F PUSH1 0x4 DUP1 CALLDATASIZE SUB DUP2 ADD SWAP1 PUSH2 0x53A SWAP2 SWAP1 PUSH2 0x40E7 JUMP JUMPDEST PUSH2 0x1A1B JUMP JUMPDEST PUSH1 0x40 MLOAD PUSH2 0x54C SWAP2 SWAP1 PUSH2 0x4240 JUMP JUMPDEST PUSH1 0x40 MLOAD DUP1 SWAP2 SUB SWAP1 RETURN JUMPDEST PUSH7 0xB1A2BC2EC50000 CALLVALUE EQ PUSH2 0x59E JUMPI PUSH1 0x40 MLOAD PUSH32 0x8C379A000000000000000000000000000000000000000000000000000000000 DUP2 MSTORE PUSH1 0x4 ADD PUSH2 0x595 SWAP1 PUSH2 0x44BF JUMP JUMPDEST PUSH1 0x40 MLOAD DUP1 SWAP2 SUB SWAP1 REVERT JUMPDEST PUSH2 0x5A7 DUP3 PUSH2 0xAA7 JUMP JUMPDEST ISZERO PUSH2 0x5E7 JUMPI PUSH1 0x40 MLOAD PUSH32 0x8C379A000000000000000000000000000000000000000000000000000000000 DUP2 MSTORE PUSH1 0x4 ADD PUSH2 0x5DE SWAP1 PUSH2 0x4527 JUMP JUMPDEST PUSH1 0x40 MLOAD DUP1 SWAP2 SUB SWAP1 REVERT JUMPDEST PUSH2 0x5F0 DUP2 PUSH2 0xAA7 JUMP JUMPDEST PUSH2 0x62F JUMPI PUSH1 0x40 MLOAD PUSH32 0x8C379A000000000000000000000000000000000000000000000000000000000 DUP2 MSTORE PUSH1 0x4 ADD PUSH2 0x626 SWAP1 PUSH2 0x458F JUMP JUMPDEST PUSH1 0x40 MLOAD DUP1 SWAP2 SUB SWAP1 REVERT JUMPDEST PUSH0 DUP3 EXTCODESIZE SWAP1 POP PUSH0 DUP2 PUSH4 0xFFFFFFFF AND EQ PUSH2 0x67C JUMPI PUSH1 0x40 MLOAD PUSH32 0x8C379A000000000000000000000000000000000000000000000000000000000 DUP2 MSTORE PUSH1 0x4 ADD PUSH2 0x673 SWAP1 PUSH2 0x45F7 JUMP JUMPDEST PUSH1 0x40 MLOAD DUP1 SWAP2 SUB SWAP1 REVERT JUMPDEST PUSH0 DUP1 PUSH0 DUP6 PUSH20 0xFFFFFFFFFFFFFFFFFFFFFFFFFFFFFFFFFFFFFFFF AND PUSH20 0xFFFFFFFFFFFFFFFFFFFFFFFFFFFFFFFFFFFFFFFF AND DUP2 MSTORE PUSH1 0x20 ADD SWAP1 DUP2 MSTORE PUSH1 0x20 ADD PUSH0 KECCAK256 SWAP1 POP PUSH1 0x4 SLOAD DUP2 PUSH0 ADD DUP2 SWAP1 SSTORE POP DUP3 DUP2 PUSH1 0x1 ADD PUSH0 PUSH2 0x100 EXP DUP2 SLOAD DUP2 PUSH20 0xFFFFFFFFFFFFFFFFFFFFFFFFFFFFFFFFFFFFFFFF MUL NOT AND SWAP1 DUP4 PUSH20 0xFFFFFFFFFFFFFFFFFFFFFFFFFFFFFFFFFFFFFFFF AND MUL OR SWAP1 SSTORE POP PUSH0 DUP2 PUSH1 0x2 ADD DUP2 SWAP1 SSTORE POP PUSH0 DUP1 DUP5 PUSH20 0xFFFFFFFFFFFFFFFFFFFFFFFFFFFFFFFFFFFFFFFF AND PUSH20 0xFFFFFFFFFFFFFFFFFFFFFFFFFFFFFFFFFFFFFFFF AND DUP2 MSTORE PUSH1 0x20 ADD SWAP1 DUP2 MSTORE PUSH1 0x20 ADD PUSH0 KECCAK256 PUSH1 0x2 ADD PUSH0 DUP2 SLOAD DUP1 SWAP3 SWAP2 SWAP1 PUSH2 0x75F SWAP1 PUSH2 0x4642 JUMP JUMPDEST SWAP2 SWAP1 POP SSTORE POP DUP4 PUSH1 0x1 PUSH0 PUSH1 0x4 SLOAD DUP2 MSTORE PUSH1 0x20 ADD SWAP1 DUP2 MSTORE PUSH1 0x20 ADD PUSH0 KECCAK256 PUSH0 PUSH2 0x100 EXP DUP2 SLOAD DUP2 PUSH20 0xFFFFFFFFFFFFFFFFFFFFFFFFFFFFFFFFFFFFFFFF MUL NOT AND SWAP1 DUP4 PUSH20 0xFFFFFFFFFFFFFFFFFFFFFFFFFFFFFFFFFFFFFFFF AND MUL OR SWAP1 SSTORE POP DUP4 PUSH1 0x2 PUSH0 PUSH1 0x4 SLOAD DUP2 MSTORE PUSH1 0x20 ADD SWAP1 DUP2 MSTORE PUSH1 0x20 ADD PUSH0 KECCAK256 PUSH0 PUSH2 0x100 EXP DUP2 SLOAD DUP2 PUSH20 0xFFFFFFFFFFFFFFFFFFFFFFFFFFFFFFFFFFFFFFFF MUL NOT AND SWAP1 DUP4 PUSH20 0xFFFFFFFFFFFFFFFFFFFFFFFFFFFFFFFFFFFFFFFF AND MUL OR SWAP1 SSTORE POP PUSH1 0x4 PUSH0 DUP2 SLOAD DUP1 SWAP3 SWAP2 SWAP1 PUSH2 0x818 SWAP1 PUSH2 0x4642 JUMP JUMPDEST SWAP2 SWAP1 POP SSTORE POP PUSH1 0x1 DUP2 PUSH1 0x3 ADD PUSH0 PUSH1 0x1 PUSH1 0xFF AND DUP2 MSTORE PUSH1 0x20 ADD SWAP1 DUP2 MSTORE PUSH1 0x20 ADD PUSH0 KECCAK256 PUSH0 PUSH2 0x100 EXP DUP2 SLOAD DUP2 PUSH1 0xFF MUL NOT AND SWAP1 DUP4 ISZERO ISZERO MUL OR SWAP1 SSTORE POP PUSH1 0x1 DUP2 PUSH1 0x4 ADD PUSH0 PUSH1 0x1 PUSH1 0xFF AND DUP2 MSTORE PUSH1 0x20 ADD SWAP1 DUP2 MSTORE PUSH1 0x20 ADD PUSH0 KECCAK256 PUSH0 PUSH2 0x100 EXP DUP2 SLOAD DUP2 PUSH1 0xFF MUL NOT AND SWAP1 DUP4 ISZERO ISZERO MUL OR SWAP1 SSTORE POP PUSH0 PUSH2 0x887 DUP6 PUSH1 0x1 PUSH2 0x1A1B JUMP JUMPDEST SWAP1 POP DUP1 DUP3 PUSH1 0x5 ADD PUSH0 PUSH1 0x1 PUSH1 0xFF AND DUP2 MSTORE PUSH1 0x20 ADD SWAP1 DUP2 MSTORE PUSH1 0x20 ADD PUSH0 KECCAK256 PUSH0 ADD PUSH0 PUSH2 0x100 EXP DUP2 SLOAD DUP2 PUSH20 0xFFFFFFFFFFFFFFFFFFFFFFFFFFFFFFFFFFFFFFFF MUL NOT AND SWAP1 DUP4 PUSH20 0xFFFFFFFFFFFFFFFFFFFFFFFFFFFFFFFFFFFFFFFF AND MUL OR SWAP1 SSTORE POP PUSH2 0x8EC DUP6 DUP3 PUSH1 0x1 PUSH2 0x1BBB JUMP JUMPDEST PUSH2 0x902 DUP6 PUSH2 0x8FB DUP8 PUSH1 0x1 PUSH2 0x1866 JUMP JUMPDEST PUSH1 0x1 PUSH2 0x23BA JUMP JUMPDEST DUP2 PUSH0 ADD SLOAD DUP5 PUSH20 0xFFFFFFFFFFFFFFFFFFFFFFFFFFFFFFFFFFFFFFFF AND DUP7 PUSH20 0xFFFFFFFFFFFFFFFFFFFFFFFFFFFFFFFFFFFFFFFF AND PUSH32 0x309BB360E8B69C23937CCC5FB01F9AEEEAD1C95A99604E175113FF82F2B1723A PUSH0 DUP1 DUP10 PUSH20 0xFFFFFFFFFFFFFFFFFFFFFFFFFFFFFFFFFFFFFFFF AND PUSH20 0xFFFFFFFFFFFFFFFFFFFFFFFFFFFFFFFFFFFFFFFF AND DUP2 MSTORE PUSH1 0x20 ADD SWAP1 DUP2 MSTORE PUSH1 0x20 ADD PUSH0 KECCAK256 PUSH0 ADD SLOAD PUSH1 0x40 MLOAD PUSH2 0x9A1 SWAP2 SWAP1 PUSH2 0x419B JUMP JUMPDEST PUSH1 0x40 MLOAD DUP1 SWAP2 SUB SWAP1 LOG4 POP POP POP POP POP JUMP JUMPDEST PUSH0 PUSH1 0x14 DUP3 ADD MLOAD SWAP1 POP SWAP2 SWAP1 POP JUMP JUMPDEST PUSH0 DUP1 PUSH0 DUP5 PUSH20 0xFFFFFFFFFFFFFFFFFFFFFFFFFFFFFFFFFFFFFFFF AND PUSH20 0xFFFFFFFFFFFFFFFFFFFFFFFFFFFFFFFFFFFFFFFF AND DUP2 MSTORE PUSH1 0x20 ADD SWAP1 DUP2 MSTORE PUSH1 0x20 ADD PUSH0 KECCAK256 PUSH1 0x3 ADD PUSH0 DUP4 PUSH1 0xFF AND PUSH1 0xFF AND DUP2 MSTORE PUSH1 0x20 ADD SWAP1 DUP2 MSTORE PUSH1 0x20 ADD PUSH0 KECCAK256 PUSH0 SWAP1 SLOAD SWAP1 PUSH2 0x100 EXP SWAP1 DIV PUSH1 0xFF AND SWAP1 POP SWAP3 SWAP2 POP POP JUMP JUMPDEST PUSH1 0x3 PUSH1 0x20 MSTORE DUP1 PUSH0 MSTORE PUSH1 0x40 PUSH0 KECCAK256 PUSH0 SWAP2 POP SWAP1 POP SLOAD DUP2 JUMP JUMPDEST PUSH1 0xC DUP2 JUMP JUMPDEST PUSH1 0x1 PUSH1 0x20 MSTORE DUP1 PUSH0 MSTORE PUSH1 0x40 PUSH0 KECCAK256 PUSH0 SWAP2 POP SLOAD SWAP1 PUSH2 0x100 EXP SWAP1 DIV PUSH20 0xFFFFFFFFFFFFFFFFFFFFFFFFFFFFFFFFFFFFFFFF AND DUP2 JUMP JUMPDEST PUSH1 0x4 SLOAD DUP2 JUMP JUMPDEST PUSH1 0x2 PUSH1 0x20 MSTORE DUP1 PUSH0 MSTORE PUSH1 0x40 PUSH0 KECCAK256 PUSH0 SWAP2 POP SLOAD SWAP1 PUSH2 0x100 EXP SWAP1 DIV PUSH20 0xFFFFFFFFFFFFFFFFFFFFFFFFFFFFFFFFFFFFFFFF AND DUP2 JUMP JUMPDEST PUSH0 DUP1 PUSH0 DUP1 DUP5 PUSH20 0xFFFFFFFFFFFFFFFFFFFFFFFFFFFFFFFFFFFFFFFF AND PUSH20 0xFFFFFFFFFFFFFFFFFFFFFFFFFFFFFFFFFFFFFFFF AND DUP2 MSTORE PUSH1 0x20 ADD SWAP1 DUP2 MSTORE PUSH1 0x20 ADD PUSH0 KECCAK256 PUSH0 ADD SLOAD EQ ISZERO SWAP1 POP SWAP2 SWAP1 POP JUMP JUMPDEST PUSH2 0xAFB CALLER DUP3 PUSH2 0x555 JUMP JUMPDEST POP JUMP JUMPDEST PUSH0 PUSH1 0x60 PUSH0 DUP1 PUSH0 DUP1 DUP8 PUSH20 0xFFFFFFFFFFFFFFFFFFFFFFFFFFFFFFFFFFFFFFFF AND PUSH20 0xFFFFFFFFFFFFFFFFFFFFFFFFFFFFFFFFFFFFFFFF AND DUP2 MSTORE PUSH1 0x20 ADD SWAP1 DUP2 MSTORE PUSH1 0x20 ADD PUSH0 KECCAK256 PUSH1 0x5 ADD PUSH0 DUP7 PUSH1 0xFF AND PUSH1 0xFF AND DUP2 MSTORE PUSH1 0x20 ADD SWAP1 DUP2 MSTORE PUSH1 0x20 ADD PUSH0 KECCAK256 PUSH0 ADD PUSH0 SWAP1 SLOAD SWAP1 PUSH2 0x100 EXP SWAP1 DIV PUSH20 0xFFFFFFFFFFFFFFFFFFFFFFFFFFFFFFFFFFFFFFFF AND PUSH0 DUP1 DUP9 PUSH20 0xFFFFFFFFFFFFFFFFFFFFFFFFFFFFFFFFFFFFFFFF AND PUSH20 0xFFFFFFFFFFFFFFFFFFFFFFFFFFFFFFFFFFFFFFFF AND DUP2 MSTORE PUSH1 0x20 ADD SWAP1 DUP2 MSTORE PUSH1 0x20 ADD PUSH0 KECCAK256 PUSH1 0x5 ADD PUSH0 DUP8 PUSH1 0xFF AND PUSH1 0xFF AND DUP2 MSTORE PUSH1 0x20 ADD SWAP1 DUP2 MSTORE PUSH1 0x20 ADD PUSH0 KECCAK256 PUSH1 0x1 ADD PUSH0 DUP1 DUP10 PUSH20 0xFFFFFFFFFFFFFFFFFFFFFFFFFFFFFFFFFFFFFFFF AND PUSH20 0xFFFFFFFFFFFFFFFFFFFFFFFFFFFFFFFFFFFFFFFF AND DUP2 MSTORE PUSH1 0x20 ADD SWAP1 DUP2 MSTORE PUSH1 0x20 ADD PUSH0 KECCAK256 PUSH1 0x5 ADD PUSH0 DUP9 PUSH1 0xFF AND PUSH1 0xFF AND DUP2 MSTORE PUSH1 0x20 ADD SWAP1 DUP2 MSTORE PUSH1 0x20 ADD PUSH0 KECCAK256 PUSH1 0x2 ADD PUSH0 SWAP1 SLOAD SWAP1 PUSH2 0x100 EXP SWAP1 DIV PUSH1 0xFF AND PUSH0 DUP1 DUP11 PUSH20 0xFFFFFFFFFFFFFFFFFFFFFFFFFFFFFFFFFFFFFFFF AND PUSH20 0xFFFFFFFFFFFFFFFFFFFFFFFFFFFFFFFFFFFFFFFF AND DUP2 MSTORE PUSH1 0x20 ADD SWAP1 DUP2 MSTORE PUSH1 0x20 ADD PUSH0 KECCAK256 PUSH1 0x5 ADD PUSH0 DUP10 PUSH1 0xFF AND PUSH1 0xFF AND DUP2 MSTORE PUSH1 0x20 ADD SWAP1 DUP2 MSTORE PUSH1 0x20 ADD PUSH0 KECCAK256 PUSH1 0x3 ADD SLOAD DUP3 DUP1 SLOAD DUP1 PUSH1 0x20 MUL PUSH1 0x20 ADD PUSH1 0x40 MLOAD SWAP1 DUP2 ADD PUSH1 0x40 MSTORE DUP1 SWAP3 SWAP2 SWAP1 DUP2 DUP2 MSTORE PUSH1 0x20 ADD DUP3 DUP1 SLOAD DUP1 ISZERO PUSH2 0xD0A JUMPI PUSH1 0x20 MUL DUP3 ADD SWAP2 SWAP1 PUSH0 MSTORE PUSH1 0x20 PUSH0 KECCAK256 SWAP1 JUMPDEST DUP2 PUSH0 SWAP1 SLOAD SWAP1 PUSH2 0x100 EXP SWAP1 DIV PUSH20 0xFFFFFFFFFFFFFFFFFFFFFFFFFFFFFFFFFFFFFFFF AND PUSH20 0xFFFFFFFFFFFFFFFFFFFFFFFFFFFFFFFFFFFFFFFF AND DUP2 MSTORE PUSH1 0x20 ADD SWAP1 PUSH1 0x1 ADD SWAP1 DUP1 DUP4 GT PUSH2 0xCC1 JUMPI JUMPDEST POP POP POP POP POP SWAP3 POP SWAP4 POP SWAP4 POP SWAP4 POP SWAP4 POP SWAP3 SWAP6 SWAP2 SWAP5 POP SWAP3 POP JUMP JUMPDEST PUSH1 0x5 PUSH0 SWAP1 SLOAD SWAP1 PUSH2 0x100 EXP SWAP1 DIV PUSH20 0xFFFFFFFFFFFFFFFFFFFFFFFFFFFFFFFFFFFFFFFF AND DUP2 JUMP JUMPDEST PUSH0 PUSH1 0x60 DUP1 PUSH0 DUP1 PUSH0 DUP1 PUSH0 DUP10 PUSH20 0xFFFFFFFFFFFFFFFFFFFFFFFFFFFFFFFFFFFFFFFF AND PUSH20 0xFFFFFFFFFFFFFFFFFFFFFFFFFFFFFFFFFFFFFFFF AND DUP2 MSTORE PUSH1 0x20 ADD SWAP1 DUP2 MSTORE PUSH1 0x20 ADD PUSH0 KECCAK256 PUSH1 0x6 ADD PUSH0 DUP9 PUSH1 0xFF AND PUSH1 0xFF AND DUP2 MSTORE PUSH1 0x20 ADD SWAP1 DUP2 MSTORE PUSH1 0x20 ADD PUSH0 KECCAK256 PUSH0 ADD PUSH0 SWAP1 SLOAD SWAP1 PUSH2 0x100 EXP SWAP1 DIV PUSH20 0xFFFFFFFFFFFFFFFFFFFFFFFFFFFFFFFFFFFFFFFF AND PUSH0 DUP1 DUP11 PUSH20 0xFFFFFFFFFFFFFFFFFFFFFFFFFFFFFFFFFFFFFFFF AND PUSH20 0xFFFFFFFFFFFFFFFFFFFFFFFFFFFFFFFFFFFFFFFF AND DUP2 MSTORE PUSH1 0x20 ADD SWAP1 DUP2 MSTORE PUSH1 0x20 ADD PUSH0 KECCAK256 PUSH1 0x6 ADD PUSH0 DUP10 PUSH1 0xFF AND PUSH1 0xFF AND DUP2 MSTORE PUSH1 0x20 ADD SWAP1 DUP2 MSTORE PUSH1 0x20 ADD PUSH0 KECCAK256 PUSH1 0x1 ADD PUSH0 DUP1 DUP12 PUSH20 0xFFFFFFFFFFFFFFFFFFFFFFFFFFFFFFFFFFFFFFFF AND PUSH20 0xFFFFFFFFFFFFFFFFFFFFFFFFFFFFFFFFFFFFFFFF AND DUP2 MSTORE PUSH1 0x20 ADD SWAP1 DUP2 MSTORE PUSH1 0x20 ADD PUSH0 KECCAK256 PUSH1 0x6 ADD PUSH0 DUP11 PUSH1 0xFF AND PUSH1 0xFF AND DUP2 MSTORE PUSH1 0x20 ADD SWAP1 DUP2 MSTORE PUSH1 0x20 ADD PUSH0 KECCAK256 PUSH1 0x2 ADD PUSH0 DUP1 DUP13 PUSH20 0xFFFFFFFFFFFFFFFFFFFFFFFFFFFFFFFFFFFFFFFF AND PUSH20 0xFFFFFFFFFFFFFFFFFFFFFFFFFFFFFFFFFFFFFFFF AND DUP2 MSTORE PUSH1 0x20 ADD SWAP1 DUP2 MSTORE PUSH1 0x20 ADD PUSH0 KECCAK256 PUSH1 0x6 ADD PUSH0 DUP12 PUSH1 0xFF AND PUSH1 0xFF AND DUP2 MSTORE PUSH1 0x20 ADD SWAP1 DUP2 MSTORE PUSH1 0x20 ADD PUSH0 KECCAK256 PUSH1 0x3 ADD PUSH0 SWAP1 SLOAD SWAP1 PUSH2 0x100 EXP SWAP1 DIV PUSH1 0xFF AND PUSH0 DUP1 DUP14 PUSH20 0xFFFFFFFFFFFFFFFFFFFFFFFFFFFFFFFFFFFFFFFF AND PUSH20 0xFFFFFFFFFFFFFFFFFFFFFFFFFFFFFFFFFFFFFFFF AND DUP2 MSTORE PUSH1 0x20 ADD SWAP1 DUP2 MSTORE PUSH1 0x20 ADD PUSH0 KECCAK256 PUSH1 0x6 ADD PUSH0 DUP13 PUSH1 0xFF AND PUSH1 0xFF AND DUP2 MSTORE PUSH1 0x20 ADD SWAP1 DUP2 MSTORE PUSH1 0x20 ADD PUSH0 KECCAK256 PUSH1 0x4 ADD SLOAD PUSH0 DUP1 DUP15 PUSH20 0xFFFFFFFFFFFFFFFFFFFFFFFFFFFFFFFFFFFFFFFF AND PUSH20 0xFFFFFFFFFFFFFFFFFFFFFFFFFFFFFFFFFFFFFFFF AND DUP2 MSTORE PUSH1 0x20 ADD SWAP1 DUP2 MSTORE PUSH1 0x20 ADD PUSH0 KECCAK256 PUSH1 0x6 ADD PUSH0 DUP14 PUSH1 0xFF AND PUSH1 0xFF AND DUP2 MSTORE PUSH1 0x20 ADD SWAP1 DUP2 MSTORE PUSH1 0x20 ADD PUSH0 KECCAK256 PUSH1 0x5 ADD PUSH0 SWAP1 SLOAD SWAP1 PUSH2 0x100 EXP SWAP1 DIV PUSH20 0xFFFFFFFFFFFFFFFFFFFFFFFFFFFFFFFFFFFFFFFF AND DUP5 DUP1 SLOAD DUP1 PUSH1 0x20 MUL PUSH1 0x20 ADD PUSH1 0x40 MLOAD SWAP1 DUP2 ADD PUSH1 0x40 MSTORE DUP1 SWAP3 SWAP2 SWAP1 DUP2 DUP2 MSTORE PUSH1 0x20 ADD DUP3 DUP1 SLOAD DUP1 ISZERO PUSH2 0x1023 JUMPI PUSH1 0x20 MUL DUP3 ADD SWAP2 SWAP1 PUSH0 MSTORE PUSH1 0x20 PUSH0 KECCAK256 SWAP1 JUMPDEST DUP2 PUSH0 SWAP1 SLOAD SWAP1 PUSH2 0x100 EXP SWAP1 DIV PUSH20 0xFFFFFFFFFFFFFFFFFFFFFFFFFFFFFFFFFFFFFFFF AND PUSH20 0xFFFFFFFFFFFFFFFFFFFFFFFFFFFFFFFFFFFFFFFF AND DUP2 MSTORE PUSH1 0x20 ADD SWAP1 PUSH1 0x1 ADD SWAP1 DUP1 DUP4 GT PUSH2 0xFDA JUMPI JUMPDEST POP POP POP POP POP SWAP5 POP DUP4 DUP1 SLOAD DUP1 PUSH1 0x20 MUL PUSH1 0x20 ADD PUSH1 0x40 MLOAD SWAP1 DUP2 ADD PUSH1 0x40 MSTORE DUP1 SWAP3 SWAP2 SWAP1 DUP2 DUP2 MSTORE PUSH1 0x20 ADD DUP3 DUP1 SLOAD DUP1 ISZERO PUSH2 0x10A8 JUMPI PUSH1 0x20 MUL DUP3 ADD SWAP2 SWAP1 PUSH0 MSTORE PUSH1 0x20 PUSH0 KECCAK256 SWAP1 JUMPDEST DUP2 PUSH0 SWAP1 SLOAD SWAP1 PUSH2 0x100 EXP SWAP1 DIV PUSH20 0xFFFFFFFFFFFFFFFFFFFFFFFFFFFFFFFFFFFFFFFF AND PUSH20 0xFFFFFFFFFFFFFFFFFFFFFFFFFFFFFFFFFFFFFFFF AND DUP2 MSTORE PUSH1 0x20 ADD SWAP1 PUSH1 0x1 ADD SWAP1 DUP1 DUP4 GT PUSH2 0x105F JUMPI JUMPDEST POP POP POP POP POP SWAP4 POP SWAP6 POP SWAP6 POP SWAP6 POP SWAP6 POP SWAP6 POP SWAP6 POP SWAP3 SWAP6 POP SWAP3 SWAP6 POP SWAP3 SWAP6 JUMP JUMPDEST PUSH0 PUSH1 0x20 MSTORE DUP1 PUSH0 MSTORE PUSH1 0x40 PUSH0 KECCAK256 PUSH0 SWAP2 POP SWAP1 POP DUP1 PUSH0 ADD SLOAD SWAP1 DUP1 PUSH1 0x1 ADD PUSH0 SWAP1 SLOAD SWAP1 PUSH2 0x100 EXP SWAP1 DIV PUSH20 0xFFFFFFFFFFFFFFFFFFFFFFFFFFFFFFFFFFFFFFFF AND SWAP1 DUP1 PUSH1 0x2 ADD SLOAD SWAP1 POP DUP4 JUMP JUMPDEST PUSH0 DUP1 PUSH0 DUP5 PUSH20 0xFFFFFFFFFFFFFFFFFFFFFFFFFFFFFFFFFFFFFFFF AND PUSH20 0xFFFFFFFFFFFFFFFFFFFFFFFFFFFFFFFFFFFFFFFF AND DUP2 MSTORE PUSH1 0x20 ADD SWAP1 DUP2 MSTORE PUSH1 0x20 ADD PUSH0 KECCAK256 PUSH1 0x4 ADD PUSH0 DUP4 PUSH1 0xFF AND PUSH1 0xFF AND DUP2 MSTORE PUSH1 0x20 ADD SWAP1 DUP2 MSTORE PUSH1 0x20 ADD PUSH0 KECCAK256 PUSH0 SWAP1 SLOAD SWAP1 PUSH2 0x100 EXP SWAP1 DIV PUSH1 0xFF AND SWAP1 POP SWAP3 SWAP2 POP POP JUMP JUMPDEST PUSH2 0x117C CALLER PUSH2 0xAA7 JUMP JUMPDEST PUSH2 0x11BB JUMPI PUSH1 0x40 MLOAD PUSH32 0x8C379A000000000000000000000000000000000000000000000000000000000 DUP2 MSTORE PUSH1 0x4 ADD PUSH2 0x11B2 SWAP1 PUSH2 0x46F9 JUMP JUMPDEST PUSH1 0x40 MLOAD DUP1 SWAP2 SUB SWAP1 REVERT JUMPDEST PUSH1 0x1 DUP3 PUSH1 0xFF AND EQ DUP1 PUSH2 0x11D0 JUMPI POP PUSH1 0x2 DUP3 PUSH1 0xFF AND EQ JUMPDEST PUSH2 0x120F JUMPI PUSH1 0x40 MLOAD PUSH32 0x8C379A000000000000000000000000000000000000000000000000000000000 DUP2 MSTORE PUSH1 0x4 ADD PUSH2 0x1206 SWAP1 PUSH2 0x4761 JUMP JUMPDEST PUSH1 0x40 MLOAD DUP1 SWAP2 SUB SWAP1 REVERT JUMPDEST PUSH1 0x6 PUSH0 DUP3 PUSH1 0xFF AND PUSH1 0xFF AND DUP2 MSTORE PUSH1 0x20 ADD SWAP1 DUP2 MSTORE PUSH1 0x20 ADD PUSH0 KECCAK256 SLOAD CALLVALUE EQ PUSH2 0x1268 JUMPI PUSH1 0x40 MLOAD PUSH32 0x8C379A000000000000000000000000000000000000000000000000000000000 DUP2 MSTORE PUSH1 0x4 ADD PUSH2 0x125F SWAP1 PUSH2 0x47C9 JUMP JUMPDEST PUSH1 0x40 MLOAD DUP1 SWAP2 SUB SWAP1 REVERT JUMPDEST PUSH1 0x1 DUP2 PUSH1 0xFF AND GT DUP1 ISZERO PUSH2 0x1282 JUMPI POP PUSH1 0xC PUSH1 0xFF AND DUP2 PUSH1 0xFF AND GT ISZERO JUMPDEST PUSH2 0x12C1 JUMPI PUSH1 0x40 MLOAD PUSH32 0x8C379A000000000000000000000000000000000000000000000000000000000 DUP2 MSTORE PUSH1 0x4 ADD PUSH2 0x12B8 SWAP1 PUSH2 0x4831 JUMP JUMPDEST PUSH1 0x40 MLOAD DUP1 SWAP2 SUB SWAP1 REVERT JUMPDEST PUSH1 0x1 DUP3 PUSH1 0xFF AND SUB PUSH2 0x15E3 JUMPI PUSH0 DUP1 CALLER PUSH20 0xFFFFFFFFFFFFFFFFFFFFFFFFFFFFFFFFFFFFFFFF AND PUSH20 0xFFFFFFFFFFFFFFFFFFFFFFFFFFFFFFFFFFFFFFFF AND DUP2 MSTORE PUSH1 0x20 ADD SWAP1 DUP2 MSTORE PUSH1 0x20 ADD PUSH0 KECCAK256 PUSH1 0x3 ADD PUSH0 DUP3 PUSH1 0xFF AND PUSH1 0xFF AND DUP2 MSTORE PUSH1 0x20 ADD SWAP1 DUP2 MSTORE PUSH1 0x20 ADD PUSH0 KECCAK256 PUSH0 SWAP1 SLOAD SWAP1 PUSH2 0x100 EXP SWAP1 DIV PUSH1 0xFF AND ISZERO PUSH2 0x136D JUMPI PUSH1 0x40 MLOAD PUSH32 0x8C379A000000000000000000000000000000000000000000000000000000000 DUP2 MSTORE PUSH1 0x4 ADD PUSH2 0x1364 SWAP1 PUSH2 0x4899 JUMP JUMPDEST PUSH1 0x40 MLOAD DUP1 SWAP2 SUB SWAP1 REVERT JUMPDEST PUSH0 DUP1 CALLER PUSH20 0xFFFFFFFFFFFFFFFFFFFFFFFFFFFFFFFFFFFFFFFF AND PUSH20 0xFFFFFFFFFFFFFFFFFFFFFFFFFFFFFFFFFFFFFFFF AND DUP2 MSTORE PUSH1 0x20 ADD SWAP1 DUP2 MSTORE PUSH1 0x20 ADD PUSH0 KECCAK256 PUSH1 0x5 ADD PUSH0 PUSH1 0x1 DUP4 PUSH2 0x13BA SWAP2 SWAP1 PUSH2 0x48B7 JUMP JUMPDEST PUSH1 0xFF AND PUSH1 0xFF AND DUP2 MSTORE PUSH1 0x20 ADD SWAP1 DUP2 MSTORE PUSH1 0x20 ADD PUSH0 KECCAK256 PUSH1 0x2 ADD PUSH0 SWAP1 SLOAD SWAP1 PUSH2 0x100 EXP SWAP1 DIV PUSH1 0xFF AND ISZERO PUSH2 0x145D JUMPI PUSH0 DUP1 PUSH0 CALLER PUSH20 0xFFFFFFFFFFFFFFFFFFFFFFFFFFFFFFFFFFFFFFFF AND PUSH20 0xFFFFFFFFFFFFFFFFFFFFFFFFFFFFFFFFFFFFFFFF AND DUP2 MSTORE PUSH1 0x20 ADD SWAP1 DUP2 MSTORE PUSH1 0x20 ADD PUSH0 KECCAK256 PUSH1 0x5 ADD PUSH0 PUSH1 0x1 DUP5 PUSH2 0x1430 SWAP2 SWAP1 PUSH2 0x48B7 JUMP JUMPDEST PUSH1 0xFF AND PUSH1 0xFF AND DUP2 MSTORE PUSH1 0x20 ADD SWAP1 DUP2 MSTORE PUSH1 0x20 ADD PUSH0 KECCAK256 PUSH1 0x2 ADD PUSH0 PUSH2 0x100 EXP DUP2 SLOAD DUP2 PUSH1 0xFF MUL NOT AND SWAP1 DUP4 ISZERO ISZERO MUL OR SWAP1 SSTORE POP JUMPDEST PUSH0 PUSH2 0x1468 CALLER DUP4 PUSH2 0x1A1B JUMP JUMPDEST SWAP1 POP DUP1 PUSH0 DUP1 CALLER PUSH20 0xFFFFFFFFFFFFFFFFFFFFFFFFFFFFFFFFFFFFFFFF AND PUSH20 0xFFFFFFFFFFFFFFFFFFFFFFFFFFFFFFFFFFFFFFFF AND DUP2 MSTORE PUSH1 0x20 ADD SWAP1 DUP2 MSTORE PUSH1 0x20 ADD PUSH0 KECCAK256 PUSH1 0x5 ADD PUSH0 DUP5 PUSH1 0xFF AND PUSH1 0xFF AND DUP2 MSTORE PUSH1 0x20 ADD SWAP1 DUP2 MSTORE PUSH1 0x20 ADD PUSH0 KECCAK256 PUSH0 ADD PUSH0 PUSH2 0x100 EXP DUP2 SLOAD DUP2 PUSH20 0xFFFFFFFFFFFFFFFFFFFFFFFFFFFFFFFFFFFFFFFF MUL NOT AND SWAP1 DUP4 PUSH20 0xFFFFFFFFFFFFFFFFFFFFFFFFFFFFFFFFFFFFFFFF AND MUL OR SWAP1 SSTORE POP PUSH1 0x1 PUSH0 DUP1 CALLER PUSH20 0xFFFFFFFFFFFFFFFFFFFFFFFFFFFFFFFFFFFFFFFF AND PUSH20 0xFFFFFFFFFFFFFFFFFFFFFFFFFFFFFFFFFFFFFFFF AND DUP2 MSTORE PUSH1 0x20 ADD SWAP1 DUP2 MSTORE PUSH1 0x20 ADD PUSH0 KECCAK256 PUSH1 0x3 ADD PUSH0 DUP5 PUSH1 0xFF AND PUSH1 0xFF AND DUP2 MSTORE PUSH1 0x20 ADD SWAP1 DUP2 MSTORE PUSH1 0x20 ADD PUSH0 KECCAK256 PUSH0 PUSH2 0x100 EXP DUP2 SLOAD DUP2 PUSH1 0xFF MUL NOT AND SWAP1 DUP4 ISZERO ISZERO MUL OR SWAP1 SSTORE POP PUSH2 0x1575 CALLER DUP3 DUP5 PUSH2 0x1BBB JUMP JUMPDEST DUP1 PUSH20 0xFFFFFFFFFFFFFFFFFFFFFFFFFFFFFFFFFFFFFFFF AND CALLER PUSH20 0xFFFFFFFFFFFFFFFFFFFFFFFFFFFFFFFFFFFFFFFF AND PUSH32 0x18A92DF19FD94D6CFFF209966673A5CA05A1C8E2BB68E097FCE2BDC2ED811119 PUSH1 0x1 DUP6 PUSH1 0x40 MLOAD PUSH2 0x15D5 SWAP3 SWAP2 SWAP1 PUSH2 0x492D JUMP JUMPDEST PUSH1 0x40 MLOAD DUP1 SWAP2 SUB SWAP1 LOG3 POP PUSH2 0x1862 JUMP JUMPDEST PUSH0 DUP1 CALLER PUSH20 0xFFFFFFFFFFFFFFFFFFFFFFFFFFFFFFFFFFFFFFFF AND PUSH20 0xFFFFFFFFFFFFFFFFFFFFFFFFFFFFFFFFFFFFFFFF AND DUP2 MSTORE PUSH1 0x20 ADD SWAP1 DUP2 MSTORE PUSH1 0x20 ADD PUSH0 KECCAK256 PUSH1 0x4 ADD PUSH0 DUP3 PUSH1 0xFF AND PUSH1 0xFF AND DUP2 MSTORE PUSH1 0x20 ADD SWAP1 DUP2 MSTORE PUSH1 0x20 ADD PUSH0 KECCAK256 PUSH0 SWAP1 SLOAD SWAP1 PUSH2 0x100 EXP SWAP1 DIV PUSH1 0xFF AND ISZERO PUSH2 0x1684 JUMPI PUSH1 0x40 MLOAD PUSH32 0x8C379A000000000000000000000000000000000000000000000000000000000 DUP2 MSTORE PUSH1 0x4 ADD PUSH2 0x167B SWAP1 PUSH2 0x4899 JUMP JUMPDEST PUSH1 0x40 MLOAD DUP1 SWAP2 SUB SWAP1 REVERT JUMPDEST PUSH0 DUP1 CALLER PUSH20 0xFFFFFFFFFFFFFFFFFFFFFFFFFFFFFFFFFFFFFFFF AND PUSH20 0xFFFFFFFFFFFFFFFFFFFFFFFFFFFFFFFFFFFFFFFF AND DUP2 MSTORE PUSH1 0x20 ADD SWAP1 DUP2 MSTORE PUSH1 0x20 ADD PUSH0 KECCAK256 PUSH1 0x6 ADD PUSH0 PUSH1 0x1 DUP4 PUSH2 0x16D1 SWAP2 SWAP1 PUSH2 0x48B7 JUMP JUMPDEST PUSH1 0xFF AND PUSH1 0xFF AND DUP2 MSTORE PUSH1 0x20 ADD SWAP1 DUP2 MSTORE PUSH1 0x20 ADD PUSH0 KECCAK256 PUSH1 0x3 ADD PUSH0 SWAP1 SLOAD SWAP1 PUSH2 0x100 EXP SWAP1 DIV PUSH1 0xFF AND ISZERO PUSH2 0x1774 JUMPI PUSH0 DUP1 PUSH0 CALLER PUSH20 0xFFFFFFFFFFFFFFFFFFFFFFFFFFFFFFFFFFFFFFFF AND PUSH20 0xFFFFFFFFFFFFFFFFFFFFFFFFFFFFFFFFFFFFFFFF AND DUP2 MSTORE PUSH1 0x20 ADD SWAP1 DUP2 MSTORE PUSH1 0x20 ADD PUSH0 KECCAK256 PUSH1 0x6 ADD PUSH0 PUSH1 0x1 DUP5 PUSH2 0x1747 SWAP2 SWAP1 PUSH2 0x48B7 JUMP JUMPDEST PUSH1 0xFF AND PUSH1 0xFF AND DUP2 MSTORE PUSH1 0x20 ADD SWAP1 DUP2 MSTORE PUSH1 0x20 ADD PUSH0 KECCAK256 PUSH1 0x3 ADD PUSH0 PUSH2 0x100 EXP DUP2 SLOAD DUP2 PUSH1 0xFF MUL NOT AND SWAP1 DUP4 ISZERO ISZERO MUL OR SWAP1 SSTORE POP JUMPDEST PUSH0 PUSH2 0x177F CALLER DUP4 PUSH2 0x1866 JUMP JUMPDEST SWAP1 POP PUSH1 0x1 PUSH0 DUP1 CALLER PUSH20 0xFFFFFFFFFFFFFFFFFFFFFFFFFFFFFFFFFFFFFFFF AND PUSH20 0xFFFFFFFFFFFFFFFFFFFFFFFFFFFFFFFFFFFFFFFF AND DUP2 MSTORE PUSH1 0x20 ADD SWAP1 DUP2 MSTORE PUSH1 0x20 ADD PUSH0 KECCAK256 PUSH1 0x4 ADD PUSH0 DUP5 PUSH1 0xFF AND PUSH1 0xFF AND DUP2 MSTORE PUSH1 0x20 ADD SWAP1 DUP2 MSTORE PUSH1 0x20 ADD PUSH0 KECCAK256 PUSH0 PUSH2 0x100 EXP DUP2 SLOAD DUP2 PUSH1 0xFF MUL NOT AND SWAP1 DUP4 ISZERO ISZERO MUL OR SWAP1 SSTORE POP PUSH2 0x17F8 CALLER DUP3 DUP5 PUSH2 0x23BA JUMP JUMPDEST DUP1 PUSH20 0xFFFFFFFFFFFFFFFFFFFFFFFFFFFFFFFFFFFFFFFF AND CALLER PUSH20 0xFFFFFFFFFFFFFFFFFFFFFFFFFFFFFFFFFFFFFFFF AND PUSH32 0x18A92DF19FD94D6CFFF209966673A5CA05A1C8E2BB68E097FCE2BDC2ED811119 PUSH1 0x2 DUP6 PUSH1 0x40 MLOAD PUSH2 0x1858 SWAP3 SWAP2 SWAP1 PUSH2 0x498D JUMP JUMPDEST PUSH1 0x40 MLOAD DUP1 SWAP2 SUB SWAP1 LOG3 POP JUMPDEST POP POP JUMP JUMPDEST PUSH0 JUMPDEST PUSH1 0x1 ISZERO PUSH2 0x19FF JUMPI PUSH0 DUP1 DUP1 PUSH0 DUP7 PUSH20 0xFFFFFFFFFFFFFFFFFFFFFFFFFFFFFFFFFFFFFFFF AND PUSH20 0xFFFFFFFFFFFFFFFFFFFFFFFFFFFFFFFFFFFFFFFF AND DUP2 MSTORE PUSH1 0x20 ADD SWAP1 DUP2 MSTORE PUSH1 0x20 ADD PUSH0 KECCAK256 PUSH1 0x1 ADD PUSH0 SWAP1 SLOAD SWAP1 PUSH2 0x100 EXP SWAP1 DIV PUSH20 0xFFFFFFFFFFFFFFFFFFFFFFFFFFFFFFFFFFFFFFFF AND PUSH20 0xFFFFFFFFFFFFFFFFFFFFFFFFFFFFFFFFFFFFFFFF AND PUSH20 0xFFFFFFFFFFFFFFFFFFFFFFFFFFFFFFFFFFFFFFFF AND DUP2 MSTORE PUSH1 0x20 ADD SWAP1 DUP2 MSTORE PUSH1 0x20 ADD PUSH0 KECCAK256 PUSH1 0x4 ADD PUSH0 DUP4 PUSH1 0xFF AND PUSH1 0xFF AND DUP2 MSTORE PUSH1 0x20 ADD SWAP1 DUP2 MSTORE PUSH1 0x20 ADD PUSH0 KECCAK256 PUSH0 SWAP1 SLOAD SWAP1 PUSH2 0x100 EXP SWAP1 DIV PUSH1 0xFF AND ISZERO PUSH2 0x1999 JUMPI PUSH0 DUP1 DUP5 PUSH20 0xFFFFFFFFFFFFFFFFFFFFFFFFFFFFFFFFFFFFFFFF AND PUSH20 0xFFFFFFFFFFFFFFFFFFFFFFFFFFFFFFFFFFFFFFFF AND DUP2 MSTORE PUSH1 0x20 ADD SWAP1 DUP2 MSTORE PUSH1 0x20 ADD PUSH0 KECCAK256 PUSH1 0x1 ADD PUSH0 SWAP1 SLOAD SWAP1 PUSH2 0x100 EXP SWAP1 DIV PUSH20 0xFFFFFFFFFFFFFFFFFFFFFFFFFFFFFFFFFFFFFFFF AND SWAP1 POP PUSH2 0x1A00 JUMP JUMPDEST PUSH0 DUP1 DUP5 PUSH20 0xFFFFFFFFFFFFFFFFFFFFFFFFFFFFFFFFFFFFFFFF AND PUSH20 0xFFFFFFFFFFFFFFFFFFFFFFFFFFFFFFFFFFFFFFFF AND DUP2 MSTORE PUSH1 0x20 ADD SWAP1 DUP2 MSTORE PUSH1 0x20 ADD PUSH0 KECCAK256 PUSH1 0x1 ADD PUSH0 SWAP1 SLOAD SWAP1 PUSH2 0x100 EXP SWAP1 DIV PUSH20 0xFFFFFFFFFFFFFFFFFFFFFFFFFFFFFFFFFFFFFFFF AND SWAP3 POP PUSH2 0x1868 JUMP JUMPDEST JUMPDEST SWAP3 SWAP2 POP POP JUMP JUMPDEST PUSH1 0x6 PUSH1 0x20 MSTORE DUP1 PUSH0 MSTORE PUSH1 0x40 PUSH0 KECCAK256 PUSH0 SWAP2 POP SWAP1 POP SLOAD DUP2 JUMP JUMPDEST PUSH0 JUMPDEST PUSH1 0x1 ISZERO PUSH2 0x1BB4 JUMPI PUSH0 DUP1 DUP1 PUSH0 DUP7 PUSH20 0xFFFFFFFFFFFFFFFFFFFFFFFFFFFFFFFFFFFFFFFF AND PUSH20 0xFFFFFFFFFFFFFFFFFFFFFFFFFFFFFFFFFFFFFFFF AND DUP2 MSTORE PUSH1 0x20 ADD SWAP1 DUP2 MSTORE PUSH1 0x20 ADD PUSH0 KECCAK256 PUSH1 0x1 ADD PUSH0 SWAP1 SLOAD SWAP1 PUSH2 0x100 EXP SWAP1 DIV PUSH20 0xFFFFFFFFFFFFFFFFFFFFFFFFFFFFFFFFFFFFFFFF AND PUSH20 0xFFFFFFFFFFFFFFFFFFFFFFFFFFFFFFFFFFFFFFFF AND PUSH20 0xFFFFFFFFFFFFFFFFFFFFFFFFFFFFFFFFFFFFFFFF AND DUP2 MSTORE PUSH1 0x20 ADD SWAP1 DUP2 MSTORE PUSH1 0x20 ADD PUSH0 KECCAK256 PUSH1 0x3 ADD PUSH0 DUP4 PUSH1 0xFF AND PUSH1 0xFF AND DUP2 MSTORE PUSH1 0x20 ADD SWAP1 DUP2 MSTORE PUSH1 0x20 ADD PUSH0 KECCAK256 PUSH0 SWAP1 SLOAD SWAP1 PUSH2 0x100 EXP SWAP1 DIV PUSH1 0xFF AND ISZERO PUSH2 0x1B4E JUMPI PUSH0 DUP1 DUP5 PUSH20 0xFFFFFFFFFFFFFFFFFFFFFFFFFFFFFFFFFFFFFFFF AND PUSH20 0xFFFFFFFFFFFFFFFFFFFFFFFFFFFFFFFFFFFFFFFF AND DUP2 MSTORE PUSH1 0x20 ADD SWAP1 DUP2 MSTORE PUSH1 0x20 ADD PUSH0 KECCAK256 PUSH1 0x1 ADD PUSH0 SWAP1 SLOAD SWAP1 PUSH2 0x100 EXP SWAP1 DIV PUSH20 0xFFFFFFFFFFFFFFFFFFFFFFFFFFFFFFFFFFFFFFFF AND SWAP1 POP PUSH2 0x1BB5 JUMP JUMPDEST PUSH0 DUP1 DUP5 PUSH20 0xFFFFFFFFFFFFFFFFFFFFFFFFFFFFFFFFFFFFFFFF AND PUSH20 0xFFFFFFFFFFFFFFFFFFFFFFFFFFFFFFFFFFFFFFFF AND DUP2 MSTORE PUSH1 0x20 ADD SWAP1 DUP2 MSTORE PUSH1 0x20 ADD PUSH0 KECCAK256 PUSH1 0x1 ADD PUSH0 SWAP1 SLOAD SWAP1 PUSH2 0x100 EXP SWAP1 DIV PUSH20 0xFFFFFFFFFFFFFFFFFFFFFFFFFFFFFFFFFFFFFFFF AND SWAP3 POP PUSH2 0x1A1D JUMP JUMPDEST JUMPDEST SWAP3 SWAP2 POP POP JUMP JUMPDEST PUSH0 DUP1 DUP4 PUSH20 0xFFFFFFFFFFFFFFFFFFFFFFFFFFFFFFFFFFFFFFFF AND PUSH20 0xFFFFFFFFFFFFFFFFFFFFFFFFFFFFFFFFFFFFFFFF AND DUP2 MSTORE PUSH1 0x20 ADD SWAP1 DUP2 MSTORE PUSH1 0x20 ADD PUSH0 KECCAK256 PUSH1 0x5 ADD PUSH0 DUP3 PUSH1 0xFF AND PUSH1 0xFF AND DUP2 MSTORE PUSH1 0x20 ADD SWAP1 DUP2 MSTORE PUSH1 0x20 ADD PUSH0 KECCAK256 PUSH1 0x1 ADD DUP4 SWAP1 DUP1 PUSH1 0x1 DUP2 SLOAD ADD DUP1 DUP3 SSTORE DUP1 SWAP2 POP POP PUSH1 0x1 SWAP1 SUB SWAP1 PUSH0 MSTORE PUSH1 0x20 PUSH0 KECCAK256 ADD PUSH0 SWAP1 SWAP2 SWAP1 SWAP2 SWAP1 SWAP2 PUSH2 0x100 EXP DUP2 SLOAD DUP2 PUSH20 0xFFFFFFFFFFFFFFFFFFFFFFFFFFFFFFFFFFFFFFFF MUL NOT AND SWAP1 DUP4 PUSH20 0xFFFFFFFFFFFFFFFFFFFFFFFFFFFFFFFFFFFFFFFF AND MUL OR SWAP1 SSTORE POP PUSH1 0x3 PUSH0 DUP1 DUP5 PUSH20 0xFFFFFFFFFFFFFFFFFFFFFFFFFFFFFFFFFFFFFFFF AND PUSH20 0xFFFFFFFFFFFFFFFFFFFFFFFFFFFFFFFFFFFFFFFF AND DUP2 MSTORE PUSH1 0x20 ADD SWAP1 DUP2 MSTORE PUSH1 0x20 ADD PUSH0 KECCAK256 PUSH1 0x5 ADD PUSH0 DUP4 PUSH1 0xFF AND PUSH1 0xFF AND DUP2 MSTORE PUSH1 0x20 ADD SWAP1 DUP2 MSTORE PUSH1 0x20 ADD PUSH0 KECCAK256 PUSH1 0x1 ADD DUP1 SLOAD SWAP1 POP LT ISZERO PUSH2 0x1DA9 JUMPI DUP2 PUSH20 0xFFFFFFFFFFFFFFFFFFFFFFFFFFFFFFFFFFFFFFFF AND DUP4 PUSH20 0xFFFFFFFFFFFFFFFFFFFFFFFFFFFFFFFFFFFFFFFF AND PUSH32 0x68062C5925C4317ADF3A7095478D28B33FD8B41458BC7620B61BC46BF1B24D82 PUSH1 0x1 DUP5 PUSH0 DUP1 DUP9 PUSH20 0xFFFFFFFFFFFFFFFFFFFFFFFFFFFFFFFFFFFFFFFF AND PUSH20 0xFFFFFFFFFFFFFFFFFFFFFFFFFFFFFFFFFFFFFFFF AND DUP2 MSTORE PUSH1 0x20 ADD SWAP1 DUP2 MSTORE PUSH1 0x20 ADD PUSH0 KECCAK256 PUSH1 0x5 ADD PUSH0 DUP8 PUSH1 0xFF AND PUSH1 0xFF AND DUP2 MSTORE PUSH1 0x20 ADD SWAP1 DUP2 MSTORE PUSH1 0x20 ADD PUSH0 KECCAK256 PUSH1 0x1 ADD DUP1 SLOAD SWAP1 POP PUSH1 0x40 MLOAD PUSH2 0x1D8F SWAP4 SWAP3 SWAP2 SWAP1 PUSH2 0x49B4 JUMP JUMPDEST PUSH1 0x40 MLOAD DUP1 SWAP2 SUB SWAP1 LOG3 PUSH2 0x1DA4 DUP3 DUP5 PUSH1 0x1 DUP5 PUSH2 0x3516 JUMP JUMPDEST PUSH2 0x23B5 JUMP JUMPDEST DUP2 PUSH20 0xFFFFFFFFFFFFFFFFFFFFFFFFFFFFFFFFFFFFFFFF AND DUP4 PUSH20 0xFFFFFFFFFFFFFFFFFFFFFFFFFFFFFFFFFFFFFFFF AND PUSH32 0x68062C5925C4317ADF3A7095478D28B33FD8B41458BC7620B61BC46BF1B24D82 PUSH1 0x1 DUP5 PUSH1 0x3 PUSH1 0x40 MLOAD PUSH2 0x1E0C SWAP4 SWAP3 SWAP2 SWAP1 PUSH2 0x4A22 JUMP JUMPDEST PUSH1 0x40 MLOAD DUP1 SWAP2 SUB SWAP1 LOG3 PUSH0 PUSH8 0xFFFFFFFFFFFFFFFF DUP2 GT ISZERO PUSH2 0x1E2E JUMPI PUSH2 0x1E2D PUSH2 0x4A57 JUMP JUMPDEST JUMPDEST PUSH1 0x40 MLOAD SWAP1 DUP1 DUP3 MSTORE DUP1 PUSH1 0x20 MUL PUSH1 0x20 ADD DUP3 ADD PUSH1 0x40 MSTORE DUP1 ISZERO PUSH2 0x1E5C JUMPI DUP2 PUSH1 0x20 ADD PUSH1 0x20 DUP3 MUL DUP1 CALLDATASIZE DUP4 CALLDATACOPY DUP1 DUP3 ADD SWAP2 POP POP SWAP1 POP JUMPDEST POP PUSH0 DUP1 DUP5 PUSH20 0xFFFFFFFFFFFFFFFFFFFFFFFFFFFFFFFFFFFFFFFF AND PUSH20 0xFFFFFFFFFFFFFFFFFFFFFFFFFFFFFFFFFFFFFFFF AND DUP2 MSTORE PUSH1 0x20 ADD SWAP1 DUP2 MSTORE PUSH1 0x20 ADD PUSH0 KECCAK256 PUSH1 0x5 ADD PUSH0 DUP4 PUSH1 0xFF AND PUSH1 0xFF AND DUP2 MSTORE PUSH1 0x20 ADD SWAP1 DUP2 MSTORE PUSH1 0x20 ADD PUSH0 KECCAK256 PUSH1 0x1 ADD SWAP1 DUP1 MLOAD SWAP1 PUSH1 0x20 ADD SWAP1 PUSH2 0x1EC7 SWAP3 SWAP2 SWAP1 PUSH2 0x3FB1 JUMP JUMPDEST POP PUSH0 DUP1 DUP4 PUSH20 0xFFFFFFFFFFFFFFFFFFFFFFFFFFFFFFFFFFFFFFFF AND PUSH20 0xFFFFFFFFFFFFFFFFFFFFFFFFFFFFFFFFFFFFFFFF AND DUP2 MSTORE PUSH1 0x20 ADD SWAP1 DUP2 MSTORE PUSH1 0x20 ADD PUSH0 KECCAK256 PUSH1 0x3 ADD PUSH0 PUSH1 0x1 DUP4 PUSH2 0x1F15 SWAP2 SWAP1 PUSH2 0x4A84 JUMP JUMPDEST PUSH1 0xFF AND PUSH1 0xFF AND DUP2 MSTORE PUSH1 0x20 ADD SWAP1 DUP2 MSTORE PUSH1 0x20 ADD PUSH0 KECCAK256 PUSH0 SWAP1 SLOAD SWAP1 PUSH2 0x100 EXP SWAP1 DIV PUSH1 0xFF AND ISZERO DUP1 ISZERO PUSH2 0x1F49 JUMPI POP PUSH1 0xC PUSH1 0xFF AND DUP2 PUSH1 0xFF AND EQ ISZERO JUMPDEST ISZERO PUSH2 0x1FBE JUMPI PUSH1 0x1 PUSH0 DUP1 DUP5 PUSH20 0xFFFFFFFFFFFFFFFFFFFFFFFFFFFFFFFFFFFFFFFF AND PUSH20 0xFFFFFFFFFFFFFFFFFFFFFFFFFFFFFFFFFFFFFFFF AND DUP2 MSTORE PUSH1 0x20 ADD SWAP1 DUP2 MSTORE PUSH1 0x20 ADD PUSH0 KECCAK256 PUSH1 0x5 ADD PUSH0 DUP4 PUSH1 0xFF AND PUSH1 0xFF AND DUP2 MSTORE PUSH1 0x20 ADD SWAP1 DUP2 MSTORE PUSH1 0x20 ADD PUSH0 KECCAK256 PUSH1 0x2 ADD PUSH0 PUSH2 0x100 EXP DUP2 SLOAD DUP2 PUSH1 0xFF MUL NOT AND SWAP1 DUP4 ISZERO ISZERO MUL OR SWAP1 SSTORE POP JUMPDEST PUSH1 0x5 PUSH0 SWAP1 SLOAD SWAP1 PUSH2 0x100 EXP SWAP1 DIV PUSH20 0xFFFFFFFFFFFFFFFFFFFFFFFFFFFFFFFFFFFFFFFF AND PUSH20 0xFFFFFFFFFFFFFFFFFFFFFFFFFFFFFFFFFFFFFFFF AND DUP3 PUSH20 0xFFFFFFFFFFFFFFFFFFFFFFFFFFFFFFFFFFFFFFFF AND EQ PUSH2 0x2258 JUMPI PUSH0 PUSH2 0x201D DUP4 DUP4 PUSH2 0x1A1B JUMP JUMPDEST SWAP1 POP DUP1 PUSH20 0xFFFFFFFFFFFFFFFFFFFFFFFFFFFFFFFFFFFFFFFF AND PUSH0 DUP1 DUP6 PUSH20 0xFFFFFFFFFFFFFFFFFFFFFFFFFFFFFFFFFFFFFFFF AND PUSH20 0xFFFFFFFFFFFFFFFFFFFFFFFFFFFFFFFFFFFFFFFF AND DUP2 MSTORE PUSH1 0x20 ADD SWAP1 DUP2 MSTORE PUSH1 0x20 ADD PUSH0 KECCAK256 PUSH1 0x5 ADD PUSH0 DUP5 PUSH1 0xFF AND PUSH1 0xFF AND DUP2 MSTORE PUSH1 0x20 ADD SWAP1 DUP2 MSTORE PUSH1 0x20 ADD PUSH0 KECCAK256 PUSH0 ADD PUSH0 SWAP1 SLOAD SWAP1 PUSH2 0x100 EXP SWAP1 DIV PUSH20 0xFFFFFFFFFFFFFFFFFFFFFFFFFFFFFFFFFFFFFFFF AND PUSH20 0xFFFFFFFFFFFFFFFFFFFFFFFFFFFFFFFFFFFFFFFF AND EQ PUSH2 0x215C JUMPI DUP1 PUSH0 DUP1 DUP6 PUSH20 0xFFFFFFFFFFFFFFFFFFFFFFFFFFFFFFFFFFFFFFFF AND PUSH20 0xFFFFFFFFFFFFFFFFFFFFFFFFFFFFFFFFFFFFFFFF AND DUP2 MSTORE PUSH1 0x20 ADD SWAP1 DUP2 MSTORE PUSH1 0x20 ADD PUSH0 KECCAK256 PUSH1 0x5 ADD PUSH0 DUP5 PUSH1 0xFF AND PUSH1 0xFF AND DUP2 MSTORE PUSH1 0x20 ADD SWAP1 DUP2 MSTORE PUSH1 0x20 ADD PUSH0 KECCAK256 PUSH0 ADD PUSH0 PUSH2 0x100 EXP DUP2 SLOAD DUP2 PUSH20 0xFFFFFFFFFFFFFFFFFFFFFFFFFFFFFFFFFFFFFFFF MUL NOT AND SWAP1 DUP4 PUSH20 0xFFFFFFFFFFFFFFFFFFFFFFFFFFFFFFFFFFFFFFFF AND MUL OR SWAP1 SSTORE POP JUMPDEST PUSH0 DUP1 DUP5 PUSH20 0xFFFFFFFFFFFFFFFFFFFFFFFFFFFFFFFFFFFFFFFF AND PUSH20 0xFFFFFFFFFFFFFFFFFFFFFFFFFFFFFFFFFFFFFFFF AND DUP2 MSTORE PUSH1 0x20 ADD SWAP1 DUP2 MSTORE PUSH1 0x20 ADD PUSH0 KECCAK256 PUSH1 0x5 ADD PUSH0 DUP4 PUSH1 0xFF AND PUSH1 0xFF AND DUP2 MSTORE PUSH1 0x20 ADD SWAP1 DUP2 MSTORE PUSH1 0x20 ADD PUSH0 KECCAK256 PUSH1 0x3 ADD PUSH0 DUP2 SLOAD DUP1 SWAP3 SWAP2 SWAP1 PUSH2 0x21C3 SWAP1 PUSH2 0x4642 JUMP JUMPDEST SWAP2 SWAP1 POP SSTORE POP DUP4 PUSH20 0xFFFFFFFFFFFFFFFFFFFFFFFFFFFFFFFFFFFFFFFF AND DUP2 PUSH20 0xFFFFFFFFFFFFFFFFFFFFFFFFFFFFFFFFFFFFFFFF AND DUP5 PUSH20 0xFFFFFFFFFFFFFFFFFFFFFFFFFFFFFFFFFFFFFFFF AND PUSH32 0xA00C953EFF38EC1B71E7FE060B2AB8DF0BBE5354319FBDDE4FBDAFD6324386A6 PUSH1 0x1 DUP7 PUSH1 0x40 MLOAD PUSH2 0x223F SWAP3 SWAP2 SWAP1 PUSH2 0x492D JUMP JUMPDEST PUSH1 0x40 MLOAD DUP1 SWAP2 SUB SWAP1 LOG4 PUSH2 0x2252 DUP4 DUP3 DUP5 PUSH2 0x1BBB JUMP JUMPDEST POP PUSH2 0x23B4 JUMP JUMPDEST PUSH2 0x2286 PUSH1 0x5 PUSH0 SWAP1 SLOAD SWAP1 PUSH2 0x100 EXP SWAP1 DIV PUSH20 0xFFFFFFFFFFFFFFFFFFFFFFFFFFFFFFFFFFFFFFFF AND DUP5 PUSH1 0x1 DUP5 PUSH2 0x3516 JUMP JUMPDEST PUSH0 DUP1 PUSH1 0x5 PUSH0 SWAP1 SLOAD SWAP1 PUSH2 0x100 EXP SWAP1 DIV PUSH20 0xFFFFFFFFFFFFFFFFFFFFFFFFFFFFFFFFFFFFFFFF AND PUSH20 0xFFFFFFFFFFFFFFFFFFFFFFFFFFFFFFFFFFFFFFFF AND PUSH20 0xFFFFFFFFFFFFFFFFFFFFFFFFFFFFFFFFFFFFFFFF AND DUP2 MSTORE PUSH1 0x20 ADD SWAP1 DUP2 MSTORE PUSH1 0x20 ADD PUSH0 KECCAK256 PUSH1 0x5 ADD PUSH0 DUP3 PUSH1 0xFF AND PUSH1 0xFF AND DUP2 MSTORE PUSH1 0x20 ADD SWAP1 DUP2 MSTORE PUSH1 0x20 ADD PUSH0 KECCAK256 PUSH1 0x3 ADD PUSH0 DUP2 SLOAD DUP1 SWAP3 SWAP2 SWAP1 PUSH2 0x230E SWAP1 PUSH2 0x4642 JUMP JUMPDEST SWAP2 SWAP1 POP SSTORE POP DUP3 PUSH20 0xFFFFFFFFFFFFFFFFFFFFFFFFFFFFFFFFFFFFFFFF AND PUSH0 PUSH20 0xFFFFFFFFFFFFFFFFFFFFFFFFFFFFFFFFFFFFFFFF AND PUSH1 0x5 PUSH0 SWAP1 SLOAD SWAP1 PUSH2 0x100 EXP SWAP1 DIV PUSH20 0xFFFFFFFFFFFFFFFFFFFFFFFFFFFFFFFFFFFFFFFF AND PUSH20 0xFFFFFFFFFFFFFFFFFFFFFFFFFFFFFFFFFFFFFFFF AND PUSH32 0xA00C953EFF38EC1B71E7FE060B2AB8DF0BBE5354319FBDDE4FBDAFD6324386A6 PUSH1 0x1 DUP6 PUSH1 0x40 MLOAD PUSH2 0x23AB SWAP3 SWAP2 SWAP1 PUSH2 0x492D JUMP JUMPDEST PUSH1 0x40 MLOAD DUP1 SWAP2 SUB SWAP1 LOG4 JUMPDEST JUMPDEST POP POP POP JUMP JUMPDEST PUSH0 DUP1 DUP4 PUSH20 0xFFFFFFFFFFFFFFFFFFFFFFFFFFFFFFFFFFFFFFFF AND PUSH20 0xFFFFFFFFFFFFFFFFFFFFFFFFFFFFFFFFFFFFFFFF AND DUP2 MSTORE PUSH1 0x20 ADD SWAP1 DUP2 MSTORE PUSH1 0x20 ADD PUSH0 KECCAK256 PUSH1 0x4 ADD PUSH0 DUP3 PUSH1 0xFF AND PUSH1 0xFF AND DUP2 MSTORE PUSH1 0x20 ADD SWAP1 DUP2 MSTORE PUSH1 0x20 ADD PUSH0 KECCAK256 PUSH0 SWAP1 SLOAD SWAP1 PUSH2 0x100 EXP SWAP1 DIV PUSH1 0xFF AND PUSH2 0x245A JUMPI PUSH1 0x40 MLOAD PUSH32 0x8C379A000000000000000000000000000000000000000000000000000000000 DUP2 MSTORE PUSH1 0x4 ADD PUSH2 0x2451 SWAP1 PUSH2 0x4B02 JUMP JUMPDEST PUSH1 0x40 MLOAD DUP1 SWAP2 SUB SWAP1 REVERT JUMPDEST PUSH1 0x2 PUSH0 DUP1 DUP5 PUSH20 0xFFFFFFFFFFFFFFFFFFFFFFFFFFFFFFFFFFFFFFFF AND PUSH20 0xFFFFFFFFFFFFFFFFFFFFFFFFFFFFFFFFFFFFFFFF AND DUP2 MSTORE PUSH1 0x20 ADD SWAP1 DUP2 MSTORE PUSH1 0x20 ADD PUSH0 KECCAK256 PUSH1 0x6 ADD PUSH0 DUP4 PUSH1 0xFF AND PUSH1 0xFF AND DUP2 MSTORE PUSH1 0x20 ADD SWAP1 DUP2 MSTORE PUSH1 0x20 ADD PUSH0 KECCAK256 PUSH1 0x1 ADD DUP1 SLOAD SWAP1 POP LT ISZERO PUSH2 0x29D0 JUMPI PUSH0 DUP1 DUP4 PUSH20 0xFFFFFFFFFFFFFFFFFFFFFFFFFFFFFFFFFFFFFFFF AND PUSH20 0xFFFFFFFFFFFFFFFFFFFFFFFFFFFFFFFFFFFFFFFF AND DUP2 MSTORE PUSH1 0x20 ADD SWAP1 DUP2 MSTORE PUSH1 0x20 ADD PUSH0 KECCAK256 PUSH1 0x6 ADD PUSH0 DUP3 PUSH1 0xFF AND PUSH1 0xFF AND DUP2 MSTORE PUSH1 0x20 ADD SWAP1 DUP2 MSTORE PUSH1 0x20 ADD PUSH0 KECCAK256 PUSH1 0x1 ADD DUP4 SWAP1 DUP1 PUSH1 0x1 DUP2 SLOAD ADD DUP1 DUP3 SSTORE DUP1 SWAP2 POP POP PUSH1 0x1 SWAP1 SUB SWAP1 PUSH0 MSTORE PUSH1 0x20 PUSH0 KECCAK256 ADD PUSH0 SWAP1 SWAP2 SWAP1 SWAP2 SWAP1 SWAP2 PUSH2 0x100 EXP DUP2 SLOAD DUP2 PUSH20 0xFFFFFFFFFFFFFFFFFFFFFFFFFFFFFFFFFFFFFFFF MUL NOT AND SWAP1 DUP4 PUSH20 0xFFFFFFFFFFFFFFFFFFFFFFFFFFFFFFFFFFFFFFFF AND MUL OR SWAP1 SSTORE POP DUP2 PUSH20 0xFFFFFFFFFFFFFFFFFFFFFFFFFFFFFFFFFFFFFFFF AND DUP4 PUSH20 0xFFFFFFFFFFFFFFFFFFFFFFFFFFFFFFFFFFFFFFFF AND PUSH32 0x68062C5925C4317ADF3A7095478D28B33FD8B41458BC7620B61BC46BF1B24D82 PUSH1 0x2 DUP5 PUSH0 DUP1 DUP9 PUSH20 0xFFFFFFFFFFFFFFFFFFFFFFFFFFFFFFFFFFFFFFFF AND PUSH20 0xFFFFFFFFFFFFFFFFFFFFFFFFFFFFFFFFFFFFFFFF AND DUP2 MSTORE PUSH1 0x20 ADD SWAP1 DUP2 MSTORE PUSH1 0x20 ADD PUSH0 KECCAK256 PUSH1 0x6 ADD PUSH0 DUP8 PUSH1 0xFF AND PUSH1 0xFF AND DUP2 MSTORE PUSH1 0x20 ADD SWAP1 DUP2 MSTORE PUSH1 0x20 ADD PUSH0 KECCAK256 PUSH1 0x1 ADD DUP1 SLOAD SWAP1 POP PUSH1 0x40 MLOAD PUSH2 0x262E SWAP4 SWAP3 SWAP2 SWAP1 PUSH2 0x4B20 JUMP JUMPDEST PUSH1 0x40 MLOAD DUP1 SWAP2 SUB SWAP1 LOG3 DUP2 PUSH0 DUP1 DUP6 PUSH20 0xFFFFFFFFFFFFFFFFFFFFFFFFFFFFFFFFFFFFFFFF AND PUSH20 0xFFFFFFFFFFFFFFFFFFFFFFFFFFFFFFFFFFFFFFFF AND DUP2 MSTORE PUSH1 0x20 ADD SWAP1 DUP2 MSTORE PUSH1 0x20 ADD PUSH0 KECCAK256 PUSH1 0x6 ADD PUSH0 DUP4 PUSH1 0xFF AND PUSH1 0xFF AND DUP2 MSTORE PUSH1 0x20 ADD SWAP1 DUP2 MSTORE PUSH1 0x20 ADD PUSH0 KECCAK256 PUSH0 ADD PUSH0 PUSH2 0x100 EXP DUP2 SLOAD DUP2 PUSH20 0xFFFFFFFFFFFFFFFFFFFFFFFFFFFFFFFFFFFFFFFF MUL NOT AND SWAP1 DUP4 PUSH20 0xFFFFFFFFFFFFFFFFFFFFFFFFFFFFFFFFFFFFFFFF AND MUL OR SWAP1 SSTORE POP PUSH1 0x5 PUSH0 SWAP1 SLOAD SWAP1 PUSH2 0x100 EXP SWAP1 DIV PUSH20 0xFFFFFFFFFFFFFFFFFFFFFFFFFFFFFFFFFFFFFFFF AND PUSH20 0xFFFFFFFFFFFFFFFFFFFFFFFFFFFFFFFFFFFFFFFF AND DUP3 PUSH20 0xFFFFFFFFFFFFFFFFFFFFFFFFFFFFFFFFFFFFFFFF AND SUB PUSH2 0x2730 JUMPI PUSH2 0x272B DUP3 DUP5 PUSH1 0x2 DUP5 PUSH2 0x3516 JUMP JUMPDEST PUSH2 0x3511 JUMP JUMPDEST PUSH0 DUP1 PUSH0 DUP5 PUSH20 0xFFFFFFFFFFFFFFFFFFFFFFFFFFFFFFFFFFFFFFFF AND PUSH20 0xFFFFFFFFFFFFFFFFFFFFFFFFFFFFFFFFFFFFFFFF AND DUP2 MSTORE PUSH1 0x20 ADD SWAP1 DUP2 MSTORE PUSH1 0x20 ADD PUSH0 KECCAK256 PUSH1 0x6 ADD PUSH0 DUP4 PUSH1 0xFF AND PUSH1 0xFF AND DUP2 MSTORE PUSH1 0x20 ADD SWAP1 DUP2 MSTORE PUSH1 0x20 ADD PUSH0 KECCAK256 PUSH1 0x1 ADD PUSH0 DUP2 SLOAD DUP2 LT PUSH2 0x279A JUMPI PUSH2 0x2799 PUSH2 0x4B55 JUMP JUMPDEST JUMPDEST SWAP1 PUSH0 MSTORE PUSH1 0x20 PUSH0 KECCAK256 ADD PUSH0 SWAP1 SLOAD SWAP1 PUSH2 0x100 EXP SWAP1 DIV PUSH20 0xFFFFFFFFFFFFFFFFFFFFFFFFFFFFFFFFFFFFFFFF AND SWAP1 POP PUSH1 0x4 PUSH0 DUP1 DUP4 PUSH20 0xFFFFFFFFFFFFFFFFFFFFFFFFFFFFFFFFFFFFFFFF AND PUSH20 0xFFFFFFFFFFFFFFFFFFFFFFFFFFFFFFFFFFFFFFFF AND DUP2 MSTORE PUSH1 0x20 ADD SWAP1 DUP2 MSTORE PUSH1 0x20 ADD PUSH0 KECCAK256 PUSH1 0x6 ADD PUSH0 DUP5 PUSH1 0xFF AND PUSH1 0xFF AND DUP2 MSTORE PUSH1 0x20 ADD SWAP1 DUP2 MSTORE PUSH1 0x20 ADD PUSH0 KECCAK256 PUSH1 0x2 ADD DUP1 SLOAD SWAP1 POP LT ISZERO PUSH2 0x29BF JUMPI PUSH0 DUP1 DUP3 PUSH20 0xFFFFFFFFFFFFFFFFFFFFFFFFFFFFFFFFFFFFFFFF AND PUSH20 0xFFFFFFFFFFFFFFFFFFFFFFFFFFFFFFFFFFFFFFFF AND DUP2 MSTORE PUSH1 0x20 ADD SWAP1 DUP2 MSTORE PUSH1 0x20 ADD PUSH0 KECCAK256 PUSH1 0x6 ADD PUSH0 DUP4 PUSH1 0xFF AND PUSH1 0xFF AND DUP2 MSTORE PUSH1 0x20 ADD SWAP1 DUP2 MSTORE PUSH1 0x20 ADD PUSH0 KECCAK256 PUSH1 0x2 ADD DUP5 SWAP1 DUP1 PUSH1 0x1 DUP2 SLOAD ADD DUP1 DUP3 SSTORE DUP1 SWAP2 POP POP PUSH1 0x1 SWAP1 SUB SWAP1 PUSH0 MSTORE PUSH1 0x20 PUSH0 KECCAK256 ADD PUSH0 SWAP1 SWAP2 SWAP1 SWAP2 SWAP1 SWAP2 PUSH2 0x100 EXP DUP2 SLOAD DUP2 PUSH20 0xFFFFFFFFFFFFFFFFFFFFFFFFFFFFFFFFFFFFFFFF MUL NOT AND SWAP1 DUP4 PUSH20 0xFFFFFFFFFFFFFFFFFFFFFFFFFFFFFFFFFFFFFFFF AND MUL OR SWAP1 SSTORE POP DUP1 PUSH20 0xFFFFFFFFFFFFFFFFFFFFFFFFFFFFFFFFFFFFFFFF AND DUP5 PUSH20 0xFFFFFFFFFFFFFFFFFFFFFFFFFFFFFFFFFFFFFFFF AND PUSH32 0x68062C5925C4317ADF3A7095478D28B33FD8B41458BC7620B61BC46BF1B24D82 PUSH1 0x2 DUP6 PUSH1 0x2 PUSH0 DUP1 DUP9 PUSH20 0xFFFFFFFFFFFFFFFFFFFFFFFFFFFFFFFFFFFFFFFF AND PUSH20 0xFFFFFFFFFFFFFFFFFFFFFFFFFFFFFFFFFFFFFFFF AND DUP2 MSTORE PUSH1 0x20 ADD SWAP1 DUP2 MSTORE PUSH1 0x20 ADD PUSH0 KECCAK256 PUSH1 0x6 ADD PUSH0 DUP10 PUSH1 0xFF AND PUSH1 0xFF AND DUP2 MSTORE PUSH1 0x20 ADD SWAP1 DUP2 MSTORE PUSH1 0x20 ADD PUSH0 KECCAK256 PUSH1 0x2 ADD DUP1 SLOAD SWAP1 POP PUSH2 0x2995 SWAP2 SWAP1 PUSH2 0x4B82 JUMP JUMPDEST PUSH1 0x40 MLOAD PUSH2 0x29A4 SWAP4 SWAP3 SWAP2 SWAP1 PUSH2 0x4B20 JUMP JUMPDEST PUSH1 0x40 MLOAD DUP1 SWAP2 SUB SWAP1 LOG3 PUSH2 0x29B9 DUP2 DUP6 PUSH1 0x2 DUP6 PUSH2 0x3516 JUMP JUMPDEST POP PUSH2 0x3511 JUMP JUMPDEST PUSH2 0x29CA DUP5 DUP3 DUP5 PUSH2 0x3610 JUMP JUMPDEST POP PUSH2 0x3511 JUMP JUMPDEST PUSH0 DUP1 DUP4 PUSH20 0xFFFFFFFFFFFFFFFFFFFFFFFFFFFFFFFFFFFFFFFF AND PUSH20 0xFFFFFFFFFFFFFFFFFFFFFFFFFFFFFFFFFFFFFFFF AND DUP2 MSTORE PUSH1 0x20 ADD SWAP1 DUP2 MSTORE PUSH1 0x20 ADD PUSH0 KECCAK256 PUSH1 0x6 ADD PUSH0 DUP3 PUSH1 0xFF AND PUSH1 0xFF AND DUP2 MSTORE PUSH1 0x20 ADD SWAP1 DUP2 MSTORE PUSH1 0x20 ADD PUSH0 KECCAK256 PUSH1 0x2 ADD DUP4 SWAP1 DUP1 PUSH1 0x1 DUP2 SLOAD ADD DUP1 DUP3 SSTORE DUP1 SWAP2 POP POP PUSH1 0x1 SWAP1 SUB SWAP1 PUSH0 MSTORE PUSH1 0x20 PUSH0 KECCAK256 ADD PUSH0 SWAP1 SWAP2 SWAP1 SWAP2 SWAP1 SWAP2 PUSH2 0x100 EXP DUP2 SLOAD DUP2 PUSH20 0xFFFFFFFFFFFFFFFFFFFFFFFFFFFFFFFFFFFFFFFF MUL NOT AND SWAP1 DUP4 PUSH20 0xFFFFFFFFFFFFFFFFFFFFFFFFFFFFFFFFFFFFFFFF AND MUL OR SWAP1 SSTORE POP PUSH0 PUSH20 0xFFFFFFFFFFFFFFFFFFFFFFFFFFFFFFFFFFFFFFFF AND PUSH0 DUP1 DUP5 PUSH20 0xFFFFFFFFFFFFFFFFFFFFFFFFFFFFFFFFFFFFFFFF AND PUSH20 0xFFFFFFFFFFFFFFFFFFFFFFFFFFFFFFFFFFFFFFFF AND DUP2 MSTORE PUSH1 0x20 ADD SWAP1 DUP2 MSTORE PUSH1 0x20 ADD PUSH0 KECCAK256 PUSH1 0x6 ADD PUSH0 DUP4 PUSH1 0xFF AND PUSH1 0xFF AND DUP2 MSTORE PUSH1 0x20 ADD SWAP1 DUP2 MSTORE PUSH1 0x20 ADD PUSH0 KECCAK256 PUSH1 0x5 ADD PUSH0 SWAP1 SLOAD SWAP1 PUSH2 0x100 EXP SWAP1 DIV PUSH20 0xFFFFFFFFFFFFFFFFFFFFFFFFFFFFFFFFFFFFFFFF AND PUSH20 0xFFFFFFFFFFFFFFFFFFFFFFFFFFFFFFFFFFFFFFFF AND EQ PUSH2 0x2F4F JUMPI PUSH0 DUP1 DUP4 PUSH20 0xFFFFFFFFFFFFFFFFFFFFFFFFFFFFFFFFFFFFFFFF AND PUSH20 0xFFFFFFFFFFFFFFFFFFFFFFFFFFFFFFFFFFFFFFFF AND DUP2 MSTORE PUSH1 0x20 ADD SWAP1 DUP2 MSTORE PUSH1 0x20 ADD PUSH0 KECCAK256 PUSH1 0x6 ADD PUSH0 DUP3 PUSH1 0xFF AND PUSH1 0xFF AND DUP2 MSTORE PUSH1 0x20 ADD SWAP1 DUP2 MSTORE PUSH1 0x20 ADD PUSH0 KECCAK256 PUSH1 0x1 ADD PUSH1 0x1 DUP2 SLOAD DUP2 LT PUSH2 0x2B98 JUMPI PUSH2 0x2B97 PUSH2 0x4B55 JUMP JUMPDEST JUMPDEST SWAP1 PUSH0 MSTORE PUSH1 0x20 PUSH0 KECCAK256 ADD PUSH0 SWAP1 SLOAD SWAP1 PUSH2 0x100 EXP SWAP1 DIV PUSH20 0xFFFFFFFFFFFFFFFFFFFFFFFFFFFFFFFFFFFFFFFF AND PUSH20 0xFFFFFFFFFFFFFFFFFFFFFFFFFFFFFFFFFFFFFFFF AND PUSH0 DUP1 DUP5 PUSH20 0xFFFFFFFFFFFFFFFFFFFFFFFFFFFFFFFFFFFFFFFF AND PUSH20 0xFFFFFFFFFFFFFFFFFFFFFFFFFFFFFFFFFFFFFFFF AND DUP2 MSTORE PUSH1 0x20 ADD SWAP1 DUP2 MSTORE PUSH1 0x20 ADD PUSH0 KECCAK256 PUSH1 0x6 ADD PUSH0 DUP4 PUSH1 0xFF AND PUSH1 0xFF AND DUP2 MSTORE PUSH1 0x20 ADD SWAP1 DUP2 MSTORE PUSH1 0x20 ADD PUSH0 KECCAK256 PUSH1 0x1 ADD PUSH0 DUP2 SLOAD DUP2 LT PUSH2 0x2C3F JUMPI PUSH2 0x2C3E PUSH2 0x4B55 JUMP JUMPDEST JUMPDEST SWAP1 PUSH0 MSTORE PUSH1 0x20 PUSH0 KECCAK256 ADD PUSH0 SWAP1 SLOAD SWAP1 PUSH2 0x100 EXP SWAP1 DIV PUSH20 0xFFFFFFFFFFFFFFFFFFFFFFFFFFFFFFFFFFFFFFFF AND PUSH20 0xFFFFFFFFFFFFFFFFFFFFFFFFFFFFFFFFFFFFFFFF AND EQ DUP1 ISZERO PUSH2 0x2DBB JUMPI POP PUSH0 DUP1 DUP4 PUSH20 0xFFFFFFFFFFFFFFFFFFFFFFFFFFFFFFFFFFFFFFFF AND PUSH20 0xFFFFFFFFFFFFFFFFFFFFFFFFFFFFFFFFFFFFFFFF AND DUP2 MSTORE PUSH1 0x20 ADD SWAP1 DUP2 MSTORE PUSH1 0x20 ADD PUSH0 KECCAK256 PUSH1 0x6 ADD PUSH0 DUP3 PUSH1 0xFF AND PUSH1 0xFF AND DUP2 MSTORE PUSH1 0x20 ADD SWAP1 DUP2 MSTORE PUSH1 0x20 ADD PUSH0 KECCAK256 PUSH1 0x5 ADD PUSH0 SWAP1 SLOAD SWAP1 PUSH2 0x100 EXP SWAP1 DIV PUSH20 0xFFFFFFFFFFFFFFFFFFFFFFFFFFFFFFFFFFFFFFFF AND PUSH20 0xFFFFFFFFFFFFFFFFFFFFFFFFFFFFFFFFFFFFFFFF AND PUSH0 DUP1 DUP5 PUSH20 0xFFFFFFFFFFFFFFFFFFFFFFFFFFFFFFFFFFFFFFFF AND PUSH20 0xFFFFFFFFFFFFFFFFFFFFFFFFFFFFFFFFFFFFFFFF AND DUP2 MSTORE PUSH1 0x20 ADD SWAP1 DUP2 MSTORE PUSH1 0x20 ADD PUSH0 KECCAK256 PUSH1 0x6 ADD PUSH0 DUP4 PUSH1 0xFF AND PUSH1 0xFF AND DUP2 MSTORE PUSH1 0x20 ADD SWAP1 DUP2 MSTORE PUSH1 0x20 ADD PUSH0 KECCAK256 PUSH1 0x1 ADD PUSH0 DUP2 SLOAD DUP2 LT PUSH2 0x2D7B JUMPI PUSH2 0x2D7A PUSH2 0x4B55 JUMP JUMPDEST JUMPDEST SWAP1 PUSH0 MSTORE PUSH1 0x20 PUSH0 KECCAK256 ADD PUSH0 SWAP1 SLOAD SWAP1 PUSH2 0x100 EXP SWAP1 DIV PUSH20 0xFFFFFFFFFFFFFFFFFFFFFFFFFFFFFFFFFFFFFFFF AND PUSH20 0xFFFFFFFFFFFFFFFFFFFFFFFFFFFFFFFFFFFFFFFF AND EQ JUMPDEST ISZERO PUSH2 0x2DDD JUMPI PUSH2 0x2DCD DUP4 DUP4 DUP4 PUSH1 0x1 PUSH2 0x38D4 JUMP JUMPDEST PUSH2 0x2DD8 DUP4 DUP4 DUP4 PUSH2 0x3610 JUMP JUMPDEST PUSH2 0x3511 JUMP JUMPDEST PUSH0 DUP1 DUP4 PUSH20 0xFFFFFFFFFFFFFFFFFFFFFFFFFFFFFFFFFFFFFFFF AND PUSH20 0xFFFFFFFFFFFFFFFFFFFFFFFFFFFFFFFFFFFFFFFF AND DUP2 MSTORE PUSH1 0x20 ADD SWAP1 DUP2 MSTORE PUSH1 0x20 ADD PUSH0 KECCAK256 PUSH1 0x6 ADD PUSH0 DUP3 PUSH1 0xFF AND PUSH1 0xFF AND DUP2 MSTORE PUSH1 0x20 ADD SWAP1 DUP2 MSTORE PUSH1 0x20 ADD PUSH0 KECCAK256 PUSH1 0x5 ADD PUSH0 SWAP1 SLOAD SWAP1 PUSH2 0x100 EXP SWAP1 DIV PUSH20 0xFFFFFFFFFFFFFFFFFFFFFFFFFFFFFFFFFFFFFFFF AND PUSH20 0xFFFFFFFFFFFFFFFFFFFFFFFFFFFFFFFFFFFFFFFF AND PUSH0 DUP1 DUP5 PUSH20 0xFFFFFFFFFFFFFFFFFFFFFFFFFFFFFFFFFFFFFFFF AND PUSH20 0xFFFFFFFFFFFFFFFFFFFFFFFFFFFFFFFFFFFFFFFF AND DUP2 MSTORE PUSH1 0x20 ADD SWAP1 DUP2 MSTORE PUSH1 0x20 ADD PUSH0 KECCAK256 PUSH1 0x6 ADD PUSH0 DUP4 PUSH1 0xFF AND PUSH1 0xFF AND DUP2 MSTORE PUSH1 0x20 ADD SWAP1 DUP2 MSTORE PUSH1 0x20 ADD PUSH0 KECCAK256 PUSH1 0x1 ADD PUSH0 DUP2 SLOAD DUP2 LT PUSH2 0x2ED3 JUMPI PUSH2 0x2ED2 PUSH2 0x4B55 JUMP JUMPDEST JUMPDEST SWAP1 PUSH0 MSTORE PUSH1 0x20 PUSH0 KECCAK256 ADD PUSH0 SWAP1 SLOAD SWAP1 PUSH2 0x100 EXP SWAP1 DIV PUSH20 0xFFFFFFFFFFFFFFFFFFFFFFFFFFFFFFFFFFFFFFFF AND PUSH20 0xFFFFFFFFFFFFFFFFFFFFFFFFFFFFFFFFFFFFFFFF AND SUB PUSH2 0x2F33 JUMPI PUSH2 0x2F23 DUP4 DUP4 DUP4 PUSH1 0x1 PUSH2 0x38D4 JUMP JUMPDEST PUSH2 0x2F2E DUP4 DUP4 DUP4 PUSH2 0x3610 JUMP JUMPDEST PUSH2 0x3511 JUMP JUMPDEST PUSH2 0x2F3F DUP4 DUP4 DUP4 PUSH0 PUSH2 0x38D4 JUMP JUMPDEST PUSH2 0x2F4A DUP4 DUP4 DUP4 PUSH2 0x3610 JUMP JUMPDEST PUSH2 0x3511 JUMP JUMPDEST DUP3 PUSH20 0xFFFFFFFFFFFFFFFFFFFFFFFFFFFFFFFFFFFFFFFF AND PUSH0 DUP1 DUP5 PUSH20 0xFFFFFFFFFFFFFFFFFFFFFFFFFFFFFFFFFFFFFFFF AND PUSH20 0xFFFFFFFFFFFFFFFFFFFFFFFFFFFFFFFFFFFFFFFF AND DUP2 MSTORE PUSH1 0x20 ADD SWAP1 DUP2 MSTORE PUSH1 0x20 ADD PUSH0 KECCAK256 PUSH1 0x6 ADD PUSH0 DUP4 PUSH1 0xFF AND PUSH1 0xFF AND DUP2 MSTORE PUSH1 0x20 ADD SWAP1 DUP2 MSTORE PUSH1 0x20 ADD PUSH0 KECCAK256 PUSH1 0x1 ADD PUSH1 0x1 DUP2 SLOAD DUP2 LT PUSH2 0x2FD0 JUMPI PUSH2 0x2FCF PUSH2 0x4B55 JUMP JUMPDEST JUMPDEST SWAP1 PUSH0 MSTORE PUSH1 0x20 PUSH0 KECCAK256 ADD PUSH0 SWAP1 SLOAD SWAP1 PUSH2 0x100 EXP SWAP1 DIV PUSH20 0xFFFFFFFFFFFFFFFFFFFFFFFFFFFFFFFFFFFFFFFF AND PUSH20 0xFFFFFFFFFFFFFFFFFFFFFFFFFFFFFFFFFFFFFFFF AND SUB PUSH2 0x302F JUMPI PUSH2 0x301F DUP4 DUP4 DUP4 PUSH0 PUSH2 0x38D4 JUMP JUMPDEST PUSH2 0x302A DUP4 DUP4 DUP4 PUSH2 0x3610 JUMP JUMPDEST PUSH2 0x3511 JUMP JUMPDEST DUP3 PUSH20 0xFFFFFFFFFFFFFFFFFFFFFFFFFFFFFFFFFFFFFFFF AND PUSH0 DUP1 DUP5 PUSH20 0xFFFFFFFFFFFFFFFFFFFFFFFFFFFFFFFFFFFFFFFF AND PUSH20 0xFFFFFFFFFFFFFFFFFFFFFFFFFFFFFFFFFFFFFFFF AND DUP2 MSTORE PUSH1 0x20 ADD SWAP1 DUP2 MSTORE PUSH1 0x20 ADD PUSH0 KECCAK256 PUSH1 0x6 ADD PUSH0 DUP4 PUSH1 0xFF AND PUSH1 0xFF AND DUP2 MSTORE PUSH1 0x20 ADD SWAP1 DUP2 MSTORE PUSH1 0x20 ADD PUSH0 KECCAK256 PUSH1 0x1 ADD PUSH0 DUP2 SLOAD DUP2 LT PUSH2 0x30AF JUMPI PUSH2 0x30AE PUSH2 0x4B55 JUMP JUMPDEST JUMPDEST SWAP1 PUSH0 MSTORE PUSH1 0x20 PUSH0 KECCAK256 ADD PUSH0 SWAP1 SLOAD SWAP1 PUSH2 0x100 EXP SWAP1 DIV PUSH20 0xFFFFFFFFFFFFFFFFFFFFFFFFFFFFFFFFFFFFFFFF AND PUSH20 0xFFFFFFFFFFFFFFFFFFFFFFFFFFFFFFFFFFFFFFFF AND SUB PUSH2 0x310F JUMPI PUSH2 0x30FF DUP4 DUP4 DUP4 PUSH1 0x1 PUSH2 0x38D4 JUMP JUMPDEST PUSH2 0x310A DUP4 DUP4 DUP4 PUSH2 0x3610 JUMP JUMPDEST PUSH2 0x3511 JUMP JUMPDEST PUSH1 0x2 PUSH0 DUP1 DUP5 PUSH20 0xFFFFFFFFFFFFFFFFFFFFFFFFFFFFFFFFFFFFFFFF AND PUSH20 0xFFFFFFFFFFFFFFFFFFFFFFFFFFFFFFFFFFFFFFFF AND DUP2 MSTORE PUSH1 0x20 ADD SWAP1 DUP2 MSTORE PUSH1 0x20 ADD PUSH0 KECCAK256 PUSH1 0x6 ADD PUSH0 DUP4 PUSH1 0xFF AND PUSH1 0xFF AND DUP2 MSTORE PUSH1 0x20 ADD SWAP1 DUP2 MSTORE PUSH1 0x20 ADD PUSH0 KECCAK256 PUSH1 0x1 ADD DUP1 SLOAD SWAP1 POP SUB PUSH2 0x33BF JUMPI PUSH0 DUP1 DUP4 PUSH20 0xFFFFFFFFFFFFFFFFFFFFFFFFFFFFFFFFFFFFFFFF AND PUSH20 0xFFFFFFFFFFFFFFFFFFFFFFFFFFFFFFFFFFFFFFFF AND DUP2 MSTORE PUSH1 0x20 ADD SWAP1 DUP2 MSTORE PUSH1 0x20 ADD PUSH0 KECCAK256 PUSH1 0x6 ADD PUSH0 DUP3 PUSH1 0xFF AND PUSH1 0xFF AND DUP2 MSTORE PUSH1 0x20 ADD SWAP1 DUP2 MSTORE PUSH1 0x20 ADD PUSH0 KECCAK256 PUSH1 0x1 ADD PUSH1 0x1 DUP2 SLOAD DUP2 LT PUSH2 0x31DB JUMPI PUSH2 0x31DA PUSH2 0x4B55 JUMP JUMPDEST JUMPDEST SWAP1 PUSH0 MSTORE PUSH1 0x20 PUSH0 KECCAK256 ADD PUSH0 SWAP1 SLOAD SWAP1 PUSH2 0x100 EXP SWAP1 DIV PUSH20 0xFFFFFFFFFFFFFFFFFFFFFFFFFFFFFFFFFFFFFFFF AND PUSH20 0xFFFFFFFFFFFFFFFFFFFFFFFFFFFFFFFFFFFFFFFF AND PUSH0 DUP1 DUP5 PUSH20 0xFFFFFFFFFFFFFFFFFFFFFFFFFFFFFFFFFFFFFFFF AND PUSH20 0xFFFFFFFFFFFFFFFFFFFFFFFFFFFFFFFFFFFFFFFF AND DUP2 MSTORE PUSH1 0x20 ADD SWAP1 DUP2 MSTORE PUSH1 0x20 ADD PUSH0 KECCAK256 PUSH1 0x6 ADD PUSH0 DUP4 PUSH1 0xFF AND PUSH1 0xFF AND DUP2 MSTORE PUSH1 0x20 ADD SWAP1 DUP2 MSTORE PUSH1 0x20 ADD PUSH0 KECCAK256 PUSH1 0x1 ADD PUSH0 DUP2 SLOAD DUP2 LT PUSH2 0x3282 JUMPI PUSH2 0x3281 PUSH2 0x4B55 JUMP JUMPDEST JUMPDEST SWAP1 PUSH0 MSTORE PUSH1 0x20 PUSH0 KECCAK256 ADD PUSH0 SWAP1 SLOAD SWAP1 PUSH2 0x100 EXP SWAP1 DIV PUSH20 0xFFFFFFFFFFFFFFFFFFFFFFFFFFFFFFFFFFFFFFFF AND PUSH20 0xFFFFFFFFFFFFFFFFFFFFFFFFFFFFFFFFFFFFFFFF AND SUB PUSH2 0x32D7 JUMPI PUSH2 0x32D2 DUP4 DUP4 DUP4 PUSH1 0x1 PUSH2 0x38D4 JUMP JUMPDEST PUSH2 0x33BA JUMP JUMPDEST DUP3 PUSH20 0xFFFFFFFFFFFFFFFFFFFFFFFFFFFFFFFFFFFFFFFF AND PUSH0 DUP1 DUP5 PUSH20 0xFFFFFFFFFFFFFFFFFFFFFFFFFFFFFFFFFFFFFFFF AND PUSH20 0xFFFFFFFFFFFFFFFFFFFFFFFFFFFFFFFFFFFFFFFF AND DUP2 MSTORE PUSH1 0x20 ADD SWAP1 DUP2 MSTORE PUSH1 0x20 ADD PUSH0 KECCAK256 PUSH1 0x6 ADD PUSH0 DUP4 PUSH1 0xFF AND PUSH1 0xFF AND DUP2 MSTORE PUSH1 0x20 ADD SWAP1 DUP2 MSTORE PUSH1 0x20 ADD PUSH0 KECCAK256 PUSH1 0x1 ADD PUSH0 DUP2 SLOAD DUP2 LT PUSH2 0x3357 JUMPI PUSH2 0x3356 PUSH2 0x4B55 JUMP JUMPDEST JUMPDEST SWAP1 PUSH0 MSTORE PUSH1 0x20 PUSH0 KECCAK256 ADD PUSH0 SWAP1 SLOAD SWAP1 PUSH2 0x100 EXP SWAP1 DIV PUSH20 0xFFFFFFFFFFFFFFFFFFFFFFFFFFFFFFFFFFFFFFFF AND PUSH20 0xFFFFFFFFFFFFFFFFFFFFFFFFFFFFFFFFFFFFFFFF AND SUB PUSH2 0x33AC JUMPI PUSH2 0x33A7 DUP4 DUP4 DUP4 PUSH1 0x1 PUSH2 0x38D4 JUMP JUMPDEST PUSH2 0x33B9 JUMP JUMPDEST PUSH2 0x33B8 DUP4 DUP4 DUP4 PUSH0 PUSH2 0x38D4 JUMP JUMPDEST JUMPDEST JUMPDEST PUSH2 0x3505 JUMP JUMPDEST PUSH1 0x1 PUSH0 DUP1 DUP5 PUSH20 0xFFFFFFFFFFFFFFFFFFFFFFFFFFFFFFFFFFFFFFFF AND PUSH20 0xFFFFFFFFFFFFFFFFFFFFFFFFFFFFFFFFFFFFFFFF AND DUP2 MSTORE PUSH1 0x20 ADD SWAP1 DUP2 MSTORE PUSH1 0x20 ADD PUSH0 KECCAK256 PUSH1 0x6 ADD PUSH0 DUP4 PUSH1 0xFF AND PUSH1 0xFF AND DUP2 MSTORE PUSH1 0x20 ADD SWAP1 DUP2 MSTORE PUSH1 0x20 ADD PUSH0 KECCAK256 PUSH1 0x1 ADD DUP1 SLOAD SWAP1 POP SUB PUSH2 0x3504 JUMPI DUP3 PUSH20 0xFFFFFFFFFFFFFFFFFFFFFFFFFFFFFFFFFFFFFFFF AND PUSH0 DUP1 DUP5 PUSH20 0xFFFFFFFFFFFFFFFFFFFFFFFFFFFFFFFFFFFFFFFF AND PUSH20 0xFFFFFFFFFFFFFFFFFFFFFFFFFFFFFFFFFFFFFFFF AND DUP2 MSTORE PUSH1 0x20 ADD SWAP1 DUP2 MSTORE PUSH1 0x20 ADD PUSH0 KECCAK256 PUSH1 0x6 ADD PUSH0 DUP4 PUSH1 0xFF AND PUSH1 0xFF AND DUP2 MSTORE PUSH1 0x20 ADD SWAP1 DUP2 MSTORE PUSH1 0x20 ADD PUSH0 KECCAK256 PUSH1 0x1 ADD PUSH0 DUP2 SLOAD DUP2 LT PUSH2 0x34A1 JUMPI PUSH2 0x34A0 PUSH2 0x4B55 JUMP JUMPDEST JUMPDEST SWAP1 PUSH0 MSTORE PUSH1 0x20 PUSH0 KECCAK256 ADD PUSH0 SWAP1 SLOAD SWAP1 PUSH2 0x100 EXP SWAP1 DIV PUSH20 0xFFFFFFFFFFFFFFFFFFFFFFFFFFFFFFFFFFFFFFFF AND PUSH20 0xFFFFFFFFFFFFFFFFFFFFFFFFFFFFFFFFFFFFFFFF AND SUB PUSH2 0x34F6 JUMPI PUSH2 0x34F1 DUP4 DUP4 DUP4 PUSH1 0x1 PUSH2 0x38D4 JUMP JUMPDEST PUSH2 0x3503 JUMP JUMPDEST PUSH2 0x3502 DUP4 DUP4 DUP4 PUSH0 PUSH2 0x38D4 JUMP JUMPDEST JUMPDEST JUMPDEST JUMPDEST PUSH2 0x3510 DUP4 DUP4 DUP4 PUSH2 0x3610 JUMP JUMPDEST JUMPDEST POP POP POP JUMP JUMPDEST PUSH0 DUP5 PUSH20 0xFFFFFFFFFFFFFFFFFFFFFFFFFFFFFFFFFFFFFFFF AND PUSH1 0x6 PUSH0 DUP5 PUSH1 0xFF AND PUSH1 0xFF AND DUP2 MSTORE PUSH1 0x20 ADD SWAP1 DUP2 MSTORE PUSH1 0x20 ADD PUSH0 KECCAK256 SLOAD PUSH1 0x40 MLOAD PUSH2 0x3552 SWAP1 PUSH2 0x4BE2 JUMP JUMPDEST PUSH0 PUSH1 0x40 MLOAD DUP1 DUP4 SUB DUP2 DUP6 DUP8 GAS CALL SWAP3 POP POP POP RETURNDATASIZE DUP1 PUSH0 DUP2 EQ PUSH2 0x358C JUMPI PUSH1 0x40 MLOAD SWAP2 POP PUSH1 0x1F NOT PUSH1 0x3F RETURNDATASIZE ADD AND DUP3 ADD PUSH1 0x40 MSTORE RETURNDATASIZE DUP3 MSTORE RETURNDATASIZE PUSH0 PUSH1 0x20 DUP5 ADD RETURNDATACOPY PUSH2 0x3591 JUMP JUMPDEST PUSH1 0x60 SWAP2 POP JUMPDEST POP POP SWAP1 POP DUP1 ISZERO PUSH2 0x35A1 JUMPI POP PUSH2 0x360A JUMP JUMPDEST DUP4 PUSH20 0xFFFFFFFFFFFFFFFFFFFFFFFFFFFFFFFFFFFFFFFF AND DUP6 PUSH20 0xFFFFFFFFFFFFFFFFFFFFFFFFFFFFFFFFFFFFFFFF AND PUSH32 0xFC0CB63F8DBD6B20CEB84A3C5358A41576A1479E6ECD040B4B985525DC09A709 DUP6 DUP6 PUSH1 0x40 MLOAD PUSH2 0x3600 SWAP3 SWAP2 SWAP1 PUSH2 0x4BF6 JUMP JUMPDEST PUSH1 0x40 MLOAD DUP1 SWAP2 SUB SWAP1 LOG3 POP JUMPDEST POP POP POP POP JUMP JUMPDEST PUSH1 0x4 PUSH0 DUP1 DUP5 PUSH20 0xFFFFFFFFFFFFFFFFFFFFFFFFFFFFFFFFFFFFFFFF AND PUSH20 0xFFFFFFFFFFFFFFFFFFFFFFFFFFFFFFFFFFFFFFFF AND DUP2 MSTORE PUSH1 0x20 ADD SWAP1 DUP2 MSTORE PUSH1 0x20 ADD PUSH0 KECCAK256 PUSH1 0x6 ADD PUSH0 DUP4 PUSH1 0xFF AND PUSH1 0xFF AND DUP2 MSTORE PUSH1 0x20 ADD SWAP1 DUP2 MSTORE PUSH1 0x20 ADD PUSH0 KECCAK256 PUSH1 0x2 ADD DUP1 SLOAD SWAP1 POP LT ISZERO PUSH2 0x3685 JUMPI PUSH2 0x3680 DUP3 DUP5 PUSH1 0x2 DUP5 PUSH2 0x3516 JUMP JUMPDEST PUSH2 0x38CF JUMP JUMPDEST PUSH0 DUP1 PUSH0 DUP5 PUSH20 0xFFFFFFFFFFFFFFFFFFFFFFFFFFFFFFFFFFFFFFFF AND PUSH20 0xFFFFFFFFFFFFFFFFFFFFFFFFFFFFFFFFFFFFFFFF AND DUP2 MSTORE PUSH1 0x20 ADD SWAP1 DUP2 MSTORE PUSH1 0x20 ADD PUSH0 KECCAK256 PUSH1 0x6 ADD PUSH0 DUP4 PUSH1 0xFF AND PUSH1 0xFF AND DUP2 MSTORE PUSH1 0x20 ADD SWAP1 DUP2 MSTORE PUSH1 0x20 ADD PUSH0 KECCAK256 PUSH1 0x1 ADD DUP1 SLOAD DUP1 PUSH1 0x20 MUL PUSH1 0x20 ADD PUSH1 0x40 MLOAD SWAP1 DUP2 ADD PUSH1 0x40 MSTORE DUP1 SWAP3 SWAP2 SWAP1 DUP2 DUP2 MSTORE PUSH1 0x20 ADD DUP3 DUP1 SLOAD DUP1 ISZERO PUSH2 0x375A JUMPI PUSH1 0x20 MUL DUP3 ADD SWAP2 SWAP1 PUSH0 MSTORE PUSH1 0x20 PUSH0 KECCAK256 SWAP1 JUMPDEST DUP2 PUSH0 SWAP1 SLOAD SWAP1 PUSH2 0x100 EXP SWAP1 DIV PUSH20 0xFFFFFFFFFFFFFFFFFFFFFFFFFFFFFFFFFFFFFFFF AND PUSH20 0xFFFFFFFFFFFFFFFFFFFFFFFFFFFFFFFFFFFFFFFF AND DUP2 MSTORE PUSH1 0x20 ADD SWAP1 PUSH1 0x1 ADD SWAP1 DUP1 DUP4 GT PUSH2 0x3711 JUMPI JUMPDEST POP POP POP POP POP SWAP1 POP PUSH1 0x2 DUP2 MLOAD SUB PUSH2 0x3856 JUMPI DUP1 PUSH1 0x1 DUP2 MLOAD DUP2 LT PUSH2 0x377E JUMPI PUSH2 0x377D PUSH2 0x4B55 JUMP JUMPDEST JUMPDEST PUSH1 0x20 MUL PUSH1 0x20 ADD ADD MLOAD PUSH20 0xFFFFFFFFFFFFFFFFFFFFFFFFFFFFFFFFFFFFFFFF AND DUP2 PUSH0 DUP2 MLOAD DUP2 LT PUSH2 0x37AF JUMPI PUSH2 0x37AE PUSH2 0x4B55 JUMP JUMPDEST JUMPDEST PUSH1 0x20 MUL PUSH1 0x20 ADD ADD MLOAD PUSH20 0xFFFFFFFFFFFFFFFFFFFFFFFFFFFFFFFFFFFFFFFF AND SUB PUSH2 0x37E4 JUMPI PUSH2 0x37DF DUP5 DUP5 DUP5 PUSH1 0x1 PUSH2 0x38D4 JUMP JUMPDEST PUSH2 0x3851 JUMP JUMPDEST DUP4 PUSH20 0xFFFFFFFFFFFFFFFFFFFFFFFFFFFFFFFFFFFFFFFF AND DUP2 PUSH0 DUP2 MLOAD DUP2 LT PUSH2 0x380E JUMPI PUSH2 0x380D PUSH2 0x4B55 JUMP JUMPDEST JUMPDEST PUSH1 0x20 MUL PUSH1 0x20 ADD ADD MLOAD PUSH20 0xFFFFFFFFFFFFFFFFFFFFFFFFFFFFFFFFFFFFFFFF AND SUB PUSH2 0x3843 JUMPI PUSH2 0x383E DUP5 DUP5 DUP5 PUSH1 0x1 PUSH2 0x38D4 JUMP JUMPDEST PUSH2 0x3850 JUMP JUMPDEST PUSH2 0x384F DUP5 DUP5 DUP5 PUSH0 PUSH2 0x38D4 JUMP JUMPDEST JUMPDEST JUMPDEST PUSH2 0x38CD JUMP JUMPDEST PUSH1 0x1 DUP2 MLOAD SUB PUSH2 0x38CC JUMPI DUP4 PUSH20 0xFFFFFFFFFFFFFFFFFFFFFFFFFFFFFFFFFFFFFFFF AND DUP2 PUSH0 DUP2 MLOAD DUP2 LT PUSH2 0x3889 JUMPI PUSH2 0x3888 PUSH2 0x4B55 JUMP JUMPDEST JUMPDEST PUSH1 0x20 MUL PUSH1 0x20 ADD ADD MLOAD PUSH20 0xFFFFFFFFFFFFFFFFFFFFFFFFFFFFFFFFFFFFFFFF AND SUB PUSH2 0x38BE JUMPI PUSH2 0x38B9 DUP5 DUP5 DUP5 PUSH1 0x1 PUSH2 0x38D4 JUMP JUMPDEST PUSH2 0x38CB JUMP JUMPDEST PUSH2 0x38CA DUP5 DUP5 DUP5 PUSH0 PUSH2 0x38D4 JUMP JUMPDEST JUMPDEST JUMPDEST JUMPDEST POP JUMPDEST POP POP POP JUMP JUMPDEST DUP1 PUSH2 0x396F JUMPI DUP4 PUSH0 DUP1 DUP6 PUSH20 0xFFFFFFFFFFFFFFFFFFFFFFFFFFFFFFFFFFFFFFFF AND PUSH20 0xFFFFFFFFFFFFFFFFFFFFFFFFFFFFFFFFFFFFFFFF AND DUP2 MSTORE PUSH1 0x20 ADD SWAP1 DUP2 MSTORE PUSH1 0x20 ADD PUSH0 KECCAK256 PUSH1 0x6 ADD PUSH0 DUP5 PUSH1 0xFF AND PUSH1 0xFF AND DUP2 MSTORE PUSH1 0x20 ADD SWAP1 DUP2 MSTORE PUSH1 0x20 ADD PUSH0 KECCAK256 PUSH1 0x5 ADD PUSH0 PUSH2 0x100 EXP DUP2 SLOAD DUP2 PUSH20 0xFFFFFFFFFFFFFFFFFFFFFFFFFFFFFFFFFFFFFFFF MUL NOT AND SWAP1 DUP4 PUSH20 0xFFFFFFFFFFFFFFFFFFFFFFFFFFFFFFFFFFFFFFFF AND MUL OR SWAP1 SSTORE POP JUMPDEST PUSH0 DUP1 DUP5 PUSH20 0xFFFFFFFFFFFFFFFFFFFFFFFFFFFFFFFFFFFFFFFF AND PUSH20 0xFFFFFFFFFFFFFFFFFFFFFFFFFFFFFFFFFFFFFFFF AND DUP2 MSTORE PUSH1 0x20 ADD SWAP1 DUP2 MSTORE PUSH1 0x20 ADD PUSH0 KECCAK256 PUSH1 0x6 ADD PUSH0 DUP4 PUSH1 0xFF AND PUSH1 0xFF AND DUP2 MSTORE PUSH1 0x20 ADD SWAP1 DUP2 MSTORE PUSH1 0x20 ADD PUSH0 KECCAK256 PUSH1 0x2 ADD DUP5 SWAP1 DUP1 PUSH1 0x1 DUP2 SLOAD ADD DUP1 DUP3 SSTORE DUP1 SWAP2 POP POP PUSH1 0x1 SWAP1 SUB SWAP1 PUSH0 MSTORE PUSH1 0x20 PUSH0 KECCAK256 ADD PUSH0 SWAP1 SWAP2 SWAP1 SWAP2 SWAP1 SWAP2 PUSH2 0x100 EXP DUP2 SLOAD DUP2 PUSH20 0xFFFFFFFFFFFFFFFFFFFFFFFFFFFFFFFFFFFFFFFF MUL NOT AND SWAP1 DUP4 PUSH20 0xFFFFFFFFFFFFFFFFFFFFFFFFFFFFFFFFFFFFFFFF AND MUL OR SWAP1 SSTORE POP PUSH1 0x4 PUSH0 DUP1 DUP6 PUSH20 0xFFFFFFFFFFFFFFFFFFFFFFFFFFFFFFFFFFFFFFFF AND PUSH20 0xFFFFFFFFFFFFFFFFFFFFFFFFFFFFFFFFFFFFFFFF AND DUP2 MSTORE PUSH1 0x20 ADD SWAP1 DUP2 MSTORE PUSH1 0x20 ADD PUSH0 KECCAK256 PUSH1 0x6 ADD PUSH0 DUP5 PUSH1 0xFF AND PUSH1 0xFF AND DUP2 MSTORE PUSH1 0x20 ADD SWAP1 DUP2 MSTORE PUSH1 0x20 ADD PUSH0 KECCAK256 PUSH1 0x2 ADD DUP1 SLOAD SWAP1 POP LT ISZERO PUSH2 0x3B69 JUMPI DUP3 PUSH20 0xFFFFFFFFFFFFFFFFFFFFFFFFFFFFFFFFFFFFFFFF AND DUP5 PUSH20 0xFFFFFFFFFFFFFFFFFFFFFFFFFFFFFFFFFFFFFFFF AND PUSH32 0x68062C5925C4317ADF3A7095478D28B33FD8B41458BC7620B61BC46BF1B24D82 PUSH1 0x2 DUP6 PUSH1 0x2 PUSH0 DUP1 DUP11 PUSH20 0xFFFFFFFFFFFFFFFFFFFFFFFFFFFFFFFFFFFFFFFF AND PUSH20 0xFFFFFFFFFFFFFFFFFFFFFFFFFFFFFFFFFFFFFFFF AND DUP2 MSTORE PUSH1 0x20 ADD SWAP1 DUP2 MSTORE PUSH1 0x20 ADD PUSH0 KECCAK256 PUSH1 0x6 ADD PUSH0 DUP10 PUSH1 0xFF AND PUSH1 0xFF AND DUP2 MSTORE PUSH1 0x20 ADD SWAP1 DUP2 MSTORE PUSH1 0x20 ADD PUSH0 KECCAK256 PUSH1 0x2 ADD DUP1 SLOAD SWAP1 POP PUSH2 0x3B40 SWAP2 SWAP1 PUSH2 0x4B82 JUMP JUMPDEST PUSH1 0x40 MLOAD PUSH2 0x3B4F SWAP4 SWAP3 SWAP2 SWAP1 PUSH2 0x4B20 JUMP JUMPDEST PUSH1 0x40 MLOAD DUP1 SWAP2 SUB SWAP1 LOG3 PUSH2 0x3B64 DUP4 DUP6 PUSH1 0x2 DUP6 PUSH2 0x3516 JUMP JUMPDEST PUSH2 0x3FAB JUMP JUMPDEST DUP3 PUSH20 0xFFFFFFFFFFFFFFFFFFFFFFFFFFFFFFFFFFFFFFFF AND DUP5 PUSH20 0xFFFFFFFFFFFFFFFFFFFFFFFFFFFFFFFFFFFFFFFF AND PUSH32 0x68062C5925C4317ADF3A7095478D28B33FD8B41458BC7620B61BC46BF1B24D82 PUSH1 0x2 DUP6 PUSH1 0x6 PUSH1 0x40 MLOAD PUSH2 0x3BCC SWAP4 SWAP3 SWAP2 SWAP1 PUSH2 0x4C56 JUMP JUMPDEST PUSH1 0x40 MLOAD DUP1 SWAP2 SUB SWAP1 LOG3 PUSH0 PUSH8 0xFFFFFFFFFFFFFFFF DUP2 GT ISZERO PUSH2 0x3BEE JUMPI PUSH2 0x3BED PUSH2 0x4A57 JUMP JUMPDEST JUMPDEST PUSH1 0x40 MLOAD SWAP1 DUP1 DUP3 MSTORE DUP1 PUSH1 0x20 MUL PUSH1 0x20 ADD DUP3 ADD PUSH1 0x40 MSTORE DUP1 ISZERO PUSH2 0x3C1C JUMPI DUP2 PUSH1 0x20 ADD PUSH1 0x20 DUP3 MUL DUP1 CALLDATASIZE DUP4 CALLDATACOPY DUP1 DUP3 ADD SWAP2 POP POP SWAP1 POP JUMPDEST POP PUSH0 DUP1 DUP6 PUSH20 0xFFFFFFFFFFFFFFFFFFFFFFFFFFFFFFFFFFFFFFFF AND PUSH20 0xFFFFFFFFFFFFFFFFFFFFFFFFFFFFFFFFFFFFFFFF AND DUP2 MSTORE PUSH1 0x20 ADD SWAP1 DUP2 MSTORE PUSH1 0x20 ADD PUSH0 KECCAK256 PUSH1 0x6 ADD PUSH0 DUP5 PUSH1 0xFF AND PUSH1 0xFF AND DUP2 MSTORE PUSH1 0x20 ADD SWAP1 DUP2 MSTORE PUSH1 0x20 ADD PUSH0 KECCAK256 PUSH1 0x2 ADD SWAP1 DUP1 MLOAD SWAP1 PUSH1 0x20 ADD SWAP1 PUSH2 0x3C87 SWAP3 SWAP2 SWAP1 PUSH2 0x3FB1 JUMP JUMPDEST POP PUSH0 DUP1 DUP5 PUSH20 0xFFFFFFFFFFFFFFFFFFFFFFFFFFFFFFFFFFFFFFFF AND PUSH20 0xFFFFFFFFFFFFFFFFFFFFFFFFFFFFFFFFFFFFFFFF AND DUP2 MSTORE PUSH1 0x20 ADD SWAP1 DUP2 MSTORE PUSH1 0x20 ADD PUSH0 KECCAK256 PUSH1 0x4 ADD PUSH0 PUSH1 0x1 DUP5 PUSH2 0x3CD5 SWAP2 SWAP1 PUSH2 0x4A84 JUMP JUMPDEST PUSH1 0xFF AND PUSH1 0xFF AND DUP2 MSTORE PUSH1 0x20 ADD SWAP1 DUP2 MSTORE PUSH1 0x20 ADD PUSH0 KECCAK256 PUSH0 SWAP1 SLOAD SWAP1 PUSH2 0x100 EXP SWAP1 DIV PUSH1 0xFF AND ISZERO DUP1 ISZERO PUSH2 0x3D09 JUMPI POP PUSH1 0xC PUSH1 0xFF AND DUP3 PUSH1 0xFF AND EQ ISZERO JUMPDEST ISZERO PUSH2 0x3D7E JUMPI PUSH1 0x1 PUSH0 DUP1 DUP6 PUSH20 0xFFFFFFFFFFFFFFFFFFFFFFFFFFFFFFFFFFFFFFFF AND PUSH20 0xFFFFFFFFFFFFFFFFFFFFFFFFFFFFFFFFFFFFFFFF AND DUP2 MSTORE PUSH1 0x20 ADD SWAP1 DUP2 MSTORE PUSH1 0x20 ADD PUSH0 KECCAK256 PUSH1 0x6 ADD PUSH0 DUP5 PUSH1 0xFF AND PUSH1 0xFF AND DUP2 MSTORE PUSH1 0x20 ADD SWAP1 DUP2 MSTORE PUSH1 0x20 ADD PUSH0 KECCAK256 PUSH1 0x3 ADD PUSH0 PUSH2 0x100 EXP DUP2 SLOAD DUP2 PUSH1 0xFF MUL NOT AND SWAP1 DUP4 ISZERO ISZERO MUL OR SWAP1 SSTORE POP JUMPDEST PUSH0 DUP1 DUP5 PUSH20 0xFFFFFFFFFFFFFFFFFFFFFFFFFFFFFFFFFFFFFFFF AND PUSH20 0xFFFFFFFFFFFFFFFFFFFFFFFFFFFFFFFFFFFFFFFF AND DUP2 MSTORE PUSH1 0x20 ADD SWAP1 DUP2 MSTORE PUSH1 0x20 ADD PUSH0 KECCAK256 PUSH1 0x6 ADD PUSH0 DUP4 PUSH1 0xFF AND PUSH1 0xFF AND DUP2 MSTORE PUSH1 0x20 ADD SWAP1 DUP2 MSTORE PUSH1 0x20 ADD PUSH0 KECCAK256 PUSH1 0x4 ADD PUSH0 DUP2 SLOAD DUP1 SWAP3 SWAP2 SWAP1 PUSH2 0x3DE5 SWAP1 PUSH2 0x4642 JUMP JUMPDEST SWAP2 SWAP1 POP SSTORE POP PUSH1 0x5 PUSH0 SWAP1 SLOAD SWAP1 PUSH2 0x100 EXP SWAP1 DIV PUSH20 0xFFFFFFFFFFFFFFFFFFFFFFFFFFFFFFFFFFFFFFFF AND PUSH20 0xFFFFFFFFFFFFFFFFFFFFFFFFFFFFFFFFFFFFFFFF AND DUP4 PUSH20 0xFFFFFFFFFFFFFFFFFFFFFFFFFFFFFFFFFFFFFFFF AND EQ PUSH2 0x3EDB JUMPI PUSH0 PUSH2 0x3E49 DUP5 DUP5 PUSH2 0x1866 JUMP JUMPDEST SWAP1 POP DUP5 PUSH20 0xFFFFFFFFFFFFFFFFFFFFFFFFFFFFFFFFFFFFFFFF AND DUP2 PUSH20 0xFFFFFFFFFFFFFFFFFFFFFFFFFFFFFFFFFFFFFFFF AND DUP6 PUSH20 0xFFFFFFFFFFFFFFFFFFFFFFFFFFFFFFFFFFFFFFFF AND PUSH32 0xA00C953EFF38EC1B71E7FE060B2AB8DF0BBE5354319FBDDE4FBDAFD6324386A6 PUSH1 0x2 DUP8 PUSH1 0x40 MLOAD PUSH2 0x3EC2 SWAP3 SWAP2 SWAP1 PUSH2 0x498D JUMP JUMPDEST PUSH1 0x40 MLOAD DUP1 SWAP2 SUB SWAP1 LOG4 PUSH2 0x3ED5 DUP5 DUP3 DUP6 PUSH2 0x23BA JUMP JUMPDEST POP PUSH2 0x3FAA JUMP JUMPDEST PUSH2 0x3F09 PUSH1 0x5 PUSH0 SWAP1 SLOAD SWAP1 PUSH2 0x100 EXP SWAP1 DIV PUSH20 0xFFFFFFFFFFFFFFFFFFFFFFFFFFFFFFFFFFFFFFFF AND DUP6 PUSH1 0x2 DUP6 PUSH2 0x3516 JUMP JUMPDEST DUP4 PUSH20 0xFFFFFFFFFFFFFFFFFFFFFFFFFFFFFFFFFFFFFFFF AND PUSH0 PUSH20 0xFFFFFFFFFFFFFFFFFFFFFFFFFFFFFFFFFFFFFFFF AND PUSH1 0x5 PUSH0 SWAP1 SLOAD SWAP1 PUSH2 0x100 EXP SWAP1 DIV PUSH20 0xFFFFFFFFFFFFFFFFFFFFFFFFFFFFFFFFFFFFFFFF AND PUSH20 0xFFFFFFFFFFFFFFFFFFFFFFFFFFFFFFFFFFFFFFFF AND PUSH32 0xA00C953EFF38EC1B71E7FE060B2AB8DF0BBE5354319FBDDE4FBDAFD6324386A6 PUSH1 0x2 DUP7 PUSH1 0x40 MLOAD PUSH2 0x3FA1 SWAP3 SWAP2 SWAP1 PUSH2 0x498D JUMP JUMPDEST PUSH1 0x40 MLOAD DUP1 SWAP2 SUB SWAP1 LOG4 JUMPDEST JUMPDEST POP POP POP POP JUMP JUMPDEST DUP3 DUP1 SLOAD DUP3 DUP3 SSTORE SWAP1 PUSH0 MSTORE PUSH1 0x20 PUSH0 KECCAK256 SWAP1 DUP2 ADD SWAP3 DUP3 ISZERO PUSH2 0x4027 JUMPI SWAP2 PUSH1 0x20 MUL DUP3 ADD JUMPDEST DUP3 DUP2 GT ISZERO PUSH2 0x4026 JUMPI DUP3 MLOAD DUP3 PUSH0 PUSH2 0x100 EXP DUP2 SLOAD DUP2 PUSH20 0xFFFFFFFFFFFFFFFFFFFFFFFFFFFFFFFFFFFFFFFF MUL NOT AND SWAP1 DUP4 PUSH20 0xFFFFFFFFFFFFFFFFFFFFFFFFFFFFFFFFFFFFFFFF AND MUL OR SWAP1 SSTORE POP SWAP2 PUSH1 0x20 ADD SWAP2 SWAP1 PUSH1 0x1 ADD SWAP1 PUSH2 0x3FCF JUMP JUMPDEST JUMPDEST POP SWAP1 POP PUSH2 0x4034 SWAP2 SWAP1 PUSH2 0x4038 JUMP JUMPDEST POP SWAP1 JUMP JUMPDEST JUMPDEST DUP1 DUP3 GT ISZERO PUSH2 0x404F JUMPI PUSH0 DUP2 PUSH0 SWAP1 SSTORE POP PUSH1 0x1 ADD PUSH2 0x4039 JUMP JUMPDEST POP SWAP1 JUMP JUMPDEST PUSH0 DUP1 REVERT JUMPDEST PUSH0 PUSH20 0xFFFFFFFFFFFFFFFFFFFFFFFFFFFFFFFFFFFFFFFF DUP3 AND SWAP1 POP SWAP2 SWAP1 POP JUMP JUMPDEST PUSH0 PUSH2 0x4080 DUP3 PUSH2 0x4057 JUMP JUMPDEST SWAP1 POP SWAP2 SWAP1 POP JUMP JUMPDEST PUSH2 0x4090 DUP2 PUSH2 0x4076 JUMP JUMPDEST DUP2 EQ PUSH2 0x409A JUMPI PUSH0 DUP1 REVERT JUMPDEST POP JUMP JUMPDEST PUSH0 DUP2 CALLDATALOAD SWAP1 POP PUSH2 0x40AB DUP2 PUSH2 0x4087 JUMP JUMPDEST SWAP3 SWAP2 POP POP JUMP JUMPDEST PUSH0 PUSH1 0xFF DUP3 AND SWAP1 POP SWAP2 SWAP1 POP JUMP JUMPDEST PUSH2 0x40C6 DUP2 PUSH2 0x40B1 JUMP JUMPDEST DUP2 EQ PUSH2 0x40D0 JUMPI PUSH0 DUP1 REVERT JUMPDEST POP JUMP JUMPDEST PUSH0 DUP2 CALLDATALOAD SWAP1 POP PUSH2 0x40E1 DUP2 PUSH2 0x40BD JUMP JUMPDEST SWAP3 SWAP2 POP POP JUMP JUMPDEST PUSH0 DUP1 PUSH1 0x40 DUP4 DUP6 SUB SLT ISZERO PUSH2 0x40FD JUMPI PUSH2 0x40FC PUSH2 0x4053 JUMP JUMPDEST JUMPDEST PUSH0 PUSH2 0x410A DUP6 DUP3 DUP7 ADD PUSH2 0x409D JUMP JUMPDEST SWAP3 POP POP PUSH1 0x20 PUSH2 0x411B DUP6 DUP3 DUP7 ADD PUSH2 0x40D3 JUMP JUMPDEST SWAP2 POP POP SWAP3 POP SWAP3 SWAP1 POP JUMP JUMPDEST PUSH0 DUP2 ISZERO ISZERO SWAP1 POP SWAP2 SWAP1 POP JUMP JUMPDEST PUSH2 0x4139 DUP2 PUSH2 0x4125 JUMP JUMPDEST DUP3 MSTORE POP POP JUMP JUMPDEST PUSH0 PUSH1 0x20 DUP3 ADD SWAP1 POP PUSH2 0x4152 PUSH0 DUP4 ADD DUP5 PUSH2 0x4130 JUMP JUMPDEST SWAP3 SWAP2 POP POP JUMP JUMPDEST PUSH0 PUSH1 0x20 DUP3 DUP5 SUB SLT ISZERO PUSH2 0x416D JUMPI PUSH2 0x416C PUSH2 0x4053 JUMP JUMPDEST JUMPDEST PUSH0 PUSH2 0x417A DUP5 DUP3 DUP6 ADD PUSH2 0x409D JUMP JUMPDEST SWAP2 POP POP SWAP3 SWAP2 POP POP JUMP JUMPDEST PUSH0 DUP2 SWAP1 POP SWAP2 SWAP1 POP JUMP JUMPDEST PUSH2 0x4195 DUP2 PUSH2 0x4183 JUMP JUMPDEST DUP3 MSTORE POP POP JUMP JUMPDEST PUSH0 PUSH1 0x20 DUP3 ADD SWAP1 POP PUSH2 0x41AE PUSH0 DUP4 ADD DUP5 PUSH2 0x418C JUMP JUMPDEST SWAP3 SWAP2 POP POP JUMP JUMPDEST PUSH2 0x41BD DUP2 PUSH2 0x40B1 JUMP JUMPDEST DUP3 MSTORE POP POP JUMP JUMPDEST PUSH0 PUSH1 0x20 DUP3 ADD SWAP1 POP PUSH2 0x41D6 PUSH0 DUP4 ADD DUP5 PUSH2 0x41B4 JUMP JUMPDEST SWAP3 SWAP2 POP POP JUMP JUMPDEST PUSH2 0x41E5 DUP2 PUSH2 0x4183 JUMP JUMPDEST DUP2 EQ PUSH2 0x41EF JUMPI PUSH0 DUP1 REVERT JUMPDEST POP JUMP JUMPDEST PUSH0 DUP2 CALLDATALOAD SWAP1 POP PUSH2 0x4200 DUP2 PUSH2 0x41DC JUMP JUMPDEST SWAP3 SWAP2 POP POP JUMP JUMPDEST PUSH0 PUSH1 0x20 DUP3 DUP5 SUB SLT ISZERO PUSH2 0x421B JUMPI PUSH2 0x421A PUSH2 0x4053 JUMP JUMPDEST JUMPDEST PUSH0 PUSH2 0x4228 DUP5 DUP3 DUP6 ADD PUSH2 0x41F2 JUMP JUMPDEST SWAP2 POP POP SWAP3 SWAP2 POP POP JUMP JUMPDEST PUSH2 0x423A DUP2 PUSH2 0x4076 JUMP JUMPDEST DUP3 MSTORE POP POP JUMP JUMPDEST PUSH0 PUSH1 0x20 DUP3 ADD SWAP1 POP PUSH2 0x4253 PUSH0 DUP4 ADD DUP5 PUSH2 0x4231 JUMP JUMPDEST SWAP3 SWAP2 POP POP JUMP JUMPDEST PUSH0 DUP2 MLOAD SWAP1 POP SWAP2 SWAP1 POP JUMP JUMPDEST PUSH0 DUP3 DUP3 MSTORE PUSH1 0x20 DUP3 ADD SWAP1 POP SWAP3 SWAP2 POP POP JUMP JUMPDEST PUSH0 DUP2 SWAP1 POP PUSH1 0x20 DUP3 ADD SWAP1 POP SWAP2 SWAP1 POP JUMP JUMPDEST PUSH2 0x428B DUP2 PUSH2 0x4076 JUMP JUMPDEST DUP3 MSTORE POP POP JUMP JUMPDEST PUSH0 PUSH2 0x429C DUP4 DUP4 PUSH2 0x4282 JUMP JUMPDEST PUSH1 0x20 DUP4 ADD SWAP1 POP SWAP3 SWAP2 POP POP JUMP JUMPDEST PUSH0 PUSH1 0x20 DUP3 ADD SWAP1 POP SWAP2 SWAP1 POP JUMP JUMPDEST PUSH0 PUSH2 0x42BE DUP3 PUSH2 0x4259 JUMP JUMPDEST PUSH2 0x42C8 DUP2 DUP6 PUSH2 0x4263 JUMP JUMPDEST SWAP4 POP PUSH2 0x42D3 DUP4 PUSH2 0x4273 JUMP JUMPDEST DUP1 PUSH0 JUMPDEST DUP4 DUP2 LT ISZERO PUSH2 0x4303 JUMPI DUP2 MLOAD PUSH2 0x42EA DUP9 DUP3 PUSH2 0x4291 JUMP JUMPDEST SWAP8 POP PUSH2 0x42F5 DUP4 PUSH2 0x42A8 JUMP JUMPDEST SWAP3 POP POP PUSH1 0x1 DUP2 ADD SWAP1 POP PUSH2 0x42D6 JUMP JUMPDEST POP DUP6 SWAP4 POP POP POP POP SWAP3 SWAP2 POP POP JUMP JUMPDEST PUSH0 PUSH1 0x80 DUP3 ADD SWAP1 POP PUSH2 0x4323 PUSH0 DUP4 ADD DUP8 PUSH2 0x4231 JUMP JUMPDEST DUP2 DUP2 SUB PUSH1 0x20 DUP4 ADD MSTORE PUSH2 0x4335 DUP2 DUP7 PUSH2 0x42B4 JUMP JUMPDEST SWAP1 POP PUSH2 0x4344 PUSH1 0x40 DUP4 ADD DUP6 PUSH2 0x4130 JUMP JUMPDEST PUSH2 0x4351 PUSH1 0x60 DUP4 ADD DUP5 PUSH2 0x418C JUMP JUMPDEST SWAP6 SWAP5 POP POP POP POP POP JUMP JUMPDEST PUSH0 PUSH1 0xC0 DUP3 ADD SWAP1 POP PUSH2 0x436D PUSH0 DUP4 ADD DUP10 PUSH2 0x4231 JUMP JUMPDEST DUP2 DUP2 SUB PUSH1 0x20 DUP4 ADD MSTORE PUSH2 0x437F DUP2 DUP9 PUSH2 0x42B4 JUMP JUMPDEST SWAP1 POP DUP2 DUP2 SUB PUSH1 0x40 DUP4 ADD MSTORE PUSH2 0x4393 DUP2 DUP8 PUSH2 0x42B4 JUMP JUMPDEST SWAP1 POP PUSH2 0x43A2 PUSH1 0x60 DUP4 ADD DUP7 PUSH2 0x4130 JUMP JUMPDEST PUSH2 0x43AF PUSH1 0x80 DUP4 ADD DUP6 PUSH2 0x418C JUMP JUMPDEST PUSH2 0x43BC PUSH1 0xA0 DUP4 ADD DUP5 PUSH2 0x4231 JUMP JUMPDEST SWAP8 SWAP7 POP POP POP POP POP POP POP JUMP JUMPDEST PUSH0 PUSH1 0x60 DUP3 ADD SWAP1 POP PUSH2 0x43DA PUSH0 DUP4 ADD DUP7 PUSH2 0x418C JUMP JUMPDEST PUSH2 0x43E7 PUSH1 0x20 DUP4 ADD DUP6 PUSH2 0x4231 JUMP JUMPDEST PUSH2 0x43F4 PUSH1 0x40 DUP4 ADD DUP5 PUSH2 0x418C JUMP JUMPDEST SWAP5 SWAP4 POP POP POP POP JUMP JUMPDEST PUSH0 DUP1 PUSH1 0x40 DUP4 DUP6 SUB SLT ISZERO PUSH2 0x4412 JUMPI PUSH2 0x4411 PUSH2 0x4053 JUMP JUMPDEST JUMPDEST PUSH0 PUSH2 0x441F DUP6 DUP3 DUP7 ADD PUSH2 0x40D3 JUMP JUMPDEST SWAP3 POP POP PUSH1 0x20 PUSH2 0x4430 DUP6 DUP3 DUP7 ADD PUSH2 0x40D3 JUMP JUMPDEST SWAP2 POP POP SWAP3 POP SWAP3 SWAP1 POP JUMP JUMPDEST PUSH0 PUSH1 0x20 DUP3 DUP5 SUB SLT ISZERO PUSH2 0x444F JUMPI PUSH2 0x444E PUSH2 0x4053 JUMP JUMPDEST JUMPDEST PUSH0 PUSH2 0x445C DUP5 DUP3 DUP6 ADD PUSH2 0x40D3 JUMP JUMPDEST SWAP2 POP POP SWAP3 SWAP2 POP POP JUMP JUMPDEST PUSH0 DUP3 DUP3 MSTORE PUSH1 0x20 DUP3 ADD SWAP1 POP SWAP3 SWAP2 POP POP JUMP JUMPDEST PUSH32 0x526567697374726174696F6E20636F737420302E303520455448000000000000 PUSH0 DUP3 ADD MSTORE POP JUMP JUMPDEST PUSH0 PUSH2 0x44A9 PUSH1 0x1A DUP4 PUSH2 0x4465 JUMP JUMPDEST SWAP2 POP PUSH2 0x44B4 DUP3 PUSH2 0x4475 JUMP JUMPDEST PUSH1 0x20 DUP3 ADD SWAP1 POP SWAP2 SWAP1 POP JUMP JUMPDEST PUSH0 PUSH1 0x20 DUP3 ADD SWAP1 POP DUP2 DUP2 SUB PUSH0 DUP4 ADD MSTORE PUSH2 0x44D6 DUP2 PUSH2 0x449D JUMP JUMPDEST SWAP1 POP SWAP2 SWAP1 POP JUMP JUMPDEST PUSH32 0x5573657220616C72656164792065786973747300000000000000000000000000 PUSH0 DUP3 ADD MSTORE POP JUMP JUMPDEST PUSH0 PUSH2 0x4511 PUSH1 0x13 DUP4 PUSH2 0x4465 JUMP JUMPDEST SWAP2 POP PUSH2 0x451C DUP3 PUSH2 0x44DD JUMP JUMPDEST PUSH1 0x20 DUP3 ADD SWAP1 POP SWAP2 SWAP1 POP JUMP JUMPDEST PUSH0 PUSH1 0x20 DUP3 ADD SWAP1 POP DUP2 DUP2 SUB PUSH0 DUP4 ADD MSTORE PUSH2 0x453E DUP2 PUSH2 0x4505 JUMP JUMPDEST SWAP1 POP SWAP2 SWAP1 POP JUMP JUMPDEST PUSH32 0x526566657272657220646F6573206E6F74206578697374000000000000000000 PUSH0 DUP3 ADD MSTORE POP JUMP JUMPDEST PUSH0 PUSH2 0x4579 PUSH1 0x17 DUP4 PUSH2 0x4465 JUMP JUMPDEST SWAP2 POP PUSH2 0x4584 DUP3 PUSH2 0x4545 JUMP JUMPDEST PUSH1 0x20 DUP3 ADD SWAP1 POP SWAP2 SWAP1 POP JUMP JUMPDEST PUSH0 PUSH1 0x20 DUP3 ADD SWAP1 POP DUP2 DUP2 SUB PUSH0 DUP4 ADD MSTORE PUSH2 0x45A6 DUP2 PUSH2 0x456D JUMP JUMPDEST SWAP1 POP SWAP2 SWAP1 POP JUMP JUMPDEST PUSH32 0x43616E6E6F74206265206120636F6E7472616374000000000000000000000000 PUSH0 DUP3 ADD MSTORE POP JUMP JUMPDEST PUSH0 PUSH2 0x45E1 PUSH1 0x14 DUP4 PUSH2 0x4465 JUMP JUMPDEST SWAP2 POP PUSH2 0x45EC DUP3 PUSH2 0x45AD JUMP JUMPDEST PUSH1 0x20 DUP3 ADD SWAP1 POP SWAP2 SWAP1 POP JUMP JUMPDEST PUSH0 PUSH1 0x20 DUP3 ADD SWAP1 POP DUP2 DUP2 SUB PUSH0 DUP4 ADD MSTORE PUSH2 0x460E DUP2 PUSH2 0x45D5 JUMP JUMPDEST SWAP1 POP SWAP2 SWAP1 POP JUMP JUMPDEST PUSH32 0x4E487B7100000000000000000000000000000000000000000000000000000000 PUSH0 MSTORE PUSH1 0x11 PUSH1 0x4 MSTORE PUSH1 0x24 PUSH0 REVERT JUMPDEST PUSH0 PUSH2 0x464C DUP3 PUSH2 0x4183 JUMP JUMPDEST SWAP2 POP PUSH32 0xFFFFFFFFFFFFFFFFFFFFFFFFFFFFFFFFFFFFFFFFFFFFFFFFFFFFFFFFFFFFFFFF DUP3 SUB PUSH2 0x467E JUMPI PUSH2 0x467D PUSH2 0x4615 JUMP JUMPDEST JUMPDEST PUSH1 0x1 DUP3 ADD SWAP1 POP SWAP2 SWAP1 POP JUMP JUMPDEST PUSH32 0x5573657220646F6573206E6F742065786973742E205265676973746572206669 PUSH0 DUP3 ADD MSTORE PUSH32 0x7273742E00000000000000000000000000000000000000000000000000000000 PUSH1 0x20 DUP3 ADD MSTORE POP JUMP JUMPDEST PUSH0 PUSH2 0x46E3 PUSH1 0x24 DUP4 PUSH2 0x4465 JUMP JUMPDEST SWAP2 POP PUSH2 0x46EE DUP3 PUSH2 0x4689 JUMP JUMPDEST PUSH1 0x40 DUP3 ADD SWAP1 POP SWAP2 SWAP1 POP JUMP JUMPDEST PUSH0 PUSH1 0x20 DUP3 ADD SWAP1 POP DUP2 DUP2 SUB PUSH0 DUP4 ADD MSTORE PUSH2 0x4710 DUP2 PUSH2 0x46D7 JUMP JUMPDEST SWAP1 POP SWAP2 SWAP1 POP JUMP JUMPDEST PUSH32 0x496E76616C6964206D6174726978000000000000000000000000000000000000 PUSH0 DUP3 ADD MSTORE POP JUMP JUMPDEST PUSH0 PUSH2 0x474B PUSH1 0xE DUP4 PUSH2 0x4465 JUMP JUMPDEST SWAP2 POP PUSH2 0x4756 DUP3 PUSH2 0x4717 JUMP JUMPDEST PUSH1 0x20 DUP3 ADD SWAP1 POP SWAP2 SWAP1 POP JUMP JUMPDEST PUSH0 PUSH1 0x20 DUP3 ADD SWAP1 POP DUP2 DUP2 SUB PUSH0 DUP4 ADD MSTORE PUSH2 0x4778 DUP2 PUSH2 0x473F JUMP JUMPDEST SWAP1 POP SWAP2 SWAP1 POP JUMP JUMPDEST PUSH32 0x496E76616C696420707269636500000000000000000000000000000000000000 PUSH0 DUP3 ADD MSTORE POP JUMP JUMPDEST PUSH0 PUSH2 0x47B3 PUSH1 0xD DUP4 PUSH2 0x4465 JUMP JUMPDEST SWAP2 POP PUSH2 0x47BE DUP3 PUSH2 0x477F JUMP JUMPDEST PUSH1 0x20 DUP3 ADD SWAP1 POP SWAP2 SWAP1 POP JUMP JUMPDEST PUSH0 PUSH1 0x20 DUP3 ADD SWAP1 POP DUP2 DUP2 SUB PUSH0 DUP4 ADD MSTORE PUSH2 0x47E0 DUP2 PUSH2 0x47A7 JUMP JUMPDEST SWAP1 POP SWAP2 SWAP1 POP JUMP JUMPDEST PUSH32 0x496E76616C6964206C6576656C00000000000000000000000000000000000000 PUSH0 DUP3 ADD MSTORE POP JUMP JUMPDEST PUSH0 PUSH2 0x481B PUSH1 0xD DUP4 PUSH2 0x4465 JUMP JUMPDEST SWAP2 POP PUSH2 0x4826 DUP3 PUSH2 0x47E7 JUMP JUMPDEST PUSH1 0x20 DUP3 ADD SWAP1 POP SWAP2 SWAP1 POP JUMP JUMPDEST PUSH0 PUSH1 0x20 DUP3 ADD SWAP1 POP DUP2 DUP2 SUB PUSH0 DUP4 ADD MSTORE PUSH2 0x4848 DUP2 PUSH2 0x480F JUMP JUMPDEST SWAP1 POP SWAP2 SWAP1 POP JUMP JUMPDEST PUSH32 0x4C6576656C20616C726561647920616374697661746564000000000000000000 PUSH0 DUP3 ADD MSTORE POP JUMP JUMPDEST PUSH0 PUSH2 0x4883 PUSH1 0x17 DUP4 PUSH2 0x4465 JUMP JUMPDEST SWAP2 POP PUSH2 0x488E DUP3 PUSH2 0x484F JUMP JUMPDEST PUSH1 0x20 DUP3 ADD SWAP1 POP SWAP2 SWAP1 POP JUMP JUMPDEST PUSH0 PUSH1 0x20 DUP3 ADD SWAP1 POP DUP2 DUP2 SUB PUSH0 DUP4 ADD MSTORE PUSH2 0x48B0 DUP2 PUSH2 0x4877 JUMP JUMPDEST SWAP1 POP SWAP2 SWAP1 POP JUMP JUMPDEST PUSH0 PUSH2 0x48C1 DUP3 PUSH2 0x40B1 JUMP JUMPDEST SWAP2 POP PUSH2 0x48CC DUP4 PUSH2 0x40B1 JUMP JUMPDEST SWAP3 POP DUP3 DUP3 SUB SWAP1 POP PUSH1 0xFF DUP2 GT ISZERO PUSH2 0x48E5 JUMPI PUSH2 0x48E4 PUSH2 0x4615 JUMP JUMPDEST JUMPDEST SWAP3 SWAP2 POP POP JUMP JUMPDEST PUSH0 DUP2 SWAP1 POP SWAP2 SWAP1 POP JUMP JUMPDEST PUSH0 DUP2 SWAP1 POP SWAP2 SWAP1 POP JUMP JUMPDEST PUSH0 PUSH2 0x4917 PUSH2 0x4912 PUSH2 0x490D DUP5 PUSH2 0x48EB JUMP JUMPDEST PUSH2 0x48F4 JUMP JUMPDEST PUSH2 0x40B1 JUMP JUMPDEST SWAP1 POP SWAP2 SWAP1 POP JUMP JUMPDEST PUSH2 0x4927 DUP2 PUSH2 0x48FD JUMP JUMPDEST DUP3 MSTORE POP POP JUMP JUMPDEST PUSH0 PUSH1 0x40 DUP3 ADD SWAP1 POP PUSH2 0x4940 PUSH0 DUP4 ADD DUP6 PUSH2 0x491E JUMP JUMPDEST PUSH2 0x494D PUSH1 0x20 DUP4 ADD DUP5 PUSH2 0x41B4 JUMP JUMPDEST SWAP4 SWAP3 POP POP POP JUMP JUMPDEST PUSH0 DUP2 SWAP1 POP SWAP2 SWAP1 POP JUMP JUMPDEST PUSH0 PUSH2 0x4977 PUSH2 0x4972 PUSH2 0x496D DUP5 PUSH2 0x4954 JUMP JUMPDEST PUSH2 0x48F4 JUMP JUMPDEST PUSH2 0x40B1 JUMP JUMPDEST SWAP1 POP SWAP2 SWAP1 POP JUMP JUMPDEST PUSH2 0x4987 DUP2 PUSH2 0x495D JUMP JUMPDEST DUP3 MSTORE POP POP JUMP JUMPDEST PUSH0 PUSH1 0x40 DUP3 ADD SWAP1 POP PUSH2 0x49A0 PUSH0 DUP4 ADD DUP6 PUSH2 0x497E JUMP JUMPDEST PUSH2 0x49AD PUSH1 0x20 DUP4 ADD DUP5 PUSH2 0x41B4 JUMP JUMPDEST SWAP4 SWAP3 POP POP POP JUMP JUMPDEST PUSH0 PUSH1 0x60 DUP3 ADD SWAP1 POP PUSH2 0x49C7 PUSH0 DUP4 ADD DUP7 PUSH2 0x491E JUMP JUMPDEST PUSH2 0x49D4 PUSH1 0x20 DUP4 ADD DUP6 PUSH2 0x41B4 JUMP JUMPDEST PUSH2 0x49E1 PUSH1 0x40 DUP4 ADD DUP5 PUSH2 0x41B4 JUMP JUMPDEST SWAP5 SWAP4 POP POP POP POP JUMP JUMPDEST PUSH0 DUP2 SWAP1 POP SWAP2 SWAP1 POP JUMP JUMPDEST PUSH0 PUSH2 0x4A0C PUSH2 0x4A07 PUSH2 0x4A02 DUP5 PUSH2 0x49E9 JUMP JUMPDEST PUSH2 0x48F4 JUMP JUMPDEST PUSH2 0x40B1 JUMP JUMPDEST SWAP1 POP SWAP2 SWAP1 POP JUMP JUMPDEST PUSH2 0x4A1C DUP2 PUSH2 0x49F2 JUMP JUMPDEST DUP3 MSTORE POP POP JUMP JUMPDEST PUSH0 PUSH1 0x60 DUP3 ADD SWAP1 POP PUSH2 0x4A35 PUSH0 DUP4 ADD DUP7 PUSH2 0x491E JUMP JUMPDEST PUSH2 0x4A42 PUSH1 0x20 DUP4 ADD DUP6 PUSH2 0x41B4 JUMP JUMPDEST PUSH2 0x4A4F PUSH1 0x40 DUP4 ADD DUP5 PUSH2 0x4A13 JUMP JUMPDEST SWAP5 SWAP4 POP POP POP POP JUMP JUMPDEST PUSH32 0x4E487B7100000000000000000000000000000000000000000000000000000000 PUSH0 MSTORE PUSH1 0x41 PUSH1 0x4 MSTORE PUSH1 0x24 PUSH0 REVERT JUMPDEST PUSH0 PUSH2 0x4A8E DUP3 PUSH2 0x40B1 JUMP JUMPDEST SWAP2 POP PUSH2 0x4A99 DUP4 PUSH2 0x40B1 JUMP JUMPDEST SWAP3 POP DUP3 DUP3 ADD SWAP1 POP PUSH1 0xFF DUP2 GT ISZERO PUSH2 0x4AB2 JUMPI PUSH2 0x4AB1 PUSH2 0x4615 JUMP JUMPDEST JUMPDEST SWAP3 SWAP2 POP POP JUMP JUMPDEST PUSH32 0x5265666572726572206C6576656C20697320696E616374697665000000000000 PUSH0 DUP3 ADD MSTORE POP JUMP JUMPDEST PUSH0 PUSH2 0x4AEC PUSH1 0x1A DUP4 PUSH2 0x4465 JUMP JUMPDEST SWAP2 POP PUSH2 0x4AF7 DUP3 PUSH2 0x4AB8 JUMP JUMPDEST PUSH1 0x20 DUP3 ADD SWAP1 POP SWAP2 SWAP1 POP JUMP JUMPDEST PUSH0 PUSH1 0x20 DUP3 ADD SWAP1 POP DUP2 DUP2 SUB PUSH0 DUP4 ADD MSTORE PUSH2 0x4B19 DUP2 PUSH2 0x4AE0 JUMP JUMPDEST SWAP1 POP SWAP2 SWAP1 POP JUMP JUMPDEST PUSH0 PUSH1 0x60 DUP3 ADD SWAP1 POP PUSH2 0x4B33 PUSH0 DUP4 ADD DUP7 PUSH2 0x497E JUMP JUMPDEST PUSH2 0x4B40 PUSH1 0x20 DUP4 ADD DUP6 PUSH2 0x41B4 JUMP JUMPDEST PUSH2 0x4B4D PUSH1 0x40 DUP4 ADD DUP5 PUSH2 0x41B4 JUMP JUMPDEST SWAP5 SWAP4 POP POP POP POP JUMP JUMPDEST PUSH32 0x4E487B7100000000000000000000000000000000000000000000000000000000 PUSH0 MSTORE PUSH1 0x32 PUSH1 0x4 MSTORE PUSH1 0x24 PUSH0 REVERT JUMPDEST PUSH0 PUSH2 0x4B8C DUP3 PUSH2 0x4183 JUMP JUMPDEST SWAP2 POP PUSH2 0x4B97 DUP4 PUSH2 0x4183 JUMP JUMPDEST SWAP3 POP DUP3 DUP3 ADD SWAP1 POP DUP1 DUP3 GT ISZERO PUSH2 0x4BAF JUMPI PUSH2 0x4BAE PUSH2 0x4615 JUMP JUMPDEST JUMPDEST SWAP3 SWAP2 POP POP JUMP JUMPDEST PUSH0 DUP2 SWAP1 POP SWAP3 SWAP2 POP POP JUMP JUMPDEST POP JUMP JUMPDEST PUSH0 PUSH2 0x4BCD PUSH0 DUP4 PUSH2 0x4BB5 JUMP JUMPDEST SWAP2 POP PUSH2 0x4BD8 DUP3 PUSH2 0x4BBF JUMP JUMPDEST PUSH0 DUP3 ADD SWAP1 POP SWAP2 SWAP1 POP JUMP JUMPDEST PUSH0 PUSH2 0x4BEC DUP3 PUSH2 0x4BC2 JUMP JUMPDEST SWAP2 POP DUP2 SWAP1 POP SWAP2 SWAP1 POP JUMP JUMPDEST PUSH0 PUSH1 0x40 DUP3 ADD SWAP1 POP PUSH2 0x4C09 PUSH0 DUP4 ADD DUP6 PUSH2 0x41B4 JUMP JUMPDEST PUSH2 0x4C16 PUSH1 0x20 DUP4 ADD DUP5 PUSH2 0x41B4 JUMP JUMPDEST SWAP4 SWAP3 POP POP POP JUMP JUMPDEST PUSH0 DUP2 SWAP1 POP SWAP2 SWAP1 POP JUMP JUMPDEST PUSH0 PUSH2 0x4C40 PUSH2 0x4C3B PUSH2 0x4C36 DUP5 PUSH2 0x4C1D JUMP JUMPDEST PUSH2 0x48F4 JUMP JUMPDEST PUSH2 0x40B1 JUMP JUMPDEST SWAP1 POP SWAP2 SWAP1 POP JUMP JUMPDEST PUSH2 0x4C50 DUP2 PUSH2 0x4C26 JUMP JUMPDEST DUP3 MSTORE POP POP JUMP JUMPDEST PUSH0 PUSH1 0x60 DUP3 ADD SWAP1 POP PUSH2 0x4C69 PUSH0 DUP4 ADD DUP7 PUSH2 0x497E JUMP JUMPDEST PUSH2 0x4C76 PUSH1 0x20 DUP4 ADD DUP6 PUSH2 0x41B4 JUMP JUMPDEST PUSH2 0x4C83 PUSH1 0x40 DUP4 ADD DUP5 PUSH2 0x4C47 JUMP JUMPDEST SWAP5 SWAP4 POP POP POP POP JUMP INVALID LOG2 PUSH5 0x6970667358 0x22 SLT KECCAK256 ISZERO GASLIMIT PUSH5 0x7EFAD9E9D 0xC2 PUSH26 0x9729AB2ACDCDCC2CB0280FCD580B7F19B4F00B94BC6364736F6C PUSH4 0x4300081A STOP CALLER "
				},
				"gasEstimates": {
					"creation": {
						"codeDepositCost": "3929800",
						"executionCost": "infinite",
						"totalCost": "infinite"
					},
					"external": {
						"": "infinite",
						"LAST_LEVEL()": "399",
						"balances(address)": "2848",
						"buyNewLevel(uint8,uint8)": "infinite",
						"findFreeX3Referrer(address,uint8)": "infinite",
						"findFreeX6Referrer(address,uint8)": "infinite",
						"idToAddress(uint256)": "2917",
						"isUserExists(address)": "2916",
						"lastUserId()": "2448",
						"levelPrice(uint8)": "2848",
						"owner()": "2553",
						"registrationExt(address)": "infinite",
						"userIds(uint256)": "2872",
						"users(address)": "infinite",
						"usersActiveX3Levels(address,uint8)": "3165",
						"usersActiveX6Levels(address,uint8)": "3163",
						"usersX3Matrix(address,uint8)": "infinite",
						"usersX6Matrix(address,uint8)": "infinite"
					},
					"internal": {
						"bytesToAddress(bytes memory)": "infinite",
						"registration(address,address)": "infinite",
						"sendETHDividends(address,address,uint8,uint8)": "infinite",
						"updateX3Referrer(address,address,uint8)": "infinite",
						"updateX6(address,address,uint8,bool)": "infinite",
						"updateX6Referrer(address,address,uint8)": "infinite",
						"updateX6ReferrerSecondLevel(address,address,uint8)": "infinite"
					}
				},
				"methodIdentifiers": {
					"LAST_LEVEL()": "29c70400",
					"balances(address)": "27e235e3",
					"buyNewLevel(uint8,uint8)": "be389d57",
					"findFreeX3Referrer(address,uint8)": "fa45323d",
					"findFreeX6Referrer(address,uint8)": "e06e8dbd",
					"idToAddress(uint256)": "2a2d0c47",
					"isUserExists(address)": "509222cd",
					"lastUserId()": "348d4487",
					"levelPrice(uint8)": "ecabdf79",
					"owner()": "8da5cb5b",
					"registrationExt(address)": "797eee24",
					"userIds(uint256)": "4635fd68",
					"users(address)": "a87430ba",
					"usersActiveX3Levels(address,uint8)": "07279e2a",
					"usersActiveX6Levels(address,uint8)": "b2f7543a",
					"usersX3Matrix(address,uint8)": "83ba31b2",
					"usersX6Matrix(address,uint8)": "9cc102fc"
				}
			},
			"storageLayout": {
				"storage": [
					{
						"astId": 59,
						"contract": "contracts/Practice.sol:SmartMatrixForsage",
						"label": "users",
						"offset": 0,
						"slot": "0",
						"type": "t_mapping(t_address,t_struct(User)26_storage)"
					},
					{
						"astId": 63,
						"contract": "contracts/Practice.sol:SmartMatrixForsage",
						"label": "idToAddress",
						"offset": 0,
						"slot": "1",
						"type": "t_mapping(t_uint256,t_address)"
					},
					{
						"astId": 67,
						"contract": "contracts/Practice.sol:SmartMatrixForsage",
						"label": "userIds",
						"offset": 0,
						"slot": "2",
						"type": "t_mapping(t_uint256,t_address)"
					},
					{
						"astId": 71,
						"contract": "contracts/Practice.sol:SmartMatrixForsage",
						"label": "balances",
						"offset": 0,
						"slot": "3",
						"type": "t_mapping(t_address,t_uint256)"
					},
					{
						"astId": 74,
						"contract": "contracts/Practice.sol:SmartMatrixForsage",
						"label": "lastUserId",
						"offset": 0,
						"slot": "4",
						"type": "t_uint256"
					},
					{
						"astId": 76,
						"contract": "contracts/Practice.sol:SmartMatrixForsage",
						"label": "owner",
						"offset": 0,
						"slot": "5",
						"type": "t_address"
					},
					{
						"astId": 80,
						"contract": "contracts/Practice.sol:SmartMatrixForsage",
						"label": "levelPrice",
						"offset": 0,
						"slot": "6",
						"type": "t_mapping(t_uint8,t_uint256)"
					}
				],
				"types": {
					"t_address": {
						"encoding": "inplace",
						"label": "address",
						"numberOfBytes": "20"
					},
					"t_array(t_address)dyn_storage": {
						"base": "t_address",
						"encoding": "dynamic_array",
						"label": "address[]",
						"numberOfBytes": "32"
					},
					"t_bool": {
						"encoding": "inplace",
						"label": "bool",
						"numberOfBytes": "1"
					},
					"t_mapping(t_address,t_struct(User)26_storage)": {
						"encoding": "mapping",
						"key": "t_address",
						"label": "mapping(address => struct SmartMatrixForsage.User)",
						"numberOfBytes": "32",
						"value": "t_struct(User)26_storage"
					},
					"t_mapping(t_address,t_uint256)": {
						"encoding": "mapping",
						"key": "t_address",
						"label": "mapping(address => uint256)",
						"numberOfBytes": "32",
						"value": "t_uint256"
					},
					"t_mapping(t_uint256,t_address)": {
						"encoding": "mapping",
						"key": "t_uint256",
						"label": "mapping(uint256 => address)",
						"numberOfBytes": "32",
						"value": "t_address"
					},
					"t_mapping(t_uint8,t_bool)": {
						"encoding": "mapping",
						"key": "t_uint8",
						"label": "mapping(uint8 => bool)",
						"numberOfBytes": "32",
						"value": "t_bool"
					},
					"t_mapping(t_uint8,t_struct(X3)36_storage)": {
						"encoding": "mapping",
						"key": "t_uint8",
						"label": "mapping(uint8 => struct SmartMatrixForsage.X3)",
						"numberOfBytes": "32",
						"value": "t_struct(X3)36_storage"
					},
					"t_mapping(t_uint8,t_struct(X6)51_storage)": {
						"encoding": "mapping",
						"key": "t_uint8",
						"label": "mapping(uint8 => struct SmartMatrixForsage.X6)",
						"numberOfBytes": "32",
						"value": "t_struct(X6)51_storage"
					},
					"t_mapping(t_uint8,t_uint256)": {
						"encoding": "mapping",
						"key": "t_uint8",
						"label": "mapping(uint8 => uint256)",
						"numberOfBytes": "32",
						"value": "t_uint256"
					},
					"t_struct(User)26_storage": {
						"encoding": "inplace",
						"label": "struct SmartMatrixForsage.User",
						"members": [
							{
								"astId": 3,
								"contract": "contracts/Practice.sol:SmartMatrixForsage",
								"label": "id",
								"offset": 0,
								"slot": "0",
								"type": "t_uint256"
							},
							{
								"astId": 5,
								"contract": "contracts/Practice.sol:SmartMatrixForsage",
								"label": "referrer",
								"offset": 0,
								"slot": "1",
								"type": "t_address"
							},
							{
								"astId": 7,
								"contract": "contracts/Practice.sol:SmartMatrixForsage",
								"label": "partnersCount",
								"offset": 0,
								"slot": "2",
								"type": "t_uint256"
							},
							{
								"astId": 11,
								"contract": "contracts/Practice.sol:SmartMatrixForsage",
								"label": "activeX3Levels",
								"offset": 0,
								"slot": "3",
								"type": "t_mapping(t_uint8,t_bool)"
							},
							{
								"astId": 15,
								"contract": "contracts/Practice.sol:SmartMatrixForsage",
								"label": "activeX6Levels",
								"offset": 0,
								"slot": "4",
								"type": "t_mapping(t_uint8,t_bool)"
							},
							{
								"astId": 20,
								"contract": "contracts/Practice.sol:SmartMatrixForsage",
								"label": "x3Matrix",
								"offset": 0,
								"slot": "5",
								"type": "t_mapping(t_uint8,t_struct(X3)36_storage)"
							},
							{
								"astId": 25,
								"contract": "contracts/Practice.sol:SmartMatrixForsage",
								"label": "x6Matrix",
								"offset": 0,
								"slot": "6",
								"type": "t_mapping(t_uint8,t_struct(X6)51_storage)"
							}
						],
						"numberOfBytes": "224"
					},
					"t_struct(X3)36_storage": {
						"encoding": "inplace",
						"label": "struct SmartMatrixForsage.X3",
						"members": [
							{
								"astId": 28,
								"contract": "contracts/Practice.sol:SmartMatrixForsage",
								"label": "currentReferrer",
								"offset": 0,
								"slot": "0",
								"type": "t_address"
							},
							{
								"astId": 31,
								"contract": "contracts/Practice.sol:SmartMatrixForsage",
								"label": "referrals",
								"offset": 0,
								"slot": "1",
								"type": "t_array(t_address)dyn_storage"
							},
							{
								"astId": 33,
								"contract": "contracts/Practice.sol:SmartMatrixForsage",
								"label": "blocked",
								"offset": 0,
								"slot": "2",
								"type": "t_bool"
							},
							{
								"astId": 35,
								"contract": "contracts/Practice.sol:SmartMatrixForsage",
								"label": "reinvestCount",
								"offset": 0,
								"slot": "3",
								"type": "t_uint256"
							}
						],
						"numberOfBytes": "128"
					},
					"t_struct(X6)51_storage": {
						"encoding": "inplace",
						"label": "struct SmartMatrixForsage.X6",
						"members": [
							{
								"astId": 38,
								"contract": "contracts/Practice.sol:SmartMatrixForsage",
								"label": "currentReferrer",
								"offset": 0,
								"slot": "0",
								"type": "t_address"
							},
							{
								"astId": 41,
								"contract": "contracts/Practice.sol:SmartMatrixForsage",
								"label": "firstLevelReferrals",
								"offset": 0,
								"slot": "1",
								"type": "t_array(t_address)dyn_storage"
							},
							{
								"astId": 44,
								"contract": "contracts/Practice.sol:SmartMatrixForsage",
								"label": "secondLevelReferrals",
								"offset": 0,
								"slot": "2",
								"type": "t_array(t_address)dyn_storage"
							},
							{
								"astId": 46,
								"contract": "contracts/Practice.sol:SmartMatrixForsage",
								"label": "blocked",
								"offset": 0,
								"slot": "3",
								"type": "t_bool"
							},
							{
								"astId": 48,
								"contract": "contracts/Practice.sol:SmartMatrixForsage",
								"label": "reinvestCount",
								"offset": 0,
								"slot": "4",
								"type": "t_uint256"
							},
							{
								"astId": 50,
								"contract": "contracts/Practice.sol:SmartMatrixForsage",
								"label": "closedPart",
								"offset": 0,
								"slot": "5",
								"type": "t_address"
							}
						],
						"numberOfBytes": "192"
					},
					"t_uint256": {
						"encoding": "inplace",
						"label": "uint256",
						"numberOfBytes": "32"
					},
					"t_uint8": {
						"encoding": "inplace",
						"label": "uint8",
						"numberOfBytes": "1"
					}
				}
			},
			"userdoc": {
				"kind": "user",
				"methods": {},
				"version": 1
			}
		}
	}
}