{
	"data": {
		"bytecode": {
			"linkReferences": {},
			"object": "608060405234801561000f575f80fd5b50604051610740380380610740833981810160405281019061003191906101d2565b805f800190816100419190610439565b50815f600101819055505050610508565b5f604051905090565b5f80fd5b5f80fd5b5f819050919050565b61007581610063565b811461007f575f80fd5b50565b5f815190506100908161006c565b92915050565b5f80fd5b5f80fd5b5f601f19601f8301169050919050565b7f4e487b71000000000000000000000000000000000000000000000000000000005f52604160045260245ffd5b6100e48261009e565b810181811067ffffffffffffffff82111715610103576101026100ae565b5b80604052505050565b5f610115610052565b905061012182826100db565b919050565b5f67ffffffffffffffff8211156101405761013f6100ae565b5b6101498261009e565b9050602081019050919050565b8281835e5f83830152505050565b5f61017661017184610126565b61010c565b9050828152602081018484840111156101925761019161009a565b5b61019d848285610156565b509392505050565b5f82601f8301126101b9576101b8610096565b5b81516101c9848260208601610164565b91505092915050565b5f80604083850312156101e8576101e761005b565b5b5f6101f585828601610082565b925050602083015167ffffffffffffffff8111156102165761021561005f565b5b610222858286016101a5565b9150509250929050565b5f81519050919050565b7f4e487b71000000000000000000000000000000000000000000000000000000005f52602260045260245ffd5b5f600282049050600182168061027a57607f821691505b60208210810361028d5761028c610236565b5b50919050565b5f819050815f5260205f209050919050565b5f6020601f8301049050919050565b5f82821b905092915050565b5f600883026102ef7fffffffffffffffffffffffffffffffffffffffffffffffffffffffffffffffff826102b4565b6102f986836102b4565b95508019841693508086168417925050509392505050565b5f819050919050565b5f819050919050565b5f61033d61033861033384610311565b61031a565b610311565b9050919050565b5f819050919050565b61035683610323565b61036a61036282610344565b8484546102c0565b825550505050565b5f90565b61037e610372565b61038981848461034d565b505050565b5b818110156103ac576103a15f82610376565b60018101905061038f565b5050565b601f8211156103f1576103c281610293565b6103cb846102a5565b810160208510156103da578190505b6103ee6103e6856102a5565b83018261038e565b50505b505050565b5f82821c905092915050565b5f6104115f19846008026103f6565b1980831691505092915050565b5f6104298383610402565b9150826002028217905092915050565b6104428261022c565b67ffffffffffffffff81111561045b5761045a6100ae565b5b6104658254610263565b6104708282856103b0565b5f60209050601f8311600181146104a1575f841561048f578287015190505b610499858261041e565b865550610500565b601f1984166104af86610293565b5f5b828110156104d6578489015182556001820191506020850194506020810190506104b1565b868310156104f357848901516104ef601f891682610402565b8355505b6001600288020188555050505b505050505050565b61022b806105155f395ff3fe608060405234801561000f575f80fd5b5060043610610029575f3560e01c80636cc014de1461002d575b5f80fd5b61003561004c565b60405161004392919061016a565b60405180910390f35b5f805f01805461005b906101c5565b80601f0160208091040260200160405190810160405280929190818152602001828054610087906101c5565b80156100d25780601f106100a9576101008083540402835291602001916100d2565b820191905f5260205f20905b8154815290600101906020018083116100b557829003601f168201915b5050505050908060010154905082565b5f81519050919050565b5f82825260208201905092915050565b8281835e5f83830152505050565b5f601f19601f8301169050919050565b5f610124826100e2565b61012e81856100ec565b935061013e8185602086016100fc565b6101478161010a565b840191505092915050565b5f819050919050565b61016481610152565b82525050565b5f6040820190508181035f830152610182818561011a565b9050610191602083018461015b565b9392505050565b7f4e487b71000000000000000000000000000000000000000000000000000000005f52602260045260245ffd5b5f60028204905060018216806101dc57607f821691505b6020821081036101ef576101ee610198565b5b5091905056fea26469706673582212204d033fe28ac8b5dfcec74066eb0c25613b5b4d42e3065744571a812ad717444864736f6c634300081a0033",
			"opcodes": "PUSH1 0x80 PUSH1 0x40 MSTORE CALLVALUE DUP1 ISZERO PUSH2 0xF JUMPI PUSH0 DUP1 REVERT JUMPDEST POP PUSH1 0x40 MLOAD PUSH2 0x740 CODESIZE SUB DUP1 PUSH2 0x740 DUP4 CODECOPY DUP2 DUP2 ADD PUSH1 0x40 MSTORE DUP2 ADD SWAP1 PUSH2 0x31 SWAP2 SWAP1 PUSH2 0x1D2 JUMP JUMPDEST DUP1 PUSH0 DUP1 ADD SWAP1 DUP2 PUSH2 0x41 SWAP2 SWAP1 PUSH2 0x439 JUMP JUMPDEST POP DUP2 PUSH0 PUSH1 0x1 ADD DUP2 SWAP1 SSTORE POP POP POP PUSH2 0x508 JUMP JUMPDEST PUSH0 PUSH1 0x40 MLOAD SWAP1 POP SWAP1 JUMP JUMPDEST PUSH0 DUP1 REVERT JUMPDEST PUSH0 DUP1 REVERT JUMPDEST PUSH0 DUP2 SWAP1 POP SWAP2 SWAP1 POP JUMP JUMPDEST PUSH2 0x75 DUP2 PUSH2 0x63 JUMP JUMPDEST DUP2 EQ PUSH2 0x7F JUMPI PUSH0 DUP1 REVERT JUMPDEST POP JUMP JUMPDEST PUSH0 DUP2 MLOAD SWAP1 POP PUSH2 0x90 DUP2 PUSH2 0x6C JUMP JUMPDEST SWAP3 SWAP2 POP POP JUMP JUMPDEST PUSH0 DUP1 REVERT JUMPDEST PUSH0 DUP1 REVERT JUMPDEST PUSH0 PUSH1 0x1F NOT PUSH1 0x1F DUP4 ADD AND SWAP1 POP SWAP2 SWAP1 POP JUMP JUMPDEST PUSH32 0x4E487B7100000000000000000000000000000000000000000000000000000000 PUSH0 MSTORE PUSH1 0x41 PUSH1 0x4 MSTORE PUSH1 0x24 PUSH0 REVERT JUMPDEST PUSH2 0xE4 DUP3 PUSH2 0x9E JUMP JUMPDEST DUP2 ADD DUP2 DUP2 LT PUSH8 0xFFFFFFFFFFFFFFFF DUP3 GT OR ISZERO PUSH2 0x103 JUMPI PUSH2 0x102 PUSH2 0xAE JUMP JUMPDEST JUMPDEST DUP1 PUSH1 0x40 MSTORE POP POP POP JUMP JUMPDEST PUSH0 PUSH2 0x115 PUSH2 0x52 JUMP JUMPDEST SWAP1 POP PUSH2 0x121 DUP3 DUP3 PUSH2 0xDB JUMP JUMPDEST SWAP2 SWAP1 POP JUMP JUMPDEST PUSH0 PUSH8 0xFFFFFFFFFFFFFFFF DUP3 GT ISZERO PUSH2 0x140 JUMPI PUSH2 0x13F PUSH2 0xAE JUMP JUMPDEST JUMPDEST PUSH2 0x149 DUP3 PUSH2 0x9E JUMP JUMPDEST SWAP1 POP PUSH1 0x20 DUP2 ADD SWAP1 POP SWAP2 SWAP1 POP JUMP JUMPDEST DUP3 DUP2 DUP4 MCOPY PUSH0 DUP4 DUP4 ADD MSTORE POP POP POP JUMP JUMPDEST PUSH0 PUSH2 0x176 PUSH2 0x171 DUP5 PUSH2 0x126 JUMP JUMPDEST PUSH2 0x10C JUMP JUMPDEST SWAP1 POP DUP3 DUP2 MSTORE PUSH1 0x20 DUP2 ADD DUP5 DUP5 DUP5 ADD GT ISZERO PUSH2 0x192 JUMPI PUSH2 0x191 PUSH2 0x9A JUMP JUMPDEST JUMPDEST PUSH2 0x19D DUP5 DUP3 DUP6 PUSH2 0x156 JUMP JUMPDEST POP SWAP4 SWAP3 POP POP POP JUMP JUMPDEST PUSH0 DUP3 PUSH1 0x1F DUP4 ADD SLT PUSH2 0x1B9 JUMPI PUSH2 0x1B8 PUSH2 0x96 JUMP JUMPDEST JUMPDEST DUP2 MLOAD PUSH2 0x1C9 DUP5 DUP3 PUSH1 0x20 DUP7 ADD PUSH2 0x164 JUMP JUMPDEST SWAP2 POP POP SWAP3 SWAP2 POP POP JUMP JUMPDEST PUSH0 DUP1 PUSH1 0x40 DUP4 DUP6 SUB SLT ISZERO PUSH2 0x1E8 JUMPI PUSH2 0x1E7 PUSH2 0x5B JUMP JUMPDEST JUMPDEST PUSH0 PUSH2 0x1F5 DUP6 DUP3 DUP7 ADD PUSH2 0x82 JUMP JUMPDEST SWAP3 POP POP PUSH1 0x20 DUP4 ADD MLOAD PUSH8 0xFFFFFFFFFFFFFFFF DUP2 GT ISZERO PUSH2 0x216 JUMPI PUSH2 0x215 PUSH2 0x5F JUMP JUMPDEST JUMPDEST PUSH2 0x222 DUP6 DUP3 DUP7 ADD PUSH2 0x1A5 JUMP JUMPDEST SWAP2 POP POP SWAP3 POP SWAP3 SWAP1 POP JUMP JUMPDEST PUSH0 DUP2 MLOAD SWAP1 POP SWAP2 SWAP1 POP JUMP JUMPDEST PUSH32 0x4E487B7100000000000000000000000000000000000000000000000000000000 PUSH0 MSTORE PUSH1 0x22 PUSH1 0x4 MSTORE PUSH1 0x24 PUSH0 REVERT JUMPDEST PUSH0 PUSH1 0x2 DUP3 DIV SWAP1 POP PUSH1 0x1 DUP3 AND DUP1 PUSH2 0x27A JUMPI PUSH1 0x7F DUP3 AND SWAP2 POP JUMPDEST PUSH1 0x20 DUP3 LT DUP2 SUB PUSH2 0x28D JUMPI PUSH2 0x28C PUSH2 0x236 JUMP JUMPDEST JUMPDEST POP SWAP2 SWAP1 POP JUMP JUMPDEST PUSH0 DUP2 SWAP1 POP DUP2 PUSH0 MSTORE PUSH1 0x20 PUSH0 KECCAK256 SWAP1 POP SWAP2 SWAP1 POP JUMP JUMPDEST PUSH0 PUSH1 0x20 PUSH1 0x1F DUP4 ADD DIV SWAP1 POP SWAP2 SWAP1 POP JUMP JUMPDEST PUSH0 DUP3 DUP3 SHL SWAP1 POP SWAP3 SWAP2 POP POP JUMP JUMPDEST PUSH0 PUSH1 0x8 DUP4 MUL PUSH2 0x2EF PUSH32 0xFFFFFFFFFFFFFFFFFFFFFFFFFFFFFFFFFFFFFFFFFFFFFFFFFFFFFFFFFFFFFFFF DUP3 PUSH2 0x2B4 JUMP JUMPDEST PUSH2 0x2F9 DUP7 DUP4 PUSH2 0x2B4 JUMP JUMPDEST SWAP6 POP DUP1 NOT DUP5 AND SWAP4 POP DUP1 DUP7 AND DUP5 OR SWAP3 POP POP POP SWAP4 SWAP3 POP POP POP JUMP JUMPDEST PUSH0 DUP2 SWAP1 POP SWAP2 SWAP1 POP JUMP JUMPDEST PUSH0 DUP2 SWAP1 POP SWAP2 SWAP1 POP JUMP JUMPDEST PUSH0 PUSH2 0x33D PUSH2 0x338 PUSH2 0x333 DUP5 PUSH2 0x311 JUMP JUMPDEST PUSH2 0x31A JUMP JUMPDEST PUSH2 0x311 JUMP JUMPDEST SWAP1 POP SWAP2 SWAP1 POP JUMP JUMPDEST PUSH0 DUP2 SWAP1 POP SWAP2 SWAP1 POP JUMP JUMPDEST PUSH2 0x356 DUP4 PUSH2 0x323 JUMP JUMPDEST PUSH2 0x36A PUSH2 0x362 DUP3 PUSH2 0x344 JUMP JUMPDEST DUP5 DUP5 SLOAD PUSH2 0x2C0 JUMP JUMPDEST DUP3 SSTORE POP POP POP POP JUMP JUMPDEST PUSH0 SWAP1 JUMP JUMPDEST PUSH2 0x37E PUSH2 0x372 JUMP JUMPDEST PUSH2 0x389 DUP2 DUP5 DUP5 PUSH2 0x34D JUMP JUMPDEST POP POP POP JUMP JUMPDEST JUMPDEST DUP2 DUP2 LT ISZERO PUSH2 0x3AC JUMPI PUSH2 0x3A1 PUSH0 DUP3 PUSH2 0x376 JUMP JUMPDEST PUSH1 0x1 DUP2 ADD SWAP1 POP PUSH2 0x38F JUMP JUMPDEST POP POP JUMP JUMPDEST PUSH1 0x1F DUP3 GT ISZERO PUSH2 0x3F1 JUMPI PUSH2 0x3C2 DUP2 PUSH2 0x293 JUMP JUMPDEST PUSH2 0x3CB DUP5 PUSH2 0x2A5 JUMP JUMPDEST DUP2 ADD PUSH1 0x20 DUP6 LT ISZERO PUSH2 0x3DA JUMPI DUP2 SWAP1 POP JUMPDEST PUSH2 0x3EE PUSH2 0x3E6 DUP6 PUSH2 0x2A5 JUMP JUMPDEST DUP4 ADD DUP3 PUSH2 0x38E JUMP JUMPDEST POP POP JUMPDEST POP POP POP JUMP JUMPDEST PUSH0 DUP3 DUP3 SHR SWAP1 POP SWAP3 SWAP2 POP POP JUMP JUMPDEST PUSH0 PUSH2 0x411 PUSH0 NOT DUP5 PUSH1 0x8 MUL PUSH2 0x3F6 JUMP JUMPDEST NOT DUP1 DUP4 AND SWAP2 POP POP SWAP3 SWAP2 POP POP JUMP JUMPDEST PUSH0 PUSH2 0x429 DUP4 DUP4 PUSH2 0x402 JUMP JUMPDEST SWAP2 POP DUP3 PUSH1 0x2 MUL DUP3 OR SWAP1 POP SWAP3 SWAP2 POP POP JUMP JUMPDEST PUSH2 0x442 DUP3 PUSH2 0x22C JUMP JUMPDEST PUSH8 0xFFFFFFFFFFFFFFFF DUP2 GT ISZERO PUSH2 0x45B JUMPI PUSH2 0x45A PUSH2 0xAE JUMP JUMPDEST JUMPDEST PUSH2 0x465 DUP3 SLOAD PUSH2 0x263 JUMP JUMPDEST PUSH2 0x470 DUP3 DUP3 DUP6 PUSH2 0x3B0 JUMP JUMPDEST PUSH0 PUSH1 0x20 SWAP1 POP PUSH1 0x1F DUP4 GT PUSH1 0x1 DUP2 EQ PUSH2 0x4A1 JUMPI PUSH0 DUP5 ISZERO PUSH2 0x48F JUMPI DUP3 DUP8 ADD MLOAD SWAP1 POP JUMPDEST PUSH2 0x499 DUP6 DUP3 PUSH2 0x41E JUMP JUMPDEST DUP7 SSTORE POP PUSH2 0x500 JUMP JUMPDEST PUSH1 0x1F NOT DUP5 AND PUSH2 0x4AF DUP7 PUSH2 0x293 JUMP JUMPDEST PUSH0 JUMPDEST DUP3 DUP2 LT ISZERO PUSH2 0x4D6 JUMPI DUP5 DUP10 ADD MLOAD DUP3 SSTORE PUSH1 0x1 DUP3 ADD SWAP2 POP PUSH1 0x20 DUP6 ADD SWAP5 POP PUSH1 0x20 DUP2 ADD SWAP1 POP PUSH2 0x4B1 JUMP JUMPDEST DUP7 DUP4 LT ISZERO PUSH2 0x4F3 JUMPI DUP5 DUP10 ADD MLOAD PUSH2 0x4EF PUSH1 0x1F DUP10 AND DUP3 PUSH2 0x402 JUMP JUMPDEST DUP4 SSTORE POP JUMPDEST PUSH1 0x1 PUSH1 0x2 DUP9 MUL ADD DUP9 SSTORE POP POP POP JUMPDEST POP POP POP POP POP POP JUMP JUMPDEST PUSH2 0x22B DUP1 PUSH2 0x515 PUSH0 CODECOPY PUSH0 RETURN INVALID PUSH1 0x80 PUSH1 0x40 MSTORE CALLVALUE DUP1 ISZERO PUSH2 0xF JUMPI PUSH0 DUP1 REVERT JUMPDEST POP PUSH1 0x4 CALLDATASIZE LT PUSH2 0x29 JUMPI PUSH0 CALLDATALOAD PUSH1 0xE0 SHR DUP1 PUSH4 0x6CC014DE EQ PUSH2 0x2D JUMPI JUMPDEST PUSH0 DUP1 REVERT JUMPDEST PUSH2 0x35 PUSH2 0x4C JUMP JUMPDEST PUSH1 0x40 MLOAD PUSH2 0x43 SWAP3 SWAP2 SWAP1 PUSH2 0x16A JUMP JUMPDEST PUSH1 0x40 MLOAD DUP1 SWAP2 SUB SWAP1 RETURN JUMPDEST PUSH0 DUP1 PUSH0 ADD DUP1 SLOAD PUSH2 0x5B SWAP1 PUSH2 0x1C5 JUMP JUMPDEST DUP1 PUSH1 0x1F ADD PUSH1 0x20 DUP1 SWAP2 DIV MUL PUSH1 0x20 ADD PUSH1 0x40 MLOAD SWAP1 DUP2 ADD PUSH1 0x40 MSTORE DUP1 SWAP3 SWAP2 SWAP1 DUP2 DUP2 MSTORE PUSH1 0x20 ADD DUP3 DUP1 SLOAD PUSH2 0x87 SWAP1 PUSH2 0x1C5 JUMP JUMPDEST DUP1 ISZERO PUSH2 0xD2 JUMPI DUP1 PUSH1 0x1F LT PUSH2 0xA9 JUMPI PUSH2 0x100 DUP1 DUP4 SLOAD DIV MUL DUP4 MSTORE SWAP2 PUSH1 0x20 ADD SWAP2 PUSH2 0xD2 JUMP JUMPDEST DUP3 ADD SWAP2 SWAP1 PUSH0 MSTORE PUSH1 0x20 PUSH0 KECCAK256 SWAP1 JUMPDEST DUP2 SLOAD DUP2 MSTORE SWAP1 PUSH1 0x1 ADD SWAP1 PUSH1 0x20 ADD DUP1 DUP4 GT PUSH2 0xB5 JUMPI DUP3 SWAP1 SUB PUSH1 0x1F AND DUP3 ADD SWAP2 JUMPDEST POP POP POP POP POP SWAP1 DUP1 PUSH1 0x1 ADD SLOAD SWAP1 POP DUP3 JUMP JUMPDEST PUSH0 DUP2 MLOAD SWAP1 POP SWAP2 SWAP1 POP JUMP JUMPDEST PUSH0 DUP3 DUP3 MSTORE PUSH1 0x20 DUP3 ADD SWAP1 POP SWAP3 SWAP2 POP POP JUMP JUMPDEST DUP3 DUP2 DUP4 MCOPY PUSH0 DUP4 DUP4 ADD MSTORE POP POP POP JUMP JUMPDEST PUSH0 PUSH1 0x1F NOT PUSH1 0x1F DUP4 ADD AND SWAP1 POP SWAP2 SWAP1 POP JUMP JUMPDEST PUSH0 PUSH2 0x124 DUP3 PUSH2 0xE2 JUMP JUMPDEST PUSH2 0x12E DUP2 DUP6 PUSH2 0xEC JUMP JUMPDEST SWAP4 POP PUSH2 0x13E DUP2 DUP6 PUSH1 0x20 DUP7 ADD PUSH2 0xFC JUMP JUMPDEST PUSH2 0x147 DUP2 PUSH2 0x10A JUMP JUMPDEST DUP5 ADD SWAP2 POP POP SWAP3 SWAP2 POP POP JUMP JUMPDEST PUSH0 DUP2 SWAP1 POP SWAP2 SWAP1 POP JUMP JUMPDEST PUSH2 0x164 DUP2 PUSH2 0x152 JUMP JUMPDEST DUP3 MSTORE POP POP JUMP JUMPDEST PUSH0 PUSH1 0x40 DUP3 ADD SWAP1 POP DUP2 DUP2 SUB PUSH0 DUP4 ADD MSTORE PUSH2 0x182 DUP2 DUP6 PUSH2 0x11A JUMP JUMPDEST SWAP1 POP PUSH2 0x191 PUSH1 0x20 DUP4 ADD DUP5 PUSH2 0x15B JUMP JUMPDEST SWAP4 SWAP3 POP POP POP JUMP JUMPDEST PUSH32 0x4E487B7100000000000000000000000000000000000000000000000000000000 PUSH0 MSTORE PUSH1 0x22 PUSH1 0x4 MSTORE PUSH1 0x24 PUSH0 REVERT JUMPDEST PUSH0 PUSH1 0x2 DUP3 DIV SWAP1 POP PUSH1 0x1 DUP3 AND DUP1 PUSH2 0x1DC JUMPI PUSH1 0x7F DUP3 AND SWAP2 POP JUMPDEST PUSH1 0x20 DUP3 LT DUP2 SUB PUSH2 0x1EF JUMPI PUSH2 0x1EE PUSH2 0x198 JUMP JUMPDEST JUMPDEST POP SWAP2 SWAP1 POP JUMP INVALID LOG2 PUSH5 0x6970667358 0x22 SLT KECCAK256 0x4D SUB EXTCODEHASH 0xE2 DUP11 0xC8 0xB5 0xDF 0xCE 0xC7 BLOCKHASH PUSH7 0xEB0C25613B5B4D TIMESTAMP 0xE3 MOD JUMPI PREVRANDAO JUMPI BYTE DUP2 0x2A 0xD7 OR PREVRANDAO BASEFEE PUSH5 0x736F6C6343 STOP ADDMOD BYTE STOP CALLER "
		},
		"gasEstimates": {
			"creation": {
				"codeDepositCost": "111000",
				"executionCost": "infinite",
				"totalCost": "infinite"
			},
			"external": {
				"s1()": "infinite"
			}
		},
		"methodIdentifiers": {
			"s1()": "6cc014de"
		}
	},
	"abi": [
		{
			"inputs": [
				{
					"internalType": "int256",
					"name": "_age",
					"type": "int256"
				},
				{
					"internalType": "string",
					"name": "_name",
					"type": "string"
				}
			],
			"stateMutability": "nonpayable",
			"type": "constructor"
		},
		{
			"inputs": [],
			"name": "s1",
			"outputs": [
				{
					"internalType": "string",
					"name": "name",
					"type": "string"
				},
				{
					"internalType": "int256",
					"name": "age",
					"type": "int256"
				}
			],
			"stateMutability": "view",
			"type": "function"
		}
	]
}